{
  "_format": "hh-sol-artifact-1",
  "contractName": "Node",
  "sourceName": "contracts/Node.sol",
  "abi": [
    {
      "inputs": [
        {
          "internalType": "address",
          "name": "globalContractAddress",
          "type": "address"
        },
        {
          "internalType": "uint256[]",
          "name": "initialPosition",
          "type": "uint256[]"
        },
        {
          "internalType": "uint256[]",
          "name": "initialVelocity",
          "type": "uint256[]"
        }
      ],
      "stateMutability": "nonpayable",
      "type": "constructor"
    },
    {
      "inputs": [],
      "name": "c1",
      "outputs": [
        {
          "internalType": "uint256",
          "name": "",
          "type": "uint256"
        }
      ],
      "stateMutability": "view",
      "type": "function"
    },
    {
      "inputs": [],
      "name": "c2",
      "outputs": [
        {
          "internalType": "uint256",
          "name": "",
          "type": "uint256"
        }
      ],
      "stateMutability": "view",
      "type": "function"
    },
    {
      "inputs": [],
      "name": "globalContract",
      "outputs": [
        {
          "internalType": "contract GlobalContractInterface",
          "name": "",
          "type": "address"
        }
      ],
      "stateMutability": "view",
      "type": "function"
    },
    {
      "inputs": [
        {
          "internalType": "uint256[]",
          "name": "pos",
          "type": "uint256[]"
        }
      ],
      "name": "objectiveFunction",
      "outputs": [
        {
          "internalType": "uint256",
          "name": "",
          "type": "uint256"
        }
      ],
      "stateMutability": "pure",
      "type": "function"
    },
    {
      "inputs": [
        {
          "internalType": "uint256",
          "name": "",
          "type": "uint256"
        }
      ],
      "name": "personalBestPosition",
      "outputs": [
        {
          "internalType": "uint256",
          "name": "",
          "type": "uint256"
        }
      ],
      "stateMutability": "view",
      "type": "function"
    },
    {
      "inputs": [],
      "name": "personalBestScore",
      "outputs": [
        {
          "internalType": "uint256",
          "name": "",
          "type": "uint256"
        }
      ],
      "stateMutability": "view",
      "type": "function"
    },
    {
      "inputs": [
        {
          "internalType": "uint256",
          "name": "",
          "type": "uint256"
        }
      ],
      "name": "position",
      "outputs": [
        {
          "internalType": "uint256",
          "name": "",
          "type": "uint256"
        }
      ],
      "stateMutability": "view",
      "type": "function"
    },
    {
      "inputs": [],
      "name": "updateBestPositions",
      "outputs": [],
      "stateMutability": "nonpayable",
      "type": "function"
    },
    {
      "inputs": [],
      "name": "updateVelocityAndPosition",
      "outputs": [],
      "stateMutability": "nonpayable",
      "type": "function"
    },
    {
      "inputs": [
        {
          "internalType": "uint256",
          "name": "",
          "type": "uint256"
        }
      ],
      "name": "velocity",
      "outputs": [
        {
          "internalType": "uint256",
          "name": "",
          "type": "uint256"
        }
      ],
      "stateMutability": "view",
      "type": "function"
    },
    {
      "inputs": [],
      "name": "w",
      "outputs": [
        {
          "internalType": "uint256",
          "name": "",
          "type": "uint256"
        }
      ],
      "stateMutability": "view",
      "type": "function"
    }
  ],
  "bytecode": "0x608060405234620002935762000d48803803806200001d8162000298565b928339810190606081830312620002935780516001600160a01b038116929083900362000293576020828101516001600160401b0393908481116200029357836200006a918301620002d4565b9260408201518581116200029357620000849201620002d4565b6000196003556032600490815560966005819055600655600780546001600160a01b031916909617909555825190948482116200027e57680100000000000000008083116200026957600094855484875580851062000241575b508481019384878052868820885b8381106200022e575050505087518781116200021b578281116200021b57856001998a54838c55808410620001ee575b50018988528688208a895b848110620001db57505050505051958611620001c8578511620001b55750600254846002558085106200018a575b509160028152818120905b8481106200017857604051610a0a90816200033e8239f35b83518282015592820192850162000160565b60028452858584862092830192015b828110620001a957505062000155565b85815501869062000199565b634e487b7160e01b845260419052602483fd5b634e487b7160e01b855260418252602485fd5b89845194019381840155018b9062000127565b8b8a528b84848c2092830192015b8281106200020c5750506200011c565b8b81558a94508d9101620001fc565b634e487b7160e01b875260418452602487fd5b82518282015591880191600101620000ec565b8680528486882091820191015b8181106200025d5750620000de565b8781556001016200024e565b604182634e487b7160e01b6000525260246000fd5b604190634e487b7160e01b6000525260246000fd5b600080fd5b6040519190601f01601f191682016001600160401b03811183821017620002be57604052565b634e487b7160e01b600052604160045260246000fd5b81601f8201121562000293578051916020916001600160401b038411620002be578360051b9083806200030981850162000298565b80978152019282010192831162000293578301905b8282106200032d575050505090565b815181529083019083016200031e56fe6080604081815260048036101561001557600080fd5b600092833560e01c908163205c9cc7146106d35750806348e257cb146106b45780634d985ae4146106955780635f57697c146106765780636f2407741461064c57806390ccfa0f14610623578063973b9cc11461039b578063a86853d514610371578063f0374885146102da578063f6451c0a146100d95763f7a95a9e1461009c57600080fd5b346100d55760203660031901126100d557359180548310156100d257506100c4602092610773565b91905490519160031b1c8152f35b80fd5b8280fd5b5091346100d257806003193601126100d2576007548251632ba8f1b360e01b8152939082908590839082906001600160a01b03165afa9384156102d05782946102ac575b50815b82548110156102a8578351602090818101904282528387820152868152610146816107ab565b6064918291519020069160018401908185116102955790829188519081019142835289820152888152610178816107ab565b51902006818554938161018a876106ef565b969054600397881b1c61019c91610817565b91600554906101aa91610817565b6101b38861073c565b905490881b1c6101c289610773565b905490891b1c6101d1916109a7565b6101da91610817565b046101e49161095f565b91600654906101f291610817565b6101fc868b6108bf565b5161020687610773565b905490871b1c610215916109a7565b61021e91610817565b046102289161095f565b04610232836106ef565b61024d929082549060031b91821b91600019901b1916179055565b610256826106ef565b905490821b1c61026583610773565b919092828454911b1c906102789161095f565b825460001960039390931b92831b1916911b179055600101610120565b634e487b7160e01b875260118652602487fd5b8280f35b6102c99194503d8084833e6102c181836107dd565b810190610840565b923861011d565b83513d84823e3d90fd5b5091346100d25760209060206003193601126100d25783359367ffffffffffffffff851161036d573660238601121561036d57840135610319816107ff565b94610326855196876107dd565b8186526024602087019260051b820101923684116100d25750602401905b82821061035e576020856103578861096c565b9051908152f35b81358152908301908301610344565b5080fd5b50346100d55760203660031901126100d55735916002548310156100d257506100c460209261073c565b5090346100d557826003193601126100d5578051918284549384825260208092018680526000805160206109b5833981519152875b8488821061060f57505050906103eb816103f09303826107dd565b61096c565b93600354851061052b575b506007548351632ba8f1b360e01b81526001600160a01b03909116919086818581865afa9081156105215790610438918891610507575b5061096c565b8510610442578580f35b813b1561050357938591845195869263a5cdc59b60e01b845260448401918787860152855480935260648501928680526000805160206109b58339815191529187905b8282106104e557505050508380928692602483015203925af180156104db576104af575b80808580f35b67ffffffffffffffff83116104c85750523880806104a9565b634e487b7160e01b845260419052602483fd5b82513d86823e3d90fd5b835486528c98508b9750948501946001938401939190910190610485565b8580fd5b61051b91503d808a833e6102c181836107dd565b38610432565b85513d89823e3d90fd5b8460035567ffffffffffffffff81116105fc576801000000000000000081116105fc57600254816002558082106105bc575b506000805160206109b58339815191526002875280549087915b838310610586575050506103fb565b60018091920192835492817f405787fa12a823e0f2b7631cc41b3ba8828b3321ca811111fa75cd3aa3bb5ace0155019190610577565b817f405787fa12a823e0f2b7631cc41b3ba8828b3321ca811111fa75cd3aa3bb5ace91820191015b8181106105f1575061055d565b8781556001016105e4565b634e487b7160e01b865260418352602486fd5b8254845290920191600191820191016103d0565b50503461036d578160031936011261036d5760075490516001600160a01b039091168152602090f35b50346100d55760203660031901126100d55735916001548310156100d257506100c46020926106ef565b50503461036d578160031936011261036d576020906005549051908152f35b50503461036d578160031936011261036d576020906003549051908152f35b50503461036d578160031936011261036d576020906006549051908152f35b925050346100d557826003193601126100d55760209250548152f35b6001548110156107265760016000527fb10e2d527612073b26eecdfd717e6a320cf44b4afac2b0732d9fcbe2b7fa0cf60190600090565b634e487b7160e01b600052603260045260246000fd5b6002548110156107265760026000527f405787fa12a823e0f2b7631cc41b3ba8828b3321ca811111fa75cd3aa3bb5ace0190600090565b906000918254811015610797578280526000805160206109b5833981519152019190565b634e487b7160e01b83526032600452602483fd5b6060810190811067ffffffffffffffff8211176107c757604052565b634e487b7160e01b600052604160045260246000fd5b90601f8019910116810190811067ffffffffffffffff8211176107c757604052565b67ffffffffffffffff81116107c75760051b60200190565b8181029291811591840414171561082a57565b634e487b7160e01b600052601160045260246000fd5b60209081818403126108ba5780519067ffffffffffffffff82116108ba57019180601f840112156108ba578251610876816107ff565b9361088460405195866107dd565b818552838086019260051b8201019283116108ba578301905b8282106108ab575050505090565b8151815290830190830161089d565b600080fd5b80518210156107265760209160051b010190565b80156109595780806001146109525760021461094c576001908161013382101682600b8310161761094457906002815b80821161091b5750508160001904811161082a570290565b90928060001904811161082a5781841661093b575b800292811c90610903565b80920291610930565b600291500a90565b50600490565b5050600190565b50600090565b9190820180921161082a57565b600090815b81518310156109a15761099960019161099361098d86866108bf565b516108d3565b9061095f565b920191610971565b91505090565b9190820391821161082a5756fe290decd9548b62a8d60345a988386fc84ba6bc95484008f6362f93160ef3e563a264697066735822122022b51c13f46e62d56c72be7bf250376966f62ead01ec2d6208b1578d5d3baec364736f6c63430008170033",
  "linkReferences": {},
  "deployedLinkReferences": {}
}