{
  "_format": "hh-sol-artifact-1",
  "contractName": "Node",
  "sourceName": "contracts/Node.sol",
  "abi": [
    {
      "inputs": [
        {
          "internalType": "address",
          "name": "globalContractAddress",
          "type": "address"
        },
        {
          "internalType": "int256[]",
          "name": "initialPosition",
          "type": "int256[]"
        },
        {
          "internalType": "int256[]",
          "name": "initialVelocity",
          "type": "int256[]"
        },
        {
          "internalType": "int256[]",
          "name": "initialTariff",
          "type": "int256[]"
        },
        {
          "internalType": "uint256[]",
          "name": "initialCapacity",
          "type": "uint256[]"
        },
        {
          "internalType": "uint256[]",
          "name": "initialRenewableGeneration",
          "type": "uint256[]"
        },
        {
          "internalType": "uint256[]",
          "name": "initialBatteryCapacity",
          "type": "uint256[]"
        },
        {
          "internalType": "uint256[]",
          "name": "initialBatteryCharge",
          "type": "uint256[]"
        },
        {
          "internalType": "uint256[]",
          "name": "initialFlexibleLoad",
          "type": "uint256[]"
        },
        {
          "internalType": "uint256[]",
          "name": "_flexibilityAbove",
          "type": "uint256[]"
        },
        {
          "internalType": "uint256[]",
          "name": "_flexibilityBelow",
          "type": "uint256[]"
        }
      ],
      "stateMutability": "nonpayable",
      "type": "constructor"
    },
    {
      "anonymous": false,
      "inputs": [
        {
          "indexed": true,
          "internalType": "address",
          "name": "node",
          "type": "address"
        },
        {
          "indexed": false,
          "internalType": "int256",
          "name": "newScore",
          "type": "int256"
        }
      ],
      "name": "BestPositionUpdated",
      "type": "event"
    },
    {
      "anonymous": false,
      "inputs": [
        {
          "indexed": false,
          "internalType": "uint256",
          "name": "timestamp",
          "type": "uint256"
        }
      ],
      "name": "NewPlanReceived",
      "type": "event"
    },
    {
      "inputs": [
        {
          "internalType": "uint256",
          "name": "",
          "type": "uint256"
        }
      ],
      "name": "batteryCapacity",
      "outputs": [
        {
          "internalType": "uint256",
          "name": "",
          "type": "uint256"
        }
      ],
      "stateMutability": "view",
      "type": "function"
    },
    {
      "inputs": [
        {
          "internalType": "uint256",
          "name": "",
          "type": "uint256"
        }
      ],
      "name": "batteryCharge",
      "outputs": [
        {
          "internalType": "uint256",
          "name": "",
          "type": "uint256"
        }
      ],
      "stateMutability": "view",
      "type": "function"
    },
    {
      "inputs": [],
      "name": "c1",
      "outputs": [
        {
          "internalType": "int256",
          "name": "",
          "type": "int256"
        }
      ],
      "stateMutability": "view",
      "type": "function"
    },
    {
      "inputs": [],
      "name": "c2",
      "outputs": [
        {
          "internalType": "int256",
          "name": "",
          "type": "int256"
        }
      ],
      "stateMutability": "view",
      "type": "function"
    },
    {
      "inputs": [
        {
          "internalType": "uint256",
          "name": "",
          "type": "uint256"
        }
      ],
      "name": "capacity",
      "outputs": [
        {
          "internalType": "uint256",
          "name": "",
          "type": "uint256"
        }
      ],
      "stateMutability": "view",
      "type": "function"
    },
    {
      "inputs": [
        {
          "internalType": "uint256",
          "name": "",
          "type": "uint256"
        }
      ],
      "name": "flexibilityAbove",
      "outputs": [
        {
          "internalType": "uint256",
          "name": "",
          "type": "uint256"
        }
      ],
      "stateMutability": "view",
      "type": "function"
    },
    {
      "inputs": [
        {
          "internalType": "uint256",
          "name": "",
          "type": "uint256"
        }
      ],
      "name": "flexibilityBelow",
      "outputs": [
        {
          "internalType": "uint256",
          "name": "",
          "type": "uint256"
        }
      ],
      "stateMutability": "view",
      "type": "function"
    },
    {
      "inputs": [
        {
          "internalType": "uint256",
          "name": "",
          "type": "uint256"
        }
      ],
      "name": "flexibleLoad",
      "outputs": [
        {
          "internalType": "uint256",
          "name": "",
          "type": "uint256"
        }
      ],
      "stateMutability": "view",
      "type": "function"
    },
    {
      "inputs": [
        {
          "internalType": "uint256",
          "name": "",
          "type": "uint256"
        }
      ],
      "name": "frozenBatteryCharge",
      "outputs": [
        {
          "internalType": "uint256",
          "name": "",
          "type": "uint256"
        }
      ],
      "stateMutability": "view",
      "type": "function"
    },
    {
      "inputs": [
        {
          "internalType": "uint256",
          "name": "",
          "type": "uint256"
        }
      ],
      "name": "frozenRenewableGeneration",
      "outputs": [
        {
          "internalType": "uint256",
          "name": "",
          "type": "uint256"
        }
      ],
      "stateMutability": "view",
      "type": "function"
    },
    {
      "inputs": [],
      "name": "getBatteryCapacity",
      "outputs": [
        {
          "internalType": "uint256[]",
          "name": "",
          "type": "uint256[]"
        }
      ],
      "stateMutability": "view",
      "type": "function"
    },
    {
      "inputs": [],
      "name": "getBatteryCharge",
      "outputs": [
        {
          "internalType": "uint256[]",
          "name": "",
          "type": "uint256[]"
        }
      ],
      "stateMutability": "view",
      "type": "function"
    },
    {
      "inputs": [],
      "name": "getCapacity",
      "outputs": [
        {
          "internalType": "uint256[]",
          "name": "",
          "type": "uint256[]"
        }
      ],
      "stateMutability": "view",
      "type": "function"
    },
    {
      "inputs": [
        {
          "internalType": "uint256",
          "name": "hour",
          "type": "uint256"
        },
        {
          "internalType": "int256",
          "name": "consumption",
          "type": "int256"
        }
      ],
      "name": "getEffectiveTariff",
      "outputs": [
        {
          "internalType": "int256",
          "name": "",
          "type": "int256"
        }
      ],
      "stateMutability": "view",
      "type": "function"
    },
    {
      "inputs": [],
      "name": "getFlexibilityAbove",
      "outputs": [
        {
          "internalType": "uint256[]",
          "name": "",
          "type": "uint256[]"
        }
      ],
      "stateMutability": "view",
      "type": "function"
    },
    {
      "inputs": [],
      "name": "getFlexibilityBelow",
      "outputs": [
        {
          "internalType": "uint256[]",
          "name": "",
          "type": "uint256[]"
        }
      ],
      "stateMutability": "view",
      "type": "function"
    },
    {
      "inputs": [],
      "name": "getFrozenCost",
      "outputs": [
        {
          "internalType": "int256",
          "name": "",
          "type": "int256"
        }
      ],
      "stateMutability": "view",
      "type": "function"
    },
    {
      "inputs": [],
      "name": "getFrozenEnergyBreakdown",
      "outputs": [
        {
          "components": [
            {
              "internalType": "int256",
              "name": "consumption",
              "type": "int256"
            },
            {
              "internalType": "bool",
              "name": "isInjection",
              "type": "bool"
            },
            {
              "internalType": "uint256",
              "name": "fromRenewable",
              "type": "uint256"
            },
            {
              "internalType": "uint256",
              "name": "fromBattery",
              "type": "uint256"
            },
            {
              "internalType": "uint256",
              "name": "fromGrid",
              "type": "uint256"
            },
            {
              "internalType": "int256",
              "name": "globalTarget",
              "type": "int256"
            },
            {
              "internalType": "int256",
              "name": "deviationFromGlobal",
              "type": "int256"
            }
          ],
          "internalType": "struct Node.HourlyBreakdown[]",
          "name": "",
          "type": "tuple[]"
        }
      ],
      "stateMutability": "view",
      "type": "function"
    },
    {
      "inputs": [],
      "name": "getPersonalBestPosition",
      "outputs": [
        {
          "internalType": "int256[]",
          "name": "",
          "type": "int256[]"
        }
      ],
      "stateMutability": "view",
      "type": "function"
    },
    {
      "inputs": [],
      "name": "getPosition",
      "outputs": [
        {
          "internalType": "int256[]",
          "name": "",
          "type": "int256[]"
        }
      ],
      "stateMutability": "view",
      "type": "function"
    },
    {
      "inputs": [],
      "name": "getRenewableGeneration",
      "outputs": [
        {
          "internalType": "uint256[]",
          "name": "",
          "type": "uint256[]"
        }
      ],
      "stateMutability": "view",
      "type": "function"
    },
    {
      "inputs": [],
      "name": "getTariff",
      "outputs": [
        {
          "internalType": "int256[]",
          "name": "",
          "type": "int256[]"
        }
      ],
      "stateMutability": "view",
      "type": "function"
    },
    {
      "inputs": [],
      "name": "globalContract",
      "outputs": [
        {
          "internalType": "contract GlobalContractInterface",
          "name": "",
          "type": "address"
        }
      ],
      "stateMutability": "view",
      "type": "function"
    },
    {
      "inputs": [],
      "name": "lastKnownGlobalTimestamp",
      "outputs": [
        {
          "internalType": "uint256",
          "name": "",
          "type": "uint256"
        }
      ],
      "stateMutability": "view",
      "type": "function"
    },
    {
      "inputs": [
        {
          "internalType": "int256[]",
          "name": "pos",
          "type": "int256[]"
        }
      ],
      "name": "objectiveFunction",
      "outputs": [
        {
          "internalType": "int256",
          "name": "",
          "type": "int256"
        }
      ],
      "stateMutability": "view",
      "type": "function"
    },
    {
      "inputs": [
        {
          "internalType": "int256[]",
          "name": "pos",
          "type": "int256[]"
        }
      ],
      "name": "objectiveFunctionFrozen",
      "outputs": [
        {
          "internalType": "int256",
          "name": "",
          "type": "int256"
        }
      ],
      "stateMutability": "view",
      "type": "function"
    },
    {
      "inputs": [
        {
          "internalType": "uint256",
          "name": "",
          "type": "uint256"
        }
      ],
      "name": "personalBestPosition",
      "outputs": [
        {
          "internalType": "int256",
          "name": "",
          "type": "int256"
        }
      ],
      "stateMutability": "view",
      "type": "function"
    },
    {
      "inputs": [],
      "name": "personalBestScore",
      "outputs": [
        {
          "internalType": "int256",
          "name": "",
          "type": "int256"
        }
      ],
      "stateMutability": "view",
      "type": "function"
    },
    {
      "inputs": [
        {
          "internalType": "uint256",
          "name": "",
          "type": "uint256"
        }
      ],
      "name": "position",
      "outputs": [
        {
          "internalType": "int256",
          "name": "",
          "type": "int256"
        }
      ],
      "stateMutability": "view",
      "type": "function"
    },
    {
      "inputs": [
        {
          "internalType": "uint256",
          "name": "",
          "type": "uint256"
        }
      ],
      "name": "renewableGeneration",
      "outputs": [
        {
          "internalType": "uint256",
          "name": "",
          "type": "uint256"
        }
      ],
      "stateMutability": "view",
      "type": "function"
    },
    {
      "inputs": [
        {
          "internalType": "uint256",
          "name": "",
          "type": "uint256"
        }
      ],
      "name": "tariff",
      "outputs": [
        {
          "internalType": "int256",
          "name": "",
          "type": "int256"
        }
      ],
      "stateMutability": "view",
      "type": "function"
    },
    {
      "inputs": [],
      "name": "updateBestPositions",
      "outputs": [],
      "stateMutability": "nonpayable",
      "type": "function"
    },
    {
      "inputs": [],
      "name": "updateVelocityAndPosition",
      "outputs": [],
      "stateMutability": "nonpayable",
      "type": "function"
    },
    {
      "inputs": [
        {
          "internalType": "uint256",
          "name": "",
          "type": "uint256"
        }
      ],
      "name": "velocity",
      "outputs": [
        {
          "internalType": "int256",
          "name": "",
          "type": "int256"
        }
      ],
      "stateMutability": "view",
      "type": "function"
    },
    {
      "inputs": [],
      "name": "w",
      "outputs": [
        {
          "internalType": "int256",
          "name": "",
          "type": "int256"
        }
      ],
      "stateMutability": "view",
      "type": "function"
    }
  ],
  "bytecode": "0x60806040523462000bd25762002fb2803803806200001d8162000bd7565b92833981016101608282031262000bd25781516001600160a01b038116919082900362000bd25760208301516001600160401b03811162000bd257816200006691850162000c15565b60408401519093906001600160401b03811162000bd257826200008b91830162000c15565b60608201516001600160401b03811162000bd25783620000ad91840162000c15565b60808301516001600160401b03811162000bd25784620000cf91850162000c15565b60a08401516001600160401b03811162000bd25785620000f191860162000c15565b60c08501519091906001600160401b03811162000bd257866200011691870162000c15565b60e08601519093906001600160401b03811162000bd257876200013b91880162000c15565b6101008701519095906001600160401b03811162000bd257886200016191890162000c15565b6101208801519097906001600160401b03811162000bd257896200018791830162000c15565b6101408201519099906001600160401b03811162000bd257620001ab920162000c15565b6001600160ff1b03600355603260055560c86006819055600755601080546001600160a01b031916909a179099558951620001e69062000c79565b8051906001600160401b038211620008905768010000000000000000821162000890576000548260005580831062000b9b575b5060200160008052602060002060005b83811062000b86575050505062000241815162000c79565b8051906001600160401b038211620008905768010000000000000000821162000890576001548260015580831062000b4d575b506020016001600052602060002060005b83811062000b3857505050506200029d8a5162000c79565b8051906001600160401b038211620008905768010000000000000000821162000890576002548260025580831062000aff575b506020016002600052602060002060005b83811062000aea5750505050620002f9825162000c79565b8051906001600160401b038211620008905768010000000000000000821162000890576008548260085580831062000ab1575b506020016008600052602060002060005b83811062000a9c575050505062000355835162000c79565b8051906001600160401b038211620008905768010000000000000000821162000890576009548260095580831062000a63575b506020016009600052602060002060005b83811062000a4e5750505050620003b1845162000c79565b8051906001600160401b03821162000890576801000000000000000082116200089057600a5482600a5580831062000a15575b50602001600a600052602060002060005b83811062000a0057505050506200040d855162000c79565b8051906001600160401b03821162000890576801000000000000000082116200089057600b5482600b55808310620009b6575b50602001600b600052602060002060005b838110620009a1575050505062000469865162000c79565b8051906001600160401b03821162000890576801000000000000000082116200089057600c5482600c5580831062000957575b50602001600c600052602060002060005b838110620009425750505050620004c5875162000c79565b8051906001600160401b03821162000890576801000000000000000082116200089057600d5482600d5580831062000909575b50602001600d600052602060002060005b838110620008f4575050505062000521885162000c79565b8051906001600160401b03821162000890576801000000000000000082116200089057600e5482600e55808310620008bb575b50602001600e600052602060002060005b838110620008a657505050506200057d895162000c79565b8051906001600160401b03821162000890576801000000000000000082116200089057600f5482600f5580831062000846575b50602001600f600052602060002060005b83811062000831575050505060005b8a518110156200082157620005e6818c62000ca6565b516000548210156200080b576000805260008051602062002f1283398151915282015562000615818c62000ca6565b516002548210156200080b57600260005260008051602062002eb283398151915282015562000645818362000ca6565b516001548210156200080b57600160005260008051602062002f9283398151915282015562000675818462000ca6565b516008548210156200080b57600860005260008051602062002f52833981519152820155620006a5818562000ca6565b516009548210156200080b57600960005260008051602062002f72833981519152820155620006d5818662000ca6565b51600a548210156200080b57600a60005260008051602062002ef283398151915282015562000705818762000ca6565b51600b548210156200080b57600b6000527f0175b7a638427703f0dbe7bb9bbf987a2551717b34e79f33b5b1008d1fa01db982015562000746818862000ca6565b51600c548210156200080b57600c6000527fdf6966c971051c3d54ec59162606531493a51404a002842f56009d7e5cf4a8c782015562000787818962000ca6565b51600d548210156200080b57600d60005260008051602062002f32833981519152820155620007b7818a62000ca6565b51600e548210156200080b57600e60005260008051602062002ed2833981519152820155620007e7818b62000ca6565b5190600f548110156200080b57600191600f600052816020600020015501620005d0565b634e487b7160e01b600052603260045260246000fd5b6040516121f6908162000cbc8239f35b600190602084519401938184015501620005c1565b600f6000527f8d1108e10bcb7c27dddfc02ed9d693a074039d026cf4ea4240b40f7d581ac802908382015b818301811062000883575050620005b0565b6000815560010162000871565b634e487b7160e01b600052604160045260246000fd5b60019060208451940193818401550162000565565b600e60005260008051602062002ed2833981519152908382015b8183018110620008e757505062000554565b60008155600101620008d5565b60019060208451940193818401550162000509565b600d60005260008051602062002f32833981519152908382015b818301811062000935575050620004f8565b6000815560010162000923565b600190602084519401938184015501620004ad565b600c6000527fdf6966c971051c3d54ec59162606531493a51404a002842f56009d7e5cf4a8c7908382015b8183018110620009945750506200049c565b6000815560010162000982565b60019060208451940193818401550162000451565b600b6000527f0175b7a638427703f0dbe7bb9bbf987a2551717b34e79f33b5b1008d1fa01db9908382015b8183018110620009f357505062000440565b60008155600101620009e1565b600190602084519401938184015501620003f5565b600a60005260008051602062002ef2833981519152908382015b818301811062000a41575050620003e4565b6000815560010162000a2f565b60019060208451940193818401550162000399565b600960005260008051602062002f72833981519152908382015b818301811062000a8f57505062000388565b6000815560010162000a7d565b6001906020845194019381840155016200033d565b600860005260008051602062002f52833981519152908382015b818301811062000add5750506200032c565b6000815560010162000acb565b600190602084519401938184015501620002e1565b600260005260008051602062002eb2833981519152908382015b818301811062000b2b575050620002d0565b6000815560010162000b19565b60019060208451940193818401550162000285565b600160005260008051602062002f92833981519152908382015b818301811062000b7957505062000274565b6000815560010162000b67565b60019060208451940193818401550162000229565b6000805260008051602062002f128339815191529081019083015b81811062000bc5575062000219565b6000815560010162000bb6565b600080fd5b6040519190601f01601f191682016001600160401b038111838210176200089057604052565b6001600160401b038111620008905760051b60200190565b9080601f8301121562000bd25781519060209162000c3d62000c378262000bfd565b62000bd7565b9360208086848152019260051b82010192831162000bd257602001905b82821062000c69575050505090565b8151815290830190830162000c5a565b9062000c8962000c378362000bfd565b828152809262000c9c601f199162000bfd565b0190602036910137565b80518210156200080b5760209160051b01019056fe6080604081815260048036101561001557600080fd5b60009260e0843560e01c91826303bc4a86146113a65750816304d019421461137b57816316b5192814611350578163205c9cc714611330578163300aee1414611314578163364132d9146112f6578163375a105e146112cb5781634485bb551461125157816348e257cb146112315781634d985ae4146112115781634eb274ff146111e65781635f57697c146111c65781636f2407741461119b5781637398ab181461112257816378b6d7d4146110f757816385c96e661461107d57816390ccfa0f14611053578163957b40561461103357816396d14da614611008578163973b9cc114610c67578163983bedda14610bec5781639b14d83b14610b71578163a86853d514610b46578163ab1bbeca14610b1b578163b27966e614610aa0578163b6ce670914610a4f578163c40000d4146109d4578163d0c6c7af146109b6578163e329143f14610965578163e7d463851461092e578163f6451c0a146104ed578163f74989481461029f57508063f7a95a9e14610276578063fb722277146101e55763ff9c446f146101a757600080fd5b346101e15760203660031901126101e15735916011548310156101de57506101d0602092611609565b91905490519160031b1c8152f35b80fd5b8280fd5b8284346101de57806003193601126101de57508051600a80548083526000918252602080840194927fc65a7bb8d6351c1cf70c95a316cc6a92839c986682d98bc35f958f4883f9d2a892915b82821061025f5761025b8686610249828b0383611640565b51918291602083526020830190611715565b0390f35b835487529586019560019384019390910190610231565b50346101e15760203660031901126101e157359180548310156101de57506101d06020926114f5565b90508284346101de57806003193601126101de57600254906102c082611678565b946102cd84519687611640565b8286526102d983611678565b60209390601f190184845b8281106104d7575050601054865163b6042cf960e01b815293859250849182906001600160a01b03165afa9182156104cd5783926104a9575b508296949593925b8181106103a75750505083519381850192828652845180945282828701950196915b8483106103545786860387f35b875180518752808501511515878601528082015187830152606080820151908801526080808201519088015260a0808201519088015260c090810151908701529683019694810194600190920191610347565b806103b96001929995969897996115ad565b9054600391821b1c6103c9612157565b9181835287821289840152858751146000146104a0576103fa6103ec858961185b565b515b8060a08601528361199d565b60c084015287821361042b575b5050610413828b61185b565b5261041e818a61185b565b5001969495939296610325565b819061043685611609565b905490821b1c90610446866113cc565b9054911b1c9280821061048b5750508983015286905b81811061047757506060820152855b60808201528a80610407565b610486918160608501526118e9565b61046b565b61049a9250818c8601526118e9565b9061045c565b6103fa886103ee565b6104c69192503d8085833e6104be8183611640565b81019061186f565b908761031d565b85513d85823e3d90fd5b6104df612157565b82828c0101520185906102e4565b5050346101e157826003193601126101e15760105482516302989b4b60e61b8152929060209085906001600160a01b031682868681845afa801561092457859683969596916108ef575b5083855482116108bd575b5050845163b6042cf960e01b815295869182905afa9384156108b3578594610897575b50835185540361086257845b855481101561085e57610583816114f5565b905485514285820190815260208101859052600393841b9290921c6040830152806060830103906105bc601f1992838101835282611640565b6064928391519020069060019182860180871161084b57846065918b6106198b61060d6105e88d6114be565b9054908d1b1c9351938492830195428791606093918352602083015260408201520190565b03878101835282611640565b5190200692610627886114be565b905490881b1c906106608c5191826106548d8201958d428891606093918352602083015260408201520190565b03908101835282611640565b5190200692603119840193841316610836579161071b610720928561070b886107068f8499839b61070b60019f9e938f6106fd816106e56106cf826106c96107129b6106ae610706986115ad565b905490821b1c906106be846114f5565b9054911b1c9061199d565b9661185b565b516106d9836114f5565b9054908d1b1c9061199d565b996106f2600554926114be565b9054911b1c9061197a565b9460065461197a565b61197a565b05906119d4565b9460075461197a565b6119d4565b0561074461072d846114be565b819391549060031b91821b91600019901b19161790565b905561076d610752836114f5565b905490831b1c610761846114be565b905490841b1c906119d4565b61077961072d846114f5565b90556107aa610787836115ad565b905490831b1c6107a461079985611450565b905490851b1c61190c565b9061199d565b6107d96107b6846115ad565b905490841b1c6107d36107c88661153f565b905490861b1c61190c565b906119d4565b918183926107e6866114f5565b905490841b1c12610822575b506107fc846114f5565b9054911b1c1361080e575b5001610571565b61081a61072d836114f5565b905538610807565b61082e61072d866114f5565b9055386107f2565b601188634e487b7160e01b6000525260246000fd5b634e487b7160e01b8c526011895260248cfd5b8580f35b606492519162461bcd60e51b8352820152601260248201527144696d656e7369756e6920696e6567616c6560701b6044820152fd5b6108ac9194503d8087833e6104be8183611640565b9238610565565b83513d87823e3d90fd5b817fc06999d659d5132dd93a1915097da1a6a24201916389e38da2404e4bca5e59be9287558751908152a13883610542565b809550848092503d831161091d575b6109088183611640565b810103126109195785935138610537565b5080fd5b503d6108fe565b84513d84823e3d90fd5b50505034610919578160031936011261091957805161025b9161095b8261095481611785565b0383611640565b5191829182611749565b5050346101e15760203660031901126101e15735600d548110156101e15760209250600d6000527fd7b6990105719101dabeb77144f2a3385c8033acd3af97e9423a695e81ad1eb501549051908152f35b5050346101e157826003193601126101e15760209250549051908152f35b8385346101de57806003193601126101de57508051600980548083526000918252602080840194927f6e1540171b6c0c960b71a7020d9f60077f6af931a8bbf590da0223dacf75c7af92915b828210610a385761025b8686610249828b0383611640565b835487529586019560019384019390910190610a20565b5050346101e15760203660031901126101e15735600b548110156101e15760209250600b6000527f0175b7a638427703f0dbe7bb9bbf987a2551717b34e79f33b5b1008d1fa01db901549051908152f35b8385346101de57806003193601126101de57508051600e80548083526000918252602080840194927fbb7b4a454dc3493923482f07822329ed19e8244eff582cc204f8554c3620c3fd92915b828210610b045761025b8686610249828b0383611640565b835487529586019560019384019390910190610aec565b5050346101e15760203660031901126101e15735916009548310156101de57506101d06020926115d2565b5050346101e15760203660031901126101e15735916002548310156101de57506101d06020926115ad565b8385346101de57806003193601126101de57508051600880548083526000918252602080840194927ff3f7a9fe364faab93b216da50a3214154f22a0a2b415b23a84c8169e8b636ee392915b828210610bd55761025b868661095b828b0383611640565b835487529586019560019384019390910190610bbd565b8385346101de57806003193601126101de57508051600f80548083526000918252602080840194927f8d1108e10bcb7c27dddfc02ed9d693a074039d026cf4ea4240b40f7d581ac80292915b828210610c505761025b8686610249828b0383611640565b835487529586019560019384019390910190610c38565b505090346101e157600319918383360112610d5b57610c9a8251610c9581610c8e816117d0565b0382611640565b611dae565b600380548212610da7575b908591600e54610cb481611829565b91845b828110610d5f5750506010546001600160a01b0316919050813b15610d5b5783610d1497875198899586948593632fc0395f60e01b855260608b860152610d00606486016117d0565b926024860152848303016044850152611715565b03925af18015610d5157610d26578380f35b67ffffffffffffffff8311610d3e5750523880808380f35b634e487b7160e01b845260419052602483fd5b82513d86823e3d90fd5b8380fd5b6001919293949550610d8e610d738261153f565b905490851b1c610d8283611450565b905490861b1c906119b6565b821c610d9a828761185b565b5201908894939291610cb7565b919492909384835583549267ffffffffffffffff8411610ff5576801000000000000000093848111610fe25760025481600255808210610fb4575b507f290decd9548b62a8d60345a988386fc84ba6bc95484008f6362f93160ef3e5636002875280549087915b838310610f9057505050506011916011548660115580610f4e575b506012936012548760125580610f0c575b50865b600a54811015610ed257610e5081611576565b9054865491861b1c88821015610ebf57610e7361072d6001938481018a55611609565b9055610e7e82611487565b9054885491871b1c9189821015610eac5761072d82610ea4926001969594018b556113cc565b905501610e3d565b634e487b7160e01b8b5260418d5260248bfd5b634e487b7160e01b8a5260418c5260248afd5b5095979450959250905083518281527f409d103f7876158f293a85ee39f235ce0c309ab1aca81024a51dfb4b471e556e60203092a2610ca5565b601288527fbb8a6a4669ba250d26cd7a459eca9d215f8307e33aebe50379bc5a3617ec3444908101905b818110610f435750610e3a565b888155600101610f36565b601187527f31ecc21a745e3968a04e9570e4425bc18fa8019c68028196b546d1669c200c68908101905b818110610f855750610e29565b878155600101610f78565b60018091920192835492816000805160206121a18339815191520155019190610e0e565b816000805160206121a183398151915291820191015b818110610fd75750610de2565b878155600101610fca565b634e487b7160e01b865260418852602486fd5b634e487b7160e01b855260418752602485fd5b5050346101e15760203660031901126101e1573591600a548310156101de57506101d0602092611576565b505091346101de57816003193601126101de57506101d060209235611419565b5050503461091957816003193601126109195760105490516001600160a01b039091168152602090f35b8385346101de57806003193601126101de578151918291600c54808552602080950194600c83527fdf6966c971051c3d54ec59162606531493a51404a002842f56009d7e5cf4a8c792905b8282106110e05761025b8686610249828b0383611640565b8354875295860195600193840193909101906110c8565b5050346101e15760203660031901126101e1573591600e548310156101de57506101d060209261153f565b8385346101de57806003193601126101de57805461113f81611678565b9161114c84519384611640565b818352601f1961115b83611678565b013660208501375b8181106111775783518061025b8582611749565b806111836001926114f5565b90549060031b1c611194828661185b565b5201611163565b5050346101e15760203660031901126101e15735916001548310156101de57506101d06020926114be565b505050346109195781600319360112610919576020906006549051908152f35b5050346101e15760203660031901126101e1573591600c548310156101de57506101d0602092611487565b505050346109195781600319360112610919576020906003549051908152f35b505050346109195781600319360112610919576020906007549051908152f35b8385346101de57806003193601126101de578151918291600b54808552602080950194600b83527f0175b7a638427703f0dbe7bb9bbf987a2551717b34e79f33b5b1008d1fa01db992905b8282106112b45761025b8686610249828b0383611640565b83548752958601956001938401939091019061129c565b5050346101e15760203660031901126101e1573591600f548310156101de57506101d0602092611450565b505050346109195760209061130d610c9536611690565b9051908152f35b505050346109195760209061130d61132b36611690565b6119f0565b505050346109195781600319360112610919576020906005549051908152f35b5050346101e15760203660031901126101e15735916008548310156101de57506101d0602092611419565b5050346101e15760203660031901126101e15735916012548310156101de57506101d06020926113cc565b8486346101de57806003193601126101de575061130d8261132b81610c8e602096611785565b6012548110156114035760126000527fbb8a6a4669ba250d26cd7a459eca9d215f8307e33aebe50379bc5a3617ec34440190600090565b634e487b7160e01b600052603260045260246000fd5b6008548110156114035760086000527ff3f7a9fe364faab93b216da50a3214154f22a0a2b415b23a84c8169e8b636ee30190600090565b600f5481101561140357600f6000527f8d1108e10bcb7c27dddfc02ed9d693a074039d026cf4ea4240b40f7d581ac8020190600090565b600c5481101561140357600c6000527fdf6966c971051c3d54ec59162606531493a51404a002842f56009d7e5cf4a8c70190600090565b6001548110156114035760016000527fb10e2d527612073b26eecdfd717e6a320cf44b4afac2b0732d9fcbe2b7fa0cf60190600090565b90600091825481101561152b578280527f290decd9548b62a8d60345a988386fc84ba6bc95484008f6362f93160ef3e563019190565b634e487b7160e01b83526032600452602483fd5b600e5481101561140357600e6000527fbb7b4a454dc3493923482f07822329ed19e8244eff582cc204f8554c3620c3fd0190600090565b600a5481101561140357600a6000527fc65a7bb8d6351c1cf70c95a316cc6a92839c986682d98bc35f958f4883f9d2a80190600090565b6002548110156114035760026000526000805160206121a18339815191520190600090565b6009548110156114035760096000527f6e1540171b6c0c960b71a7020d9f60077f6af931a8bbf590da0223dacf75c7af0190600090565b6011548110156114035760116000527f31ecc21a745e3968a04e9570e4425bc18fa8019c68028196b546d1669c200c680190600090565b90601f8019910116810190811067ffffffffffffffff82111761166257604052565b634e487b7160e01b600052604160045260246000fd5b67ffffffffffffffff81116116625760051b60200190565b602080600319830112611710576004359167ffffffffffffffff831161171057806023840112156117105782600401356116c981611678565b936116d76040519586611640565b8185526024602086019260051b82010192831161171057602401905b828210611701575050505090565b813581529083019083016116f3565b600080fd5b90815180825260208080930193019160005b828110611735575050505090565b835185529381019392810192600101611727565b602090602060408183019282815285518094520193019160005b828110611771575050505090565b835185529381019392810192600101611763565b6002549081815260208091019160026000526000805160206121a1833981519152916000905b8282106117b9575050505090565b8354855293840193600193840193909101906117ab565b600080548083528180526020928301927f290decd9548b62a8d60345a988386fc84ba6bc95484008f6362f93160ef3e56392905b828210611812575050505090565b835485529384019360019384019390910190611804565b9061183382611678565b6118406040519182611640565b8281528092611851601f1991611678565b0190602036910137565b80518210156114035760209160051b010190565b60209081818403126117105780519067ffffffffffffffff821161171057019180601f840112156117105782516118a581611678565b936118b36040519586611640565b818552838086019260051b820101928311611710578301905b8282106118da575050505090565b815181529083019083016118cc565b919082039182116118f657565b634e487b7160e01b600052601160045260246000fd5b908160011b91808305600214901517156118f657565b90604b820291808305604b14901517156118f657565b90602b820291808305602b14901517156118f657565b906012820291808305601214901517156118f657565b908160021b91808305600414901517156118f657565b818102929160008212600160ff1b8214166118f65781840514901517156118f657565b818103929160001380158285131691841216176118f657565b919082018092116118f657565b600160ff1b81146118f65760000390565b919091600083820193841291129080158216911516176118f657565b600090805160115490611a0282611829565b91845b818110611d8a57505060125491611a1b83611829565b92855b818110611d6657505060105460405163b6042cf960e01b815291908690839060049082906001600160a01b03165afa918215611d5b578692611d3f575b509392919085945b828610611a735750505050505090565b909192939495611bab6001916107d3611a8c8a8a61185b565b51600080821215611c7d5750611ab181611aa58d611419565b90549060031b1c61197a565b905b611b928c6107d3611b8c611ac6836115d2565b90546003949160009190861b1c871315611c7057506107d3611b86611af9611aed846115d2565b905490881b1c8961199d565b955b611b63611b07856115ad565b905490831b1c611b3e611b37611b1c8861153f565b905490861b1c611b2b89611450565b905490871b1c906119b6565b918c61199d565b60008112611c6157905b60009181811315611c5957611b5d925061199d565b94611609565b9054911b1c88600091818113600014611c5157611b80925061199d565b95611922565b91611938565b9161194e565b6000918d8b8b5114611bb7575b505061071b91926119d4565b96019493929190611a63565b611bc4611bcc918c61185b565b51809261199d565b90838212611c425781905b8015611c3a57600a9005915b828213611bf3575b50508d611b9f565b61071b941215611c1a57611c0f91611c0a9161199d565b611964565b925b92913880611beb565b611c2a611c3492611c2f9261199d565b61190c565b6119c3565b92611c11565b508391611be3565b611c4b826119c3565b90611bd7565b505095611922565b505094611609565b611c6a906119c3565b90611b48565b611b866107d39195611afb565b611ceb908c8384611c8e838c61185b565b5110611d1957611cab611cb291611ca5848d61185b565b516118e9565b918a61185b565b528c815b8c81611cc2848361185b565b5110611cf157611ce091611ca584611cd99361185b565b918d61185b565b525b611aa58d611419565b90611ab3565b611d1391611d0584611d0c9396959661185b565b51906118e9565b928d61185b565b52611ce2565b50611d2e611d27828b61185b565b51856118e9565b82611d39838c61185b565b52611cb6565b611d549192503d8088833e6104be8183611640565b9038611a5b565b6040513d88823e3d90fd5b80611d726001926113cc565b90549060031b1c611d83828861185b565b5201611a1e565b80611d96600192611609565b90549060031b1c611da7828761185b565b5201611a05565b60009080516040519081600a8054808552602080950190600a88527fc65a7bb8d6351c1cf70c95a316cc6a92839c986682d98bc35f958f4883f9d2a890885b87828210612143575050505082611e05910383611640565b604051918280956020600c54958681520194600c8a527fdf6966c971051c3d54ec59162606531493a51404a002842f56009d7e5cf4a8c7918a905b8282106121295750505050611e59906004940386611640565b60105460405163b6042cf960e01b815293889185919082906001600160a01b03165afa92831561211e578793612102575b50949392919086955b838710611ea4575050505050505090565b90919293949596611fa26001916107d3611ebe8b8b61185b565b518b6000808312156120565750611ed882611aa583611419565b915b611f8a611ee6836115d2565b905460039160009190831b1c84131561204957506107d3611b8c611f18611f0c876115d2565b905490851b1c8661199d565b925b6107d3611b86611f29896115ad565b905490841b1c611f60611f59611f3e8c61153f565b905490871b1c611f4d8d611450565b905490881b1c906119b6565b918a61199d565b6000811261203a57905b6000918181131561203257611f7f925061199d565b925b611b638a611576565b906000928c8c5114611faf57505061071b91926119d4565b9701959493929190611e93565b611bc4611fbc918d61185b565b90838212612022578a82915b80156120195705915b828213611fe1575b50508e611b9f565b61071b94121561200357611ff891611c0a9161199d565b925b92913880611fd9565b611c2a61201392611c2f9261199d565b92611ffa565b50508391611fd1565b8a61202c836119c3565b91611fc8565b505092611f81565b612043906119c3565b90611f6a565b611b8c6107d39192611f1a565b6120be908384612066858c61185b565b51106120e25761207a90611ca5858c61185b565b612084848b61185b565b52805b8d8483612094828461185b565b51106120c4576120ad829394611ca5836120b39561185b565b9261185b565b525b611aa583611419565b91611eda565b6120d68294611d05836120dc9561185b565b9361185b565b526120b5565b506120f0611d27848b61185b565b90806120fc858c61185b565b52612087565b6121179193503d8089833e6104be8183611640565b9138611e8a565b6040513d89823e3d90fd5b835488529687019689945060019384019390910190611e40565b835485529093019260019283019201611ded565b6040519060e0820182811067ffffffffffffffff821117611662576040528160c06000918281528260208201528260408201528260608201528260808201528260a0820152015256fe405787fa12a823e0f2b7631cc41b3ba8828b3321ca811111fa75cd3aa3bb5acea264697066735822122017ced4aa76a9d8e97c4b8053817825f836e093c791d234bdbf4059cc2862c79764736f6c63430008170033405787fa12a823e0f2b7631cc41b3ba8828b3321ca811111fa75cd3aa3bb5acebb7b4a454dc3493923482f07822329ed19e8244eff582cc204f8554c3620c3fdc65a7bb8d6351c1cf70c95a316cc6a92839c986682d98bc35f958f4883f9d2a8290decd9548b62a8d60345a988386fc84ba6bc95484008f6362f93160ef3e563d7b6990105719101dabeb77144f2a3385c8033acd3af97e9423a695e81ad1eb5f3f7a9fe364faab93b216da50a3214154f22a0a2b415b23a84c8169e8b636ee36e1540171b6c0c960b71a7020d9f60077f6af931a8bbf590da0223dacf75c7afb10e2d527612073b26eecdfd717e6a320cf44b4afac2b0732d9fcbe2b7fa0cf6",
  "linkReferences": {},
  "deployedLinkReferences": {}
}