{
  "_format": "hh-sol-artifact-1",
  "contractName": "Node",
  "sourceName": "contracts/Node.sol",
  "abi": [
    {
      "inputs": [
        {
          "internalType": "address",
          "name": "globalContractAddress",
          "type": "address"
        },
        {
          "internalType": "int256[]",
          "name": "initialPosition",
          "type": "int256[]"
        },
        {
          "internalType": "int256[]",
          "name": "initialVelocity",
          "type": "int256[]"
        },
        {
          "internalType": "int256[]",
          "name": "initialTariff",
          "type": "int256[]"
        },
        {
          "internalType": "uint256[]",
          "name": "initialCapacity",
          "type": "uint256[]"
        },
        {
          "internalType": "uint256[]",
          "name": "initialRenewableGeneration",
          "type": "uint256[]"
        },
        {
          "internalType": "uint256[]",
          "name": "initialBatteryCapacity",
          "type": "uint256[]"
        },
        {
          "internalType": "uint256[]",
          "name": "initialBatteryCharge",
          "type": "uint256[]"
        },
        {
          "internalType": "uint256[]",
          "name": "initialFlexibleLoad",
          "type": "uint256[]"
        },
        {
          "internalType": "uint256[]",
          "name": "_flexibilityAbove",
          "type": "uint256[]"
        },
        {
          "internalType": "uint256[]",
          "name": "_flexibilityBelow",
          "type": "uint256[]"
        }
      ],
      "stateMutability": "nonpayable",
      "type": "constructor"
    },
    {
      "anonymous": false,
      "inputs": [
        {
          "indexed": true,
          "internalType": "address",
          "name": "node",
          "type": "address"
        },
        {
          "indexed": false,
          "internalType": "int256",
          "name": "newScore",
          "type": "int256"
        }
      ],
      "name": "BestPositionUpdated",
      "type": "event"
    },
    {
      "anonymous": false,
      "inputs": [
        {
          "indexed": false,
          "internalType": "uint256",
          "name": "timestamp",
          "type": "uint256"
        }
      ],
      "name": "NewPlanReceived",
      "type": "event"
    },
    {
      "inputs": [
        {
          "internalType": "uint256",
          "name": "",
          "type": "uint256"
        }
      ],
      "name": "batteryCapacity",
      "outputs": [
        {
          "internalType": "uint256",
          "name": "",
          "type": "uint256"
        }
      ],
      "stateMutability": "view",
      "type": "function"
    },
    {
      "inputs": [
        {
          "internalType": "uint256",
          "name": "",
          "type": "uint256"
        }
      ],
      "name": "batteryCharge",
      "outputs": [
        {
          "internalType": "uint256",
          "name": "",
          "type": "uint256"
        }
      ],
      "stateMutability": "view",
      "type": "function"
    },
    {
      "inputs": [],
      "name": "c1",
      "outputs": [
        {
          "internalType": "int256",
          "name": "",
          "type": "int256"
        }
      ],
      "stateMutability": "view",
      "type": "function"
    },
    {
      "inputs": [],
      "name": "c2",
      "outputs": [
        {
          "internalType": "int256",
          "name": "",
          "type": "int256"
        }
      ],
      "stateMutability": "view",
      "type": "function"
    },
    {
      "inputs": [
        {
          "internalType": "uint256",
          "name": "",
          "type": "uint256"
        }
      ],
      "name": "capacity",
      "outputs": [
        {
          "internalType": "uint256",
          "name": "",
          "type": "uint256"
        }
      ],
      "stateMutability": "view",
      "type": "function"
    },
    {
      "inputs": [
        {
          "internalType": "uint256",
          "name": "",
          "type": "uint256"
        }
      ],
      "name": "flexibilityAbove",
      "outputs": [
        {
          "internalType": "uint256",
          "name": "",
          "type": "uint256"
        }
      ],
      "stateMutability": "view",
      "type": "function"
    },
    {
      "inputs": [
        {
          "internalType": "uint256",
          "name": "",
          "type": "uint256"
        }
      ],
      "name": "flexibilityBelow",
      "outputs": [
        {
          "internalType": "uint256",
          "name": "",
          "type": "uint256"
        }
      ],
      "stateMutability": "view",
      "type": "function"
    },
    {
      "inputs": [
        {
          "internalType": "uint256",
          "name": "",
          "type": "uint256"
        }
      ],
      "name": "flexibleLoad",
      "outputs": [
        {
          "internalType": "uint256",
          "name": "",
          "type": "uint256"
        }
      ],
      "stateMutability": "view",
      "type": "function"
    },
    {
      "inputs": [
        {
          "internalType": "uint256",
          "name": "",
          "type": "uint256"
        }
      ],
      "name": "frozenBatteryCharge",
      "outputs": [
        {
          "internalType": "uint256",
          "name": "",
          "type": "uint256"
        }
      ],
      "stateMutability": "view",
      "type": "function"
    },
    {
      "inputs": [
        {
          "internalType": "uint256",
          "name": "",
          "type": "uint256"
        }
      ],
      "name": "frozenRenewableGeneration",
      "outputs": [
        {
          "internalType": "uint256",
          "name": "",
          "type": "uint256"
        }
      ],
      "stateMutability": "view",
      "type": "function"
    },
    {
      "inputs": [],
      "name": "getBatteryCapacity",
      "outputs": [
        {
          "internalType": "uint256[]",
          "name": "",
          "type": "uint256[]"
        }
      ],
      "stateMutability": "view",
      "type": "function"
    },
    {
      "inputs": [],
      "name": "getBatteryCharge",
      "outputs": [
        {
          "internalType": "uint256[]",
          "name": "",
          "type": "uint256[]"
        }
      ],
      "stateMutability": "view",
      "type": "function"
    },
    {
      "inputs": [],
      "name": "getCapacity",
      "outputs": [
        {
          "internalType": "uint256[]",
          "name": "",
          "type": "uint256[]"
        }
      ],
      "stateMutability": "view",
      "type": "function"
    },
    {
      "inputs": [
        {
          "internalType": "uint256",
          "name": "hour",
          "type": "uint256"
        },
        {
          "internalType": "int256",
          "name": "consumption",
          "type": "int256"
        }
      ],
      "name": "getEffectiveTariff",
      "outputs": [
        {
          "internalType": "int256",
          "name": "",
          "type": "int256"
        }
      ],
      "stateMutability": "view",
      "type": "function"
    },
    {
      "inputs": [],
      "name": "getFlexibilityAbove",
      "outputs": [
        {
          "internalType": "uint256[]",
          "name": "",
          "type": "uint256[]"
        }
      ],
      "stateMutability": "view",
      "type": "function"
    },
    {
      "inputs": [],
      "name": "getFlexibilityBelow",
      "outputs": [
        {
          "internalType": "uint256[]",
          "name": "",
          "type": "uint256[]"
        }
      ],
      "stateMutability": "view",
      "type": "function"
    },
    {
      "inputs": [],
      "name": "getFrozenCost",
      "outputs": [
        {
          "internalType": "int256",
          "name": "",
          "type": "int256"
        }
      ],
      "stateMutability": "view",
      "type": "function"
    },
    {
      "inputs": [],
      "name": "getPersonalBestPosition",
      "outputs": [
        {
          "internalType": "int256[]",
          "name": "",
          "type": "int256[]"
        }
      ],
      "stateMutability": "view",
      "type": "function"
    },
    {
      "inputs": [],
      "name": "getPosition",
      "outputs": [
        {
          "internalType": "int256[]",
          "name": "",
          "type": "int256[]"
        }
      ],
      "stateMutability": "view",
      "type": "function"
    },
    {
      "inputs": [],
      "name": "getRenewableGeneration",
      "outputs": [
        {
          "internalType": "uint256[]",
          "name": "",
          "type": "uint256[]"
        }
      ],
      "stateMutability": "view",
      "type": "function"
    },
    {
      "inputs": [],
      "name": "getTariff",
      "outputs": [
        {
          "internalType": "int256[]",
          "name": "",
          "type": "int256[]"
        }
      ],
      "stateMutability": "view",
      "type": "function"
    },
    {
      "inputs": [],
      "name": "globalContract",
      "outputs": [
        {
          "internalType": "contract GlobalContractInterface",
          "name": "",
          "type": "address"
        }
      ],
      "stateMutability": "view",
      "type": "function"
    },
    {
      "inputs": [],
      "name": "lastKnownGlobalTimestamp",
      "outputs": [
        {
          "internalType": "uint256",
          "name": "",
          "type": "uint256"
        }
      ],
      "stateMutability": "view",
      "type": "function"
    },
    {
      "inputs": [
        {
          "internalType": "int256[]",
          "name": "pos",
          "type": "int256[]"
        }
      ],
      "name": "objectiveFunction",
      "outputs": [
        {
          "internalType": "int256",
          "name": "",
          "type": "int256"
        }
      ],
      "stateMutability": "view",
      "type": "function"
    },
    {
      "inputs": [
        {
          "internalType": "int256[]",
          "name": "pos",
          "type": "int256[]"
        }
      ],
      "name": "objectiveFunctionFrozen",
      "outputs": [
        {
          "internalType": "int256",
          "name": "",
          "type": "int256"
        }
      ],
      "stateMutability": "view",
      "type": "function"
    },
    {
      "inputs": [
        {
          "internalType": "uint256",
          "name": "",
          "type": "uint256"
        }
      ],
      "name": "personalBestPosition",
      "outputs": [
        {
          "internalType": "int256",
          "name": "",
          "type": "int256"
        }
      ],
      "stateMutability": "view",
      "type": "function"
    },
    {
      "inputs": [],
      "name": "personalBestScore",
      "outputs": [
        {
          "internalType": "int256",
          "name": "",
          "type": "int256"
        }
      ],
      "stateMutability": "view",
      "type": "function"
    },
    {
      "inputs": [
        {
          "internalType": "uint256",
          "name": "",
          "type": "uint256"
        }
      ],
      "name": "position",
      "outputs": [
        {
          "internalType": "int256",
          "name": "",
          "type": "int256"
        }
      ],
      "stateMutability": "view",
      "type": "function"
    },
    {
      "inputs": [
        {
          "internalType": "uint256",
          "name": "",
          "type": "uint256"
        }
      ],
      "name": "renewableGeneration",
      "outputs": [
        {
          "internalType": "uint256",
          "name": "",
          "type": "uint256"
        }
      ],
      "stateMutability": "view",
      "type": "function"
    },
    {
      "inputs": [
        {
          "internalType": "uint256",
          "name": "",
          "type": "uint256"
        }
      ],
      "name": "tariff",
      "outputs": [
        {
          "internalType": "int256",
          "name": "",
          "type": "int256"
        }
      ],
      "stateMutability": "view",
      "type": "function"
    },
    {
      "inputs": [],
      "name": "updateBestPositions",
      "outputs": [],
      "stateMutability": "nonpayable",
      "type": "function"
    },
    {
      "inputs": [],
      "name": "updateVelocityAndPosition",
      "outputs": [],
      "stateMutability": "nonpayable",
      "type": "function"
    },
    {
      "inputs": [
        {
          "internalType": "uint256",
          "name": "",
          "type": "uint256"
        }
      ],
      "name": "velocity",
      "outputs": [
        {
          "internalType": "int256",
          "name": "",
          "type": "int256"
        }
      ],
      "stateMutability": "view",
      "type": "function"
    },
    {
      "inputs": [],
      "name": "w",
      "outputs": [
        {
          "internalType": "int256",
          "name": "",
          "type": "int256"
        }
      ],
      "stateMutability": "view",
      "type": "function"
    }
  ],
  "bytecode": "0x60806040523462000bd25762002b5a803803806200001d8162000bd7565b92833981016101608282031262000bd25781516001600160a01b038116919082900362000bd25760208301516001600160401b03811162000bd257816200006691850162000c15565b60408401519093906001600160401b03811162000bd257826200008b91830162000c15565b60608201516001600160401b03811162000bd25783620000ad91840162000c15565b60808301516001600160401b03811162000bd25784620000cf91850162000c15565b60a08401516001600160401b03811162000bd25785620000f191860162000c15565b60c08501519091906001600160401b03811162000bd257866200011691870162000c15565b60e08601519093906001600160401b03811162000bd257876200013b91880162000c15565b6101008701519095906001600160401b03811162000bd257886200016191890162000c15565b6101208801519097906001600160401b03811162000bd257896200018791830162000c15565b6101408201519099906001600160401b03811162000bd257620001ab920162000c15565b6001600160ff1b03600355603260055560c86006819055600755601080546001600160a01b031916909a179099558951620001e69062000c79565b8051906001600160401b038211620008905768010000000000000000821162000890576000548260005580831062000b9b575b5060200160008052602060002060005b83811062000b86575050505062000241815162000c79565b8051906001600160401b038211620008905768010000000000000000821162000890576001548260015580831062000b4d575b506020016001600052602060002060005b83811062000b3857505050506200029d8a5162000c79565b8051906001600160401b038211620008905768010000000000000000821162000890576002548260025580831062000aff575b506020016002600052602060002060005b83811062000aea5750505050620002f9825162000c79565b8051906001600160401b038211620008905768010000000000000000821162000890576008548260085580831062000ab1575b506020016008600052602060002060005b83811062000a9c575050505062000355835162000c79565b8051906001600160401b038211620008905768010000000000000000821162000890576009548260095580831062000a63575b506020016009600052602060002060005b83811062000a4e5750505050620003b1845162000c79565b8051906001600160401b03821162000890576801000000000000000082116200089057600a5482600a5580831062000a15575b50602001600a600052602060002060005b83811062000a0057505050506200040d855162000c79565b8051906001600160401b03821162000890576801000000000000000082116200089057600b5482600b55808310620009b6575b50602001600b600052602060002060005b838110620009a1575050505062000469865162000c79565b8051906001600160401b03821162000890576801000000000000000082116200089057600c5482600c5580831062000957575b50602001600c600052602060002060005b838110620009425750505050620004c5875162000c79565b8051906001600160401b03821162000890576801000000000000000082116200089057600d5482600d5580831062000909575b50602001600d600052602060002060005b838110620008f4575050505062000521885162000c79565b8051906001600160401b03821162000890576801000000000000000082116200089057600e5482600e55808310620008bb575b50602001600e600052602060002060005b838110620008a657505050506200057d895162000c79565b8051906001600160401b03821162000890576801000000000000000082116200089057600f5482600f5580831062000846575b50602001600f600052602060002060005b83811062000831575050505060005b8a518110156200082157620005e6818c62000ca6565b516000548210156200080b576000805260008051602062002aba83398151915282015562000615818c62000ca6565b516002548210156200080b57600260005260008051602062002a5a83398151915282015562000645818362000ca6565b516001548210156200080b57600160005260008051602062002b3a83398151915282015562000675818462000ca6565b516008548210156200080b57600860005260008051602062002afa833981519152820155620006a5818562000ca6565b516009548210156200080b57600960005260008051602062002b1a833981519152820155620006d5818662000ca6565b51600a548210156200080b57600a60005260008051602062002a9a83398151915282015562000705818762000ca6565b51600b548210156200080b57600b6000527f0175b7a638427703f0dbe7bb9bbf987a2551717b34e79f33b5b1008d1fa01db982015562000746818862000ca6565b51600c548210156200080b57600c6000527fdf6966c971051c3d54ec59162606531493a51404a002842f56009d7e5cf4a8c782015562000787818962000ca6565b51600d548210156200080b57600d60005260008051602062002ada833981519152820155620007b7818a62000ca6565b51600e548210156200080b57600e60005260008051602062002a7a833981519152820155620007e7818b62000ca6565b5190600f548110156200080b57600191600f600052816020600020015501620005d0565b634e487b7160e01b600052603260045260246000fd5b604051611d9e908162000cbc8239f35b600190602084519401938184015501620005c1565b600f6000527f8d1108e10bcb7c27dddfc02ed9d693a074039d026cf4ea4240b40f7d581ac802908382015b818301811062000883575050620005b0565b6000815560010162000871565b634e487b7160e01b600052604160045260246000fd5b60019060208451940193818401550162000565565b600e60005260008051602062002a7a833981519152908382015b8183018110620008e757505062000554565b60008155600101620008d5565b60019060208451940193818401550162000509565b600d60005260008051602062002ada833981519152908382015b818301811062000935575050620004f8565b6000815560010162000923565b600190602084519401938184015501620004ad565b600c6000527fdf6966c971051c3d54ec59162606531493a51404a002842f56009d7e5cf4a8c7908382015b8183018110620009945750506200049c565b6000815560010162000982565b60019060208451940193818401550162000451565b600b6000527f0175b7a638427703f0dbe7bb9bbf987a2551717b34e79f33b5b1008d1fa01db9908382015b8183018110620009f357505062000440565b60008155600101620009e1565b600190602084519401938184015501620003f5565b600a60005260008051602062002a9a833981519152908382015b818301811062000a41575050620003e4565b6000815560010162000a2f565b60019060208451940193818401550162000399565b600960005260008051602062002b1a833981519152908382015b818301811062000a8f57505062000388565b6000815560010162000a7d565b6001906020845194019381840155016200033d565b600860005260008051602062002afa833981519152908382015b818301811062000add5750506200032c565b6000815560010162000acb565b600190602084519401938184015501620002e1565b600260005260008051602062002a5a833981519152908382015b818301811062000b2b575050620002d0565b6000815560010162000b19565b60019060208451940193818401550162000285565b600160005260008051602062002b3a833981519152908382015b818301811062000b7957505062000274565b6000815560010162000b67565b60019060208451940193818401550162000229565b6000805260008051602062002aba8339815191529081019083015b81811062000bc5575062000219565b6000815560010162000bb6565b600080fd5b6040519190601f01601f191682016001600160401b038111838210176200089057604052565b6001600160401b038111620008905760051b60200190565b9080601f8301121562000bd25781519060209162000c3d62000c378262000bfd565b62000bd7565b9360208086848152019260051b82010192831162000bd257602001905b82821062000c69575050505090565b8151815290830190830162000c5a565b9062000c8962000c378362000bfd565b828152809262000c9c601f199162000bfd565b0190602036910137565b80518210156200080b5760209160051b01019056fe6080604081815260048036101561001557600080fd5b600092833560e01c90816303bc4a86146110f15750806304d01942146110c757806316b519281461109d578063205c9cc71461107e578063300aee1414611063578063364132d914611046578063375a105e1461101c5780634485bb5514610fa257806348e257cb14610f835780634d985ae414610f645780634eb274ff14610f3a5780635f57697c14610f1b5780636f24077414610ef15780637398ab1814610e7857806378b6d7d414610e4e57806385c96e6614610dd457806390ccfa0f14610dab578063957b405614610d8c57806396d14da614610d62578063973b9cc1146109c2578063983bedda146109475780639b14d83b146108cc578063a86853d5146108a2578063ab1bbeca14610878578063b27966e6146107fd578063b6ce6709146107ad578063c40000d414610720578063d0c6c7af14610703578063e329143f146106b3578063e7d463851461067d578063f6451c0a14610239578063f7a95a9e14610210578063fb722277146101d75763ff9c446f1461019957600080fd5b346101d35760203660031901126101d35735916011548310156101d057506101c2602092611354565b91905490519160031b1c8152f35b80fd5b8280fd5b50503461020c578160031936011261020c57610208906101f5611af9565b9051918291602083526020830190611460565b0390f35b5080fd5b50346101d35760203660031901126101d357359180548310156101d057506101c2602092611240565b50346101d357826003193601126101d35760105482516302989b4b60e61b8152929060209085906001600160a01b031682868681845afa80156106735785968396959691610642575b508385548211610610575b5050845163b6042cf960e01b815295869182905afa9384156106065785946105e2575b5083518554036105ad57845b85548110156105a9576102ce81611240565b905485514285820190815260208101859052600393841b9290921c604083015280606083010390610307601f199283810183528261138b565b6064928391519020069060019182860180871161059657846065918b6103648b6103586103338d611209565b9054908d1b1c9351938492830195428791606093918352602083015260408201520190565b0387810183528261138b565b519020069261037288611209565b905490881b1c906103ab8c51918261039f8d8201958d428891606093918352602083015260408201520190565b0390810183528261138b565b5190200692603119840193841316610581579161046661046b9285610456886104518f8499839b61045660019f9e938f6104488161043061041a8261041461045d9b6103f9610451986112f8565b905490821b1c9061040984611240565b9054911b1c906116e8565b966115a6565b5161042483611240565b9054908d1b1c906116e8565b9961043d60055492611209565b9054911b1c906116c5565b946006546116c5565b6116c5565b059061171f565b946007546116c5565b61171f565b0561048f61047884611209565b819391549060031b91821b91600019901b19161790565b90556104b861049d83611240565b905490831b1c6104ac84611209565b905490841b1c9061171f565b6104c461047884611240565b90556104f56104d2836112f8565b905490831b1c6104ef6104e48561119b565b905490851b1c611657565b906116e8565b610524610501846112f8565b905490841b1c61051e6105138661128a565b905490861b1c611657565b9061171f565b9181839261053186611240565b905490841b1c1261056d575b5061054784611240565b9054911b1c13610559575b50016102bc565b61056561047883611240565b905538610552565b61057961047886611240565b90553861053d565b601188634e487b7160e01b6000525260246000fd5b634e487b7160e01b8c526011895260248cfd5b8580f35b606492519162461bcd60e51b8352820152601260248201527144696d656e7369756e6920696e6567616c6560701b6044820152fd5b6105ff9194503d8087833e6105f7818361138b565b8101906115ba565b92386102b0565b83513d87823e3d90fd5b817fc06999d659d5132dd93a1915097da1a6a24201916389e38da2404e4bca5e59be9287558751908152a1388361028d565b809550848092503d831161066c575b61065b818361138b565b8101031261020c5785935138610282565b503d610651565b84513d84823e3d90fd5b50503461020c578160031936011261020c578051610208916106a9826106a2816114d0565b038361138b565b5191829182611494565b50346101d35760203660031901126101d35735600d548110156101d35760209250600d6000527fd7b6990105719101dabeb77144f2a3385c8033acd3af97e9423a695e81ad1eb501549051908152f35b50346101d357826003193601126101d35760209250549051908152f35b8284346101d057806003193601126101d057508051600980548083526000918252602080840194927f6e1540171b6c0c960b71a7020d9f60077f6af931a8bbf590da0223dacf75c7af92915b828210610796576102088686610784828b038361138b565b51918291602083526020830190611460565b83548752958601956001938401939091019061076c565b50346101d35760203660031901126101d35735600b548110156101d35760209250600b6000527f0175b7a638427703f0dbe7bb9bbf987a2551717b34e79f33b5b1008d1fa01db901549051908152f35b8284346101d057806003193601126101d057508051600e80548083526000918252602080840194927fbb7b4a454dc3493923482f07822329ed19e8244eff582cc204f8554c3620c3fd92915b828210610861576102088686610784828b038361138b565b835487529586019560019384019390910190610849565b50346101d35760203660031901126101d35735916009548310156101d057506101c260209261131d565b50346101d35760203660031901126101d35735916002548310156101d057506101c26020926112f8565b8284346101d057806003193601126101d057508051600880548083526000918252602080840194927ff3f7a9fe364faab93b216da50a3214154f22a0a2b415b23a84c8169e8b636ee392915b8282106109305761020886866106a9828b038361138b565b835487529586019560019384019390910190610918565b8284346101d057806003193601126101d057508051600f80548083526000918252602080840194927f8d1108e10bcb7c27dddfc02ed9d693a074039d026cf4ea4240b40f7d581ac80292915b8282106109ab576102088686610784828b038361138b565b835487529586019560019384019390910190610993565b5090346101d357600319918383360112610ab5576109f482516109ef816109e88161151b565b038261138b565b611b69565b600380548212610b01575b908591600e54610a0e81611574565b91845b828110610ab95750506010546001600160a01b0316919050813b15610ab55783610a6e97875198899586948593632fc0395f60e01b855260608b860152610a5a6064860161151b565b926024860152848303016044850152611460565b03925af18015610aab57610a80578380f35b67ffffffffffffffff8311610a985750523880808380f35b634e487b7160e01b845260419052602483fd5b82513d86823e3d90fd5b8380fd5b6001919293949550610ae8610acd8261128a565b905490851b1c610adc8361119b565b905490861b1c90611701565b821c610af482876115a6565b5201908894939291610a11565b919492909384835583549267ffffffffffffffff8411610d4f576801000000000000000093848111610d3c5760025481600255808210610d0e575b507f290decd9548b62a8d60345a988386fc84ba6bc95484008f6362f93160ef3e5636002875280549087915b838310610cea57505050506011916011548660115580610ca8575b506012936012548760125580610c66575b50865b600a54811015610c2c57610baa816112c1565b9054865491861b1c88821015610c1957610bcd6104786001938481018a55611354565b9055610bd8826111d2565b9054885491871b1c9189821015610c065761047882610bfe926001969594018b55611117565b905501610b97565b634e487b7160e01b8b5260418d5260248bfd5b634e487b7160e01b8a5260418c5260248afd5b5095979450959250905083518281527f409d103f7876158f293a85ee39f235ce0c309ab1aca81024a51dfb4b471e556e60203092a26109ff565b601288527fbb8a6a4669ba250d26cd7a459eca9d215f8307e33aebe50379bc5a3617ec3444908101905b818110610c9d5750610b94565b888155600101610c90565b601187527f31ecc21a745e3968a04e9570e4425bc18fa8019c68028196b546d1669c200c68908101905b818110610cdf5750610b83565b878155600101610cd2565b6001809192019283549281600080516020611d498339815191520155019190610b68565b81600080516020611d4983398151915291820191015b818110610d315750610b3c565b878155600101610d24565b634e487b7160e01b865260418852602486fd5b634e487b7160e01b855260418752602485fd5b50346101d35760203660031901126101d3573591600a548310156101d057506101c26020926112c1565b5091346101d057816003193601126101d057506101c260209235611164565b50503461020c578160031936011261020c5760105490516001600160a01b039091168152602090f35b8284346101d057806003193601126101d0578151918291600c54808552602080950194600c83527fdf6966c971051c3d54ec59162606531493a51404a002842f56009d7e5cf4a8c792905b828210610e37576102088686610784828b038361138b565b835487529586019560019384019390910190610e1f565b50346101d35760203660031901126101d3573591600e548310156101d057506101c260209261128a565b8284346101d057806003193601126101d0578054610e95816113c3565b91610ea28451938461138b565b818352601f19610eb1836113c3565b013660208501375b818110610ecd578351806102088582611494565b80610ed9600192611240565b90549060031b1c610eea82866115a6565b5201610eb9565b50346101d35760203660031901126101d35735916001548310156101d057506101c2602092611209565b50503461020c578160031936011261020c576020906006549051908152f35b50346101d35760203660031901126101d3573591600c548310156101d057506101c26020926111d2565b50503461020c578160031936011261020c576020906003549051908152f35b50503461020c578160031936011261020c576020906007549051908152f35b8284346101d057806003193601126101d0578151918291600b54808552602080950194600b83527f0175b7a638427703f0dbe7bb9bbf987a2551717b34e79f33b5b1008d1fa01db992905b828210611005576102088686610784828b038361138b565b835487529586019560019384019390910190610fed565b50346101d35760203660031901126101d3573591600f548310156101d057506101c260209261119b565b50503461020c5760209061105c6109ef366113db565b9051908152f35b50503461020c5760209061105c611079366113db565b61173b565b50503461020c578160031936011261020c576020906005549051908152f35b50346101d35760203660031901126101d35735916008548310156101d057506101c2602092611164565b50346101d35760203660031901126101d35735916012548310156101d057506101c2602092611117565b8385346101d057806003193601126101d0575061105c82611079816109e86020966114d0565b60125481101561114e5760126000527fbb8a6a4669ba250d26cd7a459eca9d215f8307e33aebe50379bc5a3617ec34440190600090565b634e487b7160e01b600052603260045260246000fd5b60085481101561114e5760086000527ff3f7a9fe364faab93b216da50a3214154f22a0a2b415b23a84c8169e8b636ee30190600090565b600f5481101561114e57600f6000527f8d1108e10bcb7c27dddfc02ed9d693a074039d026cf4ea4240b40f7d581ac8020190600090565b600c5481101561114e57600c6000527fdf6966c971051c3d54ec59162606531493a51404a002842f56009d7e5cf4a8c70190600090565b60015481101561114e5760016000527fb10e2d527612073b26eecdfd717e6a320cf44b4afac2b0732d9fcbe2b7fa0cf60190600090565b906000918254811015611276578280527f290decd9548b62a8d60345a988386fc84ba6bc95484008f6362f93160ef3e563019190565b634e487b7160e01b83526032600452602483fd5b600e5481101561114e57600e6000527fbb7b4a454dc3493923482f07822329ed19e8244eff582cc204f8554c3620c3fd0190600090565b600a5481101561114e57600a6000527fc65a7bb8d6351c1cf70c95a316cc6a92839c986682d98bc35f958f4883f9d2a80190600090565b60025481101561114e576002600052600080516020611d498339815191520190600090565b60095481101561114e5760096000527f6e1540171b6c0c960b71a7020d9f60077f6af931a8bbf590da0223dacf75c7af0190600090565b60115481101561114e5760116000527f31ecc21a745e3968a04e9570e4425bc18fa8019c68028196b546d1669c200c680190600090565b90601f8019910116810190811067ffffffffffffffff8211176113ad57604052565b634e487b7160e01b600052604160045260246000fd5b67ffffffffffffffff81116113ad5760051b60200190565b60208060031983011261145b576004359167ffffffffffffffff831161145b578060238401121561145b578260040135611414816113c3565b93611422604051958661138b565b8185526024602086019260051b82010192831161145b57602401905b82821061144c575050505090565b8135815290830190830161143e565b600080fd5b90815180825260208080930193019160005b828110611480575050505090565b835185529381019392810192600101611472565b602090602060408183019282815285518094520193019160005b8281106114bc575050505090565b8351855293810193928101926001016114ae565b600254908181526020809101916002600052600080516020611d49833981519152916000905b828210611504575050505090565b8354855293840193600193840193909101906114f6565b600080548083528180526020928301927f290decd9548b62a8d60345a988386fc84ba6bc95484008f6362f93160ef3e56392905b82821061155d575050505090565b83548552938401936001938401939091019061154f565b9061157e826113c3565b61158b604051918261138b565b828152809261159c601f19916113c3565b0190602036910137565b805182101561114e5760209160051b010190565b602090818184031261145b5780519067ffffffffffffffff821161145b57019180601f8401121561145b5782516115f0816113c3565b936115fe604051958661138b565b818552838086019260051b82010192831161145b578301905b828210611625575050505090565b81518152908301908301611617565b9190820391821161164157565b634e487b7160e01b600052601160045260246000fd5b908160011b918083056002149015171561164157565b90604b820291808305604b149015171561164157565b90602b820291808305602b149015171561164157565b9060128202918083056012149015171561164157565b908160021b918083056004149015171561164157565b818102929160008212600160ff1b82141661164157818405149015171561164157565b8181039291600013801582851316918412161761164157565b9190820180921161164157565b600160ff1b81146116415760000390565b9190916000838201938412911290801582169115161761164157565b60009080516011549061174d82611574565b91845b818110611ad55750506012549161176683611574565b92855b818110611ab157505060105460405163b6042cf960e01b815291908690839060049082906001600160a01b03165afa918215611aa6578692611a8a575b509392919085945b8286106117be5750505050505090565b9091929394956118f660019161051e6117d78a8a6115a6565b516000808212156119c857506117fc816117f08d611164565b90549060031b1c6116c5565b905b6118dd8c61051e6118d76118118361131d565b90546003949160009190861b1c8713156119bb575061051e6118d16118446118388461131d565b905490881b1c896116e8565b955b6118ae611852856112f8565b905490831b1c6118896118826118678861128a565b905490861b1c6118768961119b565b905490871b1c90611701565b918c6116e8565b600081126119ac57905b600091818113156119a4576118a892506116e8565b94611354565b9054911b1c8860009181811360001461199c576118cb92506116e8565b9561166d565b91611683565b91611699565b6000918d8b8b5114611902575b5050610466919261171f565b960194939291906117ae565b61190f611917918c6115a6565b5180926116e8565b9083821261198d5781905b801561198557600a9005915b82821361193e575b50508d6118ea565b6104669412156119655761195a91611955916116e8565b6116af565b925b92913880611936565b61197561197f9261197a926116e8565b611657565b61170e565b9261195c565b50839161192e565b6119968261170e565b90611922565b50509561166d565b505094611354565b6119b59061170e565b90611893565b6118d161051e9195611846565b611a36908c83846119d9838c6115a6565b5110611a64576119f66119fd916119f0848d6115a6565b51611634565b918a6115a6565b528c815b8c81611a0d84836115a6565b5110611a3c57611a2b916119f084611a24936115a6565b918d6115a6565b525b6117f08d611164565b906117fe565b611a5e91611a5084611a57939695966115a6565b5190611634565b928d6115a6565b52611a2d565b50611a79611a72828b6115a6565b5185611634565b82611a84838c6115a6565b52611a01565b611a9f9192503d8088833e6105f7818361138b565b90386117a6565b6040513d88823e3d90fd5b80611abd600192611117565b90549060031b1c611ace82886115a6565b5201611769565b80611ae1600192611354565b90549060031b1c611af282876115a6565b5201611750565b60405190600a54808352826020916020820190600a6000527fc65a7bb8d6351c1cf70c95a316cc6a92839c986682d98bc35f958f4883f9d2a8936000905b828210611b4f57505050611b4d9250038361138b565b565b855484526001958601958895509381019390910190611b37565b6000908051611b76611af9565b90604051809283600c5492838152602080910193600c89527fdf6966c971051c3d54ec59162606531493a51404a002842f56009d7e5cf4a8c79189905b828210611d2e5750505050611bcc90600493038561138b565b60105460405163b6042cf960e01b815292879184919082906001600160a01b03165afa918215611aa6578692611d12575b509392919085945b828610611c155750505050505090565b909192939495611ccb60019161051e611c2e8a8a6115a6565b51600080821215611cfb5750611c47816117f08d611164565b905b6118dd8c61051e6118d7611c5c8361131d565b90546003949160009190861b1c871315611cee575061051e6118d1611c836118388461131d565b955b6118ae611c91856112f8565b905490831b1c611ca66118826118678861128a565b60008112611cdf57905b60009181811315611cd757611cc592506116e8565b946112c1565b96019493929190611c05565b5050946112c1565b611ce89061170e565b90611cb0565b6118d161051e9195611c85565b611d0c908c83846119d9838c6115a6565b90611c49565b611d279192503d8088833e6105f7818361138b565b9038611bfd565b835487529586019588945060019384019390910190611bb356fe405787fa12a823e0f2b7631cc41b3ba8828b3321ca811111fa75cd3aa3bb5acea2646970667358221220f1e18b174b41cad9b0531cd9f0a012abac6ccdf4b00fa1b2937e08d7fe5faa6e64736f6c63430008170033405787fa12a823e0f2b7631cc41b3ba8828b3321ca811111fa75cd3aa3bb5acebb7b4a454dc3493923482f07822329ed19e8244eff582cc204f8554c3620c3fdc65a7bb8d6351c1cf70c95a316cc6a92839c986682d98bc35f958f4883f9d2a8290decd9548b62a8d60345a988386fc84ba6bc95484008f6362f93160ef3e563d7b6990105719101dabeb77144f2a3385c8033acd3af97e9423a695e81ad1eb5f3f7a9fe364faab93b216da50a3214154f22a0a2b415b23a84c8169e8b636ee36e1540171b6c0c960b71a7020d9f60077f6af931a8bbf590da0223dacf75c7afb10e2d527612073b26eecdfd717e6a320cf44b4afac2b0732d9fcbe2b7fa0cf6",
  "linkReferences": {},
  "deployedLinkReferences": {}
}