{
  "_format": "hh-sol-artifact-1",
  "contractName": "Node",
  "sourceName": "contracts/Node.sol",
  "abi": [
    {
      "inputs": [
        {
          "internalType": "address",
          "name": "globalContractAddress",
          "type": "address"
        },
        {
          "internalType": "int256[]",
          "name": "initialPosition",
          "type": "int256[]"
        },
        {
          "internalType": "int256[]",
          "name": "initialVelocity",
          "type": "int256[]"
        },
        {
          "internalType": "int256[]",
          "name": "initialTariff",
          "type": "int256[]"
        },
        {
          "internalType": "uint256[]",
          "name": "initialCapacity",
          "type": "uint256[]"
        },
        {
          "internalType": "uint256[]",
          "name": "initialRenewableGeneration",
          "type": "uint256[]"
        },
        {
          "internalType": "uint256[]",
          "name": "initialBatteryCapacity",
          "type": "uint256[]"
        },
        {
          "internalType": "uint256[]",
          "name": "initialBatteryCharge",
          "type": "uint256[]"
        },
        {
          "internalType": "uint256[]",
          "name": "initialFlexibleLoad",
          "type": "uint256[]"
        },
        {
          "internalType": "uint256[]",
          "name": "_flexibilityAbove",
          "type": "uint256[]"
        },
        {
          "internalType": "uint256[]",
          "name": "_flexibilityBelow",
          "type": "uint256[]"
        }
      ],
      "stateMutability": "nonpayable",
      "type": "constructor"
    },
    {
      "anonymous": false,
      "inputs": [
        {
          "indexed": true,
          "internalType": "address",
          "name": "node",
          "type": "address"
        },
        {
          "indexed": false,
          "internalType": "int256",
          "name": "newScore",
          "type": "int256"
        }
      ],
      "name": "BestPositionUpdated",
      "type": "event"
    },
    {
      "anonymous": false,
      "inputs": [
        {
          "indexed": false,
          "internalType": "uint256",
          "name": "timestamp",
          "type": "uint256"
        }
      ],
      "name": "NewPlanReceived",
      "type": "event"
    },
    {
      "inputs": [
        {
          "internalType": "uint256",
          "name": "",
          "type": "uint256"
        }
      ],
      "name": "batteryCapacity",
      "outputs": [
        {
          "internalType": "uint256",
          "name": "",
          "type": "uint256"
        }
      ],
      "stateMutability": "view",
      "type": "function"
    },
    {
      "inputs": [
        {
          "internalType": "uint256",
          "name": "",
          "type": "uint256"
        }
      ],
      "name": "batteryCharge",
      "outputs": [
        {
          "internalType": "uint256",
          "name": "",
          "type": "uint256"
        }
      ],
      "stateMutability": "view",
      "type": "function"
    },
    {
      "inputs": [],
      "name": "c1",
      "outputs": [
        {
          "internalType": "int256",
          "name": "",
          "type": "int256"
        }
      ],
      "stateMutability": "view",
      "type": "function"
    },
    {
      "inputs": [],
      "name": "c2",
      "outputs": [
        {
          "internalType": "int256",
          "name": "",
          "type": "int256"
        }
      ],
      "stateMutability": "view",
      "type": "function"
    },
    {
      "inputs": [
        {
          "internalType": "uint256",
          "name": "",
          "type": "uint256"
        }
      ],
      "name": "capacity",
      "outputs": [
        {
          "internalType": "uint256",
          "name": "",
          "type": "uint256"
        }
      ],
      "stateMutability": "view",
      "type": "function"
    },
    {
      "inputs": [
        {
          "internalType": "uint256",
          "name": "",
          "type": "uint256"
        }
      ],
      "name": "flexibilityAbove",
      "outputs": [
        {
          "internalType": "uint256",
          "name": "",
          "type": "uint256"
        }
      ],
      "stateMutability": "view",
      "type": "function"
    },
    {
      "inputs": [
        {
          "internalType": "uint256",
          "name": "",
          "type": "uint256"
        }
      ],
      "name": "flexibilityBelow",
      "outputs": [
        {
          "internalType": "uint256",
          "name": "",
          "type": "uint256"
        }
      ],
      "stateMutability": "view",
      "type": "function"
    },
    {
      "inputs": [
        {
          "internalType": "uint256",
          "name": "",
          "type": "uint256"
        }
      ],
      "name": "flexibleLoad",
      "outputs": [
        {
          "internalType": "uint256",
          "name": "",
          "type": "uint256"
        }
      ],
      "stateMutability": "view",
      "type": "function"
    },
    {
      "inputs": [
        {
          "internalType": "uint256",
          "name": "",
          "type": "uint256"
        }
      ],
      "name": "frozenBatteryCharge",
      "outputs": [
        {
          "internalType": "uint256",
          "name": "",
          "type": "uint256"
        }
      ],
      "stateMutability": "view",
      "type": "function"
    },
    {
      "inputs": [
        {
          "internalType": "uint256",
          "name": "",
          "type": "uint256"
        }
      ],
      "name": "frozenRenewableGeneration",
      "outputs": [
        {
          "internalType": "uint256",
          "name": "",
          "type": "uint256"
        }
      ],
      "stateMutability": "view",
      "type": "function"
    },
    {
      "inputs": [],
      "name": "getBatteryCapacity",
      "outputs": [
        {
          "internalType": "uint256[]",
          "name": "",
          "type": "uint256[]"
        }
      ],
      "stateMutability": "view",
      "type": "function"
    },
    {
      "inputs": [],
      "name": "getBatteryCharge",
      "outputs": [
        {
          "internalType": "uint256[]",
          "name": "",
          "type": "uint256[]"
        }
      ],
      "stateMutability": "view",
      "type": "function"
    },
    {
      "inputs": [],
      "name": "getCapacity",
      "outputs": [
        {
          "internalType": "uint256[]",
          "name": "",
          "type": "uint256[]"
        }
      ],
      "stateMutability": "view",
      "type": "function"
    },
    {
      "inputs": [
        {
          "internalType": "uint256",
          "name": "hour",
          "type": "uint256"
        },
        {
          "internalType": "int256",
          "name": "consumption",
          "type": "int256"
        }
      ],
      "name": "getEffectiveTariff",
      "outputs": [
        {
          "internalType": "int256",
          "name": "",
          "type": "int256"
        }
      ],
      "stateMutability": "view",
      "type": "function"
    },
    {
      "inputs": [],
      "name": "getFlexibilityAbove",
      "outputs": [
        {
          "internalType": "uint256[]",
          "name": "",
          "type": "uint256[]"
        }
      ],
      "stateMutability": "view",
      "type": "function"
    },
    {
      "inputs": [],
      "name": "getFlexibilityBelow",
      "outputs": [
        {
          "internalType": "uint256[]",
          "name": "",
          "type": "uint256[]"
        }
      ],
      "stateMutability": "view",
      "type": "function"
    },
    {
      "inputs": [],
      "name": "getFrozenCost",
      "outputs": [
        {
          "internalType": "int256",
          "name": "",
          "type": "int256"
        }
      ],
      "stateMutability": "view",
      "type": "function"
    },
    {
      "inputs": [],
      "name": "getPersonalBestPosition",
      "outputs": [
        {
          "internalType": "int256[]",
          "name": "",
          "type": "int256[]"
        }
      ],
      "stateMutability": "view",
      "type": "function"
    },
    {
      "inputs": [],
      "name": "getPosition",
      "outputs": [
        {
          "internalType": "int256[]",
          "name": "",
          "type": "int256[]"
        }
      ],
      "stateMutability": "view",
      "type": "function"
    },
    {
      "inputs": [],
      "name": "getRenewableGeneration",
      "outputs": [
        {
          "internalType": "uint256[]",
          "name": "",
          "type": "uint256[]"
        }
      ],
      "stateMutability": "view",
      "type": "function"
    },
    {
      "inputs": [],
      "name": "getTariff",
      "outputs": [
        {
          "internalType": "int256[]",
          "name": "",
          "type": "int256[]"
        }
      ],
      "stateMutability": "view",
      "type": "function"
    },
    {
      "inputs": [],
      "name": "globalContract",
      "outputs": [
        {
          "internalType": "contract GlobalContractInterface",
          "name": "",
          "type": "address"
        }
      ],
      "stateMutability": "view",
      "type": "function"
    },
    {
      "inputs": [],
      "name": "lastKnownGlobalTimestamp",
      "outputs": [
        {
          "internalType": "uint256",
          "name": "",
          "type": "uint256"
        }
      ],
      "stateMutability": "view",
      "type": "function"
    },
    {
      "inputs": [
        {
          "internalType": "int256[]",
          "name": "pos",
          "type": "int256[]"
        }
      ],
      "name": "objectiveFunction",
      "outputs": [
        {
          "internalType": "int256",
          "name": "",
          "type": "int256"
        }
      ],
      "stateMutability": "view",
      "type": "function"
    },
    {
      "inputs": [
        {
          "internalType": "int256[]",
          "name": "pos",
          "type": "int256[]"
        }
      ],
      "name": "objectiveFunctionFrozen",
      "outputs": [
        {
          "internalType": "int256",
          "name": "",
          "type": "int256"
        }
      ],
      "stateMutability": "view",
      "type": "function"
    },
    {
      "inputs": [
        {
          "internalType": "uint256",
          "name": "",
          "type": "uint256"
        }
      ],
      "name": "personalBestPosition",
      "outputs": [
        {
          "internalType": "int256",
          "name": "",
          "type": "int256"
        }
      ],
      "stateMutability": "view",
      "type": "function"
    },
    {
      "inputs": [],
      "name": "personalBestScore",
      "outputs": [
        {
          "internalType": "int256",
          "name": "",
          "type": "int256"
        }
      ],
      "stateMutability": "view",
      "type": "function"
    },
    {
      "inputs": [
        {
          "internalType": "uint256",
          "name": "",
          "type": "uint256"
        }
      ],
      "name": "position",
      "outputs": [
        {
          "internalType": "int256",
          "name": "",
          "type": "int256"
        }
      ],
      "stateMutability": "view",
      "type": "function"
    },
    {
      "inputs": [
        {
          "internalType": "uint256",
          "name": "",
          "type": "uint256"
        }
      ],
      "name": "renewableGeneration",
      "outputs": [
        {
          "internalType": "uint256",
          "name": "",
          "type": "uint256"
        }
      ],
      "stateMutability": "view",
      "type": "function"
    },
    {
      "inputs": [
        {
          "internalType": "uint256",
          "name": "",
          "type": "uint256"
        }
      ],
      "name": "tariff",
      "outputs": [
        {
          "internalType": "int256",
          "name": "",
          "type": "int256"
        }
      ],
      "stateMutability": "view",
      "type": "function"
    },
    {
      "inputs": [],
      "name": "updateBestPositions",
      "outputs": [],
      "stateMutability": "nonpayable",
      "type": "function"
    },
    {
      "inputs": [],
      "name": "updateVelocityAndPosition",
      "outputs": [],
      "stateMutability": "nonpayable",
      "type": "function"
    },
    {
      "inputs": [
        {
          "internalType": "uint256",
          "name": "",
          "type": "uint256"
        }
      ],
      "name": "velocity",
      "outputs": [
        {
          "internalType": "int256",
          "name": "",
          "type": "int256"
        }
      ],
      "stateMutability": "view",
      "type": "function"
    },
    {
      "inputs": [],
      "name": "w",
      "outputs": [
        {
          "internalType": "int256",
          "name": "",
          "type": "int256"
        }
      ],
      "stateMutability": "view",
      "type": "function"
    }
  ],
  "bytecode": "0x60806040523462000bd25762002b73803803806200001d8162000bd7565b92833981016101608282031262000bd25781516001600160a01b038116919082900362000bd25760208301516001600160401b03811162000bd257816200006691850162000c15565b60408401519093906001600160401b03811162000bd257826200008b91830162000c15565b60608201516001600160401b03811162000bd25783620000ad91840162000c15565b60808301516001600160401b03811162000bd25784620000cf91850162000c15565b60a08401516001600160401b03811162000bd25785620000f191860162000c15565b60c08501519091906001600160401b03811162000bd257866200011691870162000c15565b60e08601519093906001600160401b03811162000bd257876200013b91880162000c15565b6101008701519095906001600160401b03811162000bd257886200016191890162000c15565b6101208801519097906001600160401b03811162000bd257896200018791830162000c15565b6101408201519099906001600160401b03811162000bd257620001ab920162000c15565b6001600160ff1b03600355603260055560c86006819055600755601080546001600160a01b031916909a179099558951620001e69062000c79565b8051906001600160401b038211620008905768010000000000000000821162000890576000548260005580831062000b9b575b5060200160008052602060002060005b83811062000b86575050505062000241815162000c79565b8051906001600160401b038211620008905768010000000000000000821162000890576001548260015580831062000b4d575b506020016001600052602060002060005b83811062000b3857505050506200029d8a5162000c79565b8051906001600160401b038211620008905768010000000000000000821162000890576002548260025580831062000aff575b506020016002600052602060002060005b83811062000aea5750505050620002f9825162000c79565b8051906001600160401b038211620008905768010000000000000000821162000890576008548260085580831062000ab1575b506020016008600052602060002060005b83811062000a9c575050505062000355835162000c79565b8051906001600160401b038211620008905768010000000000000000821162000890576009548260095580831062000a63575b506020016009600052602060002060005b83811062000a4e5750505050620003b1845162000c79565b8051906001600160401b03821162000890576801000000000000000082116200089057600a5482600a5580831062000a15575b50602001600a600052602060002060005b83811062000a0057505050506200040d855162000c79565b8051906001600160401b03821162000890576801000000000000000082116200089057600b5482600b55808310620009b6575b50602001600b600052602060002060005b838110620009a1575050505062000469865162000c79565b8051906001600160401b03821162000890576801000000000000000082116200089057600c5482600c5580831062000957575b50602001600c600052602060002060005b838110620009425750505050620004c5875162000c79565b8051906001600160401b03821162000890576801000000000000000082116200089057600d5482600d5580831062000909575b50602001600d600052602060002060005b838110620008f4575050505062000521885162000c79565b8051906001600160401b03821162000890576801000000000000000082116200089057600e5482600e55808310620008bb575b50602001600e600052602060002060005b838110620008a657505050506200057d895162000c79565b8051906001600160401b03821162000890576801000000000000000082116200089057600f5482600f5580831062000846575b50602001600f600052602060002060005b83811062000831575050505060005b8a518110156200082157620005e6818c62000ca6565b516000548210156200080b576000805260008051602062002ad383398151915282015562000615818c62000ca6565b516002548210156200080b57600260005260008051602062002a7383398151915282015562000645818362000ca6565b516001548210156200080b57600160005260008051602062002b5383398151915282015562000675818462000ca6565b516008548210156200080b57600860005260008051602062002b13833981519152820155620006a5818562000ca6565b516009548210156200080b57600960005260008051602062002b33833981519152820155620006d5818662000ca6565b51600a548210156200080b57600a60005260008051602062002ab383398151915282015562000705818762000ca6565b51600b548210156200080b57600b6000527f0175b7a638427703f0dbe7bb9bbf987a2551717b34e79f33b5b1008d1fa01db982015562000746818862000ca6565b51600c548210156200080b57600c6000527fdf6966c971051c3d54ec59162606531493a51404a002842f56009d7e5cf4a8c782015562000787818962000ca6565b51600d548210156200080b57600d60005260008051602062002af3833981519152820155620007b7818a62000ca6565b51600e548210156200080b57600e60005260008051602062002a93833981519152820155620007e7818b62000ca6565b5190600f548110156200080b57600191600f600052816020600020015501620005d0565b634e487b7160e01b600052603260045260246000fd5b604051611db7908162000cbc8239f35b600190602084519401938184015501620005c1565b600f6000527f8d1108e10bcb7c27dddfc02ed9d693a074039d026cf4ea4240b40f7d581ac802908382015b818301811062000883575050620005b0565b6000815560010162000871565b634e487b7160e01b600052604160045260246000fd5b60019060208451940193818401550162000565565b600e60005260008051602062002a93833981519152908382015b8183018110620008e757505062000554565b60008155600101620008d5565b60019060208451940193818401550162000509565b600d60005260008051602062002af3833981519152908382015b818301811062000935575050620004f8565b6000815560010162000923565b600190602084519401938184015501620004ad565b600c6000527fdf6966c971051c3d54ec59162606531493a51404a002842f56009d7e5cf4a8c7908382015b8183018110620009945750506200049c565b6000815560010162000982565b60019060208451940193818401550162000451565b600b6000527f0175b7a638427703f0dbe7bb9bbf987a2551717b34e79f33b5b1008d1fa01db9908382015b8183018110620009f357505062000440565b60008155600101620009e1565b600190602084519401938184015501620003f5565b600a60005260008051602062002ab3833981519152908382015b818301811062000a41575050620003e4565b6000815560010162000a2f565b60019060208451940193818401550162000399565b600960005260008051602062002b33833981519152908382015b818301811062000a8f57505062000388565b6000815560010162000a7d565b6001906020845194019381840155016200033d565b600860005260008051602062002b13833981519152908382015b818301811062000add5750506200032c565b6000815560010162000acb565b600190602084519401938184015501620002e1565b600260005260008051602062002a73833981519152908382015b818301811062000b2b575050620002d0565b6000815560010162000b19565b60019060208451940193818401550162000285565b600160005260008051602062002b53833981519152908382015b818301811062000b7957505062000274565b6000815560010162000b67565b60019060208451940193818401550162000229565b6000805260008051602062002ad38339815191529081019083015b81811062000bc5575062000219565b6000815560010162000bb6565b600080fd5b6040519190601f01601f191682016001600160401b038111838210176200089057604052565b6001600160401b038111620008905760051b60200190565b9080601f8301121562000bd25781519060209162000c3d62000c378262000bfd565b62000bd7565b9360208086848152019260051b82010192831162000bd257602001905b82821062000c69575050505090565b8151815290830190830162000c5a565b9062000c8962000c378362000bfd565b828152809262000c9c601f199162000bfd565b0190602036910137565b80518210156200080b5760209160051b01019056fe6080604081815260048036101561001557600080fd5b600092833560e01c90816303bc4a86146110995750806304d019421461106f57806316b5192814611045578063205c9cc714611026578063300aee141461100b578063364132d914610ff5578063375a105e14610fcb5780634485bb5514610f5157806348e257cb14610f325780634d985ae414610f135780634eb274ff14610ee95780635f57697c14610eca5780636f24077414610ea05780637398ab1814610e2757806378b6d7d414610dfd57806385c96e6614610ddf57806390ccfa0f14610db6578063957b405614610d8c57806396d14da614610d62578063973b9cc1146109c2578063983bedda146109475780639b14d83b146108cc578063a86853d5146108a2578063ab1bbeca14610878578063b27966e6146107fd578063b6ce6709146107ad578063c40000d414610720578063d0c6c7af14610703578063e329143f146106b3578063e7d463851461067d578063f6451c0a14610239578063f7a95a9e14610210578063fb722277146101d75763ff9c446f1461019957600080fd5b346101d35760203660031901126101d35735916011548310156101d057506101c26020926112fc565b91905490519160031b1c8152f35b80fd5b8280fd5b50503461020c578160031936011261020c57610208906101f5611b0e565b9051918291602083526020830190611408565b0390f35b5080fd5b50346101d35760203660031901126101d357359180548310156101d057506101c26020926111e8565b50346101d357826003193601126101d35760105482516302989b4b60e61b8152929060209085906001600160a01b031682868681845afa80156106735785968396959691610642575b508385548211610610575b5050845163b6042cf960e01b815295869182905afa9384156106065785946105e2575b5083518554036105ad57845b85548110156105a9576102ce816111e8565b905485514285820190815260208101859052600393841b9290921c604083015280606083010390610307601f1992838101835282611333565b6064928391519020069060019182860180871161059657846065918b6103648b6103586103338d6111b1565b9054908d1b1c9351938492830195428791606093918352602083015260408201520190565b03878101835282611333565b5190200692610372886111b1565b905490881b1c906103ab8c51918261039f8d8201958d428891606093918352602083015260408201520190565b03908101835282611333565b5190200692603119840193841316610581579161046661046b9285610456886104518f8499839b61045660019f9e938f6104488161043061041a8261041461045d9b6103f9610451986112a0565b905490821b1c90610409846111e8565b9054911b1c9061168b565b9661154e565b51610424836111e8565b9054908d1b1c9061168b565b9961043d600554926111b1565b9054911b1c90611657565b94600654611657565b611657565b05906116b1565b94600754611657565b6116b1565b0561048f610478846111b1565b819391549060031b91821b91600019901b19161790565b90556104b861049d836111e8565b905490831b1c6104ac846111b1565b905490841b1c906116b1565b6104c4610478846111e8565b90556104f56104d2836112a0565b905490831b1c6104ef6104e485611143565b905490851b1c6115ff565b9061168b565b610524610501846112a0565b905490841b1c61051e61051386611232565b905490861b1c6115ff565b906116b1565b91818392610531866111e8565b905490841b1c1261056d575b50610547846111e8565b9054911b1c13610559575b50016102bc565b610565610478836111e8565b905538610552565b610579610478866111e8565b90553861053d565b601188634e487b7160e01b6000525260246000fd5b634e487b7160e01b8c526011895260248cfd5b8580f35b606492519162461bcd60e51b8352820152601260248201527144696d656e7369756e6920696e6567616c6560701b6044820152fd5b6105ff9194503d8087833e6105f78183611333565b810190611562565b92386102b0565b83513d87823e3d90fd5b817fc06999d659d5132dd93a1915097da1a6a24201916389e38da2404e4bca5e59be9287558751908152a1388361028d565b809550848092503d831161066c575b61065b8183611333565b8101031261020c5785935138610282565b503d610651565b84513d84823e3d90fd5b50503461020c578160031936011261020c578051610208916106a9826106a281611478565b0383611333565b519182918261143c565b50346101d35760203660031901126101d35735600d548110156101d35760209250600d6000527fd7b6990105719101dabeb77144f2a3385c8033acd3af97e9423a695e81ad1eb501549051908152f35b50346101d357826003193601126101d35760209250549051908152f35b8284346101d057806003193601126101d057508051600980548083526000918252602080840194927f6e1540171b6c0c960b71a7020d9f60077f6af931a8bbf590da0223dacf75c7af92915b828210610796576102088686610784828b0383611333565b51918291602083526020830190611408565b83548752958601956001938401939091019061076c565b50346101d35760203660031901126101d35735600b548110156101d35760209250600b6000527f0175b7a638427703f0dbe7bb9bbf987a2551717b34e79f33b5b1008d1fa01db901549051908152f35b8284346101d057806003193601126101d057508051600e80548083526000918252602080840194927fbb7b4a454dc3493923482f07822329ed19e8244eff582cc204f8554c3620c3fd92915b828210610861576102088686610784828b0383611333565b835487529586019560019384019390910190610849565b50346101d35760203660031901126101d35735916009548310156101d057506101c26020926112c5565b50346101d35760203660031901126101d35735916002548310156101d057506101c26020926112a0565b8284346101d057806003193601126101d057508051600880548083526000918252602080840194927ff3f7a9fe364faab93b216da50a3214154f22a0a2b415b23a84c8169e8b636ee392915b8282106109305761020886866106a9828b0383611333565b835487529586019560019384019390910190610918565b8284346101d057806003193601126101d057508051600f80548083526000918252602080840194927f8d1108e10bcb7c27dddfc02ed9d693a074039d026cf4ea4240b40f7d581ac80292915b8282106109ab576102088686610784828b0383611333565b835487529586019560019384019390910190610993565b5090346101d357600319918383360112610ab5576109f482516109ef816109e8816114c3565b0382611333565b611b7c565b600380548212610b01575b908591600e54610a0e8161151c565b91845b828110610ab95750506010546001600160a01b0316919050813b15610ab55783610a6e97875198899586948593632fc0395f60e01b855260608b860152610a5a606486016114c3565b926024860152848303016044850152611408565b03925af18015610aab57610a80578380f35b67ffffffffffffffff8311610a985750523880808380f35b634e487b7160e01b845260419052602483fd5b82513d86823e3d90fd5b8380fd5b6001919293949550610ae8610acd82611232565b905490851b1c610adc83611143565b905490861b1c906116a4565b821c610af4828761154e565b5201908894939291610a11565b919492909384835583549267ffffffffffffffff8411610d4f576801000000000000000093848111610d3c5760025481600255808210610d0e575b507f290decd9548b62a8d60345a988386fc84ba6bc95484008f6362f93160ef3e5636002875280549087915b838310610cea57505050506011916011548660115580610ca8575b506012936012548760125580610c66575b50865b600a54811015610c2c57610baa81611269565b9054865491861b1c88821015610c1957610bcd6104786001938481018a556112fc565b9055610bd88261117a565b9054885491871b1c9189821015610c065761047882610bfe926001969594018b556110bf565b905501610b97565b634e487b7160e01b8b5260418d5260248bfd5b634e487b7160e01b8a5260418c5260248afd5b5095979450959250905083518281527f409d103f7876158f293a85ee39f235ce0c309ab1aca81024a51dfb4b471e556e60203092a26109ff565b601288527fbb8a6a4669ba250d26cd7a459eca9d215f8307e33aebe50379bc5a3617ec3444908101905b818110610c9d5750610b94565b888155600101610c90565b601187527f31ecc21a745e3968a04e9570e4425bc18fa8019c68028196b546d1669c200c68908101905b818110610cdf5750610b83565b878155600101610cd2565b6001809192019283549281600080516020611d628339815191520155019190610b68565b81600080516020611d6283398151915291820191015b818110610d315750610b3c565b878155600101610d24565b634e487b7160e01b865260418852602486fd5b634e487b7160e01b855260418752602485fd5b50346101d35760203660031901126101d3573591600a548310156101d057506101c2602092611269565b5091346101d057816003193601126101d05750610daf6020926024359035611cfd565b9051908152f35b50503461020c578160031936011261020c5760105490516001600160a01b039091168152602090f35b50503461020c578160031936011261020c57610208906101f5611a9e565b50346101d35760203660031901126101d3573591600e548310156101d057506101c2602092611232565b8284346101d057806003193601126101d0578054610e448161136b565b91610e5184519384611333565b818352601f19610e608361136b565b013660208501375b818110610e7c57835180610208858261143c565b80610e886001926111e8565b90549060031b1c610e99828661154e565b5201610e68565b50346101d35760203660031901126101d35735916001548310156101d057506101c26020926111b1565b50503461020c578160031936011261020c576020906006549051908152f35b50346101d35760203660031901126101d3573591600c548310156101d057506101c260209261117a565b50503461020c578160031936011261020c576020906003549051908152f35b50503461020c578160031936011261020c576020906007549051908152f35b8284346101d057806003193601126101d0578151918291600b54808552602080950194600b83527f0175b7a638427703f0dbe7bb9bbf987a2551717b34e79f33b5b1008d1fa01db992905b828210610fb4576102088686610784828b0383611333565b835487529586019560019384019390910190610f9c565b50346101d35760203660031901126101d3573591600f548310156101d057506101c2602092611143565b50503461020c57602090610daf6109ef36611383565b50503461020c57602090610daf61102136611383565b6116cd565b50503461020c578160031936011261020c576020906005549051908152f35b50346101d35760203660031901126101d35735916008548310156101d057506101c260209261110c565b50346101d35760203660031901126101d35735916012548310156101d057506101c26020926110bf565b8385346101d057806003193601126101d05750610daf82611021816109e8602096611478565b6012548110156110f65760126000527fbb8a6a4669ba250d26cd7a459eca9d215f8307e33aebe50379bc5a3617ec34440190600090565b634e487b7160e01b600052603260045260246000fd5b6008548110156110f65760086000527ff3f7a9fe364faab93b216da50a3214154f22a0a2b415b23a84c8169e8b636ee30190600090565b600f548110156110f657600f6000527f8d1108e10bcb7c27dddfc02ed9d693a074039d026cf4ea4240b40f7d581ac8020190600090565b600c548110156110f657600c6000527fdf6966c971051c3d54ec59162606531493a51404a002842f56009d7e5cf4a8c70190600090565b6001548110156110f65760016000527fb10e2d527612073b26eecdfd717e6a320cf44b4afac2b0732d9fcbe2b7fa0cf60190600090565b90600091825481101561121e578280527f290decd9548b62a8d60345a988386fc84ba6bc95484008f6362f93160ef3e563019190565b634e487b7160e01b83526032600452602483fd5b600e548110156110f657600e6000527fbb7b4a454dc3493923482f07822329ed19e8244eff582cc204f8554c3620c3fd0190600090565b600a548110156110f657600a6000527fc65a7bb8d6351c1cf70c95a316cc6a92839c986682d98bc35f958f4883f9d2a80190600090565b6002548110156110f6576002600052600080516020611d628339815191520190600090565b6009548110156110f65760096000527f6e1540171b6c0c960b71a7020d9f60077f6af931a8bbf590da0223dacf75c7af0190600090565b6011548110156110f65760116000527f31ecc21a745e3968a04e9570e4425bc18fa8019c68028196b546d1669c200c680190600090565b90601f8019910116810190811067ffffffffffffffff82111761135557604052565b634e487b7160e01b600052604160045260246000fd5b67ffffffffffffffff81116113555760051b60200190565b602080600319830112611403576004359167ffffffffffffffff831161140357806023840112156114035782600401356113bc8161136b565b936113ca6040519586611333565b8185526024602086019260051b82010192831161140357602401905b8282106113f4575050505090565b813581529083019083016113e6565b600080fd5b90815180825260208080930193019160005b828110611428575050505090565b83518552938101939281019260010161141a565b602090602060408183019282815285518094520193019160005b828110611464575050505090565b835185529381019392810192600101611456565b600254908181526020809101916002600052600080516020611d62833981519152916000905b8282106114ac575050505090565b83548552938401936001938401939091019061149e565b600080548083528180526020928301927f290decd9548b62a8d60345a988386fc84ba6bc95484008f6362f93160ef3e56392905b828210611505575050505090565b8354855293840193600193840193909101906114f7565b906115268261136b565b6115336040519182611333565b8281528092611544601f199161136b565b0190602036910137565b80518210156110f65760209160051b010190565b60209081818403126114035780519067ffffffffffffffff821161140357019180601f840112156114035782516115988161136b565b936115a66040519586611333565b818552838086019260051b820101928311611403578301905b8282106115cd575050505090565b815181529083019083016115bf565b919082039182116115e957565b634e487b7160e01b600052601160045260246000fd5b908160011b91808305600214901517156115e957565b906005820291808305600514901517156115e957565b906003820291808305600314901517156115e957565b908160021b91808305600414901517156115e957565b818102929160008212600160ff1b8214166115e95781840514901517156115e957565b600160ff1b81146115e95760000390565b818103929160001380158285131691841216176115e957565b919082018092116115e957565b919091600083820193841291129080158216911516176115e957565b6000908051601154906116df8261151c565b91845b818110611a7a575050601254916116f88361151c565b92855b818110611a5657505060105460405163b6042cf960e01b815291908690839060049082906001600160a01b03165afa918215611a4b578692611a2f575b509392919085945b8286106117505750505050505090565b90919293949561189560019161051e6117698a8a61154e565b51808b600080831215611962575061178761179b9261178c92611cfd565b61167a565b6117958361167a565b90611657565b905b61187c8c61051e6118766117b0836112c5565b90546003949160009190861b1c871315611955575061051e6118706117e36117d7846112c5565b905490881b1c8961168b565b955b61184d6117f1856112a0565b905490831b1c61182861182161180688611232565b905490861b1c61181589611143565b905490871b1c906116a4565b918c61168b565b6000811261194657905b6000918181131561193e57611847925061168b565b946112fc565b9054911b1c886000918181136000146119365761186a925061168b565b95611615565b9161162b565b916115ff565b6000918d8b8b51146118a1575b505061046691926116b1565b96019493929190611740565b6118ae6118b6918c61154e565b51809261168b565b908382126119275781905b801561191f57600a9005915b8282136118dd575b50508d611889565b610466941215611904576118f9916118f49161168b565b611641565b925b929138806118d5565b611914611919926117879261168b565b6115ff565b926118fb565b5083916118cd565b6119308261167a565b906118c1565b505095611615565b5050946112fc565b61194f9061167a565b90611832565b61187061051e91956117e5565b906119db9284611972838c61154e565b5110611a095761198f61199691611989848d61154e565b516115dc565b918a61154e565b528c815b8c816119a6848361154e565b51106119e1576119c491611989846119bd9361154e565b918d61154e565b525b6119cf8d61110c565b90549060031b1c611657565b9061179d565b611a03916119f5846119fc9396959661154e565b51906115dc565b928d61154e565b526119c6565b50611a1e611a17828b61154e565b51856115dc565b82611a29838c61154e565b5261199a565b611a449192503d8088833e6105f78183611333565b9038611738565b6040513d88823e3d90fd5b80611a626001926110bf565b90549060031b1c611a73828861154e565b52016116fb565b80611a866001926112fc565b90549060031b1c611a97828761154e565b52016116e2565b60405190600c54808352826020916020820190600c6000527fdf6966c971051c3d54ec59162606531493a51404a002842f56009d7e5cf4a8c7936000905b828210611af457505050611af292500383611333565b565b855484526001958601958895509381019390910190611adc565b60405190600a54808352826020916020820190600a6000527fc65a7bb8d6351c1cf70c95a316cc6a92839c986682d98bc35f958f4883f9d2a8936000905b828210611b6257505050611af292500383611333565b855484526001958601958895509381019390910190611b4c565b6000908051611b89611b0e565b906004611b94611a9e565b60105460405163b6042cf960e01b815291949192879184919082906001600160a01b03165afa918215611a4b578692611ce1575b509392919085945b828610611be05750505050505090565b909192939495611c9b60019161051e611bf98a8a61154e565b51808b600080831215611ccb5750611787611c179261178c92611cfd565b905b61187c8c61051e611876611c2c836112c5565b90546003949160009190861b1c871315611cbe575061051e611870611c536117d7846112c5565b955b61184d611c61856112a0565b905490831b1c611c7661182161180688611232565b60008112611caf57905b60009181811315611ca757611c95925061168b565b94611269565b96019493929190611bd0565b505094611269565b611cb89061167a565b90611c80565b61187061051e9195611c55565b90611cdb9284611972838c61154e565b90611c19565b611cf69192503d8088833e6105f78183611333565b9038611bc8565b611d069061110c565b90549060031b1c9060008112600014611d5d57611d229061167a565b60011c601401806014116115e95760288111611d55575b60640390606482116115e957606491611d5191611657565b0590565b506028611d39565b509056fe405787fa12a823e0f2b7631cc41b3ba8828b3321ca811111fa75cd3aa3bb5acea26469706673582212202d7c9b11021f013fe66c47ed215b73d8987724c3816019e8ad988f1280762b7764736f6c63430008170033405787fa12a823e0f2b7631cc41b3ba8828b3321ca811111fa75cd3aa3bb5acebb7b4a454dc3493923482f07822329ed19e8244eff582cc204f8554c3620c3fdc65a7bb8d6351c1cf70c95a316cc6a92839c986682d98bc35f958f4883f9d2a8290decd9548b62a8d60345a988386fc84ba6bc95484008f6362f93160ef3e563d7b6990105719101dabeb77144f2a3385c8033acd3af97e9423a695e81ad1eb5f3f7a9fe364faab93b216da50a3214154f22a0a2b415b23a84c8169e8b636ee36e1540171b6c0c960b71a7020d9f60077f6af931a8bbf590da0223dacf75c7afb10e2d527612073b26eecdfd717e6a320cf44b4afac2b0732d9fcbe2b7fa0cf6",
  "linkReferences": {},
  "deployedLinkReferences": {}
}