{
  "_format": "hh-sol-artifact-1",
  "contractName": "Node",
  "sourceName": "contracts/Node.sol",
  "abi": [
    {
      "inputs": [
        {
          "internalType": "address",
          "name": "globalContractAddress",
          "type": "address"
        },
        {
          "internalType": "int256[]",
          "name": "initialPosition",
          "type": "int256[]"
        },
        {
          "internalType": "int256[]",
          "name": "initialVelocity",
          "type": "int256[]"
        },
        {
          "internalType": "int256[]",
          "name": "initialTariff",
          "type": "int256[]"
        },
        {
          "internalType": "uint256[]",
          "name": "initialCapacity",
          "type": "uint256[]"
        },
        {
          "internalType": "uint256[]",
          "name": "initialRenewableGeneration",
          "type": "uint256[]"
        },
        {
          "internalType": "uint256[]",
          "name": "initialBatteryCapacity",
          "type": "uint256[]"
        },
        {
          "internalType": "uint256[]",
          "name": "initialBatteryCharge",
          "type": "uint256[]"
        },
        {
          "internalType": "uint256[]",
          "name": "initialFlexibleLoad",
          "type": "uint256[]"
        },
        {
          "internalType": "uint256[]",
          "name": "_flexibilityAbove",
          "type": "uint256[]"
        },
        {
          "internalType": "uint256[]",
          "name": "_flexibilityBelow",
          "type": "uint256[]"
        }
      ],
      "stateMutability": "nonpayable",
      "type": "constructor"
    },
    {
      "anonymous": false,
      "inputs": [
        {
          "indexed": true,
          "internalType": "address",
          "name": "node",
          "type": "address"
        },
        {
          "indexed": false,
          "internalType": "int256",
          "name": "newScore",
          "type": "int256"
        }
      ],
      "name": "BestPositionUpdated",
      "type": "event"
    },
    {
      "anonymous": false,
      "inputs": [
        {
          "indexed": false,
          "internalType": "uint256",
          "name": "timestamp",
          "type": "uint256"
        }
      ],
      "name": "NewPlanReceived",
      "type": "event"
    },
    {
      "inputs": [
        {
          "internalType": "uint256",
          "name": "",
          "type": "uint256"
        }
      ],
      "name": "batteryCapacity",
      "outputs": [
        {
          "internalType": "uint256",
          "name": "",
          "type": "uint256"
        }
      ],
      "stateMutability": "view",
      "type": "function"
    },
    {
      "inputs": [
        {
          "internalType": "uint256",
          "name": "",
          "type": "uint256"
        }
      ],
      "name": "batteryCharge",
      "outputs": [
        {
          "internalType": "uint256",
          "name": "",
          "type": "uint256"
        }
      ],
      "stateMutability": "view",
      "type": "function"
    },
    {
      "inputs": [],
      "name": "c1",
      "outputs": [
        {
          "internalType": "int256",
          "name": "",
          "type": "int256"
        }
      ],
      "stateMutability": "view",
      "type": "function"
    },
    {
      "inputs": [],
      "name": "c2",
      "outputs": [
        {
          "internalType": "int256",
          "name": "",
          "type": "int256"
        }
      ],
      "stateMutability": "view",
      "type": "function"
    },
    {
      "inputs": [
        {
          "internalType": "uint256",
          "name": "",
          "type": "uint256"
        }
      ],
      "name": "capacity",
      "outputs": [
        {
          "internalType": "uint256",
          "name": "",
          "type": "uint256"
        }
      ],
      "stateMutability": "view",
      "type": "function"
    },
    {
      "inputs": [
        {
          "internalType": "uint256",
          "name": "",
          "type": "uint256"
        }
      ],
      "name": "flexibilityAbove",
      "outputs": [
        {
          "internalType": "uint256",
          "name": "",
          "type": "uint256"
        }
      ],
      "stateMutability": "view",
      "type": "function"
    },
    {
      "inputs": [
        {
          "internalType": "uint256",
          "name": "",
          "type": "uint256"
        }
      ],
      "name": "flexibilityBelow",
      "outputs": [
        {
          "internalType": "uint256",
          "name": "",
          "type": "uint256"
        }
      ],
      "stateMutability": "view",
      "type": "function"
    },
    {
      "inputs": [
        {
          "internalType": "uint256",
          "name": "",
          "type": "uint256"
        }
      ],
      "name": "flexibleLoad",
      "outputs": [
        {
          "internalType": "uint256",
          "name": "",
          "type": "uint256"
        }
      ],
      "stateMutability": "view",
      "type": "function"
    },
    {
      "inputs": [
        {
          "internalType": "uint256",
          "name": "hour",
          "type": "uint256"
        },
        {
          "internalType": "int256",
          "name": "consumption",
          "type": "int256"
        }
      ],
      "name": "getEffectiveTariff",
      "outputs": [
        {
          "internalType": "int256",
          "name": "",
          "type": "int256"
        }
      ],
      "stateMutability": "view",
      "type": "function"
    },
    {
      "inputs": [],
      "name": "getPosition",
      "outputs": [
        {
          "internalType": "int256[]",
          "name": "",
          "type": "int256[]"
        }
      ],
      "stateMutability": "view",
      "type": "function"
    },
    {
      "inputs": [],
      "name": "globalContract",
      "outputs": [
        {
          "internalType": "contract GlobalContractInterface",
          "name": "",
          "type": "address"
        }
      ],
      "stateMutability": "view",
      "type": "function"
    },
    {
      "inputs": [],
      "name": "lastKnownGlobalTimestamp",
      "outputs": [
        {
          "internalType": "uint256",
          "name": "",
          "type": "uint256"
        }
      ],
      "stateMutability": "view",
      "type": "function"
    },
    {
      "inputs": [
        {
          "internalType": "int256[]",
          "name": "pos",
          "type": "int256[]"
        }
      ],
      "name": "objectiveFunction",
      "outputs": [
        {
          "internalType": "int256",
          "name": "",
          "type": "int256"
        }
      ],
      "stateMutability": "view",
      "type": "function"
    },
    {
      "inputs": [
        {
          "internalType": "uint256",
          "name": "",
          "type": "uint256"
        }
      ],
      "name": "personalBestPosition",
      "outputs": [
        {
          "internalType": "int256",
          "name": "",
          "type": "int256"
        }
      ],
      "stateMutability": "view",
      "type": "function"
    },
    {
      "inputs": [],
      "name": "personalBestScore",
      "outputs": [
        {
          "internalType": "int256",
          "name": "",
          "type": "int256"
        }
      ],
      "stateMutability": "view",
      "type": "function"
    },
    {
      "inputs": [
        {
          "internalType": "uint256",
          "name": "",
          "type": "uint256"
        }
      ],
      "name": "position",
      "outputs": [
        {
          "internalType": "int256",
          "name": "",
          "type": "int256"
        }
      ],
      "stateMutability": "view",
      "type": "function"
    },
    {
      "inputs": [
        {
          "internalType": "uint256",
          "name": "",
          "type": "uint256"
        }
      ],
      "name": "renewableGeneration",
      "outputs": [
        {
          "internalType": "uint256",
          "name": "",
          "type": "uint256"
        }
      ],
      "stateMutability": "view",
      "type": "function"
    },
    {
      "inputs": [
        {
          "internalType": "uint256",
          "name": "",
          "type": "uint256"
        }
      ],
      "name": "tariff",
      "outputs": [
        {
          "internalType": "int256",
          "name": "",
          "type": "int256"
        }
      ],
      "stateMutability": "view",
      "type": "function"
    },
    {
      "inputs": [],
      "name": "updateBestPositions",
      "outputs": [],
      "stateMutability": "nonpayable",
      "type": "function"
    },
    {
      "inputs": [],
      "name": "updateVelocityAndPosition",
      "outputs": [],
      "stateMutability": "nonpayable",
      "type": "function"
    },
    {
      "inputs": [
        {
          "internalType": "uint256",
          "name": "",
          "type": "uint256"
        }
      ],
      "name": "velocity",
      "outputs": [
        {
          "internalType": "int256",
          "name": "",
          "type": "int256"
        }
      ],
      "stateMutability": "view",
      "type": "function"
    },
    {
      "inputs": [],
      "name": "w",
      "outputs": [
        {
          "internalType": "int256",
          "name": "",
          "type": "int256"
        }
      ],
      "stateMutability": "view",
      "type": "function"
    }
  ],
  "bytecode": "0x60806040523462000bd25762002361803803806200001d8162000bd7565b92833981016101608282031262000bd25781516001600160a01b038116919082900362000bd25760208301516001600160401b03811162000bd257816200006691850162000c15565b60408401519093906001600160401b03811162000bd257826200008b91830162000c15565b60608201516001600160401b03811162000bd25783620000ad91840162000c15565b60808301516001600160401b03811162000bd25784620000cf91850162000c15565b60a08401516001600160401b03811162000bd25785620000f191860162000c15565b60c08501519091906001600160401b03811162000bd257866200011691870162000c15565b60e08601519093906001600160401b03811162000bd257876200013b91880162000c15565b6101008701519095906001600160401b03811162000bd257886200016191890162000c15565b6101208801519097906001600160401b03811162000bd257896200018791830162000c15565b6101408201519099906001600160401b03811162000bd257620001ab920162000c15565b6001600160ff1b03600355603260055560c86006819055600755601080546001600160a01b031916909a179099558951620001e69062000c79565b8051906001600160401b038211620008905768010000000000000000821162000890576000548260005580831062000b9b575b5060200160008052602060002060005b83811062000b86575050505062000241815162000c79565b8051906001600160401b038211620008905768010000000000000000821162000890576001548260015580831062000b4d575b506020016001600052602060002060005b83811062000b3857505050506200029d8a5162000c79565b8051906001600160401b038211620008905768010000000000000000821162000890576002548260025580831062000aff575b506020016002600052602060002060005b83811062000aea5750505050620002f9825162000c79565b8051906001600160401b038211620008905768010000000000000000821162000890576008548260085580831062000ab1575b506020016008600052602060002060005b83811062000a9c575050505062000355835162000c79565b8051906001600160401b038211620008905768010000000000000000821162000890576009548260095580831062000a63575b506020016009600052602060002060005b83811062000a4e5750505050620003b1845162000c79565b8051906001600160401b03821162000890576801000000000000000082116200089057600a5482600a5580831062000a15575b50602001600a600052602060002060005b83811062000a0057505050506200040d855162000c79565b8051906001600160401b03821162000890576801000000000000000082116200089057600b5482600b55808310620009b6575b50602001600b600052602060002060005b838110620009a1575050505062000469865162000c79565b8051906001600160401b03821162000890576801000000000000000082116200089057600c5482600c5580831062000957575b50602001600c600052602060002060005b838110620009425750505050620004c5875162000c79565b8051906001600160401b03821162000890576801000000000000000082116200089057600d5482600d5580831062000909575b50602001600d600052602060002060005b838110620008f4575050505062000521885162000c79565b8051906001600160401b03821162000890576801000000000000000082116200089057600e5482600e55808310620008bb575b50602001600e600052602060002060005b838110620008a657505050506200057d895162000c79565b8051906001600160401b03821162000890576801000000000000000082116200089057600f5482600f5580831062000846575b50602001600f600052602060002060005b83811062000831575050505060005b8a518110156200082157620005e6818c62000ca6565b516000548210156200080b5760008052600080516020620022c183398151915282015562000615818c62000ca6565b516002548210156200080b5760026000526000805160206200226183398151915282015562000645818362000ca6565b516001548210156200080b5760016000526000805160206200234183398151915282015562000675818462000ca6565b516008548210156200080b57600860005260008051602062002301833981519152820155620006a5818562000ca6565b516009548210156200080b57600960005260008051602062002321833981519152820155620006d5818662000ca6565b51600a548210156200080b57600a600052600080516020620022a183398151915282015562000705818762000ca6565b51600b548210156200080b57600b6000527f0175b7a638427703f0dbe7bb9bbf987a2551717b34e79f33b5b1008d1fa01db982015562000746818862000ca6565b51600c548210156200080b57600c6000527fdf6966c971051c3d54ec59162606531493a51404a002842f56009d7e5cf4a8c782015562000787818962000ca6565b51600d548210156200080b57600d600052600080516020620022e1833981519152820155620007b7818a62000ca6565b51600e548210156200080b57600e60005260008051602062002281833981519152820155620007e7818b62000ca6565b5190600f548110156200080b57600191600f600052816020600020015501620005d0565b634e487b7160e01b600052603260045260246000fd5b6040516115a5908162000cbc8239f35b600190602084519401938184015501620005c1565b600f6000527f8d1108e10bcb7c27dddfc02ed9d693a074039d026cf4ea4240b40f7d581ac802908382015b818301811062000883575050620005b0565b6000815560010162000871565b634e487b7160e01b600052604160045260246000fd5b60019060208451940193818401550162000565565b600e60005260008051602062002281833981519152908382015b8183018110620008e757505062000554565b60008155600101620008d5565b60019060208451940193818401550162000509565b600d600052600080516020620022e1833981519152908382015b818301811062000935575050620004f8565b6000815560010162000923565b600190602084519401938184015501620004ad565b600c6000527fdf6966c971051c3d54ec59162606531493a51404a002842f56009d7e5cf4a8c7908382015b8183018110620009945750506200049c565b6000815560010162000982565b60019060208451940193818401550162000451565b600b6000527f0175b7a638427703f0dbe7bb9bbf987a2551717b34e79f33b5b1008d1fa01db9908382015b8183018110620009f357505062000440565b60008155600101620009e1565b600190602084519401938184015501620003f5565b600a600052600080516020620022a1833981519152908382015b818301811062000a41575050620003e4565b6000815560010162000a2f565b60019060208451940193818401550162000399565b600960005260008051602062002321833981519152908382015b818301811062000a8f57505062000388565b6000815560010162000a7d565b6001906020845194019381840155016200033d565b600860005260008051602062002301833981519152908382015b818301811062000add5750506200032c565b6000815560010162000acb565b600190602084519401938184015501620002e1565b600260005260008051602062002261833981519152908382015b818301811062000b2b575050620002d0565b6000815560010162000b19565b60019060208451940193818401550162000285565b600160005260008051602062002341833981519152908382015b818301811062000b7957505062000274565b6000815560010162000b67565b60019060208451940193818401550162000229565b60008052600080516020620022c18339815191529081019083015b81811062000bc5575062000219565b6000815560010162000bb6565b600080fd5b6040519190601f01601f191682016001600160401b038111838210176200089057604052565b6001600160401b038111620008905760051b60200190565b9080601f8301121562000bd25781519060209162000c3d62000c378262000bfd565b62000bd7565b9360208086848152019260051b82010192831162000bd257602001905b82821062000c69575050505090565b8151815290830190830162000c5a565b9062000c8962000c378362000bfd565b828152809262000c9c601f199162000bfd565b0190602036910137565b80518210156200080b5760209160051b01019056fe6040608081526004908136101561001557600080fd5b600091823560e01c806316b5192814610c72578063205c9cc714610c53578063364132d914610bc7578063375a105e14610b9d57806348e257cb14610b7e5780634d985ae414610b5f5780634eb274ff14610b125780635f57697c14610af35780636f24077414610ac95780637398ab1814610a0a57806378b6d7d4146109e057806390ccfa0f146109b7578063957b40561461098d57806396d14da614610963578063973b9cc1146106b2578063a86853d514610688578063ab1bbeca1461065e578063b6ce67091461060e578063d0c6c7af146105f1578063e329143f146105a1578063f6451c0a146101505763f7a95a9e1461011357600080fd5b3461014c57602036600319011261014c5735918054831015610149575061013b602092610d53565b91905490519160031b1c8152f35b80fd5b8280fd5b5091903461059d578160031936011261059d5760105481516302989b4b60e61b815260209390916001600160a01b031684838781845afa80156105935790829187939061055f575b83945086839454821161052d575b50508451631e385f6960e01b815293849182905afa9182156105215781926104fd575b5081518154036104c557805b81548110156104c1576101e781610d53565b905485514288820190815260208101859052600393841b9290921c604083015280606083010390610220601f1992838101835282610e79565b6064928391519020066001918286018087116104ae57896102ba6102c68d95948860659561027a6102868d8f61025590610d1c565b9054911b1c88519283918d830195428791606093918352602083015260408201520190565b03858101835282610e79565b51902006966102948c610d1c565b9054908c1b1c94519384918201958d428891606093918352602083015260408201520190565b03908101835282610e79565b5190200792603119840193841316610499576103ad926103858593846103758961037061037c8f98839c60019f9e8f9b6103706103678e61038a9f610339816103336103759861031861034f95610e0b565b905490821b1c9061032884610d53565b9054911b1c90610fc9565b96610f48565b5161034383610d53565b9054908d1b1c90610fc9565b9961035c60055492610d1c565b9054911b1c90610f95565b94600654610f95565b610f95565b0590610fef565b94600754610f95565b610fef565b0561039484610d1c565b90919082549060031b91821b91600019901b1916179055565b6103e06103d76103bc84610d53565b905490841b1c6103cb85610d1c565b905490851b1c90610fef565b61039484610d53565b61040f6103ec83610e0b565b905490831b1c6104096103fe85610ce5565b905490851b1c610f7f565b90610fc9565b61043e61041b84610e0b565b905490841b1c61043861042d86610d9d565b905490861b1c610f7f565b90610fef565b9181839261044b86610d53565b905490841b1c12610486575b5061046184610d53565b9054911b1c13610473575b50016101d5565b6104809061039483610d53565b3861046c565b6104939061039486610d53565b38610457565b60118b634e487b7160e01b6000525260246000fd5b634e487b7160e01b885260118c52602488fd5b5080f35b825162461bcd60e51b8152808601859052601260248201527144696d656e7369756e6920696e6567616c6560701b6044820152606490fd5b61051a9192503d8084833e6105128183610e79565b810190610ec9565b90386101c9565b508251903d90823e3d90fd5b817fc06999d659d5132dd93a1915097da1a6a24201916389e38da2404e4bca5e59be9287558751908152a138866101a6565b509150918481813d831161058c575b6105788183610e79565b8101031261014c5751859283929091610198565b503d61056e565b84513d84823e3d90fd5b5080fd5b503461014c57602036600319011261014c5735600d5481101561014c5760209250600d6000527fd7b6990105719101dabeb77144f2a3385c8033acd3af97e9423a695e81ad1eb501549051908152f35b503461014c578260031936011261014c5760209250549051908152f35b503461014c57602036600319011261014c5735600b5481101561014c5760209250600b6000527f0175b7a638427703f0dbe7bb9bbf987a2551717b34e79f33b5b1008d1fa01db901549051908152f35b503461014c57602036600319011261014c573591600954831015610149575061013b602092610e42565b503461014c57602036600319011261014c573591600254831015610149575061013b602092610e0b565b50903461014c5760031991838336011261095f576106e482516106df816106d881611516565b0382610e79565b61100b565b600390600354811261083b575b600e54906106fe82610eb1565b9261070b86519485610e79565b82845261071783610eb1565b926020916020860194601f1901368637895b8281106107fe5750506010546001600160a01b0316949050843b156107fa5796929088949260208851998a96632fc0395f60e01b885260608a89015261077160648901611516565b9360248901528784030160448801525191828152019291865b8281106107e057505050508383809203925af180156107d6576107ab578380f35b67ffffffffffffffff83116107c35750523880808380f35b634e487b7160e01b845260419052602483fd5b82513d86823e3d90fd5b835185528b97508a9650938101939281019260010161078a565b8880fd5b8061082861080d600193610d9d565b905490851b1c61081c83610ce5565b905490861b1c90610fe2565b821c610834828a610f48565b5201610729565b80600355855467ffffffffffffffff811161094c5768010000000000000000811161094c576002548160025580821061090c575b507f290decd9548b62a8d60345a988386fc84ba6bc95484008f6362f93160ef3e5636002885280549088915b8383106108d6575050505083518181527f409d103f7876158f293a85ee39f235ce0c309ab1aca81024a51dfb4b471e556e60203092a26106f1565b60018091920192835492817f405787fa12a823e0f2b7631cc41b3ba8828b3321ca811111fa75cd3aa3bb5ace015501919061089b565b817f405787fa12a823e0f2b7631cc41b3ba8828b3321ca811111fa75cd3aa3bb5ace91820191015b818110610941575061086f565b888155600101610934565b634e487b7160e01b875260418452602487fd5b8380fd5b503461014c57602036600319011261014c573591600a54831015610149575061013b602092610dd4565b509134610149578160031936011261014957506109b060209260243590356114b2565b9051908152f35b50503461059d578160031936011261059d5760105490516001600160a01b039091168152602090f35b503461014c57602036600319011261014c573591600e54831015610149575061013b602092610d9d565b82843461014957806003193601126101495790815491610a2983610eb1565b90610a3683519283610e79565b838252610a4284610eb1565b6020948584019391601f1901368537825b818110610a99575050835194859460208601926020875251809352850193925b828110610a8257505050500390f35b835185528695509381019392810192600101610a73565b80610aab600192989594969798610d53565b90549060031b1c610abc8288610f48565b5201959493919295610a53565b503461014c57602036600319011261014c573591600154831015610149575061013b602092610d1c565b50503461059d578160031936011261059d576020906006549051908152f35b503461014c57602036600319011261014c5735600c5481101561014c57600c602093527fdf6966c971051c3d54ec59162606531493a51404a002842f56009d7e5cf4a8c701549051908152f35b50503461059d578160031936011261059d576020906003549051908152f35b50503461059d578160031936011261059d576020906007549051908152f35b503461014c57602036600319011261014c573591600f54831015610149575061013b602092610ce5565b5091346101495760209060206003193601126101495783359367ffffffffffffffff851161059d573660238601121561059d57840135610c0681610eb1565b94610c1385519687610e79565b8186526024602087019260051b820101923684116101495750602401905b828210610c44576020856109b08861100b565b81358152908301908301610c31565b50503461059d578160031936011261059d576020906005549051908152f35b503461014c57602036600319011261014c573591600854831015610149575061013b6020925b600854811015610ccf5760086000527ff3f7a9fe364faab93b216da50a3214154f22a0a2b415b23a84c8169e8b636ee30190600090565b634e487b7160e01b600052603260045260246000fd5b600f54811015610ccf57600f6000527f8d1108e10bcb7c27dddfc02ed9d693a074039d026cf4ea4240b40f7d581ac8020190600090565b600154811015610ccf5760016000527fb10e2d527612073b26eecdfd717e6a320cf44b4afac2b0732d9fcbe2b7fa0cf60190600090565b906000918254811015610d89578280527f290decd9548b62a8d60345a988386fc84ba6bc95484008f6362f93160ef3e563019190565b634e487b7160e01b83526032600452602483fd5b600e54811015610ccf57600e6000527fbb7b4a454dc3493923482f07822329ed19e8244eff582cc204f8554c3620c3fd0190600090565b600a54811015610ccf57600a6000527fc65a7bb8d6351c1cf70c95a316cc6a92839c986682d98bc35f958f4883f9d2a80190600090565b600254811015610ccf5760026000527f405787fa12a823e0f2b7631cc41b3ba8828b3321ca811111fa75cd3aa3bb5ace0190600090565b600954811015610ccf5760096000527f6e1540171b6c0c960b71a7020d9f60077f6af931a8bbf590da0223dacf75c7af0190600090565b90601f8019910116810190811067ffffffffffffffff821117610e9b57604052565b634e487b7160e01b600052604160045260246000fd5b67ffffffffffffffff8111610e9b5760051b60200190565b6020908181840312610f435780519067ffffffffffffffff8211610f4357019180601f84011215610f43578251610eff81610eb1565b93610f0d6040519586610e79565b818552838086019260051b820101928311610f43578301905b828210610f34575050505090565b81518152908301908301610f26565b600080fd5b8051821015610ccf5760209160051b010190565b91908203918211610f6957565b634e487b7160e01b600052601160045260246000fd5b908160011b9180830560021490151715610f6957565b818102929160008212600160ff1b821416610f69578184051490151715610f6957565b600160ff1b8114610f695760000390565b81810392916000138015828513169184121617610f6957565b91908201809211610f6957565b91909160008382019384129112908015821691151617610f6957565b600090805160405180600a8054808352836020809401600a89527fc65a7bb8d6351c1cf70c95a316cc6a92839c986682d98bc35f958f4883f9d2a892895b8682821061149c5750505061106092500384610e79565b604051918280936020600c54918281520190600c8a527fdf6966c971051c3d54ec59162606531493a51404a002842f56009d7e5cf4a8c7938a905b828210611482575050506110b192500383610e79565b601054604051631e385f6960e01b8152936004929188908690859082906001600160a01b03165afa94851561147757889561145b575b5095949392919087965b85881061110357505050505050505090565b90919293949596976111158989610f48565b516000808212156113945750611145611136611131838d6114b2565b610fb8565b61113f83610fb8565b90610f95565b8a61114f81610e42565b905460039160009190831b1c85131561138f575061117b61116f83610e42565b905490831b1c85610fc9565b6111e361118784610e0b565b905490841b1c6111be6111b761119c87610d9d565b905490871b1c6111ab88610ce5565b905490881b1c90610fe2565b9188610fc9565b6000811261138057905b60009181811315611378576111dd9250610fc9565b93610dd4565b905490831b1c85600091818113600014611370576112019250610fc9565b925b60059182810292818405149015171561135b578281029281840514901517156113465761123761123d939261043892610fef565b91610f7f565b906000928c8b8b511461126f575b5050611261926103856001959361043893610fef565b9801969594939291906110f1565b61127c611284918c610f48565b518092610fc9565b90848212611336578782915b801561132d5705915b8282136112a9575b50508c61124b565b94909192941360001461130457906112c091610fc9565b8060021b908082058814901517156112ef57611261926103856001959361043893925b935093958295506112a1565b601187634e487b7160e01b6000525260246000fd5b92610385600195936113276111316113226104389661126199610fc9565b610f7f565b926112e3565b50508491611299565b8761134083610fb8565b91611290565b601189634e487b7160e01b6000525260246000fd5b60118a634e487b7160e01b6000525260246000fd5b505092611203565b505093610dd4565b61138990610fb8565b906111c8565b61117b565b61140b908b83846113a58389610f48565b5110611435576113b86113be9288610f48565b51610f5c565b6113c88d87610f48565b528b815b806113d7838c610f48565b5110611410576113b86113ea928b610f48565b6113f48d8a610f48565b525b6113ff8c610c98565b90549060031b1c610f95565b611145565b61141d611424928b610f48565b5190610f5c565b9061142f8d8a610f48565b526113f6565b5061144a6114438288610f48565b5185610f5c565b826114558389610f48565b526113cc565b6114709195503d808a833e6105128183610e79565b93386110e7565b6040513d8a823e3d90fd5b85548452600195860195889550938101939091019061109b565b8554845260019586019589955093019201611049565b6114bb90610c98565b90549060031b1c9060008112600014611512576114d790610fb8565b60011c60140180601411610f69576028811161150a575b6064039060648211610f695760649161150691610f95565b0590565b5060286114ee565b5090565b600080548083528180526020928301927f290decd9548b62a8d60345a988386fc84ba6bc95484008f6362f93160ef3e56392905b828210611558575050505090565b83548552938401936001938401939091019061154a56fea2646970667358221220583f83bb38936cb7efc5b172ed3c1c08471d97cf4f05897f0ebc3811d2f9913b64736f6c63430008170033405787fa12a823e0f2b7631cc41b3ba8828b3321ca811111fa75cd3aa3bb5acebb7b4a454dc3493923482f07822329ed19e8244eff582cc204f8554c3620c3fdc65a7bb8d6351c1cf70c95a316cc6a92839c986682d98bc35f958f4883f9d2a8290decd9548b62a8d60345a988386fc84ba6bc95484008f6362f93160ef3e563d7b6990105719101dabeb77144f2a3385c8033acd3af97e9423a695e81ad1eb5f3f7a9fe364faab93b216da50a3214154f22a0a2b415b23a84c8169e8b636ee36e1540171b6c0c960b71a7020d9f60077f6af931a8bbf590da0223dacf75c7afb10e2d527612073b26eecdfd717e6a320cf44b4afac2b0732d9fcbe2b7fa0cf6",
  "linkReferences": {},
  "deployedLinkReferences": {}
}