{
  "_format": "hh-sol-artifact-1",
  "contractName": "Node",
  "sourceName": "contracts/Node.sol",
  "abi": [
    {
      "inputs": [
        {
          "internalType": "address",
          "name": "globalContractAddress",
          "type": "address"
        },
        {
          "internalType": "int256[]",
          "name": "initialPosition",
          "type": "int256[]"
        },
        {
          "internalType": "int256[]",
          "name": "initialVelocity",
          "type": "int256[]"
        },
        {
          "internalType": "int256[]",
          "name": "initialTariff",
          "type": "int256[]"
        },
        {
          "internalType": "uint256[]",
          "name": "initialCapacity",
          "type": "uint256[]"
        },
        {
          "internalType": "uint256[]",
          "name": "initialRenewableGeneration",
          "type": "uint256[]"
        },
        {
          "internalType": "uint256[]",
          "name": "initialBatteryCapacity",
          "type": "uint256[]"
        },
        {
          "internalType": "uint256[]",
          "name": "initialBatteryCharge",
          "type": "uint256[]"
        },
        {
          "internalType": "uint256[]",
          "name": "initialFlexibleLoad",
          "type": "uint256[]"
        },
        {
          "internalType": "uint256[]",
          "name": "_flexibilityAbove",
          "type": "uint256[]"
        },
        {
          "internalType": "uint256[]",
          "name": "_flexibilityBelow",
          "type": "uint256[]"
        }
      ],
      "stateMutability": "nonpayable",
      "type": "constructor"
    },
    {
      "anonymous": false,
      "inputs": [
        {
          "indexed": true,
          "internalType": "address",
          "name": "node",
          "type": "address"
        },
        {
          "indexed": false,
          "internalType": "int256",
          "name": "newScore",
          "type": "int256"
        }
      ],
      "name": "BestPositionUpdated",
      "type": "event"
    },
    {
      "anonymous": false,
      "inputs": [
        {
          "indexed": false,
          "internalType": "uint256",
          "name": "timestamp",
          "type": "uint256"
        }
      ],
      "name": "NewPlanReceived",
      "type": "event"
    },
    {
      "inputs": [
        {
          "internalType": "uint256",
          "name": "",
          "type": "uint256"
        }
      ],
      "name": "batteryCapacity",
      "outputs": [
        {
          "internalType": "uint256",
          "name": "",
          "type": "uint256"
        }
      ],
      "stateMutability": "view",
      "type": "function"
    },
    {
      "inputs": [
        {
          "internalType": "uint256",
          "name": "",
          "type": "uint256"
        }
      ],
      "name": "batteryCharge",
      "outputs": [
        {
          "internalType": "uint256",
          "name": "",
          "type": "uint256"
        }
      ],
      "stateMutability": "view",
      "type": "function"
    },
    {
      "inputs": [],
      "name": "c1",
      "outputs": [
        {
          "internalType": "int256",
          "name": "",
          "type": "int256"
        }
      ],
      "stateMutability": "view",
      "type": "function"
    },
    {
      "inputs": [],
      "name": "c2",
      "outputs": [
        {
          "internalType": "int256",
          "name": "",
          "type": "int256"
        }
      ],
      "stateMutability": "view",
      "type": "function"
    },
    {
      "inputs": [
        {
          "internalType": "uint256",
          "name": "",
          "type": "uint256"
        }
      ],
      "name": "capacity",
      "outputs": [
        {
          "internalType": "uint256",
          "name": "",
          "type": "uint256"
        }
      ],
      "stateMutability": "view",
      "type": "function"
    },
    {
      "inputs": [
        {
          "internalType": "uint256",
          "name": "",
          "type": "uint256"
        }
      ],
      "name": "flexibilityAbove",
      "outputs": [
        {
          "internalType": "uint256",
          "name": "",
          "type": "uint256"
        }
      ],
      "stateMutability": "view",
      "type": "function"
    },
    {
      "inputs": [
        {
          "internalType": "uint256",
          "name": "",
          "type": "uint256"
        }
      ],
      "name": "flexibilityBelow",
      "outputs": [
        {
          "internalType": "uint256",
          "name": "",
          "type": "uint256"
        }
      ],
      "stateMutability": "view",
      "type": "function"
    },
    {
      "inputs": [
        {
          "internalType": "uint256",
          "name": "",
          "type": "uint256"
        }
      ],
      "name": "flexibleLoad",
      "outputs": [
        {
          "internalType": "uint256",
          "name": "",
          "type": "uint256"
        }
      ],
      "stateMutability": "view",
      "type": "function"
    },
    {
      "inputs": [
        {
          "internalType": "uint256",
          "name": "hour",
          "type": "uint256"
        },
        {
          "internalType": "int256",
          "name": "consumption",
          "type": "int256"
        }
      ],
      "name": "getEffectiveTariff",
      "outputs": [
        {
          "internalType": "int256",
          "name": "",
          "type": "int256"
        }
      ],
      "stateMutability": "view",
      "type": "function"
    },
    {
      "inputs": [],
      "name": "globalContract",
      "outputs": [
        {
          "internalType": "contract GlobalContractInterface",
          "name": "",
          "type": "address"
        }
      ],
      "stateMutability": "view",
      "type": "function"
    },
    {
      "inputs": [],
      "name": "lastKnownGlobalTimestamp",
      "outputs": [
        {
          "internalType": "uint256",
          "name": "",
          "type": "uint256"
        }
      ],
      "stateMutability": "view",
      "type": "function"
    },
    {
      "inputs": [
        {
          "internalType": "int256[]",
          "name": "pos",
          "type": "int256[]"
        }
      ],
      "name": "objectiveFunction",
      "outputs": [
        {
          "internalType": "int256",
          "name": "",
          "type": "int256"
        }
      ],
      "stateMutability": "view",
      "type": "function"
    },
    {
      "inputs": [
        {
          "internalType": "uint256",
          "name": "",
          "type": "uint256"
        }
      ],
      "name": "personalBestPosition",
      "outputs": [
        {
          "internalType": "int256",
          "name": "",
          "type": "int256"
        }
      ],
      "stateMutability": "view",
      "type": "function"
    },
    {
      "inputs": [],
      "name": "personalBestScore",
      "outputs": [
        {
          "internalType": "int256",
          "name": "",
          "type": "int256"
        }
      ],
      "stateMutability": "view",
      "type": "function"
    },
    {
      "inputs": [
        {
          "internalType": "uint256",
          "name": "",
          "type": "uint256"
        }
      ],
      "name": "position",
      "outputs": [
        {
          "internalType": "int256",
          "name": "",
          "type": "int256"
        }
      ],
      "stateMutability": "view",
      "type": "function"
    },
    {
      "inputs": [
        {
          "internalType": "uint256",
          "name": "",
          "type": "uint256"
        }
      ],
      "name": "renewableGeneration",
      "outputs": [
        {
          "internalType": "uint256",
          "name": "",
          "type": "uint256"
        }
      ],
      "stateMutability": "view",
      "type": "function"
    },
    {
      "inputs": [
        {
          "internalType": "uint256",
          "name": "",
          "type": "uint256"
        }
      ],
      "name": "tariff",
      "outputs": [
        {
          "internalType": "int256",
          "name": "",
          "type": "int256"
        }
      ],
      "stateMutability": "view",
      "type": "function"
    },
    {
      "inputs": [],
      "name": "updateBestPositions",
      "outputs": [],
      "stateMutability": "nonpayable",
      "type": "function"
    },
    {
      "inputs": [],
      "name": "updateVelocityAndPosition",
      "outputs": [],
      "stateMutability": "nonpayable",
      "type": "function"
    },
    {
      "inputs": [
        {
          "internalType": "uint256",
          "name": "",
          "type": "uint256"
        }
      ],
      "name": "velocity",
      "outputs": [
        {
          "internalType": "int256",
          "name": "",
          "type": "int256"
        }
      ],
      "stateMutability": "view",
      "type": "function"
    },
    {
      "inputs": [],
      "name": "w",
      "outputs": [
        {
          "internalType": "int256",
          "name": "",
          "type": "int256"
        }
      ],
      "stateMutability": "view",
      "type": "function"
    }
  ],
  "bytecode": "0x608060405234620009765762001c0c803803806200001d816200097b565b928339810161016082820312620009765781516001600160a01b0381169290839003620009765760208101516001600160401b03811162000976578262000066918301620009a1565b60408201516001600160401b03811162000976578362000088918401620009a1565b60608301516001600160401b038111620009765784620000aa918501620009a1565b60808401516001600160401b038111620009765785620000cc918601620009a1565b60a08501516001600160401b038111620009765786620000ee918701620009a1565b60c08601519092906001600160401b03811162000976578762000113918801620009a1565b60e08701519094906001600160401b03811162000976578862000138918901620009a1565b6101008801519096906001600160401b0381116200097657896200015e918a01620009a1565b6101208901519098906001600160401b03811162000976578a62000184918301620009a1565b610140820151909a906001600160401b0381116200097657620001a89201620009a1565b6001600160ff1b03600355603260055560c86006819055600755601080546001600160a01b031916909b17909a558051916001600160401b038311620005b357680100000000000000008311620005b357600054836000558084106200092e575b5060208201928360008052602060002060005b838110620009195750508251929150506001600160401b038211620005b357680100000000000000008211620005b35760015482600155808310620008cf575b506020016001600052602060002060005b838110620008ba5750509151929150506001600160401b038211620005b357680100000000000000008211620005b3576002548260025580831062000870575b506002600052602060002060005b8381106200085b5750508251929150506001600160401b038211620005b357680100000000000000008211620005b3576008548260085580831062000812575b506020016008600052602060002060005b838110620007fd5750508251929150506001600160401b038211620005b357680100000000000000008211620005b35760095482600955808310620007b4575b506020016009600052602060002060005b8381106200079f5750508251929150506001600160401b038211620005b357680100000000000000008211620005b357600a5482600a5580831062000756575b50602001600a600052602060002060005b838110620007415750508251929150506001600160401b038211620005b357680100000000000000008211620005b357600b5482600b55808310620006f8575b50602001600b600052602060002060005b838110620006e35750508251929150506001600160401b038211620005b357680100000000000000008211620005b357600c5482600c558083106200069a575b50602001600c600052602060002060005b838110620006855750508251929150506001600160401b038211620005b357680100000000000000008211620005b357600d5482600d558083106200063c575b50602001600d600052602060002060005b838110620006275784518690866001600160401b038211620005b357680100000000000000008211620005b357600e5482600e55808310620005de575b50602001600e600052602060002060005b838110620005c9578451856001600160401b038211620005b357680100000000000000008211620005b357600f5482600f558083106200056a575b5060200190600f60005260206000209160005b8281106200055557604051611201908162000a0b8239f35b6001906020835193019281860155016200053d565b600f6000527f8d1108e10bcb7c27dddfc02ed9d693a074039d026cf4ea4240b40f7d581ac8029081019083015b818110620005a657506200052a565b6000815560010162000597565b634e487b7160e01b600052604160045260246000fd5b600190602084519401938184015501620004ef565b600e6000527fbb7b4a454dc3493923482f07822329ed19e8244eff582cc204f8554c3620c3fd9081019083015b8181106200061a5750620004de565b600081556001016200060b565b600190602084519401938184015501620004a1565b600d6000527fd7b6990105719101dabeb77144f2a3385c8033acd3af97e9423a695e81ad1eb59081019083015b81811062000678575062000490565b6000815560010162000669565b60019060208451940193818401550162000450565b600c6000527fdf6966c971051c3d54ec59162606531493a51404a002842f56009d7e5cf4a8c79081019083015b818110620006d657506200043f565b60008155600101620006c7565b600190602084519401938184015501620003ff565b600b6000527f0175b7a638427703f0dbe7bb9bbf987a2551717b34e79f33b5b1008d1fa01db99081019083015b818110620007345750620003ee565b6000815560010162000725565b600190602084519401938184015501620003ae565b600a6000527fc65a7bb8d6351c1cf70c95a316cc6a92839c986682d98bc35f958f4883f9d2a89081019083015b8181106200079257506200039d565b6000815560010162000783565b6001906020845194019381840155016200035d565b60096000527f6e1540171b6c0c960b71a7020d9f60077f6af931a8bbf590da0223dacf75c7af9081019083015b818110620007f057506200034c565b60008155600101620007e1565b6001906020845194019381840155016200030c565b60086000527ff3f7a9fe364faab93b216da50a3214154f22a0a2b415b23a84c8169e8b636ee39081019083015b8181106200084e5750620002fb565b600081556001016200083f565b600190602084519401938184015501620002bb565b60026000527f405787fa12a823e0f2b7631cc41b3ba8828b3321ca811111fa75cd3aa3bb5ace908382015b8183018110620008ad575050620002ad565b600081556001016200089b565b6001906020845194019381840155016200026d565b60016000527fb10e2d527612073b26eecdfd717e6a320cf44b4afac2b0732d9fcbe2b7fa0cf6908382015b81830181106200090c5750506200025c565b60008155600101620008fa565b6001906020845194019381840155016200021c565b600080527f290decd9548b62a8d60345a988386fc84ba6bc95484008f6362f93160ef3e5639081019084015b81811062000969575062000209565b600081556001016200095a565b600080fd5b6040519190601f01601f191682016001600160401b03811183821017620005b357604052565b81601f8201121562000976578051916020916001600160401b038411620005b3578360051b908380620009d68185016200097b565b80978152019282010192831162000976578301905b828210620009fa575050505090565b81518152908301908301620009eb56fe6040608081526004908136101561001557600080fd5b600091823560e01c806316b5192814610c77578063205c9cc714610c58578063364132d914610bcc578063375a105e14610ba257806348e257cb14610b835780634d985ae414610b645780634eb274ff14610b175780635f57697c14610af85780636f24077414610ace57806378b6d7d414610aa457806390ccfa0f14610a7b578063957b405614610a5157806396d14da614610a04578063973b9cc114610743578063a86853d514610719578063ab1bbeca146106c9578063b6ce670914610679578063d0c6c7af1461065c578063e329143f1461060c578063f6451c0a146101455763f7a95a9e1461010857600080fd5b34610141576020366003190112610141573591805483101561013e5750610130602092610dc6565b91905490519160031b1c8152f35b80fd5b8280fd5b5091903461060857816003193601126106085760105481516302989b4b60e61b815260209390916001600160a01b031684838781845afa80156105fe579082918793906105ca575b839450868394548211610598575b50508451631e385f6960e01b815293849182905afa91821561058c5781926104f2575b5081518154036104ba57805b81548110156104b6576101dc81610dc6565b905485514288820190815260208101859052600393841b9290921c604083015280606083010390610215601f1992838101835282610e10565b6064928391519020066001918286018087116104a357896102af6102bb8d95948860659561026f61027b8d8f61024a90610d21565b9054911b1c88519283918d830195428791606093918352602083015260408201520190565b03858101835282610e10565b51902006966102898c610d21565b9054908c1b1c94519384918201958d428891606093918352602083015260408201520190565b03908101835282610e10565b519020079260311984019384131661048e576103a29261037a85938461036a896103656103718f98839c60019f9e8f9b61036561035c8e61037f9f61032e8161032861036a9861030d61034495610d8f565b905490821b1c9061031d84610dc6565b9054911b1c90610efd565b96610e60565b5161033883610dc6565b9054908d1b1c90610efd565b9961035160055492610d21565b9054911b1c90610ead565b94600654610ead565b610ead565b0590610ed0565b94600754610ead565b610ed0565b0561038984610d21565b90919082549060031b91821b91600019901b1916179055565b6103d56103cc6103b184610dc6565b905490841b1c6103c085610d21565b905490851b1c90610ed0565b61038984610dc6565b6104046103e183610d8f565b905490831b1c6103fe6103f385610cea565b905490851b1c610e97565b90610efd565b61043361041084610d8f565b905490841b1c61042d61042286610d58565b905490861b1c610e97565b90610ed0565b9181839261044086610dc6565b905490841b1c1261047b575b5061045684610dc6565b9054911b1c13610468575b50016101ca565b6104759061038983610dc6565b38610461565b6104889061038986610dc6565b3861044c565b60118b634e487b7160e01b6000525260246000fd5b634e487b7160e01b885260118c52602488fd5b5080f35b825162461bcd60e51b8152808601859052601260248201527144696d656e7369756e6920696e6567616c6560701b6044820152606490fd5b9091503d8083833e6105048183610e10565b81019084818303126101415780519067ffffffffffffffff821161058857019080601f8301121561014157815161053a81610e48565b9261054786519485610e10565b818452868085019260051b8201019283116105845786809101915b838310610574575050505090386101be565b8251815291810191879101610562565b8480fd5b8380fd5b508251903d90823e3d90fd5b817fc06999d659d5132dd93a1915097da1a6a24201916389e38da2404e4bca5e59be9287558751908152a1388661019b565b509150918481813d83116105f7575b6105e38183610e10565b81010312610141575185928392909161018d565b503d6105d9565b84513d84823e3d90fd5b5080fd5b50346101415760203660031901126101415735600d548110156101415760209250600d6000527fd7b6990105719101dabeb77144f2a3385c8033acd3af97e9423a695e81ad1eb501549051908152f35b503461014157826003193601126101415760209250549051908152f35b50346101415760203660031901126101415735600b548110156101415760209250600b6000527f0175b7a638427703f0dbe7bb9bbf987a2551717b34e79f33b5b1008d1fa01db901549051908152f35b50346101415760203660031901126101415735600954811015610141576020925060096000527f6e1540171b6c0c960b71a7020d9f60077f6af931a8bbf590da0223dacf75c7af01549051908152f35b503461014157602036600319011261014157359160025483101561013e5750610130602092610d8f565b509034610141576003199183833601126105885761077582516107708161076981611172565b0382610e10565b610f16565b60039060035481126108e0575b600e549061078f82610e48565b9261079c86519485610e10565b8284526107a883610e48565b926020916020860194601f1901368637895b82811061088f5750506010546001600160a01b0316949050843b1561088b5796929088949260208851998a96632fc0395f60e01b885260608a89015261080260648901611172565b9360248901528784030160448801525191828152019291865b82811061087157505050508383809203925af180156108675761083c578380f35b67ffffffffffffffff83116108545750523880808380f35b634e487b7160e01b845260419052602483fd5b82513d86823e3d90fd5b835185528b97508a9650938101939281019260010161081b565b8880fd5b61089881610d58565b905490831b1c6108a782610cea565b905490841b1c81018091116108cd5790600191821c6108c6828a610e60565b52016107ba565b634e487b7160e01b8c526011895260248cfd5b80600355855467ffffffffffffffff81116109f1576801000000000000000081116109f157600254816002558082106109b1575b507f290decd9548b62a8d60345a988386fc84ba6bc95484008f6362f93160ef3e5636002885280549088915b83831061097b575050505083518181527f409d103f7876158f293a85ee39f235ce0c309ab1aca81024a51dfb4b471e556e60203092a2610782565b60018091920192835492817f405787fa12a823e0f2b7631cc41b3ba8828b3321ca811111fa75cd3aa3bb5ace0155019190610940565b817f405787fa12a823e0f2b7631cc41b3ba8828b3321ca811111fa75cd3aa3bb5ace91820191015b8181106109e65750610914565b8881556001016109d9565b634e487b7160e01b875260418452602487fd5b50346101415760203660031901126101415735600a5481101561014157600a602093527fc65a7bb8d6351c1cf70c95a316cc6a92839c986682d98bc35f958f4883f9d2a801549051908152f35b50913461013e578160031936011261013e5750610a74602092602435903561110e565b9051908152f35b50503461060857816003193601126106085760105490516001600160a01b039091168152602090f35b5034610141576020366003190112610141573591600e5483101561013e5750610130602092610d58565b503461014157602036600319011261014157359160015483101561013e5750610130602092610d21565b5050346106085781600319360112610608576020906006549051908152f35b50346101415760203660031901126101415735600c5481101561014157600c602093527fdf6966c971051c3d54ec59162606531493a51404a002842f56009d7e5cf4a8c701549051908152f35b5050346106085781600319360112610608576020906003549051908152f35b5050346106085781600319360112610608576020906007549051908152f35b5034610141576020366003190112610141573591600f5483101561013e5750610130602092610cea565b50913461013e57602090602060031936011261013e5783359367ffffffffffffffff8511610608573660238601121561060857840135610c0b81610e48565b94610c1885519687610e10565b8186526024602087019260051b8201019236841161013e5750602401905b828210610c4957602085610a7488610f16565b81358152908301908301610c36565b5050346106085781600319360112610608576020906005549051908152f35b503461014157602036600319011261014157359160085483101561013e57506101306020925b600854811015610cd45760086000527ff3f7a9fe364faab93b216da50a3214154f22a0a2b415b23a84c8169e8b636ee30190600090565b634e487b7160e01b600052603260045260246000fd5b600f54811015610cd457600f6000527f8d1108e10bcb7c27dddfc02ed9d693a074039d026cf4ea4240b40f7d581ac8020190600090565b600154811015610cd45760016000527fb10e2d527612073b26eecdfd717e6a320cf44b4afac2b0732d9fcbe2b7fa0cf60190600090565b600e54811015610cd457600e6000527fbb7b4a454dc3493923482f07822329ed19e8244eff582cc204f8554c3620c3fd0190600090565b600254811015610cd45760026000527f405787fa12a823e0f2b7631cc41b3ba8828b3321ca811111fa75cd3aa3bb5ace0190600090565b906000918254811015610dfc578280527f290decd9548b62a8d60345a988386fc84ba6bc95484008f6362f93160ef3e563019190565b634e487b7160e01b83526032600452602483fd5b90601f8019910116810190811067ffffffffffffffff821117610e3257604052565b634e487b7160e01b600052604160045260246000fd5b67ffffffffffffffff8111610e325760051b60200190565b8051821015610cd45760209160051b010190565b91908203918211610e8157565b634e487b7160e01b600052601160045260246000fd5b908160011b9180830560021490151715610e8157565b818102929160008212600160ff1b821416610e81578184051490151715610e8157565b91909160008382019384129112908015821691151617610e8157565b600160ff1b8114610e815760000390565b81810392916000138015828513169184121617610e8157565b600090805160405180600a54808252602080920190600a87527fc65a7bb8d6351c1cf70c95a316cc6a92839c986682d98bc35f958f4883f9d2a890875b8181106110fa5750505082610f69910383610e10565b60405180916020600c54928381520191600c88527fdf6966c971051c3d54ec59162606531493a51404a002842f56009d7e5cf4a8c79188905b8282106110e3575050505081610fb9910382610e10565b84935b838510610fcb57505050505090565b9091929394600190610fdd8784610e60565b51906000821215611014576103fe82611002610ffc611008958c61110e565b91610eec565b90610ead565b955b0193929190610fbc565b6110929180806110248b8a610e60565b51106110c2575061103f906110398a89610e60565b51610e74565b6110498988610e60565b5260005b806110588a88610e60565b51106110985761106c906110398a88610e60565b6110768987610e60565b5261042d60005b6110868a610c9d565b90549060031b1c610ead565b9561100a565b6110b061042d916110a98b89610e60565b5190610e74565b60006110bc8b89610e60565b5261107d565b6110d191506110a98a89610e60565b60006110dd8a89610e60565b5261104d565b835485529384019360019384019390910190610fa2565b825484529284019260019283019201610f53565b61111790610c9d565b90549060031b1c906000811260001461116e5761113390610eec565b60011c60140180601411610e815760288111611166575b6064039060648211610e815760649161116291610ead565b0590565b50602861114a565b5090565b600080548083528180526020928301927f290decd9548b62a8d60345a988386fc84ba6bc95484008f6362f93160ef3e56392905b8282106111b4575050505090565b8354855293840193600193840193909101906111a656fea2646970667358221220ce8c5e0d464cb1aadadab423d59681620387c8882b0bcedc40515700b3333e4664736f6c63430008170033",
  "linkReferences": {},
  "deployedLinkReferences": {}
}