{
  "_format": "hh-sol-artifact-1",
  "contractName": "Node",
  "sourceName": "contracts/Node.sol",
  "abi": [
    {
      "inputs": [
        {
          "internalType": "address",
          "name": "globalContractAddress",
          "type": "address"
        },
        {
          "internalType": "uint256[]",
          "name": "initialPosition",
          "type": "uint256[]"
        },
        {
          "internalType": "uint256[]",
          "name": "initialVelocity",
          "type": "uint256[]"
        },
        {
          "internalType": "uint256[]",
          "name": "initialTariff",
          "type": "uint256[]"
        },
        {
          "internalType": "uint256[]",
          "name": "initialCapacity",
          "type": "uint256[]"
        },
        {
          "internalType": "uint256[]",
          "name": "initialRenewableGeneration",
          "type": "uint256[]"
        },
        {
          "internalType": "uint256[]",
          "name": "initialBatteryCapacity",
          "type": "uint256[]"
        },
        {
          "internalType": "uint256[]",
          "name": "initialBatteryCharge",
          "type": "uint256[]"
        },
        {
          "internalType": "uint256[]",
          "name": "initialFlexibleLoad",
          "type": "uint256[]"
        },
        {
          "internalType": "uint256",
          "name": "_penaltyRate",
          "type": "uint256"
        },
        {
          "internalType": "uint256",
          "name": "_peakDemandThreshold",
          "type": "uint256"
        },
        {
          "internalType": "uint256",
          "name": "_peakDemandPenalty",
          "type": "uint256"
        }
      ],
      "stateMutability": "nonpayable",
      "type": "constructor"
    },
    {
      "inputs": [
        {
          "internalType": "uint256",
          "name": "",
          "type": "uint256"
        }
      ],
      "name": "batteryCapacity",
      "outputs": [
        {
          "internalType": "uint256",
          "name": "",
          "type": "uint256"
        }
      ],
      "stateMutability": "view",
      "type": "function"
    },
    {
      "inputs": [
        {
          "internalType": "uint256",
          "name": "",
          "type": "uint256"
        }
      ],
      "name": "batteryCharge",
      "outputs": [
        {
          "internalType": "uint256",
          "name": "",
          "type": "uint256"
        }
      ],
      "stateMutability": "view",
      "type": "function"
    },
    {
      "inputs": [],
      "name": "c1",
      "outputs": [
        {
          "internalType": "uint256",
          "name": "",
          "type": "uint256"
        }
      ],
      "stateMutability": "view",
      "type": "function"
    },
    {
      "inputs": [],
      "name": "c2",
      "outputs": [
        {
          "internalType": "uint256",
          "name": "",
          "type": "uint256"
        }
      ],
      "stateMutability": "view",
      "type": "function"
    },
    {
      "inputs": [
        {
          "internalType": "uint256",
          "name": "",
          "type": "uint256"
        }
      ],
      "name": "capacity",
      "outputs": [
        {
          "internalType": "uint256",
          "name": "",
          "type": "uint256"
        }
      ],
      "stateMutability": "view",
      "type": "function"
    },
    {
      "inputs": [
        {
          "internalType": "uint256",
          "name": "",
          "type": "uint256"
        }
      ],
      "name": "flexibleLoad",
      "outputs": [
        {
          "internalType": "uint256",
          "name": "",
          "type": "uint256"
        }
      ],
      "stateMutability": "view",
      "type": "function"
    },
    {
      "inputs": [],
      "name": "getPersonalBestPosition",
      "outputs": [
        {
          "internalType": "uint256[]",
          "name": "",
          "type": "uint256[]"
        }
      ],
      "stateMutability": "view",
      "type": "function"
    },
    {
      "inputs": [],
      "name": "globalContract",
      "outputs": [
        {
          "internalType": "contract GlobalContractInterface",
          "name": "",
          "type": "address"
        }
      ],
      "stateMutability": "view",
      "type": "function"
    },
    {
      "inputs": [
        {
          "internalType": "uint256[]",
          "name": "pos",
          "type": "uint256[]"
        }
      ],
      "name": "objectiveFunction",
      "outputs": [
        {
          "internalType": "uint256",
          "name": "",
          "type": "uint256"
        }
      ],
      "stateMutability": "view",
      "type": "function"
    },
    {
      "inputs": [],
      "name": "peakDemandPenalty",
      "outputs": [
        {
          "internalType": "uint256",
          "name": "",
          "type": "uint256"
        }
      ],
      "stateMutability": "view",
      "type": "function"
    },
    {
      "inputs": [],
      "name": "peakDemandThreshold",
      "outputs": [
        {
          "internalType": "uint256",
          "name": "",
          "type": "uint256"
        }
      ],
      "stateMutability": "view",
      "type": "function"
    },
    {
      "inputs": [],
      "name": "penaltyRate",
      "outputs": [
        {
          "internalType": "uint256",
          "name": "",
          "type": "uint256"
        }
      ],
      "stateMutability": "view",
      "type": "function"
    },
    {
      "inputs": [
        {
          "internalType": "uint256",
          "name": "",
          "type": "uint256"
        }
      ],
      "name": "personalBestPosition",
      "outputs": [
        {
          "internalType": "uint256",
          "name": "",
          "type": "uint256"
        }
      ],
      "stateMutability": "view",
      "type": "function"
    },
    {
      "inputs": [],
      "name": "personalBestScore",
      "outputs": [
        {
          "internalType": "uint256",
          "name": "",
          "type": "uint256"
        }
      ],
      "stateMutability": "view",
      "type": "function"
    },
    {
      "inputs": [
        {
          "internalType": "uint256",
          "name": "",
          "type": "uint256"
        }
      ],
      "name": "position",
      "outputs": [
        {
          "internalType": "uint256",
          "name": "",
          "type": "uint256"
        }
      ],
      "stateMutability": "view",
      "type": "function"
    },
    {
      "inputs": [
        {
          "internalType": "uint256",
          "name": "",
          "type": "uint256"
        }
      ],
      "name": "renewableGeneration",
      "outputs": [
        {
          "internalType": "uint256",
          "name": "",
          "type": "uint256"
        }
      ],
      "stateMutability": "view",
      "type": "function"
    },
    {
      "inputs": [
        {
          "internalType": "uint256",
          "name": "",
          "type": "uint256"
        }
      ],
      "name": "tariff",
      "outputs": [
        {
          "internalType": "uint256",
          "name": "",
          "type": "uint256"
        }
      ],
      "stateMutability": "view",
      "type": "function"
    },
    {
      "inputs": [],
      "name": "updateBestPositions",
      "outputs": [],
      "stateMutability": "nonpayable",
      "type": "function"
    },
    {
      "inputs": [
        {
          "internalType": "uint256",
          "name": "nodeId",
          "type": "uint256"
        },
        {
          "internalType": "uint256",
          "name": "_peakDemandThreshold",
          "type": "uint256"
        }
      ],
      "name": "updatePeakDemandThreshold",
      "outputs": [],
      "stateMutability": "nonpayable",
      "type": "function"
    },
    {
      "inputs": [
        {
          "internalType": "uint256",
          "name": "nodeId",
          "type": "uint256"
        },
        {
          "internalType": "uint256",
          "name": "_penaltyRate",
          "type": "uint256"
        }
      ],
      "name": "updatePenaltyRate",
      "outputs": [],
      "stateMutability": "nonpayable",
      "type": "function"
    },
    {
      "inputs": [],
      "name": "updateVelocityAndPosition",
      "outputs": [],
      "stateMutability": "nonpayable",
      "type": "function"
    },
    {
      "inputs": [
        {
          "internalType": "uint256",
          "name": "",
          "type": "uint256"
        }
      ],
      "name": "velocity",
      "outputs": [
        {
          "internalType": "uint256",
          "name": "",
          "type": "uint256"
        }
      ],
      "stateMutability": "view",
      "type": "function"
    },
    {
      "inputs": [],
      "name": "w",
      "outputs": [
        {
          "internalType": "uint256",
          "name": "",
          "type": "uint256"
        }
      ],
      "stateMutability": "view",
      "type": "function"
    }
  ],
  "bytecode": "0x608060405234620007f95762001910803803806200001d81620007fe565b92833981019061018081830312620007f95780516001600160a01b0381169290839003620007f95760208201516001600160401b038111620007f957816200006791840162000824565b60408301519091906001600160401b038111620007f957816200008c91850162000824565b60608401519091906001600160401b038111620007f95781620000b191860162000824565b60808501516001600160401b038111620007f95782620000d391870162000824565b60a08601516001600160401b038111620007f95783620000f591880162000824565b60c08701519091906001600160401b038111620007f957846200011a91890162000824565b60e08801519093906001600160401b038111620007f957856200013f918a0162000824565b61010089015190956001600160401b038211620007f95762000163918a0162000824565b6101208901516101408a0151610160909a0151600019600355603260045560966005819055600655601080546001600160a01b031916909c17909b558851909891979091906001600160401b038311620004f357680100000000000000008311620004f35760005483600055808410620007b1575b5060208201928360008052602060002060005b8381106200079c5750508251929150506001600160401b038211620004f357680100000000000000008211620004f3576001548260015580831062000752575b506020016001600052602060002060005b8381106200073d5750509151929150506001600160401b038211620004f357680100000000000000008211620004f35760025482600255808310620006f4575b506002600052602060002060005b838110620006df5750508251929150506001600160401b038211620004f357680100000000000000008211620004f3576007548260075580831062000696575b506020016007600052602060002060005b838110620006815750508251929150506001600160401b038211620004f357680100000000000000008211620004f3576008548260085580831062000638575b506020016008600052602060002060005b838110620006235750508251929150506001600160401b038211620004f357680100000000000000008211620004f357600a5482600a55808310620005da575b50602001600a600052602060002060005b838110620005c55750508251929150506001600160401b038211620004f357680100000000000000008211620004f357600b5482600b558083106200057c575b50602001600b600052602060002060005b838110620005675750508251929150506001600160401b038211620004f357680100000000000000008211620004f357600c5482600c558083106200051e575b50602001600c600052602060002060005b838110620005095750508251929150506001600160401b038211620004f357680100000000000000008211620004f357600d5482600d55808310620004aa575b50602001600d600052602060002060005b838110620004955750505050600955600e55600f5560405161108290816200088e8239f35b60019060208451940193818401550162000470565b600d6000527fd7b6990105719101dabeb77144f2a3385c8033acd3af97e9423a695e81ad1eb59081019083015b818110620004e657506200045f565b60008155600101620004d7565b634e487b7160e01b600052604160045260246000fd5b6001906020845194019381840155016200041f565b600c6000527fdf6966c971051c3d54ec59162606531493a51404a002842f56009d7e5cf4a8c79081019083015b8181106200055a57506200040e565b600081556001016200054b565b600190602084519401938184015501620003ce565b600b6000527f0175b7a638427703f0dbe7bb9bbf987a2551717b34e79f33b5b1008d1fa01db99081019083015b818110620005b85750620003bd565b60008155600101620005a9565b6001906020845194019381840155016200037d565b600a6000527fc65a7bb8d6351c1cf70c95a316cc6a92839c986682d98bc35f958f4883f9d2a89081019083015b8181106200061657506200036c565b6000815560010162000607565b6001906020845194019381840155016200032c565b60086000527ff3f7a9fe364faab93b216da50a3214154f22a0a2b415b23a84c8169e8b636ee39081019083015b8181106200067457506200031b565b6000815560010162000665565b600190602084519401938184015501620002db565b60076000527fa66cc928b5edb82af9bd49922954155ab7b0942694bea4ce44661d9a8736c6889081019083015b818110620006d25750620002ca565b60008155600101620006c3565b6001906020845194019381840155016200028a565b60026000527f405787fa12a823e0f2b7631cc41b3ba8828b3321ca811111fa75cd3aa3bb5ace9081019083015b8181106200073057506200027c565b6000815560010162000721565b6001906020845194019381840155016200023c565b60016000527fb10e2d527612073b26eecdfd717e6a320cf44b4afac2b0732d9fcbe2b7fa0cf6908382015b81830181106200078f5750506200022b565b600081556001016200077d565b600190602084519401938184015501620001eb565b600080527f290decd9548b62a8d60345a988386fc84ba6bc95484008f6362f93160ef3e5639081019084015b818110620007ec5750620001d8565b60008155600101620007dd565b600080fd5b6040519190601f01601f191682016001600160401b03811183821017620004f357604052565b81601f82011215620007f9578051916020916001600160401b038411620004f3578360051b90838062000859818501620007fe565b809781520192820101928311620007f9578301905b8282106200087d575050505090565b815181529083019083016200086e56fe6040608081526004908136101561001557600080fd5b600091823560e01c806316b5192814610a66578063205c9cc714610a49578063278a328014610a31578063298c96e414610a0f57806348e257cb146109f05780634a702c3d146109d15780634d985ae4146109b25780634eb274ff146109655780635f57697c1461094657806369cd1db8146109275780636f240774146108fd57806390ccfa0f146108d457806396d14da614610887578063973b9cc114610686578063a86853d51461065c578063ab1bbeca14610632578063b6ce6709146105e2578063d6b7494f146105c3578063e329143f14610599578063e7d46385146104f6578063f03748851461045f578063f6451c0a1461015b5763f7a95a9e1461011e57600080fd5b3461015757602036600319011261015757359180548310156101545750610146602092610ba3565b91905490519160031b1c8152f35b80fd5b8280fd5b5082346101545780600319360112610154576010548351632ba8f1b360e01b815292919081908490849082906001600160a01b03165afa92831561045357819361042f575b5082518154036103f457805b81548110156103f0578451906020918281019042825282888201528781526101d381610c08565b606491829151902006926001908184018085116103dd5783908a51838101914283528c8201528b815261020581610c08565b51902006915484101561039c5750818654948161022186610ad9565b979054600398891b1c61023391610d0b565b916005549061024191610d0b565b61024a87610b10565b905490891b1c61025988610ba3565b9054908a1b1c61026891610dc2565b61027191610d0b565b0461027b91610dcf565b916006549061028991610d0b565b610293858a610dae565b5161029d86610ba3565b905490881b1c6102ac91610dc2565b6102b591610d0b565b046102bf91610dcf565b046102c982610ad9565b6102e4929082549060031b91821b91600019901b1916179055565b6102ed81610ad9565b905490831b1c6102fc82610ba3565b9091825482861b1c9061030e91610dcf565b825460001960039390931b92831b1916911b17905561032c81610ba3565b905490831b1c61033b82610b6c565b905490841b1c1091600192610352575b50016101ac565b6103969061035f83610b6c565b905490821b1c61037f61037185610ba3565b929093838554911b1c610dc2565b825460001960039390931b92831b1916911b179055565b8661034b565b86915088519162461bcd60e51b8352820152601c60248201527f56656c6f6369747920696e646578206f7574206f6620626f756e6473000000006044820152fd5b634e487b7160e01b875260118852602487fd5b5080f35b835162461bcd60e51b81526020818401526015602482015274082e4e4c2f240d8cadccee8d040dad2e6dac2e8c6d605b1b6044820152606490fd5b61044c9193503d8085833e6104448183610c3a565b810190610d34565b91846101a0565b508351903d90823e3d90fd5b5091346101545760209060206003193601126101545783359367ffffffffffffffff85116104f257366023860112156104f25784013561049e81610c5c565b946104ab85519687610c3a565b8186526024602087019260051b820101923684116101545750602401905b8282106104e3576020856104dc88610ddc565b9051908152f35b813581529083019083016104c9565b5080fd5b8284346101545780600319360112610154579080519182906002549182855260208095018093600260005260008051602061102d8339815191529060005b818110610585575050508161054a910382610c3a565b83519485948186019282875251809352850193925b82811061056e57505050500390f35b83518552869550938101939281019260010161055f565b825484529288019260019283019201610534565b5034610157576020366003190112610157573591600d548310156101545750610146602092610b6c565b5050346104f257816003193601126104f2576020906009549051908152f35b50346101575760203660031901126101575735600b548110156101575760209250600b6000527f0175b7a638427703f0dbe7bb9bbf987a2551717b34e79f33b5b1008d1fa01db901549051908152f35b50346101575760203660031901126101575735916008548310156101545750610146602092610b35565b50346101575760203660031901126101575735916002548310156101545750610146602092610b10565b509190346104f257816003193601126104f2576106b781516106b2816106ab81610cb2565b0382610c3a565b610ddc565b9260035484106107b0575b6010548251632ba8f1b360e01b8152939485946001600160a01b039092169185818581865afa9081156107a6579061070191879161078c575b50610ddc565b811061070b578480f35b813b156107885784918451809681809463a5cdc59b60e01b8252888883015261073660448301610cb2565b90602483015203925af1801561077e57610752575b8084938480f35b67ffffffffffffffff831161076b57505238808061074b565b634e487b7160e01b845260419052602483fd5b82513d86823e3d90fd5b8480fd5b6107a091503d8089833e6104448183610c3a565b386106fb565b85513d88823e3d90fd5b8360035582549367ffffffffffffffff8511610874576801000000000000000085116108745760025485600255808610610846575b507f290decd9548b62a8d60345a988386fc84ba6bc95484008f6362f93160ef3e5639460028552855485905b8282106108225750505093506106c2565b600180919801918254988160008051602061102d8339815191520155019096610811565b8560008051602061102d83398151915291820191015b81811061086957506107e5565b85815560010161085c565b634e487b7160e01b845260418252602484fd5b50346101575760203660031901126101575735600a5481101561015757600a602093527fc65a7bb8d6351c1cf70c95a316cc6a92839c986682d98bc35f958f4883f9d2a801549051908152f35b5050346104f257816003193601126104f25760105490516001600160a01b039091168152602090f35b50346101575760203660031901126101575735916001548310156101545750610146602092610ad9565b5050346104f257816003193601126104f257602090600e549051908152f35b5050346104f257816003193601126104f2576020906005549051908152f35b50346101575760203660031901126101575735600c5481101561015757600c602093527fdf6966c971051c3d54ec59162606531493a51404a002842f56009d7e5cf4a8c701549051908152f35b5050346104f257816003193601126104f2576020906003549051908152f35b5050346104f257816003193601126104f257602090600f549051908152f35b5050346104f257816003193601126104f2576020906006549051908152f35b833461015457610a2b610a2136610bed565b9190835411610c74565b60095580f35b833461015457610a43610a2136610bed565b600e5580f35b503461015757826003193601126101575760209250549051908152f35b503461015757602036600319011261015757359160075483101561015457506101466020925b600754811015610ac35760076000527fa66cc928b5edb82af9bd49922954155ab7b0942694bea4ce44661d9a8736c6880190600090565b634e487b7160e01b600052603260045260246000fd5b600154811015610ac35760016000527fb10e2d527612073b26eecdfd717e6a320cf44b4afac2b0732d9fcbe2b7fa0cf60190600090565b600254811015610ac357600260005260008051602061102d8339815191520190600090565b600854811015610ac35760086000527ff3f7a9fe364faab93b216da50a3214154f22a0a2b415b23a84c8169e8b636ee30190600090565b600d54811015610ac357600d6000527fd7b6990105719101dabeb77144f2a3385c8033acd3af97e9423a695e81ad1eb50190600090565b906000918254811015610bd9578280527f290decd9548b62a8d60345a988386fc84ba6bc95484008f6362f93160ef3e563019190565b634e487b7160e01b83526032600452602483fd5b6040906003190112610c03576004359060243590565b600080fd5b6060810190811067ffffffffffffffff821117610c2457604052565b634e487b7160e01b600052604160045260246000fd5b90601f8019910116810190811067ffffffffffffffff821117610c2457604052565b67ffffffffffffffff8111610c245760051b60200190565b15610c7b57565b60405162461bcd60e51b815260206004820152600f60248201526e139bd919481251081a5b9d985b1a59608a1b6044820152606490fd5b600080548083528180526020928301927f290decd9548b62a8d60345a988386fc84ba6bc95484008f6362f93160ef3e56392905b828210610cf4575050505090565b835485529384019360019384019390910190610ce6565b81810292918115918404141715610d1e57565b634e487b7160e01b600052601160045260246000fd5b6020908181840312610c035780519067ffffffffffffffff8211610c0357019180601f84011215610c03578251610d6a81610c5c565b93610d786040519586610c3a565b818552838086019260051b820101928311610c03578301905b828210610d9f575050505090565b81518152908301908301610d91565b8051821015610ac35760209160051b010190565b91908203918211610d1e57565b91908201809211610d1e57565b906000916040518091600a54808352602080930190600a87527fc65a7bb8d6351c1cf70c95a316cc6a92839c986682d98bc35f958f4883f9d2a890875b8181106110185750505083610e2f910384610c3a565b60405180926020600c54928381520191600c88527fdf6966c971051c3d54ec59162606531493a51404a002842f56009d7e5cf4a8c79188905b828210611001575050505082610e7f910383610c3a565b8492600e54955b8251851015610ff957610f4f600191610e9f8786610dae565b5180610eab8987610dae565b5110610fd957506000610ed2610ec18988610dae565b51610ecc8a88610dae565b51610dc2565b610edc8987610dae565b525b80610ee98989610dae565b5110610fb157610efd90610ecc8989610dae565b610f078888610dae565b526000905b81610f27610f198a610a8c565b949054600395861b1c610d0b565b928b808311610f8f575b50610f3b8a610b35565b905490821b1c8211610f57575b5050610dcf565b940193610e86565b610f78610f87939492610f8192610f6d8d610b35565b9054911b1c90610dc2565b60095490610d0b565b90610dcf565b903880610f48565b93610f81610fa1610faa939685610dc2565b600f5490610d0b565b928b610f31565b610fc690610fbf8989610dae565b5190610dc2565b906000610fd38989610dae565b52610f0c565b610fe790610fbf8987610dae565b6000610ff38987610dae565b52610ede565b955050505050565b835485529384019360019384019390910190610e68565b825484529285019260019283019201610e1956fe405787fa12a823e0f2b7631cc41b3ba8828b3321ca811111fa75cd3aa3bb5acea2646970667358221220e65594ba625d3a9a3ac82b90ad6958ef6f66e6fc0528dadff3c4183d2fb048f764736f6c63430008170033",
  "linkReferences": {},
  "deployedLinkReferences": {}
}