{
  "_format": "hh-sol-artifact-1",
  "contractName": "Node",
  "sourceName": "contracts/Node.sol",
  "abi": [
    {
      "inputs": [
        {
          "internalType": "address",
          "name": "globalContractAddress",
          "type": "address"
        },
        {
          "internalType": "int256[]",
          "name": "initialPosition",
          "type": "int256[]"
        },
        {
          "internalType": "int256[]",
          "name": "initialVelocity",
          "type": "int256[]"
        },
        {
          "internalType": "int256[]",
          "name": "initialTariff",
          "type": "int256[]"
        },
        {
          "internalType": "uint256[]",
          "name": "initialCapacity",
          "type": "uint256[]"
        },
        {
          "internalType": "uint256[]",
          "name": "initialRenewableGeneration",
          "type": "uint256[]"
        },
        {
          "internalType": "uint256[]",
          "name": "initialBatteryCapacity",
          "type": "uint256[]"
        },
        {
          "internalType": "uint256[]",
          "name": "initialBatteryCharge",
          "type": "uint256[]"
        },
        {
          "internalType": "uint256[]",
          "name": "initialFlexibleLoad",
          "type": "uint256[]"
        },
        {
          "internalType": "uint256[]",
          "name": "_flexibilityAbove",
          "type": "uint256[]"
        },
        {
          "internalType": "uint256[]",
          "name": "_flexibilityBelow",
          "type": "uint256[]"
        }
      ],
      "stateMutability": "nonpayable",
      "type": "constructor"
    },
    {
      "anonymous": false,
      "inputs": [
        {
          "indexed": true,
          "internalType": "address",
          "name": "node",
          "type": "address"
        },
        {
          "indexed": false,
          "internalType": "int256",
          "name": "newScore",
          "type": "int256"
        }
      ],
      "name": "BestPositionUpdated",
      "type": "event"
    },
    {
      "anonymous": false,
      "inputs": [
        {
          "indexed": false,
          "internalType": "uint256",
          "name": "timestamp",
          "type": "uint256"
        }
      ],
      "name": "NewPlanReceived",
      "type": "event"
    },
    {
      "inputs": [],
      "name": "applyFinalPlan",
      "outputs": [],
      "stateMutability": "nonpayable",
      "type": "function"
    },
    {
      "inputs": [
        {
          "internalType": "uint256",
          "name": "",
          "type": "uint256"
        }
      ],
      "name": "batteryCapacity",
      "outputs": [
        {
          "internalType": "uint256",
          "name": "",
          "type": "uint256"
        }
      ],
      "stateMutability": "view",
      "type": "function"
    },
    {
      "inputs": [
        {
          "internalType": "uint256",
          "name": "",
          "type": "uint256"
        }
      ],
      "name": "batteryCharge",
      "outputs": [
        {
          "internalType": "uint256",
          "name": "",
          "type": "uint256"
        }
      ],
      "stateMutability": "view",
      "type": "function"
    },
    {
      "inputs": [],
      "name": "c1",
      "outputs": [
        {
          "internalType": "int256",
          "name": "",
          "type": "int256"
        }
      ],
      "stateMutability": "view",
      "type": "function"
    },
    {
      "inputs": [],
      "name": "c2",
      "outputs": [
        {
          "internalType": "int256",
          "name": "",
          "type": "int256"
        }
      ],
      "stateMutability": "view",
      "type": "function"
    },
    {
      "inputs": [
        {
          "internalType": "uint256",
          "name": "",
          "type": "uint256"
        }
      ],
      "name": "capacity",
      "outputs": [
        {
          "internalType": "uint256",
          "name": "",
          "type": "uint256"
        }
      ],
      "stateMutability": "view",
      "type": "function"
    },
    {
      "inputs": [
        {
          "internalType": "uint256",
          "name": "",
          "type": "uint256"
        }
      ],
      "name": "flexibilityAbove",
      "outputs": [
        {
          "internalType": "uint256",
          "name": "",
          "type": "uint256"
        }
      ],
      "stateMutability": "view",
      "type": "function"
    },
    {
      "inputs": [
        {
          "internalType": "uint256",
          "name": "",
          "type": "uint256"
        }
      ],
      "name": "flexibilityBelow",
      "outputs": [
        {
          "internalType": "uint256",
          "name": "",
          "type": "uint256"
        }
      ],
      "stateMutability": "view",
      "type": "function"
    },
    {
      "inputs": [
        {
          "internalType": "uint256",
          "name": "",
          "type": "uint256"
        }
      ],
      "name": "flexibleLoad",
      "outputs": [
        {
          "internalType": "uint256",
          "name": "",
          "type": "uint256"
        }
      ],
      "stateMutability": "view",
      "type": "function"
    },
    {
      "inputs": [
        {
          "internalType": "uint256",
          "name": "",
          "type": "uint256"
        }
      ],
      "name": "frozenBatteryCharge",
      "outputs": [
        {
          "internalType": "uint256",
          "name": "",
          "type": "uint256"
        }
      ],
      "stateMutability": "view",
      "type": "function"
    },
    {
      "inputs": [
        {
          "internalType": "uint256",
          "name": "",
          "type": "uint256"
        }
      ],
      "name": "frozenRenewableGeneration",
      "outputs": [
        {
          "internalType": "uint256",
          "name": "",
          "type": "uint256"
        }
      ],
      "stateMutability": "view",
      "type": "function"
    },
    {
      "inputs": [
        {
          "internalType": "uint256",
          "name": "hour",
          "type": "uint256"
        },
        {
          "internalType": "int256",
          "name": "consumption",
          "type": "int256"
        }
      ],
      "name": "getEffectiveTariff",
      "outputs": [
        {
          "internalType": "int256",
          "name": "",
          "type": "int256"
        }
      ],
      "stateMutability": "view",
      "type": "function"
    },
    {
      "inputs": [],
      "name": "getFrozenCost",
      "outputs": [
        {
          "internalType": "int256",
          "name": "",
          "type": "int256"
        }
      ],
      "stateMutability": "view",
      "type": "function"
    },
    {
      "inputs": [],
      "name": "getPersonalBestPosition",
      "outputs": [
        {
          "internalType": "int256[]",
          "name": "",
          "type": "int256[]"
        }
      ],
      "stateMutability": "view",
      "type": "function"
    },
    {
      "inputs": [],
      "name": "getPosition",
      "outputs": [
        {
          "internalType": "int256[]",
          "name": "",
          "type": "int256[]"
        }
      ],
      "stateMutability": "view",
      "type": "function"
    },
    {
      "inputs": [],
      "name": "globalContract",
      "outputs": [
        {
          "internalType": "contract GlobalContractInterface",
          "name": "",
          "type": "address"
        }
      ],
      "stateMutability": "view",
      "type": "function"
    },
    {
      "inputs": [],
      "name": "lastKnownGlobalTimestamp",
      "outputs": [
        {
          "internalType": "uint256",
          "name": "",
          "type": "uint256"
        }
      ],
      "stateMutability": "view",
      "type": "function"
    },
    {
      "inputs": [
        {
          "internalType": "int256[]",
          "name": "pos",
          "type": "int256[]"
        }
      ],
      "name": "objectiveFunction",
      "outputs": [
        {
          "internalType": "int256",
          "name": "",
          "type": "int256"
        }
      ],
      "stateMutability": "view",
      "type": "function"
    },
    {
      "inputs": [
        {
          "internalType": "int256[]",
          "name": "pos",
          "type": "int256[]"
        }
      ],
      "name": "objectiveFunctionFrozen",
      "outputs": [
        {
          "internalType": "int256",
          "name": "",
          "type": "int256"
        }
      ],
      "stateMutability": "view",
      "type": "function"
    },
    {
      "inputs": [
        {
          "internalType": "uint256",
          "name": "",
          "type": "uint256"
        }
      ],
      "name": "personalBestPosition",
      "outputs": [
        {
          "internalType": "int256",
          "name": "",
          "type": "int256"
        }
      ],
      "stateMutability": "view",
      "type": "function"
    },
    {
      "inputs": [],
      "name": "personalBestScore",
      "outputs": [
        {
          "internalType": "int256",
          "name": "",
          "type": "int256"
        }
      ],
      "stateMutability": "view",
      "type": "function"
    },
    {
      "inputs": [
        {
          "internalType": "uint256",
          "name": "",
          "type": "uint256"
        }
      ],
      "name": "position",
      "outputs": [
        {
          "internalType": "int256",
          "name": "",
          "type": "int256"
        }
      ],
      "stateMutability": "view",
      "type": "function"
    },
    {
      "inputs": [
        {
          "internalType": "uint256",
          "name": "",
          "type": "uint256"
        }
      ],
      "name": "renewableGeneration",
      "outputs": [
        {
          "internalType": "uint256",
          "name": "",
          "type": "uint256"
        }
      ],
      "stateMutability": "view",
      "type": "function"
    },
    {
      "inputs": [
        {
          "internalType": "uint256",
          "name": "",
          "type": "uint256"
        }
      ],
      "name": "tariff",
      "outputs": [
        {
          "internalType": "int256",
          "name": "",
          "type": "int256"
        }
      ],
      "stateMutability": "view",
      "type": "function"
    },
    {
      "inputs": [],
      "name": "updateBestPositions",
      "outputs": [],
      "stateMutability": "nonpayable",
      "type": "function"
    },
    {
      "inputs": [],
      "name": "updateVelocityAndPosition",
      "outputs": [],
      "stateMutability": "nonpayable",
      "type": "function"
    },
    {
      "inputs": [
        {
          "internalType": "uint256",
          "name": "",
          "type": "uint256"
        }
      ],
      "name": "velocity",
      "outputs": [
        {
          "internalType": "int256",
          "name": "",
          "type": "int256"
        }
      ],
      "stateMutability": "view",
      "type": "function"
    },
    {
      "inputs": [],
      "name": "w",
      "outputs": [
        {
          "internalType": "int256",
          "name": "",
          "type": "int256"
        }
      ],
      "stateMutability": "view",
      "type": "function"
    }
  ],
  "bytecode": "0x60806040523462000bd257620029c7803803806200001d8162000bd7565b92833981016101608282031262000bd25781516001600160a01b038116919082900362000bd25760208301516001600160401b03811162000bd257816200006691850162000c15565b60408401519093906001600160401b03811162000bd257826200008b91830162000c15565b60608201516001600160401b03811162000bd25783620000ad91840162000c15565b60808301516001600160401b03811162000bd25784620000cf91850162000c15565b60a08401516001600160401b03811162000bd25785620000f191860162000c15565b60c08501519091906001600160401b03811162000bd257866200011691870162000c15565b60e08601519093906001600160401b03811162000bd257876200013b91880162000c15565b6101008701519095906001600160401b03811162000bd257886200016191890162000c15565b6101208801519097906001600160401b03811162000bd257896200018791830162000c15565b6101408201519099906001600160401b03811162000bd257620001ab920162000c15565b6001600160ff1b03600355603260055560c86006819055600755601080546001600160a01b031916909a179099558951620001e69062000c79565b8051906001600160401b038211620008905768010000000000000000821162000890576000548260005580831062000b9b575b5060200160008052602060002060005b83811062000b86575050505062000241815162000c79565b8051906001600160401b038211620008905768010000000000000000821162000890576001548260015580831062000b4d575b506020016001600052602060002060005b83811062000b3857505050506200029d8a5162000c79565b8051906001600160401b038211620008905768010000000000000000821162000890576002548260025580831062000aff575b506020016002600052602060002060005b83811062000aea5750505050620002f9825162000c79565b8051906001600160401b038211620008905768010000000000000000821162000890576008548260085580831062000ab1575b506020016008600052602060002060005b83811062000a9c575050505062000355835162000c79565b8051906001600160401b038211620008905768010000000000000000821162000890576009548260095580831062000a63575b506020016009600052602060002060005b83811062000a4e5750505050620003b1845162000c79565b8051906001600160401b03821162000890576801000000000000000082116200089057600a5482600a5580831062000a15575b50602001600a600052602060002060005b83811062000a0057505050506200040d855162000c79565b8051906001600160401b03821162000890576801000000000000000082116200089057600b5482600b55808310620009b6575b50602001600b600052602060002060005b838110620009a1575050505062000469865162000c79565b8051906001600160401b03821162000890576801000000000000000082116200089057600c5482600c5580831062000957575b50602001600c600052602060002060005b838110620009425750505050620004c5875162000c79565b8051906001600160401b03821162000890576801000000000000000082116200089057600d5482600d5580831062000909575b50602001600d600052602060002060005b838110620008f4575050505062000521885162000c79565b8051906001600160401b03821162000890576801000000000000000082116200089057600e5482600e55808310620008bb575b50602001600e600052602060002060005b838110620008a657505050506200057d895162000c79565b8051906001600160401b03821162000890576801000000000000000082116200089057600f5482600f5580831062000846575b50602001600f600052602060002060005b83811062000831575050505060005b8a518110156200082157620005e6818c62000ca6565b516000548210156200080b57600080526000805160206200292783398151915282015562000615818c62000ca6565b516002548210156200080b576002600052600080516020620028c783398151915282015562000645818362000ca6565b516001548210156200080b576001600052600080516020620029a783398151915282015562000675818462000ca6565b516008548210156200080b57600860005260008051602062002967833981519152820155620006a5818562000ca6565b516009548210156200080b57600960005260008051602062002987833981519152820155620006d5818662000ca6565b51600a548210156200080b57600a6000526000805160206200290783398151915282015562000705818762000ca6565b51600b548210156200080b57600b6000527f0175b7a638427703f0dbe7bb9bbf987a2551717b34e79f33b5b1008d1fa01db982015562000746818862000ca6565b51600c548210156200080b57600c6000527fdf6966c971051c3d54ec59162606531493a51404a002842f56009d7e5cf4a8c782015562000787818962000ca6565b51600d548210156200080b57600d60005260008051602062002947833981519152820155620007b7818a62000ca6565b51600e548210156200080b57600e600052600080516020620028e7833981519152820155620007e7818b62000ca6565b5190600f548110156200080b57600191600f600052816020600020015501620005d0565b634e487b7160e01b600052603260045260246000fd5b604051611c0b908162000cbc8239f35b600190602084519401938184015501620005c1565b600f6000527f8d1108e10bcb7c27dddfc02ed9d693a074039d026cf4ea4240b40f7d581ac802908382015b818301811062000883575050620005b0565b6000815560010162000871565b634e487b7160e01b600052604160045260246000fd5b60019060208451940193818401550162000565565b600e600052600080516020620028e7833981519152908382015b8183018110620008e757505062000554565b60008155600101620008d5565b60019060208451940193818401550162000509565b600d60005260008051602062002947833981519152908382015b818301811062000935575050620004f8565b6000815560010162000923565b600190602084519401938184015501620004ad565b600c6000527fdf6966c971051c3d54ec59162606531493a51404a002842f56009d7e5cf4a8c7908382015b8183018110620009945750506200049c565b6000815560010162000982565b60019060208451940193818401550162000451565b600b6000527f0175b7a638427703f0dbe7bb9bbf987a2551717b34e79f33b5b1008d1fa01db9908382015b8183018110620009f357505062000440565b60008155600101620009e1565b600190602084519401938184015501620003f5565b600a60005260008051602062002907833981519152908382015b818301811062000a41575050620003e4565b6000815560010162000a2f565b60019060208451940193818401550162000399565b600960005260008051602062002987833981519152908382015b818301811062000a8f57505062000388565b6000815560010162000a7d565b6001906020845194019381840155016200033d565b600860005260008051602062002967833981519152908382015b818301811062000add5750506200032c565b6000815560010162000acb565b600190602084519401938184015501620002e1565b6002600052600080516020620028c7833981519152908382015b818301811062000b2b575050620002d0565b6000815560010162000b19565b60019060208451940193818401550162000285565b6001600052600080516020620029a7833981519152908382015b818301811062000b7957505062000274565b6000815560010162000b67565b60019060208451940193818401550162000229565b60008052600080516020620029278339815191529081019083015b81811062000bc5575062000219565b6000815560010162000bb6565b600080fd5b6040519190601f01601f191682016001600160401b038111838210176200089057604052565b6001600160401b038111620008905760051b60200190565b9080601f8301121562000bd25781519060209162000c3d62000c378262000bfd565b62000bd7565b9360208086848152019260051b82010192831162000bd257602001905b82821062000c69575050505090565b8151815290830190830162000c5a565b9062000c8962000c378362000bfd565b828152809262000c9c601f199162000bfd565b0190602036910137565b80518210156200080b5760209160051b01019056fe6080604081815260048036101561001557600080fd5b600092833560e01c90816303bc4a8614610dcb5750806304d0194214610da157806316b5192814610d77578063205c9cc714610d58578063300aee1414610d3d578063364132d914610d27578063375a105e14610cfd57806348e257cb14610cde5780634d985ae414610cbf5780634eb274ff14610c955780635f57697c14610c765780636f24077414610c4c5780637398ab1814610bd357806378b6d7d414610ba957806390ccfa0f14610b80578063957b405614610b5657806396d14da614610b2c578063973b9cc114610765578063a86853d51461073b578063ab1bbeca14610711578063b0d547ff146106fd578063b6ce6709146106ad578063d0c6c7af14610690578063e329143f14610640578063e7d4638514610606578063f6451c0a146101be578063f7a95a9e146101955763ff9c446f1461015757600080fd5b3461019157602036600319011261019157359160115483101561018e575061018060209261102e565b91905490519160031b1c8152f35b80fd5b8280fd5b5034610191576020366003190112610191573591805483101561018e5750610180602092610f1a565b503461019157826003193601126101915760105482516302989b4b60e61b8152929060209085906001600160a01b031682868681845afa80156105fc57859683969596916105c7575b508385548211610595575b5050845163b6042cf960e01b815295869182905afa93841561058b578594610567575b50835185540361053257845b855481101561052e5761025381610f1a565b905485514285820190815260208101859052600393841b9290921c60408301528060608301039061028c601f1992838101835282611065565b6064928391519020069060019182860180871161051b57846065918b6102e98b6102dd6102b88d610ee3565b9054908d1b1c9351938492830195428791606093918352602083015260408201520190565b03878101835282611065565b51902006926102f788610ee3565b905490881b1c906103308c5191826103248d8201958d428891606093918352602083015260408201520190565b03908101835282611065565b519020069260311984019384131661050657916103eb6103f092856103db886103d68f8499839b6103db60019f9e938f6103cd816103b561039f826103996103e29b61037e6103d698610fd2565b905490821b1c9061038e84610f1a565b9054911b1c90611389565b9661124c565b516103a983610f1a565b9054908d1b1c90611389565b996103c260055492610ee3565b9054911b1c90611355565b94600654611355565b611355565b05906113af565b94600754611355565b6113af565b056104146103fd84610ee3565b819391549060031b91821b91600019901b19161790565b905561043d61042283610f1a565b905490831b1c61043184610ee3565b905490841b1c906113af565b6104496103fd84610f1a565b905561047a61045783610fd2565b905490831b1c61047461046985610e75565b905490851b1c6112fd565b90611389565b6104a961048684610fd2565b905490841b1c6104a361049886610f64565b905490861b1c6112fd565b906113af565b918183926104b686610f1a565b905490841b1c126104f2575b506104cc84610f1a565b9054911b1c136104de575b5001610241565b6104ea6103fd83610f1a565b9055386104d7565b6104fe6103fd86610f1a565b9055386104c2565b601188634e487b7160e01b6000525260246000fd5b634e487b7160e01b8c526011895260248cfd5b8580f35b606492519162461bcd60e51b8352820152601260248201527144696d656e7369756e6920696e6567616c6560701b6044820152fd5b6105849194503d8087833e61057c8183611065565b810190611260565b9238610235565b83513d87823e3d90fd5b817fc06999d659d5132dd93a1915097da1a6a24201916389e38da2404e4bca5e59be9287558751908152a13883610212565b809550848092503d83116105f5575b6105e08183611065565b810103126105f15785935138610207565b5080fd5b503d6105d6565b84513d84823e3d90fd5b5050346105f157816003193601126105f157805161063c916106328261062b81611176565b0383611065565b519182918261113a565b0390f35b50346101915760203660031901126101915735600d548110156101915760209250600d6000527fd7b6990105719101dabeb77144f2a3385c8033acd3af97e9423a695e81ad1eb501549051908152f35b503461019157826003193601126101915760209250549051908152f35b50346101915760203660031901126101915735600b548110156101915760209250600b6000527f0175b7a638427703f0dbe7bb9bbf987a2551717b34e79f33b5b1008d1fa01db901549051908152f35b833461018e578060031936011261018e5780f35b503461019157602036600319011261019157359160095483101561018e5750610180602092610ff7565b503461019157602036600319011261019157359160025483101561018e5750610180602092610fd2565b50903461019157600319918383360112610b285761079782516107928161078b816111c1565b0382611065565b61179c565b6003805482126108c7575b600e546107ae8161121a565b91875b82811061088a5750506010546001600160a01b0316929050823b15610886578451632fc0395f60e01b81526060858201529587938793909290916107f7606486016111c1565b9160248601528482030160448501528151808252602080809301930191865b82811061086c57505050508383809203925af1801561086257610837578380f35b67ffffffffffffffff831161084f5750523880808380f35b634e487b7160e01b845260419052602483fd5b82513d86823e3d90fd5b835185528b97508a96509381019392810192600101610816565b8680fd5b806108b4610899600193610f64565b905490851b1c6108a883610e75565b905490861b1c906113a2565b821c6108c0828761124c565b52016107b1565b919492909384835583549267ffffffffffffffff8411610b15576801000000000000000093848111610b025760025481600255808210610ad4575b507f290decd9548b62a8d60345a988386fc84ba6bc95484008f6362f93160ef3e5636002875280549087915b838310610ab057505050506011916011548660115580610a6e575b506012936012548760125580610a2c575b50865b600a548110156109f25761097081610f9b565b9054865491861b1c888210156109df576109936103fd6001938481018a5561102e565b905561099e82610eac565b9054885491871b1c91898210156109cc576103fd826109c4926001969594018b55610df1565b90550161095d565b634e487b7160e01b8b5260418d5260248bfd5b634e487b7160e01b8a5260418c5260248afd5b5095979450959250905083518281527f409d103f7876158f293a85ee39f235ce0c309ab1aca81024a51dfb4b471e556e60203092a26107a2565b601288527fbb8a6a4669ba250d26cd7a459eca9d215f8307e33aebe50379bc5a3617ec3444908101905b818110610a63575061095a565b888155600101610a56565b601187527f31ecc21a745e3968a04e9570e4425bc18fa8019c68028196b546d1669c200c68908101905b818110610aa55750610949565b878155600101610a98565b6001809192019283549281600080516020611bb6833981519152015501919061092e565b81600080516020611bb683398151915291820191015b818110610af75750610902565b878155600101610aea565b634e487b7160e01b865260418852602486fd5b634e487b7160e01b855260418752602485fd5b8380fd5b5034610191576020366003190112610191573591600a5483101561018e5750610180602092610f9b565b50913461018e578160031936011261018e5750610b796020926024359035611b51565b9051908152f35b5050346105f157816003193601126105f15760105490516001600160a01b039091168152602090f35b5034610191576020366003190112610191573591600e5483101561018e5750610180602092610f64565b82843461018e578060031936011261018e578054610bf08161109d565b91610bfd84519384611065565b818352601f19610c0c8361109d565b013660208501375b818110610c285783518061063c858261113a565b80610c34600192610f1a565b90549060031b1c610c45828661124c565b5201610c14565b503461019157602036600319011261019157359160015483101561018e5750610180602092610ee3565b5050346105f157816003193601126105f1576020906006549051908152f35b5034610191576020366003190112610191573591600c5483101561018e5750610180602092610eac565b5050346105f157816003193601126105f1576020906003549051908152f35b5050346105f157816003193601126105f1576020906007549051908152f35b5034610191576020366003190112610191573591600f5483101561018e5750610180602092610e75565b5050346105f157602090610b79610792366110b5565b5050346105f157602090610b79610d53366110b5565b6113cb565b5050346105f157816003193601126105f1576020906005549051908152f35b503461019157602036600319011261019157359160085483101561018e5750610180602092610e3e565b503461019157602036600319011261019157359160125483101561018e5750610180602092610df1565b83853461018e578060031936011261018e5750610b7982610d538161078b602096611176565b601254811015610e285760126000527fbb8a6a4669ba250d26cd7a459eca9d215f8307e33aebe50379bc5a3617ec34440190600090565b634e487b7160e01b600052603260045260246000fd5b600854811015610e285760086000527ff3f7a9fe364faab93b216da50a3214154f22a0a2b415b23a84c8169e8b636ee30190600090565b600f54811015610e2857600f6000527f8d1108e10bcb7c27dddfc02ed9d693a074039d026cf4ea4240b40f7d581ac8020190600090565b600c54811015610e2857600c6000527fdf6966c971051c3d54ec59162606531493a51404a002842f56009d7e5cf4a8c70190600090565b600154811015610e285760016000527fb10e2d527612073b26eecdfd717e6a320cf44b4afac2b0732d9fcbe2b7fa0cf60190600090565b906000918254811015610f50578280527f290decd9548b62a8d60345a988386fc84ba6bc95484008f6362f93160ef3e563019190565b634e487b7160e01b83526032600452602483fd5b600e54811015610e2857600e6000527fbb7b4a454dc3493923482f07822329ed19e8244eff582cc204f8554c3620c3fd0190600090565b600a54811015610e2857600a6000527fc65a7bb8d6351c1cf70c95a316cc6a92839c986682d98bc35f958f4883f9d2a80190600090565b600254811015610e28576002600052600080516020611bb68339815191520190600090565b600954811015610e285760096000527f6e1540171b6c0c960b71a7020d9f60077f6af931a8bbf590da0223dacf75c7af0190600090565b601154811015610e285760116000527f31ecc21a745e3968a04e9570e4425bc18fa8019c68028196b546d1669c200c680190600090565b90601f8019910116810190811067ffffffffffffffff82111761108757604052565b634e487b7160e01b600052604160045260246000fd5b67ffffffffffffffff81116110875760051b60200190565b602080600319830112611135576004359167ffffffffffffffff831161113557806023840112156111355782600401356110ee8161109d565b936110fc6040519586611065565b8185526024602086019260051b82010192831161113557602401905b828210611126575050505090565b81358152908301908301611118565b600080fd5b602090602060408183019282815285518094520193019160005b828110611162575050505090565b835185529381019392810192600101611154565b600254908181526020809101916002600052600080516020611bb6833981519152916000905b8282106111aa575050505090565b83548552938401936001938401939091019061119c565b600080548083528180526020928301927f290decd9548b62a8d60345a988386fc84ba6bc95484008f6362f93160ef3e56392905b828210611203575050505090565b8354855293840193600193840193909101906111f5565b906112248261109d565b6112316040519182611065565b8281528092611242601f199161109d565b0190602036910137565b8051821015610e285760209160051b010190565b60209081818403126111355780519067ffffffffffffffff821161113557019180601f840112156111355782516112968161109d565b936112a46040519586611065565b818552838086019260051b820101928311611135578301905b8282106112cb575050505090565b815181529083019083016112bd565b919082039182116112e757565b634e487b7160e01b600052601160045260246000fd5b908160011b91808305600214901517156112e757565b906005820291808305600514901517156112e757565b906003820291808305600314901517156112e757565b908160021b91808305600414901517156112e757565b818102929160008212600160ff1b8214166112e75781840514901517156112e757565b600160ff1b81146112e75760000390565b818103929160001380158285131691841216176112e757565b919082018092116112e757565b919091600083820193841291129080158216911516176112e757565b6000908051601154906113dd8261121a565b91845b818110611778575050601254916113f68361121a565b92855b81811061175457505060105460405163b6042cf960e01b815291908690839060049082906001600160a01b03165afa91821561174957869261172d575b509392919085945b82861061144e5750505050505090565b9091929394956115936001916104a36114678a8a61124c565b51808b60008083121561166057506114856114999261148a92611b51565b611378565b61149383611378565b90611355565b905b61157a8c6104a36115746114ae83610ff7565b90546003949160009190861b1c87131561165357506104a361156e6114e16114d584610ff7565b905490881b1c89611389565b955b61154b6114ef85610fd2565b905490831b1c61152661151f61150488610f64565b905490861b1c61151389610e75565b905490871b1c906113a2565b918c611389565b6000811261164457905b6000918181131561163c576115459250611389565b9461102e565b9054911b1c88600091818113600014611634576115689250611389565b95611313565b91611329565b916112fd565b6000918d8b8b511461159f575b50506103eb91926113af565b9601949392919061143e565b6115ac6115b4918c61124c565b518092611389565b908382126116255781905b801561161d57600a9005915b8282136115db575b50508d611587565b6103eb941215611602576115f7916115f291611389565b61133f565b925b929138806115d3565b6116126116179261148592611389565b6112fd565b926115f9565b5083916115cb565b61162e82611378565b906115bf565b505095611313565b50509461102e565b61164d90611378565b90611530565b61156e6104a391956114e3565b906116d99284611670838c61124c565b51106117075761168d61169491611687848d61124c565b516112da565b918a61124c565b528c815b8c816116a4848361124c565b51106116df576116c291611687846116bb9361124c565b918d61124c565b525b6116cd8d610e3e565b90549060031b1c611355565b9061149b565b611701916116f3846116fa9396959661124c565b51906112da565b928d61124c565b526116c4565b5061171c611715828b61124c565b51856112da565b82611727838c61124c565b52611698565b6117429192503d8088833e61057c8183611065565b9038611436565b6040513d88823e3d90fd5b80611760600192610df1565b90549060031b1c611771828861124c565b52016113f9565b8061178460019261102e565b90549060031b1c611795828761124c565b52016113e0565b60009080516040519081600a8054808552602080950190600a88527fc65a7bb8d6351c1cf70c95a316cc6a92839c986682d98bc35f958f4883f9d2a890885b87828210611b3d5750505050826117f3910383611065565b604051918280956020600c54958681520194600c8a527fdf6966c971051c3d54ec59162606531493a51404a002842f56009d7e5cf4a8c7918a905b828210611b235750505050611847906004940386611065565b60105460405163b6042cf960e01b815293889185919082906001600160a01b03165afa928315611b18578793611afc575b50949392919086955b838710611892575050505050505090565b9091929394959661199c6001916104a36118ac8b8b61124c565b518b600080831215611a5057506118d26118c96114858484611b51565b61149384611378565b915b6119846118e083610ff7565b905460039160009190831b1c841315611a4357506104a361157461191261190687610ff7565b905490851b1c86611389565b925b6104a361156e61192389610fd2565b905490841b1c61195a6119536119388c610f64565b905490871b1c6119478d610e75565b905490881b1c906113a2565b918a611389565b60008112611a3457905b60009181811315611a2c576119799250611389565b925b61154b8a610f9b565b906000928c8c51146119a95750506103eb91926113af565b9701959493929190611881565b6115ac6119b6918d61124c565b90838212611a1c578a82915b8015611a135705915b8282136119db575b50508e611587565b6103eb9412156119fd576119f2916115f291611389565b925b929138806119d3565b611612611a0d9261148592611389565b926119f4565b505083916119cb565b8a611a2683611378565b916119c2565b50509261197b565b611a3d90611378565b90611964565b6115746104a39192611914565b611ab8908384611a60858c61124c565b5110611adc57611a7490611687858c61124c565b611a7e848b61124c565b52805b8d8483611a8e828461124c565b5110611abe57611aa782939461168783611aad9561124c565b9261124c565b525b6116cd83610e3e565b916118d4565b611ad082946116f383611ad69561124c565b9361124c565b52611aaf565b50611aea611715848b61124c565b9080611af6858c61124c565b52611a81565b611b119193503d8089833e61057c8183611065565b9138611878565b6040513d89823e3d90fd5b83548852968701968994506001938401939091019061182e565b8354855290930192600192830192016117db565b611b5a90610e3e565b90549060031b1c9060008112600014611bb157611b7690611378565b60011c601401806014116112e75760288111611ba9575b60640390606482116112e757606491611ba591611355565b0590565b506028611b8d565b509056fe405787fa12a823e0f2b7631cc41b3ba8828b3321ca811111fa75cd3aa3bb5acea2646970667358221220455fa26505fa71e13c2a011e7f4167ded60c3bcbb18cda269e8664fa897927a164736f6c63430008170033405787fa12a823e0f2b7631cc41b3ba8828b3321ca811111fa75cd3aa3bb5acebb7b4a454dc3493923482f07822329ed19e8244eff582cc204f8554c3620c3fdc65a7bb8d6351c1cf70c95a316cc6a92839c986682d98bc35f958f4883f9d2a8290decd9548b62a8d60345a988386fc84ba6bc95484008f6362f93160ef3e563d7b6990105719101dabeb77144f2a3385c8033acd3af97e9423a695e81ad1eb5f3f7a9fe364faab93b216da50a3214154f22a0a2b415b23a84c8169e8b636ee36e1540171b6c0c960b71a7020d9f60077f6af931a8bbf590da0223dacf75c7afb10e2d527612073b26eecdfd717e6a320cf44b4afac2b0732d9fcbe2b7fa0cf6",
  "linkReferences": {},
  "deployedLinkReferences": {}
}