{
  "_format": "hh-sol-artifact-1",
  "contractName": "Node",
  "sourceName": "contracts/Node.sol",
  "abi": [
    {
      "inputs": [
        {
          "internalType": "address",
          "name": "globalContractAddress",
          "type": "address"
        },
        {
          "internalType": "int256[]",
          "name": "initialPosition",
          "type": "int256[]"
        },
        {
          "internalType": "int256[]",
          "name": "initialVelocity",
          "type": "int256[]"
        },
        {
          "internalType": "int256[]",
          "name": "initialTariff",
          "type": "int256[]"
        },
        {
          "internalType": "uint256[]",
          "name": "initialCapacity",
          "type": "uint256[]"
        },
        {
          "internalType": "uint256[]",
          "name": "initialRenewableGeneration",
          "type": "uint256[]"
        },
        {
          "internalType": "uint256[]",
          "name": "initialBatteryCapacity",
          "type": "uint256[]"
        },
        {
          "internalType": "uint256[]",
          "name": "initialBatteryCharge",
          "type": "uint256[]"
        },
        {
          "internalType": "uint256[]",
          "name": "initialFlexibleLoad",
          "type": "uint256[]"
        },
        {
          "internalType": "uint256[]",
          "name": "_flexibilityAbove",
          "type": "uint256[]"
        },
        {
          "internalType": "uint256[]",
          "name": "_flexibilityBelow",
          "type": "uint256[]"
        }
      ],
      "stateMutability": "nonpayable",
      "type": "constructor"
    },
    {
      "anonymous": false,
      "inputs": [
        {
          "indexed": true,
          "internalType": "address",
          "name": "node",
          "type": "address"
        },
        {
          "indexed": false,
          "internalType": "int256",
          "name": "newScore",
          "type": "int256"
        }
      ],
      "name": "BestPositionUpdated",
      "type": "event"
    },
    {
      "anonymous": false,
      "inputs": [
        {
          "indexed": false,
          "internalType": "uint256",
          "name": "timestamp",
          "type": "uint256"
        }
      ],
      "name": "NewPlanReceived",
      "type": "event"
    },
    {
      "inputs": [
        {
          "internalType": "uint256",
          "name": "",
          "type": "uint256"
        }
      ],
      "name": "batteryCapacity",
      "outputs": [
        {
          "internalType": "uint256",
          "name": "",
          "type": "uint256"
        }
      ],
      "stateMutability": "view",
      "type": "function"
    },
    {
      "inputs": [
        {
          "internalType": "uint256",
          "name": "",
          "type": "uint256"
        }
      ],
      "name": "batteryCharge",
      "outputs": [
        {
          "internalType": "uint256",
          "name": "",
          "type": "uint256"
        }
      ],
      "stateMutability": "view",
      "type": "function"
    },
    {
      "inputs": [],
      "name": "c1",
      "outputs": [
        {
          "internalType": "int256",
          "name": "",
          "type": "int256"
        }
      ],
      "stateMutability": "view",
      "type": "function"
    },
    {
      "inputs": [],
      "name": "c2",
      "outputs": [
        {
          "internalType": "int256",
          "name": "",
          "type": "int256"
        }
      ],
      "stateMutability": "view",
      "type": "function"
    },
    {
      "inputs": [
        {
          "internalType": "uint256",
          "name": "",
          "type": "uint256"
        }
      ],
      "name": "capacity",
      "outputs": [
        {
          "internalType": "uint256",
          "name": "",
          "type": "uint256"
        }
      ],
      "stateMutability": "view",
      "type": "function"
    },
    {
      "inputs": [
        {
          "internalType": "uint256",
          "name": "",
          "type": "uint256"
        }
      ],
      "name": "flexibilityAbove",
      "outputs": [
        {
          "internalType": "uint256",
          "name": "",
          "type": "uint256"
        }
      ],
      "stateMutability": "view",
      "type": "function"
    },
    {
      "inputs": [
        {
          "internalType": "uint256",
          "name": "",
          "type": "uint256"
        }
      ],
      "name": "flexibilityBelow",
      "outputs": [
        {
          "internalType": "uint256",
          "name": "",
          "type": "uint256"
        }
      ],
      "stateMutability": "view",
      "type": "function"
    },
    {
      "inputs": [
        {
          "internalType": "uint256",
          "name": "",
          "type": "uint256"
        }
      ],
      "name": "flexibleLoad",
      "outputs": [
        {
          "internalType": "uint256",
          "name": "",
          "type": "uint256"
        }
      ],
      "stateMutability": "view",
      "type": "function"
    },
    {
      "inputs": [
        {
          "internalType": "uint256",
          "name": "",
          "type": "uint256"
        }
      ],
      "name": "frozenBatteryCharge",
      "outputs": [
        {
          "internalType": "uint256",
          "name": "",
          "type": "uint256"
        }
      ],
      "stateMutability": "view",
      "type": "function"
    },
    {
      "inputs": [
        {
          "internalType": "uint256",
          "name": "",
          "type": "uint256"
        }
      ],
      "name": "frozenRenewableGeneration",
      "outputs": [
        {
          "internalType": "uint256",
          "name": "",
          "type": "uint256"
        }
      ],
      "stateMutability": "view",
      "type": "function"
    },
    {
      "inputs": [
        {
          "internalType": "uint256",
          "name": "hour",
          "type": "uint256"
        },
        {
          "internalType": "int256",
          "name": "consumption",
          "type": "int256"
        }
      ],
      "name": "getEffectiveTariff",
      "outputs": [
        {
          "internalType": "int256",
          "name": "",
          "type": "int256"
        }
      ],
      "stateMutability": "view",
      "type": "function"
    },
    {
      "inputs": [],
      "name": "getFrozenCost",
      "outputs": [
        {
          "internalType": "int256",
          "name": "",
          "type": "int256"
        }
      ],
      "stateMutability": "view",
      "type": "function"
    },
    {
      "inputs": [],
      "name": "getPersonalBestPosition",
      "outputs": [
        {
          "internalType": "int256[]",
          "name": "",
          "type": "int256[]"
        }
      ],
      "stateMutability": "view",
      "type": "function"
    },
    {
      "inputs": [],
      "name": "getPosition",
      "outputs": [
        {
          "internalType": "int256[]",
          "name": "",
          "type": "int256[]"
        }
      ],
      "stateMutability": "view",
      "type": "function"
    },
    {
      "inputs": [],
      "name": "globalContract",
      "outputs": [
        {
          "internalType": "contract GlobalContractInterface",
          "name": "",
          "type": "address"
        }
      ],
      "stateMutability": "view",
      "type": "function"
    },
    {
      "inputs": [],
      "name": "lastKnownGlobalTimestamp",
      "outputs": [
        {
          "internalType": "uint256",
          "name": "",
          "type": "uint256"
        }
      ],
      "stateMutability": "view",
      "type": "function"
    },
    {
      "inputs": [
        {
          "internalType": "int256[]",
          "name": "pos",
          "type": "int256[]"
        }
      ],
      "name": "objectiveFunction",
      "outputs": [
        {
          "internalType": "int256",
          "name": "",
          "type": "int256"
        }
      ],
      "stateMutability": "view",
      "type": "function"
    },
    {
      "inputs": [
        {
          "internalType": "int256[]",
          "name": "pos",
          "type": "int256[]"
        }
      ],
      "name": "objectiveFunctionFrozen",
      "outputs": [
        {
          "internalType": "int256",
          "name": "",
          "type": "int256"
        }
      ],
      "stateMutability": "view",
      "type": "function"
    },
    {
      "inputs": [
        {
          "internalType": "uint256",
          "name": "",
          "type": "uint256"
        }
      ],
      "name": "personalBestPosition",
      "outputs": [
        {
          "internalType": "int256",
          "name": "",
          "type": "int256"
        }
      ],
      "stateMutability": "view",
      "type": "function"
    },
    {
      "inputs": [],
      "name": "personalBestScore",
      "outputs": [
        {
          "internalType": "int256",
          "name": "",
          "type": "int256"
        }
      ],
      "stateMutability": "view",
      "type": "function"
    },
    {
      "inputs": [
        {
          "internalType": "uint256",
          "name": "",
          "type": "uint256"
        }
      ],
      "name": "position",
      "outputs": [
        {
          "internalType": "int256",
          "name": "",
          "type": "int256"
        }
      ],
      "stateMutability": "view",
      "type": "function"
    },
    {
      "inputs": [
        {
          "internalType": "uint256",
          "name": "",
          "type": "uint256"
        }
      ],
      "name": "renewableGeneration",
      "outputs": [
        {
          "internalType": "uint256",
          "name": "",
          "type": "uint256"
        }
      ],
      "stateMutability": "view",
      "type": "function"
    },
    {
      "inputs": [
        {
          "internalType": "uint256",
          "name": "",
          "type": "uint256"
        }
      ],
      "name": "tariff",
      "outputs": [
        {
          "internalType": "int256",
          "name": "",
          "type": "int256"
        }
      ],
      "stateMutability": "view",
      "type": "function"
    },
    {
      "inputs": [],
      "name": "updateBestPositions",
      "outputs": [],
      "stateMutability": "nonpayable",
      "type": "function"
    },
    {
      "inputs": [],
      "name": "updateVelocityAndPosition",
      "outputs": [],
      "stateMutability": "nonpayable",
      "type": "function"
    },
    {
      "inputs": [
        {
          "internalType": "uint256",
          "name": "",
          "type": "uint256"
        }
      ],
      "name": "velocity",
      "outputs": [
        {
          "internalType": "int256",
          "name": "",
          "type": "int256"
        }
      ],
      "stateMutability": "view",
      "type": "function"
    },
    {
      "inputs": [],
      "name": "w",
      "outputs": [
        {
          "internalType": "int256",
          "name": "",
          "type": "int256"
        }
      ],
      "stateMutability": "view",
      "type": "function"
    }
  ],
  "bytecode": "0x60806040523462000bd257620029a8803803806200001d8162000bd7565b92833981016101608282031262000bd25781516001600160a01b038116919082900362000bd25760208301516001600160401b03811162000bd257816200006691850162000c15565b60408401519093906001600160401b03811162000bd257826200008b91830162000c15565b60608201516001600160401b03811162000bd25783620000ad91840162000c15565b60808301516001600160401b03811162000bd25784620000cf91850162000c15565b60a08401516001600160401b03811162000bd25785620000f191860162000c15565b60c08501519091906001600160401b03811162000bd257866200011691870162000c15565b60e08601519093906001600160401b03811162000bd257876200013b91880162000c15565b6101008701519095906001600160401b03811162000bd257886200016191890162000c15565b6101208801519097906001600160401b03811162000bd257896200018791830162000c15565b6101408201519099906001600160401b03811162000bd257620001ab920162000c15565b6001600160ff1b03600355603260055560c86006819055600755601080546001600160a01b031916909a179099558951620001e69062000c79565b8051906001600160401b038211620008905768010000000000000000821162000890576000548260005580831062000b9b575b5060200160008052602060002060005b83811062000b86575050505062000241815162000c79565b8051906001600160401b038211620008905768010000000000000000821162000890576001548260015580831062000b4d575b506020016001600052602060002060005b83811062000b3857505050506200029d8a5162000c79565b8051906001600160401b038211620008905768010000000000000000821162000890576002548260025580831062000aff575b506020016002600052602060002060005b83811062000aea5750505050620002f9825162000c79565b8051906001600160401b038211620008905768010000000000000000821162000890576008548260085580831062000ab1575b506020016008600052602060002060005b83811062000a9c575050505062000355835162000c79565b8051906001600160401b038211620008905768010000000000000000821162000890576009548260095580831062000a63575b506020016009600052602060002060005b83811062000a4e5750505050620003b1845162000c79565b8051906001600160401b03821162000890576801000000000000000082116200089057600a5482600a5580831062000a15575b50602001600a600052602060002060005b83811062000a0057505050506200040d855162000c79565b8051906001600160401b03821162000890576801000000000000000082116200089057600b5482600b55808310620009b6575b50602001600b600052602060002060005b838110620009a1575050505062000469865162000c79565b8051906001600160401b03821162000890576801000000000000000082116200089057600c5482600c5580831062000957575b50602001600c600052602060002060005b838110620009425750505050620004c5875162000c79565b8051906001600160401b03821162000890576801000000000000000082116200089057600d5482600d5580831062000909575b50602001600d600052602060002060005b838110620008f4575050505062000521885162000c79565b8051906001600160401b03821162000890576801000000000000000082116200089057600e5482600e55808310620008bb575b50602001600e600052602060002060005b838110620008a657505050506200057d895162000c79565b8051906001600160401b03821162000890576801000000000000000082116200089057600f5482600f5580831062000846575b50602001600f600052602060002060005b83811062000831575050505060005b8a518110156200082157620005e6818c62000ca6565b516000548210156200080b57600080526000805160206200290883398151915282015562000615818c62000ca6565b516002548210156200080b576002600052600080516020620028a883398151915282015562000645818362000ca6565b516001548210156200080b5760016000526000805160206200298883398151915282015562000675818462000ca6565b516008548210156200080b57600860005260008051602062002948833981519152820155620006a5818562000ca6565b516009548210156200080b57600960005260008051602062002968833981519152820155620006d5818662000ca6565b51600a548210156200080b57600a600052600080516020620028e883398151915282015562000705818762000ca6565b51600b548210156200080b57600b6000527f0175b7a638427703f0dbe7bb9bbf987a2551717b34e79f33b5b1008d1fa01db982015562000746818862000ca6565b51600c548210156200080b57600c6000527fdf6966c971051c3d54ec59162606531493a51404a002842f56009d7e5cf4a8c782015562000787818962000ca6565b51600d548210156200080b57600d60005260008051602062002928833981519152820155620007b7818a62000ca6565b51600e548210156200080b57600e600052600080516020620028c8833981519152820155620007e7818b62000ca6565b5190600f548110156200080b57600191600f600052816020600020015501620005d0565b634e487b7160e01b600052603260045260246000fd5b604051611bec908162000cbc8239f35b600190602084519401938184015501620005c1565b600f6000527f8d1108e10bcb7c27dddfc02ed9d693a074039d026cf4ea4240b40f7d581ac802908382015b818301811062000883575050620005b0565b6000815560010162000871565b634e487b7160e01b600052604160045260246000fd5b60019060208451940193818401550162000565565b600e600052600080516020620028c8833981519152908382015b8183018110620008e757505062000554565b60008155600101620008d5565b60019060208451940193818401550162000509565b600d60005260008051602062002928833981519152908382015b818301811062000935575050620004f8565b6000815560010162000923565b600190602084519401938184015501620004ad565b600c6000527fdf6966c971051c3d54ec59162606531493a51404a002842f56009d7e5cf4a8c7908382015b8183018110620009945750506200049c565b6000815560010162000982565b60019060208451940193818401550162000451565b600b6000527f0175b7a638427703f0dbe7bb9bbf987a2551717b34e79f33b5b1008d1fa01db9908382015b8183018110620009f357505062000440565b60008155600101620009e1565b600190602084519401938184015501620003f5565b600a600052600080516020620028e8833981519152908382015b818301811062000a41575050620003e4565b6000815560010162000a2f565b60019060208451940193818401550162000399565b600960005260008051602062002968833981519152908382015b818301811062000a8f57505062000388565b6000815560010162000a7d565b6001906020845194019381840155016200033d565b600860005260008051602062002948833981519152908382015b818301811062000add5750506200032c565b6000815560010162000acb565b600190602084519401938184015501620002e1565b6002600052600080516020620028a8833981519152908382015b818301811062000b2b575050620002d0565b6000815560010162000b19565b60019060208451940193818401550162000285565b600160005260008051602062002988833981519152908382015b818301811062000b7957505062000274565b6000815560010162000b67565b60019060208451940193818401550162000229565b60008052600080516020620029088339815191529081019083015b81811062000bc5575062000219565b6000815560010162000bb6565b600080fd5b6040519190601f01601f191682016001600160401b038111838210176200089057604052565b6001600160401b038111620008905760051b60200190565b9080601f8301121562000bd25781519060209162000c3d62000c378262000bfd565b62000bd7565b9360208086848152019260051b82010192831162000bd257602001905b82821062000c69575050505090565b8151815290830190830162000c5a565b9062000c8962000c378362000bfd565b828152809262000c9c601f199162000bfd565b0190602036910137565b80518210156200080b5760209160051b01019056fe6080604081815260048036101561001557600080fd5b600092833560e01c90816303bc4a8614610dac5750806304d0194214610d8257806316b5192814610d58578063205c9cc714610d39578063300aee1414610d1e578063364132d914610d08578063375a105e14610cde57806348e257cb14610cbf5780634d985ae414610ca05780634eb274ff14610c765780635f57697c14610c575780636f24077414610c2d5780637398ab1814610bb457806378b6d7d414610b8a57806390ccfa0f14610b61578063957b405614610b3757806396d14da614610b0d578063973b9cc114610746578063a86853d51461071c578063ab1bbeca146106f2578063b6ce6709146106a2578063d0c6c7af14610685578063e329143f14610635578063e7d46385146105fb578063f6451c0a146101b3578063f7a95a9e1461018a5763ff9c446f1461014c57600080fd5b34610186576020366003190112610186573591601154831015610183575061017560209261100f565b91905490519160031b1c8152f35b80fd5b8280fd5b503461018657602036600319011261018657359180548310156101835750610175602092610efb565b503461018657826003193601126101865760105482516302989b4b60e61b8152929060209085906001600160a01b031682868681845afa80156105f157859683969596916105bc575b50838554821161058a575b5050845163b6042cf960e01b815295869182905afa93841561058057859461055c575b50835185540361052757845b85548110156105235761024881610efb565b905485514285820190815260208101859052600393841b9290921c604083015280606083010390610281601f1992838101835282611046565b6064928391519020069060019182860180871161051057846065918b6102de8b6102d26102ad8d610ec4565b9054908d1b1c9351938492830195428791606093918352602083015260408201520190565b03878101835282611046565b51902006926102ec88610ec4565b905490881b1c906103258c5191826103198d8201958d428891606093918352602083015260408201520190565b03908101835282611046565b51902006926031198401938413166104fb57916103e06103e592856103d0886103cb8f8499839b6103d060019f9e938f6103c2816103aa6103948261038e6103d79b6103736103cb98610fb3565b905490821b1c9061038384610efb565b9054911b1c9061136a565b9661122d565b5161039e83610efb565b9054908d1b1c9061136a565b996103b760055492610ec4565b9054911b1c90611336565b94600654611336565b611336565b0590611390565b94600754611336565b611390565b056104096103f284610ec4565b819391549060031b91821b91600019901b19161790565b905561043261041783610efb565b905490831b1c61042684610ec4565b905490841b1c90611390565b61043e6103f284610efb565b905561046f61044c83610fb3565b905490831b1c61046961045e85610e56565b905490851b1c6112de565b9061136a565b61049e61047b84610fb3565b905490841b1c61049861048d86610f45565b905490861b1c6112de565b90611390565b918183926104ab86610efb565b905490841b1c126104e7575b506104c184610efb565b9054911b1c136104d3575b5001610236565b6104df6103f283610efb565b9055386104cc565b6104f36103f286610efb565b9055386104b7565b601188634e487b7160e01b6000525260246000fd5b634e487b7160e01b8c526011895260248cfd5b8580f35b606492519162461bcd60e51b8352820152601260248201527144696d656e7369756e6920696e6567616c6560701b6044820152fd5b6105799194503d8087833e6105718183611046565b810190611241565b923861022a565b83513d87823e3d90fd5b817fc06999d659d5132dd93a1915097da1a6a24201916389e38da2404e4bca5e59be9287558751908152a13883610207565b809550848092503d83116105ea575b6105d58183611046565b810103126105e657859351386101fc565b5080fd5b503d6105cb565b84513d84823e3d90fd5b5050346105e657816003193601126105e6578051610631916106278261062081611157565b0383611046565b519182918261111b565b0390f35b50346101865760203660031901126101865735600d548110156101865760209250600d6000527fd7b6990105719101dabeb77144f2a3385c8033acd3af97e9423a695e81ad1eb501549051908152f35b503461018657826003193601126101865760209250549051908152f35b50346101865760203660031901126101865735600b548110156101865760209250600b6000527f0175b7a638427703f0dbe7bb9bbf987a2551717b34e79f33b5b1008d1fa01db901549051908152f35b50346101865760203660031901126101865735916009548310156101835750610175602092610fd8565b50346101865760203660031901126101865735916002548310156101835750610175602092610fb3565b50903461018657600319918383360112610b095761077882516107738161076c816111a2565b0382611046565b61177d565b6003805482126108a8575b600e5461078f816111fb565b91875b82811061086b5750506010546001600160a01b0316929050823b15610867578451632fc0395f60e01b81526060858201529587938793909290916107d8606486016111a2565b9160248601528482030160448501528151808252602080809301930191865b82811061084d57505050508383809203925af1801561084357610818578380f35b67ffffffffffffffff83116108305750523880808380f35b634e487b7160e01b845260419052602483fd5b82513d86823e3d90fd5b835185528b97508a965093810193928101926001016107f7565b8680fd5b8061089561087a600193610f45565b905490851b1c61088983610e56565b905490861b1c90611383565b821c6108a1828761122d565b5201610792565b919492909384835583549267ffffffffffffffff8411610af6576801000000000000000093848111610ae35760025481600255808210610ab5575b507f290decd9548b62a8d60345a988386fc84ba6bc95484008f6362f93160ef3e5636002875280549087915b838310610a9157505050506011916011548660115580610a4f575b506012936012548760125580610a0d575b50865b600a548110156109d35761095181610f7c565b9054865491861b1c888210156109c0576109746103f26001938481018a5561100f565b905561097f82610e8d565b9054885491871b1c91898210156109ad576103f2826109a5926001969594018b55610dd2565b90550161093e565b634e487b7160e01b8b5260418d5260248bfd5b634e487b7160e01b8a5260418c5260248afd5b5095979450959250905083518281527f409d103f7876158f293a85ee39f235ce0c309ab1aca81024a51dfb4b471e556e60203092a2610783565b601288527fbb8a6a4669ba250d26cd7a459eca9d215f8307e33aebe50379bc5a3617ec3444908101905b818110610a44575061093b565b888155600101610a37565b601187527f31ecc21a745e3968a04e9570e4425bc18fa8019c68028196b546d1669c200c68908101905b818110610a86575061092a565b878155600101610a79565b6001809192019283549281600080516020611b97833981519152015501919061090f565b81600080516020611b9783398151915291820191015b818110610ad857506108e3565b878155600101610acb565b634e487b7160e01b865260418852602486fd5b634e487b7160e01b855260418752602485fd5b8380fd5b5034610186576020366003190112610186573591600a548310156101835750610175602092610f7c565b50913461018357816003193601126101835750610b5a6020926024359035611b32565b9051908152f35b5050346105e657816003193601126105e65760105490516001600160a01b039091168152602090f35b5034610186576020366003190112610186573591600e548310156101835750610175602092610f45565b8284346101835780600319360112610183578054610bd18161107e565b91610bde84519384611046565b818352601f19610bed8361107e565b013660208501375b818110610c0957835180610631858261111b565b80610c15600192610efb565b90549060031b1c610c26828661122d565b5201610bf5565b50346101865760203660031901126101865735916001548310156101835750610175602092610ec4565b5050346105e657816003193601126105e6576020906006549051908152f35b5034610186576020366003190112610186573591600c548310156101835750610175602092610e8d565b5050346105e657816003193601126105e6576020906003549051908152f35b5050346105e657816003193601126105e6576020906007549051908152f35b5034610186576020366003190112610186573591600f548310156101835750610175602092610e56565b5050346105e657602090610b5a61077336611096565b5050346105e657602090610b5a610d3436611096565b6113ac565b5050346105e657816003193601126105e6576020906005549051908152f35b50346101865760203660031901126101865735916008548310156101835750610175602092610e1f565b50346101865760203660031901126101865735916012548310156101835750610175602092610dd2565b83853461018357806003193601126101835750610b5a82610d348161076c602096611157565b601254811015610e095760126000527fbb8a6a4669ba250d26cd7a459eca9d215f8307e33aebe50379bc5a3617ec34440190600090565b634e487b7160e01b600052603260045260246000fd5b600854811015610e095760086000527ff3f7a9fe364faab93b216da50a3214154f22a0a2b415b23a84c8169e8b636ee30190600090565b600f54811015610e0957600f6000527f8d1108e10bcb7c27dddfc02ed9d693a074039d026cf4ea4240b40f7d581ac8020190600090565b600c54811015610e0957600c6000527fdf6966c971051c3d54ec59162606531493a51404a002842f56009d7e5cf4a8c70190600090565b600154811015610e095760016000527fb10e2d527612073b26eecdfd717e6a320cf44b4afac2b0732d9fcbe2b7fa0cf60190600090565b906000918254811015610f31578280527f290decd9548b62a8d60345a988386fc84ba6bc95484008f6362f93160ef3e563019190565b634e487b7160e01b83526032600452602483fd5b600e54811015610e0957600e6000527fbb7b4a454dc3493923482f07822329ed19e8244eff582cc204f8554c3620c3fd0190600090565b600a54811015610e0957600a6000527fc65a7bb8d6351c1cf70c95a316cc6a92839c986682d98bc35f958f4883f9d2a80190600090565b600254811015610e09576002600052600080516020611b978339815191520190600090565b600954811015610e095760096000527f6e1540171b6c0c960b71a7020d9f60077f6af931a8bbf590da0223dacf75c7af0190600090565b601154811015610e095760116000527f31ecc21a745e3968a04e9570e4425bc18fa8019c68028196b546d1669c200c680190600090565b90601f8019910116810190811067ffffffffffffffff82111761106857604052565b634e487b7160e01b600052604160045260246000fd5b67ffffffffffffffff81116110685760051b60200190565b602080600319830112611116576004359167ffffffffffffffff831161111657806023840112156111165782600401356110cf8161107e565b936110dd6040519586611046565b8185526024602086019260051b82010192831161111657602401905b828210611107575050505090565b813581529083019083016110f9565b600080fd5b602090602060408183019282815285518094520193019160005b828110611143575050505090565b835185529381019392810192600101611135565b600254908181526020809101916002600052600080516020611b97833981519152916000905b82821061118b575050505090565b83548552938401936001938401939091019061117d565b600080548083528180526020928301927f290decd9548b62a8d60345a988386fc84ba6bc95484008f6362f93160ef3e56392905b8282106111e4575050505090565b8354855293840193600193840193909101906111d6565b906112058261107e565b6112126040519182611046565b8281528092611223601f199161107e565b0190602036910137565b8051821015610e095760209160051b010190565b60209081818403126111165780519067ffffffffffffffff821161111657019180601f840112156111165782516112778161107e565b936112856040519586611046565b818552838086019260051b820101928311611116578301905b8282106112ac575050505090565b8151815290830190830161129e565b919082039182116112c857565b634e487b7160e01b600052601160045260246000fd5b908160011b91808305600214901517156112c857565b906005820291808305600514901517156112c857565b906003820291808305600314901517156112c857565b908160021b91808305600414901517156112c857565b818102929160008212600160ff1b8214166112c85781840514901517156112c857565b600160ff1b81146112c85760000390565b818103929160001380158285131691841216176112c857565b919082018092116112c857565b919091600083820193841291129080158216911516176112c857565b6000908051601154906113be826111fb565b91845b818110611759575050601254916113d7836111fb565b92855b81811061173557505060105460405163b6042cf960e01b815291908690839060049082906001600160a01b03165afa91821561172a57869261170e575b509392919085945b82861061142f5750505050505090565b9091929394956115746001916104986114488a8a61122d565b51808b600080831215611641575061146661147a9261146b92611b32565b611359565b61147483611359565b90611336565b905b61155b8c61049861155561148f83610fd8565b90546003949160009190861b1c871315611634575061049861154f6114c26114b684610fd8565b905490881b1c8961136a565b955b61152c6114d085610fb3565b905490831b1c6115076115006114e588610f45565b905490861b1c6114f489610e56565b905490871b1c90611383565b918c61136a565b6000811261162557905b6000918181131561161d57611526925061136a565b9461100f565b9054911b1c8860009181811360001461161557611549925061136a565b956112f4565b9161130a565b916112de565b6000918d8b8b5114611580575b50506103e09192611390565b9601949392919061141f565b61158d611595918c61122d565b51809261136a565b908382126116065781905b80156115fe57600a9005915b8282136115bc575b50508d611568565b6103e09412156115e3576115d8916115d39161136a565b611320565b925b929138806115b4565b6115f36115f8926114669261136a565b6112de565b926115da565b5083916115ac565b61160f82611359565b906115a0565b5050956112f4565b50509461100f565b61162e90611359565b90611511565b61154f61049891956114c4565b906116ba9284611651838c61122d565b51106116e85761166e61167591611668848d61122d565b516112bb565b918a61122d565b528c815b8c81611685848361122d565b51106116c0576116a3916116688461169c9361122d565b918d61122d565b525b6116ae8d610e1f565b90549060031b1c611336565b9061147c565b6116e2916116d4846116db9396959661122d565b51906112bb565b928d61122d565b526116a5565b506116fd6116f6828b61122d565b51856112bb565b82611708838c61122d565b52611679565b6117239192503d8088833e6105718183611046565b9038611417565b6040513d88823e3d90fd5b80611741600192610dd2565b90549060031b1c611752828861122d565b52016113da565b8061176560019261100f565b90549060031b1c611776828761122d565b52016113c1565b60009080516040519081600a8054808552602080950190600a88527fc65a7bb8d6351c1cf70c95a316cc6a92839c986682d98bc35f958f4883f9d2a890885b87828210611b1e5750505050826117d4910383611046565b604051918280956020600c54958681520194600c8a527fdf6966c971051c3d54ec59162606531493a51404a002842f56009d7e5cf4a8c7918a905b828210611b045750505050611828906004940386611046565b60105460405163b6042cf960e01b815293889185919082906001600160a01b03165afa928315611af9578793611add575b50949392919086955b838710611873575050505050505090565b9091929394959661197d60019161049861188d8b8b61122d565b518b600080831215611a3157506118b36118aa6114668484611b32565b61147484611359565b915b6119656118c183610fd8565b905460039160009190831b1c841315611a2457506104986115556118f36118e787610fd8565b905490851b1c8661136a565b925b61049861154f61190489610fb3565b905490841b1c61193b6119346119198c610f45565b905490871b1c6119288d610e56565b905490881b1c90611383565b918a61136a565b60008112611a1557905b60009181811315611a0d5761195a925061136a565b925b61152c8a610f7c565b906000928c8c511461198a5750506103e09192611390565b9701959493929190611862565b61158d611997918d61122d565b908382126119fd578a82915b80156119f45705915b8282136119bc575b50508e611568565b6103e09412156119de576119d3916115d39161136a565b925b929138806119b4565b6115f36119ee926114669261136a565b926119d5565b505083916119ac565b8a611a0783611359565b916119a3565b50509261195c565b611a1e90611359565b90611945565b61155561049891926118f5565b611a99908384611a41858c61122d565b5110611abd57611a5590611668858c61122d565b611a5f848b61122d565b52805b8d8483611a6f828461122d565b5110611a9f57611a8882939461166883611a8e9561122d565b9261122d565b525b6116ae83610e1f565b916118b5565b611ab182946116d483611ab79561122d565b9361122d565b52611a90565b50611acb6116f6848b61122d565b9080611ad7858c61122d565b52611a62565b611af29193503d8089833e6105718183611046565b9138611859565b6040513d89823e3d90fd5b83548852968701968994506001938401939091019061180f565b8354855290930192600192830192016117bc565b611b3b90610e1f565b90549060031b1c9060008112600014611b9257611b5790611359565b60011c601401806014116112c85760288111611b8a575b60640390606482116112c857606491611b8691611336565b0590565b506028611b6e565b509056fe405787fa12a823e0f2b7631cc41b3ba8828b3321ca811111fa75cd3aa3bb5acea2646970667358221220255646ca211f299d333e4adbe09e690ae6cccd35937a2aeb69a60fb7e604a5e264736f6c63430008170033405787fa12a823e0f2b7631cc41b3ba8828b3321ca811111fa75cd3aa3bb5acebb7b4a454dc3493923482f07822329ed19e8244eff582cc204f8554c3620c3fdc65a7bb8d6351c1cf70c95a316cc6a92839c986682d98bc35f958f4883f9d2a8290decd9548b62a8d60345a988386fc84ba6bc95484008f6362f93160ef3e563d7b6990105719101dabeb77144f2a3385c8033acd3af97e9423a695e81ad1eb5f3f7a9fe364faab93b216da50a3214154f22a0a2b415b23a84c8169e8b636ee36e1540171b6c0c960b71a7020d9f60077f6af931a8bbf590da0223dacf75c7afb10e2d527612073b26eecdfd717e6a320cf44b4afac2b0732d9fcbe2b7fa0cf6",
  "linkReferences": {},
  "deployedLinkReferences": {}
}