{
  "_format": "hh-sol-artifact-1",
  "contractName": "Node",
  "sourceName": "contracts/Node.sol",
  "abi": [
    {
      "inputs": [
        {
          "internalType": "address",
          "name": "globalContractAddress",
          "type": "address"
        },
        {
          "internalType": "uint256[]",
          "name": "initialPosition",
          "type": "uint256[]"
        },
        {
          "internalType": "uint256[]",
          "name": "initialVelocity",
          "type": "uint256[]"
        },
        {
          "internalType": "uint256[]",
          "name": "initialTariff",
          "type": "uint256[]"
        },
        {
          "internalType": "uint256[]",
          "name": "initialCapacity",
          "type": "uint256[]"
        },
        {
          "internalType": "uint256[]",
          "name": "initialRenewableGeneration",
          "type": "uint256[]"
        },
        {
          "internalType": "uint256[]",
          "name": "initialBatteryCapacity",
          "type": "uint256[]"
        },
        {
          "internalType": "uint256[]",
          "name": "initialBatteryCharge",
          "type": "uint256[]"
        },
        {
          "internalType": "uint256[]",
          "name": "initialFlexibleLoad",
          "type": "uint256[]"
        },
        {
          "internalType": "uint256",
          "name": "_penaltyRate",
          "type": "uint256"
        },
        {
          "internalType": "uint256",
          "name": "_peakDemandThreshold",
          "type": "uint256"
        },
        {
          "internalType": "uint256",
          "name": "_peakDemandPenalty",
          "type": "uint256"
        }
      ],
      "stateMutability": "nonpayable",
      "type": "constructor"
    },
    {
      "inputs": [
        {
          "internalType": "uint256",
          "name": "",
          "type": "uint256"
        }
      ],
      "name": "batteryCapacity",
      "outputs": [
        {
          "internalType": "uint256",
          "name": "",
          "type": "uint256"
        }
      ],
      "stateMutability": "view",
      "type": "function"
    },
    {
      "inputs": [
        {
          "internalType": "uint256",
          "name": "",
          "type": "uint256"
        }
      ],
      "name": "batteryCharge",
      "outputs": [
        {
          "internalType": "uint256",
          "name": "",
          "type": "uint256"
        }
      ],
      "stateMutability": "view",
      "type": "function"
    },
    {
      "inputs": [],
      "name": "c1",
      "outputs": [
        {
          "internalType": "uint256",
          "name": "",
          "type": "uint256"
        }
      ],
      "stateMutability": "view",
      "type": "function"
    },
    {
      "inputs": [],
      "name": "c2",
      "outputs": [
        {
          "internalType": "uint256",
          "name": "",
          "type": "uint256"
        }
      ],
      "stateMutability": "view",
      "type": "function"
    },
    {
      "inputs": [
        {
          "internalType": "uint256",
          "name": "",
          "type": "uint256"
        }
      ],
      "name": "capacity",
      "outputs": [
        {
          "internalType": "uint256",
          "name": "",
          "type": "uint256"
        }
      ],
      "stateMutability": "view",
      "type": "function"
    },
    {
      "inputs": [
        {
          "internalType": "uint256",
          "name": "",
          "type": "uint256"
        }
      ],
      "name": "flexibleLoad",
      "outputs": [
        {
          "internalType": "uint256",
          "name": "",
          "type": "uint256"
        }
      ],
      "stateMutability": "view",
      "type": "function"
    },
    {
      "inputs": [],
      "name": "globalContract",
      "outputs": [
        {
          "internalType": "contract GlobalContractInterface",
          "name": "",
          "type": "address"
        }
      ],
      "stateMutability": "view",
      "type": "function"
    },
    {
      "inputs": [
        {
          "internalType": "uint256[]",
          "name": "pos",
          "type": "uint256[]"
        }
      ],
      "name": "objectiveFunction",
      "outputs": [
        {
          "internalType": "uint256",
          "name": "",
          "type": "uint256"
        }
      ],
      "stateMutability": "view",
      "type": "function"
    },
    {
      "inputs": [],
      "name": "peakDemandPenalty",
      "outputs": [
        {
          "internalType": "uint256",
          "name": "",
          "type": "uint256"
        }
      ],
      "stateMutability": "view",
      "type": "function"
    },
    {
      "inputs": [],
      "name": "peakDemandThreshold",
      "outputs": [
        {
          "internalType": "uint256",
          "name": "",
          "type": "uint256"
        }
      ],
      "stateMutability": "view",
      "type": "function"
    },
    {
      "inputs": [],
      "name": "penaltyRate",
      "outputs": [
        {
          "internalType": "uint256",
          "name": "",
          "type": "uint256"
        }
      ],
      "stateMutability": "view",
      "type": "function"
    },
    {
      "inputs": [
        {
          "internalType": "uint256",
          "name": "",
          "type": "uint256"
        }
      ],
      "name": "personalBestPosition",
      "outputs": [
        {
          "internalType": "uint256",
          "name": "",
          "type": "uint256"
        }
      ],
      "stateMutability": "view",
      "type": "function"
    },
    {
      "inputs": [],
      "name": "personalBestScore",
      "outputs": [
        {
          "internalType": "uint256",
          "name": "",
          "type": "uint256"
        }
      ],
      "stateMutability": "view",
      "type": "function"
    },
    {
      "inputs": [
        {
          "internalType": "uint256",
          "name": "",
          "type": "uint256"
        }
      ],
      "name": "position",
      "outputs": [
        {
          "internalType": "uint256",
          "name": "",
          "type": "uint256"
        }
      ],
      "stateMutability": "view",
      "type": "function"
    },
    {
      "inputs": [
        {
          "internalType": "uint256",
          "name": "",
          "type": "uint256"
        }
      ],
      "name": "renewableGeneration",
      "outputs": [
        {
          "internalType": "uint256",
          "name": "",
          "type": "uint256"
        }
      ],
      "stateMutability": "view",
      "type": "function"
    },
    {
      "inputs": [
        {
          "internalType": "uint256",
          "name": "",
          "type": "uint256"
        }
      ],
      "name": "tariff",
      "outputs": [
        {
          "internalType": "uint256",
          "name": "",
          "type": "uint256"
        }
      ],
      "stateMutability": "view",
      "type": "function"
    },
    {
      "inputs": [],
      "name": "updateBestPositions",
      "outputs": [],
      "stateMutability": "nonpayable",
      "type": "function"
    },
    {
      "inputs": [
        {
          "internalType": "uint256",
          "name": "_peakDemandThreshold",
          "type": "uint256"
        }
      ],
      "name": "updatePeakDemandThreshold",
      "outputs": [],
      "stateMutability": "nonpayable",
      "type": "function"
    },
    {
      "inputs": [
        {
          "internalType": "uint256",
          "name": "_penaltyRate",
          "type": "uint256"
        }
      ],
      "name": "updatePenaltyRate",
      "outputs": [],
      "stateMutability": "nonpayable",
      "type": "function"
    },
    {
      "inputs": [],
      "name": "updateVelocityAndPosition",
      "outputs": [],
      "stateMutability": "nonpayable",
      "type": "function"
    },
    {
      "inputs": [
        {
          "internalType": "uint256",
          "name": "",
          "type": "uint256"
        }
      ],
      "name": "velocity",
      "outputs": [
        {
          "internalType": "uint256",
          "name": "",
          "type": "uint256"
        }
      ],
      "stateMutability": "view",
      "type": "function"
    },
    {
      "inputs": [],
      "name": "w",
      "outputs": [
        {
          "internalType": "uint256",
          "name": "",
          "type": "uint256"
        }
      ],
      "stateMutability": "view",
      "type": "function"
    }
  ],
  "bytecode": "0x608060405234620007f957620017a4803803806200001d81620007fe565b92833981019061018081830312620007f95780516001600160a01b0381169290839003620007f95760208201516001600160401b038111620007f957816200006791840162000824565b60408301519091906001600160401b038111620007f957816200008c91850162000824565b60608401519091906001600160401b038111620007f95781620000b191860162000824565b60808501516001600160401b038111620007f95782620000d391870162000824565b60a08601516001600160401b038111620007f95783620000f591880162000824565b60c08701519091906001600160401b038111620007f957846200011a91890162000824565b60e08801519093906001600160401b038111620007f957856200013f918a0162000824565b61010089015190956001600160401b038211620007f95762000163918a0162000824565b6101208901516101408a0151610160909a0151600019600355603260045560966005819055600655601080546001600160a01b031916909c17909b558851909891979091906001600160401b038311620004f357680100000000000000008311620004f35760005483600055808410620007b1575b5060208201928360008052602060002060005b8381106200079c5750508251929150506001600160401b038211620004f357680100000000000000008211620004f3576001548260015580831062000752575b506020016001600052602060002060005b8381106200073d5750509151929150506001600160401b038211620004f357680100000000000000008211620004f35760025482600255808310620006f4575b506002600052602060002060005b838110620006df5750508251929150506001600160401b038211620004f357680100000000000000008211620004f3576007548260075580831062000696575b506020016007600052602060002060005b838110620006815750508251929150506001600160401b038211620004f357680100000000000000008211620004f3576008548260085580831062000638575b506020016008600052602060002060005b838110620006235750508251929150506001600160401b038211620004f357680100000000000000008211620004f357600a5482600a55808310620005da575b50602001600a600052602060002060005b838110620005c55750508251929150506001600160401b038211620004f357680100000000000000008211620004f357600b5482600b558083106200057c575b50602001600b600052602060002060005b838110620005675750508251929150506001600160401b038211620004f357680100000000000000008211620004f357600c5482600c558083106200051e575b50602001600c600052602060002060005b838110620005095750508251929150506001600160401b038211620004f357680100000000000000008211620004f357600d5482600d55808310620004aa575b50602001600d600052602060002060005b838110620004955750505050600955600e55600f55604051610f1690816200088e8239f35b60019060208451940193818401550162000470565b600d6000527fd7b6990105719101dabeb77144f2a3385c8033acd3af97e9423a695e81ad1eb59081019083015b818110620004e657506200045f565b60008155600101620004d7565b634e487b7160e01b600052604160045260246000fd5b6001906020845194019381840155016200041f565b600c6000527fdf6966c971051c3d54ec59162606531493a51404a002842f56009d7e5cf4a8c79081019083015b8181106200055a57506200040e565b600081556001016200054b565b600190602084519401938184015501620003ce565b600b6000527f0175b7a638427703f0dbe7bb9bbf987a2551717b34e79f33b5b1008d1fa01db99081019083015b818110620005b85750620003bd565b60008155600101620005a9565b6001906020845194019381840155016200037d565b600a6000527fc65a7bb8d6351c1cf70c95a316cc6a92839c986682d98bc35f958f4883f9d2a89081019083015b8181106200061657506200036c565b6000815560010162000607565b6001906020845194019381840155016200032c565b60086000527ff3f7a9fe364faab93b216da50a3214154f22a0a2b415b23a84c8169e8b636ee39081019083015b8181106200067457506200031b565b6000815560010162000665565b600190602084519401938184015501620002db565b60076000527fa66cc928b5edb82af9bd49922954155ab7b0942694bea4ce44661d9a8736c6889081019083015b818110620006d25750620002ca565b60008155600101620006c3565b6001906020845194019381840155016200028a565b60026000527f405787fa12a823e0f2b7631cc41b3ba8828b3321ca811111fa75cd3aa3bb5ace9081019083015b8181106200073057506200027c565b6000815560010162000721565b6001906020845194019381840155016200023c565b60016000527fb10e2d527612073b26eecdfd717e6a320cf44b4afac2b0732d9fcbe2b7fa0cf6908382015b81830181106200078f5750506200022b565b600081556001016200077d565b600190602084519401938184015501620001eb565b600080527f290decd9548b62a8d60345a988386fc84ba6bc95484008f6362f93160ef3e5639081019084015b818110620007ec5750620001d8565b60008155600101620007dd565b600080fd5b6040519190601f01601f191682016001600160401b03811183821017620004f357604052565b81601f82011215620007f9578051916020916001600160401b038411620004f3578360051b90838062000859818501620007fe565b809781520192820101928311620007f9578301905b8282106200087d575050505090565b815181529083019083016200086e56fe6040608081526004908136101561001557600080fd5b600091823560e01c806316b51928146109a7578063205c9cc71461098a57806348e257cb1461096b5780634a702c3d1461094c5780634d985ae41461092d5780634eb274ff146108e05780635f57697c146108c157806368633fe3146108a757806369cd1db8146108885780636f2407741461085e57806390ccfa0f1461083557806396d14da6146107e8578063973b9cc114610560578063a86853d514610536578063ab1bbeca1461050c578063b4630583146104f2578063b6ce6709146104a2578063d6b7494f14610483578063e329143f14610459578063f0374885146103c2578063f6451c0a146101505763f7a95a9e1461011357600080fd5b3461014c57602036600319011261014c5735918054831015610149575061013b602092610af6565b91905490519160031b1c8152f35b80fd5b8280fd5b5082346101495780600319360112610149576010548351632ba8f1b360e01b8152929082908490839082906001600160a01b03165afa9283156103b8578293610394575b50815b8254811015610390578451906020918281019042825282888201528781526101be81610b2e565b60649182915190200692600183019081841161037d579082918951908101914283528a8201528981526101f081610b2e565b51902006818554948161020286610a1a565b979054600398891b1c61021491610b9a565b916005549061022291610b9a565b61022b87610a51565b905490891b1c61023a88610af6565b9054908a1b1c61024991610c56565b61025291610b9a565b0461025c91610c63565b916006549061026a91610b9a565b610274858a610c42565b5161027e86610af6565b905490881b1c61028d91610c56565b61029691610b9a565b046102a091610c63565b046102aa82610a1a565b6102c5929082549060031b91821b91600019901b1916179055565b6102ce81610a1a565b905490831b1c6102dd82610af6565b9091825482861b1c906102ef91610c63565b825460001960039390931b92831b1916911b17905561030d81610af6565b905490831b1c61031c82610abf565b905490841b1c1091600192610333575b5001610197565b6103779061034083610abf565b905490821b1c61036061035285610af6565b929093838554911b1c610c56565b825460001960039390931b92831b1916911b179055565b8661032c565b634e487b7160e01b875260118652602487fd5b8280f35b6103b19193503d8084833e6103a98183610b60565b810190610bc3565b9184610194565b84513d84823e3d90fd5b5091346101495760209060206003193601126101495783359367ffffffffffffffff851161045557366023860112156104555784013561040181610b82565b9461040e85519687610b60565b8186526024602087019260051b820101923684116101495750602401905b8282106104465760208561043f88610c70565b9051908152f35b8135815290830190830161042c565b5080fd5b503461014c57602036600319011261014c573591600d54831015610149575061013b602092610abf565b5050346104555781600319360112610455576020906009549051908152f35b503461014c57602036600319011261014c5735600b5481101561014c5760209250600b6000527f0175b7a638427703f0dbe7bb9bbf987a2551717b34e79f33b5b1008d1fa01db901549051908152f35b838234610455576020366003190112610455573560095580f35b503461014c57602036600319011261014c573591600854831015610149575061013b602092610a88565b503461014c57602036600319011261014c573591600254831015610149575061013b602092610a51565b50903461014c578260031936011261014c57805191828454938482526020809201868052600080516020610ec1833981519152875b848882106107d457505050906105b0816105b5930382610b60565b610c70565b9360035485106106f0575b506010548351632ba8f1b360e01b81526001600160a01b03909116919086818581865afa9081156106e657906105fd9188916106cc575b50610c70565b8510610607578580f35b813b156106c857938591845195869263a5cdc59b60e01b84526044840191878786015285548093526064850192868052600080516020610ec18339815191529187905b8282106106aa57505050508380928692602483015203925af180156106a057610674575b80808580f35b67ffffffffffffffff831161068d57505238808061066e565b634e487b7160e01b845260419052602483fd5b82513d86823e3d90fd5b835486528c98508b975094850194600193840193919091019061064a565b8580fd5b6106e091503d808a833e6103a98183610b60565b386105f7565b85513d89823e3d90fd5b8460035567ffffffffffffffff81116107c1576801000000000000000081116107c15760025481600255808210610781575b50600080516020610ec18339815191526002875280549087915b83831061074b575050506105c0565b60018091920192835492817f405787fa12a823e0f2b7631cc41b3ba8828b3321ca811111fa75cd3aa3bb5ace015501919061073c565b817f405787fa12a823e0f2b7631cc41b3ba8828b3321ca811111fa75cd3aa3bb5ace91820191015b8181106107b65750610722565b8781556001016107a9565b634e487b7160e01b865260418352602486fd5b825484529092019160019182019101610595565b503461014c57602036600319011261014c5735600a5481101561014c57600a602093527fc65a7bb8d6351c1cf70c95a316cc6a92839c986682d98bc35f958f4883f9d2a801549051908152f35b50503461045557816003193601126104555760105490516001600160a01b039091168152602090f35b503461014c57602036600319011261014c573591600154831015610149575061013b602092610a1a565b505034610455578160031936011261045557602090600e549051908152f35b8382346104555760203660031901126104555735600e5580f35b5050346104555781600319360112610455576020906005549051908152f35b503461014c57602036600319011261014c5735600c5481101561014c57600c602093527fdf6966c971051c3d54ec59162606531493a51404a002842f56009d7e5cf4a8c701549051908152f35b5050346104555781600319360112610455576020906003549051908152f35b505034610455578160031936011261045557602090600f549051908152f35b5050346104555781600319360112610455576020906006549051908152f35b503461014c578260031936011261014c5760209250549051908152f35b503461014c57602036600319011261014c573591600754831015610149575061013b6020925b600754811015610a045760076000527fa66cc928b5edb82af9bd49922954155ab7b0942694bea4ce44661d9a8736c6880190600090565b634e487b7160e01b600052603260045260246000fd5b600154811015610a045760016000527fb10e2d527612073b26eecdfd717e6a320cf44b4afac2b0732d9fcbe2b7fa0cf60190600090565b600254811015610a045760026000527f405787fa12a823e0f2b7631cc41b3ba8828b3321ca811111fa75cd3aa3bb5ace0190600090565b600854811015610a045760086000527ff3f7a9fe364faab93b216da50a3214154f22a0a2b415b23a84c8169e8b636ee30190600090565b600d54811015610a0457600d6000527fd7b6990105719101dabeb77144f2a3385c8033acd3af97e9423a695e81ad1eb50190600090565b906000918254811015610b1a57828052600080516020610ec1833981519152019190565b634e487b7160e01b83526032600452602483fd5b6060810190811067ffffffffffffffff821117610b4a57604052565b634e487b7160e01b600052604160045260246000fd5b90601f8019910116810190811067ffffffffffffffff821117610b4a57604052565b67ffffffffffffffff8111610b4a5760051b60200190565b81810292918115918404141715610bad57565b634e487b7160e01b600052601160045260246000fd5b6020908181840312610c3d5780519067ffffffffffffffff8211610c3d57019180601f84011215610c3d578251610bf981610b82565b93610c076040519586610b60565b818552838086019260051b820101928311610c3d578301905b828210610c2e575050505090565b81518152908301908301610c20565b600080fd5b8051821015610a045760209160051b010190565b91908203918211610bad57565b91908201809211610bad57565b906000916040518091600a54808352602080930190600a87527fc65a7bb8d6351c1cf70c95a316cc6a92839c986682d98bc35f958f4883f9d2a890875b818110610eac5750505083610cc3910384610b60565b60405180926020600c54928381520191600c88527fdf6966c971051c3d54ec59162606531493a51404a002842f56009d7e5cf4a8c79188905b828210610e95575050505082610d13910383610b60565b8492600e54955b8251851015610e8d57610de3600191610d338786610c42565b5180610d3f8987610c42565b5110610e6d57506000610d66610d558988610c42565b51610d608a88610c42565b51610c56565b610d708987610c42565b525b80610d7d8989610c42565b5110610e4557610d9190610d608989610c42565b610d9b8888610c42565b526000905b81610dbb610dad8a6109cd565b949054600395861b1c610b9a565b928b808311610e23575b50610dcf8a610a88565b905490821b1c8211610deb575b5050610c63565b940193610d1a565b610e0c610e1b939492610e1592610e018d610a88565b9054911b1c90610c56565b60095490610b9a565b90610c63565b903880610ddc565b93610e15610e35610e3e939685610c56565b600f5490610b9a565b928b610dc5565b610e5a90610e538989610c42565b5190610c56565b906000610e678989610c42565b52610da0565b610e7b90610e538987610c42565b6000610e878987610c42565b52610d72565b955050505050565b835485529384019360019384019390910190610cfc565b825484529285019260019283019201610cad56fe290decd9548b62a8d60345a988386fc84ba6bc95484008f6362f93160ef3e563a2646970667358221220f0d05a4452717fd2880671c4f89c14ff779c80207e5be791e7cde605ca3a00d564736f6c63430008170033",
  "linkReferences": {},
  "deployedLinkReferences": {}
}