{
  "_format": "hh-sol-artifact-1",
  "contractName": "Node",
  "sourceName": "contracts/Node.sol",
  "abi": [
    {
      "inputs": [
        {
          "internalType": "address",
          "name": "globalContractAddress",
          "type": "address"
        },
        {
          "internalType": "int256[]",
          "name": "initialPosition",
          "type": "int256[]"
        },
        {
          "internalType": "int256[]",
          "name": "initialVelocity",
          "type": "int256[]"
        },
        {
          "internalType": "int256[]",
          "name": "initialTariff",
          "type": "int256[]"
        },
        {
          "internalType": "uint256[]",
          "name": "initialCapacity",
          "type": "uint256[]"
        },
        {
          "internalType": "uint256[]",
          "name": "initialRenewableGeneration",
          "type": "uint256[]"
        },
        {
          "internalType": "uint256[]",
          "name": "initialBatteryCapacity",
          "type": "uint256[]"
        },
        {
          "internalType": "uint256[]",
          "name": "initialBatteryCharge",
          "type": "uint256[]"
        },
        {
          "internalType": "uint256[]",
          "name": "initialFlexibleLoad",
          "type": "uint256[]"
        },
        {
          "internalType": "uint256[]",
          "name": "_flexibilityAbove",
          "type": "uint256[]"
        },
        {
          "internalType": "uint256[]",
          "name": "_flexibilityBelow",
          "type": "uint256[]"
        }
      ],
      "stateMutability": "nonpayable",
      "type": "constructor"
    },
    {
      "anonymous": false,
      "inputs": [
        {
          "indexed": true,
          "internalType": "address",
          "name": "node",
          "type": "address"
        },
        {
          "indexed": false,
          "internalType": "int256",
          "name": "newScore",
          "type": "int256"
        }
      ],
      "name": "BestPositionUpdated",
      "type": "event"
    },
    {
      "anonymous": false,
      "inputs": [
        {
          "indexed": false,
          "internalType": "uint256",
          "name": "timestamp",
          "type": "uint256"
        }
      ],
      "name": "NewPlanReceived",
      "type": "event"
    },
    {
      "inputs": [
        {
          "internalType": "uint256",
          "name": "",
          "type": "uint256"
        }
      ],
      "name": "batteryCapacity",
      "outputs": [
        {
          "internalType": "uint256",
          "name": "",
          "type": "uint256"
        }
      ],
      "stateMutability": "view",
      "type": "function"
    },
    {
      "inputs": [
        {
          "internalType": "uint256",
          "name": "",
          "type": "uint256"
        }
      ],
      "name": "batteryCharge",
      "outputs": [
        {
          "internalType": "uint256",
          "name": "",
          "type": "uint256"
        }
      ],
      "stateMutability": "view",
      "type": "function"
    },
    {
      "inputs": [],
      "name": "c1",
      "outputs": [
        {
          "internalType": "int256",
          "name": "",
          "type": "int256"
        }
      ],
      "stateMutability": "view",
      "type": "function"
    },
    {
      "inputs": [],
      "name": "c2",
      "outputs": [
        {
          "internalType": "int256",
          "name": "",
          "type": "int256"
        }
      ],
      "stateMutability": "view",
      "type": "function"
    },
    {
      "inputs": [
        {
          "internalType": "uint256",
          "name": "",
          "type": "uint256"
        }
      ],
      "name": "capacity",
      "outputs": [
        {
          "internalType": "uint256",
          "name": "",
          "type": "uint256"
        }
      ],
      "stateMutability": "view",
      "type": "function"
    },
    {
      "inputs": [
        {
          "internalType": "uint256",
          "name": "",
          "type": "uint256"
        }
      ],
      "name": "flexibilityAbove",
      "outputs": [
        {
          "internalType": "uint256",
          "name": "",
          "type": "uint256"
        }
      ],
      "stateMutability": "view",
      "type": "function"
    },
    {
      "inputs": [
        {
          "internalType": "uint256",
          "name": "",
          "type": "uint256"
        }
      ],
      "name": "flexibilityBelow",
      "outputs": [
        {
          "internalType": "uint256",
          "name": "",
          "type": "uint256"
        }
      ],
      "stateMutability": "view",
      "type": "function"
    },
    {
      "inputs": [
        {
          "internalType": "uint256",
          "name": "",
          "type": "uint256"
        }
      ],
      "name": "flexibleLoad",
      "outputs": [
        {
          "internalType": "uint256",
          "name": "",
          "type": "uint256"
        }
      ],
      "stateMutability": "view",
      "type": "function"
    },
    {
      "inputs": [
        {
          "internalType": "uint256",
          "name": "hour",
          "type": "uint256"
        },
        {
          "internalType": "int256",
          "name": "consumption",
          "type": "int256"
        }
      ],
      "name": "getEffectiveTariff",
      "outputs": [
        {
          "internalType": "int256",
          "name": "",
          "type": "int256"
        }
      ],
      "stateMutability": "view",
      "type": "function"
    },
    {
      "inputs": [],
      "name": "getPosition",
      "outputs": [
        {
          "internalType": "int256[]",
          "name": "",
          "type": "int256[]"
        }
      ],
      "stateMutability": "view",
      "type": "function"
    },
    {
      "inputs": [],
      "name": "globalContract",
      "outputs": [
        {
          "internalType": "contract GlobalContractInterface",
          "name": "",
          "type": "address"
        }
      ],
      "stateMutability": "view",
      "type": "function"
    },
    {
      "inputs": [],
      "name": "lastKnownGlobalTimestamp",
      "outputs": [
        {
          "internalType": "uint256",
          "name": "",
          "type": "uint256"
        }
      ],
      "stateMutability": "view",
      "type": "function"
    },
    {
      "inputs": [
        {
          "internalType": "int256[]",
          "name": "pos",
          "type": "int256[]"
        }
      ],
      "name": "objectiveFunction",
      "outputs": [
        {
          "internalType": "int256",
          "name": "",
          "type": "int256"
        }
      ],
      "stateMutability": "view",
      "type": "function"
    },
    {
      "inputs": [
        {
          "internalType": "uint256",
          "name": "",
          "type": "uint256"
        }
      ],
      "name": "personalBestPosition",
      "outputs": [
        {
          "internalType": "int256",
          "name": "",
          "type": "int256"
        }
      ],
      "stateMutability": "view",
      "type": "function"
    },
    {
      "inputs": [],
      "name": "personalBestScore",
      "outputs": [
        {
          "internalType": "int256",
          "name": "",
          "type": "int256"
        }
      ],
      "stateMutability": "view",
      "type": "function"
    },
    {
      "inputs": [
        {
          "internalType": "uint256",
          "name": "",
          "type": "uint256"
        }
      ],
      "name": "position",
      "outputs": [
        {
          "internalType": "int256",
          "name": "",
          "type": "int256"
        }
      ],
      "stateMutability": "view",
      "type": "function"
    },
    {
      "inputs": [
        {
          "internalType": "uint256",
          "name": "",
          "type": "uint256"
        }
      ],
      "name": "renewableGeneration",
      "outputs": [
        {
          "internalType": "uint256",
          "name": "",
          "type": "uint256"
        }
      ],
      "stateMutability": "view",
      "type": "function"
    },
    {
      "inputs": [
        {
          "internalType": "uint256",
          "name": "",
          "type": "uint256"
        }
      ],
      "name": "tariff",
      "outputs": [
        {
          "internalType": "int256",
          "name": "",
          "type": "int256"
        }
      ],
      "stateMutability": "view",
      "type": "function"
    },
    {
      "inputs": [],
      "name": "updateBestPositions",
      "outputs": [],
      "stateMutability": "nonpayable",
      "type": "function"
    },
    {
      "inputs": [],
      "name": "updateVelocityAndPosition",
      "outputs": [],
      "stateMutability": "nonpayable",
      "type": "function"
    },
    {
      "inputs": [
        {
          "internalType": "uint256",
          "name": "",
          "type": "uint256"
        }
      ],
      "name": "velocity",
      "outputs": [
        {
          "internalType": "int256",
          "name": "",
          "type": "int256"
        }
      ],
      "stateMutability": "view",
      "type": "function"
    },
    {
      "inputs": [],
      "name": "w",
      "outputs": [
        {
          "internalType": "int256",
          "name": "",
          "type": "int256"
        }
      ],
      "stateMutability": "view",
      "type": "function"
    }
  ],
  "bytecode": "0x608060405234620009765762001c78803803806200001d816200097b565b928339810161016082820312620009765781516001600160a01b0381169290839003620009765760208101516001600160401b03811162000976578262000066918301620009a1565b60408201516001600160401b03811162000976578362000088918401620009a1565b60608301516001600160401b038111620009765784620000aa918501620009a1565b60808401516001600160401b038111620009765785620000cc918601620009a1565b60a08501516001600160401b038111620009765786620000ee918701620009a1565b60c08601519092906001600160401b03811162000976578762000113918801620009a1565b60e08701519094906001600160401b03811162000976578862000138918901620009a1565b6101008801519096906001600160401b0381116200097657896200015e918a01620009a1565b6101208901519098906001600160401b03811162000976578a62000184918301620009a1565b610140820151909a906001600160401b0381116200097657620001a89201620009a1565b6001600160ff1b03600355603260055560c86006819055600755601080546001600160a01b031916909b17909a558051916001600160401b038311620005b357680100000000000000008311620005b357600054836000558084106200092e575b5060208201928360008052602060002060005b838110620009195750508251929150506001600160401b038211620005b357680100000000000000008211620005b35760015482600155808310620008cf575b506020016001600052602060002060005b838110620008ba5750509151929150506001600160401b038211620005b357680100000000000000008211620005b3576002548260025580831062000870575b506002600052602060002060005b8381106200085b5750508251929150506001600160401b038211620005b357680100000000000000008211620005b3576008548260085580831062000812575b506020016008600052602060002060005b838110620007fd5750508251929150506001600160401b038211620005b357680100000000000000008211620005b35760095482600955808310620007b4575b506020016009600052602060002060005b8381106200079f5750508251929150506001600160401b038211620005b357680100000000000000008211620005b357600a5482600a5580831062000756575b50602001600a600052602060002060005b838110620007415750508251929150506001600160401b038211620005b357680100000000000000008211620005b357600b5482600b55808310620006f8575b50602001600b600052602060002060005b838110620006e35750508251929150506001600160401b038211620005b357680100000000000000008211620005b357600c5482600c558083106200069a575b50602001600c600052602060002060005b838110620006855750508251929150506001600160401b038211620005b357680100000000000000008211620005b357600d5482600d558083106200063c575b50602001600d600052602060002060005b838110620006275784518690866001600160401b038211620005b357680100000000000000008211620005b357600e5482600e55808310620005de575b50602001600e600052602060002060005b838110620005c9578451856001600160401b038211620005b357680100000000000000008211620005b357600f5482600f558083106200056a575b5060200190600f60005260206000209160005b828110620005555760405161126d908162000a0b8239f35b6001906020835193019281860155016200053d565b600f6000527f8d1108e10bcb7c27dddfc02ed9d693a074039d026cf4ea4240b40f7d581ac8029081019083015b818110620005a657506200052a565b6000815560010162000597565b634e487b7160e01b600052604160045260246000fd5b600190602084519401938184015501620004ef565b600e6000527fbb7b4a454dc3493923482f07822329ed19e8244eff582cc204f8554c3620c3fd9081019083015b8181106200061a5750620004de565b600081556001016200060b565b600190602084519401938184015501620004a1565b600d6000527fd7b6990105719101dabeb77144f2a3385c8033acd3af97e9423a695e81ad1eb59081019083015b81811062000678575062000490565b6000815560010162000669565b60019060208451940193818401550162000450565b600c6000527fdf6966c971051c3d54ec59162606531493a51404a002842f56009d7e5cf4a8c79081019083015b818110620006d657506200043f565b60008155600101620006c7565b600190602084519401938184015501620003ff565b600b6000527f0175b7a638427703f0dbe7bb9bbf987a2551717b34e79f33b5b1008d1fa01db99081019083015b818110620007345750620003ee565b6000815560010162000725565b600190602084519401938184015501620003ae565b600a6000527fc65a7bb8d6351c1cf70c95a316cc6a92839c986682d98bc35f958f4883f9d2a89081019083015b8181106200079257506200039d565b6000815560010162000783565b6001906020845194019381840155016200035d565b60096000527f6e1540171b6c0c960b71a7020d9f60077f6af931a8bbf590da0223dacf75c7af9081019083015b818110620007f057506200034c565b60008155600101620007e1565b6001906020845194019381840155016200030c565b60086000527ff3f7a9fe364faab93b216da50a3214154f22a0a2b415b23a84c8169e8b636ee39081019083015b8181106200084e5750620002fb565b600081556001016200083f565b600190602084519401938184015501620002bb565b60026000527f405787fa12a823e0f2b7631cc41b3ba8828b3321ca811111fa75cd3aa3bb5ace908382015b8183018110620008ad575050620002ad565b600081556001016200089b565b6001906020845194019381840155016200026d565b60016000527fb10e2d527612073b26eecdfd717e6a320cf44b4afac2b0732d9fcbe2b7fa0cf6908382015b81830181106200090c5750506200025c565b60008155600101620008fa565b6001906020845194019381840155016200021c565b600080527f290decd9548b62a8d60345a988386fc84ba6bc95484008f6362f93160ef3e5639081019084015b81811062000969575062000209565b600081556001016200095a565b600080fd5b6040519190601f01601f191682016001600160401b03811183821017620005b357604052565b81601f8201121562000976578051916020916001600160401b038411620005b3578360051b908380620009d68185016200097b565b80978152019282010192831162000976578301905b828210620009fa575050505090565b81518152908301908301620009eb56fe6040608081526004908136101561001557600080fd5b600091823560e01c806316b5192814610ce3578063205c9cc714610cc4578063364132d914610c38578063375a105e14610c0e57806348e257cb14610bef5780634d985ae414610bd05780634eb274ff14610b835780635f57697c14610b645780636f24077414610b3a5780637398ab1814610ad957806378b6d7d414610aaf57806390ccfa0f14610a86578063957b405614610a5c57806396d14da614610a0f578063973b9cc11461074e578063a86853d514610724578063ab1bbeca146106d4578063b6ce670914610684578063d0c6c7af14610667578063e329143f14610617578063f6451c0a146101505763f7a95a9e1461011357600080fd5b3461014c57602036600319011261014c5735918054831015610149575061013b602092610e32565b91905490519160031b1c8152f35b80fd5b8280fd5b5091903461061357816003193601126106135760105481516302989b4b60e61b815260209390916001600160a01b031684838781845afa8015610609579082918793906105d5575b8394508683945482116105a3575b50508451631e385f6960e01b815293849182905afa9182156105975781926104fd575b5081518154036104c557805b81548110156104c1576101e781610e32565b905485514288820190815260208101859052600393841b9290921c604083015280606083010390610220601f1992838101835282610e7c565b6064928391519020066001918286018087116104ae57896102ba6102c68d95948860659561027a6102868d8f61025590610d8d565b9054911b1c88519283918d830195428791606093918352602083015260408201520190565b03858101835282610e7c565b51902006966102948c610d8d565b9054908c1b1c94519384918201958d428891606093918352602083015260408201520190565b03908101835282610e7c565b5190200792603119840193841316610499576103ad926103858593846103758961037061037c8f98839c60019f9e8f9b6103706103678e61038a9f610339816103336103759861031861034f95610dfb565b905490821b1c9061032884610e32565b9054911b1c90610f69565b96610ecc565b5161034383610e32565b9054908d1b1c90610f69565b9961035c60055492610d8d565b9054911b1c90610f19565b94600654610f19565b610f19565b0590610f3c565b94600754610f19565b610f3c565b0561039484610d8d565b90919082549060031b91821b91600019901b1916179055565b6103e06103d76103bc84610e32565b905490841b1c6103cb85610d8d565b905490851b1c90610f3c565b61039484610e32565b61040f6103ec83610dfb565b905490831b1c6104096103fe85610d56565b905490851b1c610f03565b90610f69565b61043e61041b84610dfb565b905490841b1c61043861042d86610dc4565b905490861b1c610f03565b90610f3c565b9181839261044b86610e32565b905490841b1c12610486575b5061046184610e32565b9054911b1c13610473575b50016101d5565b6104809061039483610e32565b3861046c565b6104939061039486610e32565b38610457565b60118b634e487b7160e01b6000525260246000fd5b634e487b7160e01b885260118c52602488fd5b5080f35b825162461bcd60e51b8152808601859052601260248201527144696d656e7369756e6920696e6567616c6560701b6044820152606490fd5b9091503d8083833e61050f8183610e7c565b810190848183031261014c5780519067ffffffffffffffff821161059357019080601f8301121561014c57815161054581610eb4565b9261055286519485610e7c565b818452868085019260051b82010192831161058f5786809101915b83831061057f575050505090386101c9565b825181529181019187910161056d565b8480fd5b8380fd5b508251903d90823e3d90fd5b817fc06999d659d5132dd93a1915097da1a6a24201916389e38da2404e4bca5e59be9287558751908152a138866101a6565b509150918481813d8311610602575b6105ee8183610e7c565b8101031261014c5751859283929091610198565b503d6105e4565b84513d84823e3d90fd5b5080fd5b503461014c57602036600319011261014c5735600d5481101561014c5760209250600d6000527fd7b6990105719101dabeb77144f2a3385c8033acd3af97e9423a695e81ad1eb501549051908152f35b503461014c578260031936011261014c5760209250549051908152f35b503461014c57602036600319011261014c5735600b5481101561014c5760209250600b6000527f0175b7a638427703f0dbe7bb9bbf987a2551717b34e79f33b5b1008d1fa01db901549051908152f35b503461014c57602036600319011261014c573560095481101561014c576020925060096000527f6e1540171b6c0c960b71a7020d9f60077f6af931a8bbf590da0223dacf75c7af01549051908152f35b503461014c57602036600319011261014c573591600254831015610149575061013b602092610dfb565b50903461014c5760031991838336011261059357610780825161077b816107748161117a565b0382610e7c565b610f82565b60039060035481126108eb575b600e549061079a82610eb4565b926107a786519485610e7c565b8284526107b383610eb4565b926020916020860194601f1901368637895b82811061089a5750506010546001600160a01b0316949050843b156108965796929088949260208851998a96632fc0395f60e01b885260608a89015261080d6064890161117a565b9360248901528784030160448801525191828152019291865b82811061087c57505050508383809203925af1801561087257610847578380f35b67ffffffffffffffff831161085f5750523880808380f35b634e487b7160e01b845260419052602483fd5b82513d86823e3d90fd5b835185528b97508a96509381019392810192600101610826565b8880fd5b6108a381610dc4565b905490831b1c6108b282610d56565b905490841b1c81018091116108d85790600191821c6108d1828a610ecc565b52016107c5565b634e487b7160e01b8c526011895260248cfd5b80600355855467ffffffffffffffff81116109fc576801000000000000000081116109fc57600254816002558082106109bc575b507f290decd9548b62a8d60345a988386fc84ba6bc95484008f6362f93160ef3e5636002885280549088915b838310610986575050505083518181527f409d103f7876158f293a85ee39f235ce0c309ab1aca81024a51dfb4b471e556e60203092a261078d565b60018091920192835492817f405787fa12a823e0f2b7631cc41b3ba8828b3321ca811111fa75cd3aa3bb5ace015501919061094b565b817f405787fa12a823e0f2b7631cc41b3ba8828b3321ca811111fa75cd3aa3bb5ace91820191015b8181106109f1575061091f565b8881556001016109e4565b634e487b7160e01b875260418452602487fd5b503461014c57602036600319011261014c5735600a5481101561014c57600a602093527fc65a7bb8d6351c1cf70c95a316cc6a92839c986682d98bc35f958f4883f9d2a801549051908152f35b50913461014957816003193601126101495750610a7f60209260243590356111d3565b9051908152f35b50503461061357816003193601126106135760105490516001600160a01b039091168152602090f35b503461014c57602036600319011261014c573591600e54831015610149575061013b602092610dc4565b5050346106135781600319360112610613578051610afa816107748161117a565b815192839260208080860192818752855180945286019401925b828110610b2357505050500390f35b835185528695509381019392810192600101610b14565b503461014c57602036600319011261014c573591600154831015610149575061013b602092610d8d565b5050346106135781600319360112610613576020906006549051908152f35b503461014c57602036600319011261014c5735600c5481101561014c57600c602093527fdf6966c971051c3d54ec59162606531493a51404a002842f56009d7e5cf4a8c701549051908152f35b5050346106135781600319360112610613576020906003549051908152f35b5050346106135781600319360112610613576020906007549051908152f35b503461014c57602036600319011261014c573591600f54831015610149575061013b602092610d56565b5091346101495760209060206003193601126101495783359367ffffffffffffffff8511610613573660238601121561061357840135610c7781610eb4565b94610c8485519687610e7c565b8186526024602087019260051b820101923684116101495750602401905b828210610cb557602085610a7f88610f82565b81358152908301908301610ca2565b5050346106135781600319360112610613576020906005549051908152f35b503461014c57602036600319011261014c573591600854831015610149575061013b6020925b600854811015610d405760086000527ff3f7a9fe364faab93b216da50a3214154f22a0a2b415b23a84c8169e8b636ee30190600090565b634e487b7160e01b600052603260045260246000fd5b600f54811015610d4057600f6000527f8d1108e10bcb7c27dddfc02ed9d693a074039d026cf4ea4240b40f7d581ac8020190600090565b600154811015610d405760016000527fb10e2d527612073b26eecdfd717e6a320cf44b4afac2b0732d9fcbe2b7fa0cf60190600090565b600e54811015610d4057600e6000527fbb7b4a454dc3493923482f07822329ed19e8244eff582cc204f8554c3620c3fd0190600090565b600254811015610d405760026000527f405787fa12a823e0f2b7631cc41b3ba8828b3321ca811111fa75cd3aa3bb5ace0190600090565b906000918254811015610e68578280527f290decd9548b62a8d60345a988386fc84ba6bc95484008f6362f93160ef3e563019190565b634e487b7160e01b83526032600452602483fd5b90601f8019910116810190811067ffffffffffffffff821117610e9e57604052565b634e487b7160e01b600052604160045260246000fd5b67ffffffffffffffff8111610e9e5760051b60200190565b8051821015610d405760209160051b010190565b91908203918211610eed57565b634e487b7160e01b600052601160045260246000fd5b908160011b9180830560021490151715610eed57565b818102929160008212600160ff1b821416610eed578184051490151715610eed57565b91909160008382019384129112908015821691151617610eed57565b600160ff1b8114610eed5760000390565b81810392916000138015828513169184121617610eed57565b600090805160405180600a54808252602080920190600a87527fc65a7bb8d6351c1cf70c95a316cc6a92839c986682d98bc35f958f4883f9d2a890875b8181106111665750505082610fd5910383610e7c565b60405180916020600c54928381520191600c88527fdf6966c971051c3d54ec59162606531493a51404a002842f56009d7e5cf4a8c79188905b82821061114f575050505081611025910382610e7c565b84935b83851061103757505050505090565b90919293946001906110498784610ecc565b51906000821215611080576104098261106e611068611074958c6111d3565b91610f58565b90610f19565b955b0193929190611028565b6110fe9180806110908b8a610ecc565b511061112e57506110ab906110a58a89610ecc565b51610ee0565b6110b58988610ecc565b5260005b806110c48a88610ecc565b5110611104576110d8906110a58a88610ecc565b6110e28987610ecc565b5261043860005b6110f28a610d09565b90549060031b1c610f19565b95611076565b61111c610438916111158b89610ecc565b5190610ee0565b60006111288b89610ecc565b526110e9565b61113d91506111158a89610ecc565b60006111498a89610ecc565b526110b9565b83548552938401936001938401939091019061100e565b825484529284019260019283019201610fbf565b600080548083528180526020928301927f290decd9548b62a8d60345a988386fc84ba6bc95484008f6362f93160ef3e56392905b8282106111bc575050505090565b8354855293840193600193840193909101906111ae565b6111dc90610d09565b90549060031b1c9060008112600014611233576111f890610f58565b60011c60140180601411610eed576028811161122b575b6064039060648211610eed5760649161122791610f19565b0590565b50602861120f565b509056fea26469706673582212209525154424598dc46693d69221d41f0e81a519e270239b3c4f1e9d3d680667d964736f6c63430008170033",
  "linkReferences": {},
  "deployedLinkReferences": {}
}