{
  "_format": "hh-sol-artifact-1",
  "contractName": "Node",
  "sourceName": "contracts/Node.sol",
  "abi": [
    {
      "inputs": [
        {
          "internalType": "address",
          "name": "globalContractAddress",
          "type": "address"
        },
        {
          "internalType": "int256[]",
          "name": "initialPosition",
          "type": "int256[]"
        },
        {
          "internalType": "int256[]",
          "name": "initialVelocity",
          "type": "int256[]"
        },
        {
          "internalType": "uint256[]",
          "name": "initialTariff",
          "type": "uint256[]"
        },
        {
          "internalType": "uint256[]",
          "name": "initialCapacity",
          "type": "uint256[]"
        },
        {
          "internalType": "uint256[]",
          "name": "initialRenewableGeneration",
          "type": "uint256[]"
        },
        {
          "internalType": "uint256[]",
          "name": "initialBatteryCapacity",
          "type": "uint256[]"
        },
        {
          "internalType": "uint256[]",
          "name": "initialBatteryCharge",
          "type": "uint256[]"
        },
        {
          "internalType": "uint256[]",
          "name": "initialFlexibleLoad",
          "type": "uint256[]"
        }
      ],
      "stateMutability": "nonpayable",
      "type": "constructor"
    },
    {
      "anonymous": false,
      "inputs": [
        {
          "indexed": true,
          "internalType": "address",
          "name": "node",
          "type": "address"
        },
        {
          "indexed": false,
          "internalType": "uint256",
          "name": "newScore",
          "type": "uint256"
        }
      ],
      "name": "BestPositionUpdated",
      "type": "event"
    },
    {
      "anonymous": false,
      "inputs": [
        {
          "indexed": false,
          "internalType": "uint256",
          "name": "timestamp",
          "type": "uint256"
        }
      ],
      "name": "NewPlanReceived",
      "type": "event"
    },
    {
      "inputs": [
        {
          "internalType": "uint256",
          "name": "",
          "type": "uint256"
        }
      ],
      "name": "batteryCapacity",
      "outputs": [
        {
          "internalType": "uint256",
          "name": "",
          "type": "uint256"
        }
      ],
      "stateMutability": "view",
      "type": "function"
    },
    {
      "inputs": [
        {
          "internalType": "uint256",
          "name": "",
          "type": "uint256"
        }
      ],
      "name": "batteryCharge",
      "outputs": [
        {
          "internalType": "uint256",
          "name": "",
          "type": "uint256"
        }
      ],
      "stateMutability": "view",
      "type": "function"
    },
    {
      "inputs": [],
      "name": "c1",
      "outputs": [
        {
          "internalType": "int256",
          "name": "",
          "type": "int256"
        }
      ],
      "stateMutability": "view",
      "type": "function"
    },
    {
      "inputs": [],
      "name": "c2",
      "outputs": [
        {
          "internalType": "int256",
          "name": "",
          "type": "int256"
        }
      ],
      "stateMutability": "view",
      "type": "function"
    },
    {
      "inputs": [
        {
          "internalType": "uint256",
          "name": "",
          "type": "uint256"
        }
      ],
      "name": "capacity",
      "outputs": [
        {
          "internalType": "uint256",
          "name": "",
          "type": "uint256"
        }
      ],
      "stateMutability": "view",
      "type": "function"
    },
    {
      "inputs": [
        {
          "internalType": "uint256",
          "name": "",
          "type": "uint256"
        }
      ],
      "name": "flexibleLoad",
      "outputs": [
        {
          "internalType": "uint256",
          "name": "",
          "type": "uint256"
        }
      ],
      "stateMutability": "view",
      "type": "function"
    },
    {
      "inputs": [],
      "name": "globalContract",
      "outputs": [
        {
          "internalType": "contract GlobalContractInterface",
          "name": "",
          "type": "address"
        }
      ],
      "stateMutability": "view",
      "type": "function"
    },
    {
      "inputs": [],
      "name": "lastKnownGlobalTimestamp",
      "outputs": [
        {
          "internalType": "uint256",
          "name": "",
          "type": "uint256"
        }
      ],
      "stateMutability": "view",
      "type": "function"
    },
    {
      "inputs": [
        {
          "internalType": "int256[]",
          "name": "pos",
          "type": "int256[]"
        }
      ],
      "name": "objectiveFunction",
      "outputs": [
        {
          "internalType": "uint256",
          "name": "",
          "type": "uint256"
        }
      ],
      "stateMutability": "view",
      "type": "function"
    },
    {
      "inputs": [
        {
          "internalType": "uint256",
          "name": "",
          "type": "uint256"
        }
      ],
      "name": "personalBestPosition",
      "outputs": [
        {
          "internalType": "int256",
          "name": "",
          "type": "int256"
        }
      ],
      "stateMutability": "view",
      "type": "function"
    },
    {
      "inputs": [],
      "name": "personalBestScore",
      "outputs": [
        {
          "internalType": "uint256",
          "name": "",
          "type": "uint256"
        }
      ],
      "stateMutability": "view",
      "type": "function"
    },
    {
      "inputs": [
        {
          "internalType": "uint256",
          "name": "",
          "type": "uint256"
        }
      ],
      "name": "position",
      "outputs": [
        {
          "internalType": "int256",
          "name": "",
          "type": "int256"
        }
      ],
      "stateMutability": "view",
      "type": "function"
    },
    {
      "inputs": [
        {
          "internalType": "uint256",
          "name": "",
          "type": "uint256"
        }
      ],
      "name": "renewableGeneration",
      "outputs": [
        {
          "internalType": "uint256",
          "name": "",
          "type": "uint256"
        }
      ],
      "stateMutability": "view",
      "type": "function"
    },
    {
      "inputs": [
        {
          "internalType": "uint256",
          "name": "",
          "type": "uint256"
        }
      ],
      "name": "tariff",
      "outputs": [
        {
          "internalType": "uint256",
          "name": "",
          "type": "uint256"
        }
      ],
      "stateMutability": "view",
      "type": "function"
    },
    {
      "inputs": [],
      "name": "updateBestPositions",
      "outputs": [],
      "stateMutability": "nonpayable",
      "type": "function"
    },
    {
      "inputs": [],
      "name": "updateVelocityAndPosition",
      "outputs": [],
      "stateMutability": "nonpayable",
      "type": "function"
    },
    {
      "inputs": [
        {
          "internalType": "uint256",
          "name": "",
          "type": "uint256"
        }
      ],
      "name": "velocity",
      "outputs": [
        {
          "internalType": "int256",
          "name": "",
          "type": "int256"
        }
      ],
      "stateMutability": "view",
      "type": "function"
    },
    {
      "inputs": [],
      "name": "w",
      "outputs": [
        {
          "internalType": "int256",
          "name": "",
          "type": "int256"
        }
      ],
      "stateMutability": "view",
      "type": "function"
    }
  ],
  "bytecode": "0x608060405234620006c85762001750803803806200001d81620006cd565b928339810161012082820312620006c85781516001600160a01b0381169190829003620006c8576020838101519093906001600160401b038111620006c857826200006a9183016200070b565b60408201516001600160401b038111620006c857836200008c9184016200070b565b60608301516001600160401b038111620006c85784620000ae9185016200076f565b60808401516001600160401b038111620006c85785620000d09186016200076f565b60a08501519092906001600160401b038111620006c85786620000f59187016200076f565b60c08601519094906001600160401b038111620006c857876200011a9188016200076f565b60e08701519096906001600160401b038111620006c857886200013f9183016200076f565b6101008201519098906001600160401b038111620006c8576200016392016200076f565b600019600355603260055560966006819055600755600e80546001600160a01b0319169099179098558051916001600160401b038311620004a857680100000000000000008311620004a857600054836000558084106200069d575b508982019283600080528b6000208c60005b848110620006895750508351939250506001600160401b0383119050620004a857680100000000000000008211620004a8578a90600154836001558084106200065a575b500160016000528a60002060005b838110620006475750509151929150506001600160401b038211620004a857680100000000000000008211620004a857600254826002558083106200061b575b5060026000528860002060005b838110620006085750508251929150506001600160401b038211620004a857680100000000000000008211620004a857879060085483600855808410620005d9575b500160086000528760002060005b838110620005c65750508251929150506001600160401b038211620004a857680100000000000000008211620004a85786906009548360095580841062000597575b500160096000528660002060005b838110620005845750508251929150506001600160401b038211620004a857680100000000000000008211620004a8578590600a5483600a5580841062000555575b5001600a6000528560002060005b838110620005425750508251929150506001600160401b038211620004a857680100000000000000008211620004a8578490600b5483600b5580841062000513575b5001600b6000528460002060005b838110620005005750508251929150506001600160401b038211620004a857680100000000000000008211620004a8578390600c5483600c55808410620004d1575b5001600c6000528360002060005b838110620004be5784518690866001600160401b038211620004a857680100000000000000008211620004a8578290600d5483600d5580841062000479575b5001600d600052826000209260005b8381106200046657604051610f829081620007ce8239f35b825185820155918101916001016200044e565b600d600052838360002091820191015b8181106200049857506200043f565b6000815585935060010162000489565b634e487b7160e01b600052604160045260246000fd5b8251828201559185019160010162000400565b600c600052838360002091820191015b818110620004f05750620003f2565b60008155869350600101620004e1565b82518282015591860191600101620003b0565b600b600052838360002091820191015b818110620005325750620003a2565b6000815587935060010162000523565b8251828201559187019160010162000360565b600a600052838360002091820191015b81811062000574575062000352565b6000815588935060010162000565565b8251828201559188019160010162000310565b6009600052838360002091820191015b818110620005b6575062000302565b60008155899350600101620005a7565b82518282015591890191600101620002c0565b6008600052838360002091820191015b818110620005f85750620002b2565b600081558a9350600101620005e9565b825182820155918a019160010162000270565b6002600052828a60002091820191015b8181106200063a575062000263565b600081556001016200062b565b825182820155918c019160010162000223565b6001600052838360002091820191015b81811062000679575062000215565b600081558d93506001016200066a565b8351838201559201918d90600101620001d1565b60008052838b60002091820191015b818110620006bb5750620001bf565b60008155600101620006ac565b600080fd5b6040519190601f01601f191682016001600160401b03811183821017620004a857604052565b6001600160401b038111620004a85760051b60200190565b9080601f83011215620006c857815190602091620007336200072d82620006f3565b620006cd565b9360208086848152019260051b820101928311620006c857602001905b8282106200075f575050505090565b8151815290830190830162000750565b9080601f83011215620006c857815190602091620007916200072d82620006f3565b9360208086848152019260051b820101928311620006c857602001905b828210620007bd575050505090565b81518152908301908301620007ae56fe6040608081526004908136101561001557600080fd5b600091823560e01c806316b5192814610643578063205c9cc714610624578063364132d91461059157806348e257cb146105725780634d985ae4146105535780634eb274ff146105065780635f57697c146104e75780636f240774146104bd57806390ccfa0f1461049457806396d14da614610447578063973b9cc114610251578063a86853d514610227578063ab1bbeca146101d7578063b6ce670914610187578063d0c6c7af1461016a578063e329143f14610140578063f6451c0a146101245763f7a95a9e146100e757600080fd5b34610120576020366003190112610120573591805483101561011d575061010f60209261075b565b91905490519160031b1c8152f35b80fd5b8280fd5b833461011d578060031936011261011d5761013d610ac8565b80f35b5034610120576020366003190112610120573591600d5483101561011d575061010f602092610724565b503461012057826003193601126101205760209250549051908152f35b50346101205760203660031901126101205735600b548110156101205760209250600b6000527f0175b7a638427703f0dbe7bb9bbf987a2551717b34e79f33b5b1008d1fa01db901549051908152f35b50346101205760203660031901126101205735600954811015610120576020925060096000527f6e1540171b6c0c960b71a7020d9f60077f6af931a8bbf590da0223dacf75c7af01549051908152f35b503461012057602036600319011261012057359160025483101561011d575061010f6020926106ed565b50919034610443578160031936011261044357610282815161027d8161027681610a17565b03826107a5565b61082c565b92600354841061031a575b600e54929384936001600160a01b031690813b1561031657849184518096818094632b64b97960e01b825288888301526102c960448301610a17565b90602483015203925af1801561030c576102e1578380f35b67ffffffffffffffff83116102f95750523880808380f35b634e487b7160e01b845260419052602483fd5b82513d86823e3d90fd5b8480fd5b8360035582549367ffffffffffffffff85116104305768010000000000000000851161043057600254856002558086106103f0575b507f290decd9548b62a8d60345a988386fc84ba6bc95484008f6362f93160ef3e5639460028552855485905b8282106103ba5750505083945082518181527f60b985a91456caf8829cc2cce7adb4018cacdfcd3c752494fce97c6862f83a8a60203092a2935061028d565b60018091980191825498817f405787fa12a823e0f2b7631cc41b3ba8828b3321ca811111fa75cd3aa3bb5ace015501909661037b565b857f405787fa12a823e0f2b7631cc41b3ba8828b3321ca811111fa75cd3aa3bb5ace91820191015b818110610425575061034f565b858155600101610418565b634e487b7160e01b845260418252602484fd5b5080fd5b50346101205760203660031901126101205735600a5481101561012057600a602093527fc65a7bb8d6351c1cf70c95a316cc6a92839c986682d98bc35f958f4883f9d2a801549051908152f35b505034610443578160031936011261044357600e5490516001600160a01b039091168152602090f35b503461012057602036600319011261012057359160015483101561011d575061010f6020926106b6565b5050346104435781600319360112610443576020906006549051908152f35b50346101205760203660031901126101205735600c5481101561012057600c602093527fdf6966c971051c3d54ec59162606531493a51404a002842f56009d7e5cf4a8c701549051908152f35b5050346104435781600319360112610443576020906003549051908152f35b5050346104435781600319360112610443576020906007549051908152f35b50913461011d57602090602060031936011261011d5783359367ffffffffffffffff85116104435736602386011215610443578401356105d0816107dd565b946105dd855196876107a5565b8186526024602087019260051b8201019236841161011d5750602401905b8282106106155760208561060e8861082c565b9051908152f35b813581529083019083016105fb565b5050346104435781600319360112610443576020906005549051908152f35b503461012057602036600319011261012057359160085483101561011d575061010f6020925b6008548110156106a05760086000527ff3f7a9fe364faab93b216da50a3214154f22a0a2b415b23a84c8169e8b636ee30190600090565b634e487b7160e01b600052603260045260246000fd5b6001548110156106a05760016000527fb10e2d527612073b26eecdfd717e6a320cf44b4afac2b0732d9fcbe2b7fa0cf60190600090565b6002548110156106a05760026000527f405787fa12a823e0f2b7631cc41b3ba8828b3321ca811111fa75cd3aa3bb5ace0190600090565b600d548110156106a057600d6000527fd7b6990105719101dabeb77144f2a3385c8033acd3af97e9423a695e81ad1eb50190600090565b906000918254811015610791578280527f290decd9548b62a8d60345a988386fc84ba6bc95484008f6362f93160ef3e563019190565b634e487b7160e01b83526032600452602483fd5b90601f8019910116810190811067ffffffffffffffff8211176107c757604052565b634e487b7160e01b600052604160045260246000fd5b67ffffffffffffffff81116107c75760051b60200190565b80518210156106a05760209160051b010190565b9190820391821161081657565b634e487b7160e01b600052601160045260246000fd5b600090805160405180600a54808352602080930190600a87527fc65a7bb8d6351c1cf70c95a316cc6a92839c986682d98bc35f958f4883f9d2a890875b818110610a03575050508161087f9103826107a5565b60405180926020600c54928381520191600c88527fdf6966c971051c3d54ec59162606531493a51404a002842f56009d7e5cf4a8c79188905b8282106109ec5750505050826108cf9103836107a5565b84935b8385106108e157505050505090565b909192939460006108f287846107f5565b5112156109dc5760005b808061090889876107f5565b51106109bb57506109239061091d88866107f5565b51610809565b61092d87856107f5565b5260005b8061093c88876107f5565b5110610994576109509061091d88876107f5565b61095a87866107f5565b5260005b61096787610669565b90549060031b1c8181029181830414901517156108165781018091116108165794600101939291906108d2565b6109a9906109a288876107f5565b5190610809565b60006109b588876107f5565b5261095e565b6109ca91506109a288866107f5565b60006109d688866107f5565b52610931565b6109e686836107f5565b516108fc565b8354855293840193600193840193909101906108b8565b825484529285019260019283019201610869565b600080548083528180526020928301927f290decd9548b62a8d60345a988386fc84ba6bc95484008f6362f93160ef3e56392905b828210610a59575050505090565b835485529384019360019384019390910190610a4b565b8181039291600013801582851316918412161761081657565b818102929160008212600160ff1b82141661081657818405149015171561081657565b9190916000838201938412911290801582169115161761081657565b600e54604080516302989b4b60e61b8152600493926020916001600160a01b0391839082908890829086165afa908115610f4157600091610f14575b508554811115610e335782917fc06999d659d5132dd93a1915097da1a6a24201916389e38da2404e4bca5e59be8795948360009488558651908152a1600e5416835194858092631e385f6960e01b82525afa928315610f0957600093610e72575b50825160005403610e3b5760005b600054811015610e3357610b868161075b565b905484514285820190815260208101859052600393841b9290921c604083015280606083010390610bbf601f19928381018352826107a5565b60649283915190200690600191828601808711610e1e57846065918a610c1c8b610c10610beb8d6106b6565b9054908d1b1c9351938492830195428791606093918352602083015260408201520190565b038781018352826107a5565b5190200692610c2a886106b6565b905490881b1c90610c638b519182610c578d8201958d428891606093918352602083015260408201520190565b039081018352826107a5565b5190200792603119840193841316610e0957610d4992610d21859384610d1189610d0c8f610d2698839c60019f9e8f93610d0c610d0386610ceb610cd582610ccf610d1198610cb4610d189d6106ed565b905490821b1c90610cc48461075b565b9054911b1c90610a70565b966107f5565b51610cdf8361075b565b9054908d1b1c90610a70565b99610cf8600554926106b6565b9054911b1c90610a89565b94600654610a89565b610a89565b0590610aac565b94600754610a89565b610aac565b05610d30846106b6565b90919082549060031b91821b91600019901b1916179055565b610d7c610d73610d588461075b565b905490841b1c610d67856106b6565b905490851b1c90610aac565b610d308461075b565b6000610d878361075b565b905490831b1c12610ded575b610d9c8261075b565b905490821b1c610dab83610724565b905490831b1c10610dbe575b5001610b73565b610dde610de791610dce8461075b565b905490821b1c90610cc485610724565b610d308361075b565b38610db7565b610df68261075b565b81549060001990841b1b19169055610d93565b60118b634e487b7160e01b6000525260246000fd5b60118c634e487b7160e01b6000525260246000fd5b505050509050565b8490606492519162461bcd60e51b8352820152601260248201527144696d656e7369756e6920696e6567616c6560701b6044820152fd5b9290923d8083833e610e8481836107a5565b81019084818303126101205780519067ffffffffffffffff8211610f05570181601f8201121561012057805190610eba826107dd565b93610ec7865195866107a5565b828552868086019360051b83010193841161011d575085809101915b838310610ef557505050509138610b65565b8251815291810191869101610ee3565b8380fd5b82513d6000823e3d90fd5b908382813d8311610f3a575b610f2a81836107a5565b8101031261011d57505138610b04565b503d610f20565b84513d6000823e3d90fdfea264697066735822122091beb25f3ce0aad557de056b50ee2c512eb50ecfb59f75fb8c7eecfa159304da64736f6c63430008170033",
  "linkReferences": {},
  "deployedLinkReferences": {}
}