{"contracts/GlobalContract.sol":{"GlobalContract":{"abi":[{"inputs":[],"stateMutability":"nonpayable","type":"constructor"},{"inputs":[],"name":"getGlobalBestPosition","outputs":[{"internalType":"uint256[]","name":"","type":"uint256[]"}],"stateMutability":"view","type":"function"},{"inputs":[{"internalType":"uint256","name":"","type":"uint256"}],"name":"globalBestPosition","outputs":[{"internalType":"uint256","name":"","type":"uint256"}],"stateMutability":"view","type":"function"},{"inputs":[],"name":"globalBestScore","outputs":[{"internalType":"uint256","name":"","type":"uint256"}],"stateMutability":"view","type":"function"},{"inputs":[{"internalType":"uint256[]","name":"newPosition","type":"uint256[]"},{"internalType":"uint256","name":"newScore","type":"uint256"}],"name":"updateGlobalBestPosition","outputs":[],"stateMutability":"nonpayable","type":"function"}],"evm":{"bytecode":{"linkReferences":{},"object":"6080346100c657600019600190815590606081016001600160401b038111828210176100b057604052600a8152602060146020830152601e60408301526000908154926003936003845580600310610087575b509180805260208120905b848110610073576040516102c690816100cc8239f35b835160ff168282015592820192850161005d565b8380528560036020862092830192015b8281106100a5575050610052565b858155018690610097565b634e487b7160e01b600052604160045260246000fd5b600080fdfe608060408181526004918236101561001657600080fd5b600092833560e01c9182632ba8f1b3146101a8575081637fe1e8331461016e578163a5cdc59b14610072575063cb79ff551461005157600080fd5b3461006e578160031936011261006e576020906001549051908152f35b5080fd5b9190503461016a5736600319011261006e5767ffffffffffffffff813581811161016657366023820112156101665780830135918211610166573660248360051b83010111610166576024359260019360015481106100cf578580f35b60015568010000000000000000831161015357508354828555808310610123575b50602401835b82811061010257808580f35b839060208335930192816000805160206102718339815191520155016100f6565b838360008051602061027183398151915292830192015b8281106101485750506100f0565b86815501849061013a565b634e487b7160e01b855260419052602484fd5b8380fd5b8280fd5b90503461016a57602036600319011261016a5735825481101561016a57826020935260008051602061027183398151915201549051908152f35b8490843461016a578260031936011261016a57825492838352602091828401809583805260008051602061027183398151915290845b8682821061025c5750505050849003601f01601f191684019567ffffffffffffffff871185881017610249575085815282865292518583018190528594938501939290915b82811061023257505050500390f35b835185528695509381019392810192600101610223565b634e487b7160e01b835260419052602482fd5b8354855290930192600192830192016101de56fe290decd9548b62a8d60345a988386fc84ba6bc95484008f6362f93160ef3e563a2646970667358221220a1ebe724ce9c35d501c3ba5a0626e8dc77cce5883e283895bdee8c53a1002de464736f6c63430008170033","opcodes":"PUSH1 0x80 CALLVALUE PUSH2 0xC6 JUMPI PUSH1 0x0 NOT PUSH1 0x1 SWAP1 DUP2 SSTORE SWAP1 PUSH1 0x60 DUP2 ADD PUSH1 0x1 PUSH1 0x1 PUSH1 0x40 SHL SUB DUP2 GT DUP3 DUP3 LT OR PUSH2 0xB0 JUMPI PUSH1 0x40 MSTORE PUSH1 0xA DUP2 MSTORE PUSH1 0x20 PUSH1 0x14 PUSH1 0x20 DUP4 ADD MSTORE PUSH1 0x1E PUSH1 0x40 DUP4 ADD MSTORE PUSH1 0x0 SWAP1 DUP2 SLOAD SWAP3 PUSH1 0x3 SWAP4 PUSH1 0x3 DUP5 SSTORE DUP1 PUSH1 0x3 LT PUSH2 0x87 JUMPI JUMPDEST POP SWAP2 DUP1 DUP1 MSTORE PUSH1 0x20 DUP2 KECCAK256 SWAP1 JUMPDEST DUP5 DUP2 LT PUSH2 0x73 JUMPI PUSH1 0x40 MLOAD PUSH2 0x2C6 SWAP1 DUP2 PUSH2 0xCC DUP3 CODECOPY RETURN JUMPDEST DUP4 MLOAD PUSH1 0xFF AND DUP3 DUP3 ADD SSTORE SWAP3 DUP3 ADD SWAP3 DUP6 ADD PUSH2 0x5D JUMP JUMPDEST DUP4 DUP1 MSTORE DUP6 PUSH1 0x3 PUSH1 0x20 DUP7 KECCAK256 SWAP3 DUP4 ADD SWAP3 ADD JUMPDEST DUP3 DUP2 LT PUSH2 0xA5 JUMPI POP POP PUSH2 0x52 JUMP JUMPDEST DUP6 DUP2 SSTORE ADD DUP7 SWAP1 PUSH2 0x97 JUMP JUMPDEST PUSH4 0x4E487B71 PUSH1 0xE0 SHL PUSH1 0x0 MSTORE PUSH1 0x41 PUSH1 0x4 MSTORE PUSH1 0x24 PUSH1 0x0 REVERT JUMPDEST PUSH1 0x0 DUP1 REVERT INVALID PUSH1 0x80 PUSH1 0x40 DUP2 DUP2 MSTORE PUSH1 0x4 SWAP2 DUP3 CALLDATASIZE LT ISZERO PUSH2 0x16 JUMPI PUSH1 0x0 DUP1 REVERT JUMPDEST PUSH1 0x0 SWAP3 DUP4 CALLDATALOAD PUSH1 0xE0 SHR SWAP2 DUP3 PUSH4 0x2BA8F1B3 EQ PUSH2 0x1A8 JUMPI POP DUP2 PUSH4 0x7FE1E833 EQ PUSH2 0x16E JUMPI DUP2 PUSH4 0xA5CDC59B EQ PUSH2 0x72 JUMPI POP PUSH4 0xCB79FF55 EQ PUSH2 0x51 JUMPI PUSH1 0x0 DUP1 REVERT JUMPDEST CALLVALUE PUSH2 0x6E JUMPI DUP2 PUSH1 0x3 NOT CALLDATASIZE ADD SLT PUSH2 0x6E JUMPI PUSH1 0x20 SWAP1 PUSH1 0x1 SLOAD SWAP1 MLOAD SWAP1 DUP2 MSTORE RETURN JUMPDEST POP DUP1 REVERT JUMPDEST SWAP2 SWAP1 POP CALLVALUE PUSH2 0x16A JUMPI CALLDATASIZE PUSH1 0x3 NOT ADD SLT PUSH2 0x6E JUMPI PUSH8 0xFFFFFFFFFFFFFFFF DUP2 CALLDATALOAD DUP2 DUP2 GT PUSH2 0x166 JUMPI CALLDATASIZE PUSH1 0x23 DUP3 ADD SLT ISZERO PUSH2 0x166 JUMPI DUP1 DUP4 ADD CALLDATALOAD SWAP2 DUP3 GT PUSH2 0x166 JUMPI CALLDATASIZE PUSH1 0x24 DUP4 PUSH1 0x5 SHL DUP4 ADD ADD GT PUSH2 0x166 JUMPI PUSH1 0x24 CALLDATALOAD SWAP3 PUSH1 0x1 SWAP4 PUSH1 0x1 SLOAD DUP2 LT PUSH2 0xCF JUMPI DUP6 DUP1 RETURN JUMPDEST PUSH1 0x1 SSTORE PUSH9 0x10000000000000000 DUP4 GT PUSH2 0x153 JUMPI POP DUP4 SLOAD DUP3 DUP6 SSTORE DUP1 DUP4 LT PUSH2 0x123 JUMPI JUMPDEST POP PUSH1 0x24 ADD DUP4 JUMPDEST DUP3 DUP2 LT PUSH2 0x102 JUMPI DUP1 DUP6 DUP1 RETURN JUMPDEST DUP4 SWAP1 PUSH1 0x20 DUP4 CALLDATALOAD SWAP4 ADD SWAP3 DUP2 PUSH1 0x0 DUP1 MLOAD PUSH1 0x20 PUSH2 0x271 DUP4 CODECOPY DUP2 MLOAD SWAP2 MSTORE ADD SSTORE ADD PUSH2 0xF6 JUMP JUMPDEST DUP4 DUP4 PUSH1 0x0 DUP1 MLOAD PUSH1 0x20 PUSH2 0x271 DUP4 CODECOPY DUP2 MLOAD SWAP2 MSTORE SWAP3 DUP4 ADD SWAP3 ADD JUMPDEST DUP3 DUP2 LT PUSH2 0x148 JUMPI POP POP PUSH2 0xF0 JUMP JUMPDEST DUP7 DUP2 SSTORE ADD DUP5 SWAP1 PUSH2 0x13A JUMP JUMPDEST PUSH4 0x4E487B71 PUSH1 0xE0 SHL DUP6 MSTORE PUSH1 0x41 SWAP1 MSTORE PUSH1 0x24 DUP5 REVERT JUMPDEST DUP4 DUP1 REVERT JUMPDEST DUP3 DUP1 REVERT JUMPDEST SWAP1 POP CALLVALUE PUSH2 0x16A JUMPI PUSH1 0x20 CALLDATASIZE PUSH1 0x3 NOT ADD SLT PUSH2 0x16A JUMPI CALLDATALOAD DUP3 SLOAD DUP2 LT ISZERO PUSH2 0x16A JUMPI DUP3 PUSH1 0x20 SWAP4 MSTORE PUSH1 0x0 DUP1 MLOAD PUSH1 0x20 PUSH2 0x271 DUP4 CODECOPY DUP2 MLOAD SWAP2 MSTORE ADD SLOAD SWAP1 MLOAD SWAP1 DUP2 MSTORE RETURN JUMPDEST DUP5 SWAP1 DUP5 CALLVALUE PUSH2 0x16A JUMPI DUP3 PUSH1 0x3 NOT CALLDATASIZE ADD SLT PUSH2 0x16A JUMPI DUP3 SLOAD SWAP3 DUP4 DUP4 MSTORE PUSH1 0x20 SWAP2 DUP3 DUP5 ADD DUP1 SWAP6 DUP4 DUP1 MSTORE PUSH1 0x0 DUP1 MLOAD PUSH1 0x20 PUSH2 0x271 DUP4 CODECOPY DUP2 MLOAD SWAP2 MSTORE SWAP1 DUP5 JUMPDEST DUP7 DUP3 DUP3 LT PUSH2 0x25C JUMPI POP POP POP POP DUP5 SWAP1 SUB PUSH1 0x1F ADD PUSH1 0x1F NOT AND DUP5 ADD SWAP6 PUSH8 0xFFFFFFFFFFFFFFFF DUP8 GT DUP6 DUP9 LT OR PUSH2 0x249 JUMPI POP DUP6 DUP2 MSTORE DUP3 DUP7 MSTORE SWAP3 MLOAD DUP6 DUP4 ADD DUP2 SWAP1 MSTORE DUP6 SWAP5 SWAP4 DUP6 ADD SWAP4 SWAP3 SWAP1 SWAP2 JUMPDEST DUP3 DUP2 LT PUSH2 0x232 JUMPI POP POP POP POP SUB SWAP1 RETURN JUMPDEST DUP4 MLOAD DUP6 MSTORE DUP7 SWAP6 POP SWAP4 DUP2 ADD SWAP4 SWAP3 DUP2 ADD SWAP3 PUSH1 0x1 ADD PUSH2 0x223 JUMP JUMPDEST PUSH4 0x4E487B71 PUSH1 0xE0 SHL DUP4 MSTORE PUSH1 0x41 SWAP1 MSTORE PUSH1 0x24 DUP3 REVERT JUMPDEST DUP4 SLOAD DUP6 MSTORE SWAP1 SWAP4 ADD SWAP3 PUSH1 0x1 SWAP3 DUP4 ADD SWAP3 ADD PUSH2 0x1DE JUMP INVALID 0x29 0xD 0xEC 0xD9 SLOAD DUP12 PUSH3 0xA8D603 GASLIMIT 0xA9 DUP9 CODESIZE PUSH16 0xC84BA6BC95484008F6362F93160EF3E5 PUSH4 0xA2646970 PUSH7 0x7358221220A1EB 0xE7 0x24 0xCE SWAP13 CALLDATALOAD 0xD5 ADD 0xC3 0xBA GAS MOD 0x26 0xE8 0xDC PUSH24 0xCCE5883E283895BDEE8C53A1002DE464736F6C6343000817 STOP CALLER "},"methodIdentifiers":{"getGlobalBestPosition()":"2ba8f1b3","globalBestPosition(uint256)":"7fe1e833","globalBestScore()":"cb79ff55","updateGlobalBestPosition(uint256[],uint256)":"a5cdc59b"}}}}}