{"contracts/Node.sol":{"Node":{"abi":[{"inputs":[{"internalType":"address","name":"globalContractAddress","type":"address"},{"internalType":"int256[]","name":"initialPosition","type":"int256[]"},{"internalType":"int256[]","name":"initialVelocity","type":"int256[]"},{"internalType":"int256[]","name":"initialTariff","type":"int256[]"},{"internalType":"uint256[]","name":"initialCapacity","type":"uint256[]"},{"internalType":"uint256[]","name":"initialRenewableGeneration","type":"uint256[]"},{"internalType":"uint256[]","name":"initialBatteryCapacity","type":"uint256[]"},{"internalType":"uint256[]","name":"initialBatteryCharge","type":"uint256[]"},{"internalType":"uint256[]","name":"initialFlexibleLoad","type":"uint256[]"},{"internalType":"uint256[]","name":"_flexibilityAbove","type":"uint256[]"},{"internalType":"uint256[]","name":"_flexibilityBelow","type":"uint256[]"}],"stateMutability":"nonpayable","type":"constructor"},{"anonymous":false,"inputs":[{"indexed":true,"internalType":"address","name":"node","type":"address"},{"indexed":false,"internalType":"int256","name":"newScore","type":"int256"}],"name":"BestPositionUpdated","type":"event"},{"anonymous":false,"inputs":[{"indexed":false,"internalType":"uint256","name":"timestamp","type":"uint256"}],"name":"NewPlanReceived","type":"event"},{"inputs":[{"internalType":"uint256","name":"","type":"uint256"}],"name":"batteryCapacity","outputs":[{"internalType":"uint256","name":"","type":"uint256"}],"stateMutability":"view","type":"function"},{"inputs":[{"internalType":"uint256","name":"","type":"uint256"}],"name":"batteryCharge","outputs":[{"internalType":"uint256","name":"","type":"uint256"}],"stateMutability":"view","type":"function"},{"inputs":[],"name":"c1","outputs":[{"internalType":"int256","name":"","type":"int256"}],"stateMutability":"view","type":"function"},{"inputs":[],"name":"c2","outputs":[{"internalType":"int256","name":"","type":"int256"}],"stateMutability":"view","type":"function"},{"inputs":[{"internalType":"uint256","name":"","type":"uint256"}],"name":"capacity","outputs":[{"internalType":"uint256","name":"","type":"uint256"}],"stateMutability":"view","type":"function"},{"inputs":[{"internalType":"uint256","name":"","type":"uint256"}],"name":"flexibilityAbove","outputs":[{"internalType":"uint256","name":"","type":"uint256"}],"stateMutability":"view","type":"function"},{"inputs":[{"internalType":"uint256","name":"","type":"uint256"}],"name":"flexibilityBelow","outputs":[{"internalType":"uint256","name":"","type":"uint256"}],"stateMutability":"view","type":"function"},{"inputs":[{"internalType":"uint256","name":"","type":"uint256"}],"name":"flexibleLoad","outputs":[{"internalType":"uint256","name":"","type":"uint256"}],"stateMutability":"view","type":"function"},{"inputs":[{"internalType":"uint256","name":"","type":"uint256"}],"name":"frozenBatteryCharge","outputs":[{"internalType":"uint256","name":"","type":"uint256"}],"stateMutability":"view","type":"function"},{"inputs":[{"internalType":"uint256","name":"","type":"uint256"}],"name":"frozenRenewableGeneration","outputs":[{"internalType":"uint256","name":"","type":"uint256"}],"stateMutability":"view","type":"function"},{"inputs":[{"internalType":"uint256","name":"hour","type":"uint256"},{"internalType":"int256","name":"consumption","type":"int256"}],"name":"getEffectiveTariff","outputs":[{"internalType":"int256","name":"","type":"int256"}],"stateMutability":"view","type":"function"},{"inputs":[],"name":"getFrozenCost","outputs":[{"internalType":"int256","name":"","type":"int256"}],"stateMutability":"view","type":"function"},{"inputs":[],"name":"getPersonalBestPosition","outputs":[{"internalType":"int256[]","name":"","type":"int256[]"}],"stateMutability":"view","type":"function"},{"inputs":[],"name":"getPosition","outputs":[{"internalType":"int256[]","name":"","type":"int256[]"}],"stateMutability":"view","type":"function"},{"inputs":[],"name":"globalContract","outputs":[{"internalType":"contract GlobalContractInterface","name":"","type":"address"}],"stateMutability":"view","type":"function"},{"inputs":[],"name":"lastKnownGlobalTimestamp","outputs":[{"internalType":"uint256","name":"","type":"uint256"}],"stateMutability":"view","type":"function"},{"inputs":[{"internalType":"int256[]","name":"pos","type":"int256[]"}],"name":"objectiveFunction","outputs":[{"internalType":"int256","name":"","type":"int256"}],"stateMutability":"view","type":"function"},{"inputs":[{"internalType":"int256[]","name":"pos","type":"int256[]"}],"name":"objectiveFunctionFrozen","outputs":[{"internalType":"int256","name":"","type":"int256"}],"stateMutability":"view","type":"function"},{"inputs":[{"internalType":"uint256","name":"","type":"uint256"}],"name":"personalBestPosition","outputs":[{"internalType":"int256","name":"","type":"int256"}],"stateMutability":"view","type":"function"},{"inputs":[],"name":"personalBestScore","outputs":[{"internalType":"int256","name":"","type":"int256"}],"stateMutability":"view","type":"function"},{"inputs":[{"internalType":"uint256","name":"","type":"uint256"}],"name":"position","outputs":[{"internalType":"int256","name":"","type":"int256"}],"stateMutability":"view","type":"function"},{"inputs":[{"internalType":"uint256","name":"","type":"uint256"}],"name":"renewableGeneration","outputs":[{"internalType":"uint256","name":"","type":"uint256"}],"stateMutability":"view","type":"function"},{"inputs":[{"internalType":"uint256","name":"","type":"uint256"}],"name":"tariff","outputs":[{"internalType":"int256","name":"","type":"int256"}],"stateMutability":"view","type":"function"},{"inputs":[],"name":"updateBestPositions","outputs":[],"stateMutability":"nonpayable","type":"function"},{"inputs":[],"name":"updateVelocityAndPosition","outputs":[],"stateMutability":"nonpayable","type":"function"},{"inputs":[{"internalType":"uint256","name":"","type":"uint256"}],"name":"velocity","outputs":[{"internalType":"int256","name":"","type":"int256"}],"stateMutability":"view","type":"function"},{"inputs":[],"name":"w","outputs":[{"internalType":"int256","name":"","type":"int256"}],"stateMutability":"view","type":"function"}],"evm":{"bytecode":{"linkReferences":{},"object":"60806040523462000bd257620029a8803803806200001d8162000bd7565b92833981016101608282031262000bd25781516001600160a01b038116919082900362000bd25760208301516001600160401b03811162000bd257816200006691850162000c15565b60408401519093906001600160401b03811162000bd257826200008b91830162000c15565b60608201516001600160401b03811162000bd25783620000ad91840162000c15565b60808301516001600160401b03811162000bd25784620000cf91850162000c15565b60a08401516001600160401b03811162000bd25785620000f191860162000c15565b60c08501519091906001600160401b03811162000bd257866200011691870162000c15565b60e08601519093906001600160401b03811162000bd257876200013b91880162000c15565b6101008701519095906001600160401b03811162000bd257886200016191890162000c15565b6101208801519097906001600160401b03811162000bd257896200018791830162000c15565b6101408201519099906001600160401b03811162000bd257620001ab920162000c15565b6001600160ff1b03600355603260055560c86006819055600755601080546001600160a01b031916909a179099558951620001e69062000c79565b8051906001600160401b038211620008905768010000000000000000821162000890576000548260005580831062000b9b575b5060200160008052602060002060005b83811062000b86575050505062000241815162000c79565b8051906001600160401b038211620008905768010000000000000000821162000890576001548260015580831062000b4d575b506020016001600052602060002060005b83811062000b3857505050506200029d8a5162000c79565b8051906001600160401b038211620008905768010000000000000000821162000890576002548260025580831062000aff575b506020016002600052602060002060005b83811062000aea5750505050620002f9825162000c79565b8051906001600160401b038211620008905768010000000000000000821162000890576008548260085580831062000ab1575b506020016008600052602060002060005b83811062000a9c575050505062000355835162000c79565b8051906001600160401b038211620008905768010000000000000000821162000890576009548260095580831062000a63575b506020016009600052602060002060005b83811062000a4e5750505050620003b1845162000c79565b8051906001600160401b03821162000890576801000000000000000082116200089057600a5482600a5580831062000a15575b50602001600a600052602060002060005b83811062000a0057505050506200040d855162000c79565b8051906001600160401b03821162000890576801000000000000000082116200089057600b5482600b55808310620009b6575b50602001600b600052602060002060005b838110620009a1575050505062000469865162000c79565b8051906001600160401b03821162000890576801000000000000000082116200089057600c5482600c5580831062000957575b50602001600c600052602060002060005b838110620009425750505050620004c5875162000c79565b8051906001600160401b03821162000890576801000000000000000082116200089057600d5482600d5580831062000909575b50602001600d600052602060002060005b838110620008f4575050505062000521885162000c79565b8051906001600160401b03821162000890576801000000000000000082116200089057600e5482600e55808310620008bb575b50602001600e600052602060002060005b838110620008a657505050506200057d895162000c79565b8051906001600160401b03821162000890576801000000000000000082116200089057600f5482600f5580831062000846575b50602001600f600052602060002060005b83811062000831575050505060005b8a518110156200082157620005e6818c62000ca6565b516000548210156200080b57600080526000805160206200290883398151915282015562000615818c62000ca6565b516002548210156200080b576002600052600080516020620028a883398151915282015562000645818362000ca6565b516001548210156200080b5760016000526000805160206200298883398151915282015562000675818462000ca6565b516008548210156200080b57600860005260008051602062002948833981519152820155620006a5818562000ca6565b516009548210156200080b57600960005260008051602062002968833981519152820155620006d5818662000ca6565b51600a548210156200080b57600a600052600080516020620028e883398151915282015562000705818762000ca6565b51600b548210156200080b57600b6000527f0175b7a638427703f0dbe7bb9bbf987a2551717b34e79f33b5b1008d1fa01db982015562000746818862000ca6565b51600c548210156200080b57600c6000527fdf6966c971051c3d54ec59162606531493a51404a002842f56009d7e5cf4a8c782015562000787818962000ca6565b51600d548210156200080b57600d60005260008051602062002928833981519152820155620007b7818a62000ca6565b51600e548210156200080b57600e600052600080516020620028c8833981519152820155620007e7818b62000ca6565b5190600f548110156200080b57600191600f600052816020600020015501620005d0565b634e487b7160e01b600052603260045260246000fd5b604051611bec908162000cbc8239f35b600190602084519401938184015501620005c1565b600f6000527f8d1108e10bcb7c27dddfc02ed9d693a074039d026cf4ea4240b40f7d581ac802908382015b818301811062000883575050620005b0565b6000815560010162000871565b634e487b7160e01b600052604160045260246000fd5b60019060208451940193818401550162000565565b600e600052600080516020620028c8833981519152908382015b8183018110620008e757505062000554565b60008155600101620008d5565b60019060208451940193818401550162000509565b600d60005260008051602062002928833981519152908382015b818301811062000935575050620004f8565b6000815560010162000923565b600190602084519401938184015501620004ad565b600c6000527fdf6966c971051c3d54ec59162606531493a51404a002842f56009d7e5cf4a8c7908382015b8183018110620009945750506200049c565b6000815560010162000982565b60019060208451940193818401550162000451565b600b6000527f0175b7a638427703f0dbe7bb9bbf987a2551717b34e79f33b5b1008d1fa01db9908382015b8183018110620009f357505062000440565b60008155600101620009e1565b600190602084519401938184015501620003f5565b600a600052600080516020620028e8833981519152908382015b818301811062000a41575050620003e4565b6000815560010162000a2f565b60019060208451940193818401550162000399565b600960005260008051602062002968833981519152908382015b818301811062000a8f57505062000388565b6000815560010162000a7d565b6001906020845194019381840155016200033d565b600860005260008051602062002948833981519152908382015b818301811062000add5750506200032c565b6000815560010162000acb565b600190602084519401938184015501620002e1565b6002600052600080516020620028a8833981519152908382015b818301811062000b2b575050620002d0565b6000815560010162000b19565b60019060208451940193818401550162000285565b600160005260008051602062002988833981519152908382015b818301811062000b7957505062000274565b6000815560010162000b67565b60019060208451940193818401550162000229565b60008052600080516020620029088339815191529081019083015b81811062000bc5575062000219565b6000815560010162000bb6565b600080fd5b6040519190601f01601f191682016001600160401b038111838210176200089057604052565b6001600160401b038111620008905760051b60200190565b9080601f8301121562000bd25781519060209162000c3d62000c378262000bfd565b62000bd7565b9360208086848152019260051b82010192831162000bd257602001905b82821062000c69575050505090565b8151815290830190830162000c5a565b9062000c8962000c378362000bfd565b828152809262000c9c601f199162000bfd565b0190602036910137565b80518210156200080b5760209160051b01019056fe6080604081815260048036101561001557600080fd5b600092833560e01c90816303bc4a8614610dac5750806304d0194214610d8257806316b5192814610d58578063205c9cc714610d39578063300aee1414610d1e578063364132d914610d08578063375a105e14610cde57806348e257cb14610cbf5780634d985ae414610ca05780634eb274ff14610c765780635f57697c14610c575780636f24077414610c2d5780637398ab1814610bb457806378b6d7d414610b8a57806390ccfa0f14610b61578063957b405614610b3757806396d14da614610b0d578063973b9cc114610746578063a86853d51461071c578063ab1bbeca146106f2578063b6ce6709146106a2578063d0c6c7af14610685578063e329143f14610635578063e7d46385146105fb578063f6451c0a146101b3578063f7a95a9e1461018a5763ff9c446f1461014c57600080fd5b34610186576020366003190112610186573591601154831015610183575061017560209261100f565b91905490519160031b1c8152f35b80fd5b8280fd5b503461018657602036600319011261018657359180548310156101835750610175602092610efb565b503461018657826003193601126101865760105482516302989b4b60e61b8152929060209085906001600160a01b031682868681845afa80156105f157859683969596916105bc575b50838554821161058a575b5050845163b6042cf960e01b815295869182905afa93841561058057859461055c575b50835185540361052757845b85548110156105235761024881610efb565b905485514285820190815260208101859052600393841b9290921c604083015280606083010390610281601f1992838101835282611046565b6064928391519020069060019182860180871161051057846065918b6102de8b6102d26102ad8d610ec4565b9054908d1b1c9351938492830195428791606093918352602083015260408201520190565b03878101835282611046565b51902006926102ec88610ec4565b905490881b1c906103258c5191826103198d8201958d428891606093918352602083015260408201520190565b03908101835282611046565b51902006926031198401938413166104fb57916103e06103e592856103d0886103cb8f8499839b6103d060019f9e938f6103c2816103aa6103948261038e6103d79b6103736103cb98610fb3565b905490821b1c9061038384610efb565b9054911b1c9061136a565b9661122d565b5161039e83610efb565b9054908d1b1c9061136a565b996103b760055492610ec4565b9054911b1c90611336565b94600654611336565b611336565b0590611390565b94600754611336565b611390565b056104096103f284610ec4565b819391549060031b91821b91600019901b19161790565b905561043261041783610efb565b905490831b1c61042684610ec4565b905490841b1c90611390565b61043e6103f284610efb565b905561046f61044c83610fb3565b905490831b1c61046961045e85610e56565b905490851b1c6112de565b9061136a565b61049e61047b84610fb3565b905490841b1c61049861048d86610f45565b905490861b1c6112de565b90611390565b918183926104ab86610efb565b905490841b1c126104e7575b506104c184610efb565b9054911b1c136104d3575b5001610236565b6104df6103f283610efb565b9055386104cc565b6104f36103f286610efb565b9055386104b7565b601188634e487b7160e01b6000525260246000fd5b634e487b7160e01b8c526011895260248cfd5b8580f35b606492519162461bcd60e51b8352820152601260248201527144696d656e7369756e6920696e6567616c6560701b6044820152fd5b6105799194503d8087833e6105718183611046565b810190611241565b923861022a565b83513d87823e3d90fd5b817fc06999d659d5132dd93a1915097da1a6a24201916389e38da2404e4bca5e59be9287558751908152a13883610207565b809550848092503d83116105ea575b6105d58183611046565b810103126105e657859351386101fc565b5080fd5b503d6105cb565b84513d84823e3d90fd5b5050346105e657816003193601126105e6578051610631916106278261062081611157565b0383611046565b519182918261111b565b0390f35b50346101865760203660031901126101865735600d548110156101865760209250600d6000527fd7b6990105719101dabeb77144f2a3385c8033acd3af97e9423a695e81ad1eb501549051908152f35b503461018657826003193601126101865760209250549051908152f35b50346101865760203660031901126101865735600b548110156101865760209250600b6000527f0175b7a638427703f0dbe7bb9bbf987a2551717b34e79f33b5b1008d1fa01db901549051908152f35b50346101865760203660031901126101865735916009548310156101835750610175602092610fd8565b50346101865760203660031901126101865735916002548310156101835750610175602092610fb3565b50903461018657600319918383360112610b095761077882516107738161076c816111a2565b0382611046565b61177d565b6003805482126108a8575b600e5461078f816111fb565b91875b82811061086b5750506010546001600160a01b0316929050823b15610867578451632fc0395f60e01b81526060858201529587938793909290916107d8606486016111a2565b9160248601528482030160448501528151808252602080809301930191865b82811061084d57505050508383809203925af1801561084357610818578380f35b67ffffffffffffffff83116108305750523880808380f35b634e487b7160e01b845260419052602483fd5b82513d86823e3d90fd5b835185528b97508a965093810193928101926001016107f7565b8680fd5b8061089561087a600193610f45565b905490851b1c61088983610e56565b905490861b1c90611383565b821c6108a1828761122d565b5201610792565b919492909384835583549267ffffffffffffffff8411610af6576801000000000000000093848111610ae35760025481600255808210610ab5575b507f290decd9548b62a8d60345a988386fc84ba6bc95484008f6362f93160ef3e5636002875280549087915b838310610a9157505050506011916011548660115580610a4f575b506012936012548760125580610a0d575b50865b600a548110156109d35761095181610f7c565b9054865491861b1c888210156109c0576109746103f26001938481018a5561100f565b905561097f82610e8d565b9054885491871b1c91898210156109ad576103f2826109a5926001969594018b55610dd2565b90550161093e565b634e487b7160e01b8b5260418d5260248bfd5b634e487b7160e01b8a5260418c5260248afd5b5095979450959250905083518281527f409d103f7876158f293a85ee39f235ce0c309ab1aca81024a51dfb4b471e556e60203092a2610783565b601288527fbb8a6a4669ba250d26cd7a459eca9d215f8307e33aebe50379bc5a3617ec3444908101905b818110610a44575061093b565b888155600101610a37565b601187527f31ecc21a745e3968a04e9570e4425bc18fa8019c68028196b546d1669c200c68908101905b818110610a86575061092a565b878155600101610a79565b6001809192019283549281600080516020611b97833981519152015501919061090f565b81600080516020611b9783398151915291820191015b818110610ad857506108e3565b878155600101610acb565b634e487b7160e01b865260418852602486fd5b634e487b7160e01b855260418752602485fd5b8380fd5b5034610186576020366003190112610186573591600a548310156101835750610175602092610f7c565b50913461018357816003193601126101835750610b5a6020926024359035611b32565b9051908152f35b5050346105e657816003193601126105e65760105490516001600160a01b039091168152602090f35b5034610186576020366003190112610186573591600e548310156101835750610175602092610f45565b8284346101835780600319360112610183578054610bd18161107e565b91610bde84519384611046565b818352601f19610bed8361107e565b013660208501375b818110610c0957835180610631858261111b565b80610c15600192610efb565b90549060031b1c610c26828661122d565b5201610bf5565b50346101865760203660031901126101865735916001548310156101835750610175602092610ec4565b5050346105e657816003193601126105e6576020906006549051908152f35b5034610186576020366003190112610186573591600c548310156101835750610175602092610e8d565b5050346105e657816003193601126105e6576020906003549051908152f35b5050346105e657816003193601126105e6576020906007549051908152f35b5034610186576020366003190112610186573591600f548310156101835750610175602092610e56565b5050346105e657602090610b5a61077336611096565b5050346105e657602090610b5a610d3436611096565b6113ac565b5050346105e657816003193601126105e6576020906005549051908152f35b50346101865760203660031901126101865735916008548310156101835750610175602092610e1f565b50346101865760203660031901126101865735916012548310156101835750610175602092610dd2565b83853461018357806003193601126101835750610b5a82610d348161076c602096611157565b601254811015610e095760126000527fbb8a6a4669ba250d26cd7a459eca9d215f8307e33aebe50379bc5a3617ec34440190600090565b634e487b7160e01b600052603260045260246000fd5b600854811015610e095760086000527ff3f7a9fe364faab93b216da50a3214154f22a0a2b415b23a84c8169e8b636ee30190600090565b600f54811015610e0957600f6000527f8d1108e10bcb7c27dddfc02ed9d693a074039d026cf4ea4240b40f7d581ac8020190600090565b600c54811015610e0957600c6000527fdf6966c971051c3d54ec59162606531493a51404a002842f56009d7e5cf4a8c70190600090565b600154811015610e095760016000527fb10e2d527612073b26eecdfd717e6a320cf44b4afac2b0732d9fcbe2b7fa0cf60190600090565b906000918254811015610f31578280527f290decd9548b62a8d60345a988386fc84ba6bc95484008f6362f93160ef3e563019190565b634e487b7160e01b83526032600452602483fd5b600e54811015610e0957600e6000527fbb7b4a454dc3493923482f07822329ed19e8244eff582cc204f8554c3620c3fd0190600090565b600a54811015610e0957600a6000527fc65a7bb8d6351c1cf70c95a316cc6a92839c986682d98bc35f958f4883f9d2a80190600090565b600254811015610e09576002600052600080516020611b978339815191520190600090565b600954811015610e095760096000527f6e1540171b6c0c960b71a7020d9f60077f6af931a8bbf590da0223dacf75c7af0190600090565b601154811015610e095760116000527f31ecc21a745e3968a04e9570e4425bc18fa8019c68028196b546d1669c200c680190600090565b90601f8019910116810190811067ffffffffffffffff82111761106857604052565b634e487b7160e01b600052604160045260246000fd5b67ffffffffffffffff81116110685760051b60200190565b602080600319830112611116576004359167ffffffffffffffff831161111657806023840112156111165782600401356110cf8161107e565b936110dd6040519586611046565b8185526024602086019260051b82010192831161111657602401905b828210611107575050505090565b813581529083019083016110f9565b600080fd5b602090602060408183019282815285518094520193019160005b828110611143575050505090565b835185529381019392810192600101611135565b600254908181526020809101916002600052600080516020611b97833981519152916000905b82821061118b575050505090565b83548552938401936001938401939091019061117d565b600080548083528180526020928301927f290decd9548b62a8d60345a988386fc84ba6bc95484008f6362f93160ef3e56392905b8282106111e4575050505090565b8354855293840193600193840193909101906111d6565b906112058261107e565b6112126040519182611046565b8281528092611223601f199161107e565b0190602036910137565b8051821015610e095760209160051b010190565b60209081818403126111165780519067ffffffffffffffff821161111657019180601f840112156111165782516112778161107e565b936112856040519586611046565b818552838086019260051b820101928311611116578301905b8282106112ac575050505090565b8151815290830190830161129e565b919082039182116112c857565b634e487b7160e01b600052601160045260246000fd5b908160011b91808305600214901517156112c857565b906005820291808305600514901517156112c857565b906003820291808305600314901517156112c857565b908160021b91808305600414901517156112c857565b818102929160008212600160ff1b8214166112c85781840514901517156112c857565b600160ff1b81146112c85760000390565b818103929160001380158285131691841216176112c857565b919082018092116112c857565b919091600083820193841291129080158216911516176112c857565b6000908051601154906113be826111fb565b91845b818110611759575050601254916113d7836111fb565b92855b81811061173557505060105460405163b6042cf960e01b815291908690839060049082906001600160a01b03165afa91821561172a57869261170e575b509392919085945b82861061142f5750505050505090565b9091929394956115746001916104986114488a8a61122d565b51808b600080831215611641575061146661147a9261146b92611b32565b611359565b61147483611359565b90611336565b905b61155b8c61049861155561148f83610fd8565b90546003949160009190861b1c871315611634575061049861154f6114c26114b684610fd8565b905490881b1c8961136a565b955b61152c6114d085610fb3565b905490831b1c6115076115006114e588610f45565b905490861b1c6114f489610e56565b905490871b1c90611383565b918c61136a565b6000811261162557905b6000918181131561161d57611526925061136a565b9461100f565b9054911b1c8860009181811360001461161557611549925061136a565b956112f4565b9161130a565b916112de565b6000918d8b8b5114611580575b50506103e09192611390565b9601949392919061141f565b61158d611595918c61122d565b51809261136a565b908382126116065781905b80156115fe57600a9005915b8282136115bc575b50508d611568565b6103e09412156115e3576115d8916115d39161136a565b611320565b925b929138806115b4565b6115f36115f8926114669261136a565b6112de565b926115da565b5083916115ac565b61160f82611359565b906115a0565b5050956112f4565b50509461100f565b61162e90611359565b90611511565b61154f61049891956114c4565b906116ba9284611651838c61122d565b51106116e85761166e61167591611668848d61122d565b516112bb565b918a61122d565b528c815b8c81611685848361122d565b51106116c0576116a3916116688461169c9361122d565b918d61122d565b525b6116ae8d610e1f565b90549060031b1c611336565b9061147c565b6116e2916116d4846116db9396959661122d565b51906112bb565b928d61122d565b526116a5565b506116fd6116f6828b61122d565b51856112bb565b82611708838c61122d565b52611679565b6117239192503d8088833e6105718183611046565b9038611417565b6040513d88823e3d90fd5b80611741600192610dd2565b90549060031b1c611752828861122d565b52016113da565b8061176560019261100f565b90549060031b1c611776828761122d565b52016113c1565b60009080516040519081600a8054808552602080950190600a88527fc65a7bb8d6351c1cf70c95a316cc6a92839c986682d98bc35f958f4883f9d2a890885b87828210611b1e5750505050826117d4910383611046565b604051918280956020600c54958681520194600c8a527fdf6966c971051c3d54ec59162606531493a51404a002842f56009d7e5cf4a8c7918a905b828210611b045750505050611828906004940386611046565b60105460405163b6042cf960e01b815293889185919082906001600160a01b03165afa928315611af9578793611add575b50949392919086955b838710611873575050505050505090565b9091929394959661197d60019161049861188d8b8b61122d565b518b600080831215611a3157506118b36118aa6114668484611b32565b61147484611359565b915b6119656118c183610fd8565b905460039160009190831b1c841315611a2457506104986115556118f36118e787610fd8565b905490851b1c8661136a565b925b61049861154f61190489610fb3565b905490841b1c61193b6119346119198c610f45565b905490871b1c6119288d610e56565b905490881b1c90611383565b918a61136a565b60008112611a1557905b60009181811315611a0d5761195a925061136a565b925b61152c8a610f7c565b906000928c8c511461198a5750506103e09192611390565b9701959493929190611862565b61158d611997918d61122d565b908382126119fd578a82915b80156119f45705915b8282136119bc575b50508e611568565b6103e09412156119de576119d3916115d39161136a565b925b929138806119b4565b6115f36119ee926114669261136a565b926119d5565b505083916119ac565b8a611a0783611359565b916119a3565b50509261195c565b611a1e90611359565b90611945565b61155561049891926118f5565b611a99908384611a41858c61122d565b5110611abd57611a5590611668858c61122d565b611a5f848b61122d565b52805b8d8483611a6f828461122d565b5110611a9f57611a8882939461166883611a8e9561122d565b9261122d565b525b6116ae83610e1f565b916118b5565b611ab182946116d483611ab79561122d565b9361122d565b52611a90565b50611acb6116f6848b61122d565b9080611ad7858c61122d565b52611a62565b611af29193503d8089833e6105718183611046565b9138611859565b6040513d89823e3d90fd5b83548852968701968994506001938401939091019061180f565b8354855290930192600192830192016117bc565b611b3b90610e1f565b90549060031b1c9060008112600014611b9257611b5790611359565b60011c601401806014116112c85760288111611b8a575b60640390606482116112c857606491611b8691611336565b0590565b506028611b6e565b509056fe405787fa12a823e0f2b7631cc41b3ba8828b3321ca811111fa75cd3aa3bb5acea2646970667358221220255646ca211f299d333e4adbe09e690ae6cccd35937a2aeb69a60fb7e604a5e264736f6c63430008170033405787fa12a823e0f2b7631cc41b3ba8828b3321ca811111fa75cd3aa3bb5acebb7b4a454dc3493923482f07822329ed19e8244eff582cc204f8554c3620c3fdc65a7bb8d6351c1cf70c95a316cc6a92839c986682d98bc35f958f4883f9d2a8290decd9548b62a8d60345a988386fc84ba6bc95484008f6362f93160ef3e563d7b6990105719101dabeb77144f2a3385c8033acd3af97e9423a695e81ad1eb5f3f7a9fe364faab93b216da50a3214154f22a0a2b415b23a84c8169e8b636ee36e1540171b6c0c960b71a7020d9f60077f6af931a8bbf590da0223dacf75c7afb10e2d527612073b26eecdfd717e6a320cf44b4afac2b0732d9fcbe2b7fa0cf6","opcodes":"PUSH1 0x80 PUSH1 0x40 MSTORE CALLVALUE PUSH3 0xBD2 JUMPI PUSH3 0x29A8 DUP1 CODESIZE SUB DUP1 PUSH3 0x1D DUP2 PUSH3 0xBD7 JUMP JUMPDEST SWAP3 DUP4 CODECOPY DUP2 ADD PUSH2 0x160 DUP3 DUP3 SUB SLT PUSH3 0xBD2 JUMPI DUP2 MLOAD PUSH1 0x1 PUSH1 0x1 PUSH1 0xA0 SHL SUB DUP2 AND SWAP2 SWAP1 DUP3 SWAP1 SUB PUSH3 0xBD2 JUMPI PUSH1 0x20 DUP4 ADD MLOAD PUSH1 0x1 PUSH1 0x1 PUSH1 0x40 SHL SUB DUP2 GT PUSH3 0xBD2 JUMPI DUP2 PUSH3 0x66 SWAP2 DUP6 ADD PUSH3 0xC15 JUMP JUMPDEST PUSH1 0x40 DUP5 ADD MLOAD SWAP1 SWAP4 SWAP1 PUSH1 0x1 PUSH1 0x1 PUSH1 0x40 SHL SUB DUP2 GT PUSH3 0xBD2 JUMPI DUP3 PUSH3 0x8B SWAP2 DUP4 ADD PUSH3 0xC15 JUMP JUMPDEST PUSH1 0x60 DUP3 ADD MLOAD PUSH1 0x1 PUSH1 0x1 PUSH1 0x40 SHL SUB DUP2 GT PUSH3 0xBD2 JUMPI DUP4 PUSH3 0xAD SWAP2 DUP5 ADD PUSH3 0xC15 JUMP JUMPDEST PUSH1 0x80 DUP4 ADD MLOAD PUSH1 0x1 PUSH1 0x1 PUSH1 0x40 SHL SUB DUP2 GT PUSH3 0xBD2 JUMPI DUP5 PUSH3 0xCF SWAP2 DUP6 ADD PUSH3 0xC15 JUMP JUMPDEST PUSH1 0xA0 DUP5 ADD MLOAD PUSH1 0x1 PUSH1 0x1 PUSH1 0x40 SHL SUB DUP2 GT PUSH3 0xBD2 JUMPI DUP6 PUSH3 0xF1 SWAP2 DUP7 ADD PUSH3 0xC15 JUMP JUMPDEST PUSH1 0xC0 DUP6 ADD MLOAD SWAP1 SWAP2 SWAP1 PUSH1 0x1 PUSH1 0x1 PUSH1 0x40 SHL SUB DUP2 GT PUSH3 0xBD2 JUMPI DUP7 PUSH3 0x116 SWAP2 DUP8 ADD PUSH3 0xC15 JUMP JUMPDEST PUSH1 0xE0 DUP7 ADD MLOAD SWAP1 SWAP4 SWAP1 PUSH1 0x1 PUSH1 0x1 PUSH1 0x40 SHL SUB DUP2 GT PUSH3 0xBD2 JUMPI DUP8 PUSH3 0x13B SWAP2 DUP9 ADD PUSH3 0xC15 JUMP JUMPDEST PUSH2 0x100 DUP8 ADD MLOAD SWAP1 SWAP6 SWAP1 PUSH1 0x1 PUSH1 0x1 PUSH1 0x40 SHL SUB DUP2 GT PUSH3 0xBD2 JUMPI DUP9 PUSH3 0x161 SWAP2 DUP10 ADD PUSH3 0xC15 JUMP JUMPDEST PUSH2 0x120 DUP9 ADD MLOAD SWAP1 SWAP8 SWAP1 PUSH1 0x1 PUSH1 0x1 PUSH1 0x40 SHL SUB DUP2 GT PUSH3 0xBD2 JUMPI DUP10 PUSH3 0x187 SWAP2 DUP4 ADD PUSH3 0xC15 JUMP JUMPDEST PUSH2 0x140 DUP3 ADD MLOAD SWAP1 SWAP10 SWAP1 PUSH1 0x1 PUSH1 0x1 PUSH1 0x40 SHL SUB DUP2 GT PUSH3 0xBD2 JUMPI PUSH3 0x1AB SWAP3 ADD PUSH3 0xC15 JUMP JUMPDEST PUSH1 0x1 PUSH1 0x1 PUSH1 0xFF SHL SUB PUSH1 0x3 SSTORE PUSH1 0x32 PUSH1 0x5 SSTORE PUSH1 0xC8 PUSH1 0x6 DUP2 SWAP1 SSTORE PUSH1 0x7 SSTORE PUSH1 0x10 DUP1 SLOAD PUSH1 0x1 PUSH1 0x1 PUSH1 0xA0 SHL SUB NOT AND SWAP1 SWAP11 OR SWAP1 SWAP10 SSTORE DUP10 MLOAD PUSH3 0x1E6 SWAP1 PUSH3 0xC79 JUMP JUMPDEST DUP1 MLOAD SWAP1 PUSH1 0x1 PUSH1 0x1 PUSH1 0x40 SHL SUB DUP3 GT PUSH3 0x890 JUMPI PUSH9 0x10000000000000000 DUP3 GT PUSH3 0x890 JUMPI PUSH1 0x0 SLOAD DUP3 PUSH1 0x0 SSTORE DUP1 DUP4 LT PUSH3 0xB9B JUMPI JUMPDEST POP PUSH1 0x20 ADD PUSH1 0x0 DUP1 MSTORE PUSH1 0x20 PUSH1 0x0 KECCAK256 PUSH1 0x0 JUMPDEST DUP4 DUP2 LT PUSH3 0xB86 JUMPI POP POP POP POP PUSH3 0x241 DUP2 MLOAD PUSH3 0xC79 JUMP JUMPDEST DUP1 MLOAD SWAP1 PUSH1 0x1 PUSH1 0x1 PUSH1 0x40 SHL SUB DUP3 GT PUSH3 0x890 JUMPI PUSH9 0x10000000000000000 DUP3 GT PUSH3 0x890 JUMPI PUSH1 0x1 SLOAD DUP3 PUSH1 0x1 SSTORE DUP1 DUP4 LT PUSH3 0xB4D JUMPI JUMPDEST POP PUSH1 0x20 ADD PUSH1 0x1 PUSH1 0x0 MSTORE PUSH1 0x20 PUSH1 0x0 KECCAK256 PUSH1 0x0 JUMPDEST DUP4 DUP2 LT PUSH3 0xB38 JUMPI POP POP POP POP PUSH3 0x29D DUP11 MLOAD PUSH3 0xC79 JUMP JUMPDEST DUP1 MLOAD SWAP1 PUSH1 0x1 PUSH1 0x1 PUSH1 0x40 SHL SUB DUP3 GT PUSH3 0x890 JUMPI PUSH9 0x10000000000000000 DUP3 GT PUSH3 0x890 JUMPI PUSH1 0x2 SLOAD DUP3 PUSH1 0x2 SSTORE DUP1 DUP4 LT PUSH3 0xAFF JUMPI JUMPDEST POP PUSH1 0x20 ADD PUSH1 0x2 PUSH1 0x0 MSTORE PUSH1 0x20 PUSH1 0x0 KECCAK256 PUSH1 0x0 JUMPDEST DUP4 DUP2 LT PUSH3 0xAEA JUMPI POP POP POP POP PUSH3 0x2F9 DUP3 MLOAD PUSH3 0xC79 JUMP JUMPDEST DUP1 MLOAD SWAP1 PUSH1 0x1 PUSH1 0x1 PUSH1 0x40 SHL SUB DUP3 GT PUSH3 0x890 JUMPI PUSH9 0x10000000000000000 DUP3 GT PUSH3 0x890 JUMPI PUSH1 0x8 SLOAD DUP3 PUSH1 0x8 SSTORE DUP1 DUP4 LT PUSH3 0xAB1 JUMPI JUMPDEST POP PUSH1 0x20 ADD PUSH1 0x8 PUSH1 0x0 MSTORE PUSH1 0x20 PUSH1 0x0 KECCAK256 PUSH1 0x0 JUMPDEST DUP4 DUP2 LT PUSH3 0xA9C JUMPI POP POP POP POP PUSH3 0x355 DUP4 MLOAD PUSH3 0xC79 JUMP JUMPDEST DUP1 MLOAD SWAP1 PUSH1 0x1 PUSH1 0x1 PUSH1 0x40 SHL SUB DUP3 GT PUSH3 0x890 JUMPI PUSH9 0x10000000000000000 DUP3 GT PUSH3 0x890 JUMPI PUSH1 0x9 SLOAD DUP3 PUSH1 0x9 SSTORE DUP1 DUP4 LT PUSH3 0xA63 JUMPI JUMPDEST POP PUSH1 0x20 ADD PUSH1 0x9 PUSH1 0x0 MSTORE PUSH1 0x20 PUSH1 0x0 KECCAK256 PUSH1 0x0 JUMPDEST DUP4 DUP2 LT PUSH3 0xA4E JUMPI POP POP POP POP PUSH3 0x3B1 DUP5 MLOAD PUSH3 0xC79 JUMP JUMPDEST DUP1 MLOAD SWAP1 PUSH1 0x1 PUSH1 0x1 PUSH1 0x40 SHL SUB DUP3 GT PUSH3 0x890 JUMPI PUSH9 0x10000000000000000 DUP3 GT PUSH3 0x890 JUMPI PUSH1 0xA SLOAD DUP3 PUSH1 0xA SSTORE DUP1 DUP4 LT PUSH3 0xA15 JUMPI JUMPDEST POP PUSH1 0x20 ADD PUSH1 0xA PUSH1 0x0 MSTORE PUSH1 0x20 PUSH1 0x0 KECCAK256 PUSH1 0x0 JUMPDEST DUP4 DUP2 LT PUSH3 0xA00 JUMPI POP POP POP POP PUSH3 0x40D DUP6 MLOAD PUSH3 0xC79 JUMP JUMPDEST DUP1 MLOAD SWAP1 PUSH1 0x1 PUSH1 0x1 PUSH1 0x40 SHL SUB DUP3 GT PUSH3 0x890 JUMPI PUSH9 0x10000000000000000 DUP3 GT PUSH3 0x890 JUMPI PUSH1 0xB SLOAD DUP3 PUSH1 0xB SSTORE DUP1 DUP4 LT PUSH3 0x9B6 JUMPI JUMPDEST POP PUSH1 0x20 ADD PUSH1 0xB PUSH1 0x0 MSTORE PUSH1 0x20 PUSH1 0x0 KECCAK256 PUSH1 0x0 JUMPDEST DUP4 DUP2 LT PUSH3 0x9A1 JUMPI POP POP POP POP PUSH3 0x469 DUP7 MLOAD PUSH3 0xC79 JUMP JUMPDEST DUP1 MLOAD SWAP1 PUSH1 0x1 PUSH1 0x1 PUSH1 0x40 SHL SUB DUP3 GT PUSH3 0x890 JUMPI PUSH9 0x10000000000000000 DUP3 GT PUSH3 0x890 JUMPI PUSH1 0xC SLOAD DUP3 PUSH1 0xC SSTORE DUP1 DUP4 LT PUSH3 0x957 JUMPI JUMPDEST POP PUSH1 0x20 ADD PUSH1 0xC PUSH1 0x0 MSTORE PUSH1 0x20 PUSH1 0x0 KECCAK256 PUSH1 0x0 JUMPDEST DUP4 DUP2 LT PUSH3 0x942 JUMPI POP POP POP POP PUSH3 0x4C5 DUP8 MLOAD PUSH3 0xC79 JUMP JUMPDEST DUP1 MLOAD SWAP1 PUSH1 0x1 PUSH1 0x1 PUSH1 0x40 SHL SUB DUP3 GT PUSH3 0x890 JUMPI PUSH9 0x10000000000000000 DUP3 GT PUSH3 0x890 JUMPI PUSH1 0xD SLOAD DUP3 PUSH1 0xD SSTORE DUP1 DUP4 LT PUSH3 0x909 JUMPI JUMPDEST POP PUSH1 0x20 ADD PUSH1 0xD PUSH1 0x0 MSTORE PUSH1 0x20 PUSH1 0x0 KECCAK256 PUSH1 0x0 JUMPDEST DUP4 DUP2 LT PUSH3 0x8F4 JUMPI POP POP POP POP PUSH3 0x521 DUP9 MLOAD PUSH3 0xC79 JUMP JUMPDEST DUP1 MLOAD SWAP1 PUSH1 0x1 PUSH1 0x1 PUSH1 0x40 SHL SUB DUP3 GT PUSH3 0x890 JUMPI PUSH9 0x10000000000000000 DUP3 GT PUSH3 0x890 JUMPI PUSH1 0xE SLOAD DUP3 PUSH1 0xE SSTORE DUP1 DUP4 LT PUSH3 0x8BB JUMPI JUMPDEST POP PUSH1 0x20 ADD PUSH1 0xE PUSH1 0x0 MSTORE PUSH1 0x20 PUSH1 0x0 KECCAK256 PUSH1 0x0 JUMPDEST DUP4 DUP2 LT PUSH3 0x8A6 JUMPI POP POP POP POP PUSH3 0x57D DUP10 MLOAD PUSH3 0xC79 JUMP JUMPDEST DUP1 MLOAD SWAP1 PUSH1 0x1 PUSH1 0x1 PUSH1 0x40 SHL SUB DUP3 GT PUSH3 0x890 JUMPI PUSH9 0x10000000000000000 DUP3 GT PUSH3 0x890 JUMPI PUSH1 0xF SLOAD DUP3 PUSH1 0xF SSTORE DUP1 DUP4 LT PUSH3 0x846 JUMPI JUMPDEST POP PUSH1 0x20 ADD PUSH1 0xF PUSH1 0x0 MSTORE PUSH1 0x20 PUSH1 0x0 KECCAK256 PUSH1 0x0 JUMPDEST DUP4 DUP2 LT PUSH3 0x831 JUMPI POP POP POP POP PUSH1 0x0 JUMPDEST DUP11 MLOAD DUP2 LT ISZERO PUSH3 0x821 JUMPI PUSH3 0x5E6 DUP2 DUP13 PUSH3 0xCA6 JUMP JUMPDEST MLOAD PUSH1 0x0 SLOAD DUP3 LT ISZERO PUSH3 0x80B JUMPI PUSH1 0x0 DUP1 MSTORE PUSH1 0x0 DUP1 MLOAD PUSH1 0x20 PUSH3 0x2908 DUP4 CODECOPY DUP2 MLOAD SWAP2 MSTORE DUP3 ADD SSTORE PUSH3 0x615 DUP2 DUP13 PUSH3 0xCA6 JUMP JUMPDEST MLOAD PUSH1 0x2 SLOAD DUP3 LT ISZERO PUSH3 0x80B JUMPI PUSH1 0x2 PUSH1 0x0 MSTORE PUSH1 0x0 DUP1 MLOAD PUSH1 0x20 PUSH3 0x28A8 DUP4 CODECOPY DUP2 MLOAD SWAP2 MSTORE DUP3 ADD SSTORE PUSH3 0x645 DUP2 DUP4 PUSH3 0xCA6 JUMP JUMPDEST MLOAD PUSH1 0x1 SLOAD DUP3 LT ISZERO PUSH3 0x80B JUMPI PUSH1 0x1 PUSH1 0x0 MSTORE PUSH1 0x0 DUP1 MLOAD PUSH1 0x20 PUSH3 0x2988 DUP4 CODECOPY DUP2 MLOAD SWAP2 MSTORE DUP3 ADD SSTORE PUSH3 0x675 DUP2 DUP5 PUSH3 0xCA6 JUMP JUMPDEST MLOAD PUSH1 0x8 SLOAD DUP3 LT ISZERO PUSH3 0x80B JUMPI PUSH1 0x8 PUSH1 0x0 MSTORE PUSH1 0x0 DUP1 MLOAD PUSH1 0x20 PUSH3 0x2948 DUP4 CODECOPY DUP2 MLOAD SWAP2 MSTORE DUP3 ADD SSTORE PUSH3 0x6A5 DUP2 DUP6 PUSH3 0xCA6 JUMP JUMPDEST MLOAD PUSH1 0x9 SLOAD DUP3 LT ISZERO PUSH3 0x80B JUMPI PUSH1 0x9 PUSH1 0x0 MSTORE PUSH1 0x0 DUP1 MLOAD PUSH1 0x20 PUSH3 0x2968 DUP4 CODECOPY DUP2 MLOAD SWAP2 MSTORE DUP3 ADD SSTORE PUSH3 0x6D5 DUP2 DUP7 PUSH3 0xCA6 JUMP JUMPDEST MLOAD PUSH1 0xA SLOAD DUP3 LT ISZERO PUSH3 0x80B JUMPI PUSH1 0xA PUSH1 0x0 MSTORE PUSH1 0x0 DUP1 MLOAD PUSH1 0x20 PUSH3 0x28E8 DUP4 CODECOPY DUP2 MLOAD SWAP2 MSTORE DUP3 ADD SSTORE PUSH3 0x705 DUP2 DUP8 PUSH3 0xCA6 JUMP JUMPDEST MLOAD PUSH1 0xB SLOAD DUP3 LT ISZERO PUSH3 0x80B JUMPI PUSH1 0xB PUSH1 0x0 MSTORE PUSH32 0x175B7A638427703F0DBE7BB9BBF987A2551717B34E79F33B5B1008D1FA01DB9 DUP3 ADD SSTORE PUSH3 0x746 DUP2 DUP9 PUSH3 0xCA6 JUMP JUMPDEST MLOAD PUSH1 0xC SLOAD DUP3 LT ISZERO PUSH3 0x80B JUMPI PUSH1 0xC PUSH1 0x0 MSTORE PUSH32 0xDF6966C971051C3D54EC59162606531493A51404A002842F56009D7E5CF4A8C7 DUP3 ADD SSTORE PUSH3 0x787 DUP2 DUP10 PUSH3 0xCA6 JUMP JUMPDEST MLOAD PUSH1 0xD SLOAD DUP3 LT ISZERO PUSH3 0x80B JUMPI PUSH1 0xD PUSH1 0x0 MSTORE PUSH1 0x0 DUP1 MLOAD PUSH1 0x20 PUSH3 0x2928 DUP4 CODECOPY DUP2 MLOAD SWAP2 MSTORE DUP3 ADD SSTORE PUSH3 0x7B7 DUP2 DUP11 PUSH3 0xCA6 JUMP JUMPDEST MLOAD PUSH1 0xE SLOAD DUP3 LT ISZERO PUSH3 0x80B JUMPI PUSH1 0xE PUSH1 0x0 MSTORE PUSH1 0x0 DUP1 MLOAD PUSH1 0x20 PUSH3 0x28C8 DUP4 CODECOPY DUP2 MLOAD SWAP2 MSTORE DUP3 ADD SSTORE PUSH3 0x7E7 DUP2 DUP12 PUSH3 0xCA6 JUMP JUMPDEST MLOAD SWAP1 PUSH1 0xF SLOAD DUP2 LT ISZERO PUSH3 0x80B JUMPI PUSH1 0x1 SWAP2 PUSH1 0xF PUSH1 0x0 MSTORE DUP2 PUSH1 0x20 PUSH1 0x0 KECCAK256 ADD SSTORE ADD PUSH3 0x5D0 JUMP JUMPDEST PUSH4 0x4E487B71 PUSH1 0xE0 SHL PUSH1 0x0 MSTORE PUSH1 0x32 PUSH1 0x4 MSTORE PUSH1 0x24 PUSH1 0x0 REVERT JUMPDEST PUSH1 0x40 MLOAD PUSH2 0x1BEC SWAP1 DUP2 PUSH3 0xCBC DUP3 CODECOPY RETURN JUMPDEST PUSH1 0x1 SWAP1 PUSH1 0x20 DUP5 MLOAD SWAP5 ADD SWAP4 DUP2 DUP5 ADD SSTORE ADD PUSH3 0x5C1 JUMP JUMPDEST PUSH1 0xF PUSH1 0x0 MSTORE PUSH32 0x8D1108E10BCB7C27DDDFC02ED9D693A074039D026CF4EA4240B40F7D581AC802 SWAP1 DUP4 DUP3 ADD JUMPDEST DUP2 DUP4 ADD DUP2 LT PUSH3 0x883 JUMPI POP POP PUSH3 0x5B0 JUMP JUMPDEST PUSH1 0x0 DUP2 SSTORE PUSH1 0x1 ADD PUSH3 0x871 JUMP JUMPDEST PUSH4 0x4E487B71 PUSH1 0xE0 SHL PUSH1 0x0 MSTORE PUSH1 0x41 PUSH1 0x4 MSTORE PUSH1 0x24 PUSH1 0x0 REVERT JUMPDEST PUSH1 0x1 SWAP1 PUSH1 0x20 DUP5 MLOAD SWAP5 ADD SWAP4 DUP2 DUP5 ADD SSTORE ADD PUSH3 0x565 JUMP JUMPDEST PUSH1 0xE PUSH1 0x0 MSTORE PUSH1 0x0 DUP1 MLOAD PUSH1 0x20 PUSH3 0x28C8 DUP4 CODECOPY DUP2 MLOAD SWAP2 MSTORE SWAP1 DUP4 DUP3 ADD JUMPDEST DUP2 DUP4 ADD DUP2 LT PUSH3 0x8E7 JUMPI POP POP PUSH3 0x554 JUMP JUMPDEST PUSH1 0x0 DUP2 SSTORE PUSH1 0x1 ADD PUSH3 0x8D5 JUMP JUMPDEST PUSH1 0x1 SWAP1 PUSH1 0x20 DUP5 MLOAD SWAP5 ADD SWAP4 DUP2 DUP5 ADD SSTORE ADD PUSH3 0x509 JUMP JUMPDEST PUSH1 0xD PUSH1 0x0 MSTORE PUSH1 0x0 DUP1 MLOAD PUSH1 0x20 PUSH3 0x2928 DUP4 CODECOPY DUP2 MLOAD SWAP2 MSTORE SWAP1 DUP4 DUP3 ADD JUMPDEST DUP2 DUP4 ADD DUP2 LT PUSH3 0x935 JUMPI POP POP PUSH3 0x4F8 JUMP JUMPDEST PUSH1 0x0 DUP2 SSTORE PUSH1 0x1 ADD PUSH3 0x923 JUMP JUMPDEST PUSH1 0x1 SWAP1 PUSH1 0x20 DUP5 MLOAD SWAP5 ADD SWAP4 DUP2 DUP5 ADD SSTORE ADD PUSH3 0x4AD JUMP JUMPDEST PUSH1 0xC PUSH1 0x0 MSTORE PUSH32 0xDF6966C971051C3D54EC59162606531493A51404A002842F56009D7E5CF4A8C7 SWAP1 DUP4 DUP3 ADD JUMPDEST DUP2 DUP4 ADD DUP2 LT PUSH3 0x994 JUMPI POP POP PUSH3 0x49C JUMP JUMPDEST PUSH1 0x0 DUP2 SSTORE PUSH1 0x1 ADD PUSH3 0x982 JUMP JUMPDEST PUSH1 0x1 SWAP1 PUSH1 0x20 DUP5 MLOAD SWAP5 ADD SWAP4 DUP2 DUP5 ADD SSTORE ADD PUSH3 0x451 JUMP JUMPDEST PUSH1 0xB PUSH1 0x0 MSTORE PUSH32 0x175B7A638427703F0DBE7BB9BBF987A2551717B34E79F33B5B1008D1FA01DB9 SWAP1 DUP4 DUP3 ADD JUMPDEST DUP2 DUP4 ADD DUP2 LT PUSH3 0x9F3 JUMPI POP POP PUSH3 0x440 JUMP JUMPDEST PUSH1 0x0 DUP2 SSTORE PUSH1 0x1 ADD PUSH3 0x9E1 JUMP JUMPDEST PUSH1 0x1 SWAP1 PUSH1 0x20 DUP5 MLOAD SWAP5 ADD SWAP4 DUP2 DUP5 ADD SSTORE ADD PUSH3 0x3F5 JUMP JUMPDEST PUSH1 0xA PUSH1 0x0 MSTORE PUSH1 0x0 DUP1 MLOAD PUSH1 0x20 PUSH3 0x28E8 DUP4 CODECOPY DUP2 MLOAD SWAP2 MSTORE SWAP1 DUP4 DUP3 ADD JUMPDEST DUP2 DUP4 ADD DUP2 LT PUSH3 0xA41 JUMPI POP POP PUSH3 0x3E4 JUMP JUMPDEST PUSH1 0x0 DUP2 SSTORE PUSH1 0x1 ADD PUSH3 0xA2F JUMP JUMPDEST PUSH1 0x1 SWAP1 PUSH1 0x20 DUP5 MLOAD SWAP5 ADD SWAP4 DUP2 DUP5 ADD SSTORE ADD PUSH3 0x399 JUMP JUMPDEST PUSH1 0x9 PUSH1 0x0 MSTORE PUSH1 0x0 DUP1 MLOAD PUSH1 0x20 PUSH3 0x2968 DUP4 CODECOPY DUP2 MLOAD SWAP2 MSTORE SWAP1 DUP4 DUP3 ADD JUMPDEST DUP2 DUP4 ADD DUP2 LT PUSH3 0xA8F JUMPI POP POP PUSH3 0x388 JUMP JUMPDEST PUSH1 0x0 DUP2 SSTORE PUSH1 0x1 ADD PUSH3 0xA7D JUMP JUMPDEST PUSH1 0x1 SWAP1 PUSH1 0x20 DUP5 MLOAD SWAP5 ADD SWAP4 DUP2 DUP5 ADD SSTORE ADD PUSH3 0x33D JUMP JUMPDEST PUSH1 0x8 PUSH1 0x0 MSTORE PUSH1 0x0 DUP1 MLOAD PUSH1 0x20 PUSH3 0x2948 DUP4 CODECOPY DUP2 MLOAD SWAP2 MSTORE SWAP1 DUP4 DUP3 ADD JUMPDEST DUP2 DUP4 ADD DUP2 LT PUSH3 0xADD JUMPI POP POP PUSH3 0x32C JUMP JUMPDEST PUSH1 0x0 DUP2 SSTORE PUSH1 0x1 ADD PUSH3 0xACB JUMP JUMPDEST PUSH1 0x1 SWAP1 PUSH1 0x20 DUP5 MLOAD SWAP5 ADD SWAP4 DUP2 DUP5 ADD SSTORE ADD PUSH3 0x2E1 JUMP JUMPDEST PUSH1 0x2 PUSH1 0x0 MSTORE PUSH1 0x0 DUP1 MLOAD PUSH1 0x20 PUSH3 0x28A8 DUP4 CODECOPY DUP2 MLOAD SWAP2 MSTORE SWAP1 DUP4 DUP3 ADD JUMPDEST DUP2 DUP4 ADD DUP2 LT PUSH3 0xB2B JUMPI POP POP PUSH3 0x2D0 JUMP JUMPDEST PUSH1 0x0 DUP2 SSTORE PUSH1 0x1 ADD PUSH3 0xB19 JUMP JUMPDEST PUSH1 0x1 SWAP1 PUSH1 0x20 DUP5 MLOAD SWAP5 ADD SWAP4 DUP2 DUP5 ADD SSTORE ADD PUSH3 0x285 JUMP JUMPDEST PUSH1 0x1 PUSH1 0x0 MSTORE PUSH1 0x0 DUP1 MLOAD PUSH1 0x20 PUSH3 0x2988 DUP4 CODECOPY DUP2 MLOAD SWAP2 MSTORE SWAP1 DUP4 DUP3 ADD JUMPDEST DUP2 DUP4 ADD DUP2 LT PUSH3 0xB79 JUMPI POP POP PUSH3 0x274 JUMP JUMPDEST PUSH1 0x0 DUP2 SSTORE PUSH1 0x1 ADD PUSH3 0xB67 JUMP JUMPDEST PUSH1 0x1 SWAP1 PUSH1 0x20 DUP5 MLOAD SWAP5 ADD SWAP4 DUP2 DUP5 ADD SSTORE ADD PUSH3 0x229 JUMP JUMPDEST PUSH1 0x0 DUP1 MSTORE PUSH1 0x0 DUP1 MLOAD PUSH1 0x20 PUSH3 0x2908 DUP4 CODECOPY DUP2 MLOAD SWAP2 MSTORE SWAP1 DUP2 ADD SWAP1 DUP4 ADD JUMPDEST DUP2 DUP2 LT PUSH3 0xBC5 JUMPI POP PUSH3 0x219 JUMP JUMPDEST PUSH1 0x0 DUP2 SSTORE PUSH1 0x1 ADD PUSH3 0xBB6 JUMP JUMPDEST PUSH1 0x0 DUP1 REVERT JUMPDEST PUSH1 0x40 MLOAD SWAP2 SWAP1 PUSH1 0x1F ADD PUSH1 0x1F NOT AND DUP3 ADD PUSH1 0x1 PUSH1 0x1 PUSH1 0x40 SHL SUB DUP2 GT DUP4 DUP3 LT OR PUSH3 0x890 JUMPI PUSH1 0x40 MSTORE JUMP JUMPDEST PUSH1 0x1 PUSH1 0x1 PUSH1 0x40 SHL SUB DUP2 GT PUSH3 0x890 JUMPI PUSH1 0x5 SHL PUSH1 0x20 ADD SWAP1 JUMP JUMPDEST SWAP1 DUP1 PUSH1 0x1F DUP4 ADD SLT ISZERO PUSH3 0xBD2 JUMPI DUP2 MLOAD SWAP1 PUSH1 0x20 SWAP2 PUSH3 0xC3D PUSH3 0xC37 DUP3 PUSH3 0xBFD JUMP JUMPDEST PUSH3 0xBD7 JUMP JUMPDEST SWAP4 PUSH1 0x20 DUP1 DUP7 DUP5 DUP2 MSTORE ADD SWAP3 PUSH1 0x5 SHL DUP3 ADD ADD SWAP3 DUP4 GT PUSH3 0xBD2 JUMPI PUSH1 0x20 ADD SWAP1 JUMPDEST DUP3 DUP3 LT PUSH3 0xC69 JUMPI POP POP POP POP SWAP1 JUMP JUMPDEST DUP2 MLOAD DUP2 MSTORE SWAP1 DUP4 ADD SWAP1 DUP4 ADD PUSH3 0xC5A JUMP JUMPDEST SWAP1 PUSH3 0xC89 PUSH3 0xC37 DUP4 PUSH3 0xBFD JUMP JUMPDEST DUP3 DUP2 MSTORE DUP1 SWAP3 PUSH3 0xC9C PUSH1 0x1F NOT SWAP2 PUSH3 0xBFD JUMP JUMPDEST ADD SWAP1 PUSH1 0x20 CALLDATASIZE SWAP2 ADD CALLDATACOPY JUMP JUMPDEST DUP1 MLOAD DUP3 LT ISZERO PUSH3 0x80B JUMPI PUSH1 0x20 SWAP2 PUSH1 0x5 SHL ADD ADD SWAP1 JUMP INVALID PUSH1 0x80 PUSH1 0x40 DUP2 DUP2 MSTORE PUSH1 0x4 DUP1 CALLDATASIZE LT ISZERO PUSH2 0x15 JUMPI PUSH1 0x0 DUP1 REVERT JUMPDEST PUSH1 0x0 SWAP3 DUP4 CALLDATALOAD PUSH1 0xE0 SHR SWAP1 DUP2 PUSH4 0x3BC4A86 EQ PUSH2 0xDAC JUMPI POP DUP1 PUSH4 0x4D01942 EQ PUSH2 0xD82 JUMPI DUP1 PUSH4 0x16B51928 EQ PUSH2 0xD58 JUMPI DUP1 PUSH4 0x205C9CC7 EQ PUSH2 0xD39 JUMPI DUP1 PUSH4 0x300AEE14 EQ PUSH2 0xD1E JUMPI DUP1 PUSH4 0x364132D9 EQ PUSH2 0xD08 JUMPI DUP1 PUSH4 0x375A105E EQ PUSH2 0xCDE JUMPI DUP1 PUSH4 0x48E257CB EQ PUSH2 0xCBF JUMPI DUP1 PUSH4 0x4D985AE4 EQ PUSH2 0xCA0 JUMPI DUP1 PUSH4 0x4EB274FF EQ PUSH2 0xC76 JUMPI DUP1 PUSH4 0x5F57697C EQ PUSH2 0xC57 JUMPI DUP1 PUSH4 0x6F240774 EQ PUSH2 0xC2D JUMPI DUP1 PUSH4 0x7398AB18 EQ PUSH2 0xBB4 JUMPI DUP1 PUSH4 0x78B6D7D4 EQ PUSH2 0xB8A JUMPI DUP1 PUSH4 0x90CCFA0F EQ PUSH2 0xB61 JUMPI DUP1 PUSH4 0x957B4056 EQ PUSH2 0xB37 JUMPI DUP1 PUSH4 0x96D14DA6 EQ PUSH2 0xB0D JUMPI DUP1 PUSH4 0x973B9CC1 EQ PUSH2 0x746 JUMPI DUP1 PUSH4 0xA86853D5 EQ PUSH2 0x71C JUMPI DUP1 PUSH4 0xAB1BBECA EQ PUSH2 0x6F2 JUMPI DUP1 PUSH4 0xB6CE6709 EQ PUSH2 0x6A2 JUMPI DUP1 PUSH4 0xD0C6C7AF EQ PUSH2 0x685 JUMPI DUP1 PUSH4 0xE329143F EQ PUSH2 0x635 JUMPI DUP1 PUSH4 0xE7D46385 EQ PUSH2 0x5FB JUMPI DUP1 PUSH4 0xF6451C0A EQ PUSH2 0x1B3 JUMPI DUP1 PUSH4 0xF7A95A9E EQ PUSH2 0x18A JUMPI PUSH4 0xFF9C446F EQ PUSH2 0x14C JUMPI PUSH1 0x0 DUP1 REVERT JUMPDEST CALLVALUE PUSH2 0x186 JUMPI PUSH1 0x20 CALLDATASIZE PUSH1 0x3 NOT ADD SLT PUSH2 0x186 JUMPI CALLDATALOAD SWAP2 PUSH1 0x11 SLOAD DUP4 LT ISZERO PUSH2 0x183 JUMPI POP PUSH2 0x175 PUSH1 0x20 SWAP3 PUSH2 0x100F JUMP JUMPDEST SWAP2 SWAP1 SLOAD SWAP1 MLOAD SWAP2 PUSH1 0x3 SHL SHR DUP2 MSTORE RETURN JUMPDEST DUP1 REVERT JUMPDEST DUP3 DUP1 REVERT JUMPDEST POP CALLVALUE PUSH2 0x186 JUMPI PUSH1 0x20 CALLDATASIZE PUSH1 0x3 NOT ADD SLT PUSH2 0x186 JUMPI CALLDATALOAD SWAP2 DUP1 SLOAD DUP4 LT ISZERO PUSH2 0x183 JUMPI POP PUSH2 0x175 PUSH1 0x20 SWAP3 PUSH2 0xEFB JUMP JUMPDEST POP CALLVALUE PUSH2 0x186 JUMPI DUP3 PUSH1 0x3 NOT CALLDATASIZE ADD SLT PUSH2 0x186 JUMPI PUSH1 0x10 SLOAD DUP3 MLOAD PUSH4 0x2989B4B PUSH1 0xE6 SHL DUP2 MSTORE SWAP3 SWAP1 PUSH1 0x20 SWAP1 DUP6 SWAP1 PUSH1 0x1 PUSH1 0x1 PUSH1 0xA0 SHL SUB AND DUP3 DUP7 DUP7 DUP2 DUP5 GAS STATICCALL DUP1 ISZERO PUSH2 0x5F1 JUMPI DUP6 SWAP7 DUP4 SWAP7 SWAP6 SWAP7 SWAP2 PUSH2 0x5BC JUMPI JUMPDEST POP DUP4 DUP6 SLOAD DUP3 GT PUSH2 0x58A JUMPI JUMPDEST POP POP DUP5 MLOAD PUSH4 0xB6042CF9 PUSH1 0xE0 SHL DUP2 MSTORE SWAP6 DUP7 SWAP2 DUP3 SWAP1 GAS STATICCALL SWAP4 DUP5 ISZERO PUSH2 0x580 JUMPI DUP6 SWAP5 PUSH2 0x55C JUMPI JUMPDEST POP DUP4 MLOAD DUP6 SLOAD SUB PUSH2 0x527 JUMPI DUP5 JUMPDEST DUP6 SLOAD DUP2 LT ISZERO PUSH2 0x523 JUMPI PUSH2 0x248 DUP2 PUSH2 0xEFB JUMP JUMPDEST SWAP1 SLOAD DUP6 MLOAD TIMESTAMP DUP6 DUP3 ADD SWAP1 DUP2 MSTORE PUSH1 0x20 DUP2 ADD DUP6 SWAP1 MSTORE PUSH1 0x3 SWAP4 DUP5 SHL SWAP3 SWAP1 SWAP3 SHR PUSH1 0x40 DUP4 ADD MSTORE DUP1 PUSH1 0x60 DUP4 ADD SUB SWAP1 PUSH2 0x281 PUSH1 0x1F NOT SWAP3 DUP4 DUP2 ADD DUP4 MSTORE DUP3 PUSH2 0x1046 JUMP JUMPDEST PUSH1 0x64 SWAP3 DUP4 SWAP2 MLOAD SWAP1 KECCAK256 MOD SWAP1 PUSH1 0x1 SWAP2 DUP3 DUP7 ADD DUP1 DUP8 GT PUSH2 0x510 JUMPI DUP5 PUSH1 0x65 SWAP2 DUP12 PUSH2 0x2DE DUP12 PUSH2 0x2D2 PUSH2 0x2AD DUP14 PUSH2 0xEC4 JUMP JUMPDEST SWAP1 SLOAD SWAP1 DUP14 SHL SHR SWAP4 MLOAD SWAP4 DUP5 SWAP3 DUP4 ADD SWAP6 TIMESTAMP DUP8 SWAP2 PUSH1 0x60 SWAP4 SWAP2 DUP4 MSTORE PUSH1 0x20 DUP4 ADD MSTORE PUSH1 0x40 DUP3 ADD MSTORE ADD SWAP1 JUMP JUMPDEST SUB DUP8 DUP2 ADD DUP4 MSTORE DUP3 PUSH2 0x1046 JUMP JUMPDEST MLOAD SWAP1 KECCAK256 MOD SWAP3 PUSH2 0x2EC DUP9 PUSH2 0xEC4 JUMP JUMPDEST SWAP1 SLOAD SWAP1 DUP9 SHL SHR SWAP1 PUSH2 0x325 DUP13 MLOAD SWAP2 DUP3 PUSH2 0x319 DUP14 DUP3 ADD SWAP6 DUP14 TIMESTAMP DUP9 SWAP2 PUSH1 0x60 SWAP4 SWAP2 DUP4 MSTORE PUSH1 0x20 DUP4 ADD MSTORE PUSH1 0x40 DUP3 ADD MSTORE ADD SWAP1 JUMP JUMPDEST SUB SWAP1 DUP2 ADD DUP4 MSTORE DUP3 PUSH2 0x1046 JUMP JUMPDEST MLOAD SWAP1 KECCAK256 MOD SWAP3 PUSH1 0x31 NOT DUP5 ADD SWAP4 DUP5 SGT AND PUSH2 0x4FB JUMPI SWAP2 PUSH2 0x3E0 PUSH2 0x3E5 SWAP3 DUP6 PUSH2 0x3D0 DUP9 PUSH2 0x3CB DUP16 DUP5 SWAP10 DUP4 SWAP12 PUSH2 0x3D0 PUSH1 0x1 SWAP16 SWAP15 SWAP4 DUP16 PUSH2 0x3C2 DUP2 PUSH2 0x3AA PUSH2 0x394 DUP3 PUSH2 0x38E PUSH2 0x3D7 SWAP12 PUSH2 0x373 PUSH2 0x3CB SWAP9 PUSH2 0xFB3 JUMP JUMPDEST SWAP1 SLOAD SWAP1 DUP3 SHL SHR SWAP1 PUSH2 0x383 DUP5 PUSH2 0xEFB JUMP JUMPDEST SWAP1 SLOAD SWAP2 SHL SHR SWAP1 PUSH2 0x136A JUMP JUMPDEST SWAP7 PUSH2 0x122D JUMP JUMPDEST MLOAD PUSH2 0x39E DUP4 PUSH2 0xEFB JUMP JUMPDEST SWAP1 SLOAD SWAP1 DUP14 SHL SHR SWAP1 PUSH2 0x136A JUMP JUMPDEST SWAP10 PUSH2 0x3B7 PUSH1 0x5 SLOAD SWAP3 PUSH2 0xEC4 JUMP JUMPDEST SWAP1 SLOAD SWAP2 SHL SHR SWAP1 PUSH2 0x1336 JUMP JUMPDEST SWAP5 PUSH1 0x6 SLOAD PUSH2 0x1336 JUMP JUMPDEST PUSH2 0x1336 JUMP JUMPDEST SDIV SWAP1 PUSH2 0x1390 JUMP JUMPDEST SWAP5 PUSH1 0x7 SLOAD PUSH2 0x1336 JUMP JUMPDEST PUSH2 0x1390 JUMP JUMPDEST SDIV PUSH2 0x409 PUSH2 0x3F2 DUP5 PUSH2 0xEC4 JUMP JUMPDEST DUP2 SWAP4 SWAP2 SLOAD SWAP1 PUSH1 0x3 SHL SWAP2 DUP3 SHL SWAP2 PUSH1 0x0 NOT SWAP1 SHL NOT AND OR SWAP1 JUMP JUMPDEST SWAP1 SSTORE PUSH2 0x432 PUSH2 0x417 DUP4 PUSH2 0xEFB JUMP JUMPDEST SWAP1 SLOAD SWAP1 DUP4 SHL SHR PUSH2 0x426 DUP5 PUSH2 0xEC4 JUMP JUMPDEST SWAP1 SLOAD SWAP1 DUP5 SHL SHR SWAP1 PUSH2 0x1390 JUMP JUMPDEST PUSH2 0x43E PUSH2 0x3F2 DUP5 PUSH2 0xEFB JUMP JUMPDEST SWAP1 SSTORE PUSH2 0x46F PUSH2 0x44C DUP4 PUSH2 0xFB3 JUMP JUMPDEST SWAP1 SLOAD SWAP1 DUP4 SHL SHR PUSH2 0x469 PUSH2 0x45E DUP6 PUSH2 0xE56 JUMP JUMPDEST SWAP1 SLOAD SWAP1 DUP6 SHL SHR PUSH2 0x12DE JUMP JUMPDEST SWAP1 PUSH2 0x136A JUMP JUMPDEST PUSH2 0x49E PUSH2 0x47B DUP5 PUSH2 0xFB3 JUMP JUMPDEST SWAP1 SLOAD SWAP1 DUP5 SHL SHR PUSH2 0x498 PUSH2 0x48D DUP7 PUSH2 0xF45 JUMP JUMPDEST SWAP1 SLOAD SWAP1 DUP7 SHL SHR PUSH2 0x12DE JUMP JUMPDEST SWAP1 PUSH2 0x1390 JUMP JUMPDEST SWAP2 DUP2 DUP4 SWAP3 PUSH2 0x4AB DUP7 PUSH2 0xEFB JUMP JUMPDEST SWAP1 SLOAD SWAP1 DUP5 SHL SHR SLT PUSH2 0x4E7 JUMPI JUMPDEST POP PUSH2 0x4C1 DUP5 PUSH2 0xEFB JUMP JUMPDEST SWAP1 SLOAD SWAP2 SHL SHR SGT PUSH2 0x4D3 JUMPI JUMPDEST POP ADD PUSH2 0x236 JUMP JUMPDEST PUSH2 0x4DF PUSH2 0x3F2 DUP4 PUSH2 0xEFB JUMP JUMPDEST SWAP1 SSTORE CODESIZE PUSH2 0x4CC JUMP JUMPDEST PUSH2 0x4F3 PUSH2 0x3F2 DUP7 PUSH2 0xEFB JUMP JUMPDEST SWAP1 SSTORE CODESIZE PUSH2 0x4B7 JUMP JUMPDEST PUSH1 0x11 DUP9 PUSH4 0x4E487B71 PUSH1 0xE0 SHL PUSH1 0x0 MSTORE MSTORE PUSH1 0x24 PUSH1 0x0 REVERT JUMPDEST PUSH4 0x4E487B71 PUSH1 0xE0 SHL DUP13 MSTORE PUSH1 0x11 DUP10 MSTORE PUSH1 0x24 DUP13 REVERT JUMPDEST DUP6 DUP1 RETURN JUMPDEST PUSH1 0x64 SWAP3 MLOAD SWAP2 PUSH3 0x461BCD PUSH1 0xE5 SHL DUP4 MSTORE DUP3 ADD MSTORE PUSH1 0x12 PUSH1 0x24 DUP3 ADD MSTORE PUSH18 0x44696D656E7369756E6920696E6567616C65 PUSH1 0x70 SHL PUSH1 0x44 DUP3 ADD MSTORE REVERT JUMPDEST PUSH2 0x579 SWAP2 SWAP5 POP RETURNDATASIZE DUP1 DUP8 DUP4 RETURNDATACOPY PUSH2 0x571 DUP2 DUP4 PUSH2 0x1046 JUMP JUMPDEST DUP2 ADD SWAP1 PUSH2 0x1241 JUMP JUMPDEST SWAP3 CODESIZE PUSH2 0x22A JUMP JUMPDEST DUP4 MLOAD RETURNDATASIZE DUP8 DUP3 RETURNDATACOPY RETURNDATASIZE SWAP1 REVERT JUMPDEST DUP2 PUSH32 0xC06999D659D5132DD93A1915097DA1A6A24201916389E38DA2404E4BCA5E59BE SWAP3 DUP8 SSTORE DUP8 MLOAD SWAP1 DUP2 MSTORE LOG1 CODESIZE DUP4 PUSH2 0x207 JUMP JUMPDEST DUP1 SWAP6 POP DUP5 DUP1 SWAP3 POP RETURNDATASIZE DUP4 GT PUSH2 0x5EA JUMPI JUMPDEST PUSH2 0x5D5 DUP2 DUP4 PUSH2 0x1046 JUMP JUMPDEST DUP2 ADD SUB SLT PUSH2 0x5E6 JUMPI DUP6 SWAP4 MLOAD CODESIZE PUSH2 0x1FC JUMP JUMPDEST POP DUP1 REVERT JUMPDEST POP RETURNDATASIZE PUSH2 0x5CB JUMP JUMPDEST DUP5 MLOAD RETURNDATASIZE DUP5 DUP3 RETURNDATACOPY RETURNDATASIZE SWAP1 REVERT JUMPDEST POP POP CALLVALUE PUSH2 0x5E6 JUMPI DUP2 PUSH1 0x3 NOT CALLDATASIZE ADD SLT PUSH2 0x5E6 JUMPI DUP1 MLOAD PUSH2 0x631 SWAP2 PUSH2 0x627 DUP3 PUSH2 0x620 DUP2 PUSH2 0x1157 JUMP JUMPDEST SUB DUP4 PUSH2 0x1046 JUMP JUMPDEST MLOAD SWAP2 DUP3 SWAP2 DUP3 PUSH2 0x111B JUMP JUMPDEST SUB SWAP1 RETURN JUMPDEST POP CALLVALUE PUSH2 0x186 JUMPI PUSH1 0x20 CALLDATASIZE PUSH1 0x3 NOT ADD SLT PUSH2 0x186 JUMPI CALLDATALOAD PUSH1 0xD SLOAD DUP2 LT ISZERO PUSH2 0x186 JUMPI PUSH1 0x20 SWAP3 POP PUSH1 0xD PUSH1 0x0 MSTORE PUSH32 0xD7B6990105719101DABEB77144F2A3385C8033ACD3AF97E9423A695E81AD1EB5 ADD SLOAD SWAP1 MLOAD SWAP1 DUP2 MSTORE RETURN JUMPDEST POP CALLVALUE PUSH2 0x186 JUMPI DUP3 PUSH1 0x3 NOT CALLDATASIZE ADD SLT PUSH2 0x186 JUMPI PUSH1 0x20 SWAP3 POP SLOAD SWAP1 MLOAD SWAP1 DUP2 MSTORE RETURN JUMPDEST POP CALLVALUE PUSH2 0x186 JUMPI PUSH1 0x20 CALLDATASIZE PUSH1 0x3 NOT ADD SLT PUSH2 0x186 JUMPI CALLDATALOAD PUSH1 0xB SLOAD DUP2 LT ISZERO PUSH2 0x186 JUMPI PUSH1 0x20 SWAP3 POP PUSH1 0xB PUSH1 0x0 MSTORE PUSH32 0x175B7A638427703F0DBE7BB9BBF987A2551717B34E79F33B5B1008D1FA01DB9 ADD SLOAD SWAP1 MLOAD SWAP1 DUP2 MSTORE RETURN JUMPDEST POP CALLVALUE PUSH2 0x186 JUMPI PUSH1 0x20 CALLDATASIZE PUSH1 0x3 NOT ADD SLT PUSH2 0x186 JUMPI CALLDATALOAD SWAP2 PUSH1 0x9 SLOAD DUP4 LT ISZERO PUSH2 0x183 JUMPI POP PUSH2 0x175 PUSH1 0x20 SWAP3 PUSH2 0xFD8 JUMP JUMPDEST POP CALLVALUE PUSH2 0x186 JUMPI PUSH1 0x20 CALLDATASIZE PUSH1 0x3 NOT ADD SLT PUSH2 0x186 JUMPI CALLDATALOAD SWAP2 PUSH1 0x2 SLOAD DUP4 LT ISZERO PUSH2 0x183 JUMPI POP PUSH2 0x175 PUSH1 0x20 SWAP3 PUSH2 0xFB3 JUMP JUMPDEST POP SWAP1 CALLVALUE PUSH2 0x186 JUMPI PUSH1 0x3 NOT SWAP2 DUP4 DUP4 CALLDATASIZE ADD SLT PUSH2 0xB09 JUMPI PUSH2 0x778 DUP3 MLOAD PUSH2 0x773 DUP2 PUSH2 0x76C DUP2 PUSH2 0x11A2 JUMP JUMPDEST SUB DUP3 PUSH2 0x1046 JUMP JUMPDEST PUSH2 0x177D JUMP JUMPDEST PUSH1 0x3 DUP1 SLOAD DUP3 SLT PUSH2 0x8A8 JUMPI JUMPDEST PUSH1 0xE SLOAD PUSH2 0x78F DUP2 PUSH2 0x11FB JUMP JUMPDEST SWAP2 DUP8 JUMPDEST DUP3 DUP2 LT PUSH2 0x86B JUMPI POP POP PUSH1 0x10 SLOAD PUSH1 0x1 PUSH1 0x1 PUSH1 0xA0 SHL SUB AND SWAP3 SWAP1 POP DUP3 EXTCODESIZE ISZERO PUSH2 0x867 JUMPI DUP5 MLOAD PUSH4 0x2FC0395F PUSH1 0xE0 SHL DUP2 MSTORE PUSH1 0x60 DUP6 DUP3 ADD MSTORE SWAP6 DUP8 SWAP4 DUP8 SWAP4 SWAP1 SWAP3 SWAP1 SWAP2 PUSH2 0x7D8 PUSH1 0x64 DUP7 ADD PUSH2 0x11A2 JUMP JUMPDEST SWAP2 PUSH1 0x24 DUP7 ADD MSTORE DUP5 DUP3 SUB ADD PUSH1 0x44 DUP6 ADD MSTORE DUP2 MLOAD DUP1 DUP3 MSTORE PUSH1 0x20 DUP1 DUP1 SWAP4 ADD SWAP4 ADD SWAP2 DUP7 JUMPDEST DUP3 DUP2 LT PUSH2 0x84D JUMPI POP POP POP POP DUP4 DUP4 DUP1 SWAP3 SUB SWAP3 GAS CALL DUP1 ISZERO PUSH2 0x843 JUMPI PUSH2 0x818 JUMPI DUP4 DUP1 RETURN JUMPDEST PUSH8 0xFFFFFFFFFFFFFFFF DUP4 GT PUSH2 0x830 JUMPI POP MSTORE CODESIZE DUP1 DUP1 DUP4 DUP1 RETURN JUMPDEST PUSH4 0x4E487B71 PUSH1 0xE0 SHL DUP5 MSTORE PUSH1 0x41 SWAP1 MSTORE PUSH1 0x24 DUP4 REVERT JUMPDEST DUP3 MLOAD RETURNDATASIZE DUP7 DUP3 RETURNDATACOPY RETURNDATASIZE SWAP1 REVERT JUMPDEST DUP4 MLOAD DUP6 MSTORE DUP12 SWAP8 POP DUP11 SWAP7 POP SWAP4 DUP2 ADD SWAP4 SWAP3 DUP2 ADD SWAP3 PUSH1 0x1 ADD PUSH2 0x7F7 JUMP JUMPDEST DUP7 DUP1 REVERT JUMPDEST DUP1 PUSH2 0x895 PUSH2 0x87A PUSH1 0x1 SWAP4 PUSH2 0xF45 JUMP JUMPDEST SWAP1 SLOAD SWAP1 DUP6 SHL SHR PUSH2 0x889 DUP4 PUSH2 0xE56 JUMP JUMPDEST SWAP1 SLOAD SWAP1 DUP7 SHL SHR SWAP1 PUSH2 0x1383 JUMP JUMPDEST DUP3 SHR PUSH2 0x8A1 DUP3 DUP8 PUSH2 0x122D JUMP JUMPDEST MSTORE ADD PUSH2 0x792 JUMP JUMPDEST SWAP2 SWAP5 SWAP3 SWAP1 SWAP4 DUP5 DUP4 SSTORE DUP4 SLOAD SWAP3 PUSH8 0xFFFFFFFFFFFFFFFF DUP5 GT PUSH2 0xAF6 JUMPI PUSH9 0x10000000000000000 SWAP4 DUP5 DUP2 GT PUSH2 0xAE3 JUMPI PUSH1 0x2 SLOAD DUP2 PUSH1 0x2 SSTORE DUP1 DUP3 LT PUSH2 0xAB5 JUMPI JUMPDEST POP PUSH32 0x290DECD9548B62A8D60345A988386FC84BA6BC95484008F6362F93160EF3E563 PUSH1 0x2 DUP8 MSTORE DUP1 SLOAD SWAP1 DUP8 SWAP2 JUMPDEST DUP4 DUP4 LT PUSH2 0xA91 JUMPI POP POP POP POP PUSH1 0x11 SWAP2 PUSH1 0x11 SLOAD DUP7 PUSH1 0x11 SSTORE DUP1 PUSH2 0xA4F JUMPI JUMPDEST POP PUSH1 0x12 SWAP4 PUSH1 0x12 SLOAD DUP8 PUSH1 0x12 SSTORE DUP1 PUSH2 0xA0D JUMPI JUMPDEST POP DUP7 JUMPDEST PUSH1 0xA SLOAD DUP2 LT ISZERO PUSH2 0x9D3 JUMPI PUSH2 0x951 DUP2 PUSH2 0xF7C JUMP JUMPDEST SWAP1 SLOAD DUP7 SLOAD SWAP2 DUP7 SHL SHR DUP9 DUP3 LT ISZERO PUSH2 0x9C0 JUMPI PUSH2 0x974 PUSH2 0x3F2 PUSH1 0x1 SWAP4 DUP5 DUP2 ADD DUP11 SSTORE PUSH2 0x100F JUMP JUMPDEST SWAP1 SSTORE PUSH2 0x97F DUP3 PUSH2 0xE8D JUMP JUMPDEST SWAP1 SLOAD DUP9 SLOAD SWAP2 DUP8 SHL SHR SWAP2 DUP10 DUP3 LT ISZERO PUSH2 0x9AD JUMPI PUSH2 0x3F2 DUP3 PUSH2 0x9A5 SWAP3 PUSH1 0x1 SWAP7 SWAP6 SWAP5 ADD DUP12 SSTORE PUSH2 0xDD2 JUMP JUMPDEST SWAP1 SSTORE ADD PUSH2 0x93E JUMP JUMPDEST PUSH4 0x4E487B71 PUSH1 0xE0 SHL DUP12 MSTORE PUSH1 0x41 DUP14 MSTORE PUSH1 0x24 DUP12 REVERT JUMPDEST PUSH4 0x4E487B71 PUSH1 0xE0 SHL DUP11 MSTORE PUSH1 0x41 DUP13 MSTORE PUSH1 0x24 DUP11 REVERT JUMPDEST POP SWAP6 SWAP8 SWAP5 POP SWAP6 SWAP3 POP SWAP1 POP DUP4 MLOAD DUP3 DUP2 MSTORE PUSH32 0x409D103F7876158F293A85EE39F235CE0C309AB1ACA81024A51DFB4B471E556E PUSH1 0x20 ADDRESS SWAP3 LOG2 PUSH2 0x783 JUMP JUMPDEST PUSH1 0x12 DUP9 MSTORE PUSH32 0xBB8A6A4669BA250D26CD7A459ECA9D215F8307E33AEBE50379BC5A3617EC3444 SWAP1 DUP2 ADD SWAP1 JUMPDEST DUP2 DUP2 LT PUSH2 0xA44 JUMPI POP PUSH2 0x93B JUMP JUMPDEST DUP9 DUP2 SSTORE PUSH1 0x1 ADD PUSH2 0xA37 JUMP JUMPDEST PUSH1 0x11 DUP8 MSTORE PUSH32 0x31ECC21A745E3968A04E9570E4425BC18FA8019C68028196B546D1669C200C68 SWAP1 DUP2 ADD SWAP1 JUMPDEST DUP2 DUP2 LT PUSH2 0xA86 JUMPI POP PUSH2 0x92A JUMP JUMPDEST DUP8 DUP2 SSTORE PUSH1 0x1 ADD PUSH2 0xA79 JUMP JUMPDEST PUSH1 0x1 DUP1 SWAP2 SWAP3 ADD SWAP3 DUP4 SLOAD SWAP3 DUP2 PUSH1 0x0 DUP1 MLOAD PUSH1 0x20 PUSH2 0x1B97 DUP4 CODECOPY DUP2 MLOAD SWAP2 MSTORE ADD SSTORE ADD SWAP2 SWAP1 PUSH2 0x90F JUMP JUMPDEST DUP2 PUSH1 0x0 DUP1 MLOAD PUSH1 0x20 PUSH2 0x1B97 DUP4 CODECOPY DUP2 MLOAD SWAP2 MSTORE SWAP2 DUP3 ADD SWAP2 ADD JUMPDEST DUP2 DUP2 LT PUSH2 0xAD8 JUMPI POP PUSH2 0x8E3 JUMP JUMPDEST DUP8 DUP2 SSTORE PUSH1 0x1 ADD PUSH2 0xACB JUMP JUMPDEST PUSH4 0x4E487B71 PUSH1 0xE0 SHL DUP7 MSTORE PUSH1 0x41 DUP9 MSTORE PUSH1 0x24 DUP7 REVERT JUMPDEST PUSH4 0x4E487B71 PUSH1 0xE0 SHL DUP6 MSTORE PUSH1 0x41 DUP8 MSTORE PUSH1 0x24 DUP6 REVERT JUMPDEST DUP4 DUP1 REVERT JUMPDEST POP CALLVALUE PUSH2 0x186 JUMPI PUSH1 0x20 CALLDATASIZE PUSH1 0x3 NOT ADD SLT PUSH2 0x186 JUMPI CALLDATALOAD SWAP2 PUSH1 0xA SLOAD DUP4 LT ISZERO PUSH2 0x183 JUMPI POP PUSH2 0x175 PUSH1 0x20 SWAP3 PUSH2 0xF7C JUMP JUMPDEST POP SWAP2 CALLVALUE PUSH2 0x183 JUMPI DUP2 PUSH1 0x3 NOT CALLDATASIZE ADD SLT PUSH2 0x183 JUMPI POP PUSH2 0xB5A PUSH1 0x20 SWAP3 PUSH1 0x24 CALLDATALOAD SWAP1 CALLDATALOAD PUSH2 0x1B32 JUMP JUMPDEST SWAP1 MLOAD SWAP1 DUP2 MSTORE RETURN JUMPDEST POP POP CALLVALUE PUSH2 0x5E6 JUMPI DUP2 PUSH1 0x3 NOT CALLDATASIZE ADD SLT PUSH2 0x5E6 JUMPI PUSH1 0x10 SLOAD SWAP1 MLOAD PUSH1 0x1 PUSH1 0x1 PUSH1 0xA0 SHL SUB SWAP1 SWAP2 AND DUP2 MSTORE PUSH1 0x20 SWAP1 RETURN JUMPDEST POP CALLVALUE PUSH2 0x186 JUMPI PUSH1 0x20 CALLDATASIZE PUSH1 0x3 NOT ADD SLT PUSH2 0x186 JUMPI CALLDATALOAD SWAP2 PUSH1 0xE SLOAD DUP4 LT ISZERO PUSH2 0x183 JUMPI POP PUSH2 0x175 PUSH1 0x20 SWAP3 PUSH2 0xF45 JUMP JUMPDEST DUP3 DUP5 CALLVALUE PUSH2 0x183 JUMPI DUP1 PUSH1 0x3 NOT CALLDATASIZE ADD SLT PUSH2 0x183 JUMPI DUP1 SLOAD PUSH2 0xBD1 DUP2 PUSH2 0x107E JUMP JUMPDEST SWAP2 PUSH2 0xBDE DUP5 MLOAD SWAP4 DUP5 PUSH2 0x1046 JUMP JUMPDEST DUP2 DUP4 MSTORE PUSH1 0x1F NOT PUSH2 0xBED DUP4 PUSH2 0x107E JUMP JUMPDEST ADD CALLDATASIZE PUSH1 0x20 DUP6 ADD CALLDATACOPY JUMPDEST DUP2 DUP2 LT PUSH2 0xC09 JUMPI DUP4 MLOAD DUP1 PUSH2 0x631 DUP6 DUP3 PUSH2 0x111B JUMP JUMPDEST DUP1 PUSH2 0xC15 PUSH1 0x1 SWAP3 PUSH2 0xEFB JUMP JUMPDEST SWAP1 SLOAD SWAP1 PUSH1 0x3 SHL SHR PUSH2 0xC26 DUP3 DUP7 PUSH2 0x122D JUMP JUMPDEST MSTORE ADD PUSH2 0xBF5 JUMP JUMPDEST POP CALLVALUE PUSH2 0x186 JUMPI PUSH1 0x20 CALLDATASIZE PUSH1 0x3 NOT ADD SLT PUSH2 0x186 JUMPI CALLDATALOAD SWAP2 PUSH1 0x1 SLOAD DUP4 LT ISZERO PUSH2 0x183 JUMPI POP PUSH2 0x175 PUSH1 0x20 SWAP3 PUSH2 0xEC4 JUMP JUMPDEST POP POP CALLVALUE PUSH2 0x5E6 JUMPI DUP2 PUSH1 0x3 NOT CALLDATASIZE ADD SLT PUSH2 0x5E6 JUMPI PUSH1 0x20 SWAP1 PUSH1 0x6 SLOAD SWAP1 MLOAD SWAP1 DUP2 MSTORE RETURN JUMPDEST POP CALLVALUE PUSH2 0x186 JUMPI PUSH1 0x20 CALLDATASIZE PUSH1 0x3 NOT ADD SLT PUSH2 0x186 JUMPI CALLDATALOAD SWAP2 PUSH1 0xC SLOAD DUP4 LT ISZERO PUSH2 0x183 JUMPI POP PUSH2 0x175 PUSH1 0x20 SWAP3 PUSH2 0xE8D JUMP JUMPDEST POP POP CALLVALUE PUSH2 0x5E6 JUMPI DUP2 PUSH1 0x3 NOT CALLDATASIZE ADD SLT PUSH2 0x5E6 JUMPI PUSH1 0x20 SWAP1 PUSH1 0x3 SLOAD SWAP1 MLOAD SWAP1 DUP2 MSTORE RETURN JUMPDEST POP POP CALLVALUE PUSH2 0x5E6 JUMPI DUP2 PUSH1 0x3 NOT CALLDATASIZE ADD SLT PUSH2 0x5E6 JUMPI PUSH1 0x20 SWAP1 PUSH1 0x7 SLOAD SWAP1 MLOAD SWAP1 DUP2 MSTORE RETURN JUMPDEST POP CALLVALUE PUSH2 0x186 JUMPI PUSH1 0x20 CALLDATASIZE PUSH1 0x3 NOT ADD SLT PUSH2 0x186 JUMPI CALLDATALOAD SWAP2 PUSH1 0xF SLOAD DUP4 LT ISZERO PUSH2 0x183 JUMPI POP PUSH2 0x175 PUSH1 0x20 SWAP3 PUSH2 0xE56 JUMP JUMPDEST POP POP CALLVALUE PUSH2 0x5E6 JUMPI PUSH1 0x20 SWAP1 PUSH2 0xB5A PUSH2 0x773 CALLDATASIZE PUSH2 0x1096 JUMP JUMPDEST POP POP CALLVALUE PUSH2 0x5E6 JUMPI PUSH1 0x20 SWAP1 PUSH2 0xB5A PUSH2 0xD34 CALLDATASIZE PUSH2 0x1096 JUMP JUMPDEST PUSH2 0x13AC JUMP JUMPDEST POP POP CALLVALUE PUSH2 0x5E6 JUMPI DUP2 PUSH1 0x3 NOT CALLDATASIZE ADD SLT PUSH2 0x5E6 JUMPI PUSH1 0x20 SWAP1 PUSH1 0x5 SLOAD SWAP1 MLOAD SWAP1 DUP2 MSTORE RETURN JUMPDEST POP CALLVALUE PUSH2 0x186 JUMPI PUSH1 0x20 CALLDATASIZE PUSH1 0x3 NOT ADD SLT PUSH2 0x186 JUMPI CALLDATALOAD SWAP2 PUSH1 0x8 SLOAD DUP4 LT ISZERO PUSH2 0x183 JUMPI POP PUSH2 0x175 PUSH1 0x20 SWAP3 PUSH2 0xE1F JUMP JUMPDEST POP CALLVALUE PUSH2 0x186 JUMPI PUSH1 0x20 CALLDATASIZE PUSH1 0x3 NOT ADD SLT PUSH2 0x186 JUMPI CALLDATALOAD SWAP2 PUSH1 0x12 SLOAD DUP4 LT ISZERO PUSH2 0x183 JUMPI POP PUSH2 0x175 PUSH1 0x20 SWAP3 PUSH2 0xDD2 JUMP JUMPDEST DUP4 DUP6 CALLVALUE PUSH2 0x183 JUMPI DUP1 PUSH1 0x3 NOT CALLDATASIZE ADD SLT PUSH2 0x183 JUMPI POP PUSH2 0xB5A DUP3 PUSH2 0xD34 DUP2 PUSH2 0x76C PUSH1 0x20 SWAP7 PUSH2 0x1157 JUMP JUMPDEST PUSH1 0x12 SLOAD DUP2 LT ISZERO PUSH2 0xE09 JUMPI PUSH1 0x12 PUSH1 0x0 MSTORE PUSH32 0xBB8A6A4669BA250D26CD7A459ECA9D215F8307E33AEBE50379BC5A3617EC3444 ADD SWAP1 PUSH1 0x0 SWAP1 JUMP JUMPDEST PUSH4 0x4E487B71 PUSH1 0xE0 SHL PUSH1 0x0 MSTORE PUSH1 0x32 PUSH1 0x4 MSTORE PUSH1 0x24 PUSH1 0x0 REVERT JUMPDEST PUSH1 0x8 SLOAD DUP2 LT ISZERO PUSH2 0xE09 JUMPI PUSH1 0x8 PUSH1 0x0 MSTORE PUSH32 0xF3F7A9FE364FAAB93B216DA50A3214154F22A0A2B415B23A84C8169E8B636EE3 ADD SWAP1 PUSH1 0x0 SWAP1 JUMP JUMPDEST PUSH1 0xF SLOAD DUP2 LT ISZERO PUSH2 0xE09 JUMPI PUSH1 0xF PUSH1 0x0 MSTORE PUSH32 0x8D1108E10BCB7C27DDDFC02ED9D693A074039D026CF4EA4240B40F7D581AC802 ADD SWAP1 PUSH1 0x0 SWAP1 JUMP JUMPDEST PUSH1 0xC SLOAD DUP2 LT ISZERO PUSH2 0xE09 JUMPI PUSH1 0xC PUSH1 0x0 MSTORE PUSH32 0xDF6966C971051C3D54EC59162606531493A51404A002842F56009D7E5CF4A8C7 ADD SWAP1 PUSH1 0x0 SWAP1 JUMP JUMPDEST PUSH1 0x1 SLOAD DUP2 LT ISZERO PUSH2 0xE09 JUMPI PUSH1 0x1 PUSH1 0x0 MSTORE PUSH32 0xB10E2D527612073B26EECDFD717E6A320CF44B4AFAC2B0732D9FCBE2B7FA0CF6 ADD SWAP1 PUSH1 0x0 SWAP1 JUMP JUMPDEST SWAP1 PUSH1 0x0 SWAP2 DUP3 SLOAD DUP2 LT ISZERO PUSH2 0xF31 JUMPI DUP3 DUP1 MSTORE PUSH32 0x290DECD9548B62A8D60345A988386FC84BA6BC95484008F6362F93160EF3E563 ADD SWAP2 SWAP1 JUMP JUMPDEST PUSH4 0x4E487B71 PUSH1 0xE0 SHL DUP4 MSTORE PUSH1 0x32 PUSH1 0x4 MSTORE PUSH1 0x24 DUP4 REVERT JUMPDEST PUSH1 0xE SLOAD DUP2 LT ISZERO PUSH2 0xE09 JUMPI PUSH1 0xE PUSH1 0x0 MSTORE PUSH32 0xBB7B4A454DC3493923482F07822329ED19E8244EFF582CC204F8554C3620C3FD ADD SWAP1 PUSH1 0x0 SWAP1 JUMP JUMPDEST PUSH1 0xA SLOAD DUP2 LT ISZERO PUSH2 0xE09 JUMPI PUSH1 0xA PUSH1 0x0 MSTORE PUSH32 0xC65A7BB8D6351C1CF70C95A316CC6A92839C986682D98BC35F958F4883F9D2A8 ADD SWAP1 PUSH1 0x0 SWAP1 JUMP JUMPDEST PUSH1 0x2 SLOAD DUP2 LT ISZERO PUSH2 0xE09 JUMPI PUSH1 0x2 PUSH1 0x0 MSTORE PUSH1 0x0 DUP1 MLOAD PUSH1 0x20 PUSH2 0x1B97 DUP4 CODECOPY DUP2 MLOAD SWAP2 MSTORE ADD SWAP1 PUSH1 0x0 SWAP1 JUMP JUMPDEST PUSH1 0x9 SLOAD DUP2 LT ISZERO PUSH2 0xE09 JUMPI PUSH1 0x9 PUSH1 0x0 MSTORE PUSH32 0x6E1540171B6C0C960B71A7020D9F60077F6AF931A8BBF590DA0223DACF75C7AF ADD SWAP1 PUSH1 0x0 SWAP1 JUMP JUMPDEST PUSH1 0x11 SLOAD DUP2 LT ISZERO PUSH2 0xE09 JUMPI PUSH1 0x11 PUSH1 0x0 MSTORE PUSH32 0x31ECC21A745E3968A04E9570E4425BC18FA8019C68028196B546D1669C200C68 ADD SWAP1 PUSH1 0x0 SWAP1 JUMP JUMPDEST SWAP1 PUSH1 0x1F DUP1 NOT SWAP2 ADD AND DUP2 ADD SWAP1 DUP2 LT PUSH8 0xFFFFFFFFFFFFFFFF DUP3 GT OR PUSH2 0x1068 JUMPI PUSH1 0x40 MSTORE JUMP JUMPDEST PUSH4 0x4E487B71 PUSH1 0xE0 SHL PUSH1 0x0 MSTORE PUSH1 0x41 PUSH1 0x4 MSTORE PUSH1 0x24 PUSH1 0x0 REVERT JUMPDEST PUSH8 0xFFFFFFFFFFFFFFFF DUP2 GT PUSH2 0x1068 JUMPI PUSH1 0x5 SHL PUSH1 0x20 ADD SWAP1 JUMP JUMPDEST PUSH1 0x20 DUP1 PUSH1 0x3 NOT DUP4 ADD SLT PUSH2 0x1116 JUMPI PUSH1 0x4 CALLDATALOAD SWAP2 PUSH8 0xFFFFFFFFFFFFFFFF DUP4 GT PUSH2 0x1116 JUMPI DUP1 PUSH1 0x23 DUP5 ADD SLT ISZERO PUSH2 0x1116 JUMPI DUP3 PUSH1 0x4 ADD CALLDATALOAD PUSH2 0x10CF DUP2 PUSH2 0x107E JUMP JUMPDEST SWAP4 PUSH2 0x10DD PUSH1 0x40 MLOAD SWAP6 DUP7 PUSH2 0x1046 JUMP JUMPDEST DUP2 DUP6 MSTORE PUSH1 0x24 PUSH1 0x20 DUP7 ADD SWAP3 PUSH1 0x5 SHL DUP3 ADD ADD SWAP3 DUP4 GT PUSH2 0x1116 JUMPI PUSH1 0x24 ADD SWAP1 JUMPDEST DUP3 DUP3 LT PUSH2 0x1107 JUMPI POP POP POP POP SWAP1 JUMP JUMPDEST DUP2 CALLDATALOAD DUP2 MSTORE SWAP1 DUP4 ADD SWAP1 DUP4 ADD PUSH2 0x10F9 JUMP JUMPDEST PUSH1 0x0 DUP1 REVERT JUMPDEST PUSH1 0x20 SWAP1 PUSH1 0x20 PUSH1 0x40 DUP2 DUP4 ADD SWAP3 DUP3 DUP2 MSTORE DUP6 MLOAD DUP1 SWAP5 MSTORE ADD SWAP4 ADD SWAP2 PUSH1 0x0 JUMPDEST DUP3 DUP2 LT PUSH2 0x1143 JUMPI POP POP POP POP SWAP1 JUMP JUMPDEST DUP4 MLOAD DUP6 MSTORE SWAP4 DUP2 ADD SWAP4 SWAP3 DUP2 ADD SWAP3 PUSH1 0x1 ADD PUSH2 0x1135 JUMP JUMPDEST PUSH1 0x2 SLOAD SWAP1 DUP2 DUP2 MSTORE PUSH1 0x20 DUP1 SWAP2 ADD SWAP2 PUSH1 0x2 PUSH1 0x0 MSTORE PUSH1 0x0 DUP1 MLOAD PUSH1 0x20 PUSH2 0x1B97 DUP4 CODECOPY DUP2 MLOAD SWAP2 MSTORE SWAP2 PUSH1 0x0 SWAP1 JUMPDEST DUP3 DUP3 LT PUSH2 0x118B JUMPI POP POP POP POP SWAP1 JUMP JUMPDEST DUP4 SLOAD DUP6 MSTORE SWAP4 DUP5 ADD SWAP4 PUSH1 0x1 SWAP4 DUP5 ADD SWAP4 SWAP1 SWAP2 ADD SWAP1 PUSH2 0x117D JUMP JUMPDEST PUSH1 0x0 DUP1 SLOAD DUP1 DUP4 MSTORE DUP2 DUP1 MSTORE PUSH1 0x20 SWAP3 DUP4 ADD SWAP3 PUSH32 0x290DECD9548B62A8D60345A988386FC84BA6BC95484008F6362F93160EF3E563 SWAP3 SWAP1 JUMPDEST DUP3 DUP3 LT PUSH2 0x11E4 JUMPI POP POP POP POP SWAP1 JUMP JUMPDEST DUP4 SLOAD DUP6 MSTORE SWAP4 DUP5 ADD SWAP4 PUSH1 0x1 SWAP4 DUP5 ADD SWAP4 SWAP1 SWAP2 ADD SWAP1 PUSH2 0x11D6 JUMP JUMPDEST SWAP1 PUSH2 0x1205 DUP3 PUSH2 0x107E JUMP JUMPDEST PUSH2 0x1212 PUSH1 0x40 MLOAD SWAP2 DUP3 PUSH2 0x1046 JUMP JUMPDEST DUP3 DUP2 MSTORE DUP1 SWAP3 PUSH2 0x1223 PUSH1 0x1F NOT SWAP2 PUSH2 0x107E JUMP JUMPDEST ADD SWAP1 PUSH1 0x20 CALLDATASIZE SWAP2 ADD CALLDATACOPY JUMP JUMPDEST DUP1 MLOAD DUP3 LT ISZERO PUSH2 0xE09 JUMPI PUSH1 0x20 SWAP2 PUSH1 0x5 SHL ADD ADD SWAP1 JUMP JUMPDEST PUSH1 0x20 SWAP1 DUP2 DUP2 DUP5 SUB SLT PUSH2 0x1116 JUMPI DUP1 MLOAD SWAP1 PUSH8 0xFFFFFFFFFFFFFFFF DUP3 GT PUSH2 0x1116 JUMPI ADD SWAP2 DUP1 PUSH1 0x1F DUP5 ADD SLT ISZERO PUSH2 0x1116 JUMPI DUP3 MLOAD PUSH2 0x1277 DUP2 PUSH2 0x107E JUMP JUMPDEST SWAP4 PUSH2 0x1285 PUSH1 0x40 MLOAD SWAP6 DUP7 PUSH2 0x1046 JUMP JUMPDEST DUP2 DUP6 MSTORE DUP4 DUP1 DUP7 ADD SWAP3 PUSH1 0x5 SHL DUP3 ADD ADD SWAP3 DUP4 GT PUSH2 0x1116 JUMPI DUP4 ADD SWAP1 JUMPDEST DUP3 DUP3 LT PUSH2 0x12AC JUMPI POP POP POP POP SWAP1 JUMP JUMPDEST DUP2 MLOAD DUP2 MSTORE SWAP1 DUP4 ADD SWAP1 DUP4 ADD PUSH2 0x129E JUMP JUMPDEST SWAP2 SWAP1 DUP3 SUB SWAP2 DUP3 GT PUSH2 0x12C8 JUMPI JUMP JUMPDEST PUSH4 0x4E487B71 PUSH1 0xE0 SHL PUSH1 0x0 MSTORE PUSH1 0x11 PUSH1 0x4 MSTORE PUSH1 0x24 PUSH1 0x0 REVERT JUMPDEST SWAP1 DUP2 PUSH1 0x1 SHL SWAP2 DUP1 DUP4 SDIV PUSH1 0x2 EQ SWAP1 ISZERO OR ISZERO PUSH2 0x12C8 JUMPI JUMP JUMPDEST SWAP1 PUSH1 0x5 DUP3 MUL SWAP2 DUP1 DUP4 SDIV PUSH1 0x5 EQ SWAP1 ISZERO OR ISZERO PUSH2 0x12C8 JUMPI JUMP JUMPDEST SWAP1 PUSH1 0x3 DUP3 MUL SWAP2 DUP1 DUP4 SDIV PUSH1 0x3 EQ SWAP1 ISZERO OR ISZERO PUSH2 0x12C8 JUMPI JUMP JUMPDEST SWAP1 DUP2 PUSH1 0x2 SHL SWAP2 DUP1 DUP4 SDIV PUSH1 0x4 EQ SWAP1 ISZERO OR ISZERO PUSH2 0x12C8 JUMPI JUMP JUMPDEST DUP2 DUP2 MUL SWAP3 SWAP2 PUSH1 0x0 DUP3 SLT PUSH1 0x1 PUSH1 0xFF SHL DUP3 EQ AND PUSH2 0x12C8 JUMPI DUP2 DUP5 SDIV EQ SWAP1 ISZERO OR ISZERO PUSH2 0x12C8 JUMPI JUMP JUMPDEST PUSH1 0x1 PUSH1 0xFF SHL DUP2 EQ PUSH2 0x12C8 JUMPI PUSH1 0x0 SUB SWAP1 JUMP JUMPDEST DUP2 DUP2 SUB SWAP3 SWAP2 PUSH1 0x0 SGT DUP1 ISZERO DUP3 DUP6 SGT AND SWAP2 DUP5 SLT AND OR PUSH2 0x12C8 JUMPI JUMP JUMPDEST SWAP2 SWAP1 DUP3 ADD DUP1 SWAP3 GT PUSH2 0x12C8 JUMPI JUMP JUMPDEST SWAP2 SWAP1 SWAP2 PUSH1 0x0 DUP4 DUP3 ADD SWAP4 DUP5 SLT SWAP2 SLT SWAP1 DUP1 ISZERO DUP3 AND SWAP2 ISZERO AND OR PUSH2 0x12C8 JUMPI JUMP JUMPDEST PUSH1 0x0 SWAP1 DUP1 MLOAD PUSH1 0x11 SLOAD SWAP1 PUSH2 0x13BE DUP3 PUSH2 0x11FB JUMP JUMPDEST SWAP2 DUP5 JUMPDEST DUP2 DUP2 LT PUSH2 0x1759 JUMPI POP POP PUSH1 0x12 SLOAD SWAP2 PUSH2 0x13D7 DUP4 PUSH2 0x11FB JUMP JUMPDEST SWAP3 DUP6 JUMPDEST DUP2 DUP2 LT PUSH2 0x1735 JUMPI POP POP PUSH1 0x10 SLOAD PUSH1 0x40 MLOAD PUSH4 0xB6042CF9 PUSH1 0xE0 SHL DUP2 MSTORE SWAP2 SWAP1 DUP7 SWAP1 DUP4 SWAP1 PUSH1 0x4 SWAP1 DUP3 SWAP1 PUSH1 0x1 PUSH1 0x1 PUSH1 0xA0 SHL SUB AND GAS STATICCALL SWAP2 DUP3 ISZERO PUSH2 0x172A JUMPI DUP7 SWAP3 PUSH2 0x170E JUMPI JUMPDEST POP SWAP4 SWAP3 SWAP2 SWAP1 DUP6 SWAP5 JUMPDEST DUP3 DUP7 LT PUSH2 0x142F JUMPI POP POP POP POP POP POP SWAP1 JUMP JUMPDEST SWAP1 SWAP2 SWAP3 SWAP4 SWAP5 SWAP6 PUSH2 0x1574 PUSH1 0x1 SWAP2 PUSH2 0x498 PUSH2 0x1448 DUP11 DUP11 PUSH2 0x122D JUMP JUMPDEST MLOAD DUP1 DUP12 PUSH1 0x0 DUP1 DUP4 SLT ISZERO PUSH2 0x1641 JUMPI POP PUSH2 0x1466 PUSH2 0x147A SWAP3 PUSH2 0x146B SWAP3 PUSH2 0x1B32 JUMP JUMPDEST PUSH2 0x1359 JUMP JUMPDEST PUSH2 0x1474 DUP4 PUSH2 0x1359 JUMP JUMPDEST SWAP1 PUSH2 0x1336 JUMP JUMPDEST SWAP1 JUMPDEST PUSH2 0x155B DUP13 PUSH2 0x498 PUSH2 0x1555 PUSH2 0x148F DUP4 PUSH2 0xFD8 JUMP JUMPDEST SWAP1 SLOAD PUSH1 0x3 SWAP5 SWAP2 PUSH1 0x0 SWAP2 SWAP1 DUP7 SHL SHR DUP8 SGT ISZERO PUSH2 0x1634 JUMPI POP PUSH2 0x498 PUSH2 0x154F PUSH2 0x14C2 PUSH2 0x14B6 DUP5 PUSH2 0xFD8 JUMP JUMPDEST SWAP1 SLOAD SWAP1 DUP9 SHL SHR DUP10 PUSH2 0x136A JUMP JUMPDEST SWAP6 JUMPDEST PUSH2 0x152C PUSH2 0x14D0 DUP6 PUSH2 0xFB3 JUMP JUMPDEST SWAP1 SLOAD SWAP1 DUP4 SHL SHR PUSH2 0x1507 PUSH2 0x1500 PUSH2 0x14E5 DUP9 PUSH2 0xF45 JUMP JUMPDEST SWAP1 SLOAD SWAP1 DUP7 SHL SHR PUSH2 0x14F4 DUP10 PUSH2 0xE56 JUMP JUMPDEST SWAP1 SLOAD SWAP1 DUP8 SHL SHR SWAP1 PUSH2 0x1383 JUMP JUMPDEST SWAP2 DUP13 PUSH2 0x136A JUMP JUMPDEST PUSH1 0x0 DUP2 SLT PUSH2 0x1625 JUMPI SWAP1 JUMPDEST PUSH1 0x0 SWAP2 DUP2 DUP2 SGT ISZERO PUSH2 0x161D JUMPI PUSH2 0x1526 SWAP3 POP PUSH2 0x136A JUMP JUMPDEST SWAP5 PUSH2 0x100F JUMP JUMPDEST SWAP1 SLOAD SWAP2 SHL SHR DUP9 PUSH1 0x0 SWAP2 DUP2 DUP2 SGT PUSH1 0x0 EQ PUSH2 0x1615 JUMPI PUSH2 0x1549 SWAP3 POP PUSH2 0x136A JUMP JUMPDEST SWAP6 PUSH2 0x12F4 JUMP JUMPDEST SWAP2 PUSH2 0x130A JUMP JUMPDEST SWAP2 PUSH2 0x12DE JUMP JUMPDEST PUSH1 0x0 SWAP2 DUP14 DUP12 DUP12 MLOAD EQ PUSH2 0x1580 JUMPI JUMPDEST POP POP PUSH2 0x3E0 SWAP2 SWAP3 PUSH2 0x1390 JUMP JUMPDEST SWAP7 ADD SWAP5 SWAP4 SWAP3 SWAP2 SWAP1 PUSH2 0x141F JUMP JUMPDEST PUSH2 0x158D PUSH2 0x1595 SWAP2 DUP13 PUSH2 0x122D JUMP JUMPDEST MLOAD DUP1 SWAP3 PUSH2 0x136A JUMP JUMPDEST SWAP1 DUP4 DUP3 SLT PUSH2 0x1606 JUMPI DUP2 SWAP1 JUMPDEST DUP1 ISZERO PUSH2 0x15FE JUMPI PUSH1 0xA SWAP1 SDIV SWAP2 JUMPDEST DUP3 DUP3 SGT PUSH2 0x15BC JUMPI JUMPDEST POP POP DUP14 PUSH2 0x1568 JUMP JUMPDEST PUSH2 0x3E0 SWAP5 SLT ISZERO PUSH2 0x15E3 JUMPI PUSH2 0x15D8 SWAP2 PUSH2 0x15D3 SWAP2 PUSH2 0x136A JUMP JUMPDEST PUSH2 0x1320 JUMP JUMPDEST SWAP3 JUMPDEST SWAP3 SWAP2 CODESIZE DUP1 PUSH2 0x15B4 JUMP JUMPDEST PUSH2 0x15F3 PUSH2 0x15F8 SWAP3 PUSH2 0x1466 SWAP3 PUSH2 0x136A JUMP JUMPDEST PUSH2 0x12DE JUMP JUMPDEST SWAP3 PUSH2 0x15DA JUMP JUMPDEST POP DUP4 SWAP2 PUSH2 0x15AC JUMP JUMPDEST PUSH2 0x160F DUP3 PUSH2 0x1359 JUMP JUMPDEST SWAP1 PUSH2 0x15A0 JUMP JUMPDEST POP POP SWAP6 PUSH2 0x12F4 JUMP JUMPDEST POP POP SWAP5 PUSH2 0x100F JUMP JUMPDEST PUSH2 0x162E SWAP1 PUSH2 0x1359 JUMP JUMPDEST SWAP1 PUSH2 0x1511 JUMP JUMPDEST PUSH2 0x154F PUSH2 0x498 SWAP2 SWAP6 PUSH2 0x14C4 JUMP JUMPDEST SWAP1 PUSH2 0x16BA SWAP3 DUP5 PUSH2 0x1651 DUP4 DUP13 PUSH2 0x122D JUMP JUMPDEST MLOAD LT PUSH2 0x16E8 JUMPI PUSH2 0x166E PUSH2 0x1675 SWAP2 PUSH2 0x1668 DUP5 DUP14 PUSH2 0x122D JUMP JUMPDEST MLOAD PUSH2 0x12BB JUMP JUMPDEST SWAP2 DUP11 PUSH2 0x122D JUMP JUMPDEST MSTORE DUP13 DUP2 JUMPDEST DUP13 DUP2 PUSH2 0x1685 DUP5 DUP4 PUSH2 0x122D JUMP JUMPDEST MLOAD LT PUSH2 0x16C0 JUMPI PUSH2 0x16A3 SWAP2 PUSH2 0x1668 DUP5 PUSH2 0x169C SWAP4 PUSH2 0x122D JUMP JUMPDEST SWAP2 DUP14 PUSH2 0x122D JUMP JUMPDEST MSTORE JUMPDEST PUSH2 0x16AE DUP14 PUSH2 0xE1F JUMP JUMPDEST SWAP1 SLOAD SWAP1 PUSH1 0x3 SHL SHR PUSH2 0x1336 JUMP JUMPDEST SWAP1 PUSH2 0x147C JUMP JUMPDEST PUSH2 0x16E2 SWAP2 PUSH2 0x16D4 DUP5 PUSH2 0x16DB SWAP4 SWAP7 SWAP6 SWAP7 PUSH2 0x122D JUMP JUMPDEST MLOAD SWAP1 PUSH2 0x12BB JUMP JUMPDEST SWAP3 DUP14 PUSH2 0x122D JUMP JUMPDEST MSTORE PUSH2 0x16A5 JUMP JUMPDEST POP PUSH2 0x16FD PUSH2 0x16F6 DUP3 DUP12 PUSH2 0x122D JUMP JUMPDEST MLOAD DUP6 PUSH2 0x12BB JUMP JUMPDEST DUP3 PUSH2 0x1708 DUP4 DUP13 PUSH2 0x122D JUMP JUMPDEST MSTORE PUSH2 0x1679 JUMP JUMPDEST PUSH2 0x1723 SWAP2 SWAP3 POP RETURNDATASIZE DUP1 DUP9 DUP4 RETURNDATACOPY PUSH2 0x571 DUP2 DUP4 PUSH2 0x1046 JUMP JUMPDEST SWAP1 CODESIZE PUSH2 0x1417 JUMP JUMPDEST PUSH1 0x40 MLOAD RETURNDATASIZE DUP9 DUP3 RETURNDATACOPY RETURNDATASIZE SWAP1 REVERT JUMPDEST DUP1 PUSH2 0x1741 PUSH1 0x1 SWAP3 PUSH2 0xDD2 JUMP JUMPDEST SWAP1 SLOAD SWAP1 PUSH1 0x3 SHL SHR PUSH2 0x1752 DUP3 DUP9 PUSH2 0x122D JUMP JUMPDEST MSTORE ADD PUSH2 0x13DA JUMP JUMPDEST DUP1 PUSH2 0x1765 PUSH1 0x1 SWAP3 PUSH2 0x100F JUMP JUMPDEST SWAP1 SLOAD SWAP1 PUSH1 0x3 SHL SHR PUSH2 0x1776 DUP3 DUP8 PUSH2 0x122D JUMP JUMPDEST MSTORE ADD PUSH2 0x13C1 JUMP JUMPDEST PUSH1 0x0 SWAP1 DUP1 MLOAD PUSH1 0x40 MLOAD SWAP1 DUP2 PUSH1 0xA DUP1 SLOAD DUP1 DUP6 MSTORE PUSH1 0x20 DUP1 SWAP6 ADD SWAP1 PUSH1 0xA DUP9 MSTORE PUSH32 0xC65A7BB8D6351C1CF70C95A316CC6A92839C986682D98BC35F958F4883F9D2A8 SWAP1 DUP9 JUMPDEST DUP8 DUP3 DUP3 LT PUSH2 0x1B1E JUMPI POP POP POP POP DUP3 PUSH2 0x17D4 SWAP2 SUB DUP4 PUSH2 0x1046 JUMP JUMPDEST PUSH1 0x40 MLOAD SWAP2 DUP3 DUP1 SWAP6 PUSH1 0x20 PUSH1 0xC SLOAD SWAP6 DUP7 DUP2 MSTORE ADD SWAP5 PUSH1 0xC DUP11 MSTORE PUSH32 0xDF6966C971051C3D54EC59162606531493A51404A002842F56009D7E5CF4A8C7 SWAP2 DUP11 SWAP1 JUMPDEST DUP3 DUP3 LT PUSH2 0x1B04 JUMPI POP POP POP POP PUSH2 0x1828 SWAP1 PUSH1 0x4 SWAP5 SUB DUP7 PUSH2 0x1046 JUMP JUMPDEST PUSH1 0x10 SLOAD PUSH1 0x40 MLOAD PUSH4 0xB6042CF9 PUSH1 0xE0 SHL DUP2 MSTORE SWAP4 DUP9 SWAP2 DUP6 SWAP2 SWAP1 DUP3 SWAP1 PUSH1 0x1 PUSH1 0x1 PUSH1 0xA0 SHL SUB AND GAS STATICCALL SWAP3 DUP4 ISZERO PUSH2 0x1AF9 JUMPI DUP8 SWAP4 PUSH2 0x1ADD JUMPI JUMPDEST POP SWAP5 SWAP4 SWAP3 SWAP2 SWAP1 DUP7 SWAP6 JUMPDEST DUP4 DUP8 LT PUSH2 0x1873 JUMPI POP POP POP POP POP POP POP SWAP1 JUMP JUMPDEST SWAP1 SWAP2 SWAP3 SWAP4 SWAP5 SWAP6 SWAP7 PUSH2 0x197D PUSH1 0x1 SWAP2 PUSH2 0x498 PUSH2 0x188D DUP12 DUP12 PUSH2 0x122D JUMP JUMPDEST MLOAD DUP12 PUSH1 0x0 DUP1 DUP4 SLT ISZERO PUSH2 0x1A31 JUMPI POP PUSH2 0x18B3 PUSH2 0x18AA PUSH2 0x1466 DUP5 DUP5 PUSH2 0x1B32 JUMP JUMPDEST PUSH2 0x1474 DUP5 PUSH2 0x1359 JUMP JUMPDEST SWAP2 JUMPDEST PUSH2 0x1965 PUSH2 0x18C1 DUP4 PUSH2 0xFD8 JUMP JUMPDEST SWAP1 SLOAD PUSH1 0x3 SWAP2 PUSH1 0x0 SWAP2 SWAP1 DUP4 SHL SHR DUP5 SGT ISZERO PUSH2 0x1A24 JUMPI POP PUSH2 0x498 PUSH2 0x1555 PUSH2 0x18F3 PUSH2 0x18E7 DUP8 PUSH2 0xFD8 JUMP JUMPDEST SWAP1 SLOAD SWAP1 DUP6 SHL SHR DUP7 PUSH2 0x136A JUMP JUMPDEST SWAP3 JUMPDEST PUSH2 0x498 PUSH2 0x154F PUSH2 0x1904 DUP10 PUSH2 0xFB3 JUMP JUMPDEST SWAP1 SLOAD SWAP1 DUP5 SHL SHR PUSH2 0x193B PUSH2 0x1934 PUSH2 0x1919 DUP13 PUSH2 0xF45 JUMP JUMPDEST SWAP1 SLOAD SWAP1 DUP8 SHL SHR PUSH2 0x1928 DUP14 PUSH2 0xE56 JUMP JUMPDEST SWAP1 SLOAD SWAP1 DUP9 SHL SHR SWAP1 PUSH2 0x1383 JUMP JUMPDEST SWAP2 DUP11 PUSH2 0x136A JUMP JUMPDEST PUSH1 0x0 DUP2 SLT PUSH2 0x1A15 JUMPI SWAP1 JUMPDEST PUSH1 0x0 SWAP2 DUP2 DUP2 SGT ISZERO PUSH2 0x1A0D JUMPI PUSH2 0x195A SWAP3 POP PUSH2 0x136A JUMP JUMPDEST SWAP3 JUMPDEST PUSH2 0x152C DUP11 PUSH2 0xF7C JUMP JUMPDEST SWAP1 PUSH1 0x0 SWAP3 DUP13 DUP13 MLOAD EQ PUSH2 0x198A JUMPI POP POP PUSH2 0x3E0 SWAP2 SWAP3 PUSH2 0x1390 JUMP JUMPDEST SWAP8 ADD SWAP6 SWAP5 SWAP4 SWAP3 SWAP2 SWAP1 PUSH2 0x1862 JUMP JUMPDEST PUSH2 0x158D PUSH2 0x1997 SWAP2 DUP14 PUSH2 0x122D JUMP JUMPDEST SWAP1 DUP4 DUP3 SLT PUSH2 0x19FD JUMPI DUP11 DUP3 SWAP2 JUMPDEST DUP1 ISZERO PUSH2 0x19F4 JUMPI SDIV SWAP2 JUMPDEST DUP3 DUP3 SGT PUSH2 0x19BC JUMPI JUMPDEST POP POP DUP15 PUSH2 0x1568 JUMP JUMPDEST PUSH2 0x3E0 SWAP5 SLT ISZERO PUSH2 0x19DE JUMPI PUSH2 0x19D3 SWAP2 PUSH2 0x15D3 SWAP2 PUSH2 0x136A JUMP JUMPDEST SWAP3 JUMPDEST SWAP3 SWAP2 CODESIZE DUP1 PUSH2 0x19B4 JUMP JUMPDEST PUSH2 0x15F3 PUSH2 0x19EE SWAP3 PUSH2 0x1466 SWAP3 PUSH2 0x136A JUMP JUMPDEST SWAP3 PUSH2 0x19D5 JUMP JUMPDEST POP POP DUP4 SWAP2 PUSH2 0x19AC JUMP JUMPDEST DUP11 PUSH2 0x1A07 DUP4 PUSH2 0x1359 JUMP JUMPDEST SWAP2 PUSH2 0x19A3 JUMP JUMPDEST POP POP SWAP3 PUSH2 0x195C JUMP JUMPDEST PUSH2 0x1A1E SWAP1 PUSH2 0x1359 JUMP JUMPDEST SWAP1 PUSH2 0x1945 JUMP JUMPDEST PUSH2 0x1555 PUSH2 0x498 SWAP2 SWAP3 PUSH2 0x18F5 JUMP JUMPDEST PUSH2 0x1A99 SWAP1 DUP4 DUP5 PUSH2 0x1A41 DUP6 DUP13 PUSH2 0x122D JUMP JUMPDEST MLOAD LT PUSH2 0x1ABD JUMPI PUSH2 0x1A55 SWAP1 PUSH2 0x1668 DUP6 DUP13 PUSH2 0x122D JUMP JUMPDEST PUSH2 0x1A5F DUP5 DUP12 PUSH2 0x122D JUMP JUMPDEST MSTORE DUP1 JUMPDEST DUP14 DUP5 DUP4 PUSH2 0x1A6F DUP3 DUP5 PUSH2 0x122D JUMP JUMPDEST MLOAD LT PUSH2 0x1A9F JUMPI PUSH2 0x1A88 DUP3 SWAP4 SWAP5 PUSH2 0x1668 DUP4 PUSH2 0x1A8E SWAP6 PUSH2 0x122D JUMP JUMPDEST SWAP3 PUSH2 0x122D JUMP JUMPDEST MSTORE JUMPDEST PUSH2 0x16AE DUP4 PUSH2 0xE1F JUMP JUMPDEST SWAP2 PUSH2 0x18B5 JUMP JUMPDEST PUSH2 0x1AB1 DUP3 SWAP5 PUSH2 0x16D4 DUP4 PUSH2 0x1AB7 SWAP6 PUSH2 0x122D JUMP JUMPDEST SWAP4 PUSH2 0x122D JUMP JUMPDEST MSTORE PUSH2 0x1A90 JUMP JUMPDEST POP PUSH2 0x1ACB PUSH2 0x16F6 DUP5 DUP12 PUSH2 0x122D JUMP JUMPDEST SWAP1 DUP1 PUSH2 0x1AD7 DUP6 DUP13 PUSH2 0x122D JUMP JUMPDEST MSTORE PUSH2 0x1A62 JUMP JUMPDEST PUSH2 0x1AF2 SWAP2 SWAP4 POP RETURNDATASIZE DUP1 DUP10 DUP4 RETURNDATACOPY PUSH2 0x571 DUP2 DUP4 PUSH2 0x1046 JUMP JUMPDEST SWAP2 CODESIZE PUSH2 0x1859 JUMP JUMPDEST PUSH1 0x40 MLOAD RETURNDATASIZE DUP10 DUP3 RETURNDATACOPY RETURNDATASIZE SWAP1 REVERT JUMPDEST DUP4 SLOAD DUP9 MSTORE SWAP7 DUP8 ADD SWAP7 DUP10 SWAP5 POP PUSH1 0x1 SWAP4 DUP5 ADD SWAP4 SWAP1 SWAP2 ADD SWAP1 PUSH2 0x180F JUMP JUMPDEST DUP4 SLOAD DUP6 MSTORE SWAP1 SWAP4 ADD SWAP3 PUSH1 0x1 SWAP3 DUP4 ADD SWAP3 ADD PUSH2 0x17BC JUMP JUMPDEST PUSH2 0x1B3B SWAP1 PUSH2 0xE1F JUMP JUMPDEST SWAP1 SLOAD SWAP1 PUSH1 0x3 SHL SHR SWAP1 PUSH1 0x0 DUP2 SLT PUSH1 0x0 EQ PUSH2 0x1B92 JUMPI PUSH2 0x1B57 SWAP1 PUSH2 0x1359 JUMP JUMPDEST PUSH1 0x1 SHR PUSH1 0x14 ADD DUP1 PUSH1 0x14 GT PUSH2 0x12C8 JUMPI PUSH1 0x28 DUP2 GT PUSH2 0x1B8A JUMPI JUMPDEST PUSH1 0x64 SUB SWAP1 PUSH1 0x64 DUP3 GT PUSH2 0x12C8 JUMPI PUSH1 0x64 SWAP2 PUSH2 0x1B86 SWAP2 PUSH2 0x1336 JUMP JUMPDEST SDIV SWAP1 JUMP JUMPDEST POP PUSH1 0x28 PUSH2 0x1B6E JUMP JUMPDEST POP SWAP1 JUMP INVALID BLOCKHASH JUMPI DUP8 STATICCALL SLT 0xA8 0x23 0xE0 CALLCODE 0xB7 PUSH4 0x1CC41B3B 0xA8 DUP3 DUP12 CALLER 0x21 0xCA DUP2 GT GT STATICCALL PUSH22 0xCD3AA3BB5ACEA2646970667358221220255646CA211F 0x29 SWAP14 CALLER RETURNDATACOPY 0x4A 0xDB 0xE0 SWAP15 PUSH10 0xAE6CCCD35937A2AEB69 0xA6 0xF 0xB7 0xE6 DIV 0xA5 0xE2 PUSH5 0x736F6C6343 STOP ADDMOD OR STOP CALLER BLOCKHASH JUMPI DUP8 STATICCALL SLT 0xA8 0x23 0xE0 CALLCODE 0xB7 PUSH4 0x1CC41B3B 0xA8 DUP3 DUP12 CALLER 0x21 0xCA DUP2 GT GT STATICCALL PUSH22 0xCD3AA3BB5ACEBB7B4A454DC3493923482F07822329ED NOT 0xE8 0x24 0x4E SELFDESTRUCT PC 0x2C 0xC2 DIV 0xF8 SSTORE 0x4C CALLDATASIZE KECCAK256 0xC3 REVERT 0xC6 GAS PUSH28 0xB8D6351C1CF70C95A316CC6A92839C986682D98BC35F958F4883F9D2 0xA8 0x29 0xD 0xEC 0xD9 SLOAD DUP12 PUSH3 0xA8D603 GASLIMIT 0xA9 DUP9 CODESIZE PUSH16 0xC84BA6BC95484008F6362F93160EF3E5 PUSH4 0xD7B69901 SDIV PUSH18 0x9101DABEB77144F2A3385C8033ACD3AF97E9 TIMESTAMP GASPRICE PUSH10 0x5E81AD1EB5F3F7A9FE36 0x4F 0xAA 0xB9 EXTCODESIZE 0x21 PUSH14 0xA50A3214154F22A0A2B415B23A84 0xC8 AND SWAP15 DUP12 PUSH4 0x6EE36E15 BLOCKHASH OR SHL PUSH13 0xC960B71A7020D9F60077F6AF9 BALANCE 0xA8 0xBB CREATE2 SWAP1 0xDA MUL 0x23 0xDA 0xCF PUSH22 0xC7AFB10E2D527612073B26EECDFD717E6A320CF44B4A STATICCALL 0xC2 0xB0 PUSH20 0x2D9FCBE2B7FA0CF6000000000000000000000000 "},"methodIdentifiers":{"batteryCapacity(uint256)":"b6ce6709","batteryCharge(uint256)":"4eb274ff","c1()":"5f57697c","c2()":"48e257cb","capacity(uint256)":"ab1bbeca","flexibilityAbove(uint256)":"78b6d7d4","flexibilityBelow(uint256)":"375a105e","flexibleLoad(uint256)":"e329143f","frozenBatteryCharge(uint256)":"04d01942","frozenRenewableGeneration(uint256)":"ff9c446f","getEffectiveTariff(uint256,int256)":"957b4056","getFrozenCost()":"03bc4a86","getPersonalBestPosition()":"e7d46385","getPosition()":"7398ab18","globalContract()":"90ccfa0f","lastKnownGlobalTimestamp()":"d0c6c7af","objectiveFunction(int256[])":"364132d9","objectiveFunctionFrozen(int256[])":"300aee14","personalBestPosition(uint256)":"a86853d5","personalBestScore()":"4d985ae4","position(uint256)":"f7a95a9e","renewableGeneration(uint256)":"96d14da6","tariff(uint256)":"16b51928","updateBestPositions()":"973b9cc1","updateVelocityAndPosition()":"f6451c0a","velocity(uint256)":"6f240774","w()":"205c9cc7"}}}}}