{"contracts/GlobalContract.sol":{"GlobalContract":{"abi":[{"anonymous":false,"inputs":[{"indexed":false,"internalType":"int256[]","name":"newPlan","type":"int256[]"},{"indexed":false,"internalType":"uint256","name":"timestamp","type":"uint256"}],"name":"GlobalPlanComputed","type":"event"},{"anonymous":false,"inputs":[{"indexed":true,"internalType":"address","name":"node","type":"address"},{"indexed":false,"internalType":"int256","name":"bestScore","type":"int256"}],"name":"NodeResultUpdated","type":"event"},{"inputs":[],"name":"computeGlobalOptimalPlan","outputs":[],"stateMutability":"nonpayable","type":"function"},{"inputs":[{"internalType":"address","name":"_node","type":"address"}],"name":"getBestPosition","outputs":[{"internalType":"int256[]","name":"","type":"int256[]"}],"stateMutability":"view","type":"function"},{"inputs":[],"name":"getGlobalOptimalPlanArray","outputs":[{"internalType":"int256[]","name":"","type":"int256[]"}],"stateMutability":"view","type":"function"},{"inputs":[{"internalType":"uint256","name":"hour","type":"uint256"}],"name":"getGlobalOptimalPlanHour","outputs":[{"internalType":"int256","name":"","type":"int256"}],"stateMutability":"view","type":"function"},{"inputs":[],"name":"getLastUpdatedTimestamp","outputs":[{"internalType":"uint256","name":"","type":"uint256"}],"stateMutability":"view","type":"function"},{"inputs":[{"internalType":"uint256","name":"","type":"uint256"}],"name":"globalOptimalPlan","outputs":[{"internalType":"int256","name":"","type":"int256"}],"stateMutability":"view","type":"function"},{"inputs":[],"name":"lastUpdatedTimestamp","outputs":[{"internalType":"uint256","name":"","type":"uint256"}],"stateMutability":"view","type":"function"},{"inputs":[{"internalType":"uint256","name":"","type":"uint256"}],"name":"nodeAddresses","outputs":[{"internalType":"address","name":"","type":"address"}],"stateMutability":"view","type":"function"},{"inputs":[{"internalType":"address","name":"","type":"address"}],"name":"nodeResults","outputs":[{"internalType":"int256","name":"bestScore","type":"int256"},{"internalType":"bool","name":"exists","type":"bool"}],"stateMutability":"view","type":"function"},{"inputs":[],"name":"numHours","outputs":[{"internalType":"uint256","name":"","type":"uint256"}],"stateMutability":"view","type":"function"},{"inputs":[{"internalType":"int256[]","name":"newPosition","type":"int256[]"},{"internalType":"int256","name":"newScore","type":"int256"}],"name":"updateNodeResult","outputs":[],"stateMutability":"nonpayable","type":"function"}],"evm":{"bytecode":{"linkReferences":{},"object":"6080806040523461001657610a86908161001c8239f35b600080fdfe6040608081526004908136101561001557600080fd5b600091823560e01c80631e385f691461089f5780637207c556146108555780637f042dc01461082e57806394f6cd8d1461080f578063a626d2c0146107f2578063af602b4314610767578063c4d7709014610724578063ed3bf9c4146103e8578063efa624bc14610137578063efe5c98d146100ba5763fbaf894c1461009a57600080fd5b346100b657826003193601126100b65760209250549051908152f35b8280fd5b50829034610133576020366003190112610133578035906003548210156100f05760208480858581526002845220549051908152f35b606490602085519162461bcd60e51b8352820152601960248201527f4f726120696e20616661726120696e74657276616c756c7569000000000000006044820152fd5b5080fd5b5090346100b657806003193601126100b65781359067ffffffffffffffff928383116103e457366023840112156103e45782810135908482116103e057602480808601958460051b0101953687116103dc57813596338952602096898852868a2060ff6002820154161560001461038a575086519160608301838110858211176103785788526101c6876109f3565b916101d3895193846109bb565b878352898084015b838310610368575050505081528681019088825286810191600193848452338c528b8a52888c2092518051918211610356578a906102198386610a0b565b01838d528c868c8220915b848110610344575050505050906002915184820155019051151560ff80198354169116179055805490600160401b8210156103325781810190556102679061096e565b81546001600160a01b0360039290921b91821b19163390911b1790555b600354806102c0575050506003557f1e61759c28c006b2edeffc298e59ea00a93888cddb41dc60e8236de97f039b3c91905b519283523392a280f35b909192036102f2575050907f1e61759c28c006b2edeffc298e59ea00a93888cddb41dc60e8236de97f039b3c916102b6565b606493601c9293519362461bcd60e51b85528401528201527f44696d656e7369756e65206e65636f72657370756e7a61746f617265000000006044820152fd5b634e487b7160e01b8952604184528289fd5b8d845194019381840155018790610224565b634e487b7160e01b8d5260418852868dfd5b82358152918101918b91016101db565b634e487b7160e01b8c5260418752858cfd5b915091506001918860018301805482126103a9575b5050505050610284565b556103b48683610a0b565b90895286892090895b8681106103cb57899061039f565b8135838201559088019083016103bd565b8780fd5b8580fd5b8480fd5b5091903461013357816003193601126101335760018054156106e85760038054156106ac5783825b610542575b5050504283558181518094631e385f6960e01b825281305afa90811561053757829161047e575b90816104727f94e1547304e6d63037244c908da52f757ad8e339edce5f9e09985dd78fb8f539935192828493845283019061093a565b4260208301520390a180f35b90503d8083853e61048f81856109bb565b830160209384818303126105335780519067ffffffffffffffff82116103e457019080601f830112156105335781516104c7816109f3565b926104d4855194856109bb565b818452868085019260051b8201019283116103e0578601905b828210610524575050507f94e1547304e6d63037244c908da52f757ad8e339edce5f9e09985dd78fb8f5399293509083925061043c565b815181529086019086016104ed565b8380fd5b51913d9150823e3d90fd5b81548110156106a757848590868554905b8181106105d8575050811585816105bd57506105aa57600160ff1b81146000198314166105975791849392918492828952600260205205868820555b019091610410565b634e487b7160e01b875260118852602487fd5b634e487b7160e01b875260128852602487fd5b9493915050839150808752600260205260058688205561058f565b95866105ec829b95979394969a999861096e565b90546001600160a01b0391851b1c81168a5260208a8152898b206002015490919060ff16610627575b50500198959697939190949298610553565b9091979692506106368861096e565b905490851b1c16895288815287892080548b10156106945789528820890154818101918913801591831291821691151617610681579360001981146106815789809101953880610615565b634e487b7160e01b885260118452602488fd5b634e487b7160e01b8a526032865260248afd5b610415565b825162461bcd60e51b815260208187015260166024820152751b9d5b521bdd5c9cc81b9d48195cdd19481cd95d185d60521b6044820152606490fd5b815162461bcd60e51b81526020818601526016602482015275139a58da5d5b881b9bd9081a5b9c9959da5cdd1c985d60521b6044820152606490fd5b50346100b65760203660031901126100b6573591600154831015610764575061074e60209261096e565b905491519160018060a01b039160031b1c168152f35b80fd5b5090346100b6576020918260031936011261053357356001600160a01b03811690819003610533578352828252808320815190819485928583549182815201928252858220915b868282106107db5785906107d7886107c8848903856109bb565b5192828493845283019061093a565b0390f35b8354855288955090930192600192830192016107ae565b50346100b657826003193601126100b65760209250549051908152f35b5050346101335781600319360112610133576020906003549051908152f35b50346100b65760203660031901126100b65760209282913581526002845220549051908152f35b50346100b65760203660031901126100b657356001600160a01b038116908190036100b6579181928152806020522060ff6002600183015492015416825191825215156020820152f35b509190346101335781600319360112610133576003546108be816109f3565b926108cb835194856109bb565b8184526108d7826109f3565b602090601f19013686830137815b838110610901578451602080825281906107d79082018961093a565b8083526002825284832054865182101561092757600582901b87018301526001016108e5565b634e487b7160e01b845260328852602484fd5b90815180825260208080930193019160005b82811061095a575050505090565b83518552938101939281019260010161094c565b6001548110156109a55760016000527fb10e2d527612073b26eecdfd717e6a320cf44b4afac2b0732d9fcbe2b7fa0cf60190600090565b634e487b7160e01b600052603260045260246000fd5b90601f8019910116810190811067ffffffffffffffff8211176109dd57604052565b634e487b7160e01b600052604160045260246000fd5b67ffffffffffffffff81116109dd5760051b60200190565b600160401b82116109dd57805491808255828110610a2857505050565b600091600052602060002092830192015b828110610a4557505050565b818155600101610a3956fea26469706673582212202ddc76ae68021026b3966aa2ba1e62c0c442ae983345646082191372d8a1d14364736f6c63430008170033","opcodes":"PUSH1 0x80 DUP1 PUSH1 0x40 MSTORE CALLVALUE PUSH2 0x16 JUMPI PUSH2 0xA86 SWAP1 DUP2 PUSH2 0x1C DUP3 CODECOPY RETURN JUMPDEST PUSH1 0x0 DUP1 REVERT INVALID PUSH1 0x40 PUSH1 0x80 DUP2 MSTORE PUSH1 0x4 SWAP1 DUP2 CALLDATASIZE LT ISZERO PUSH2 0x15 JUMPI PUSH1 0x0 DUP1 REVERT JUMPDEST PUSH1 0x0 SWAP2 DUP3 CALLDATALOAD PUSH1 0xE0 SHR DUP1 PUSH4 0x1E385F69 EQ PUSH2 0x89F JUMPI DUP1 PUSH4 0x7207C556 EQ PUSH2 0x855 JUMPI DUP1 PUSH4 0x7F042DC0 EQ PUSH2 0x82E JUMPI DUP1 PUSH4 0x94F6CD8D EQ PUSH2 0x80F JUMPI DUP1 PUSH4 0xA626D2C0 EQ PUSH2 0x7F2 JUMPI DUP1 PUSH4 0xAF602B43 EQ PUSH2 0x767 JUMPI DUP1 PUSH4 0xC4D77090 EQ PUSH2 0x724 JUMPI DUP1 PUSH4 0xED3BF9C4 EQ PUSH2 0x3E8 JUMPI DUP1 PUSH4 0xEFA624BC EQ PUSH2 0x137 JUMPI DUP1 PUSH4 0xEFE5C98D EQ PUSH2 0xBA JUMPI PUSH4 0xFBAF894C EQ PUSH2 0x9A JUMPI PUSH1 0x0 DUP1 REVERT JUMPDEST CALLVALUE PUSH2 0xB6 JUMPI DUP3 PUSH1 0x3 NOT CALLDATASIZE ADD SLT PUSH2 0xB6 JUMPI PUSH1 0x20 SWAP3 POP SLOAD SWAP1 MLOAD SWAP1 DUP2 MSTORE RETURN JUMPDEST DUP3 DUP1 REVERT JUMPDEST POP DUP3 SWAP1 CALLVALUE PUSH2 0x133 JUMPI PUSH1 0x20 CALLDATASIZE PUSH1 0x3 NOT ADD SLT PUSH2 0x133 JUMPI DUP1 CALLDATALOAD SWAP1 PUSH1 0x3 SLOAD DUP3 LT ISZERO PUSH2 0xF0 JUMPI PUSH1 0x20 DUP5 DUP1 DUP6 DUP6 DUP2 MSTORE PUSH1 0x2 DUP5 MSTORE KECCAK256 SLOAD SWAP1 MLOAD SWAP1 DUP2 MSTORE RETURN JUMPDEST PUSH1 0x64 SWAP1 PUSH1 0x20 DUP6 MLOAD SWAP2 PUSH3 0x461BCD PUSH1 0xE5 SHL DUP4 MSTORE DUP3 ADD MSTORE PUSH1 0x19 PUSH1 0x24 DUP3 ADD MSTORE PUSH32 0x4F726120696E20616661726120696E74657276616C756C756900000000000000 PUSH1 0x44 DUP3 ADD MSTORE REVERT JUMPDEST POP DUP1 REVERT JUMPDEST POP SWAP1 CALLVALUE PUSH2 0xB6 JUMPI DUP1 PUSH1 0x3 NOT CALLDATASIZE ADD SLT PUSH2 0xB6 JUMPI DUP2 CALLDATALOAD SWAP1 PUSH8 0xFFFFFFFFFFFFFFFF SWAP3 DUP4 DUP4 GT PUSH2 0x3E4 JUMPI CALLDATASIZE PUSH1 0x23 DUP5 ADD SLT ISZERO PUSH2 0x3E4 JUMPI DUP3 DUP2 ADD CALLDATALOAD SWAP1 DUP5 DUP3 GT PUSH2 0x3E0 JUMPI PUSH1 0x24 DUP1 DUP1 DUP7 ADD SWAP6 DUP5 PUSH1 0x5 SHL ADD ADD SWAP6 CALLDATASIZE DUP8 GT PUSH2 0x3DC JUMPI DUP2 CALLDATALOAD SWAP7 CALLER DUP10 MSTORE PUSH1 0x20 SWAP7 DUP10 DUP9 MSTORE DUP7 DUP11 KECCAK256 PUSH1 0xFF PUSH1 0x2 DUP3 ADD SLOAD AND ISZERO PUSH1 0x0 EQ PUSH2 0x38A JUMPI POP DUP7 MLOAD SWAP2 PUSH1 0x60 DUP4 ADD DUP4 DUP2 LT DUP6 DUP3 GT OR PUSH2 0x378 JUMPI DUP9 MSTORE PUSH2 0x1C6 DUP8 PUSH2 0x9F3 JUMP JUMPDEST SWAP2 PUSH2 0x1D3 DUP10 MLOAD SWAP4 DUP5 PUSH2 0x9BB JUMP JUMPDEST DUP8 DUP4 MSTORE DUP10 DUP1 DUP5 ADD JUMPDEST DUP4 DUP4 LT PUSH2 0x368 JUMPI POP POP POP POP DUP2 MSTORE DUP7 DUP2 ADD SWAP1 DUP9 DUP3 MSTORE DUP7 DUP2 ADD SWAP2 PUSH1 0x1 SWAP4 DUP5 DUP5 MSTORE CALLER DUP13 MSTORE DUP12 DUP11 MSTORE DUP9 DUP13 KECCAK256 SWAP3 MLOAD DUP1 MLOAD SWAP2 DUP3 GT PUSH2 0x356 JUMPI DUP11 SWAP1 PUSH2 0x219 DUP4 DUP7 PUSH2 0xA0B JUMP JUMPDEST ADD DUP4 DUP14 MSTORE DUP13 DUP7 DUP13 DUP3 KECCAK256 SWAP2 JUMPDEST DUP5 DUP2 LT PUSH2 0x344 JUMPI POP POP POP POP POP SWAP1 PUSH1 0x2 SWAP2 MLOAD DUP5 DUP3 ADD SSTORE ADD SWAP1 MLOAD ISZERO ISZERO PUSH1 0xFF DUP1 NOT DUP4 SLOAD AND SWAP2 AND OR SWAP1 SSTORE DUP1 SLOAD SWAP1 PUSH1 0x1 PUSH1 0x40 SHL DUP3 LT ISZERO PUSH2 0x332 JUMPI DUP2 DUP2 ADD SWAP1 SSTORE PUSH2 0x267 SWAP1 PUSH2 0x96E JUMP JUMPDEST DUP2 SLOAD PUSH1 0x1 PUSH1 0x1 PUSH1 0xA0 SHL SUB PUSH1 0x3 SWAP3 SWAP1 SWAP3 SHL SWAP2 DUP3 SHL NOT AND CALLER SWAP1 SWAP2 SHL OR SWAP1 SSTORE JUMPDEST PUSH1 0x3 SLOAD DUP1 PUSH2 0x2C0 JUMPI POP POP POP PUSH1 0x3 SSTORE PUSH32 0x1E61759C28C006B2EDEFFC298E59EA00A93888CDDB41DC60E8236DE97F039B3C SWAP2 SWAP1 JUMPDEST MLOAD SWAP3 DUP4 MSTORE CALLER SWAP3 LOG2 DUP1 RETURN JUMPDEST SWAP1 SWAP2 SWAP3 SUB PUSH2 0x2F2 JUMPI POP POP SWAP1 PUSH32 0x1E61759C28C006B2EDEFFC298E59EA00A93888CDDB41DC60E8236DE97F039B3C SWAP2 PUSH2 0x2B6 JUMP JUMPDEST PUSH1 0x64 SWAP4 PUSH1 0x1C SWAP3 SWAP4 MLOAD SWAP4 PUSH3 0x461BCD PUSH1 0xE5 SHL DUP6 MSTORE DUP5 ADD MSTORE DUP3 ADD MSTORE PUSH32 0x44696D656E7369756E65206E65636F72657370756E7A61746F61726500000000 PUSH1 0x44 DUP3 ADD MSTORE REVERT JUMPDEST PUSH4 0x4E487B71 PUSH1 0xE0 SHL DUP10 MSTORE PUSH1 0x41 DUP5 MSTORE DUP3 DUP10 REVERT JUMPDEST DUP14 DUP5 MLOAD SWAP5 ADD SWAP4 DUP2 DUP5 ADD SSTORE ADD DUP8 SWAP1 PUSH2 0x224 JUMP JUMPDEST PUSH4 0x4E487B71 PUSH1 0xE0 SHL DUP14 MSTORE PUSH1 0x41 DUP9 MSTORE DUP7 DUP14 REVERT JUMPDEST DUP3 CALLDATALOAD DUP2 MSTORE SWAP2 DUP2 ADD SWAP2 DUP12 SWAP2 ADD PUSH2 0x1DB JUMP JUMPDEST PUSH4 0x4E487B71 PUSH1 0xE0 SHL DUP13 MSTORE PUSH1 0x41 DUP8 MSTORE DUP6 DUP13 REVERT JUMPDEST SWAP2 POP SWAP2 POP PUSH1 0x1 SWAP2 DUP9 PUSH1 0x1 DUP4 ADD DUP1 SLOAD DUP3 SLT PUSH2 0x3A9 JUMPI JUMPDEST POP POP POP POP POP PUSH2 0x284 JUMP JUMPDEST SSTORE PUSH2 0x3B4 DUP7 DUP4 PUSH2 0xA0B JUMP JUMPDEST SWAP1 DUP10 MSTORE DUP7 DUP10 KECCAK256 SWAP1 DUP10 JUMPDEST DUP7 DUP2 LT PUSH2 0x3CB JUMPI DUP10 SWAP1 PUSH2 0x39F JUMP JUMPDEST DUP2 CALLDATALOAD DUP4 DUP3 ADD SSTORE SWAP1 DUP9 ADD SWAP1 DUP4 ADD PUSH2 0x3BD JUMP JUMPDEST DUP8 DUP1 REVERT JUMPDEST DUP6 DUP1 REVERT JUMPDEST DUP5 DUP1 REVERT JUMPDEST POP SWAP2 SWAP1 CALLVALUE PUSH2 0x133 JUMPI DUP2 PUSH1 0x3 NOT CALLDATASIZE ADD SLT PUSH2 0x133 JUMPI PUSH1 0x1 DUP1 SLOAD ISZERO PUSH2 0x6E8 JUMPI PUSH1 0x3 DUP1 SLOAD ISZERO PUSH2 0x6AC JUMPI DUP4 DUP3 JUMPDEST PUSH2 0x542 JUMPI JUMPDEST POP POP POP TIMESTAMP DUP4 SSTORE DUP2 DUP2 MLOAD DUP1 SWAP5 PUSH4 0x1E385F69 PUSH1 0xE0 SHL DUP3 MSTORE DUP2 ADDRESS GAS STATICCALL SWAP1 DUP2 ISZERO PUSH2 0x537 JUMPI DUP3 SWAP2 PUSH2 0x47E JUMPI JUMPDEST SWAP1 DUP2 PUSH2 0x472 PUSH32 0x94E1547304E6D63037244C908DA52F757AD8E339EDCE5F9E09985DD78FB8F539 SWAP4 MLOAD SWAP3 DUP3 DUP5 SWAP4 DUP5 MSTORE DUP4 ADD SWAP1 PUSH2 0x93A JUMP JUMPDEST TIMESTAMP PUSH1 0x20 DUP4 ADD MSTORE SUB SWAP1 LOG1 DUP1 RETURN JUMPDEST SWAP1 POP RETURNDATASIZE DUP1 DUP4 DUP6 RETURNDATACOPY PUSH2 0x48F DUP2 DUP6 PUSH2 0x9BB JUMP JUMPDEST DUP4 ADD PUSH1 0x20 SWAP4 DUP5 DUP2 DUP4 SUB SLT PUSH2 0x533 JUMPI DUP1 MLOAD SWAP1 PUSH8 0xFFFFFFFFFFFFFFFF DUP3 GT PUSH2 0x3E4 JUMPI ADD SWAP1 DUP1 PUSH1 0x1F DUP4 ADD SLT ISZERO PUSH2 0x533 JUMPI DUP2 MLOAD PUSH2 0x4C7 DUP2 PUSH2 0x9F3 JUMP JUMPDEST SWAP3 PUSH2 0x4D4 DUP6 MLOAD SWAP5 DUP6 PUSH2 0x9BB JUMP JUMPDEST DUP2 DUP5 MSTORE DUP7 DUP1 DUP6 ADD SWAP3 PUSH1 0x5 SHL DUP3 ADD ADD SWAP3 DUP4 GT PUSH2 0x3E0 JUMPI DUP7 ADD SWAP1 JUMPDEST DUP3 DUP3 LT PUSH2 0x524 JUMPI POP POP POP PUSH32 0x94E1547304E6D63037244C908DA52F757AD8E339EDCE5F9E09985DD78FB8F539 SWAP3 SWAP4 POP SWAP1 DUP4 SWAP3 POP PUSH2 0x43C JUMP JUMPDEST DUP2 MLOAD DUP2 MSTORE SWAP1 DUP7 ADD SWAP1 DUP7 ADD PUSH2 0x4ED JUMP JUMPDEST DUP4 DUP1 REVERT JUMPDEST MLOAD SWAP2 RETURNDATASIZE SWAP2 POP DUP3 RETURNDATACOPY RETURNDATASIZE SWAP1 REVERT JUMPDEST DUP2 SLOAD DUP2 LT ISZERO PUSH2 0x6A7 JUMPI DUP5 DUP6 SWAP1 DUP7 DUP6 SLOAD SWAP1 JUMPDEST DUP2 DUP2 LT PUSH2 0x5D8 JUMPI POP POP DUP2 ISZERO DUP6 DUP2 PUSH2 0x5BD JUMPI POP PUSH2 0x5AA JUMPI PUSH1 0x1 PUSH1 0xFF SHL DUP2 EQ PUSH1 0x0 NOT DUP4 EQ AND PUSH2 0x597 JUMPI SWAP2 DUP5 SWAP4 SWAP3 SWAP2 DUP5 SWAP3 DUP3 DUP10 MSTORE PUSH1 0x2 PUSH1 0x20 MSTORE SDIV DUP7 DUP9 KECCAK256 SSTORE JUMPDEST ADD SWAP1 SWAP2 PUSH2 0x410 JUMP JUMPDEST PUSH4 0x4E487B71 PUSH1 0xE0 SHL DUP8 MSTORE PUSH1 0x11 DUP9 MSTORE PUSH1 0x24 DUP8 REVERT JUMPDEST PUSH4 0x4E487B71 PUSH1 0xE0 SHL DUP8 MSTORE PUSH1 0x12 DUP9 MSTORE PUSH1 0x24 DUP8 REVERT JUMPDEST SWAP5 SWAP4 SWAP2 POP POP DUP4 SWAP2 POP DUP1 DUP8 MSTORE PUSH1 0x2 PUSH1 0x20 MSTORE PUSH1 0x5 DUP7 DUP9 KECCAK256 SSTORE PUSH2 0x58F JUMP JUMPDEST SWAP6 DUP7 PUSH2 0x5EC DUP3 SWAP12 SWAP6 SWAP8 SWAP4 SWAP5 SWAP7 SWAP11 SWAP10 SWAP9 PUSH2 0x96E JUMP JUMPDEST SWAP1 SLOAD PUSH1 0x1 PUSH1 0x1 PUSH1 0xA0 SHL SUB SWAP2 DUP6 SHL SHR DUP2 AND DUP11 MSTORE PUSH1 0x20 DUP11 DUP2 MSTORE DUP10 DUP12 KECCAK256 PUSH1 0x2 ADD SLOAD SWAP1 SWAP2 SWAP1 PUSH1 0xFF AND PUSH2 0x627 JUMPI JUMPDEST POP POP ADD SWAP9 SWAP6 SWAP7 SWAP8 SWAP4 SWAP2 SWAP1 SWAP5 SWAP3 SWAP9 PUSH2 0x553 JUMP JUMPDEST SWAP1 SWAP2 SWAP8 SWAP7 SWAP3 POP PUSH2 0x636 DUP9 PUSH2 0x96E JUMP JUMPDEST SWAP1 SLOAD SWAP1 DUP6 SHL SHR AND DUP10 MSTORE DUP9 DUP2 MSTORE DUP8 DUP10 KECCAK256 DUP1 SLOAD DUP12 LT ISZERO PUSH2 0x694 JUMPI DUP10 MSTORE DUP9 KECCAK256 DUP10 ADD SLOAD DUP2 DUP2 ADD SWAP2 DUP10 SGT DUP1 ISZERO SWAP2 DUP4 SLT SWAP2 DUP3 AND SWAP2 ISZERO AND OR PUSH2 0x681 JUMPI SWAP4 PUSH1 0x0 NOT DUP2 EQ PUSH2 0x681 JUMPI DUP10 DUP1 SWAP2 ADD SWAP6 CODESIZE DUP1 PUSH2 0x615 JUMP JUMPDEST PUSH4 0x4E487B71 PUSH1 0xE0 SHL DUP9 MSTORE PUSH1 0x11 DUP5 MSTORE PUSH1 0x24 DUP9 REVERT JUMPDEST PUSH4 0x4E487B71 PUSH1 0xE0 SHL DUP11 MSTORE PUSH1 0x32 DUP7 MSTORE PUSH1 0x24 DUP11 REVERT JUMPDEST PUSH2 0x415 JUMP JUMPDEST DUP3 MLOAD PUSH3 0x461BCD PUSH1 0xE5 SHL DUP2 MSTORE PUSH1 0x20 DUP2 DUP8 ADD MSTORE PUSH1 0x16 PUSH1 0x24 DUP3 ADD MSTORE PUSH22 0x1B9D5B521BDD5C9CC81B9D48195CDD19481CD95D185D PUSH1 0x52 SHL PUSH1 0x44 DUP3 ADD MSTORE PUSH1 0x64 SWAP1 REVERT JUMPDEST DUP2 MLOAD PUSH3 0x461BCD PUSH1 0xE5 SHL DUP2 MSTORE PUSH1 0x20 DUP2 DUP7 ADD MSTORE PUSH1 0x16 PUSH1 0x24 DUP3 ADD MSTORE PUSH22 0x139A58DA5D5B881B9BD9081A5B9C9959DA5CDD1C985D PUSH1 0x52 SHL PUSH1 0x44 DUP3 ADD MSTORE PUSH1 0x64 SWAP1 REVERT JUMPDEST POP CALLVALUE PUSH2 0xB6 JUMPI PUSH1 0x20 CALLDATASIZE PUSH1 0x3 NOT ADD SLT PUSH2 0xB6 JUMPI CALLDATALOAD SWAP2 PUSH1 0x1 SLOAD DUP4 LT ISZERO PUSH2 0x764 JUMPI POP PUSH2 0x74E PUSH1 0x20 SWAP3 PUSH2 0x96E JUMP JUMPDEST SWAP1 SLOAD SWAP2 MLOAD SWAP2 PUSH1 0x1 DUP1 PUSH1 0xA0 SHL SUB SWAP2 PUSH1 0x3 SHL SHR AND DUP2 MSTORE RETURN JUMPDEST DUP1 REVERT JUMPDEST POP SWAP1 CALLVALUE PUSH2 0xB6 JUMPI PUSH1 0x20 SWAP2 DUP3 PUSH1 0x3 NOT CALLDATASIZE ADD SLT PUSH2 0x533 JUMPI CALLDATALOAD PUSH1 0x1 PUSH1 0x1 PUSH1 0xA0 SHL SUB DUP2 AND SWAP1 DUP2 SWAP1 SUB PUSH2 0x533 JUMPI DUP4 MSTORE DUP3 DUP3 MSTORE DUP1 DUP4 KECCAK256 DUP2 MLOAD SWAP1 DUP2 SWAP5 DUP6 SWAP3 DUP6 DUP4 SLOAD SWAP2 DUP3 DUP2 MSTORE ADD SWAP3 DUP3 MSTORE DUP6 DUP3 KECCAK256 SWAP2 JUMPDEST DUP7 DUP3 DUP3 LT PUSH2 0x7DB JUMPI DUP6 SWAP1 PUSH2 0x7D7 DUP9 PUSH2 0x7C8 DUP5 DUP10 SUB DUP6 PUSH2 0x9BB JUMP JUMPDEST MLOAD SWAP3 DUP3 DUP5 SWAP4 DUP5 MSTORE DUP4 ADD SWAP1 PUSH2 0x93A JUMP JUMPDEST SUB SWAP1 RETURN JUMPDEST DUP4 SLOAD DUP6 MSTORE DUP9 SWAP6 POP SWAP1 SWAP4 ADD SWAP3 PUSH1 0x1 SWAP3 DUP4 ADD SWAP3 ADD PUSH2 0x7AE JUMP JUMPDEST POP CALLVALUE PUSH2 0xB6 JUMPI DUP3 PUSH1 0x3 NOT CALLDATASIZE ADD SLT PUSH2 0xB6 JUMPI PUSH1 0x20 SWAP3 POP SLOAD SWAP1 MLOAD SWAP1 DUP2 MSTORE RETURN JUMPDEST POP POP CALLVALUE PUSH2 0x133 JUMPI DUP2 PUSH1 0x3 NOT CALLDATASIZE ADD SLT PUSH2 0x133 JUMPI PUSH1 0x20 SWAP1 PUSH1 0x3 SLOAD SWAP1 MLOAD SWAP1 DUP2 MSTORE RETURN JUMPDEST POP CALLVALUE PUSH2 0xB6 JUMPI PUSH1 0x20 CALLDATASIZE PUSH1 0x3 NOT ADD SLT PUSH2 0xB6 JUMPI PUSH1 0x20 SWAP3 DUP3 SWAP2 CALLDATALOAD DUP2 MSTORE PUSH1 0x2 DUP5 MSTORE KECCAK256 SLOAD SWAP1 MLOAD SWAP1 DUP2 MSTORE RETURN JUMPDEST POP CALLVALUE PUSH2 0xB6 JUMPI PUSH1 0x20 CALLDATASIZE PUSH1 0x3 NOT ADD SLT PUSH2 0xB6 JUMPI CALLDATALOAD PUSH1 0x1 PUSH1 0x1 PUSH1 0xA0 SHL SUB DUP2 AND SWAP1 DUP2 SWAP1 SUB PUSH2 0xB6 JUMPI SWAP2 DUP2 SWAP3 DUP2 MSTORE DUP1 PUSH1 0x20 MSTORE KECCAK256 PUSH1 0xFF PUSH1 0x2 PUSH1 0x1 DUP4 ADD SLOAD SWAP3 ADD SLOAD AND DUP3 MLOAD SWAP2 DUP3 MSTORE ISZERO ISZERO PUSH1 0x20 DUP3 ADD MSTORE RETURN JUMPDEST POP SWAP2 SWAP1 CALLVALUE PUSH2 0x133 JUMPI DUP2 PUSH1 0x3 NOT CALLDATASIZE ADD SLT PUSH2 0x133 JUMPI PUSH1 0x3 SLOAD PUSH2 0x8BE DUP2 PUSH2 0x9F3 JUMP JUMPDEST SWAP3 PUSH2 0x8CB DUP4 MLOAD SWAP5 DUP6 PUSH2 0x9BB JUMP JUMPDEST DUP2 DUP5 MSTORE PUSH2 0x8D7 DUP3 PUSH2 0x9F3 JUMP JUMPDEST PUSH1 0x20 SWAP1 PUSH1 0x1F NOT ADD CALLDATASIZE DUP7 DUP4 ADD CALLDATACOPY DUP2 JUMPDEST DUP4 DUP2 LT PUSH2 0x901 JUMPI DUP5 MLOAD PUSH1 0x20 DUP1 DUP3 MSTORE DUP2 SWAP1 PUSH2 0x7D7 SWAP1 DUP3 ADD DUP10 PUSH2 0x93A JUMP JUMPDEST DUP1 DUP4 MSTORE PUSH1 0x2 DUP3 MSTORE DUP5 DUP4 KECCAK256 SLOAD DUP7 MLOAD DUP3 LT ISZERO PUSH2 0x927 JUMPI PUSH1 0x5 DUP3 SWAP1 SHL DUP8 ADD DUP4 ADD MSTORE PUSH1 0x1 ADD PUSH2 0x8E5 JUMP JUMPDEST PUSH4 0x4E487B71 PUSH1 0xE0 SHL DUP5 MSTORE PUSH1 0x32 DUP9 MSTORE PUSH1 0x24 DUP5 REVERT JUMPDEST SWAP1 DUP2 MLOAD DUP1 DUP3 MSTORE PUSH1 0x20 DUP1 DUP1 SWAP4 ADD SWAP4 ADD SWAP2 PUSH1 0x0 JUMPDEST DUP3 DUP2 LT PUSH2 0x95A JUMPI POP POP POP POP SWAP1 JUMP JUMPDEST DUP4 MLOAD DUP6 MSTORE SWAP4 DUP2 ADD SWAP4 SWAP3 DUP2 ADD SWAP3 PUSH1 0x1 ADD PUSH2 0x94C JUMP JUMPDEST PUSH1 0x1 SLOAD DUP2 LT ISZERO PUSH2 0x9A5 JUMPI PUSH1 0x1 PUSH1 0x0 MSTORE PUSH32 0xB10E2D527612073B26EECDFD717E6A320CF44B4AFAC2B0732D9FCBE2B7FA0CF6 ADD SWAP1 PUSH1 0x0 SWAP1 JUMP JUMPDEST PUSH4 0x4E487B71 PUSH1 0xE0 SHL PUSH1 0x0 MSTORE PUSH1 0x32 PUSH1 0x4 MSTORE PUSH1 0x24 PUSH1 0x0 REVERT JUMPDEST SWAP1 PUSH1 0x1F DUP1 NOT SWAP2 ADD AND DUP2 ADD SWAP1 DUP2 LT PUSH8 0xFFFFFFFFFFFFFFFF DUP3 GT OR PUSH2 0x9DD JUMPI PUSH1 0x40 MSTORE JUMP JUMPDEST PUSH4 0x4E487B71 PUSH1 0xE0 SHL PUSH1 0x0 MSTORE PUSH1 0x41 PUSH1 0x4 MSTORE PUSH1 0x24 PUSH1 0x0 REVERT JUMPDEST PUSH8 0xFFFFFFFFFFFFFFFF DUP2 GT PUSH2 0x9DD JUMPI PUSH1 0x5 SHL PUSH1 0x20 ADD SWAP1 JUMP JUMPDEST PUSH1 0x1 PUSH1 0x40 SHL DUP3 GT PUSH2 0x9DD JUMPI DUP1 SLOAD SWAP2 DUP1 DUP3 SSTORE DUP3 DUP2 LT PUSH2 0xA28 JUMPI POP POP POP JUMP JUMPDEST PUSH1 0x0 SWAP2 PUSH1 0x0 MSTORE PUSH1 0x20 PUSH1 0x0 KECCAK256 SWAP3 DUP4 ADD SWAP3 ADD JUMPDEST DUP3 DUP2 LT PUSH2 0xA45 JUMPI POP POP POP JUMP JUMPDEST DUP2 DUP2 SSTORE PUSH1 0x1 ADD PUSH2 0xA39 JUMP INVALID LOG2 PUSH5 0x6970667358 0x22 SLT KECCAK256 0x2D 0xDC PUSH23 0xAE68021026B3966AA2BA1E62C0C442AE98334564608219 SGT PUSH19 0xD8A1D14364736F6C6343000817003300000000 "},"methodIdentifiers":{"computeGlobalOptimalPlan()":"ed3bf9c4","getBestPosition(address)":"af602b43","getGlobalOptimalPlanArray()":"1e385f69","getGlobalOptimalPlanHour(uint256)":"efe5c98d","getLastUpdatedTimestamp()":"a626d2c0","globalOptimalPlan(uint256)":"7f042dc0","lastUpdatedTimestamp()":"fbaf894c","nodeAddresses(uint256)":"c4d77090","nodeResults(address)":"7207c556","numHours()":"94f6cd8d","updateNodeResult(int256[],int256)":"efa624bc"}}}}}