{"contracts/Node.sol":{"Node":{"abi":[{"inputs":[{"internalType":"address","name":"globalContractAddress","type":"address"},{"internalType":"int256[]","name":"initialPosition","type":"int256[]"},{"internalType":"int256[]","name":"initialVelocity","type":"int256[]"},{"internalType":"int256[]","name":"initialTariff","type":"int256[]"},{"internalType":"uint256[]","name":"initialCapacity","type":"uint256[]"},{"internalType":"uint256[]","name":"initialRenewableGeneration","type":"uint256[]"},{"internalType":"uint256[]","name":"initialBatteryCapacity","type":"uint256[]"},{"internalType":"uint256[]","name":"initialBatteryCharge","type":"uint256[]"},{"internalType":"uint256[]","name":"initialFlexibleLoad","type":"uint256[]"},{"internalType":"uint256[]","name":"_flexibilityAbove","type":"uint256[]"},{"internalType":"uint256[]","name":"_flexibilityBelow","type":"uint256[]"}],"stateMutability":"nonpayable","type":"constructor"},{"anonymous":false,"inputs":[{"indexed":true,"internalType":"address","name":"node","type":"address"},{"indexed":false,"internalType":"int256","name":"newScore","type":"int256"}],"name":"BestPositionUpdated","type":"event"},{"anonymous":false,"inputs":[{"indexed":false,"internalType":"uint256","name":"timestamp","type":"uint256"}],"name":"NewPlanReceived","type":"event"},{"inputs":[{"internalType":"uint256","name":"","type":"uint256"}],"name":"batteryCapacity","outputs":[{"internalType":"uint256","name":"","type":"uint256"}],"stateMutability":"view","type":"function"},{"inputs":[{"internalType":"uint256","name":"","type":"uint256"}],"name":"batteryCharge","outputs":[{"internalType":"uint256","name":"","type":"uint256"}],"stateMutability":"view","type":"function"},{"inputs":[],"name":"c1","outputs":[{"internalType":"int256","name":"","type":"int256"}],"stateMutability":"view","type":"function"},{"inputs":[],"name":"c2","outputs":[{"internalType":"int256","name":"","type":"int256"}],"stateMutability":"view","type":"function"},{"inputs":[{"internalType":"uint256","name":"","type":"uint256"}],"name":"capacity","outputs":[{"internalType":"uint256","name":"","type":"uint256"}],"stateMutability":"view","type":"function"},{"inputs":[{"internalType":"uint256","name":"","type":"uint256"}],"name":"flexibilityAbove","outputs":[{"internalType":"uint256","name":"","type":"uint256"}],"stateMutability":"view","type":"function"},{"inputs":[{"internalType":"uint256","name":"","type":"uint256"}],"name":"flexibilityBelow","outputs":[{"internalType":"uint256","name":"","type":"uint256"}],"stateMutability":"view","type":"function"},{"inputs":[{"internalType":"uint256","name":"","type":"uint256"}],"name":"flexibleLoad","outputs":[{"internalType":"uint256","name":"","type":"uint256"}],"stateMutability":"view","type":"function"},{"inputs":[{"internalType":"uint256","name":"hour","type":"uint256"},{"internalType":"int256","name":"consumption","type":"int256"}],"name":"getEffectiveTariff","outputs":[{"internalType":"int256","name":"","type":"int256"}],"stateMutability":"view","type":"function"},{"inputs":[],"name":"getPosition","outputs":[{"internalType":"int256[]","name":"","type":"int256[]"}],"stateMutability":"view","type":"function"},{"inputs":[],"name":"globalContract","outputs":[{"internalType":"contract GlobalContractInterface","name":"","type":"address"}],"stateMutability":"view","type":"function"},{"inputs":[],"name":"lastKnownGlobalTimestamp","outputs":[{"internalType":"uint256","name":"","type":"uint256"}],"stateMutability":"view","type":"function"},{"inputs":[{"internalType":"int256[]","name":"pos","type":"int256[]"}],"name":"objectiveFunction","outputs":[{"internalType":"int256","name":"","type":"int256"}],"stateMutability":"view","type":"function"},{"inputs":[{"internalType":"uint256","name":"","type":"uint256"}],"name":"personalBestPosition","outputs":[{"internalType":"int256","name":"","type":"int256"}],"stateMutability":"view","type":"function"},{"inputs":[],"name":"personalBestScore","outputs":[{"internalType":"int256","name":"","type":"int256"}],"stateMutability":"view","type":"function"},{"inputs":[{"internalType":"uint256","name":"","type":"uint256"}],"name":"position","outputs":[{"internalType":"int256","name":"","type":"int256"}],"stateMutability":"view","type":"function"},{"inputs":[{"internalType":"uint256","name":"","type":"uint256"}],"name":"renewableGeneration","outputs":[{"internalType":"uint256","name":"","type":"uint256"}],"stateMutability":"view","type":"function"},{"inputs":[{"internalType":"uint256","name":"","type":"uint256"}],"name":"tariff","outputs":[{"internalType":"int256","name":"","type":"int256"}],"stateMutability":"view","type":"function"},{"inputs":[],"name":"updateBestPositions","outputs":[],"stateMutability":"nonpayable","type":"function"},{"inputs":[],"name":"updateVelocityAndPosition","outputs":[],"stateMutability":"nonpayable","type":"function"},{"inputs":[{"internalType":"uint256","name":"","type":"uint256"}],"name":"velocity","outputs":[{"internalType":"int256","name":"","type":"int256"}],"stateMutability":"view","type":"function"},{"inputs":[],"name":"w","outputs":[{"internalType":"int256","name":"","type":"int256"}],"stateMutability":"view","type":"function"}],"evm":{"bytecode":{"linkReferences":{},"object":"60806040523462000bd25762002361803803806200001d8162000bd7565b92833981016101608282031262000bd25781516001600160a01b038116919082900362000bd25760208301516001600160401b03811162000bd257816200006691850162000c15565b60408401519093906001600160401b03811162000bd257826200008b91830162000c15565b60608201516001600160401b03811162000bd25783620000ad91840162000c15565b60808301516001600160401b03811162000bd25784620000cf91850162000c15565b60a08401516001600160401b03811162000bd25785620000f191860162000c15565b60c08501519091906001600160401b03811162000bd257866200011691870162000c15565b60e08601519093906001600160401b03811162000bd257876200013b91880162000c15565b6101008701519095906001600160401b03811162000bd257886200016191890162000c15565b6101208801519097906001600160401b03811162000bd257896200018791830162000c15565b6101408201519099906001600160401b03811162000bd257620001ab920162000c15565b6001600160ff1b03600355603260055560c86006819055600755601080546001600160a01b031916909a179099558951620001e69062000c79565b8051906001600160401b038211620008905768010000000000000000821162000890576000548260005580831062000b9b575b5060200160008052602060002060005b83811062000b86575050505062000241815162000c79565b8051906001600160401b038211620008905768010000000000000000821162000890576001548260015580831062000b4d575b506020016001600052602060002060005b83811062000b3857505050506200029d8a5162000c79565b8051906001600160401b038211620008905768010000000000000000821162000890576002548260025580831062000aff575b506020016002600052602060002060005b83811062000aea5750505050620002f9825162000c79565b8051906001600160401b038211620008905768010000000000000000821162000890576008548260085580831062000ab1575b506020016008600052602060002060005b83811062000a9c575050505062000355835162000c79565b8051906001600160401b038211620008905768010000000000000000821162000890576009548260095580831062000a63575b506020016009600052602060002060005b83811062000a4e5750505050620003b1845162000c79565b8051906001600160401b03821162000890576801000000000000000082116200089057600a5482600a5580831062000a15575b50602001600a600052602060002060005b83811062000a0057505050506200040d855162000c79565b8051906001600160401b03821162000890576801000000000000000082116200089057600b5482600b55808310620009b6575b50602001600b600052602060002060005b838110620009a1575050505062000469865162000c79565b8051906001600160401b03821162000890576801000000000000000082116200089057600c5482600c5580831062000957575b50602001600c600052602060002060005b838110620009425750505050620004c5875162000c79565b8051906001600160401b03821162000890576801000000000000000082116200089057600d5482600d5580831062000909575b50602001600d600052602060002060005b838110620008f4575050505062000521885162000c79565b8051906001600160401b03821162000890576801000000000000000082116200089057600e5482600e55808310620008bb575b50602001600e600052602060002060005b838110620008a657505050506200057d895162000c79565b8051906001600160401b03821162000890576801000000000000000082116200089057600f5482600f5580831062000846575b50602001600f600052602060002060005b83811062000831575050505060005b8a518110156200082157620005e6818c62000ca6565b516000548210156200080b5760008052600080516020620022c183398151915282015562000615818c62000ca6565b516002548210156200080b5760026000526000805160206200226183398151915282015562000645818362000ca6565b516001548210156200080b5760016000526000805160206200234183398151915282015562000675818462000ca6565b516008548210156200080b57600860005260008051602062002301833981519152820155620006a5818562000ca6565b516009548210156200080b57600960005260008051602062002321833981519152820155620006d5818662000ca6565b51600a548210156200080b57600a600052600080516020620022a183398151915282015562000705818762000ca6565b51600b548210156200080b57600b6000527f0175b7a638427703f0dbe7bb9bbf987a2551717b34e79f33b5b1008d1fa01db982015562000746818862000ca6565b51600c548210156200080b57600c6000527fdf6966c971051c3d54ec59162606531493a51404a002842f56009d7e5cf4a8c782015562000787818962000ca6565b51600d548210156200080b57600d600052600080516020620022e1833981519152820155620007b7818a62000ca6565b51600e548210156200080b57600e60005260008051602062002281833981519152820155620007e7818b62000ca6565b5190600f548110156200080b57600191600f600052816020600020015501620005d0565b634e487b7160e01b600052603260045260246000fd5b6040516115a5908162000cbc8239f35b600190602084519401938184015501620005c1565b600f6000527f8d1108e10bcb7c27dddfc02ed9d693a074039d026cf4ea4240b40f7d581ac802908382015b818301811062000883575050620005b0565b6000815560010162000871565b634e487b7160e01b600052604160045260246000fd5b60019060208451940193818401550162000565565b600e60005260008051602062002281833981519152908382015b8183018110620008e757505062000554565b60008155600101620008d5565b60019060208451940193818401550162000509565b600d600052600080516020620022e1833981519152908382015b818301811062000935575050620004f8565b6000815560010162000923565b600190602084519401938184015501620004ad565b600c6000527fdf6966c971051c3d54ec59162606531493a51404a002842f56009d7e5cf4a8c7908382015b8183018110620009945750506200049c565b6000815560010162000982565b60019060208451940193818401550162000451565b600b6000527f0175b7a638427703f0dbe7bb9bbf987a2551717b34e79f33b5b1008d1fa01db9908382015b8183018110620009f357505062000440565b60008155600101620009e1565b600190602084519401938184015501620003f5565b600a600052600080516020620022a1833981519152908382015b818301811062000a41575050620003e4565b6000815560010162000a2f565b60019060208451940193818401550162000399565b600960005260008051602062002321833981519152908382015b818301811062000a8f57505062000388565b6000815560010162000a7d565b6001906020845194019381840155016200033d565b600860005260008051602062002301833981519152908382015b818301811062000add5750506200032c565b6000815560010162000acb565b600190602084519401938184015501620002e1565b600260005260008051602062002261833981519152908382015b818301811062000b2b575050620002d0565b6000815560010162000b19565b60019060208451940193818401550162000285565b600160005260008051602062002341833981519152908382015b818301811062000b7957505062000274565b6000815560010162000b67565b60019060208451940193818401550162000229565b60008052600080516020620022c18339815191529081019083015b81811062000bc5575062000219565b6000815560010162000bb6565b600080fd5b6040519190601f01601f191682016001600160401b038111838210176200089057604052565b6001600160401b038111620008905760051b60200190565b9080601f8301121562000bd25781519060209162000c3d62000c378262000bfd565b62000bd7565b9360208086848152019260051b82010192831162000bd257602001905b82821062000c69575050505090565b8151815290830190830162000c5a565b9062000c8962000c378362000bfd565b828152809262000c9c601f199162000bfd565b0190602036910137565b80518210156200080b5760209160051b01019056fe6040608081526004908136101561001557600080fd5b600091823560e01c806316b5192814610c72578063205c9cc714610c53578063364132d914610bc7578063375a105e14610b9d57806348e257cb14610b7e5780634d985ae414610b5f5780634eb274ff14610b125780635f57697c14610af35780636f24077414610ac95780637398ab1814610a0a57806378b6d7d4146109e057806390ccfa0f146109b7578063957b40561461098d57806396d14da614610963578063973b9cc1146106b2578063a86853d514610688578063ab1bbeca1461065e578063b6ce67091461060e578063d0c6c7af146105f1578063e329143f146105a1578063f6451c0a146101505763f7a95a9e1461011357600080fd5b3461014c57602036600319011261014c5735918054831015610149575061013b602092610d53565b91905490519160031b1c8152f35b80fd5b8280fd5b5091903461059d578160031936011261059d5760105481516302989b4b60e61b815260209390916001600160a01b031684838781845afa80156105935790829187939061055f575b83945086839454821161052d575b50508451631e385f6960e01b815293849182905afa9182156105215781926104fd575b5081518154036104c557805b81548110156104c1576101e781610d53565b905485514288820190815260208101859052600393841b9290921c604083015280606083010390610220601f1992838101835282610e79565b6064928391519020066001918286018087116104ae57896102ba6102c68d95948860659561027a6102868d8f61025590610d1c565b9054911b1c88519283918d830195428791606093918352602083015260408201520190565b03858101835282610e79565b51902006966102948c610d1c565b9054908c1b1c94519384918201958d428891606093918352602083015260408201520190565b03908101835282610e79565b5190200792603119840193841316610499576103ad926103858593846103758961037061037c8f98839c60019f9e8f9b6103706103678e61038a9f610339816103336103759861031861034f95610e0b565b905490821b1c9061032884610d53565b9054911b1c90610fc9565b96610f48565b5161034383610d53565b9054908d1b1c90610fc9565b9961035c60055492610d1c565b9054911b1c90610f95565b94600654610f95565b610f95565b0590610fef565b94600754610f95565b610fef565b0561039484610d1c565b90919082549060031b91821b91600019901b1916179055565b6103e06103d76103bc84610d53565b905490841b1c6103cb85610d1c565b905490851b1c90610fef565b61039484610d53565b61040f6103ec83610e0b565b905490831b1c6104096103fe85610ce5565b905490851b1c610f7f565b90610fc9565b61043e61041b84610e0b565b905490841b1c61043861042d86610d9d565b905490861b1c610f7f565b90610fef565b9181839261044b86610d53565b905490841b1c12610486575b5061046184610d53565b9054911b1c13610473575b50016101d5565b6104809061039483610d53565b3861046c565b6104939061039486610d53565b38610457565b60118b634e487b7160e01b6000525260246000fd5b634e487b7160e01b885260118c52602488fd5b5080f35b825162461bcd60e51b8152808601859052601260248201527144696d656e7369756e6920696e6567616c6560701b6044820152606490fd5b61051a9192503d8084833e6105128183610e79565b810190610ec9565b90386101c9565b508251903d90823e3d90fd5b817fc06999d659d5132dd93a1915097da1a6a24201916389e38da2404e4bca5e59be9287558751908152a138866101a6565b509150918481813d831161058c575b6105788183610e79565b8101031261014c5751859283929091610198565b503d61056e565b84513d84823e3d90fd5b5080fd5b503461014c57602036600319011261014c5735600d5481101561014c5760209250600d6000527fd7b6990105719101dabeb77144f2a3385c8033acd3af97e9423a695e81ad1eb501549051908152f35b503461014c578260031936011261014c5760209250549051908152f35b503461014c57602036600319011261014c5735600b5481101561014c5760209250600b6000527f0175b7a638427703f0dbe7bb9bbf987a2551717b34e79f33b5b1008d1fa01db901549051908152f35b503461014c57602036600319011261014c573591600954831015610149575061013b602092610e42565b503461014c57602036600319011261014c573591600254831015610149575061013b602092610e0b565b50903461014c5760031991838336011261095f576106e482516106df816106d881611516565b0382610e79565b61100b565b600390600354811261083b575b600e54906106fe82610eb1565b9261070b86519485610e79565b82845261071783610eb1565b926020916020860194601f1901368637895b8281106107fe5750506010546001600160a01b0316949050843b156107fa5796929088949260208851998a96632fc0395f60e01b885260608a89015261077160648901611516565b9360248901528784030160448801525191828152019291865b8281106107e057505050508383809203925af180156107d6576107ab578380f35b67ffffffffffffffff83116107c35750523880808380f35b634e487b7160e01b845260419052602483fd5b82513d86823e3d90fd5b835185528b97508a9650938101939281019260010161078a565b8880fd5b8061082861080d600193610d9d565b905490851b1c61081c83610ce5565b905490861b1c90610fe2565b821c610834828a610f48565b5201610729565b80600355855467ffffffffffffffff811161094c5768010000000000000000811161094c576002548160025580821061090c575b507f290decd9548b62a8d60345a988386fc84ba6bc95484008f6362f93160ef3e5636002885280549088915b8383106108d6575050505083518181527f409d103f7876158f293a85ee39f235ce0c309ab1aca81024a51dfb4b471e556e60203092a26106f1565b60018091920192835492817f405787fa12a823e0f2b7631cc41b3ba8828b3321ca811111fa75cd3aa3bb5ace015501919061089b565b817f405787fa12a823e0f2b7631cc41b3ba8828b3321ca811111fa75cd3aa3bb5ace91820191015b818110610941575061086f565b888155600101610934565b634e487b7160e01b875260418452602487fd5b8380fd5b503461014c57602036600319011261014c573591600a54831015610149575061013b602092610dd4565b509134610149578160031936011261014957506109b060209260243590356114b2565b9051908152f35b50503461059d578160031936011261059d5760105490516001600160a01b039091168152602090f35b503461014c57602036600319011261014c573591600e54831015610149575061013b602092610d9d565b82843461014957806003193601126101495790815491610a2983610eb1565b90610a3683519283610e79565b838252610a4284610eb1565b6020948584019391601f1901368537825b818110610a99575050835194859460208601926020875251809352850193925b828110610a8257505050500390f35b835185528695509381019392810192600101610a73565b80610aab600192989594969798610d53565b90549060031b1c610abc8288610f48565b5201959493919295610a53565b503461014c57602036600319011261014c573591600154831015610149575061013b602092610d1c565b50503461059d578160031936011261059d576020906006549051908152f35b503461014c57602036600319011261014c5735600c5481101561014c57600c602093527fdf6966c971051c3d54ec59162606531493a51404a002842f56009d7e5cf4a8c701549051908152f35b50503461059d578160031936011261059d576020906003549051908152f35b50503461059d578160031936011261059d576020906007549051908152f35b503461014c57602036600319011261014c573591600f54831015610149575061013b602092610ce5565b5091346101495760209060206003193601126101495783359367ffffffffffffffff851161059d573660238601121561059d57840135610c0681610eb1565b94610c1385519687610e79565b8186526024602087019260051b820101923684116101495750602401905b828210610c44576020856109b08861100b565b81358152908301908301610c31565b50503461059d578160031936011261059d576020906005549051908152f35b503461014c57602036600319011261014c573591600854831015610149575061013b6020925b600854811015610ccf5760086000527ff3f7a9fe364faab93b216da50a3214154f22a0a2b415b23a84c8169e8b636ee30190600090565b634e487b7160e01b600052603260045260246000fd5b600f54811015610ccf57600f6000527f8d1108e10bcb7c27dddfc02ed9d693a074039d026cf4ea4240b40f7d581ac8020190600090565b600154811015610ccf5760016000527fb10e2d527612073b26eecdfd717e6a320cf44b4afac2b0732d9fcbe2b7fa0cf60190600090565b906000918254811015610d89578280527f290decd9548b62a8d60345a988386fc84ba6bc95484008f6362f93160ef3e563019190565b634e487b7160e01b83526032600452602483fd5b600e54811015610ccf57600e6000527fbb7b4a454dc3493923482f07822329ed19e8244eff582cc204f8554c3620c3fd0190600090565b600a54811015610ccf57600a6000527fc65a7bb8d6351c1cf70c95a316cc6a92839c986682d98bc35f958f4883f9d2a80190600090565b600254811015610ccf5760026000527f405787fa12a823e0f2b7631cc41b3ba8828b3321ca811111fa75cd3aa3bb5ace0190600090565b600954811015610ccf5760096000527f6e1540171b6c0c960b71a7020d9f60077f6af931a8bbf590da0223dacf75c7af0190600090565b90601f8019910116810190811067ffffffffffffffff821117610e9b57604052565b634e487b7160e01b600052604160045260246000fd5b67ffffffffffffffff8111610e9b5760051b60200190565b6020908181840312610f435780519067ffffffffffffffff8211610f4357019180601f84011215610f43578251610eff81610eb1565b93610f0d6040519586610e79565b818552838086019260051b820101928311610f43578301905b828210610f34575050505090565b81518152908301908301610f26565b600080fd5b8051821015610ccf5760209160051b010190565b91908203918211610f6957565b634e487b7160e01b600052601160045260246000fd5b908160011b9180830560021490151715610f6957565b818102929160008212600160ff1b821416610f69578184051490151715610f6957565b600160ff1b8114610f695760000390565b81810392916000138015828513169184121617610f6957565b91908201809211610f6957565b91909160008382019384129112908015821691151617610f6957565b600090805160405180600a8054808352836020809401600a89527fc65a7bb8d6351c1cf70c95a316cc6a92839c986682d98bc35f958f4883f9d2a892895b8682821061149c5750505061106092500384610e79565b604051918280936020600c54918281520190600c8a527fdf6966c971051c3d54ec59162606531493a51404a002842f56009d7e5cf4a8c7938a905b828210611482575050506110b192500383610e79565b601054604051631e385f6960e01b8152936004929188908690859082906001600160a01b03165afa94851561147757889561145b575b5095949392919087965b85881061110357505050505050505090565b90919293949596976111158989610f48565b516000808212156113945750611145611136611131838d6114b2565b610fb8565b61113f83610fb8565b90610f95565b8a61114f81610e42565b905460039160009190831b1c85131561138f575061117b61116f83610e42565b905490831b1c85610fc9565b6111e361118784610e0b565b905490841b1c6111be6111b761119c87610d9d565b905490871b1c6111ab88610ce5565b905490881b1c90610fe2565b9188610fc9565b6000811261138057905b60009181811315611378576111dd9250610fc9565b93610dd4565b905490831b1c85600091818113600014611370576112019250610fc9565b925b60059182810292818405149015171561135b578281029281840514901517156113465761123761123d939261043892610fef565b91610f7f565b906000928c8b8b511461126f575b5050611261926103856001959361043893610fef565b9801969594939291906110f1565b61127c611284918c610f48565b518092610fc9565b90848212611336578782915b801561132d5705915b8282136112a9575b50508c61124b565b94909192941360001461130457906112c091610fc9565b8060021b908082058814901517156112ef57611261926103856001959361043893925b935093958295506112a1565b601187634e487b7160e01b6000525260246000fd5b92610385600195936113276111316113226104389661126199610fc9565b610f7f565b926112e3565b50508491611299565b8761134083610fb8565b91611290565b601189634e487b7160e01b6000525260246000fd5b60118a634e487b7160e01b6000525260246000fd5b505092611203565b505093610dd4565b61138990610fb8565b906111c8565b61117b565b61140b908b83846113a58389610f48565b5110611435576113b86113be9288610f48565b51610f5c565b6113c88d87610f48565b528b815b806113d7838c610f48565b5110611410576113b86113ea928b610f48565b6113f48d8a610f48565b525b6113ff8c610c98565b90549060031b1c610f95565b611145565b61141d611424928b610f48565b5190610f5c565b9061142f8d8a610f48565b526113f6565b5061144a6114438288610f48565b5185610f5c565b826114558389610f48565b526113cc565b6114709195503d808a833e6105128183610e79565b93386110e7565b6040513d8a823e3d90fd5b85548452600195860195889550938101939091019061109b565b8554845260019586019589955093019201611049565b6114bb90610c98565b90549060031b1c9060008112600014611512576114d790610fb8565b60011c60140180601411610f69576028811161150a575b6064039060648211610f695760649161150691610f95565b0590565b5060286114ee565b5090565b600080548083528180526020928301927f290decd9548b62a8d60345a988386fc84ba6bc95484008f6362f93160ef3e56392905b828210611558575050505090565b83548552938401936001938401939091019061154a56fea2646970667358221220583f83bb38936cb7efc5b172ed3c1c08471d97cf4f05897f0ebc3811d2f9913b64736f6c63430008170033405787fa12a823e0f2b7631cc41b3ba8828b3321ca811111fa75cd3aa3bb5acebb7b4a454dc3493923482f07822329ed19e8244eff582cc204f8554c3620c3fdc65a7bb8d6351c1cf70c95a316cc6a92839c986682d98bc35f958f4883f9d2a8290decd9548b62a8d60345a988386fc84ba6bc95484008f6362f93160ef3e563d7b6990105719101dabeb77144f2a3385c8033acd3af97e9423a695e81ad1eb5f3f7a9fe364faab93b216da50a3214154f22a0a2b415b23a84c8169e8b636ee36e1540171b6c0c960b71a7020d9f60077f6af931a8bbf590da0223dacf75c7afb10e2d527612073b26eecdfd717e6a320cf44b4afac2b0732d9fcbe2b7fa0cf6","opcodes":"PUSH1 0x80 PUSH1 0x40 MSTORE CALLVALUE PUSH3 0xBD2 JUMPI PUSH3 0x2361 DUP1 CODESIZE SUB DUP1 PUSH3 0x1D DUP2 PUSH3 0xBD7 JUMP JUMPDEST SWAP3 DUP4 CODECOPY DUP2 ADD PUSH2 0x160 DUP3 DUP3 SUB SLT PUSH3 0xBD2 JUMPI DUP2 MLOAD PUSH1 0x1 PUSH1 0x1 PUSH1 0xA0 SHL SUB DUP2 AND SWAP2 SWAP1 DUP3 SWAP1 SUB PUSH3 0xBD2 JUMPI PUSH1 0x20 DUP4 ADD MLOAD PUSH1 0x1 PUSH1 0x1 PUSH1 0x40 SHL SUB DUP2 GT PUSH3 0xBD2 JUMPI DUP2 PUSH3 0x66 SWAP2 DUP6 ADD PUSH3 0xC15 JUMP JUMPDEST PUSH1 0x40 DUP5 ADD MLOAD SWAP1 SWAP4 SWAP1 PUSH1 0x1 PUSH1 0x1 PUSH1 0x40 SHL SUB DUP2 GT PUSH3 0xBD2 JUMPI DUP3 PUSH3 0x8B SWAP2 DUP4 ADD PUSH3 0xC15 JUMP JUMPDEST PUSH1 0x60 DUP3 ADD MLOAD PUSH1 0x1 PUSH1 0x1 PUSH1 0x40 SHL SUB DUP2 GT PUSH3 0xBD2 JUMPI DUP4 PUSH3 0xAD SWAP2 DUP5 ADD PUSH3 0xC15 JUMP JUMPDEST PUSH1 0x80 DUP4 ADD MLOAD PUSH1 0x1 PUSH1 0x1 PUSH1 0x40 SHL SUB DUP2 GT PUSH3 0xBD2 JUMPI DUP5 PUSH3 0xCF SWAP2 DUP6 ADD PUSH3 0xC15 JUMP JUMPDEST PUSH1 0xA0 DUP5 ADD MLOAD PUSH1 0x1 PUSH1 0x1 PUSH1 0x40 SHL SUB DUP2 GT PUSH3 0xBD2 JUMPI DUP6 PUSH3 0xF1 SWAP2 DUP7 ADD PUSH3 0xC15 JUMP JUMPDEST PUSH1 0xC0 DUP6 ADD MLOAD SWAP1 SWAP2 SWAP1 PUSH1 0x1 PUSH1 0x1 PUSH1 0x40 SHL SUB DUP2 GT PUSH3 0xBD2 JUMPI DUP7 PUSH3 0x116 SWAP2 DUP8 ADD PUSH3 0xC15 JUMP JUMPDEST PUSH1 0xE0 DUP7 ADD MLOAD SWAP1 SWAP4 SWAP1 PUSH1 0x1 PUSH1 0x1 PUSH1 0x40 SHL SUB DUP2 GT PUSH3 0xBD2 JUMPI DUP8 PUSH3 0x13B SWAP2 DUP9 ADD PUSH3 0xC15 JUMP JUMPDEST PUSH2 0x100 DUP8 ADD MLOAD SWAP1 SWAP6 SWAP1 PUSH1 0x1 PUSH1 0x1 PUSH1 0x40 SHL SUB DUP2 GT PUSH3 0xBD2 JUMPI DUP9 PUSH3 0x161 SWAP2 DUP10 ADD PUSH3 0xC15 JUMP JUMPDEST PUSH2 0x120 DUP9 ADD MLOAD SWAP1 SWAP8 SWAP1 PUSH1 0x1 PUSH1 0x1 PUSH1 0x40 SHL SUB DUP2 GT PUSH3 0xBD2 JUMPI DUP10 PUSH3 0x187 SWAP2 DUP4 ADD PUSH3 0xC15 JUMP JUMPDEST PUSH2 0x140 DUP3 ADD MLOAD SWAP1 SWAP10 SWAP1 PUSH1 0x1 PUSH1 0x1 PUSH1 0x40 SHL SUB DUP2 GT PUSH3 0xBD2 JUMPI PUSH3 0x1AB SWAP3 ADD PUSH3 0xC15 JUMP JUMPDEST PUSH1 0x1 PUSH1 0x1 PUSH1 0xFF SHL SUB PUSH1 0x3 SSTORE PUSH1 0x32 PUSH1 0x5 SSTORE PUSH1 0xC8 PUSH1 0x6 DUP2 SWAP1 SSTORE PUSH1 0x7 SSTORE PUSH1 0x10 DUP1 SLOAD PUSH1 0x1 PUSH1 0x1 PUSH1 0xA0 SHL SUB NOT AND SWAP1 SWAP11 OR SWAP1 SWAP10 SSTORE DUP10 MLOAD PUSH3 0x1E6 SWAP1 PUSH3 0xC79 JUMP JUMPDEST DUP1 MLOAD SWAP1 PUSH1 0x1 PUSH1 0x1 PUSH1 0x40 SHL SUB DUP3 GT PUSH3 0x890 JUMPI PUSH9 0x10000000000000000 DUP3 GT PUSH3 0x890 JUMPI PUSH1 0x0 SLOAD DUP3 PUSH1 0x0 SSTORE DUP1 DUP4 LT PUSH3 0xB9B JUMPI JUMPDEST POP PUSH1 0x20 ADD PUSH1 0x0 DUP1 MSTORE PUSH1 0x20 PUSH1 0x0 KECCAK256 PUSH1 0x0 JUMPDEST DUP4 DUP2 LT PUSH3 0xB86 JUMPI POP POP POP POP PUSH3 0x241 DUP2 MLOAD PUSH3 0xC79 JUMP JUMPDEST DUP1 MLOAD SWAP1 PUSH1 0x1 PUSH1 0x1 PUSH1 0x40 SHL SUB DUP3 GT PUSH3 0x890 JUMPI PUSH9 0x10000000000000000 DUP3 GT PUSH3 0x890 JUMPI PUSH1 0x1 SLOAD DUP3 PUSH1 0x1 SSTORE DUP1 DUP4 LT PUSH3 0xB4D JUMPI JUMPDEST POP PUSH1 0x20 ADD PUSH1 0x1 PUSH1 0x0 MSTORE PUSH1 0x20 PUSH1 0x0 KECCAK256 PUSH1 0x0 JUMPDEST DUP4 DUP2 LT PUSH3 0xB38 JUMPI POP POP POP POP PUSH3 0x29D DUP11 MLOAD PUSH3 0xC79 JUMP JUMPDEST DUP1 MLOAD SWAP1 PUSH1 0x1 PUSH1 0x1 PUSH1 0x40 SHL SUB DUP3 GT PUSH3 0x890 JUMPI PUSH9 0x10000000000000000 DUP3 GT PUSH3 0x890 JUMPI PUSH1 0x2 SLOAD DUP3 PUSH1 0x2 SSTORE DUP1 DUP4 LT PUSH3 0xAFF JUMPI JUMPDEST POP PUSH1 0x20 ADD PUSH1 0x2 PUSH1 0x0 MSTORE PUSH1 0x20 PUSH1 0x0 KECCAK256 PUSH1 0x0 JUMPDEST DUP4 DUP2 LT PUSH3 0xAEA JUMPI POP POP POP POP PUSH3 0x2F9 DUP3 MLOAD PUSH3 0xC79 JUMP JUMPDEST DUP1 MLOAD SWAP1 PUSH1 0x1 PUSH1 0x1 PUSH1 0x40 SHL SUB DUP3 GT PUSH3 0x890 JUMPI PUSH9 0x10000000000000000 DUP3 GT PUSH3 0x890 JUMPI PUSH1 0x8 SLOAD DUP3 PUSH1 0x8 SSTORE DUP1 DUP4 LT PUSH3 0xAB1 JUMPI JUMPDEST POP PUSH1 0x20 ADD PUSH1 0x8 PUSH1 0x0 MSTORE PUSH1 0x20 PUSH1 0x0 KECCAK256 PUSH1 0x0 JUMPDEST DUP4 DUP2 LT PUSH3 0xA9C JUMPI POP POP POP POP PUSH3 0x355 DUP4 MLOAD PUSH3 0xC79 JUMP JUMPDEST DUP1 MLOAD SWAP1 PUSH1 0x1 PUSH1 0x1 PUSH1 0x40 SHL SUB DUP3 GT PUSH3 0x890 JUMPI PUSH9 0x10000000000000000 DUP3 GT PUSH3 0x890 JUMPI PUSH1 0x9 SLOAD DUP3 PUSH1 0x9 SSTORE DUP1 DUP4 LT PUSH3 0xA63 JUMPI JUMPDEST POP PUSH1 0x20 ADD PUSH1 0x9 PUSH1 0x0 MSTORE PUSH1 0x20 PUSH1 0x0 KECCAK256 PUSH1 0x0 JUMPDEST DUP4 DUP2 LT PUSH3 0xA4E JUMPI POP POP POP POP PUSH3 0x3B1 DUP5 MLOAD PUSH3 0xC79 JUMP JUMPDEST DUP1 MLOAD SWAP1 PUSH1 0x1 PUSH1 0x1 PUSH1 0x40 SHL SUB DUP3 GT PUSH3 0x890 JUMPI PUSH9 0x10000000000000000 DUP3 GT PUSH3 0x890 JUMPI PUSH1 0xA SLOAD DUP3 PUSH1 0xA SSTORE DUP1 DUP4 LT PUSH3 0xA15 JUMPI JUMPDEST POP PUSH1 0x20 ADD PUSH1 0xA PUSH1 0x0 MSTORE PUSH1 0x20 PUSH1 0x0 KECCAK256 PUSH1 0x0 JUMPDEST DUP4 DUP2 LT PUSH3 0xA00 JUMPI POP POP POP POP PUSH3 0x40D DUP6 MLOAD PUSH3 0xC79 JUMP JUMPDEST DUP1 MLOAD SWAP1 PUSH1 0x1 PUSH1 0x1 PUSH1 0x40 SHL SUB DUP3 GT PUSH3 0x890 JUMPI PUSH9 0x10000000000000000 DUP3 GT PUSH3 0x890 JUMPI PUSH1 0xB SLOAD DUP3 PUSH1 0xB SSTORE DUP1 DUP4 LT PUSH3 0x9B6 JUMPI JUMPDEST POP PUSH1 0x20 ADD PUSH1 0xB PUSH1 0x0 MSTORE PUSH1 0x20 PUSH1 0x0 KECCAK256 PUSH1 0x0 JUMPDEST DUP4 DUP2 LT PUSH3 0x9A1 JUMPI POP POP POP POP PUSH3 0x469 DUP7 MLOAD PUSH3 0xC79 JUMP JUMPDEST DUP1 MLOAD SWAP1 PUSH1 0x1 PUSH1 0x1 PUSH1 0x40 SHL SUB DUP3 GT PUSH3 0x890 JUMPI PUSH9 0x10000000000000000 DUP3 GT PUSH3 0x890 JUMPI PUSH1 0xC SLOAD DUP3 PUSH1 0xC SSTORE DUP1 DUP4 LT PUSH3 0x957 JUMPI JUMPDEST POP PUSH1 0x20 ADD PUSH1 0xC PUSH1 0x0 MSTORE PUSH1 0x20 PUSH1 0x0 KECCAK256 PUSH1 0x0 JUMPDEST DUP4 DUP2 LT PUSH3 0x942 JUMPI POP POP POP POP PUSH3 0x4C5 DUP8 MLOAD PUSH3 0xC79 JUMP JUMPDEST DUP1 MLOAD SWAP1 PUSH1 0x1 PUSH1 0x1 PUSH1 0x40 SHL SUB DUP3 GT PUSH3 0x890 JUMPI PUSH9 0x10000000000000000 DUP3 GT PUSH3 0x890 JUMPI PUSH1 0xD SLOAD DUP3 PUSH1 0xD SSTORE DUP1 DUP4 LT PUSH3 0x909 JUMPI JUMPDEST POP PUSH1 0x20 ADD PUSH1 0xD PUSH1 0x0 MSTORE PUSH1 0x20 PUSH1 0x0 KECCAK256 PUSH1 0x0 JUMPDEST DUP4 DUP2 LT PUSH3 0x8F4 JUMPI POP POP POP POP PUSH3 0x521 DUP9 MLOAD PUSH3 0xC79 JUMP JUMPDEST DUP1 MLOAD SWAP1 PUSH1 0x1 PUSH1 0x1 PUSH1 0x40 SHL SUB DUP3 GT PUSH3 0x890 JUMPI PUSH9 0x10000000000000000 DUP3 GT PUSH3 0x890 JUMPI PUSH1 0xE SLOAD DUP3 PUSH1 0xE SSTORE DUP1 DUP4 LT PUSH3 0x8BB JUMPI JUMPDEST POP PUSH1 0x20 ADD PUSH1 0xE PUSH1 0x0 MSTORE PUSH1 0x20 PUSH1 0x0 KECCAK256 PUSH1 0x0 JUMPDEST DUP4 DUP2 LT PUSH3 0x8A6 JUMPI POP POP POP POP PUSH3 0x57D DUP10 MLOAD PUSH3 0xC79 JUMP JUMPDEST DUP1 MLOAD SWAP1 PUSH1 0x1 PUSH1 0x1 PUSH1 0x40 SHL SUB DUP3 GT PUSH3 0x890 JUMPI PUSH9 0x10000000000000000 DUP3 GT PUSH3 0x890 JUMPI PUSH1 0xF SLOAD DUP3 PUSH1 0xF SSTORE DUP1 DUP4 LT PUSH3 0x846 JUMPI JUMPDEST POP PUSH1 0x20 ADD PUSH1 0xF PUSH1 0x0 MSTORE PUSH1 0x20 PUSH1 0x0 KECCAK256 PUSH1 0x0 JUMPDEST DUP4 DUP2 LT PUSH3 0x831 JUMPI POP POP POP POP PUSH1 0x0 JUMPDEST DUP11 MLOAD DUP2 LT ISZERO PUSH3 0x821 JUMPI PUSH3 0x5E6 DUP2 DUP13 PUSH3 0xCA6 JUMP JUMPDEST MLOAD PUSH1 0x0 SLOAD DUP3 LT ISZERO PUSH3 0x80B JUMPI PUSH1 0x0 DUP1 MSTORE PUSH1 0x0 DUP1 MLOAD PUSH1 0x20 PUSH3 0x22C1 DUP4 CODECOPY DUP2 MLOAD SWAP2 MSTORE DUP3 ADD SSTORE PUSH3 0x615 DUP2 DUP13 PUSH3 0xCA6 JUMP JUMPDEST MLOAD PUSH1 0x2 SLOAD DUP3 LT ISZERO PUSH3 0x80B JUMPI PUSH1 0x2 PUSH1 0x0 MSTORE PUSH1 0x0 DUP1 MLOAD PUSH1 0x20 PUSH3 0x2261 DUP4 CODECOPY DUP2 MLOAD SWAP2 MSTORE DUP3 ADD SSTORE PUSH3 0x645 DUP2 DUP4 PUSH3 0xCA6 JUMP JUMPDEST MLOAD PUSH1 0x1 SLOAD DUP3 LT ISZERO PUSH3 0x80B JUMPI PUSH1 0x1 PUSH1 0x0 MSTORE PUSH1 0x0 DUP1 MLOAD PUSH1 0x20 PUSH3 0x2341 DUP4 CODECOPY DUP2 MLOAD SWAP2 MSTORE DUP3 ADD SSTORE PUSH3 0x675 DUP2 DUP5 PUSH3 0xCA6 JUMP JUMPDEST MLOAD PUSH1 0x8 SLOAD DUP3 LT ISZERO PUSH3 0x80B JUMPI PUSH1 0x8 PUSH1 0x0 MSTORE PUSH1 0x0 DUP1 MLOAD PUSH1 0x20 PUSH3 0x2301 DUP4 CODECOPY DUP2 MLOAD SWAP2 MSTORE DUP3 ADD SSTORE PUSH3 0x6A5 DUP2 DUP6 PUSH3 0xCA6 JUMP JUMPDEST MLOAD PUSH1 0x9 SLOAD DUP3 LT ISZERO PUSH3 0x80B JUMPI PUSH1 0x9 PUSH1 0x0 MSTORE PUSH1 0x0 DUP1 MLOAD PUSH1 0x20 PUSH3 0x2321 DUP4 CODECOPY DUP2 MLOAD SWAP2 MSTORE DUP3 ADD SSTORE PUSH3 0x6D5 DUP2 DUP7 PUSH3 0xCA6 JUMP JUMPDEST MLOAD PUSH1 0xA SLOAD DUP3 LT ISZERO PUSH3 0x80B JUMPI PUSH1 0xA PUSH1 0x0 MSTORE PUSH1 0x0 DUP1 MLOAD PUSH1 0x20 PUSH3 0x22A1 DUP4 CODECOPY DUP2 MLOAD SWAP2 MSTORE DUP3 ADD SSTORE PUSH3 0x705 DUP2 DUP8 PUSH3 0xCA6 JUMP JUMPDEST MLOAD PUSH1 0xB SLOAD DUP3 LT ISZERO PUSH3 0x80B JUMPI PUSH1 0xB PUSH1 0x0 MSTORE PUSH32 0x175B7A638427703F0DBE7BB9BBF987A2551717B34E79F33B5B1008D1FA01DB9 DUP3 ADD SSTORE PUSH3 0x746 DUP2 DUP9 PUSH3 0xCA6 JUMP JUMPDEST MLOAD PUSH1 0xC SLOAD DUP3 LT ISZERO PUSH3 0x80B JUMPI PUSH1 0xC PUSH1 0x0 MSTORE PUSH32 0xDF6966C971051C3D54EC59162606531493A51404A002842F56009D7E5CF4A8C7 DUP3 ADD SSTORE PUSH3 0x787 DUP2 DUP10 PUSH3 0xCA6 JUMP JUMPDEST MLOAD PUSH1 0xD SLOAD DUP3 LT ISZERO PUSH3 0x80B JUMPI PUSH1 0xD PUSH1 0x0 MSTORE PUSH1 0x0 DUP1 MLOAD PUSH1 0x20 PUSH3 0x22E1 DUP4 CODECOPY DUP2 MLOAD SWAP2 MSTORE DUP3 ADD SSTORE PUSH3 0x7B7 DUP2 DUP11 PUSH3 0xCA6 JUMP JUMPDEST MLOAD PUSH1 0xE SLOAD DUP3 LT ISZERO PUSH3 0x80B JUMPI PUSH1 0xE PUSH1 0x0 MSTORE PUSH1 0x0 DUP1 MLOAD PUSH1 0x20 PUSH3 0x2281 DUP4 CODECOPY DUP2 MLOAD SWAP2 MSTORE DUP3 ADD SSTORE PUSH3 0x7E7 DUP2 DUP12 PUSH3 0xCA6 JUMP JUMPDEST MLOAD SWAP1 PUSH1 0xF SLOAD DUP2 LT ISZERO PUSH3 0x80B JUMPI PUSH1 0x1 SWAP2 PUSH1 0xF PUSH1 0x0 MSTORE DUP2 PUSH1 0x20 PUSH1 0x0 KECCAK256 ADD SSTORE ADD PUSH3 0x5D0 JUMP JUMPDEST PUSH4 0x4E487B71 PUSH1 0xE0 SHL PUSH1 0x0 MSTORE PUSH1 0x32 PUSH1 0x4 MSTORE PUSH1 0x24 PUSH1 0x0 REVERT JUMPDEST PUSH1 0x40 MLOAD PUSH2 0x15A5 SWAP1 DUP2 PUSH3 0xCBC DUP3 CODECOPY RETURN JUMPDEST PUSH1 0x1 SWAP1 PUSH1 0x20 DUP5 MLOAD SWAP5 ADD SWAP4 DUP2 DUP5 ADD SSTORE ADD PUSH3 0x5C1 JUMP JUMPDEST PUSH1 0xF PUSH1 0x0 MSTORE PUSH32 0x8D1108E10BCB7C27DDDFC02ED9D693A074039D026CF4EA4240B40F7D581AC802 SWAP1 DUP4 DUP3 ADD JUMPDEST DUP2 DUP4 ADD DUP2 LT PUSH3 0x883 JUMPI POP POP PUSH3 0x5B0 JUMP JUMPDEST PUSH1 0x0 DUP2 SSTORE PUSH1 0x1 ADD PUSH3 0x871 JUMP JUMPDEST PUSH4 0x4E487B71 PUSH1 0xE0 SHL PUSH1 0x0 MSTORE PUSH1 0x41 PUSH1 0x4 MSTORE PUSH1 0x24 PUSH1 0x0 REVERT JUMPDEST PUSH1 0x1 SWAP1 PUSH1 0x20 DUP5 MLOAD SWAP5 ADD SWAP4 DUP2 DUP5 ADD SSTORE ADD PUSH3 0x565 JUMP JUMPDEST PUSH1 0xE PUSH1 0x0 MSTORE PUSH1 0x0 DUP1 MLOAD PUSH1 0x20 PUSH3 0x2281 DUP4 CODECOPY DUP2 MLOAD SWAP2 MSTORE SWAP1 DUP4 DUP3 ADD JUMPDEST DUP2 DUP4 ADD DUP2 LT PUSH3 0x8E7 JUMPI POP POP PUSH3 0x554 JUMP JUMPDEST PUSH1 0x0 DUP2 SSTORE PUSH1 0x1 ADD PUSH3 0x8D5 JUMP JUMPDEST PUSH1 0x1 SWAP1 PUSH1 0x20 DUP5 MLOAD SWAP5 ADD SWAP4 DUP2 DUP5 ADD SSTORE ADD PUSH3 0x509 JUMP JUMPDEST PUSH1 0xD PUSH1 0x0 MSTORE PUSH1 0x0 DUP1 MLOAD PUSH1 0x20 PUSH3 0x22E1 DUP4 CODECOPY DUP2 MLOAD SWAP2 MSTORE SWAP1 DUP4 DUP3 ADD JUMPDEST DUP2 DUP4 ADD DUP2 LT PUSH3 0x935 JUMPI POP POP PUSH3 0x4F8 JUMP JUMPDEST PUSH1 0x0 DUP2 SSTORE PUSH1 0x1 ADD PUSH3 0x923 JUMP JUMPDEST PUSH1 0x1 SWAP1 PUSH1 0x20 DUP5 MLOAD SWAP5 ADD SWAP4 DUP2 DUP5 ADD SSTORE ADD PUSH3 0x4AD JUMP JUMPDEST PUSH1 0xC PUSH1 0x0 MSTORE PUSH32 0xDF6966C971051C3D54EC59162606531493A51404A002842F56009D7E5CF4A8C7 SWAP1 DUP4 DUP3 ADD JUMPDEST DUP2 DUP4 ADD DUP2 LT PUSH3 0x994 JUMPI POP POP PUSH3 0x49C JUMP JUMPDEST PUSH1 0x0 DUP2 SSTORE PUSH1 0x1 ADD PUSH3 0x982 JUMP JUMPDEST PUSH1 0x1 SWAP1 PUSH1 0x20 DUP5 MLOAD SWAP5 ADD SWAP4 DUP2 DUP5 ADD SSTORE ADD PUSH3 0x451 JUMP JUMPDEST PUSH1 0xB PUSH1 0x0 MSTORE PUSH32 0x175B7A638427703F0DBE7BB9BBF987A2551717B34E79F33B5B1008D1FA01DB9 SWAP1 DUP4 DUP3 ADD JUMPDEST DUP2 DUP4 ADD DUP2 LT PUSH3 0x9F3 JUMPI POP POP PUSH3 0x440 JUMP JUMPDEST PUSH1 0x0 DUP2 SSTORE PUSH1 0x1 ADD PUSH3 0x9E1 JUMP JUMPDEST PUSH1 0x1 SWAP1 PUSH1 0x20 DUP5 MLOAD SWAP5 ADD SWAP4 DUP2 DUP5 ADD SSTORE ADD PUSH3 0x3F5 JUMP JUMPDEST PUSH1 0xA PUSH1 0x0 MSTORE PUSH1 0x0 DUP1 MLOAD PUSH1 0x20 PUSH3 0x22A1 DUP4 CODECOPY DUP2 MLOAD SWAP2 MSTORE SWAP1 DUP4 DUP3 ADD JUMPDEST DUP2 DUP4 ADD DUP2 LT PUSH3 0xA41 JUMPI POP POP PUSH3 0x3E4 JUMP JUMPDEST PUSH1 0x0 DUP2 SSTORE PUSH1 0x1 ADD PUSH3 0xA2F JUMP JUMPDEST PUSH1 0x1 SWAP1 PUSH1 0x20 DUP5 MLOAD SWAP5 ADD SWAP4 DUP2 DUP5 ADD SSTORE ADD PUSH3 0x399 JUMP JUMPDEST PUSH1 0x9 PUSH1 0x0 MSTORE PUSH1 0x0 DUP1 MLOAD PUSH1 0x20 PUSH3 0x2321 DUP4 CODECOPY DUP2 MLOAD SWAP2 MSTORE SWAP1 DUP4 DUP3 ADD JUMPDEST DUP2 DUP4 ADD DUP2 LT PUSH3 0xA8F JUMPI POP POP PUSH3 0x388 JUMP JUMPDEST PUSH1 0x0 DUP2 SSTORE PUSH1 0x1 ADD PUSH3 0xA7D JUMP JUMPDEST PUSH1 0x1 SWAP1 PUSH1 0x20 DUP5 MLOAD SWAP5 ADD SWAP4 DUP2 DUP5 ADD SSTORE ADD PUSH3 0x33D JUMP JUMPDEST PUSH1 0x8 PUSH1 0x0 MSTORE PUSH1 0x0 DUP1 MLOAD PUSH1 0x20 PUSH3 0x2301 DUP4 CODECOPY DUP2 MLOAD SWAP2 MSTORE SWAP1 DUP4 DUP3 ADD JUMPDEST DUP2 DUP4 ADD DUP2 LT PUSH3 0xADD JUMPI POP POP PUSH3 0x32C JUMP JUMPDEST PUSH1 0x0 DUP2 SSTORE PUSH1 0x1 ADD PUSH3 0xACB JUMP JUMPDEST PUSH1 0x1 SWAP1 PUSH1 0x20 DUP5 MLOAD SWAP5 ADD SWAP4 DUP2 DUP5 ADD SSTORE ADD PUSH3 0x2E1 JUMP JUMPDEST PUSH1 0x2 PUSH1 0x0 MSTORE PUSH1 0x0 DUP1 MLOAD PUSH1 0x20 PUSH3 0x2261 DUP4 CODECOPY DUP2 MLOAD SWAP2 MSTORE SWAP1 DUP4 DUP3 ADD JUMPDEST DUP2 DUP4 ADD DUP2 LT PUSH3 0xB2B JUMPI POP POP PUSH3 0x2D0 JUMP JUMPDEST PUSH1 0x0 DUP2 SSTORE PUSH1 0x1 ADD PUSH3 0xB19 JUMP JUMPDEST PUSH1 0x1 SWAP1 PUSH1 0x20 DUP5 MLOAD SWAP5 ADD SWAP4 DUP2 DUP5 ADD SSTORE ADD PUSH3 0x285 JUMP JUMPDEST PUSH1 0x1 PUSH1 0x0 MSTORE PUSH1 0x0 DUP1 MLOAD PUSH1 0x20 PUSH3 0x2341 DUP4 CODECOPY DUP2 MLOAD SWAP2 MSTORE SWAP1 DUP4 DUP3 ADD JUMPDEST DUP2 DUP4 ADD DUP2 LT PUSH3 0xB79 JUMPI POP POP PUSH3 0x274 JUMP JUMPDEST PUSH1 0x0 DUP2 SSTORE PUSH1 0x1 ADD PUSH3 0xB67 JUMP JUMPDEST PUSH1 0x1 SWAP1 PUSH1 0x20 DUP5 MLOAD SWAP5 ADD SWAP4 DUP2 DUP5 ADD SSTORE ADD PUSH3 0x229 JUMP JUMPDEST PUSH1 0x0 DUP1 MSTORE PUSH1 0x0 DUP1 MLOAD PUSH1 0x20 PUSH3 0x22C1 DUP4 CODECOPY DUP2 MLOAD SWAP2 MSTORE SWAP1 DUP2 ADD SWAP1 DUP4 ADD JUMPDEST DUP2 DUP2 LT PUSH3 0xBC5 JUMPI POP PUSH3 0x219 JUMP JUMPDEST PUSH1 0x0 DUP2 SSTORE PUSH1 0x1 ADD PUSH3 0xBB6 JUMP JUMPDEST PUSH1 0x0 DUP1 REVERT JUMPDEST PUSH1 0x40 MLOAD SWAP2 SWAP1 PUSH1 0x1F ADD PUSH1 0x1F NOT AND DUP3 ADD PUSH1 0x1 PUSH1 0x1 PUSH1 0x40 SHL SUB DUP2 GT DUP4 DUP3 LT OR PUSH3 0x890 JUMPI PUSH1 0x40 MSTORE JUMP JUMPDEST PUSH1 0x1 PUSH1 0x1 PUSH1 0x40 SHL SUB DUP2 GT PUSH3 0x890 JUMPI PUSH1 0x5 SHL PUSH1 0x20 ADD SWAP1 JUMP JUMPDEST SWAP1 DUP1 PUSH1 0x1F DUP4 ADD SLT ISZERO PUSH3 0xBD2 JUMPI DUP2 MLOAD SWAP1 PUSH1 0x20 SWAP2 PUSH3 0xC3D PUSH3 0xC37 DUP3 PUSH3 0xBFD JUMP JUMPDEST PUSH3 0xBD7 JUMP JUMPDEST SWAP4 PUSH1 0x20 DUP1 DUP7 DUP5 DUP2 MSTORE ADD SWAP3 PUSH1 0x5 SHL DUP3 ADD ADD SWAP3 DUP4 GT PUSH3 0xBD2 JUMPI PUSH1 0x20 ADD SWAP1 JUMPDEST DUP3 DUP3 LT PUSH3 0xC69 JUMPI POP POP POP POP SWAP1 JUMP JUMPDEST DUP2 MLOAD DUP2 MSTORE SWAP1 DUP4 ADD SWAP1 DUP4 ADD PUSH3 0xC5A JUMP JUMPDEST SWAP1 PUSH3 0xC89 PUSH3 0xC37 DUP4 PUSH3 0xBFD JUMP JUMPDEST DUP3 DUP2 MSTORE DUP1 SWAP3 PUSH3 0xC9C PUSH1 0x1F NOT SWAP2 PUSH3 0xBFD JUMP JUMPDEST ADD SWAP1 PUSH1 0x20 CALLDATASIZE SWAP2 ADD CALLDATACOPY JUMP JUMPDEST DUP1 MLOAD DUP3 LT ISZERO PUSH3 0x80B JUMPI PUSH1 0x20 SWAP2 PUSH1 0x5 SHL ADD ADD SWAP1 JUMP INVALID PUSH1 0x40 PUSH1 0x80 DUP2 MSTORE PUSH1 0x4 SWAP1 DUP2 CALLDATASIZE LT ISZERO PUSH2 0x15 JUMPI PUSH1 0x0 DUP1 REVERT JUMPDEST PUSH1 0x0 SWAP2 DUP3 CALLDATALOAD PUSH1 0xE0 SHR DUP1 PUSH4 0x16B51928 EQ PUSH2 0xC72 JUMPI DUP1 PUSH4 0x205C9CC7 EQ PUSH2 0xC53 JUMPI DUP1 PUSH4 0x364132D9 EQ PUSH2 0xBC7 JUMPI DUP1 PUSH4 0x375A105E EQ PUSH2 0xB9D JUMPI DUP1 PUSH4 0x48E257CB EQ PUSH2 0xB7E JUMPI DUP1 PUSH4 0x4D985AE4 EQ PUSH2 0xB5F JUMPI DUP1 PUSH4 0x4EB274FF EQ PUSH2 0xB12 JUMPI DUP1 PUSH4 0x5F57697C EQ PUSH2 0xAF3 JUMPI DUP1 PUSH4 0x6F240774 EQ PUSH2 0xAC9 JUMPI DUP1 PUSH4 0x7398AB18 EQ PUSH2 0xA0A JUMPI DUP1 PUSH4 0x78B6D7D4 EQ PUSH2 0x9E0 JUMPI DUP1 PUSH4 0x90CCFA0F EQ PUSH2 0x9B7 JUMPI DUP1 PUSH4 0x957B4056 EQ PUSH2 0x98D JUMPI DUP1 PUSH4 0x96D14DA6 EQ PUSH2 0x963 JUMPI DUP1 PUSH4 0x973B9CC1 EQ PUSH2 0x6B2 JUMPI DUP1 PUSH4 0xA86853D5 EQ PUSH2 0x688 JUMPI DUP1 PUSH4 0xAB1BBECA EQ PUSH2 0x65E JUMPI DUP1 PUSH4 0xB6CE6709 EQ PUSH2 0x60E JUMPI DUP1 PUSH4 0xD0C6C7AF EQ PUSH2 0x5F1 JUMPI DUP1 PUSH4 0xE329143F EQ PUSH2 0x5A1 JUMPI DUP1 PUSH4 0xF6451C0A EQ PUSH2 0x150 JUMPI PUSH4 0xF7A95A9E EQ PUSH2 0x113 JUMPI PUSH1 0x0 DUP1 REVERT JUMPDEST CALLVALUE PUSH2 0x14C JUMPI PUSH1 0x20 CALLDATASIZE PUSH1 0x3 NOT ADD SLT PUSH2 0x14C JUMPI CALLDATALOAD SWAP2 DUP1 SLOAD DUP4 LT ISZERO PUSH2 0x149 JUMPI POP PUSH2 0x13B PUSH1 0x20 SWAP3 PUSH2 0xD53 JUMP JUMPDEST SWAP2 SWAP1 SLOAD SWAP1 MLOAD SWAP2 PUSH1 0x3 SHL SHR DUP2 MSTORE RETURN JUMPDEST DUP1 REVERT JUMPDEST DUP3 DUP1 REVERT JUMPDEST POP SWAP2 SWAP1 CALLVALUE PUSH2 0x59D JUMPI DUP2 PUSH1 0x3 NOT CALLDATASIZE ADD SLT PUSH2 0x59D JUMPI PUSH1 0x10 SLOAD DUP2 MLOAD PUSH4 0x2989B4B PUSH1 0xE6 SHL DUP2 MSTORE PUSH1 0x20 SWAP4 SWAP1 SWAP2 PUSH1 0x1 PUSH1 0x1 PUSH1 0xA0 SHL SUB AND DUP5 DUP4 DUP8 DUP2 DUP5 GAS STATICCALL DUP1 ISZERO PUSH2 0x593 JUMPI SWAP1 DUP3 SWAP2 DUP8 SWAP4 SWAP1 PUSH2 0x55F JUMPI JUMPDEST DUP4 SWAP5 POP DUP7 DUP4 SWAP5 SLOAD DUP3 GT PUSH2 0x52D JUMPI JUMPDEST POP POP DUP5 MLOAD PUSH4 0x1E385F69 PUSH1 0xE0 SHL DUP2 MSTORE SWAP4 DUP5 SWAP2 DUP3 SWAP1 GAS STATICCALL SWAP2 DUP3 ISZERO PUSH2 0x521 JUMPI DUP2 SWAP3 PUSH2 0x4FD JUMPI JUMPDEST POP DUP2 MLOAD DUP2 SLOAD SUB PUSH2 0x4C5 JUMPI DUP1 JUMPDEST DUP2 SLOAD DUP2 LT ISZERO PUSH2 0x4C1 JUMPI PUSH2 0x1E7 DUP2 PUSH2 0xD53 JUMP JUMPDEST SWAP1 SLOAD DUP6 MLOAD TIMESTAMP DUP9 DUP3 ADD SWAP1 DUP2 MSTORE PUSH1 0x20 DUP2 ADD DUP6 SWAP1 MSTORE PUSH1 0x3 SWAP4 DUP5 SHL SWAP3 SWAP1 SWAP3 SHR PUSH1 0x40 DUP4 ADD MSTORE DUP1 PUSH1 0x60 DUP4 ADD SUB SWAP1 PUSH2 0x220 PUSH1 0x1F NOT SWAP3 DUP4 DUP2 ADD DUP4 MSTORE DUP3 PUSH2 0xE79 JUMP JUMPDEST PUSH1 0x64 SWAP3 DUP4 SWAP2 MLOAD SWAP1 KECCAK256 MOD PUSH1 0x1 SWAP2 DUP3 DUP7 ADD DUP1 DUP8 GT PUSH2 0x4AE JUMPI DUP10 PUSH2 0x2BA PUSH2 0x2C6 DUP14 SWAP6 SWAP5 DUP9 PUSH1 0x65 SWAP6 PUSH2 0x27A PUSH2 0x286 DUP14 DUP16 PUSH2 0x255 SWAP1 PUSH2 0xD1C JUMP JUMPDEST SWAP1 SLOAD SWAP2 SHL SHR DUP9 MLOAD SWAP3 DUP4 SWAP2 DUP14 DUP4 ADD SWAP6 TIMESTAMP DUP8 SWAP2 PUSH1 0x60 SWAP4 SWAP2 DUP4 MSTORE PUSH1 0x20 DUP4 ADD MSTORE PUSH1 0x40 DUP3 ADD MSTORE ADD SWAP1 JUMP JUMPDEST SUB DUP6 DUP2 ADD DUP4 MSTORE DUP3 PUSH2 0xE79 JUMP JUMPDEST MLOAD SWAP1 KECCAK256 MOD SWAP7 PUSH2 0x294 DUP13 PUSH2 0xD1C JUMP JUMPDEST SWAP1 SLOAD SWAP1 DUP13 SHL SHR SWAP5 MLOAD SWAP4 DUP5 SWAP2 DUP3 ADD SWAP6 DUP14 TIMESTAMP DUP9 SWAP2 PUSH1 0x60 SWAP4 SWAP2 DUP4 MSTORE PUSH1 0x20 DUP4 ADD MSTORE PUSH1 0x40 DUP3 ADD MSTORE ADD SWAP1 JUMP JUMPDEST SUB SWAP1 DUP2 ADD DUP4 MSTORE DUP3 PUSH2 0xE79 JUMP JUMPDEST MLOAD SWAP1 KECCAK256 SMOD SWAP3 PUSH1 0x31 NOT DUP5 ADD SWAP4 DUP5 SGT AND PUSH2 0x499 JUMPI PUSH2 0x3AD SWAP3 PUSH2 0x385 DUP6 SWAP4 DUP5 PUSH2 0x375 DUP10 PUSH2 0x370 PUSH2 0x37C DUP16 SWAP9 DUP4 SWAP13 PUSH1 0x1 SWAP16 SWAP15 DUP16 SWAP12 PUSH2 0x370 PUSH2 0x367 DUP15 PUSH2 0x38A SWAP16 PUSH2 0x339 DUP2 PUSH2 0x333 PUSH2 0x375 SWAP9 PUSH2 0x318 PUSH2 0x34F SWAP6 PUSH2 0xE0B JUMP JUMPDEST SWAP1 SLOAD SWAP1 DUP3 SHL SHR SWAP1 PUSH2 0x328 DUP5 PUSH2 0xD53 JUMP JUMPDEST SWAP1 SLOAD SWAP2 SHL SHR SWAP1 PUSH2 0xFC9 JUMP JUMPDEST SWAP7 PUSH2 0xF48 JUMP JUMPDEST MLOAD PUSH2 0x343 DUP4 PUSH2 0xD53 JUMP JUMPDEST SWAP1 SLOAD SWAP1 DUP14 SHL SHR SWAP1 PUSH2 0xFC9 JUMP JUMPDEST SWAP10 PUSH2 0x35C PUSH1 0x5 SLOAD SWAP3 PUSH2 0xD1C JUMP JUMPDEST SWAP1 SLOAD SWAP2 SHL SHR SWAP1 PUSH2 0xF95 JUMP JUMPDEST SWAP5 PUSH1 0x6 SLOAD PUSH2 0xF95 JUMP JUMPDEST PUSH2 0xF95 JUMP JUMPDEST SDIV SWAP1 PUSH2 0xFEF JUMP JUMPDEST SWAP5 PUSH1 0x7 SLOAD PUSH2 0xF95 JUMP JUMPDEST PUSH2 0xFEF JUMP JUMPDEST SDIV PUSH2 0x394 DUP5 PUSH2 0xD1C JUMP JUMPDEST SWAP1 SWAP2 SWAP1 DUP3 SLOAD SWAP1 PUSH1 0x3 SHL SWAP2 DUP3 SHL SWAP2 PUSH1 0x0 NOT SWAP1 SHL NOT AND OR SWAP1 SSTORE JUMP JUMPDEST PUSH2 0x3E0 PUSH2 0x3D7 PUSH2 0x3BC DUP5 PUSH2 0xD53 JUMP JUMPDEST SWAP1 SLOAD SWAP1 DUP5 SHL SHR PUSH2 0x3CB DUP6 PUSH2 0xD1C JUMP JUMPDEST SWAP1 SLOAD SWAP1 DUP6 SHL SHR SWAP1 PUSH2 0xFEF JUMP JUMPDEST PUSH2 0x394 DUP5 PUSH2 0xD53 JUMP JUMPDEST PUSH2 0x40F PUSH2 0x3EC DUP4 PUSH2 0xE0B JUMP JUMPDEST SWAP1 SLOAD SWAP1 DUP4 SHL SHR PUSH2 0x409 PUSH2 0x3FE DUP6 PUSH2 0xCE5 JUMP JUMPDEST SWAP1 SLOAD SWAP1 DUP6 SHL SHR PUSH2 0xF7F JUMP JUMPDEST SWAP1 PUSH2 0xFC9 JUMP JUMPDEST PUSH2 0x43E PUSH2 0x41B DUP5 PUSH2 0xE0B JUMP JUMPDEST SWAP1 SLOAD SWAP1 DUP5 SHL SHR PUSH2 0x438 PUSH2 0x42D DUP7 PUSH2 0xD9D JUMP JUMPDEST SWAP1 SLOAD SWAP1 DUP7 SHL SHR PUSH2 0xF7F JUMP JUMPDEST SWAP1 PUSH2 0xFEF JUMP JUMPDEST SWAP2 DUP2 DUP4 SWAP3 PUSH2 0x44B DUP7 PUSH2 0xD53 JUMP JUMPDEST SWAP1 SLOAD SWAP1 DUP5 SHL SHR SLT PUSH2 0x486 JUMPI JUMPDEST POP PUSH2 0x461 DUP5 PUSH2 0xD53 JUMP JUMPDEST SWAP1 SLOAD SWAP2 SHL SHR SGT PUSH2 0x473 JUMPI JUMPDEST POP ADD PUSH2 0x1D5 JUMP JUMPDEST PUSH2 0x480 SWAP1 PUSH2 0x394 DUP4 PUSH2 0xD53 JUMP JUMPDEST CODESIZE PUSH2 0x46C JUMP JUMPDEST PUSH2 0x493 SWAP1 PUSH2 0x394 DUP7 PUSH2 0xD53 JUMP JUMPDEST CODESIZE PUSH2 0x457 JUMP JUMPDEST PUSH1 0x11 DUP12 PUSH4 0x4E487B71 PUSH1 0xE0 SHL PUSH1 0x0 MSTORE MSTORE PUSH1 0x24 PUSH1 0x0 REVERT JUMPDEST PUSH4 0x4E487B71 PUSH1 0xE0 SHL DUP9 MSTORE PUSH1 0x11 DUP13 MSTORE PUSH1 0x24 DUP9 REVERT JUMPDEST POP DUP1 RETURN JUMPDEST DUP3 MLOAD PUSH3 0x461BCD PUSH1 0xE5 SHL DUP2 MSTORE DUP1 DUP7 ADD DUP6 SWAP1 MSTORE PUSH1 0x12 PUSH1 0x24 DUP3 ADD MSTORE PUSH18 0x44696D656E7369756E6920696E6567616C65 PUSH1 0x70 SHL PUSH1 0x44 DUP3 ADD MSTORE PUSH1 0x64 SWAP1 REVERT JUMPDEST PUSH2 0x51A SWAP2 SWAP3 POP RETURNDATASIZE DUP1 DUP5 DUP4 RETURNDATACOPY PUSH2 0x512 DUP2 DUP4 PUSH2 0xE79 JUMP JUMPDEST DUP2 ADD SWAP1 PUSH2 0xEC9 JUMP JUMPDEST SWAP1 CODESIZE PUSH2 0x1C9 JUMP JUMPDEST POP DUP3 MLOAD SWAP1 RETURNDATASIZE SWAP1 DUP3 RETURNDATACOPY RETURNDATASIZE SWAP1 REVERT JUMPDEST DUP2 PUSH32 0xC06999D659D5132DD93A1915097DA1A6A24201916389E38DA2404E4BCA5E59BE SWAP3 DUP8 SSTORE DUP8 MLOAD SWAP1 DUP2 MSTORE LOG1 CODESIZE DUP7 PUSH2 0x1A6 JUMP JUMPDEST POP SWAP2 POP SWAP2 DUP5 DUP2 DUP2 RETURNDATASIZE DUP4 GT PUSH2 0x58C JUMPI JUMPDEST PUSH2 0x578 DUP2 DUP4 PUSH2 0xE79 JUMP JUMPDEST DUP2 ADD SUB SLT PUSH2 0x14C JUMPI MLOAD DUP6 SWAP3 DUP4 SWAP3 SWAP1 SWAP2 PUSH2 0x198 JUMP JUMPDEST POP RETURNDATASIZE PUSH2 0x56E JUMP JUMPDEST DUP5 MLOAD RETURNDATASIZE DUP5 DUP3 RETURNDATACOPY RETURNDATASIZE SWAP1 REVERT JUMPDEST POP DUP1 REVERT JUMPDEST POP CALLVALUE PUSH2 0x14C JUMPI PUSH1 0x20 CALLDATASIZE PUSH1 0x3 NOT ADD SLT PUSH2 0x14C JUMPI CALLDATALOAD PUSH1 0xD SLOAD DUP2 LT ISZERO PUSH2 0x14C JUMPI PUSH1 0x20 SWAP3 POP PUSH1 0xD PUSH1 0x0 MSTORE PUSH32 0xD7B6990105719101DABEB77144F2A3385C8033ACD3AF97E9423A695E81AD1EB5 ADD SLOAD SWAP1 MLOAD SWAP1 DUP2 MSTORE RETURN JUMPDEST POP CALLVALUE PUSH2 0x14C JUMPI DUP3 PUSH1 0x3 NOT CALLDATASIZE ADD SLT PUSH2 0x14C JUMPI PUSH1 0x20 SWAP3 POP SLOAD SWAP1 MLOAD SWAP1 DUP2 MSTORE RETURN JUMPDEST POP CALLVALUE PUSH2 0x14C JUMPI PUSH1 0x20 CALLDATASIZE PUSH1 0x3 NOT ADD SLT PUSH2 0x14C JUMPI CALLDATALOAD PUSH1 0xB SLOAD DUP2 LT ISZERO PUSH2 0x14C JUMPI PUSH1 0x20 SWAP3 POP PUSH1 0xB PUSH1 0x0 MSTORE PUSH32 0x175B7A638427703F0DBE7BB9BBF987A2551717B34E79F33B5B1008D1FA01DB9 ADD SLOAD SWAP1 MLOAD SWAP1 DUP2 MSTORE RETURN JUMPDEST POP CALLVALUE PUSH2 0x14C JUMPI PUSH1 0x20 CALLDATASIZE PUSH1 0x3 NOT ADD SLT PUSH2 0x14C JUMPI CALLDATALOAD SWAP2 PUSH1 0x9 SLOAD DUP4 LT ISZERO PUSH2 0x149 JUMPI POP PUSH2 0x13B PUSH1 0x20 SWAP3 PUSH2 0xE42 JUMP JUMPDEST POP CALLVALUE PUSH2 0x14C JUMPI PUSH1 0x20 CALLDATASIZE PUSH1 0x3 NOT ADD SLT PUSH2 0x14C JUMPI CALLDATALOAD SWAP2 PUSH1 0x2 SLOAD DUP4 LT ISZERO PUSH2 0x149 JUMPI POP PUSH2 0x13B PUSH1 0x20 SWAP3 PUSH2 0xE0B JUMP JUMPDEST POP SWAP1 CALLVALUE PUSH2 0x14C JUMPI PUSH1 0x3 NOT SWAP2 DUP4 DUP4 CALLDATASIZE ADD SLT PUSH2 0x95F JUMPI PUSH2 0x6E4 DUP3 MLOAD PUSH2 0x6DF DUP2 PUSH2 0x6D8 DUP2 PUSH2 0x1516 JUMP JUMPDEST SUB DUP3 PUSH2 0xE79 JUMP JUMPDEST PUSH2 0x100B JUMP JUMPDEST PUSH1 0x3 SWAP1 PUSH1 0x3 SLOAD DUP2 SLT PUSH2 0x83B JUMPI JUMPDEST PUSH1 0xE SLOAD SWAP1 PUSH2 0x6FE DUP3 PUSH2 0xEB1 JUMP JUMPDEST SWAP3 PUSH2 0x70B DUP7 MLOAD SWAP5 DUP6 PUSH2 0xE79 JUMP JUMPDEST DUP3 DUP5 MSTORE PUSH2 0x717 DUP4 PUSH2 0xEB1 JUMP JUMPDEST SWAP3 PUSH1 0x20 SWAP2 PUSH1 0x20 DUP7 ADD SWAP5 PUSH1 0x1F NOT ADD CALLDATASIZE DUP7 CALLDATACOPY DUP10 JUMPDEST DUP3 DUP2 LT PUSH2 0x7FE JUMPI POP POP PUSH1 0x10 SLOAD PUSH1 0x1 PUSH1 0x1 PUSH1 0xA0 SHL SUB AND SWAP5 SWAP1 POP DUP5 EXTCODESIZE ISZERO PUSH2 0x7FA JUMPI SWAP7 SWAP3 SWAP1 DUP9 SWAP5 SWAP3 PUSH1 0x20 DUP9 MLOAD SWAP10 DUP11 SWAP7 PUSH4 0x2FC0395F PUSH1 0xE0 SHL DUP9 MSTORE PUSH1 0x60 DUP11 DUP10 ADD MSTORE PUSH2 0x771 PUSH1 0x64 DUP10 ADD PUSH2 0x1516 JUMP JUMPDEST SWAP4 PUSH1 0x24 DUP10 ADD MSTORE DUP8 DUP5 SUB ADD PUSH1 0x44 DUP9 ADD MSTORE MLOAD SWAP2 DUP3 DUP2 MSTORE ADD SWAP3 SWAP2 DUP7 JUMPDEST DUP3 DUP2 LT PUSH2 0x7E0 JUMPI POP POP POP POP DUP4 DUP4 DUP1 SWAP3 SUB SWAP3 GAS CALL DUP1 ISZERO PUSH2 0x7D6 JUMPI PUSH2 0x7AB JUMPI DUP4 DUP1 RETURN JUMPDEST PUSH8 0xFFFFFFFFFFFFFFFF DUP4 GT PUSH2 0x7C3 JUMPI POP MSTORE CODESIZE DUP1 DUP1 DUP4 DUP1 RETURN JUMPDEST PUSH4 0x4E487B71 PUSH1 0xE0 SHL DUP5 MSTORE PUSH1 0x41 SWAP1 MSTORE PUSH1 0x24 DUP4 REVERT JUMPDEST DUP3 MLOAD RETURNDATASIZE DUP7 DUP3 RETURNDATACOPY RETURNDATASIZE SWAP1 REVERT JUMPDEST DUP4 MLOAD DUP6 MSTORE DUP12 SWAP8 POP DUP11 SWAP7 POP SWAP4 DUP2 ADD SWAP4 SWAP3 DUP2 ADD SWAP3 PUSH1 0x1 ADD PUSH2 0x78A JUMP JUMPDEST DUP9 DUP1 REVERT JUMPDEST DUP1 PUSH2 0x828 PUSH2 0x80D PUSH1 0x1 SWAP4 PUSH2 0xD9D JUMP JUMPDEST SWAP1 SLOAD SWAP1 DUP6 SHL SHR PUSH2 0x81C DUP4 PUSH2 0xCE5 JUMP JUMPDEST SWAP1 SLOAD SWAP1 DUP7 SHL SHR SWAP1 PUSH2 0xFE2 JUMP JUMPDEST DUP3 SHR PUSH2 0x834 DUP3 DUP11 PUSH2 0xF48 JUMP JUMPDEST MSTORE ADD PUSH2 0x729 JUMP JUMPDEST DUP1 PUSH1 0x3 SSTORE DUP6 SLOAD PUSH8 0xFFFFFFFFFFFFFFFF DUP2 GT PUSH2 0x94C JUMPI PUSH9 0x10000000000000000 DUP2 GT PUSH2 0x94C JUMPI PUSH1 0x2 SLOAD DUP2 PUSH1 0x2 SSTORE DUP1 DUP3 LT PUSH2 0x90C JUMPI JUMPDEST POP PUSH32 0x290DECD9548B62A8D60345A988386FC84BA6BC95484008F6362F93160EF3E563 PUSH1 0x2 DUP9 MSTORE DUP1 SLOAD SWAP1 DUP9 SWAP2 JUMPDEST DUP4 DUP4 LT PUSH2 0x8D6 JUMPI POP POP POP POP DUP4 MLOAD DUP2 DUP2 MSTORE PUSH32 0x409D103F7876158F293A85EE39F235CE0C309AB1ACA81024A51DFB4B471E556E PUSH1 0x20 ADDRESS SWAP3 LOG2 PUSH2 0x6F1 JUMP JUMPDEST PUSH1 0x1 DUP1 SWAP2 SWAP3 ADD SWAP3 DUP4 SLOAD SWAP3 DUP2 PUSH32 0x405787FA12A823E0F2B7631CC41B3BA8828B3321CA811111FA75CD3AA3BB5ACE ADD SSTORE ADD SWAP2 SWAP1 PUSH2 0x89B JUMP JUMPDEST DUP2 PUSH32 0x405787FA12A823E0F2B7631CC41B3BA8828B3321CA811111FA75CD3AA3BB5ACE SWAP2 DUP3 ADD SWAP2 ADD JUMPDEST DUP2 DUP2 LT PUSH2 0x941 JUMPI POP PUSH2 0x86F JUMP JUMPDEST DUP9 DUP2 SSTORE PUSH1 0x1 ADD PUSH2 0x934 JUMP JUMPDEST PUSH4 0x4E487B71 PUSH1 0xE0 SHL DUP8 MSTORE PUSH1 0x41 DUP5 MSTORE PUSH1 0x24 DUP8 REVERT JUMPDEST DUP4 DUP1 REVERT JUMPDEST POP CALLVALUE PUSH2 0x14C JUMPI PUSH1 0x20 CALLDATASIZE PUSH1 0x3 NOT ADD SLT PUSH2 0x14C JUMPI CALLDATALOAD SWAP2 PUSH1 0xA SLOAD DUP4 LT ISZERO PUSH2 0x149 JUMPI POP PUSH2 0x13B PUSH1 0x20 SWAP3 PUSH2 0xDD4 JUMP JUMPDEST POP SWAP2 CALLVALUE PUSH2 0x149 JUMPI DUP2 PUSH1 0x3 NOT CALLDATASIZE ADD SLT PUSH2 0x149 JUMPI POP PUSH2 0x9B0 PUSH1 0x20 SWAP3 PUSH1 0x24 CALLDATALOAD SWAP1 CALLDATALOAD PUSH2 0x14B2 JUMP JUMPDEST SWAP1 MLOAD SWAP1 DUP2 MSTORE RETURN JUMPDEST POP POP CALLVALUE PUSH2 0x59D JUMPI DUP2 PUSH1 0x3 NOT CALLDATASIZE ADD SLT PUSH2 0x59D JUMPI PUSH1 0x10 SLOAD SWAP1 MLOAD PUSH1 0x1 PUSH1 0x1 PUSH1 0xA0 SHL SUB SWAP1 SWAP2 AND DUP2 MSTORE PUSH1 0x20 SWAP1 RETURN JUMPDEST POP CALLVALUE PUSH2 0x14C JUMPI PUSH1 0x20 CALLDATASIZE PUSH1 0x3 NOT ADD SLT PUSH2 0x14C JUMPI CALLDATALOAD SWAP2 PUSH1 0xE SLOAD DUP4 LT ISZERO PUSH2 0x149 JUMPI POP PUSH2 0x13B PUSH1 0x20 SWAP3 PUSH2 0xD9D JUMP JUMPDEST DUP3 DUP5 CALLVALUE PUSH2 0x149 JUMPI DUP1 PUSH1 0x3 NOT CALLDATASIZE ADD SLT PUSH2 0x149 JUMPI SWAP1 DUP2 SLOAD SWAP2 PUSH2 0xA29 DUP4 PUSH2 0xEB1 JUMP JUMPDEST SWAP1 PUSH2 0xA36 DUP4 MLOAD SWAP3 DUP4 PUSH2 0xE79 JUMP JUMPDEST DUP4 DUP3 MSTORE PUSH2 0xA42 DUP5 PUSH2 0xEB1 JUMP JUMPDEST PUSH1 0x20 SWAP5 DUP6 DUP5 ADD SWAP4 SWAP2 PUSH1 0x1F NOT ADD CALLDATASIZE DUP6 CALLDATACOPY DUP3 JUMPDEST DUP2 DUP2 LT PUSH2 0xA99 JUMPI POP POP DUP4 MLOAD SWAP5 DUP6 SWAP5 PUSH1 0x20 DUP7 ADD SWAP3 PUSH1 0x20 DUP8 MSTORE MLOAD DUP1 SWAP4 MSTORE DUP6 ADD SWAP4 SWAP3 JUMPDEST DUP3 DUP2 LT PUSH2 0xA82 JUMPI POP POP POP POP SUB SWAP1 RETURN JUMPDEST DUP4 MLOAD DUP6 MSTORE DUP7 SWAP6 POP SWAP4 DUP2 ADD SWAP4 SWAP3 DUP2 ADD SWAP3 PUSH1 0x1 ADD PUSH2 0xA73 JUMP JUMPDEST DUP1 PUSH2 0xAAB PUSH1 0x1 SWAP3 SWAP9 SWAP6 SWAP5 SWAP7 SWAP8 SWAP9 PUSH2 0xD53 JUMP JUMPDEST SWAP1 SLOAD SWAP1 PUSH1 0x3 SHL SHR PUSH2 0xABC DUP3 DUP9 PUSH2 0xF48 JUMP JUMPDEST MSTORE ADD SWAP6 SWAP5 SWAP4 SWAP2 SWAP3 SWAP6 PUSH2 0xA53 JUMP JUMPDEST POP CALLVALUE PUSH2 0x14C JUMPI PUSH1 0x20 CALLDATASIZE PUSH1 0x3 NOT ADD SLT PUSH2 0x14C JUMPI CALLDATALOAD SWAP2 PUSH1 0x1 SLOAD DUP4 LT ISZERO PUSH2 0x149 JUMPI POP PUSH2 0x13B PUSH1 0x20 SWAP3 PUSH2 0xD1C JUMP JUMPDEST POP POP CALLVALUE PUSH2 0x59D JUMPI DUP2 PUSH1 0x3 NOT CALLDATASIZE ADD SLT PUSH2 0x59D JUMPI PUSH1 0x20 SWAP1 PUSH1 0x6 SLOAD SWAP1 MLOAD SWAP1 DUP2 MSTORE RETURN JUMPDEST POP CALLVALUE PUSH2 0x14C JUMPI PUSH1 0x20 CALLDATASIZE PUSH1 0x3 NOT ADD SLT PUSH2 0x14C JUMPI CALLDATALOAD PUSH1 0xC SLOAD DUP2 LT ISZERO PUSH2 0x14C JUMPI PUSH1 0xC PUSH1 0x20 SWAP4 MSTORE PUSH32 0xDF6966C971051C3D54EC59162606531493A51404A002842F56009D7E5CF4A8C7 ADD SLOAD SWAP1 MLOAD SWAP1 DUP2 MSTORE RETURN JUMPDEST POP POP CALLVALUE PUSH2 0x59D JUMPI DUP2 PUSH1 0x3 NOT CALLDATASIZE ADD SLT PUSH2 0x59D JUMPI PUSH1 0x20 SWAP1 PUSH1 0x3 SLOAD SWAP1 MLOAD SWAP1 DUP2 MSTORE RETURN JUMPDEST POP POP CALLVALUE PUSH2 0x59D JUMPI DUP2 PUSH1 0x3 NOT CALLDATASIZE ADD SLT PUSH2 0x59D JUMPI PUSH1 0x20 SWAP1 PUSH1 0x7 SLOAD SWAP1 MLOAD SWAP1 DUP2 MSTORE RETURN JUMPDEST POP CALLVALUE PUSH2 0x14C JUMPI PUSH1 0x20 CALLDATASIZE PUSH1 0x3 NOT ADD SLT PUSH2 0x14C JUMPI CALLDATALOAD SWAP2 PUSH1 0xF SLOAD DUP4 LT ISZERO PUSH2 0x149 JUMPI POP PUSH2 0x13B PUSH1 0x20 SWAP3 PUSH2 0xCE5 JUMP JUMPDEST POP SWAP2 CALLVALUE PUSH2 0x149 JUMPI PUSH1 0x20 SWAP1 PUSH1 0x20 PUSH1 0x3 NOT CALLDATASIZE ADD SLT PUSH2 0x149 JUMPI DUP4 CALLDATALOAD SWAP4 PUSH8 0xFFFFFFFFFFFFFFFF DUP6 GT PUSH2 0x59D JUMPI CALLDATASIZE PUSH1 0x23 DUP7 ADD SLT ISZERO PUSH2 0x59D JUMPI DUP5 ADD CALLDATALOAD PUSH2 0xC06 DUP2 PUSH2 0xEB1 JUMP JUMPDEST SWAP5 PUSH2 0xC13 DUP6 MLOAD SWAP7 DUP8 PUSH2 0xE79 JUMP JUMPDEST DUP2 DUP7 MSTORE PUSH1 0x24 PUSH1 0x20 DUP8 ADD SWAP3 PUSH1 0x5 SHL DUP3 ADD ADD SWAP3 CALLDATASIZE DUP5 GT PUSH2 0x149 JUMPI POP PUSH1 0x24 ADD SWAP1 JUMPDEST DUP3 DUP3 LT PUSH2 0xC44 JUMPI PUSH1 0x20 DUP6 PUSH2 0x9B0 DUP9 PUSH2 0x100B JUMP JUMPDEST DUP2 CALLDATALOAD DUP2 MSTORE SWAP1 DUP4 ADD SWAP1 DUP4 ADD PUSH2 0xC31 JUMP JUMPDEST POP POP CALLVALUE PUSH2 0x59D JUMPI DUP2 PUSH1 0x3 NOT CALLDATASIZE ADD SLT PUSH2 0x59D JUMPI PUSH1 0x20 SWAP1 PUSH1 0x5 SLOAD SWAP1 MLOAD SWAP1 DUP2 MSTORE RETURN JUMPDEST POP CALLVALUE PUSH2 0x14C JUMPI PUSH1 0x20 CALLDATASIZE PUSH1 0x3 NOT ADD SLT PUSH2 0x14C JUMPI CALLDATALOAD SWAP2 PUSH1 0x8 SLOAD DUP4 LT ISZERO PUSH2 0x149 JUMPI POP PUSH2 0x13B PUSH1 0x20 SWAP3 JUMPDEST PUSH1 0x8 SLOAD DUP2 LT ISZERO PUSH2 0xCCF JUMPI PUSH1 0x8 PUSH1 0x0 MSTORE PUSH32 0xF3F7A9FE364FAAB93B216DA50A3214154F22A0A2B415B23A84C8169E8B636EE3 ADD SWAP1 PUSH1 0x0 SWAP1 JUMP JUMPDEST PUSH4 0x4E487B71 PUSH1 0xE0 SHL PUSH1 0x0 MSTORE PUSH1 0x32 PUSH1 0x4 MSTORE PUSH1 0x24 PUSH1 0x0 REVERT JUMPDEST PUSH1 0xF SLOAD DUP2 LT ISZERO PUSH2 0xCCF JUMPI PUSH1 0xF PUSH1 0x0 MSTORE PUSH32 0x8D1108E10BCB7C27DDDFC02ED9D693A074039D026CF4EA4240B40F7D581AC802 ADD SWAP1 PUSH1 0x0 SWAP1 JUMP JUMPDEST PUSH1 0x1 SLOAD DUP2 LT ISZERO PUSH2 0xCCF JUMPI PUSH1 0x1 PUSH1 0x0 MSTORE PUSH32 0xB10E2D527612073B26EECDFD717E6A320CF44B4AFAC2B0732D9FCBE2B7FA0CF6 ADD SWAP1 PUSH1 0x0 SWAP1 JUMP JUMPDEST SWAP1 PUSH1 0x0 SWAP2 DUP3 SLOAD DUP2 LT ISZERO PUSH2 0xD89 JUMPI DUP3 DUP1 MSTORE PUSH32 0x290DECD9548B62A8D60345A988386FC84BA6BC95484008F6362F93160EF3E563 ADD SWAP2 SWAP1 JUMP JUMPDEST PUSH4 0x4E487B71 PUSH1 0xE0 SHL DUP4 MSTORE PUSH1 0x32 PUSH1 0x4 MSTORE PUSH1 0x24 DUP4 REVERT JUMPDEST PUSH1 0xE SLOAD DUP2 LT ISZERO PUSH2 0xCCF JUMPI PUSH1 0xE PUSH1 0x0 MSTORE PUSH32 0xBB7B4A454DC3493923482F07822329ED19E8244EFF582CC204F8554C3620C3FD ADD SWAP1 PUSH1 0x0 SWAP1 JUMP JUMPDEST PUSH1 0xA SLOAD DUP2 LT ISZERO PUSH2 0xCCF JUMPI PUSH1 0xA PUSH1 0x0 MSTORE PUSH32 0xC65A7BB8D6351C1CF70C95A316CC6A92839C986682D98BC35F958F4883F9D2A8 ADD SWAP1 PUSH1 0x0 SWAP1 JUMP JUMPDEST PUSH1 0x2 SLOAD DUP2 LT ISZERO PUSH2 0xCCF JUMPI PUSH1 0x2 PUSH1 0x0 MSTORE PUSH32 0x405787FA12A823E0F2B7631CC41B3BA8828B3321CA811111FA75CD3AA3BB5ACE ADD SWAP1 PUSH1 0x0 SWAP1 JUMP JUMPDEST PUSH1 0x9 SLOAD DUP2 LT ISZERO PUSH2 0xCCF JUMPI PUSH1 0x9 PUSH1 0x0 MSTORE PUSH32 0x6E1540171B6C0C960B71A7020D9F60077F6AF931A8BBF590DA0223DACF75C7AF ADD SWAP1 PUSH1 0x0 SWAP1 JUMP JUMPDEST SWAP1 PUSH1 0x1F DUP1 NOT SWAP2 ADD AND DUP2 ADD SWAP1 DUP2 LT PUSH8 0xFFFFFFFFFFFFFFFF DUP3 GT OR PUSH2 0xE9B JUMPI PUSH1 0x40 MSTORE JUMP JUMPDEST PUSH4 0x4E487B71 PUSH1 0xE0 SHL PUSH1 0x0 MSTORE PUSH1 0x41 PUSH1 0x4 MSTORE PUSH1 0x24 PUSH1 0x0 REVERT JUMPDEST PUSH8 0xFFFFFFFFFFFFFFFF DUP2 GT PUSH2 0xE9B JUMPI PUSH1 0x5 SHL PUSH1 0x20 ADD SWAP1 JUMP JUMPDEST PUSH1 0x20 SWAP1 DUP2 DUP2 DUP5 SUB SLT PUSH2 0xF43 JUMPI DUP1 MLOAD SWAP1 PUSH8 0xFFFFFFFFFFFFFFFF DUP3 GT PUSH2 0xF43 JUMPI ADD SWAP2 DUP1 PUSH1 0x1F DUP5 ADD SLT ISZERO PUSH2 0xF43 JUMPI DUP3 MLOAD PUSH2 0xEFF DUP2 PUSH2 0xEB1 JUMP JUMPDEST SWAP4 PUSH2 0xF0D PUSH1 0x40 MLOAD SWAP6 DUP7 PUSH2 0xE79 JUMP JUMPDEST DUP2 DUP6 MSTORE DUP4 DUP1 DUP7 ADD SWAP3 PUSH1 0x5 SHL DUP3 ADD ADD SWAP3 DUP4 GT PUSH2 0xF43 JUMPI DUP4 ADD SWAP1 JUMPDEST DUP3 DUP3 LT PUSH2 0xF34 JUMPI POP POP POP POP SWAP1 JUMP JUMPDEST DUP2 MLOAD DUP2 MSTORE SWAP1 DUP4 ADD SWAP1 DUP4 ADD PUSH2 0xF26 JUMP JUMPDEST PUSH1 0x0 DUP1 REVERT JUMPDEST DUP1 MLOAD DUP3 LT ISZERO PUSH2 0xCCF JUMPI PUSH1 0x20 SWAP2 PUSH1 0x5 SHL ADD ADD SWAP1 JUMP JUMPDEST SWAP2 SWAP1 DUP3 SUB SWAP2 DUP3 GT PUSH2 0xF69 JUMPI JUMP JUMPDEST PUSH4 0x4E487B71 PUSH1 0xE0 SHL PUSH1 0x0 MSTORE PUSH1 0x11 PUSH1 0x4 MSTORE PUSH1 0x24 PUSH1 0x0 REVERT JUMPDEST SWAP1 DUP2 PUSH1 0x1 SHL SWAP2 DUP1 DUP4 SDIV PUSH1 0x2 EQ SWAP1 ISZERO OR ISZERO PUSH2 0xF69 JUMPI JUMP JUMPDEST DUP2 DUP2 MUL SWAP3 SWAP2 PUSH1 0x0 DUP3 SLT PUSH1 0x1 PUSH1 0xFF SHL DUP3 EQ AND PUSH2 0xF69 JUMPI DUP2 DUP5 SDIV EQ SWAP1 ISZERO OR ISZERO PUSH2 0xF69 JUMPI JUMP JUMPDEST PUSH1 0x1 PUSH1 0xFF SHL DUP2 EQ PUSH2 0xF69 JUMPI PUSH1 0x0 SUB SWAP1 JUMP JUMPDEST DUP2 DUP2 SUB SWAP3 SWAP2 PUSH1 0x0 SGT DUP1 ISZERO DUP3 DUP6 SGT AND SWAP2 DUP5 SLT AND OR PUSH2 0xF69 JUMPI JUMP JUMPDEST SWAP2 SWAP1 DUP3 ADD DUP1 SWAP3 GT PUSH2 0xF69 JUMPI JUMP JUMPDEST SWAP2 SWAP1 SWAP2 PUSH1 0x0 DUP4 DUP3 ADD SWAP4 DUP5 SLT SWAP2 SLT SWAP1 DUP1 ISZERO DUP3 AND SWAP2 ISZERO AND OR PUSH2 0xF69 JUMPI JUMP JUMPDEST PUSH1 0x0 SWAP1 DUP1 MLOAD PUSH1 0x40 MLOAD DUP1 PUSH1 0xA DUP1 SLOAD DUP1 DUP4 MSTORE DUP4 PUSH1 0x20 DUP1 SWAP5 ADD PUSH1 0xA DUP10 MSTORE PUSH32 0xC65A7BB8D6351C1CF70C95A316CC6A92839C986682D98BC35F958F4883F9D2A8 SWAP3 DUP10 JUMPDEST DUP7 DUP3 DUP3 LT PUSH2 0x149C JUMPI POP POP POP PUSH2 0x1060 SWAP3 POP SUB DUP5 PUSH2 0xE79 JUMP JUMPDEST PUSH1 0x40 MLOAD SWAP2 DUP3 DUP1 SWAP4 PUSH1 0x20 PUSH1 0xC SLOAD SWAP2 DUP3 DUP2 MSTORE ADD SWAP1 PUSH1 0xC DUP11 MSTORE PUSH32 0xDF6966C971051C3D54EC59162606531493A51404A002842F56009D7E5CF4A8C7 SWAP4 DUP11 SWAP1 JUMPDEST DUP3 DUP3 LT PUSH2 0x1482 JUMPI POP POP POP PUSH2 0x10B1 SWAP3 POP SUB DUP4 PUSH2 0xE79 JUMP JUMPDEST PUSH1 0x10 SLOAD PUSH1 0x40 MLOAD PUSH4 0x1E385F69 PUSH1 0xE0 SHL DUP2 MSTORE SWAP4 PUSH1 0x4 SWAP3 SWAP2 DUP9 SWAP1 DUP7 SWAP1 DUP6 SWAP1 DUP3 SWAP1 PUSH1 0x1 PUSH1 0x1 PUSH1 0xA0 SHL SUB AND GAS STATICCALL SWAP5 DUP6 ISZERO PUSH2 0x1477 JUMPI DUP9 SWAP6 PUSH2 0x145B JUMPI JUMPDEST POP SWAP6 SWAP5 SWAP4 SWAP3 SWAP2 SWAP1 DUP8 SWAP7 JUMPDEST DUP6 DUP9 LT PUSH2 0x1103 JUMPI POP POP POP POP POP POP POP POP SWAP1 JUMP JUMPDEST SWAP1 SWAP2 SWAP3 SWAP4 SWAP5 SWAP6 SWAP7 SWAP8 PUSH2 0x1115 DUP10 DUP10 PUSH2 0xF48 JUMP JUMPDEST MLOAD PUSH1 0x0 DUP1 DUP3 SLT ISZERO PUSH2 0x1394 JUMPI POP PUSH2 0x1145 PUSH2 0x1136 PUSH2 0x1131 DUP4 DUP14 PUSH2 0x14B2 JUMP JUMPDEST PUSH2 0xFB8 JUMP JUMPDEST PUSH2 0x113F DUP4 PUSH2 0xFB8 JUMP JUMPDEST SWAP1 PUSH2 0xF95 JUMP JUMPDEST DUP11 PUSH2 0x114F DUP2 PUSH2 0xE42 JUMP JUMPDEST SWAP1 SLOAD PUSH1 0x3 SWAP2 PUSH1 0x0 SWAP2 SWAP1 DUP4 SHL SHR DUP6 SGT ISZERO PUSH2 0x138F JUMPI POP PUSH2 0x117B PUSH2 0x116F DUP4 PUSH2 0xE42 JUMP JUMPDEST SWAP1 SLOAD SWAP1 DUP4 SHL SHR DUP6 PUSH2 0xFC9 JUMP JUMPDEST PUSH2 0x11E3 PUSH2 0x1187 DUP5 PUSH2 0xE0B JUMP JUMPDEST SWAP1 SLOAD SWAP1 DUP5 SHL SHR PUSH2 0x11BE PUSH2 0x11B7 PUSH2 0x119C DUP8 PUSH2 0xD9D JUMP JUMPDEST SWAP1 SLOAD SWAP1 DUP8 SHL SHR PUSH2 0x11AB DUP9 PUSH2 0xCE5 JUMP JUMPDEST SWAP1 SLOAD SWAP1 DUP9 SHL SHR SWAP1 PUSH2 0xFE2 JUMP JUMPDEST SWAP2 DUP9 PUSH2 0xFC9 JUMP JUMPDEST PUSH1 0x0 DUP2 SLT PUSH2 0x1380 JUMPI SWAP1 JUMPDEST PUSH1 0x0 SWAP2 DUP2 DUP2 SGT ISZERO PUSH2 0x1378 JUMPI PUSH2 0x11DD SWAP3 POP PUSH2 0xFC9 JUMP JUMPDEST SWAP4 PUSH2 0xDD4 JUMP JUMPDEST SWAP1 SLOAD SWAP1 DUP4 SHL SHR DUP6 PUSH1 0x0 SWAP2 DUP2 DUP2 SGT PUSH1 0x0 EQ PUSH2 0x1370 JUMPI PUSH2 0x1201 SWAP3 POP PUSH2 0xFC9 JUMP JUMPDEST SWAP3 JUMPDEST PUSH1 0x5 SWAP2 DUP3 DUP2 MUL SWAP3 DUP2 DUP5 SDIV EQ SWAP1 ISZERO OR ISZERO PUSH2 0x135B JUMPI DUP3 DUP2 MUL SWAP3 DUP2 DUP5 SDIV EQ SWAP1 ISZERO OR ISZERO PUSH2 0x1346 JUMPI PUSH2 0x1237 PUSH2 0x123D SWAP4 SWAP3 PUSH2 0x438 SWAP3 PUSH2 0xFEF JUMP JUMPDEST SWAP2 PUSH2 0xF7F JUMP JUMPDEST SWAP1 PUSH1 0x0 SWAP3 DUP13 DUP12 DUP12 MLOAD EQ PUSH2 0x126F JUMPI JUMPDEST POP POP PUSH2 0x1261 SWAP3 PUSH2 0x385 PUSH1 0x1 SWAP6 SWAP4 PUSH2 0x438 SWAP4 PUSH2 0xFEF JUMP JUMPDEST SWAP9 ADD SWAP7 SWAP6 SWAP5 SWAP4 SWAP3 SWAP2 SWAP1 PUSH2 0x10F1 JUMP JUMPDEST PUSH2 0x127C PUSH2 0x1284 SWAP2 DUP13 PUSH2 0xF48 JUMP JUMPDEST MLOAD DUP1 SWAP3 PUSH2 0xFC9 JUMP JUMPDEST SWAP1 DUP5 DUP3 SLT PUSH2 0x1336 JUMPI DUP8 DUP3 SWAP2 JUMPDEST DUP1 ISZERO PUSH2 0x132D JUMPI SDIV SWAP2 JUMPDEST DUP3 DUP3 SGT PUSH2 0x12A9 JUMPI JUMPDEST POP POP DUP13 PUSH2 0x124B JUMP JUMPDEST SWAP5 SWAP1 SWAP2 SWAP3 SWAP5 SGT PUSH1 0x0 EQ PUSH2 0x1304 JUMPI SWAP1 PUSH2 0x12C0 SWAP2 PUSH2 0xFC9 JUMP JUMPDEST DUP1 PUSH1 0x2 SHL SWAP1 DUP1 DUP3 SDIV DUP9 EQ SWAP1 ISZERO OR ISZERO PUSH2 0x12EF JUMPI PUSH2 0x1261 SWAP3 PUSH2 0x385 PUSH1 0x1 SWAP6 SWAP4 PUSH2 0x438 SWAP4 SWAP3 JUMPDEST SWAP4 POP SWAP4 SWAP6 DUP3 SWAP6 POP PUSH2 0x12A1 JUMP JUMPDEST PUSH1 0x11 DUP8 PUSH4 0x4E487B71 PUSH1 0xE0 SHL PUSH1 0x0 MSTORE MSTORE PUSH1 0x24 PUSH1 0x0 REVERT JUMPDEST SWAP3 PUSH2 0x385 PUSH1 0x1 SWAP6 SWAP4 PUSH2 0x1327 PUSH2 0x1131 PUSH2 0x1322 PUSH2 0x438 SWAP7 PUSH2 0x1261 SWAP10 PUSH2 0xFC9 JUMP JUMPDEST PUSH2 0xF7F JUMP JUMPDEST SWAP3 PUSH2 0x12E3 JUMP JUMPDEST POP POP DUP5 SWAP2 PUSH2 0x1299 JUMP JUMPDEST DUP8 PUSH2 0x1340 DUP4 PUSH2 0xFB8 JUMP JUMPDEST SWAP2 PUSH2 0x1290 JUMP JUMPDEST PUSH1 0x11 DUP10 PUSH4 0x4E487B71 PUSH1 0xE0 SHL PUSH1 0x0 MSTORE MSTORE PUSH1 0x24 PUSH1 0x0 REVERT JUMPDEST PUSH1 0x11 DUP11 PUSH4 0x4E487B71 PUSH1 0xE0 SHL PUSH1 0x0 MSTORE MSTORE PUSH1 0x24 PUSH1 0x0 REVERT JUMPDEST POP POP SWAP3 PUSH2 0x1203 JUMP JUMPDEST POP POP SWAP4 PUSH2 0xDD4 JUMP JUMPDEST PUSH2 0x1389 SWAP1 PUSH2 0xFB8 JUMP JUMPDEST SWAP1 PUSH2 0x11C8 JUMP JUMPDEST PUSH2 0x117B JUMP JUMPDEST PUSH2 0x140B SWAP1 DUP12 DUP4 DUP5 PUSH2 0x13A5 DUP4 DUP10 PUSH2 0xF48 JUMP JUMPDEST MLOAD LT PUSH2 0x1435 JUMPI PUSH2 0x13B8 PUSH2 0x13BE SWAP3 DUP9 PUSH2 0xF48 JUMP JUMPDEST MLOAD PUSH2 0xF5C JUMP JUMPDEST PUSH2 0x13C8 DUP14 DUP8 PUSH2 0xF48 JUMP JUMPDEST MSTORE DUP12 DUP2 JUMPDEST DUP1 PUSH2 0x13D7 DUP4 DUP13 PUSH2 0xF48 JUMP JUMPDEST MLOAD LT PUSH2 0x1410 JUMPI PUSH2 0x13B8 PUSH2 0x13EA SWAP3 DUP12 PUSH2 0xF48 JUMP JUMPDEST PUSH2 0x13F4 DUP14 DUP11 PUSH2 0xF48 JUMP JUMPDEST MSTORE JUMPDEST PUSH2 0x13FF DUP13 PUSH2 0xC98 JUMP JUMPDEST SWAP1 SLOAD SWAP1 PUSH1 0x3 SHL SHR PUSH2 0xF95 JUMP JUMPDEST PUSH2 0x1145 JUMP JUMPDEST PUSH2 0x141D PUSH2 0x1424 SWAP3 DUP12 PUSH2 0xF48 JUMP JUMPDEST MLOAD SWAP1 PUSH2 0xF5C JUMP JUMPDEST SWAP1 PUSH2 0x142F DUP14 DUP11 PUSH2 0xF48 JUMP JUMPDEST MSTORE PUSH2 0x13F6 JUMP JUMPDEST POP PUSH2 0x144A PUSH2 0x1443 DUP3 DUP9 PUSH2 0xF48 JUMP JUMPDEST MLOAD DUP6 PUSH2 0xF5C JUMP JUMPDEST DUP3 PUSH2 0x1455 DUP4 DUP10 PUSH2 0xF48 JUMP JUMPDEST MSTORE PUSH2 0x13CC JUMP JUMPDEST PUSH2 0x1470 SWAP2 SWAP6 POP RETURNDATASIZE DUP1 DUP11 DUP4 RETURNDATACOPY PUSH2 0x512 DUP2 DUP4 PUSH2 0xE79 JUMP JUMPDEST SWAP4 CODESIZE PUSH2 0x10E7 JUMP JUMPDEST PUSH1 0x40 MLOAD RETURNDATASIZE DUP11 DUP3 RETURNDATACOPY RETURNDATASIZE SWAP1 REVERT JUMPDEST DUP6 SLOAD DUP5 MSTORE PUSH1 0x1 SWAP6 DUP7 ADD SWAP6 DUP9 SWAP6 POP SWAP4 DUP2 ADD SWAP4 SWAP1 SWAP2 ADD SWAP1 PUSH2 0x109B JUMP JUMPDEST DUP6 SLOAD DUP5 MSTORE PUSH1 0x1 SWAP6 DUP7 ADD SWAP6 DUP10 SWAP6 POP SWAP4 ADD SWAP3 ADD PUSH2 0x1049 JUMP JUMPDEST PUSH2 0x14BB SWAP1 PUSH2 0xC98 JUMP JUMPDEST SWAP1 SLOAD SWAP1 PUSH1 0x3 SHL SHR SWAP1 PUSH1 0x0 DUP2 SLT PUSH1 0x0 EQ PUSH2 0x1512 JUMPI PUSH2 0x14D7 SWAP1 PUSH2 0xFB8 JUMP JUMPDEST PUSH1 0x1 SHR PUSH1 0x14 ADD DUP1 PUSH1 0x14 GT PUSH2 0xF69 JUMPI PUSH1 0x28 DUP2 GT PUSH2 0x150A JUMPI JUMPDEST PUSH1 0x64 SUB SWAP1 PUSH1 0x64 DUP3 GT PUSH2 0xF69 JUMPI PUSH1 0x64 SWAP2 PUSH2 0x1506 SWAP2 PUSH2 0xF95 JUMP JUMPDEST SDIV SWAP1 JUMP JUMPDEST POP PUSH1 0x28 PUSH2 0x14EE JUMP JUMPDEST POP SWAP1 JUMP JUMPDEST PUSH1 0x0 DUP1 SLOAD DUP1 DUP4 MSTORE DUP2 DUP1 MSTORE PUSH1 0x20 SWAP3 DUP4 ADD SWAP3 PUSH32 0x290DECD9548B62A8D60345A988386FC84BA6BC95484008F6362F93160EF3E563 SWAP3 SWAP1 JUMPDEST DUP3 DUP3 LT PUSH2 0x1558 JUMPI POP POP POP POP SWAP1 JUMP JUMPDEST DUP4 SLOAD DUP6 MSTORE SWAP4 DUP5 ADD SWAP4 PUSH1 0x1 SWAP4 DUP5 ADD SWAP4 SWAP1 SWAP2 ADD SWAP1 PUSH2 0x154A JUMP INVALID LOG2 PUSH5 0x6970667358 0x22 SLT KECCAK256 PC EXTCODEHASH DUP4 0xBB CODESIZE SWAP4 PUSH13 0xB7EFC5B172ED3C1C08471D97CF 0x4F SDIV DUP10 PUSH32 0xEBC3811D2F9913B64736F6C63430008170033405787FA12A823E0F2B7631CC4 SHL EXTCODESIZE 0xA8 DUP3 DUP12 CALLER 0x21 0xCA DUP2 GT GT STATICCALL PUSH22 0xCD3AA3BB5ACEBB7B4A454DC3493923482F07822329ED NOT 0xE8 0x24 0x4E SELFDESTRUCT PC 0x2C 0xC2 DIV 0xF8 SSTORE 0x4C CALLDATASIZE KECCAK256 0xC3 REVERT 0xC6 GAS PUSH28 0xB8D6351C1CF70C95A316CC6A92839C986682D98BC35F958F4883F9D2 0xA8 0x29 0xD 0xEC 0xD9 SLOAD DUP12 PUSH3 0xA8D603 GASLIMIT 0xA9 DUP9 CODESIZE PUSH16 0xC84BA6BC95484008F6362F93160EF3E5 PUSH4 0xD7B69901 SDIV PUSH18 0x9101DABEB77144F2A3385C8033ACD3AF97E9 TIMESTAMP GASPRICE PUSH10 0x5E81AD1EB5F3F7A9FE36 0x4F 0xAA 0xB9 EXTCODESIZE 0x21 PUSH14 0xA50A3214154F22A0A2B415B23A84 0xC8 AND SWAP15 DUP12 PUSH4 0x6EE36E15 BLOCKHASH OR SHL PUSH13 0xC960B71A7020D9F60077F6AF9 BALANCE 0xA8 0xBB CREATE2 SWAP1 0xDA MUL 0x23 0xDA 0xCF PUSH22 0xC7AFB10E2D527612073B26EECDFD717E6A320CF44B4A STATICCALL 0xC2 0xB0 PUSH20 0x2D9FCBE2B7FA0CF6000000000000000000000000 "},"methodIdentifiers":{"batteryCapacity(uint256)":"b6ce6709","batteryCharge(uint256)":"4eb274ff","c1()":"5f57697c","c2()":"48e257cb","capacity(uint256)":"ab1bbeca","flexibilityAbove(uint256)":"78b6d7d4","flexibilityBelow(uint256)":"375a105e","flexibleLoad(uint256)":"e329143f","getEffectiveTariff(uint256,int256)":"957b4056","getPosition()":"7398ab18","globalContract()":"90ccfa0f","lastKnownGlobalTimestamp()":"d0c6c7af","objectiveFunction(int256[])":"364132d9","personalBestPosition(uint256)":"a86853d5","personalBestScore()":"4d985ae4","position(uint256)":"f7a95a9e","renewableGeneration(uint256)":"96d14da6","tariff(uint256)":"16b51928","updateBestPositions()":"973b9cc1","updateVelocityAndPosition()":"f6451c0a","velocity(uint256)":"6f240774","w()":"205c9cc7"}}}}}