{"contracts/Node.sol":{"Node":{"abi":[{"inputs":[{"internalType":"address","name":"globalContractAddress","type":"address"},{"internalType":"uint256[]","name":"initialPosition","type":"uint256[]"},{"internalType":"uint256[]","name":"initialVelocity","type":"uint256[]"},{"internalType":"uint256[]","name":"initialTariff","type":"uint256[]"},{"internalType":"uint256[]","name":"initialCapacity","type":"uint256[]"},{"internalType":"uint256[]","name":"initialRenewableGeneration","type":"uint256[]"},{"internalType":"uint256[]","name":"initialBatteryCapacity","type":"uint256[]"},{"internalType":"uint256[]","name":"initialBatteryCharge","type":"uint256[]"},{"internalType":"uint256[]","name":"initialFlexibleLoad","type":"uint256[]"},{"internalType":"uint256","name":"_penaltyRate","type":"uint256"},{"internalType":"uint256","name":"_peakDemandThreshold","type":"uint256"},{"internalType":"uint256","name":"_peakDemandPenalty","type":"uint256"}],"stateMutability":"nonpayable","type":"constructor"},{"inputs":[{"internalType":"uint256","name":"","type":"uint256"}],"name":"batteryCapacity","outputs":[{"internalType":"uint256","name":"","type":"uint256"}],"stateMutability":"view","type":"function"},{"inputs":[{"internalType":"uint256","name":"","type":"uint256"}],"name":"batteryCharge","outputs":[{"internalType":"uint256","name":"","type":"uint256"}],"stateMutability":"view","type":"function"},{"inputs":[],"name":"c1","outputs":[{"internalType":"uint256","name":"","type":"uint256"}],"stateMutability":"view","type":"function"},{"inputs":[],"name":"c2","outputs":[{"internalType":"uint256","name":"","type":"uint256"}],"stateMutability":"view","type":"function"},{"inputs":[{"internalType":"uint256","name":"","type":"uint256"}],"name":"capacity","outputs":[{"internalType":"uint256","name":"","type":"uint256"}],"stateMutability":"view","type":"function"},{"inputs":[{"internalType":"uint256","name":"","type":"uint256"}],"name":"flexibleLoad","outputs":[{"internalType":"uint256","name":"","type":"uint256"}],"stateMutability":"view","type":"function"},{"inputs":[],"name":"getPersonalBestPosition","outputs":[{"internalType":"uint256[]","name":"","type":"uint256[]"}],"stateMutability":"view","type":"function"},{"inputs":[],"name":"globalContract","outputs":[{"internalType":"contract GlobalContractInterface","name":"","type":"address"}],"stateMutability":"view","type":"function"},{"inputs":[{"internalType":"uint256[]","name":"pos","type":"uint256[]"}],"name":"objectiveFunction","outputs":[{"internalType":"uint256","name":"","type":"uint256"}],"stateMutability":"view","type":"function"},{"inputs":[],"name":"peakDemandPenalty","outputs":[{"internalType":"uint256","name":"","type":"uint256"}],"stateMutability":"view","type":"function"},{"inputs":[],"name":"peakDemandThreshold","outputs":[{"internalType":"uint256","name":"","type":"uint256"}],"stateMutability":"view","type":"function"},{"inputs":[],"name":"penaltyRate","outputs":[{"internalType":"uint256","name":"","type":"uint256"}],"stateMutability":"view","type":"function"},{"inputs":[{"internalType":"uint256","name":"","type":"uint256"}],"name":"personalBestPosition","outputs":[{"internalType":"uint256","name":"","type":"uint256"}],"stateMutability":"view","type":"function"},{"inputs":[],"name":"personalBestScore","outputs":[{"internalType":"uint256","name":"","type":"uint256"}],"stateMutability":"view","type":"function"},{"inputs":[{"internalType":"uint256","name":"","type":"uint256"}],"name":"position","outputs":[{"internalType":"uint256","name":"","type":"uint256"}],"stateMutability":"view","type":"function"},{"inputs":[{"internalType":"uint256","name":"","type":"uint256"}],"name":"renewableGeneration","outputs":[{"internalType":"uint256","name":"","type":"uint256"}],"stateMutability":"view","type":"function"},{"inputs":[{"internalType":"uint256","name":"","type":"uint256"}],"name":"tariff","outputs":[{"internalType":"uint256","name":"","type":"uint256"}],"stateMutability":"view","type":"function"},{"inputs":[],"name":"updateBestPositions","outputs":[],"stateMutability":"nonpayable","type":"function"},{"inputs":[{"internalType":"uint256","name":"nodeId","type":"uint256"},{"internalType":"uint256","name":"_peakDemandThreshold","type":"uint256"}],"name":"updatePeakDemandThreshold","outputs":[],"stateMutability":"nonpayable","type":"function"},{"inputs":[{"internalType":"uint256","name":"nodeId","type":"uint256"},{"internalType":"uint256","name":"_penaltyRate","type":"uint256"}],"name":"updatePenaltyRate","outputs":[],"stateMutability":"nonpayable","type":"function"},{"inputs":[],"name":"updateVelocityAndPosition","outputs":[],"stateMutability":"nonpayable","type":"function"},{"inputs":[{"internalType":"uint256","name":"","type":"uint256"}],"name":"velocity","outputs":[{"internalType":"uint256","name":"","type":"uint256"}],"stateMutability":"view","type":"function"},{"inputs":[],"name":"w","outputs":[{"internalType":"uint256","name":"","type":"uint256"}],"stateMutability":"view","type":"function"}],"evm":{"bytecode":{"linkReferences":{},"object":"608060405234620007f95762001910803803806200001d81620007fe565b92833981019061018081830312620007f95780516001600160a01b0381169290839003620007f95760208201516001600160401b038111620007f957816200006791840162000824565b60408301519091906001600160401b038111620007f957816200008c91850162000824565b60608401519091906001600160401b038111620007f95781620000b191860162000824565b60808501516001600160401b038111620007f95782620000d391870162000824565b60a08601516001600160401b038111620007f95783620000f591880162000824565b60c08701519091906001600160401b038111620007f957846200011a91890162000824565b60e08801519093906001600160401b038111620007f957856200013f918a0162000824565b61010089015190956001600160401b038211620007f95762000163918a0162000824565b6101208901516101408a0151610160909a0151600019600355603260045560966005819055600655601080546001600160a01b031916909c17909b558851909891979091906001600160401b038311620004f357680100000000000000008311620004f35760005483600055808410620007b1575b5060208201928360008052602060002060005b8381106200079c5750508251929150506001600160401b038211620004f357680100000000000000008211620004f3576001548260015580831062000752575b506020016001600052602060002060005b8381106200073d5750509151929150506001600160401b038211620004f357680100000000000000008211620004f35760025482600255808310620006f4575b506002600052602060002060005b838110620006df5750508251929150506001600160401b038211620004f357680100000000000000008211620004f3576007548260075580831062000696575b506020016007600052602060002060005b838110620006815750508251929150506001600160401b038211620004f357680100000000000000008211620004f3576008548260085580831062000638575b506020016008600052602060002060005b838110620006235750508251929150506001600160401b038211620004f357680100000000000000008211620004f357600a5482600a55808310620005da575b50602001600a600052602060002060005b838110620005c55750508251929150506001600160401b038211620004f357680100000000000000008211620004f357600b5482600b558083106200057c575b50602001600b600052602060002060005b838110620005675750508251929150506001600160401b038211620004f357680100000000000000008211620004f357600c5482600c558083106200051e575b50602001600c600052602060002060005b838110620005095750508251929150506001600160401b038211620004f357680100000000000000008211620004f357600d5482600d55808310620004aa575b50602001600d600052602060002060005b838110620004955750505050600955600e55600f5560405161108290816200088e8239f35b60019060208451940193818401550162000470565b600d6000527fd7b6990105719101dabeb77144f2a3385c8033acd3af97e9423a695e81ad1eb59081019083015b818110620004e657506200045f565b60008155600101620004d7565b634e487b7160e01b600052604160045260246000fd5b6001906020845194019381840155016200041f565b600c6000527fdf6966c971051c3d54ec59162606531493a51404a002842f56009d7e5cf4a8c79081019083015b8181106200055a57506200040e565b600081556001016200054b565b600190602084519401938184015501620003ce565b600b6000527f0175b7a638427703f0dbe7bb9bbf987a2551717b34e79f33b5b1008d1fa01db99081019083015b818110620005b85750620003bd565b60008155600101620005a9565b6001906020845194019381840155016200037d565b600a6000527fc65a7bb8d6351c1cf70c95a316cc6a92839c986682d98bc35f958f4883f9d2a89081019083015b8181106200061657506200036c565b6000815560010162000607565b6001906020845194019381840155016200032c565b60086000527ff3f7a9fe364faab93b216da50a3214154f22a0a2b415b23a84c8169e8b636ee39081019083015b8181106200067457506200031b565b6000815560010162000665565b600190602084519401938184015501620002db565b60076000527fa66cc928b5edb82af9bd49922954155ab7b0942694bea4ce44661d9a8736c6889081019083015b818110620006d25750620002ca565b60008155600101620006c3565b6001906020845194019381840155016200028a565b60026000527f405787fa12a823e0f2b7631cc41b3ba8828b3321ca811111fa75cd3aa3bb5ace9081019083015b8181106200073057506200027c565b6000815560010162000721565b6001906020845194019381840155016200023c565b60016000527fb10e2d527612073b26eecdfd717e6a320cf44b4afac2b0732d9fcbe2b7fa0cf6908382015b81830181106200078f5750506200022b565b600081556001016200077d565b600190602084519401938184015501620001eb565b600080527f290decd9548b62a8d60345a988386fc84ba6bc95484008f6362f93160ef3e5639081019084015b818110620007ec5750620001d8565b60008155600101620007dd565b600080fd5b6040519190601f01601f191682016001600160401b03811183821017620004f357604052565b81601f82011215620007f9578051916020916001600160401b038411620004f3578360051b90838062000859818501620007fe565b809781520192820101928311620007f9578301905b8282106200087d575050505090565b815181529083019083016200086e56fe6040608081526004908136101561001557600080fd5b600091823560e01c806316b5192814610a66578063205c9cc714610a49578063278a328014610a31578063298c96e414610a0f57806348e257cb146109f05780634a702c3d146109d15780634d985ae4146109b25780634eb274ff146109655780635f57697c1461094657806369cd1db8146109275780636f240774146108fd57806390ccfa0f146108d457806396d14da614610887578063973b9cc114610686578063a86853d51461065c578063ab1bbeca14610632578063b6ce6709146105e2578063d6b7494f146105c3578063e329143f14610599578063e7d46385146104f6578063f03748851461045f578063f6451c0a1461015b5763f7a95a9e1461011e57600080fd5b3461015757602036600319011261015757359180548310156101545750610146602092610ba3565b91905490519160031b1c8152f35b80fd5b8280fd5b5082346101545780600319360112610154576010548351632ba8f1b360e01b815292919081908490849082906001600160a01b03165afa92831561045357819361042f575b5082518154036103f457805b81548110156103f0578451906020918281019042825282888201528781526101d381610c08565b606491829151902006926001908184018085116103dd5783908a51838101914283528c8201528b815261020581610c08565b51902006915484101561039c5750818654948161022186610ad9565b979054600398891b1c61023391610d0b565b916005549061024191610d0b565b61024a87610b10565b905490891b1c61025988610ba3565b9054908a1b1c61026891610dc2565b61027191610d0b565b0461027b91610dcf565b916006549061028991610d0b565b610293858a610dae565b5161029d86610ba3565b905490881b1c6102ac91610dc2565b6102b591610d0b565b046102bf91610dcf565b046102c982610ad9565b6102e4929082549060031b91821b91600019901b1916179055565b6102ed81610ad9565b905490831b1c6102fc82610ba3565b9091825482861b1c9061030e91610dcf565b825460001960039390931b92831b1916911b17905561032c81610ba3565b905490831b1c61033b82610b6c565b905490841b1c1091600192610352575b50016101ac565b6103969061035f83610b6c565b905490821b1c61037f61037185610ba3565b929093838554911b1c610dc2565b825460001960039390931b92831b1916911b179055565b8661034b565b86915088519162461bcd60e51b8352820152601c60248201527f56656c6f6369747920696e646578206f7574206f6620626f756e6473000000006044820152fd5b634e487b7160e01b875260118852602487fd5b5080f35b835162461bcd60e51b81526020818401526015602482015274082e4e4c2f240d8cadccee8d040dad2e6dac2e8c6d605b1b6044820152606490fd5b61044c9193503d8085833e6104448183610c3a565b810190610d34565b91846101a0565b508351903d90823e3d90fd5b5091346101545760209060206003193601126101545783359367ffffffffffffffff85116104f257366023860112156104f25784013561049e81610c5c565b946104ab85519687610c3a565b8186526024602087019260051b820101923684116101545750602401905b8282106104e3576020856104dc88610ddc565b9051908152f35b813581529083019083016104c9565b5080fd5b8284346101545780600319360112610154579080519182906002549182855260208095018093600260005260008051602061102d8339815191529060005b818110610585575050508161054a910382610c3a565b83519485948186019282875251809352850193925b82811061056e57505050500390f35b83518552869550938101939281019260010161055f565b825484529288019260019283019201610534565b5034610157576020366003190112610157573591600d548310156101545750610146602092610b6c565b5050346104f257816003193601126104f2576020906009549051908152f35b50346101575760203660031901126101575735600b548110156101575760209250600b6000527f0175b7a638427703f0dbe7bb9bbf987a2551717b34e79f33b5b1008d1fa01db901549051908152f35b50346101575760203660031901126101575735916008548310156101545750610146602092610b35565b50346101575760203660031901126101575735916002548310156101545750610146602092610b10565b509190346104f257816003193601126104f2576106b781516106b2816106ab81610cb2565b0382610c3a565b610ddc565b9260035484106107b0575b6010548251632ba8f1b360e01b8152939485946001600160a01b039092169185818581865afa9081156107a6579061070191879161078c575b50610ddc565b811061070b578480f35b813b156107885784918451809681809463a5cdc59b60e01b8252888883015261073660448301610cb2565b90602483015203925af1801561077e57610752575b8084938480f35b67ffffffffffffffff831161076b57505238808061074b565b634e487b7160e01b845260419052602483fd5b82513d86823e3d90fd5b8480fd5b6107a091503d8089833e6104448183610c3a565b386106fb565b85513d88823e3d90fd5b8360035582549367ffffffffffffffff8511610874576801000000000000000085116108745760025485600255808610610846575b507f290decd9548b62a8d60345a988386fc84ba6bc95484008f6362f93160ef3e5639460028552855485905b8282106108225750505093506106c2565b600180919801918254988160008051602061102d8339815191520155019096610811565b8560008051602061102d83398151915291820191015b81811061086957506107e5565b85815560010161085c565b634e487b7160e01b845260418252602484fd5b50346101575760203660031901126101575735600a5481101561015757600a602093527fc65a7bb8d6351c1cf70c95a316cc6a92839c986682d98bc35f958f4883f9d2a801549051908152f35b5050346104f257816003193601126104f25760105490516001600160a01b039091168152602090f35b50346101575760203660031901126101575735916001548310156101545750610146602092610ad9565b5050346104f257816003193601126104f257602090600e549051908152f35b5050346104f257816003193601126104f2576020906005549051908152f35b50346101575760203660031901126101575735600c5481101561015757600c602093527fdf6966c971051c3d54ec59162606531493a51404a002842f56009d7e5cf4a8c701549051908152f35b5050346104f257816003193601126104f2576020906003549051908152f35b5050346104f257816003193601126104f257602090600f549051908152f35b5050346104f257816003193601126104f2576020906006549051908152f35b833461015457610a2b610a2136610bed565b9190835411610c74565b60095580f35b833461015457610a43610a2136610bed565b600e5580f35b503461015757826003193601126101575760209250549051908152f35b503461015757602036600319011261015757359160075483101561015457506101466020925b600754811015610ac35760076000527fa66cc928b5edb82af9bd49922954155ab7b0942694bea4ce44661d9a8736c6880190600090565b634e487b7160e01b600052603260045260246000fd5b600154811015610ac35760016000527fb10e2d527612073b26eecdfd717e6a320cf44b4afac2b0732d9fcbe2b7fa0cf60190600090565b600254811015610ac357600260005260008051602061102d8339815191520190600090565b600854811015610ac35760086000527ff3f7a9fe364faab93b216da50a3214154f22a0a2b415b23a84c8169e8b636ee30190600090565b600d54811015610ac357600d6000527fd7b6990105719101dabeb77144f2a3385c8033acd3af97e9423a695e81ad1eb50190600090565b906000918254811015610bd9578280527f290decd9548b62a8d60345a988386fc84ba6bc95484008f6362f93160ef3e563019190565b634e487b7160e01b83526032600452602483fd5b6040906003190112610c03576004359060243590565b600080fd5b6060810190811067ffffffffffffffff821117610c2457604052565b634e487b7160e01b600052604160045260246000fd5b90601f8019910116810190811067ffffffffffffffff821117610c2457604052565b67ffffffffffffffff8111610c245760051b60200190565b15610c7b57565b60405162461bcd60e51b815260206004820152600f60248201526e139bd919481251081a5b9d985b1a59608a1b6044820152606490fd5b600080548083528180526020928301927f290decd9548b62a8d60345a988386fc84ba6bc95484008f6362f93160ef3e56392905b828210610cf4575050505090565b835485529384019360019384019390910190610ce6565b81810292918115918404141715610d1e57565b634e487b7160e01b600052601160045260246000fd5b6020908181840312610c035780519067ffffffffffffffff8211610c0357019180601f84011215610c03578251610d6a81610c5c565b93610d786040519586610c3a565b818552838086019260051b820101928311610c03578301905b828210610d9f575050505090565b81518152908301908301610d91565b8051821015610ac35760209160051b010190565b91908203918211610d1e57565b91908201809211610d1e57565b906000916040518091600a54808352602080930190600a87527fc65a7bb8d6351c1cf70c95a316cc6a92839c986682d98bc35f958f4883f9d2a890875b8181106110185750505083610e2f910384610c3a565b60405180926020600c54928381520191600c88527fdf6966c971051c3d54ec59162606531493a51404a002842f56009d7e5cf4a8c79188905b828210611001575050505082610e7f910383610c3a565b8492600e54955b8251851015610ff957610f4f600191610e9f8786610dae565b5180610eab8987610dae565b5110610fd957506000610ed2610ec18988610dae565b51610ecc8a88610dae565b51610dc2565b610edc8987610dae565b525b80610ee98989610dae565b5110610fb157610efd90610ecc8989610dae565b610f078888610dae565b526000905b81610f27610f198a610a8c565b949054600395861b1c610d0b565b928b808311610f8f575b50610f3b8a610b35565b905490821b1c8211610f57575b5050610dcf565b940193610e86565b610f78610f87939492610f8192610f6d8d610b35565b9054911b1c90610dc2565b60095490610d0b565b90610dcf565b903880610f48565b93610f81610fa1610faa939685610dc2565b600f5490610d0b565b928b610f31565b610fc690610fbf8989610dae565b5190610dc2565b906000610fd38989610dae565b52610f0c565b610fe790610fbf8987610dae565b6000610ff38987610dae565b52610ede565b955050505050565b835485529384019360019384019390910190610e68565b825484529285019260019283019201610e1956fe405787fa12a823e0f2b7631cc41b3ba8828b3321ca811111fa75cd3aa3bb5acea2646970667358221220e65594ba625d3a9a3ac82b90ad6958ef6f66e6fc0528dadff3c4183d2fb048f764736f6c63430008170033","opcodes":"PUSH1 0x80 PUSH1 0x40 MSTORE CALLVALUE PUSH3 0x7F9 JUMPI PUSH3 0x1910 DUP1 CODESIZE SUB DUP1 PUSH3 0x1D DUP2 PUSH3 0x7FE JUMP JUMPDEST SWAP3 DUP4 CODECOPY DUP2 ADD SWAP1 PUSH2 0x180 DUP2 DUP4 SUB SLT PUSH3 0x7F9 JUMPI DUP1 MLOAD PUSH1 0x1 PUSH1 0x1 PUSH1 0xA0 SHL SUB DUP2 AND SWAP3 SWAP1 DUP4 SWAP1 SUB PUSH3 0x7F9 JUMPI PUSH1 0x20 DUP3 ADD MLOAD PUSH1 0x1 PUSH1 0x1 PUSH1 0x40 SHL SUB DUP2 GT PUSH3 0x7F9 JUMPI DUP2 PUSH3 0x67 SWAP2 DUP5 ADD PUSH3 0x824 JUMP JUMPDEST PUSH1 0x40 DUP4 ADD MLOAD SWAP1 SWAP2 SWAP1 PUSH1 0x1 PUSH1 0x1 PUSH1 0x40 SHL SUB DUP2 GT PUSH3 0x7F9 JUMPI DUP2 PUSH3 0x8C SWAP2 DUP6 ADD PUSH3 0x824 JUMP JUMPDEST PUSH1 0x60 DUP5 ADD MLOAD SWAP1 SWAP2 SWAP1 PUSH1 0x1 PUSH1 0x1 PUSH1 0x40 SHL SUB DUP2 GT PUSH3 0x7F9 JUMPI DUP2 PUSH3 0xB1 SWAP2 DUP7 ADD PUSH3 0x824 JUMP JUMPDEST PUSH1 0x80 DUP6 ADD MLOAD PUSH1 0x1 PUSH1 0x1 PUSH1 0x40 SHL SUB DUP2 GT PUSH3 0x7F9 JUMPI DUP3 PUSH3 0xD3 SWAP2 DUP8 ADD PUSH3 0x824 JUMP JUMPDEST PUSH1 0xA0 DUP7 ADD MLOAD PUSH1 0x1 PUSH1 0x1 PUSH1 0x40 SHL SUB DUP2 GT PUSH3 0x7F9 JUMPI DUP4 PUSH3 0xF5 SWAP2 DUP9 ADD PUSH3 0x824 JUMP JUMPDEST PUSH1 0xC0 DUP8 ADD MLOAD SWAP1 SWAP2 SWAP1 PUSH1 0x1 PUSH1 0x1 PUSH1 0x40 SHL SUB DUP2 GT PUSH3 0x7F9 JUMPI DUP5 PUSH3 0x11A SWAP2 DUP10 ADD PUSH3 0x824 JUMP JUMPDEST PUSH1 0xE0 DUP9 ADD MLOAD SWAP1 SWAP4 SWAP1 PUSH1 0x1 PUSH1 0x1 PUSH1 0x40 SHL SUB DUP2 GT PUSH3 0x7F9 JUMPI DUP6 PUSH3 0x13F SWAP2 DUP11 ADD PUSH3 0x824 JUMP JUMPDEST PUSH2 0x100 DUP10 ADD MLOAD SWAP1 SWAP6 PUSH1 0x1 PUSH1 0x1 PUSH1 0x40 SHL SUB DUP3 GT PUSH3 0x7F9 JUMPI PUSH3 0x163 SWAP2 DUP11 ADD PUSH3 0x824 JUMP JUMPDEST PUSH2 0x120 DUP10 ADD MLOAD PUSH2 0x140 DUP11 ADD MLOAD PUSH2 0x160 SWAP1 SWAP11 ADD MLOAD PUSH1 0x0 NOT PUSH1 0x3 SSTORE PUSH1 0x32 PUSH1 0x4 SSTORE PUSH1 0x96 PUSH1 0x5 DUP2 SWAP1 SSTORE PUSH1 0x6 SSTORE PUSH1 0x10 DUP1 SLOAD PUSH1 0x1 PUSH1 0x1 PUSH1 0xA0 SHL SUB NOT AND SWAP1 SWAP13 OR SWAP1 SWAP12 SSTORE DUP9 MLOAD SWAP1 SWAP9 SWAP2 SWAP8 SWAP1 SWAP2 SWAP1 PUSH1 0x1 PUSH1 0x1 PUSH1 0x40 SHL SUB DUP4 GT PUSH3 0x4F3 JUMPI PUSH9 0x10000000000000000 DUP4 GT PUSH3 0x4F3 JUMPI PUSH1 0x0 SLOAD DUP4 PUSH1 0x0 SSTORE DUP1 DUP5 LT PUSH3 0x7B1 JUMPI JUMPDEST POP PUSH1 0x20 DUP3 ADD SWAP3 DUP4 PUSH1 0x0 DUP1 MSTORE PUSH1 0x20 PUSH1 0x0 KECCAK256 PUSH1 0x0 JUMPDEST DUP4 DUP2 LT PUSH3 0x79C JUMPI POP POP DUP3 MLOAD SWAP3 SWAP2 POP POP PUSH1 0x1 PUSH1 0x1 PUSH1 0x40 SHL SUB DUP3 GT PUSH3 0x4F3 JUMPI PUSH9 0x10000000000000000 DUP3 GT PUSH3 0x4F3 JUMPI PUSH1 0x1 SLOAD DUP3 PUSH1 0x1 SSTORE DUP1 DUP4 LT PUSH3 0x752 JUMPI JUMPDEST POP PUSH1 0x20 ADD PUSH1 0x1 PUSH1 0x0 MSTORE PUSH1 0x20 PUSH1 0x0 KECCAK256 PUSH1 0x0 JUMPDEST DUP4 DUP2 LT PUSH3 0x73D JUMPI POP POP SWAP2 MLOAD SWAP3 SWAP2 POP POP PUSH1 0x1 PUSH1 0x1 PUSH1 0x40 SHL SUB DUP3 GT PUSH3 0x4F3 JUMPI PUSH9 0x10000000000000000 DUP3 GT PUSH3 0x4F3 JUMPI PUSH1 0x2 SLOAD DUP3 PUSH1 0x2 SSTORE DUP1 DUP4 LT PUSH3 0x6F4 JUMPI JUMPDEST POP PUSH1 0x2 PUSH1 0x0 MSTORE PUSH1 0x20 PUSH1 0x0 KECCAK256 PUSH1 0x0 JUMPDEST DUP4 DUP2 LT PUSH3 0x6DF JUMPI POP POP DUP3 MLOAD SWAP3 SWAP2 POP POP PUSH1 0x1 PUSH1 0x1 PUSH1 0x40 SHL SUB DUP3 GT PUSH3 0x4F3 JUMPI PUSH9 0x10000000000000000 DUP3 GT PUSH3 0x4F3 JUMPI PUSH1 0x7 SLOAD DUP3 PUSH1 0x7 SSTORE DUP1 DUP4 LT PUSH3 0x696 JUMPI JUMPDEST POP PUSH1 0x20 ADD PUSH1 0x7 PUSH1 0x0 MSTORE PUSH1 0x20 PUSH1 0x0 KECCAK256 PUSH1 0x0 JUMPDEST DUP4 DUP2 LT PUSH3 0x681 JUMPI POP POP DUP3 MLOAD SWAP3 SWAP2 POP POP PUSH1 0x1 PUSH1 0x1 PUSH1 0x40 SHL SUB DUP3 GT PUSH3 0x4F3 JUMPI PUSH9 0x10000000000000000 DUP3 GT PUSH3 0x4F3 JUMPI PUSH1 0x8 SLOAD DUP3 PUSH1 0x8 SSTORE DUP1 DUP4 LT PUSH3 0x638 JUMPI JUMPDEST POP PUSH1 0x20 ADD PUSH1 0x8 PUSH1 0x0 MSTORE PUSH1 0x20 PUSH1 0x0 KECCAK256 PUSH1 0x0 JUMPDEST DUP4 DUP2 LT PUSH3 0x623 JUMPI POP POP DUP3 MLOAD SWAP3 SWAP2 POP POP PUSH1 0x1 PUSH1 0x1 PUSH1 0x40 SHL SUB DUP3 GT PUSH3 0x4F3 JUMPI PUSH9 0x10000000000000000 DUP3 GT PUSH3 0x4F3 JUMPI PUSH1 0xA SLOAD DUP3 PUSH1 0xA SSTORE DUP1 DUP4 LT PUSH3 0x5DA JUMPI JUMPDEST POP PUSH1 0x20 ADD PUSH1 0xA PUSH1 0x0 MSTORE PUSH1 0x20 PUSH1 0x0 KECCAK256 PUSH1 0x0 JUMPDEST DUP4 DUP2 LT PUSH3 0x5C5 JUMPI POP POP DUP3 MLOAD SWAP3 SWAP2 POP POP PUSH1 0x1 PUSH1 0x1 PUSH1 0x40 SHL SUB DUP3 GT PUSH3 0x4F3 JUMPI PUSH9 0x10000000000000000 DUP3 GT PUSH3 0x4F3 JUMPI PUSH1 0xB SLOAD DUP3 PUSH1 0xB SSTORE DUP1 DUP4 LT PUSH3 0x57C JUMPI JUMPDEST POP PUSH1 0x20 ADD PUSH1 0xB PUSH1 0x0 MSTORE PUSH1 0x20 PUSH1 0x0 KECCAK256 PUSH1 0x0 JUMPDEST DUP4 DUP2 LT PUSH3 0x567 JUMPI POP POP DUP3 MLOAD SWAP3 SWAP2 POP POP PUSH1 0x1 PUSH1 0x1 PUSH1 0x40 SHL SUB DUP3 GT PUSH3 0x4F3 JUMPI PUSH9 0x10000000000000000 DUP3 GT PUSH3 0x4F3 JUMPI PUSH1 0xC SLOAD DUP3 PUSH1 0xC SSTORE DUP1 DUP4 LT PUSH3 0x51E JUMPI JUMPDEST POP PUSH1 0x20 ADD PUSH1 0xC PUSH1 0x0 MSTORE PUSH1 0x20 PUSH1 0x0 KECCAK256 PUSH1 0x0 JUMPDEST DUP4 DUP2 LT PUSH3 0x509 JUMPI POP POP DUP3 MLOAD SWAP3 SWAP2 POP POP PUSH1 0x1 PUSH1 0x1 PUSH1 0x40 SHL SUB DUP3 GT PUSH3 0x4F3 JUMPI PUSH9 0x10000000000000000 DUP3 GT PUSH3 0x4F3 JUMPI PUSH1 0xD SLOAD DUP3 PUSH1 0xD SSTORE DUP1 DUP4 LT PUSH3 0x4AA JUMPI JUMPDEST POP PUSH1 0x20 ADD PUSH1 0xD PUSH1 0x0 MSTORE PUSH1 0x20 PUSH1 0x0 KECCAK256 PUSH1 0x0 JUMPDEST DUP4 DUP2 LT PUSH3 0x495 JUMPI POP POP POP POP PUSH1 0x9 SSTORE PUSH1 0xE SSTORE PUSH1 0xF SSTORE PUSH1 0x40 MLOAD PUSH2 0x1082 SWAP1 DUP2 PUSH3 0x88E DUP3 CODECOPY RETURN JUMPDEST PUSH1 0x1 SWAP1 PUSH1 0x20 DUP5 MLOAD SWAP5 ADD SWAP4 DUP2 DUP5 ADD SSTORE ADD PUSH3 0x470 JUMP JUMPDEST PUSH1 0xD PUSH1 0x0 MSTORE PUSH32 0xD7B6990105719101DABEB77144F2A3385C8033ACD3AF97E9423A695E81AD1EB5 SWAP1 DUP2 ADD SWAP1 DUP4 ADD JUMPDEST DUP2 DUP2 LT PUSH3 0x4E6 JUMPI POP PUSH3 0x45F JUMP JUMPDEST PUSH1 0x0 DUP2 SSTORE PUSH1 0x1 ADD PUSH3 0x4D7 JUMP JUMPDEST PUSH4 0x4E487B71 PUSH1 0xE0 SHL PUSH1 0x0 MSTORE PUSH1 0x41 PUSH1 0x4 MSTORE PUSH1 0x24 PUSH1 0x0 REVERT JUMPDEST PUSH1 0x1 SWAP1 PUSH1 0x20 DUP5 MLOAD SWAP5 ADD SWAP4 DUP2 DUP5 ADD SSTORE ADD PUSH3 0x41F JUMP JUMPDEST PUSH1 0xC PUSH1 0x0 MSTORE PUSH32 0xDF6966C971051C3D54EC59162606531493A51404A002842F56009D7E5CF4A8C7 SWAP1 DUP2 ADD SWAP1 DUP4 ADD JUMPDEST DUP2 DUP2 LT PUSH3 0x55A JUMPI POP PUSH3 0x40E JUMP JUMPDEST PUSH1 0x0 DUP2 SSTORE PUSH1 0x1 ADD PUSH3 0x54B JUMP JUMPDEST PUSH1 0x1 SWAP1 PUSH1 0x20 DUP5 MLOAD SWAP5 ADD SWAP4 DUP2 DUP5 ADD SSTORE ADD PUSH3 0x3CE JUMP JUMPDEST PUSH1 0xB PUSH1 0x0 MSTORE PUSH32 0x175B7A638427703F0DBE7BB9BBF987A2551717B34E79F33B5B1008D1FA01DB9 SWAP1 DUP2 ADD SWAP1 DUP4 ADD JUMPDEST DUP2 DUP2 LT PUSH3 0x5B8 JUMPI POP PUSH3 0x3BD JUMP JUMPDEST PUSH1 0x0 DUP2 SSTORE PUSH1 0x1 ADD PUSH3 0x5A9 JUMP JUMPDEST PUSH1 0x1 SWAP1 PUSH1 0x20 DUP5 MLOAD SWAP5 ADD SWAP4 DUP2 DUP5 ADD SSTORE ADD PUSH3 0x37D JUMP JUMPDEST PUSH1 0xA PUSH1 0x0 MSTORE PUSH32 0xC65A7BB8D6351C1CF70C95A316CC6A92839C986682D98BC35F958F4883F9D2A8 SWAP1 DUP2 ADD SWAP1 DUP4 ADD JUMPDEST DUP2 DUP2 LT PUSH3 0x616 JUMPI POP PUSH3 0x36C JUMP JUMPDEST PUSH1 0x0 DUP2 SSTORE PUSH1 0x1 ADD PUSH3 0x607 JUMP JUMPDEST PUSH1 0x1 SWAP1 PUSH1 0x20 DUP5 MLOAD SWAP5 ADD SWAP4 DUP2 DUP5 ADD SSTORE ADD PUSH3 0x32C JUMP JUMPDEST PUSH1 0x8 PUSH1 0x0 MSTORE PUSH32 0xF3F7A9FE364FAAB93B216DA50A3214154F22A0A2B415B23A84C8169E8B636EE3 SWAP1 DUP2 ADD SWAP1 DUP4 ADD JUMPDEST DUP2 DUP2 LT PUSH3 0x674 JUMPI POP PUSH3 0x31B JUMP JUMPDEST PUSH1 0x0 DUP2 SSTORE PUSH1 0x1 ADD PUSH3 0x665 JUMP JUMPDEST PUSH1 0x1 SWAP1 PUSH1 0x20 DUP5 MLOAD SWAP5 ADD SWAP4 DUP2 DUP5 ADD SSTORE ADD PUSH3 0x2DB JUMP JUMPDEST PUSH1 0x7 PUSH1 0x0 MSTORE PUSH32 0xA66CC928B5EDB82AF9BD49922954155AB7B0942694BEA4CE44661D9A8736C688 SWAP1 DUP2 ADD SWAP1 DUP4 ADD JUMPDEST DUP2 DUP2 LT PUSH3 0x6D2 JUMPI POP PUSH3 0x2CA JUMP JUMPDEST PUSH1 0x0 DUP2 SSTORE PUSH1 0x1 ADD PUSH3 0x6C3 JUMP JUMPDEST PUSH1 0x1 SWAP1 PUSH1 0x20 DUP5 MLOAD SWAP5 ADD SWAP4 DUP2 DUP5 ADD SSTORE ADD PUSH3 0x28A JUMP JUMPDEST PUSH1 0x2 PUSH1 0x0 MSTORE PUSH32 0x405787FA12A823E0F2B7631CC41B3BA8828B3321CA811111FA75CD3AA3BB5ACE SWAP1 DUP2 ADD SWAP1 DUP4 ADD JUMPDEST DUP2 DUP2 LT PUSH3 0x730 JUMPI POP PUSH3 0x27C JUMP JUMPDEST PUSH1 0x0 DUP2 SSTORE PUSH1 0x1 ADD PUSH3 0x721 JUMP JUMPDEST PUSH1 0x1 SWAP1 PUSH1 0x20 DUP5 MLOAD SWAP5 ADD SWAP4 DUP2 DUP5 ADD SSTORE ADD PUSH3 0x23C JUMP JUMPDEST PUSH1 0x1 PUSH1 0x0 MSTORE PUSH32 0xB10E2D527612073B26EECDFD717E6A320CF44B4AFAC2B0732D9FCBE2B7FA0CF6 SWAP1 DUP4 DUP3 ADD JUMPDEST DUP2 DUP4 ADD DUP2 LT PUSH3 0x78F JUMPI POP POP PUSH3 0x22B JUMP JUMPDEST PUSH1 0x0 DUP2 SSTORE PUSH1 0x1 ADD PUSH3 0x77D JUMP JUMPDEST PUSH1 0x1 SWAP1 PUSH1 0x20 DUP5 MLOAD SWAP5 ADD SWAP4 DUP2 DUP5 ADD SSTORE ADD PUSH3 0x1EB JUMP JUMPDEST PUSH1 0x0 DUP1 MSTORE PUSH32 0x290DECD9548B62A8D60345A988386FC84BA6BC95484008F6362F93160EF3E563 SWAP1 DUP2 ADD SWAP1 DUP5 ADD JUMPDEST DUP2 DUP2 LT PUSH3 0x7EC JUMPI POP PUSH3 0x1D8 JUMP JUMPDEST PUSH1 0x0 DUP2 SSTORE PUSH1 0x1 ADD PUSH3 0x7DD JUMP JUMPDEST PUSH1 0x0 DUP1 REVERT JUMPDEST PUSH1 0x40 MLOAD SWAP2 SWAP1 PUSH1 0x1F ADD PUSH1 0x1F NOT AND DUP3 ADD PUSH1 0x1 PUSH1 0x1 PUSH1 0x40 SHL SUB DUP2 GT DUP4 DUP3 LT OR PUSH3 0x4F3 JUMPI PUSH1 0x40 MSTORE JUMP JUMPDEST DUP2 PUSH1 0x1F DUP3 ADD SLT ISZERO PUSH3 0x7F9 JUMPI DUP1 MLOAD SWAP2 PUSH1 0x20 SWAP2 PUSH1 0x1 PUSH1 0x1 PUSH1 0x40 SHL SUB DUP5 GT PUSH3 0x4F3 JUMPI DUP4 PUSH1 0x5 SHL SWAP1 DUP4 DUP1 PUSH3 0x859 DUP2 DUP6 ADD PUSH3 0x7FE JUMP JUMPDEST DUP1 SWAP8 DUP2 MSTORE ADD SWAP3 DUP3 ADD ADD SWAP3 DUP4 GT PUSH3 0x7F9 JUMPI DUP4 ADD SWAP1 JUMPDEST DUP3 DUP3 LT PUSH3 0x87D JUMPI POP POP POP POP SWAP1 JUMP JUMPDEST DUP2 MLOAD DUP2 MSTORE SWAP1 DUP4 ADD SWAP1 DUP4 ADD PUSH3 0x86E JUMP INVALID PUSH1 0x40 PUSH1 0x80 DUP2 MSTORE PUSH1 0x4 SWAP1 DUP2 CALLDATASIZE LT ISZERO PUSH2 0x15 JUMPI PUSH1 0x0 DUP1 REVERT JUMPDEST PUSH1 0x0 SWAP2 DUP3 CALLDATALOAD PUSH1 0xE0 SHR DUP1 PUSH4 0x16B51928 EQ PUSH2 0xA66 JUMPI DUP1 PUSH4 0x205C9CC7 EQ PUSH2 0xA49 JUMPI DUP1 PUSH4 0x278A3280 EQ PUSH2 0xA31 JUMPI DUP1 PUSH4 0x298C96E4 EQ PUSH2 0xA0F JUMPI DUP1 PUSH4 0x48E257CB EQ PUSH2 0x9F0 JUMPI DUP1 PUSH4 0x4A702C3D EQ PUSH2 0x9D1 JUMPI DUP1 PUSH4 0x4D985AE4 EQ PUSH2 0x9B2 JUMPI DUP1 PUSH4 0x4EB274FF EQ PUSH2 0x965 JUMPI DUP1 PUSH4 0x5F57697C EQ PUSH2 0x946 JUMPI DUP1 PUSH4 0x69CD1DB8 EQ PUSH2 0x927 JUMPI DUP1 PUSH4 0x6F240774 EQ PUSH2 0x8FD JUMPI DUP1 PUSH4 0x90CCFA0F EQ PUSH2 0x8D4 JUMPI DUP1 PUSH4 0x96D14DA6 EQ PUSH2 0x887 JUMPI DUP1 PUSH4 0x973B9CC1 EQ PUSH2 0x686 JUMPI DUP1 PUSH4 0xA86853D5 EQ PUSH2 0x65C JUMPI DUP1 PUSH4 0xAB1BBECA EQ PUSH2 0x632 JUMPI DUP1 PUSH4 0xB6CE6709 EQ PUSH2 0x5E2 JUMPI DUP1 PUSH4 0xD6B7494F EQ PUSH2 0x5C3 JUMPI DUP1 PUSH4 0xE329143F EQ PUSH2 0x599 JUMPI DUP1 PUSH4 0xE7D46385 EQ PUSH2 0x4F6 JUMPI DUP1 PUSH4 0xF0374885 EQ PUSH2 0x45F JUMPI DUP1 PUSH4 0xF6451C0A EQ PUSH2 0x15B JUMPI PUSH4 0xF7A95A9E EQ PUSH2 0x11E JUMPI PUSH1 0x0 DUP1 REVERT JUMPDEST CALLVALUE PUSH2 0x157 JUMPI PUSH1 0x20 CALLDATASIZE PUSH1 0x3 NOT ADD SLT PUSH2 0x157 JUMPI CALLDATALOAD SWAP2 DUP1 SLOAD DUP4 LT ISZERO PUSH2 0x154 JUMPI POP PUSH2 0x146 PUSH1 0x20 SWAP3 PUSH2 0xBA3 JUMP JUMPDEST SWAP2 SWAP1 SLOAD SWAP1 MLOAD SWAP2 PUSH1 0x3 SHL SHR DUP2 MSTORE RETURN JUMPDEST DUP1 REVERT JUMPDEST DUP3 DUP1 REVERT JUMPDEST POP DUP3 CALLVALUE PUSH2 0x154 JUMPI DUP1 PUSH1 0x3 NOT CALLDATASIZE ADD SLT PUSH2 0x154 JUMPI PUSH1 0x10 SLOAD DUP4 MLOAD PUSH4 0x2BA8F1B3 PUSH1 0xE0 SHL DUP2 MSTORE SWAP3 SWAP2 SWAP1 DUP2 SWAP1 DUP5 SWAP1 DUP5 SWAP1 DUP3 SWAP1 PUSH1 0x1 PUSH1 0x1 PUSH1 0xA0 SHL SUB AND GAS STATICCALL SWAP3 DUP4 ISZERO PUSH2 0x453 JUMPI DUP2 SWAP4 PUSH2 0x42F JUMPI JUMPDEST POP DUP3 MLOAD DUP2 SLOAD SUB PUSH2 0x3F4 JUMPI DUP1 JUMPDEST DUP2 SLOAD DUP2 LT ISZERO PUSH2 0x3F0 JUMPI DUP5 MLOAD SWAP1 PUSH1 0x20 SWAP2 DUP3 DUP2 ADD SWAP1 TIMESTAMP DUP3 MSTORE DUP3 DUP9 DUP3 ADD MSTORE DUP8 DUP2 MSTORE PUSH2 0x1D3 DUP2 PUSH2 0xC08 JUMP JUMPDEST PUSH1 0x64 SWAP2 DUP3 SWAP2 MLOAD SWAP1 KECCAK256 MOD SWAP3 PUSH1 0x1 SWAP1 DUP2 DUP5 ADD DUP1 DUP6 GT PUSH2 0x3DD JUMPI DUP4 SWAP1 DUP11 MLOAD DUP4 DUP2 ADD SWAP2 TIMESTAMP DUP4 MSTORE DUP13 DUP3 ADD MSTORE DUP12 DUP2 MSTORE PUSH2 0x205 DUP2 PUSH2 0xC08 JUMP JUMPDEST MLOAD SWAP1 KECCAK256 MOD SWAP2 SLOAD DUP5 LT ISZERO PUSH2 0x39C JUMPI POP DUP2 DUP7 SLOAD SWAP5 DUP2 PUSH2 0x221 DUP7 PUSH2 0xAD9 JUMP JUMPDEST SWAP8 SWAP1 SLOAD PUSH1 0x3 SWAP9 DUP10 SHL SHR PUSH2 0x233 SWAP2 PUSH2 0xD0B JUMP JUMPDEST SWAP2 PUSH1 0x5 SLOAD SWAP1 PUSH2 0x241 SWAP2 PUSH2 0xD0B JUMP JUMPDEST PUSH2 0x24A DUP8 PUSH2 0xB10 JUMP JUMPDEST SWAP1 SLOAD SWAP1 DUP10 SHL SHR PUSH2 0x259 DUP9 PUSH2 0xBA3 JUMP JUMPDEST SWAP1 SLOAD SWAP1 DUP11 SHL SHR PUSH2 0x268 SWAP2 PUSH2 0xDC2 JUMP JUMPDEST PUSH2 0x271 SWAP2 PUSH2 0xD0B JUMP JUMPDEST DIV PUSH2 0x27B SWAP2 PUSH2 0xDCF JUMP JUMPDEST SWAP2 PUSH1 0x6 SLOAD SWAP1 PUSH2 0x289 SWAP2 PUSH2 0xD0B JUMP JUMPDEST PUSH2 0x293 DUP6 DUP11 PUSH2 0xDAE JUMP JUMPDEST MLOAD PUSH2 0x29D DUP7 PUSH2 0xBA3 JUMP JUMPDEST SWAP1 SLOAD SWAP1 DUP9 SHL SHR PUSH2 0x2AC SWAP2 PUSH2 0xDC2 JUMP JUMPDEST PUSH2 0x2B5 SWAP2 PUSH2 0xD0B JUMP JUMPDEST DIV PUSH2 0x2BF SWAP2 PUSH2 0xDCF JUMP JUMPDEST DIV PUSH2 0x2C9 DUP3 PUSH2 0xAD9 JUMP JUMPDEST PUSH2 0x2E4 SWAP3 SWAP1 DUP3 SLOAD SWAP1 PUSH1 0x3 SHL SWAP2 DUP3 SHL SWAP2 PUSH1 0x0 NOT SWAP1 SHL NOT AND OR SWAP1 SSTORE JUMP JUMPDEST PUSH2 0x2ED DUP2 PUSH2 0xAD9 JUMP JUMPDEST SWAP1 SLOAD SWAP1 DUP4 SHL SHR PUSH2 0x2FC DUP3 PUSH2 0xBA3 JUMP JUMPDEST SWAP1 SWAP2 DUP3 SLOAD DUP3 DUP7 SHL SHR SWAP1 PUSH2 0x30E SWAP2 PUSH2 0xDCF JUMP JUMPDEST DUP3 SLOAD PUSH1 0x0 NOT PUSH1 0x3 SWAP4 SWAP1 SWAP4 SHL SWAP3 DUP4 SHL NOT AND SWAP2 SHL OR SWAP1 SSTORE PUSH2 0x32C DUP2 PUSH2 0xBA3 JUMP JUMPDEST SWAP1 SLOAD SWAP1 DUP4 SHL SHR PUSH2 0x33B DUP3 PUSH2 0xB6C JUMP JUMPDEST SWAP1 SLOAD SWAP1 DUP5 SHL SHR LT SWAP2 PUSH1 0x1 SWAP3 PUSH2 0x352 JUMPI JUMPDEST POP ADD PUSH2 0x1AC JUMP JUMPDEST PUSH2 0x396 SWAP1 PUSH2 0x35F DUP4 PUSH2 0xB6C JUMP JUMPDEST SWAP1 SLOAD SWAP1 DUP3 SHL SHR PUSH2 0x37F PUSH2 0x371 DUP6 PUSH2 0xBA3 JUMP JUMPDEST SWAP3 SWAP1 SWAP4 DUP4 DUP6 SLOAD SWAP2 SHL SHR PUSH2 0xDC2 JUMP JUMPDEST DUP3 SLOAD PUSH1 0x0 NOT PUSH1 0x3 SWAP4 SWAP1 SWAP4 SHL SWAP3 DUP4 SHL NOT AND SWAP2 SHL OR SWAP1 SSTORE JUMP JUMPDEST DUP7 PUSH2 0x34B JUMP JUMPDEST DUP7 SWAP2 POP DUP9 MLOAD SWAP2 PUSH3 0x461BCD PUSH1 0xE5 SHL DUP4 MSTORE DUP3 ADD MSTORE PUSH1 0x1C PUSH1 0x24 DUP3 ADD MSTORE PUSH32 0x56656C6F6369747920696E646578206F7574206F6620626F756E647300000000 PUSH1 0x44 DUP3 ADD MSTORE REVERT JUMPDEST PUSH4 0x4E487B71 PUSH1 0xE0 SHL DUP8 MSTORE PUSH1 0x11 DUP9 MSTORE PUSH1 0x24 DUP8 REVERT JUMPDEST POP DUP1 RETURN JUMPDEST DUP4 MLOAD PUSH3 0x461BCD PUSH1 0xE5 SHL DUP2 MSTORE PUSH1 0x20 DUP2 DUP5 ADD MSTORE PUSH1 0x15 PUSH1 0x24 DUP3 ADD MSTORE PUSH21 0x82E4E4C2F240D8CADCCEE8D040DAD2E6DAC2E8C6D PUSH1 0x5B SHL PUSH1 0x44 DUP3 ADD MSTORE PUSH1 0x64 SWAP1 REVERT JUMPDEST PUSH2 0x44C SWAP2 SWAP4 POP RETURNDATASIZE DUP1 DUP6 DUP4 RETURNDATACOPY PUSH2 0x444 DUP2 DUP4 PUSH2 0xC3A JUMP JUMPDEST DUP2 ADD SWAP1 PUSH2 0xD34 JUMP JUMPDEST SWAP2 DUP5 PUSH2 0x1A0 JUMP JUMPDEST POP DUP4 MLOAD SWAP1 RETURNDATASIZE SWAP1 DUP3 RETURNDATACOPY RETURNDATASIZE SWAP1 REVERT JUMPDEST POP SWAP2 CALLVALUE PUSH2 0x154 JUMPI PUSH1 0x20 SWAP1 PUSH1 0x20 PUSH1 0x3 NOT CALLDATASIZE ADD SLT PUSH2 0x154 JUMPI DUP4 CALLDATALOAD SWAP4 PUSH8 0xFFFFFFFFFFFFFFFF DUP6 GT PUSH2 0x4F2 JUMPI CALLDATASIZE PUSH1 0x23 DUP7 ADD SLT ISZERO PUSH2 0x4F2 JUMPI DUP5 ADD CALLDATALOAD PUSH2 0x49E DUP2 PUSH2 0xC5C JUMP JUMPDEST SWAP5 PUSH2 0x4AB DUP6 MLOAD SWAP7 DUP8 PUSH2 0xC3A JUMP JUMPDEST DUP2 DUP7 MSTORE PUSH1 0x24 PUSH1 0x20 DUP8 ADD SWAP3 PUSH1 0x5 SHL DUP3 ADD ADD SWAP3 CALLDATASIZE DUP5 GT PUSH2 0x154 JUMPI POP PUSH1 0x24 ADD SWAP1 JUMPDEST DUP3 DUP3 LT PUSH2 0x4E3 JUMPI PUSH1 0x20 DUP6 PUSH2 0x4DC DUP9 PUSH2 0xDDC JUMP JUMPDEST SWAP1 MLOAD SWAP1 DUP2 MSTORE RETURN JUMPDEST DUP2 CALLDATALOAD DUP2 MSTORE SWAP1 DUP4 ADD SWAP1 DUP4 ADD PUSH2 0x4C9 JUMP JUMPDEST POP DUP1 REVERT JUMPDEST DUP3 DUP5 CALLVALUE PUSH2 0x154 JUMPI DUP1 PUSH1 0x3 NOT CALLDATASIZE ADD SLT PUSH2 0x154 JUMPI SWAP1 DUP1 MLOAD SWAP2 DUP3 SWAP1 PUSH1 0x2 SLOAD SWAP2 DUP3 DUP6 MSTORE PUSH1 0x20 DUP1 SWAP6 ADD DUP1 SWAP4 PUSH1 0x2 PUSH1 0x0 MSTORE PUSH1 0x0 DUP1 MLOAD PUSH1 0x20 PUSH2 0x102D DUP4 CODECOPY DUP2 MLOAD SWAP2 MSTORE SWAP1 PUSH1 0x0 JUMPDEST DUP2 DUP2 LT PUSH2 0x585 JUMPI POP POP POP DUP2 PUSH2 0x54A SWAP2 SUB DUP3 PUSH2 0xC3A JUMP JUMPDEST DUP4 MLOAD SWAP5 DUP6 SWAP5 DUP2 DUP7 ADD SWAP3 DUP3 DUP8 MSTORE MLOAD DUP1 SWAP4 MSTORE DUP6 ADD SWAP4 SWAP3 JUMPDEST DUP3 DUP2 LT PUSH2 0x56E JUMPI POP POP POP POP SUB SWAP1 RETURN JUMPDEST DUP4 MLOAD DUP6 MSTORE DUP7 SWAP6 POP SWAP4 DUP2 ADD SWAP4 SWAP3 DUP2 ADD SWAP3 PUSH1 0x1 ADD PUSH2 0x55F JUMP JUMPDEST DUP3 SLOAD DUP5 MSTORE SWAP3 DUP9 ADD SWAP3 PUSH1 0x1 SWAP3 DUP4 ADD SWAP3 ADD PUSH2 0x534 JUMP JUMPDEST POP CALLVALUE PUSH2 0x157 JUMPI PUSH1 0x20 CALLDATASIZE PUSH1 0x3 NOT ADD SLT PUSH2 0x157 JUMPI CALLDATALOAD SWAP2 PUSH1 0xD SLOAD DUP4 LT ISZERO PUSH2 0x154 JUMPI POP PUSH2 0x146 PUSH1 0x20 SWAP3 PUSH2 0xB6C JUMP JUMPDEST POP POP CALLVALUE PUSH2 0x4F2 JUMPI DUP2 PUSH1 0x3 NOT CALLDATASIZE ADD SLT PUSH2 0x4F2 JUMPI PUSH1 0x20 SWAP1 PUSH1 0x9 SLOAD SWAP1 MLOAD SWAP1 DUP2 MSTORE RETURN JUMPDEST POP CALLVALUE PUSH2 0x157 JUMPI PUSH1 0x20 CALLDATASIZE PUSH1 0x3 NOT ADD SLT PUSH2 0x157 JUMPI CALLDATALOAD PUSH1 0xB SLOAD DUP2 LT ISZERO PUSH2 0x157 JUMPI PUSH1 0x20 SWAP3 POP PUSH1 0xB PUSH1 0x0 MSTORE PUSH32 0x175B7A638427703F0DBE7BB9BBF987A2551717B34E79F33B5B1008D1FA01DB9 ADD SLOAD SWAP1 MLOAD SWAP1 DUP2 MSTORE RETURN JUMPDEST POP CALLVALUE PUSH2 0x157 JUMPI PUSH1 0x20 CALLDATASIZE PUSH1 0x3 NOT ADD SLT PUSH2 0x157 JUMPI CALLDATALOAD SWAP2 PUSH1 0x8 SLOAD DUP4 LT ISZERO PUSH2 0x154 JUMPI POP PUSH2 0x146 PUSH1 0x20 SWAP3 PUSH2 0xB35 JUMP JUMPDEST POP CALLVALUE PUSH2 0x157 JUMPI PUSH1 0x20 CALLDATASIZE PUSH1 0x3 NOT ADD SLT PUSH2 0x157 JUMPI CALLDATALOAD SWAP2 PUSH1 0x2 SLOAD DUP4 LT ISZERO PUSH2 0x154 JUMPI POP PUSH2 0x146 PUSH1 0x20 SWAP3 PUSH2 0xB10 JUMP JUMPDEST POP SWAP2 SWAP1 CALLVALUE PUSH2 0x4F2 JUMPI DUP2 PUSH1 0x3 NOT CALLDATASIZE ADD SLT PUSH2 0x4F2 JUMPI PUSH2 0x6B7 DUP2 MLOAD PUSH2 0x6B2 DUP2 PUSH2 0x6AB DUP2 PUSH2 0xCB2 JUMP JUMPDEST SUB DUP3 PUSH2 0xC3A JUMP JUMPDEST PUSH2 0xDDC JUMP JUMPDEST SWAP3 PUSH1 0x3 SLOAD DUP5 LT PUSH2 0x7B0 JUMPI JUMPDEST PUSH1 0x10 SLOAD DUP3 MLOAD PUSH4 0x2BA8F1B3 PUSH1 0xE0 SHL DUP2 MSTORE SWAP4 SWAP5 DUP6 SWAP5 PUSH1 0x1 PUSH1 0x1 PUSH1 0xA0 SHL SUB SWAP1 SWAP3 AND SWAP2 DUP6 DUP2 DUP6 DUP2 DUP7 GAS STATICCALL SWAP1 DUP2 ISZERO PUSH2 0x7A6 JUMPI SWAP1 PUSH2 0x701 SWAP2 DUP8 SWAP2 PUSH2 0x78C JUMPI JUMPDEST POP PUSH2 0xDDC JUMP JUMPDEST DUP2 LT PUSH2 0x70B JUMPI DUP5 DUP1 RETURN JUMPDEST DUP2 EXTCODESIZE ISZERO PUSH2 0x788 JUMPI DUP5 SWAP2 DUP5 MLOAD DUP1 SWAP7 DUP2 DUP1 SWAP5 PUSH4 0xA5CDC59B PUSH1 0xE0 SHL DUP3 MSTORE DUP9 DUP9 DUP4 ADD MSTORE PUSH2 0x736 PUSH1 0x44 DUP4 ADD PUSH2 0xCB2 JUMP JUMPDEST SWAP1 PUSH1 0x24 DUP4 ADD MSTORE SUB SWAP3 GAS CALL DUP1 ISZERO PUSH2 0x77E JUMPI PUSH2 0x752 JUMPI JUMPDEST DUP1 DUP5 SWAP4 DUP5 DUP1 RETURN JUMPDEST PUSH8 0xFFFFFFFFFFFFFFFF DUP4 GT PUSH2 0x76B JUMPI POP MSTORE CODESIZE DUP1 DUP1 PUSH2 0x74B JUMP JUMPDEST PUSH4 0x4E487B71 PUSH1 0xE0 SHL DUP5 MSTORE PUSH1 0x41 SWAP1 MSTORE PUSH1 0x24 DUP4 REVERT JUMPDEST DUP3 MLOAD RETURNDATASIZE DUP7 DUP3 RETURNDATACOPY RETURNDATASIZE SWAP1 REVERT JUMPDEST DUP5 DUP1 REVERT JUMPDEST PUSH2 0x7A0 SWAP2 POP RETURNDATASIZE DUP1 DUP10 DUP4 RETURNDATACOPY PUSH2 0x444 DUP2 DUP4 PUSH2 0xC3A JUMP JUMPDEST CODESIZE PUSH2 0x6FB JUMP JUMPDEST DUP6 MLOAD RETURNDATASIZE DUP9 DUP3 RETURNDATACOPY RETURNDATASIZE SWAP1 REVERT JUMPDEST DUP4 PUSH1 0x3 SSTORE DUP3 SLOAD SWAP4 PUSH8 0xFFFFFFFFFFFFFFFF DUP6 GT PUSH2 0x874 JUMPI PUSH9 0x10000000000000000 DUP6 GT PUSH2 0x874 JUMPI PUSH1 0x2 SLOAD DUP6 PUSH1 0x2 SSTORE DUP1 DUP7 LT PUSH2 0x846 JUMPI JUMPDEST POP PUSH32 0x290DECD9548B62A8D60345A988386FC84BA6BC95484008F6362F93160EF3E563 SWAP5 PUSH1 0x2 DUP6 MSTORE DUP6 SLOAD DUP6 SWAP1 JUMPDEST DUP3 DUP3 LT PUSH2 0x822 JUMPI POP POP POP SWAP4 POP PUSH2 0x6C2 JUMP JUMPDEST PUSH1 0x1 DUP1 SWAP2 SWAP9 ADD SWAP2 DUP3 SLOAD SWAP9 DUP2 PUSH1 0x0 DUP1 MLOAD PUSH1 0x20 PUSH2 0x102D DUP4 CODECOPY DUP2 MLOAD SWAP2 MSTORE ADD SSTORE ADD SWAP1 SWAP7 PUSH2 0x811 JUMP JUMPDEST DUP6 PUSH1 0x0 DUP1 MLOAD PUSH1 0x20 PUSH2 0x102D DUP4 CODECOPY DUP2 MLOAD SWAP2 MSTORE SWAP2 DUP3 ADD SWAP2 ADD JUMPDEST DUP2 DUP2 LT PUSH2 0x869 JUMPI POP PUSH2 0x7E5 JUMP JUMPDEST DUP6 DUP2 SSTORE PUSH1 0x1 ADD PUSH2 0x85C JUMP JUMPDEST PUSH4 0x4E487B71 PUSH1 0xE0 SHL DUP5 MSTORE PUSH1 0x41 DUP3 MSTORE PUSH1 0x24 DUP5 REVERT JUMPDEST POP CALLVALUE PUSH2 0x157 JUMPI PUSH1 0x20 CALLDATASIZE PUSH1 0x3 NOT ADD SLT PUSH2 0x157 JUMPI CALLDATALOAD PUSH1 0xA SLOAD DUP2 LT ISZERO PUSH2 0x157 JUMPI PUSH1 0xA PUSH1 0x20 SWAP4 MSTORE PUSH32 0xC65A7BB8D6351C1CF70C95A316CC6A92839C986682D98BC35F958F4883F9D2A8 ADD SLOAD SWAP1 MLOAD SWAP1 DUP2 MSTORE RETURN JUMPDEST POP POP CALLVALUE PUSH2 0x4F2 JUMPI DUP2 PUSH1 0x3 NOT CALLDATASIZE ADD SLT PUSH2 0x4F2 JUMPI PUSH1 0x10 SLOAD SWAP1 MLOAD PUSH1 0x1 PUSH1 0x1 PUSH1 0xA0 SHL SUB SWAP1 SWAP2 AND DUP2 MSTORE PUSH1 0x20 SWAP1 RETURN JUMPDEST POP CALLVALUE PUSH2 0x157 JUMPI PUSH1 0x20 CALLDATASIZE PUSH1 0x3 NOT ADD SLT PUSH2 0x157 JUMPI CALLDATALOAD SWAP2 PUSH1 0x1 SLOAD DUP4 LT ISZERO PUSH2 0x154 JUMPI POP PUSH2 0x146 PUSH1 0x20 SWAP3 PUSH2 0xAD9 JUMP JUMPDEST POP POP CALLVALUE PUSH2 0x4F2 JUMPI DUP2 PUSH1 0x3 NOT CALLDATASIZE ADD SLT PUSH2 0x4F2 JUMPI PUSH1 0x20 SWAP1 PUSH1 0xE SLOAD SWAP1 MLOAD SWAP1 DUP2 MSTORE RETURN JUMPDEST POP POP CALLVALUE PUSH2 0x4F2 JUMPI DUP2 PUSH1 0x3 NOT CALLDATASIZE ADD SLT PUSH2 0x4F2 JUMPI PUSH1 0x20 SWAP1 PUSH1 0x5 SLOAD SWAP1 MLOAD SWAP1 DUP2 MSTORE RETURN JUMPDEST POP CALLVALUE PUSH2 0x157 JUMPI PUSH1 0x20 CALLDATASIZE PUSH1 0x3 NOT ADD SLT PUSH2 0x157 JUMPI CALLDATALOAD PUSH1 0xC SLOAD DUP2 LT ISZERO PUSH2 0x157 JUMPI PUSH1 0xC PUSH1 0x20 SWAP4 MSTORE PUSH32 0xDF6966C971051C3D54EC59162606531493A51404A002842F56009D7E5CF4A8C7 ADD SLOAD SWAP1 MLOAD SWAP1 DUP2 MSTORE RETURN JUMPDEST POP POP CALLVALUE PUSH2 0x4F2 JUMPI DUP2 PUSH1 0x3 NOT CALLDATASIZE ADD SLT PUSH2 0x4F2 JUMPI PUSH1 0x20 SWAP1 PUSH1 0x3 SLOAD SWAP1 MLOAD SWAP1 DUP2 MSTORE RETURN JUMPDEST POP POP CALLVALUE PUSH2 0x4F2 JUMPI DUP2 PUSH1 0x3 NOT CALLDATASIZE ADD SLT PUSH2 0x4F2 JUMPI PUSH1 0x20 SWAP1 PUSH1 0xF SLOAD SWAP1 MLOAD SWAP1 DUP2 MSTORE RETURN JUMPDEST POP POP CALLVALUE PUSH2 0x4F2 JUMPI DUP2 PUSH1 0x3 NOT CALLDATASIZE ADD SLT PUSH2 0x4F2 JUMPI PUSH1 0x20 SWAP1 PUSH1 0x6 SLOAD SWAP1 MLOAD SWAP1 DUP2 MSTORE RETURN JUMPDEST DUP4 CALLVALUE PUSH2 0x154 JUMPI PUSH2 0xA2B PUSH2 0xA21 CALLDATASIZE PUSH2 0xBED JUMP JUMPDEST SWAP2 SWAP1 DUP4 SLOAD GT PUSH2 0xC74 JUMP JUMPDEST PUSH1 0x9 SSTORE DUP1 RETURN JUMPDEST DUP4 CALLVALUE PUSH2 0x154 JUMPI PUSH2 0xA43 PUSH2 0xA21 CALLDATASIZE PUSH2 0xBED JUMP JUMPDEST PUSH1 0xE SSTORE DUP1 RETURN JUMPDEST POP CALLVALUE PUSH2 0x157 JUMPI DUP3 PUSH1 0x3 NOT CALLDATASIZE ADD SLT PUSH2 0x157 JUMPI PUSH1 0x20 SWAP3 POP SLOAD SWAP1 MLOAD SWAP1 DUP2 MSTORE RETURN JUMPDEST POP CALLVALUE PUSH2 0x157 JUMPI PUSH1 0x20 CALLDATASIZE PUSH1 0x3 NOT ADD SLT PUSH2 0x157 JUMPI CALLDATALOAD SWAP2 PUSH1 0x7 SLOAD DUP4 LT ISZERO PUSH2 0x154 JUMPI POP PUSH2 0x146 PUSH1 0x20 SWAP3 JUMPDEST PUSH1 0x7 SLOAD DUP2 LT ISZERO PUSH2 0xAC3 JUMPI PUSH1 0x7 PUSH1 0x0 MSTORE PUSH32 0xA66CC928B5EDB82AF9BD49922954155AB7B0942694BEA4CE44661D9A8736C688 ADD SWAP1 PUSH1 0x0 SWAP1 JUMP JUMPDEST PUSH4 0x4E487B71 PUSH1 0xE0 SHL PUSH1 0x0 MSTORE PUSH1 0x32 PUSH1 0x4 MSTORE PUSH1 0x24 PUSH1 0x0 REVERT JUMPDEST PUSH1 0x1 SLOAD DUP2 LT ISZERO PUSH2 0xAC3 JUMPI PUSH1 0x1 PUSH1 0x0 MSTORE PUSH32 0xB10E2D527612073B26EECDFD717E6A320CF44B4AFAC2B0732D9FCBE2B7FA0CF6 ADD SWAP1 PUSH1 0x0 SWAP1 JUMP JUMPDEST PUSH1 0x2 SLOAD DUP2 LT ISZERO PUSH2 0xAC3 JUMPI PUSH1 0x2 PUSH1 0x0 MSTORE PUSH1 0x0 DUP1 MLOAD PUSH1 0x20 PUSH2 0x102D DUP4 CODECOPY DUP2 MLOAD SWAP2 MSTORE ADD SWAP1 PUSH1 0x0 SWAP1 JUMP JUMPDEST PUSH1 0x8 SLOAD DUP2 LT ISZERO PUSH2 0xAC3 JUMPI PUSH1 0x8 PUSH1 0x0 MSTORE PUSH32 0xF3F7A9FE364FAAB93B216DA50A3214154F22A0A2B415B23A84C8169E8B636EE3 ADD SWAP1 PUSH1 0x0 SWAP1 JUMP JUMPDEST PUSH1 0xD SLOAD DUP2 LT ISZERO PUSH2 0xAC3 JUMPI PUSH1 0xD PUSH1 0x0 MSTORE PUSH32 0xD7B6990105719101DABEB77144F2A3385C8033ACD3AF97E9423A695E81AD1EB5 ADD SWAP1 PUSH1 0x0 SWAP1 JUMP JUMPDEST SWAP1 PUSH1 0x0 SWAP2 DUP3 SLOAD DUP2 LT ISZERO PUSH2 0xBD9 JUMPI DUP3 DUP1 MSTORE PUSH32 0x290DECD9548B62A8D60345A988386FC84BA6BC95484008F6362F93160EF3E563 ADD SWAP2 SWAP1 JUMP JUMPDEST PUSH4 0x4E487B71 PUSH1 0xE0 SHL DUP4 MSTORE PUSH1 0x32 PUSH1 0x4 MSTORE PUSH1 0x24 DUP4 REVERT JUMPDEST PUSH1 0x40 SWAP1 PUSH1 0x3 NOT ADD SLT PUSH2 0xC03 JUMPI PUSH1 0x4 CALLDATALOAD SWAP1 PUSH1 0x24 CALLDATALOAD SWAP1 JUMP JUMPDEST PUSH1 0x0 DUP1 REVERT JUMPDEST PUSH1 0x60 DUP2 ADD SWAP1 DUP2 LT PUSH8 0xFFFFFFFFFFFFFFFF DUP3 GT OR PUSH2 0xC24 JUMPI PUSH1 0x40 MSTORE JUMP JUMPDEST PUSH4 0x4E487B71 PUSH1 0xE0 SHL PUSH1 0x0 MSTORE PUSH1 0x41 PUSH1 0x4 MSTORE PUSH1 0x24 PUSH1 0x0 REVERT JUMPDEST SWAP1 PUSH1 0x1F DUP1 NOT SWAP2 ADD AND DUP2 ADD SWAP1 DUP2 LT PUSH8 0xFFFFFFFFFFFFFFFF DUP3 GT OR PUSH2 0xC24 JUMPI PUSH1 0x40 MSTORE JUMP JUMPDEST PUSH8 0xFFFFFFFFFFFFFFFF DUP2 GT PUSH2 0xC24 JUMPI PUSH1 0x5 SHL PUSH1 0x20 ADD SWAP1 JUMP JUMPDEST ISZERO PUSH2 0xC7B JUMPI JUMP JUMPDEST PUSH1 0x40 MLOAD PUSH3 0x461BCD PUSH1 0xE5 SHL DUP2 MSTORE PUSH1 0x20 PUSH1 0x4 DUP3 ADD MSTORE PUSH1 0xF PUSH1 0x24 DUP3 ADD MSTORE PUSH15 0x139BD919481251081A5B9D985B1A59 PUSH1 0x8A SHL PUSH1 0x44 DUP3 ADD MSTORE PUSH1 0x64 SWAP1 REVERT JUMPDEST PUSH1 0x0 DUP1 SLOAD DUP1 DUP4 MSTORE DUP2 DUP1 MSTORE PUSH1 0x20 SWAP3 DUP4 ADD SWAP3 PUSH32 0x290DECD9548B62A8D60345A988386FC84BA6BC95484008F6362F93160EF3E563 SWAP3 SWAP1 JUMPDEST DUP3 DUP3 LT PUSH2 0xCF4 JUMPI POP POP POP POP SWAP1 JUMP JUMPDEST DUP4 SLOAD DUP6 MSTORE SWAP4 DUP5 ADD SWAP4 PUSH1 0x1 SWAP4 DUP5 ADD SWAP4 SWAP1 SWAP2 ADD SWAP1 PUSH2 0xCE6 JUMP JUMPDEST DUP2 DUP2 MUL SWAP3 SWAP2 DUP2 ISZERO SWAP2 DUP5 DIV EQ OR ISZERO PUSH2 0xD1E JUMPI JUMP JUMPDEST PUSH4 0x4E487B71 PUSH1 0xE0 SHL PUSH1 0x0 MSTORE PUSH1 0x11 PUSH1 0x4 MSTORE PUSH1 0x24 PUSH1 0x0 REVERT JUMPDEST PUSH1 0x20 SWAP1 DUP2 DUP2 DUP5 SUB SLT PUSH2 0xC03 JUMPI DUP1 MLOAD SWAP1 PUSH8 0xFFFFFFFFFFFFFFFF DUP3 GT PUSH2 0xC03 JUMPI ADD SWAP2 DUP1 PUSH1 0x1F DUP5 ADD SLT ISZERO PUSH2 0xC03 JUMPI DUP3 MLOAD PUSH2 0xD6A DUP2 PUSH2 0xC5C JUMP JUMPDEST SWAP4 PUSH2 0xD78 PUSH1 0x40 MLOAD SWAP6 DUP7 PUSH2 0xC3A JUMP JUMPDEST DUP2 DUP6 MSTORE DUP4 DUP1 DUP7 ADD SWAP3 PUSH1 0x5 SHL DUP3 ADD ADD SWAP3 DUP4 GT PUSH2 0xC03 JUMPI DUP4 ADD SWAP1 JUMPDEST DUP3 DUP3 LT PUSH2 0xD9F JUMPI POP POP POP POP SWAP1 JUMP JUMPDEST DUP2 MLOAD DUP2 MSTORE SWAP1 DUP4 ADD SWAP1 DUP4 ADD PUSH2 0xD91 JUMP JUMPDEST DUP1 MLOAD DUP3 LT ISZERO PUSH2 0xAC3 JUMPI PUSH1 0x20 SWAP2 PUSH1 0x5 SHL ADD ADD SWAP1 JUMP JUMPDEST SWAP2 SWAP1 DUP3 SUB SWAP2 DUP3 GT PUSH2 0xD1E JUMPI JUMP JUMPDEST SWAP2 SWAP1 DUP3 ADD DUP1 SWAP3 GT PUSH2 0xD1E JUMPI JUMP JUMPDEST SWAP1 PUSH1 0x0 SWAP2 PUSH1 0x40 MLOAD DUP1 SWAP2 PUSH1 0xA SLOAD DUP1 DUP4 MSTORE PUSH1 0x20 DUP1 SWAP4 ADD SWAP1 PUSH1 0xA DUP8 MSTORE PUSH32 0xC65A7BB8D6351C1CF70C95A316CC6A92839C986682D98BC35F958F4883F9D2A8 SWAP1 DUP8 JUMPDEST DUP2 DUP2 LT PUSH2 0x1018 JUMPI POP POP POP DUP4 PUSH2 0xE2F SWAP2 SUB DUP5 PUSH2 0xC3A JUMP JUMPDEST PUSH1 0x40 MLOAD DUP1 SWAP3 PUSH1 0x20 PUSH1 0xC SLOAD SWAP3 DUP4 DUP2 MSTORE ADD SWAP2 PUSH1 0xC DUP9 MSTORE PUSH32 0xDF6966C971051C3D54EC59162606531493A51404A002842F56009D7E5CF4A8C7 SWAP2 DUP9 SWAP1 JUMPDEST DUP3 DUP3 LT PUSH2 0x1001 JUMPI POP POP POP POP DUP3 PUSH2 0xE7F SWAP2 SUB DUP4 PUSH2 0xC3A JUMP JUMPDEST DUP5 SWAP3 PUSH1 0xE SLOAD SWAP6 JUMPDEST DUP3 MLOAD DUP6 LT ISZERO PUSH2 0xFF9 JUMPI PUSH2 0xF4F PUSH1 0x1 SWAP2 PUSH2 0xE9F DUP8 DUP7 PUSH2 0xDAE JUMP JUMPDEST MLOAD DUP1 PUSH2 0xEAB DUP10 DUP8 PUSH2 0xDAE JUMP JUMPDEST MLOAD LT PUSH2 0xFD9 JUMPI POP PUSH1 0x0 PUSH2 0xED2 PUSH2 0xEC1 DUP10 DUP9 PUSH2 0xDAE JUMP JUMPDEST MLOAD PUSH2 0xECC DUP11 DUP9 PUSH2 0xDAE JUMP JUMPDEST MLOAD PUSH2 0xDC2 JUMP JUMPDEST PUSH2 0xEDC DUP10 DUP8 PUSH2 0xDAE JUMP JUMPDEST MSTORE JUMPDEST DUP1 PUSH2 0xEE9 DUP10 DUP10 PUSH2 0xDAE JUMP JUMPDEST MLOAD LT PUSH2 0xFB1 JUMPI PUSH2 0xEFD SWAP1 PUSH2 0xECC DUP10 DUP10 PUSH2 0xDAE JUMP JUMPDEST PUSH2 0xF07 DUP9 DUP9 PUSH2 0xDAE JUMP JUMPDEST MSTORE PUSH1 0x0 SWAP1 JUMPDEST DUP2 PUSH2 0xF27 PUSH2 0xF19 DUP11 PUSH2 0xA8C JUMP JUMPDEST SWAP5 SWAP1 SLOAD PUSH1 0x3 SWAP6 DUP7 SHL SHR PUSH2 0xD0B JUMP JUMPDEST SWAP3 DUP12 DUP1 DUP4 GT PUSH2 0xF8F JUMPI JUMPDEST POP PUSH2 0xF3B DUP11 PUSH2 0xB35 JUMP JUMPDEST SWAP1 SLOAD SWAP1 DUP3 SHL SHR DUP3 GT PUSH2 0xF57 JUMPI JUMPDEST POP POP PUSH2 0xDCF JUMP JUMPDEST SWAP5 ADD SWAP4 PUSH2 0xE86 JUMP JUMPDEST PUSH2 0xF78 PUSH2 0xF87 SWAP4 SWAP5 SWAP3 PUSH2 0xF81 SWAP3 PUSH2 0xF6D DUP14 PUSH2 0xB35 JUMP JUMPDEST SWAP1 SLOAD SWAP2 SHL SHR SWAP1 PUSH2 0xDC2 JUMP JUMPDEST PUSH1 0x9 SLOAD SWAP1 PUSH2 0xD0B JUMP JUMPDEST SWAP1 PUSH2 0xDCF JUMP JUMPDEST SWAP1 CODESIZE DUP1 PUSH2 0xF48 JUMP JUMPDEST SWAP4 PUSH2 0xF81 PUSH2 0xFA1 PUSH2 0xFAA SWAP4 SWAP7 DUP6 PUSH2 0xDC2 JUMP JUMPDEST PUSH1 0xF SLOAD SWAP1 PUSH2 0xD0B JUMP JUMPDEST SWAP3 DUP12 PUSH2 0xF31 JUMP JUMPDEST PUSH2 0xFC6 SWAP1 PUSH2 0xFBF DUP10 DUP10 PUSH2 0xDAE JUMP JUMPDEST MLOAD SWAP1 PUSH2 0xDC2 JUMP JUMPDEST SWAP1 PUSH1 0x0 PUSH2 0xFD3 DUP10 DUP10 PUSH2 0xDAE JUMP JUMPDEST MSTORE PUSH2 0xF0C JUMP JUMPDEST PUSH2 0xFE7 SWAP1 PUSH2 0xFBF DUP10 DUP8 PUSH2 0xDAE JUMP JUMPDEST PUSH1 0x0 PUSH2 0xFF3 DUP10 DUP8 PUSH2 0xDAE JUMP JUMPDEST MSTORE PUSH2 0xEDE JUMP JUMPDEST SWAP6 POP POP POP POP POP JUMP JUMPDEST DUP4 SLOAD DUP6 MSTORE SWAP4 DUP5 ADD SWAP4 PUSH1 0x1 SWAP4 DUP5 ADD SWAP4 SWAP1 SWAP2 ADD SWAP1 PUSH2 0xE68 JUMP JUMPDEST DUP3 SLOAD DUP5 MSTORE SWAP3 DUP6 ADD SWAP3 PUSH1 0x1 SWAP3 DUP4 ADD SWAP3 ADD PUSH2 0xE19 JUMP INVALID BLOCKHASH JUMPI DUP8 STATICCALL SLT 0xA8 0x23 0xE0 CALLCODE 0xB7 PUSH4 0x1CC41B3B 0xA8 DUP3 DUP12 CALLER 0x21 0xCA DUP2 GT GT STATICCALL PUSH22 0xCD3AA3BB5ACEA2646970667358221220E65594BA625D GASPRICE SWAP11 GASPRICE 0xC8 0x2B SWAP1 0xAD PUSH10 0x58EF6F66E6FC0528DADF RETURN 0xC4 XOR RETURNDATASIZE 0x2F 0xB0 BASEFEE 0xF7 PUSH5 0x736F6C6343 STOP ADDMOD OR STOP CALLER "},"methodIdentifiers":{"batteryCapacity(uint256)":"b6ce6709","batteryCharge(uint256)":"4eb274ff","c1()":"5f57697c","c2()":"48e257cb","capacity(uint256)":"ab1bbeca","flexibleLoad(uint256)":"e329143f","getPersonalBestPosition()":"e7d46385","globalContract()":"90ccfa0f","objectiveFunction(uint256[])":"f0374885","peakDemandPenalty()":"4a702c3d","peakDemandThreshold()":"69cd1db8","penaltyRate()":"d6b7494f","personalBestPosition(uint256)":"a86853d5","personalBestScore()":"4d985ae4","position(uint256)":"f7a95a9e","renewableGeneration(uint256)":"96d14da6","tariff(uint256)":"16b51928","updateBestPositions()":"973b9cc1","updatePeakDemandThreshold(uint256,uint256)":"278a3280","updatePenaltyRate(uint256,uint256)":"298c96e4","updateVelocityAndPosition()":"f6451c0a","velocity(uint256)":"6f240774","w()":"205c9cc7"}}}}}