{"contracts/TestContract.sol":{"TestContract":{"abi":[{"inputs":[{"internalType":"uint256","name":"_number","type":"uint256"}],"stateMutability":"nonpayable","type":"constructor"},{"inputs":[],"name":"getNumber","outputs":[{"internalType":"uint256","name":"","type":"uint256"}],"stateMutability":"view","type":"function"},{"inputs":[{"internalType":"uint256","name":"_number","type":"uint256"}],"name":"setNumber","outputs":[{"internalType":"uint256","name":"","type":"uint256"}],"stateMutability":"nonpayable","type":"function"}],"evm":{"bytecode":{"linkReferences":{},"object":"60803461005157601f61017b38819003918201601f19168301916001600160401b0383118484101761005657808492602094604052833981010312610051575160005560405161010e908161006d8239f35b600080fd5b634e487b7160e01b600052604160045260246000fdfe60806040526004361015601157600080fd5b6000803560e01c80633fb5c1cb14604d5763f2c9ecd814603057600080fd5b34604a5780600319360112604a5760209054604051908152f35b80fd5b5034604a576020366003190112604a57600435906001821660a5578160011b91808304600214901517156091576085602092825460b6565b81555b54604051908152f35b634e487b7160e01b81526011600452602490fd5b60b0602092825460b6565b81556088565b9190820180921160c257565b634e487b7160e01b600052601160045260246000fdfea2646970667358221220b8c8db59c0eb1a7a0c8ff50f0af88035da535ab731ab7e2ff70c6b8195ae2b2d64736f6c63430008170033","opcodes":"PUSH1 0x80 CALLVALUE PUSH2 0x51 JUMPI PUSH1 0x1F PUSH2 0x17B CODESIZE DUP2 SWAP1 SUB SWAP2 DUP3 ADD PUSH1 0x1F NOT AND DUP4 ADD SWAP2 PUSH1 0x1 PUSH1 0x1 PUSH1 0x40 SHL SUB DUP4 GT DUP5 DUP5 LT OR PUSH2 0x56 JUMPI DUP1 DUP5 SWAP3 PUSH1 0x20 SWAP5 PUSH1 0x40 MSTORE DUP4 CODECOPY DUP2 ADD SUB SLT PUSH2 0x51 JUMPI MLOAD PUSH1 0x0 SSTORE PUSH1 0x40 MLOAD PUSH2 0x10E SWAP1 DUP2 PUSH2 0x6D DUP3 CODECOPY RETURN JUMPDEST PUSH1 0x0 DUP1 REVERT JUMPDEST PUSH4 0x4E487B71 PUSH1 0xE0 SHL PUSH1 0x0 MSTORE PUSH1 0x41 PUSH1 0x4 MSTORE PUSH1 0x24 PUSH1 0x0 REVERT INVALID PUSH1 0x80 PUSH1 0x40 MSTORE PUSH1 0x4 CALLDATASIZE LT ISZERO PUSH1 0x11 JUMPI PUSH1 0x0 DUP1 REVERT JUMPDEST PUSH1 0x0 DUP1 CALLDATALOAD PUSH1 0xE0 SHR DUP1 PUSH4 0x3FB5C1CB EQ PUSH1 0x4D JUMPI PUSH4 0xF2C9ECD8 EQ PUSH1 0x30 JUMPI PUSH1 0x0 DUP1 REVERT JUMPDEST CALLVALUE PUSH1 0x4A JUMPI DUP1 PUSH1 0x3 NOT CALLDATASIZE ADD SLT PUSH1 0x4A JUMPI PUSH1 0x20 SWAP1 SLOAD PUSH1 0x40 MLOAD SWAP1 DUP2 MSTORE RETURN JUMPDEST DUP1 REVERT JUMPDEST POP CALLVALUE PUSH1 0x4A JUMPI PUSH1 0x20 CALLDATASIZE PUSH1 0x3 NOT ADD SLT PUSH1 0x4A JUMPI PUSH1 0x4 CALLDATALOAD SWAP1 PUSH1 0x1 DUP3 AND PUSH1 0xA5 JUMPI DUP2 PUSH1 0x1 SHL SWAP2 DUP1 DUP4 DIV PUSH1 0x2 EQ SWAP1 ISZERO OR ISZERO PUSH1 0x91 JUMPI PUSH1 0x85 PUSH1 0x20 SWAP3 DUP3 SLOAD PUSH1 0xB6 JUMP JUMPDEST DUP2 SSTORE JUMPDEST SLOAD PUSH1 0x40 MLOAD SWAP1 DUP2 MSTORE RETURN JUMPDEST PUSH4 0x4E487B71 PUSH1 0xE0 SHL DUP2 MSTORE PUSH1 0x11 PUSH1 0x4 MSTORE PUSH1 0x24 SWAP1 REVERT JUMPDEST PUSH1 0xB0 PUSH1 0x20 SWAP3 DUP3 SLOAD PUSH1 0xB6 JUMP JUMPDEST DUP2 SSTORE PUSH1 0x88 JUMP JUMPDEST SWAP2 SWAP1 DUP3 ADD DUP1 SWAP3 GT PUSH1 0xC2 JUMPI JUMP JUMPDEST PUSH4 0x4E487B71 PUSH1 0xE0 SHL PUSH1 0x0 MSTORE PUSH1 0x11 PUSH1 0x4 MSTORE PUSH1 0x24 PUSH1 0x0 REVERT INVALID LOG2 PUSH5 0x6970667358 0x22 SLT KECCAK256 0xB8 0xC8 0xDB MSIZE 0xC0 0xEB BYTE PUSH27 0xC8FF50F0AF88035DA535AB731AB7E2FF70C6B8195AE2B2D64736F PUSH13 0x63430008170033000000000000 "},"methodIdentifiers":{"getNumber()":"f2c9ecd8","setNumber(uint256)":"3fb5c1cb"}}}}}