{"contracts/Node.sol":{"Node":{"abi":[{"inputs":[{"internalType":"address","name":"globalContractAddress","type":"address"},{"internalType":"uint256[]","name":"initialPosition","type":"uint256[]"},{"internalType":"uint256[]","name":"initialVelocity","type":"uint256[]"},{"internalType":"uint256[]","name":"initialTariff","type":"uint256[]"},{"internalType":"uint256[]","name":"initialCapacity","type":"uint256[]"},{"internalType":"uint256[]","name":"initialRenewableGeneration","type":"uint256[]"},{"internalType":"uint256[]","name":"initialBatteryCapacity","type":"uint256[]"},{"internalType":"uint256[]","name":"initialBatteryCharge","type":"uint256[]"},{"internalType":"uint256[]","name":"initialFlexibleLoad","type":"uint256[]"},{"internalType":"uint256","name":"_penaltyRate","type":"uint256"},{"internalType":"uint256","name":"_peakDemandThreshold","type":"uint256"},{"internalType":"uint256","name":"_peakDemandPenalty","type":"uint256"}],"stateMutability":"nonpayable","type":"constructor"},{"inputs":[{"internalType":"uint256","name":"","type":"uint256"}],"name":"batteryCapacity","outputs":[{"internalType":"uint256","name":"","type":"uint256"}],"stateMutability":"view","type":"function"},{"inputs":[{"internalType":"uint256","name":"","type":"uint256"}],"name":"batteryCharge","outputs":[{"internalType":"uint256","name":"","type":"uint256"}],"stateMutability":"view","type":"function"},{"inputs":[],"name":"c1","outputs":[{"internalType":"uint256","name":"","type":"uint256"}],"stateMutability":"view","type":"function"},{"inputs":[],"name":"c2","outputs":[{"internalType":"uint256","name":"","type":"uint256"}],"stateMutability":"view","type":"function"},{"inputs":[{"internalType":"uint256","name":"","type":"uint256"}],"name":"capacity","outputs":[{"internalType":"uint256","name":"","type":"uint256"}],"stateMutability":"view","type":"function"},{"inputs":[{"internalType":"uint256","name":"","type":"uint256"}],"name":"flexibleLoad","outputs":[{"internalType":"uint256","name":"","type":"uint256"}],"stateMutability":"view","type":"function"},{"inputs":[],"name":"globalContract","outputs":[{"internalType":"contract GlobalContractInterface","name":"","type":"address"}],"stateMutability":"view","type":"function"},{"inputs":[{"internalType":"uint256[]","name":"pos","type":"uint256[]"}],"name":"objectiveFunction","outputs":[{"internalType":"uint256","name":"","type":"uint256"}],"stateMutability":"view","type":"function"},{"inputs":[],"name":"peakDemandPenalty","outputs":[{"internalType":"uint256","name":"","type":"uint256"}],"stateMutability":"view","type":"function"},{"inputs":[],"name":"peakDemandThreshold","outputs":[{"internalType":"uint256","name":"","type":"uint256"}],"stateMutability":"view","type":"function"},{"inputs":[],"name":"penaltyRate","outputs":[{"internalType":"uint256","name":"","type":"uint256"}],"stateMutability":"view","type":"function"},{"inputs":[{"internalType":"uint256","name":"","type":"uint256"}],"name":"personalBestPosition","outputs":[{"internalType":"uint256","name":"","type":"uint256"}],"stateMutability":"view","type":"function"},{"inputs":[],"name":"personalBestScore","outputs":[{"internalType":"uint256","name":"","type":"uint256"}],"stateMutability":"view","type":"function"},{"inputs":[{"internalType":"uint256","name":"","type":"uint256"}],"name":"position","outputs":[{"internalType":"uint256","name":"","type":"uint256"}],"stateMutability":"view","type":"function"},{"inputs":[{"internalType":"uint256","name":"","type":"uint256"}],"name":"renewableGeneration","outputs":[{"internalType":"uint256","name":"","type":"uint256"}],"stateMutability":"view","type":"function"},{"inputs":[{"internalType":"uint256","name":"","type":"uint256"}],"name":"tariff","outputs":[{"internalType":"uint256","name":"","type":"uint256"}],"stateMutability":"view","type":"function"},{"inputs":[],"name":"updateBestPositions","outputs":[],"stateMutability":"nonpayable","type":"function"},{"inputs":[{"internalType":"uint256","name":"_peakDemandThreshold","type":"uint256"}],"name":"updatePeakDemandThreshold","outputs":[],"stateMutability":"nonpayable","type":"function"},{"inputs":[{"internalType":"uint256","name":"_penaltyRate","type":"uint256"}],"name":"updatePenaltyRate","outputs":[],"stateMutability":"nonpayable","type":"function"},{"inputs":[],"name":"updateVelocityAndPosition","outputs":[],"stateMutability":"nonpayable","type":"function"},{"inputs":[{"internalType":"uint256","name":"","type":"uint256"}],"name":"velocity","outputs":[{"internalType":"uint256","name":"","type":"uint256"}],"stateMutability":"view","type":"function"},{"inputs":[],"name":"w","outputs":[{"internalType":"uint256","name":"","type":"uint256"}],"stateMutability":"view","type":"function"}],"evm":{"bytecode":{"linkReferences":{},"object":"608060405234620007f957620017a4803803806200001d81620007fe565b92833981019061018081830312620007f95780516001600160a01b0381169290839003620007f95760208201516001600160401b038111620007f957816200006791840162000824565b60408301519091906001600160401b038111620007f957816200008c91850162000824565b60608401519091906001600160401b038111620007f95781620000b191860162000824565b60808501516001600160401b038111620007f95782620000d391870162000824565b60a08601516001600160401b038111620007f95783620000f591880162000824565b60c08701519091906001600160401b038111620007f957846200011a91890162000824565b60e08801519093906001600160401b038111620007f957856200013f918a0162000824565b61010089015190956001600160401b038211620007f95762000163918a0162000824565b6101208901516101408a0151610160909a0151600019600355603260045560966005819055600655601080546001600160a01b031916909c17909b558851909891979091906001600160401b038311620004f357680100000000000000008311620004f35760005483600055808410620007b1575b5060208201928360008052602060002060005b8381106200079c5750508251929150506001600160401b038211620004f357680100000000000000008211620004f3576001548260015580831062000752575b506020016001600052602060002060005b8381106200073d5750509151929150506001600160401b038211620004f357680100000000000000008211620004f35760025482600255808310620006f4575b506002600052602060002060005b838110620006df5750508251929150506001600160401b038211620004f357680100000000000000008211620004f3576007548260075580831062000696575b506020016007600052602060002060005b838110620006815750508251929150506001600160401b038211620004f357680100000000000000008211620004f3576008548260085580831062000638575b506020016008600052602060002060005b838110620006235750508251929150506001600160401b038211620004f357680100000000000000008211620004f357600a5482600a55808310620005da575b50602001600a600052602060002060005b838110620005c55750508251929150506001600160401b038211620004f357680100000000000000008211620004f357600b5482600b558083106200057c575b50602001600b600052602060002060005b838110620005675750508251929150506001600160401b038211620004f357680100000000000000008211620004f357600c5482600c558083106200051e575b50602001600c600052602060002060005b838110620005095750508251929150506001600160401b038211620004f357680100000000000000008211620004f357600d5482600d55808310620004aa575b50602001600d600052602060002060005b838110620004955750505050600955600e55600f55604051610f1690816200088e8239f35b60019060208451940193818401550162000470565b600d6000527fd7b6990105719101dabeb77144f2a3385c8033acd3af97e9423a695e81ad1eb59081019083015b818110620004e657506200045f565b60008155600101620004d7565b634e487b7160e01b600052604160045260246000fd5b6001906020845194019381840155016200041f565b600c6000527fdf6966c971051c3d54ec59162606531493a51404a002842f56009d7e5cf4a8c79081019083015b8181106200055a57506200040e565b600081556001016200054b565b600190602084519401938184015501620003ce565b600b6000527f0175b7a638427703f0dbe7bb9bbf987a2551717b34e79f33b5b1008d1fa01db99081019083015b818110620005b85750620003bd565b60008155600101620005a9565b6001906020845194019381840155016200037d565b600a6000527fc65a7bb8d6351c1cf70c95a316cc6a92839c986682d98bc35f958f4883f9d2a89081019083015b8181106200061657506200036c565b6000815560010162000607565b6001906020845194019381840155016200032c565b60086000527ff3f7a9fe364faab93b216da50a3214154f22a0a2b415b23a84c8169e8b636ee39081019083015b8181106200067457506200031b565b6000815560010162000665565b600190602084519401938184015501620002db565b60076000527fa66cc928b5edb82af9bd49922954155ab7b0942694bea4ce44661d9a8736c6889081019083015b818110620006d25750620002ca565b60008155600101620006c3565b6001906020845194019381840155016200028a565b60026000527f405787fa12a823e0f2b7631cc41b3ba8828b3321ca811111fa75cd3aa3bb5ace9081019083015b8181106200073057506200027c565b6000815560010162000721565b6001906020845194019381840155016200023c565b60016000527fb10e2d527612073b26eecdfd717e6a320cf44b4afac2b0732d9fcbe2b7fa0cf6908382015b81830181106200078f5750506200022b565b600081556001016200077d565b600190602084519401938184015501620001eb565b600080527f290decd9548b62a8d60345a988386fc84ba6bc95484008f6362f93160ef3e5639081019084015b818110620007ec5750620001d8565b60008155600101620007dd565b600080fd5b6040519190601f01601f191682016001600160401b03811183821017620004f357604052565b81601f82011215620007f9578051916020916001600160401b038411620004f3578360051b90838062000859818501620007fe565b809781520192820101928311620007f9578301905b8282106200087d575050505090565b815181529083019083016200086e56fe6040608081526004908136101561001557600080fd5b600091823560e01c806316b51928146109a7578063205c9cc71461098a57806348e257cb1461096b5780634a702c3d1461094c5780634d985ae41461092d5780634eb274ff146108e05780635f57697c146108c157806368633fe3146108a757806369cd1db8146108885780636f2407741461085e57806390ccfa0f1461083557806396d14da6146107e8578063973b9cc114610560578063a86853d514610536578063ab1bbeca1461050c578063b4630583146104f2578063b6ce6709146104a2578063d6b7494f14610483578063e329143f14610459578063f0374885146103c2578063f6451c0a146101505763f7a95a9e1461011357600080fd5b3461014c57602036600319011261014c5735918054831015610149575061013b602092610af6565b91905490519160031b1c8152f35b80fd5b8280fd5b5082346101495780600319360112610149576010548351632ba8f1b360e01b8152929082908490839082906001600160a01b03165afa9283156103b8578293610394575b50815b8254811015610390578451906020918281019042825282888201528781526101be81610b2e565b60649182915190200692600183019081841161037d579082918951908101914283528a8201528981526101f081610b2e565b51902006818554948161020286610a1a565b979054600398891b1c61021491610b9a565b916005549061022291610b9a565b61022b87610a51565b905490891b1c61023a88610af6565b9054908a1b1c61024991610c56565b61025291610b9a565b0461025c91610c63565b916006549061026a91610b9a565b610274858a610c42565b5161027e86610af6565b905490881b1c61028d91610c56565b61029691610b9a565b046102a091610c63565b046102aa82610a1a565b6102c5929082549060031b91821b91600019901b1916179055565b6102ce81610a1a565b905490831b1c6102dd82610af6565b9091825482861b1c906102ef91610c63565b825460001960039390931b92831b1916911b17905561030d81610af6565b905490831b1c61031c82610abf565b905490841b1c1091600192610333575b5001610197565b6103779061034083610abf565b905490821b1c61036061035285610af6565b929093838554911b1c610c56565b825460001960039390931b92831b1916911b179055565b8661032c565b634e487b7160e01b875260118652602487fd5b8280f35b6103b19193503d8084833e6103a98183610b60565b810190610bc3565b9184610194565b84513d84823e3d90fd5b5091346101495760209060206003193601126101495783359367ffffffffffffffff851161045557366023860112156104555784013561040181610b82565b9461040e85519687610b60565b8186526024602087019260051b820101923684116101495750602401905b8282106104465760208561043f88610c70565b9051908152f35b8135815290830190830161042c565b5080fd5b503461014c57602036600319011261014c573591600d54831015610149575061013b602092610abf565b5050346104555781600319360112610455576020906009549051908152f35b503461014c57602036600319011261014c5735600b5481101561014c5760209250600b6000527f0175b7a638427703f0dbe7bb9bbf987a2551717b34e79f33b5b1008d1fa01db901549051908152f35b838234610455576020366003190112610455573560095580f35b503461014c57602036600319011261014c573591600854831015610149575061013b602092610a88565b503461014c57602036600319011261014c573591600254831015610149575061013b602092610a51565b50903461014c578260031936011261014c57805191828454938482526020809201868052600080516020610ec1833981519152875b848882106107d457505050906105b0816105b5930382610b60565b610c70565b9360035485106106f0575b506010548351632ba8f1b360e01b81526001600160a01b03909116919086818581865afa9081156106e657906105fd9188916106cc575b50610c70565b8510610607578580f35b813b156106c857938591845195869263a5cdc59b60e01b84526044840191878786015285548093526064850192868052600080516020610ec18339815191529187905b8282106106aa57505050508380928692602483015203925af180156106a057610674575b80808580f35b67ffffffffffffffff831161068d57505238808061066e565b634e487b7160e01b845260419052602483fd5b82513d86823e3d90fd5b835486528c98508b975094850194600193840193919091019061064a565b8580fd5b6106e091503d808a833e6103a98183610b60565b386105f7565b85513d89823e3d90fd5b8460035567ffffffffffffffff81116107c1576801000000000000000081116107c15760025481600255808210610781575b50600080516020610ec18339815191526002875280549087915b83831061074b575050506105c0565b60018091920192835492817f405787fa12a823e0f2b7631cc41b3ba8828b3321ca811111fa75cd3aa3bb5ace015501919061073c565b817f405787fa12a823e0f2b7631cc41b3ba8828b3321ca811111fa75cd3aa3bb5ace91820191015b8181106107b65750610722565b8781556001016107a9565b634e487b7160e01b865260418352602486fd5b825484529092019160019182019101610595565b503461014c57602036600319011261014c5735600a5481101561014c57600a602093527fc65a7bb8d6351c1cf70c95a316cc6a92839c986682d98bc35f958f4883f9d2a801549051908152f35b50503461045557816003193601126104555760105490516001600160a01b039091168152602090f35b503461014c57602036600319011261014c573591600154831015610149575061013b602092610a1a565b505034610455578160031936011261045557602090600e549051908152f35b8382346104555760203660031901126104555735600e5580f35b5050346104555781600319360112610455576020906005549051908152f35b503461014c57602036600319011261014c5735600c5481101561014c57600c602093527fdf6966c971051c3d54ec59162606531493a51404a002842f56009d7e5cf4a8c701549051908152f35b5050346104555781600319360112610455576020906003549051908152f35b505034610455578160031936011261045557602090600f549051908152f35b5050346104555781600319360112610455576020906006549051908152f35b503461014c578260031936011261014c5760209250549051908152f35b503461014c57602036600319011261014c573591600754831015610149575061013b6020925b600754811015610a045760076000527fa66cc928b5edb82af9bd49922954155ab7b0942694bea4ce44661d9a8736c6880190600090565b634e487b7160e01b600052603260045260246000fd5b600154811015610a045760016000527fb10e2d527612073b26eecdfd717e6a320cf44b4afac2b0732d9fcbe2b7fa0cf60190600090565b600254811015610a045760026000527f405787fa12a823e0f2b7631cc41b3ba8828b3321ca811111fa75cd3aa3bb5ace0190600090565b600854811015610a045760086000527ff3f7a9fe364faab93b216da50a3214154f22a0a2b415b23a84c8169e8b636ee30190600090565b600d54811015610a0457600d6000527fd7b6990105719101dabeb77144f2a3385c8033acd3af97e9423a695e81ad1eb50190600090565b906000918254811015610b1a57828052600080516020610ec1833981519152019190565b634e487b7160e01b83526032600452602483fd5b6060810190811067ffffffffffffffff821117610b4a57604052565b634e487b7160e01b600052604160045260246000fd5b90601f8019910116810190811067ffffffffffffffff821117610b4a57604052565b67ffffffffffffffff8111610b4a5760051b60200190565b81810292918115918404141715610bad57565b634e487b7160e01b600052601160045260246000fd5b6020908181840312610c3d5780519067ffffffffffffffff8211610c3d57019180601f84011215610c3d578251610bf981610b82565b93610c076040519586610b60565b818552838086019260051b820101928311610c3d578301905b828210610c2e575050505090565b81518152908301908301610c20565b600080fd5b8051821015610a045760209160051b010190565b91908203918211610bad57565b91908201809211610bad57565b906000916040518091600a54808352602080930190600a87527fc65a7bb8d6351c1cf70c95a316cc6a92839c986682d98bc35f958f4883f9d2a890875b818110610eac5750505083610cc3910384610b60565b60405180926020600c54928381520191600c88527fdf6966c971051c3d54ec59162606531493a51404a002842f56009d7e5cf4a8c79188905b828210610e95575050505082610d13910383610b60565b8492600e54955b8251851015610e8d57610de3600191610d338786610c42565b5180610d3f8987610c42565b5110610e6d57506000610d66610d558988610c42565b51610d608a88610c42565b51610c56565b610d708987610c42565b525b80610d7d8989610c42565b5110610e4557610d9190610d608989610c42565b610d9b8888610c42565b526000905b81610dbb610dad8a6109cd565b949054600395861b1c610b9a565b928b808311610e23575b50610dcf8a610a88565b905490821b1c8211610deb575b5050610c63565b940193610d1a565b610e0c610e1b939492610e1592610e018d610a88565b9054911b1c90610c56565b60095490610b9a565b90610c63565b903880610ddc565b93610e15610e35610e3e939685610c56565b600f5490610b9a565b928b610dc5565b610e5a90610e538989610c42565b5190610c56565b906000610e678989610c42565b52610da0565b610e7b90610e538987610c42565b6000610e878987610c42565b52610d72565b955050505050565b835485529384019360019384019390910190610cfc565b825484529285019260019283019201610cad56fe290decd9548b62a8d60345a988386fc84ba6bc95484008f6362f93160ef3e563a2646970667358221220f0d05a4452717fd2880671c4f89c14ff779c80207e5be791e7cde605ca3a00d564736f6c63430008170033","opcodes":"PUSH1 0x80 PUSH1 0x40 MSTORE CALLVALUE PUSH3 0x7F9 JUMPI PUSH3 0x17A4 DUP1 CODESIZE SUB DUP1 PUSH3 0x1D DUP2 PUSH3 0x7FE JUMP JUMPDEST SWAP3 DUP4 CODECOPY DUP2 ADD SWAP1 PUSH2 0x180 DUP2 DUP4 SUB SLT PUSH3 0x7F9 JUMPI DUP1 MLOAD PUSH1 0x1 PUSH1 0x1 PUSH1 0xA0 SHL SUB DUP2 AND SWAP3 SWAP1 DUP4 SWAP1 SUB PUSH3 0x7F9 JUMPI PUSH1 0x20 DUP3 ADD MLOAD PUSH1 0x1 PUSH1 0x1 PUSH1 0x40 SHL SUB DUP2 GT PUSH3 0x7F9 JUMPI DUP2 PUSH3 0x67 SWAP2 DUP5 ADD PUSH3 0x824 JUMP JUMPDEST PUSH1 0x40 DUP4 ADD MLOAD SWAP1 SWAP2 SWAP1 PUSH1 0x1 PUSH1 0x1 PUSH1 0x40 SHL SUB DUP2 GT PUSH3 0x7F9 JUMPI DUP2 PUSH3 0x8C SWAP2 DUP6 ADD PUSH3 0x824 JUMP JUMPDEST PUSH1 0x60 DUP5 ADD MLOAD SWAP1 SWAP2 SWAP1 PUSH1 0x1 PUSH1 0x1 PUSH1 0x40 SHL SUB DUP2 GT PUSH3 0x7F9 JUMPI DUP2 PUSH3 0xB1 SWAP2 DUP7 ADD PUSH3 0x824 JUMP JUMPDEST PUSH1 0x80 DUP6 ADD MLOAD PUSH1 0x1 PUSH1 0x1 PUSH1 0x40 SHL SUB DUP2 GT PUSH3 0x7F9 JUMPI DUP3 PUSH3 0xD3 SWAP2 DUP8 ADD PUSH3 0x824 JUMP JUMPDEST PUSH1 0xA0 DUP7 ADD MLOAD PUSH1 0x1 PUSH1 0x1 PUSH1 0x40 SHL SUB DUP2 GT PUSH3 0x7F9 JUMPI DUP4 PUSH3 0xF5 SWAP2 DUP9 ADD PUSH3 0x824 JUMP JUMPDEST PUSH1 0xC0 DUP8 ADD MLOAD SWAP1 SWAP2 SWAP1 PUSH1 0x1 PUSH1 0x1 PUSH1 0x40 SHL SUB DUP2 GT PUSH3 0x7F9 JUMPI DUP5 PUSH3 0x11A SWAP2 DUP10 ADD PUSH3 0x824 JUMP JUMPDEST PUSH1 0xE0 DUP9 ADD MLOAD SWAP1 SWAP4 SWAP1 PUSH1 0x1 PUSH1 0x1 PUSH1 0x40 SHL SUB DUP2 GT PUSH3 0x7F9 JUMPI DUP6 PUSH3 0x13F SWAP2 DUP11 ADD PUSH3 0x824 JUMP JUMPDEST PUSH2 0x100 DUP10 ADD MLOAD SWAP1 SWAP6 PUSH1 0x1 PUSH1 0x1 PUSH1 0x40 SHL SUB DUP3 GT PUSH3 0x7F9 JUMPI PUSH3 0x163 SWAP2 DUP11 ADD PUSH3 0x824 JUMP JUMPDEST PUSH2 0x120 DUP10 ADD MLOAD PUSH2 0x140 DUP11 ADD MLOAD PUSH2 0x160 SWAP1 SWAP11 ADD MLOAD PUSH1 0x0 NOT PUSH1 0x3 SSTORE PUSH1 0x32 PUSH1 0x4 SSTORE PUSH1 0x96 PUSH1 0x5 DUP2 SWAP1 SSTORE PUSH1 0x6 SSTORE PUSH1 0x10 DUP1 SLOAD PUSH1 0x1 PUSH1 0x1 PUSH1 0xA0 SHL SUB NOT AND SWAP1 SWAP13 OR SWAP1 SWAP12 SSTORE DUP9 MLOAD SWAP1 SWAP9 SWAP2 SWAP8 SWAP1 SWAP2 SWAP1 PUSH1 0x1 PUSH1 0x1 PUSH1 0x40 SHL SUB DUP4 GT PUSH3 0x4F3 JUMPI PUSH9 0x10000000000000000 DUP4 GT PUSH3 0x4F3 JUMPI PUSH1 0x0 SLOAD DUP4 PUSH1 0x0 SSTORE DUP1 DUP5 LT PUSH3 0x7B1 JUMPI JUMPDEST POP PUSH1 0x20 DUP3 ADD SWAP3 DUP4 PUSH1 0x0 DUP1 MSTORE PUSH1 0x20 PUSH1 0x0 KECCAK256 PUSH1 0x0 JUMPDEST DUP4 DUP2 LT PUSH3 0x79C JUMPI POP POP DUP3 MLOAD SWAP3 SWAP2 POP POP PUSH1 0x1 PUSH1 0x1 PUSH1 0x40 SHL SUB DUP3 GT PUSH3 0x4F3 JUMPI PUSH9 0x10000000000000000 DUP3 GT PUSH3 0x4F3 JUMPI PUSH1 0x1 SLOAD DUP3 PUSH1 0x1 SSTORE DUP1 DUP4 LT PUSH3 0x752 JUMPI JUMPDEST POP PUSH1 0x20 ADD PUSH1 0x1 PUSH1 0x0 MSTORE PUSH1 0x20 PUSH1 0x0 KECCAK256 PUSH1 0x0 JUMPDEST DUP4 DUP2 LT PUSH3 0x73D JUMPI POP POP SWAP2 MLOAD SWAP3 SWAP2 POP POP PUSH1 0x1 PUSH1 0x1 PUSH1 0x40 SHL SUB DUP3 GT PUSH3 0x4F3 JUMPI PUSH9 0x10000000000000000 DUP3 GT PUSH3 0x4F3 JUMPI PUSH1 0x2 SLOAD DUP3 PUSH1 0x2 SSTORE DUP1 DUP4 LT PUSH3 0x6F4 JUMPI JUMPDEST POP PUSH1 0x2 PUSH1 0x0 MSTORE PUSH1 0x20 PUSH1 0x0 KECCAK256 PUSH1 0x0 JUMPDEST DUP4 DUP2 LT PUSH3 0x6DF JUMPI POP POP DUP3 MLOAD SWAP3 SWAP2 POP POP PUSH1 0x1 PUSH1 0x1 PUSH1 0x40 SHL SUB DUP3 GT PUSH3 0x4F3 JUMPI PUSH9 0x10000000000000000 DUP3 GT PUSH3 0x4F3 JUMPI PUSH1 0x7 SLOAD DUP3 PUSH1 0x7 SSTORE DUP1 DUP4 LT PUSH3 0x696 JUMPI JUMPDEST POP PUSH1 0x20 ADD PUSH1 0x7 PUSH1 0x0 MSTORE PUSH1 0x20 PUSH1 0x0 KECCAK256 PUSH1 0x0 JUMPDEST DUP4 DUP2 LT PUSH3 0x681 JUMPI POP POP DUP3 MLOAD SWAP3 SWAP2 POP POP PUSH1 0x1 PUSH1 0x1 PUSH1 0x40 SHL SUB DUP3 GT PUSH3 0x4F3 JUMPI PUSH9 0x10000000000000000 DUP3 GT PUSH3 0x4F3 JUMPI PUSH1 0x8 SLOAD DUP3 PUSH1 0x8 SSTORE DUP1 DUP4 LT PUSH3 0x638 JUMPI JUMPDEST POP PUSH1 0x20 ADD PUSH1 0x8 PUSH1 0x0 MSTORE PUSH1 0x20 PUSH1 0x0 KECCAK256 PUSH1 0x0 JUMPDEST DUP4 DUP2 LT PUSH3 0x623 JUMPI POP POP DUP3 MLOAD SWAP3 SWAP2 POP POP PUSH1 0x1 PUSH1 0x1 PUSH1 0x40 SHL SUB DUP3 GT PUSH3 0x4F3 JUMPI PUSH9 0x10000000000000000 DUP3 GT PUSH3 0x4F3 JUMPI PUSH1 0xA SLOAD DUP3 PUSH1 0xA SSTORE DUP1 DUP4 LT PUSH3 0x5DA JUMPI JUMPDEST POP PUSH1 0x20 ADD PUSH1 0xA PUSH1 0x0 MSTORE PUSH1 0x20 PUSH1 0x0 KECCAK256 PUSH1 0x0 JUMPDEST DUP4 DUP2 LT PUSH3 0x5C5 JUMPI POP POP DUP3 MLOAD SWAP3 SWAP2 POP POP PUSH1 0x1 PUSH1 0x1 PUSH1 0x40 SHL SUB DUP3 GT PUSH3 0x4F3 JUMPI PUSH9 0x10000000000000000 DUP3 GT PUSH3 0x4F3 JUMPI PUSH1 0xB SLOAD DUP3 PUSH1 0xB SSTORE DUP1 DUP4 LT PUSH3 0x57C JUMPI JUMPDEST POP PUSH1 0x20 ADD PUSH1 0xB PUSH1 0x0 MSTORE PUSH1 0x20 PUSH1 0x0 KECCAK256 PUSH1 0x0 JUMPDEST DUP4 DUP2 LT PUSH3 0x567 JUMPI POP POP DUP3 MLOAD SWAP3 SWAP2 POP POP PUSH1 0x1 PUSH1 0x1 PUSH1 0x40 SHL SUB DUP3 GT PUSH3 0x4F3 JUMPI PUSH9 0x10000000000000000 DUP3 GT PUSH3 0x4F3 JUMPI PUSH1 0xC SLOAD DUP3 PUSH1 0xC SSTORE DUP1 DUP4 LT PUSH3 0x51E JUMPI JUMPDEST POP PUSH1 0x20 ADD PUSH1 0xC PUSH1 0x0 MSTORE PUSH1 0x20 PUSH1 0x0 KECCAK256 PUSH1 0x0 JUMPDEST DUP4 DUP2 LT PUSH3 0x509 JUMPI POP POP DUP3 MLOAD SWAP3 SWAP2 POP POP PUSH1 0x1 PUSH1 0x1 PUSH1 0x40 SHL SUB DUP3 GT PUSH3 0x4F3 JUMPI PUSH9 0x10000000000000000 DUP3 GT PUSH3 0x4F3 JUMPI PUSH1 0xD SLOAD DUP3 PUSH1 0xD SSTORE DUP1 DUP4 LT PUSH3 0x4AA JUMPI JUMPDEST POP PUSH1 0x20 ADD PUSH1 0xD PUSH1 0x0 MSTORE PUSH1 0x20 PUSH1 0x0 KECCAK256 PUSH1 0x0 JUMPDEST DUP4 DUP2 LT PUSH3 0x495 JUMPI POP POP POP POP PUSH1 0x9 SSTORE PUSH1 0xE SSTORE PUSH1 0xF SSTORE PUSH1 0x40 MLOAD PUSH2 0xF16 SWAP1 DUP2 PUSH3 0x88E DUP3 CODECOPY RETURN JUMPDEST PUSH1 0x1 SWAP1 PUSH1 0x20 DUP5 MLOAD SWAP5 ADD SWAP4 DUP2 DUP5 ADD SSTORE ADD PUSH3 0x470 JUMP JUMPDEST PUSH1 0xD PUSH1 0x0 MSTORE PUSH32 0xD7B6990105719101DABEB77144F2A3385C8033ACD3AF97E9423A695E81AD1EB5 SWAP1 DUP2 ADD SWAP1 DUP4 ADD JUMPDEST DUP2 DUP2 LT PUSH3 0x4E6 JUMPI POP PUSH3 0x45F JUMP JUMPDEST PUSH1 0x0 DUP2 SSTORE PUSH1 0x1 ADD PUSH3 0x4D7 JUMP JUMPDEST PUSH4 0x4E487B71 PUSH1 0xE0 SHL PUSH1 0x0 MSTORE PUSH1 0x41 PUSH1 0x4 MSTORE PUSH1 0x24 PUSH1 0x0 REVERT JUMPDEST PUSH1 0x1 SWAP1 PUSH1 0x20 DUP5 MLOAD SWAP5 ADD SWAP4 DUP2 DUP5 ADD SSTORE ADD PUSH3 0x41F JUMP JUMPDEST PUSH1 0xC PUSH1 0x0 MSTORE PUSH32 0xDF6966C971051C3D54EC59162606531493A51404A002842F56009D7E5CF4A8C7 SWAP1 DUP2 ADD SWAP1 DUP4 ADD JUMPDEST DUP2 DUP2 LT PUSH3 0x55A JUMPI POP PUSH3 0x40E JUMP JUMPDEST PUSH1 0x0 DUP2 SSTORE PUSH1 0x1 ADD PUSH3 0x54B JUMP JUMPDEST PUSH1 0x1 SWAP1 PUSH1 0x20 DUP5 MLOAD SWAP5 ADD SWAP4 DUP2 DUP5 ADD SSTORE ADD PUSH3 0x3CE JUMP JUMPDEST PUSH1 0xB PUSH1 0x0 MSTORE PUSH32 0x175B7A638427703F0DBE7BB9BBF987A2551717B34E79F33B5B1008D1FA01DB9 SWAP1 DUP2 ADD SWAP1 DUP4 ADD JUMPDEST DUP2 DUP2 LT PUSH3 0x5B8 JUMPI POP PUSH3 0x3BD JUMP JUMPDEST PUSH1 0x0 DUP2 SSTORE PUSH1 0x1 ADD PUSH3 0x5A9 JUMP JUMPDEST PUSH1 0x1 SWAP1 PUSH1 0x20 DUP5 MLOAD SWAP5 ADD SWAP4 DUP2 DUP5 ADD SSTORE ADD PUSH3 0x37D JUMP JUMPDEST PUSH1 0xA PUSH1 0x0 MSTORE PUSH32 0xC65A7BB8D6351C1CF70C95A316CC6A92839C986682D98BC35F958F4883F9D2A8 SWAP1 DUP2 ADD SWAP1 DUP4 ADD JUMPDEST DUP2 DUP2 LT PUSH3 0x616 JUMPI POP PUSH3 0x36C JUMP JUMPDEST PUSH1 0x0 DUP2 SSTORE PUSH1 0x1 ADD PUSH3 0x607 JUMP JUMPDEST PUSH1 0x1 SWAP1 PUSH1 0x20 DUP5 MLOAD SWAP5 ADD SWAP4 DUP2 DUP5 ADD SSTORE ADD PUSH3 0x32C JUMP JUMPDEST PUSH1 0x8 PUSH1 0x0 MSTORE PUSH32 0xF3F7A9FE364FAAB93B216DA50A3214154F22A0A2B415B23A84C8169E8B636EE3 SWAP1 DUP2 ADD SWAP1 DUP4 ADD JUMPDEST DUP2 DUP2 LT PUSH3 0x674 JUMPI POP PUSH3 0x31B JUMP JUMPDEST PUSH1 0x0 DUP2 SSTORE PUSH1 0x1 ADD PUSH3 0x665 JUMP JUMPDEST PUSH1 0x1 SWAP1 PUSH1 0x20 DUP5 MLOAD SWAP5 ADD SWAP4 DUP2 DUP5 ADD SSTORE ADD PUSH3 0x2DB JUMP JUMPDEST PUSH1 0x7 PUSH1 0x0 MSTORE PUSH32 0xA66CC928B5EDB82AF9BD49922954155AB7B0942694BEA4CE44661D9A8736C688 SWAP1 DUP2 ADD SWAP1 DUP4 ADD JUMPDEST DUP2 DUP2 LT PUSH3 0x6D2 JUMPI POP PUSH3 0x2CA JUMP JUMPDEST PUSH1 0x0 DUP2 SSTORE PUSH1 0x1 ADD PUSH3 0x6C3 JUMP JUMPDEST PUSH1 0x1 SWAP1 PUSH1 0x20 DUP5 MLOAD SWAP5 ADD SWAP4 DUP2 DUP5 ADD SSTORE ADD PUSH3 0x28A JUMP JUMPDEST PUSH1 0x2 PUSH1 0x0 MSTORE PUSH32 0x405787FA12A823E0F2B7631CC41B3BA8828B3321CA811111FA75CD3AA3BB5ACE SWAP1 DUP2 ADD SWAP1 DUP4 ADD JUMPDEST DUP2 DUP2 LT PUSH3 0x730 JUMPI POP PUSH3 0x27C JUMP JUMPDEST PUSH1 0x0 DUP2 SSTORE PUSH1 0x1 ADD PUSH3 0x721 JUMP JUMPDEST PUSH1 0x1 SWAP1 PUSH1 0x20 DUP5 MLOAD SWAP5 ADD SWAP4 DUP2 DUP5 ADD SSTORE ADD PUSH3 0x23C JUMP JUMPDEST PUSH1 0x1 PUSH1 0x0 MSTORE PUSH32 0xB10E2D527612073B26EECDFD717E6A320CF44B4AFAC2B0732D9FCBE2B7FA0CF6 SWAP1 DUP4 DUP3 ADD JUMPDEST DUP2 DUP4 ADD DUP2 LT PUSH3 0x78F JUMPI POP POP PUSH3 0x22B JUMP JUMPDEST PUSH1 0x0 DUP2 SSTORE PUSH1 0x1 ADD PUSH3 0x77D JUMP JUMPDEST PUSH1 0x1 SWAP1 PUSH1 0x20 DUP5 MLOAD SWAP5 ADD SWAP4 DUP2 DUP5 ADD SSTORE ADD PUSH3 0x1EB JUMP JUMPDEST PUSH1 0x0 DUP1 MSTORE PUSH32 0x290DECD9548B62A8D60345A988386FC84BA6BC95484008F6362F93160EF3E563 SWAP1 DUP2 ADD SWAP1 DUP5 ADD JUMPDEST DUP2 DUP2 LT PUSH3 0x7EC JUMPI POP PUSH3 0x1D8 JUMP JUMPDEST PUSH1 0x0 DUP2 SSTORE PUSH1 0x1 ADD PUSH3 0x7DD JUMP JUMPDEST PUSH1 0x0 DUP1 REVERT JUMPDEST PUSH1 0x40 MLOAD SWAP2 SWAP1 PUSH1 0x1F ADD PUSH1 0x1F NOT AND DUP3 ADD PUSH1 0x1 PUSH1 0x1 PUSH1 0x40 SHL SUB DUP2 GT DUP4 DUP3 LT OR PUSH3 0x4F3 JUMPI PUSH1 0x40 MSTORE JUMP JUMPDEST DUP2 PUSH1 0x1F DUP3 ADD SLT ISZERO PUSH3 0x7F9 JUMPI DUP1 MLOAD SWAP2 PUSH1 0x20 SWAP2 PUSH1 0x1 PUSH1 0x1 PUSH1 0x40 SHL SUB DUP5 GT PUSH3 0x4F3 JUMPI DUP4 PUSH1 0x5 SHL SWAP1 DUP4 DUP1 PUSH3 0x859 DUP2 DUP6 ADD PUSH3 0x7FE JUMP JUMPDEST DUP1 SWAP8 DUP2 MSTORE ADD SWAP3 DUP3 ADD ADD SWAP3 DUP4 GT PUSH3 0x7F9 JUMPI DUP4 ADD SWAP1 JUMPDEST DUP3 DUP3 LT PUSH3 0x87D JUMPI POP POP POP POP SWAP1 JUMP JUMPDEST DUP2 MLOAD DUP2 MSTORE SWAP1 DUP4 ADD SWAP1 DUP4 ADD PUSH3 0x86E JUMP INVALID PUSH1 0x40 PUSH1 0x80 DUP2 MSTORE PUSH1 0x4 SWAP1 DUP2 CALLDATASIZE LT ISZERO PUSH2 0x15 JUMPI PUSH1 0x0 DUP1 REVERT JUMPDEST PUSH1 0x0 SWAP2 DUP3 CALLDATALOAD PUSH1 0xE0 SHR DUP1 PUSH4 0x16B51928 EQ PUSH2 0x9A7 JUMPI DUP1 PUSH4 0x205C9CC7 EQ PUSH2 0x98A JUMPI DUP1 PUSH4 0x48E257CB EQ PUSH2 0x96B JUMPI DUP1 PUSH4 0x4A702C3D EQ PUSH2 0x94C JUMPI DUP1 PUSH4 0x4D985AE4 EQ PUSH2 0x92D JUMPI DUP1 PUSH4 0x4EB274FF EQ PUSH2 0x8E0 JUMPI DUP1 PUSH4 0x5F57697C EQ PUSH2 0x8C1 JUMPI DUP1 PUSH4 0x68633FE3 EQ PUSH2 0x8A7 JUMPI DUP1 PUSH4 0x69CD1DB8 EQ PUSH2 0x888 JUMPI DUP1 PUSH4 0x6F240774 EQ PUSH2 0x85E JUMPI DUP1 PUSH4 0x90CCFA0F EQ PUSH2 0x835 JUMPI DUP1 PUSH4 0x96D14DA6 EQ PUSH2 0x7E8 JUMPI DUP1 PUSH4 0x973B9CC1 EQ PUSH2 0x560 JUMPI DUP1 PUSH4 0xA86853D5 EQ PUSH2 0x536 JUMPI DUP1 PUSH4 0xAB1BBECA EQ PUSH2 0x50C JUMPI DUP1 PUSH4 0xB4630583 EQ PUSH2 0x4F2 JUMPI DUP1 PUSH4 0xB6CE6709 EQ PUSH2 0x4A2 JUMPI DUP1 PUSH4 0xD6B7494F EQ PUSH2 0x483 JUMPI DUP1 PUSH4 0xE329143F EQ PUSH2 0x459 JUMPI DUP1 PUSH4 0xF0374885 EQ PUSH2 0x3C2 JUMPI DUP1 PUSH4 0xF6451C0A EQ PUSH2 0x150 JUMPI PUSH4 0xF7A95A9E EQ PUSH2 0x113 JUMPI PUSH1 0x0 DUP1 REVERT JUMPDEST CALLVALUE PUSH2 0x14C JUMPI PUSH1 0x20 CALLDATASIZE PUSH1 0x3 NOT ADD SLT PUSH2 0x14C JUMPI CALLDATALOAD SWAP2 DUP1 SLOAD DUP4 LT ISZERO PUSH2 0x149 JUMPI POP PUSH2 0x13B PUSH1 0x20 SWAP3 PUSH2 0xAF6 JUMP JUMPDEST SWAP2 SWAP1 SLOAD SWAP1 MLOAD SWAP2 PUSH1 0x3 SHL SHR DUP2 MSTORE RETURN JUMPDEST DUP1 REVERT JUMPDEST DUP3 DUP1 REVERT JUMPDEST POP DUP3 CALLVALUE PUSH2 0x149 JUMPI DUP1 PUSH1 0x3 NOT CALLDATASIZE ADD SLT PUSH2 0x149 JUMPI PUSH1 0x10 SLOAD DUP4 MLOAD PUSH4 0x2BA8F1B3 PUSH1 0xE0 SHL DUP2 MSTORE SWAP3 SWAP1 DUP3 SWAP1 DUP5 SWAP1 DUP4 SWAP1 DUP3 SWAP1 PUSH1 0x1 PUSH1 0x1 PUSH1 0xA0 SHL SUB AND GAS STATICCALL SWAP3 DUP4 ISZERO PUSH2 0x3B8 JUMPI DUP3 SWAP4 PUSH2 0x394 JUMPI JUMPDEST POP DUP2 JUMPDEST DUP3 SLOAD DUP2 LT ISZERO PUSH2 0x390 JUMPI DUP5 MLOAD SWAP1 PUSH1 0x20 SWAP2 DUP3 DUP2 ADD SWAP1 TIMESTAMP DUP3 MSTORE DUP3 DUP9 DUP3 ADD MSTORE DUP8 DUP2 MSTORE PUSH2 0x1BE DUP2 PUSH2 0xB2E JUMP JUMPDEST PUSH1 0x64 SWAP2 DUP3 SWAP2 MLOAD SWAP1 KECCAK256 MOD SWAP3 PUSH1 0x1 DUP4 ADD SWAP1 DUP2 DUP5 GT PUSH2 0x37D JUMPI SWAP1 DUP3 SWAP2 DUP10 MLOAD SWAP1 DUP2 ADD SWAP2 TIMESTAMP DUP4 MSTORE DUP11 DUP3 ADD MSTORE DUP10 DUP2 MSTORE PUSH2 0x1F0 DUP2 PUSH2 0xB2E JUMP JUMPDEST MLOAD SWAP1 KECCAK256 MOD DUP2 DUP6 SLOAD SWAP5 DUP2 PUSH2 0x202 DUP7 PUSH2 0xA1A JUMP JUMPDEST SWAP8 SWAP1 SLOAD PUSH1 0x3 SWAP9 DUP10 SHL SHR PUSH2 0x214 SWAP2 PUSH2 0xB9A JUMP JUMPDEST SWAP2 PUSH1 0x5 SLOAD SWAP1 PUSH2 0x222 SWAP2 PUSH2 0xB9A JUMP JUMPDEST PUSH2 0x22B DUP8 PUSH2 0xA51 JUMP JUMPDEST SWAP1 SLOAD SWAP1 DUP10 SHL SHR PUSH2 0x23A DUP9 PUSH2 0xAF6 JUMP JUMPDEST SWAP1 SLOAD SWAP1 DUP11 SHL SHR PUSH2 0x249 SWAP2 PUSH2 0xC56 JUMP JUMPDEST PUSH2 0x252 SWAP2 PUSH2 0xB9A JUMP JUMPDEST DIV PUSH2 0x25C SWAP2 PUSH2 0xC63 JUMP JUMPDEST SWAP2 PUSH1 0x6 SLOAD SWAP1 PUSH2 0x26A SWAP2 PUSH2 0xB9A JUMP JUMPDEST PUSH2 0x274 DUP6 DUP11 PUSH2 0xC42 JUMP JUMPDEST MLOAD PUSH2 0x27E DUP7 PUSH2 0xAF6 JUMP JUMPDEST SWAP1 SLOAD SWAP1 DUP9 SHL SHR PUSH2 0x28D SWAP2 PUSH2 0xC56 JUMP JUMPDEST PUSH2 0x296 SWAP2 PUSH2 0xB9A JUMP JUMPDEST DIV PUSH2 0x2A0 SWAP2 PUSH2 0xC63 JUMP JUMPDEST DIV PUSH2 0x2AA DUP3 PUSH2 0xA1A JUMP JUMPDEST PUSH2 0x2C5 SWAP3 SWAP1 DUP3 SLOAD SWAP1 PUSH1 0x3 SHL SWAP2 DUP3 SHL SWAP2 PUSH1 0x0 NOT SWAP1 SHL NOT AND OR SWAP1 SSTORE JUMP JUMPDEST PUSH2 0x2CE DUP2 PUSH2 0xA1A JUMP JUMPDEST SWAP1 SLOAD SWAP1 DUP4 SHL SHR PUSH2 0x2DD DUP3 PUSH2 0xAF6 JUMP JUMPDEST SWAP1 SWAP2 DUP3 SLOAD DUP3 DUP7 SHL SHR SWAP1 PUSH2 0x2EF SWAP2 PUSH2 0xC63 JUMP JUMPDEST DUP3 SLOAD PUSH1 0x0 NOT PUSH1 0x3 SWAP4 SWAP1 SWAP4 SHL SWAP3 DUP4 SHL NOT AND SWAP2 SHL OR SWAP1 SSTORE PUSH2 0x30D DUP2 PUSH2 0xAF6 JUMP JUMPDEST SWAP1 SLOAD SWAP1 DUP4 SHL SHR PUSH2 0x31C DUP3 PUSH2 0xABF JUMP JUMPDEST SWAP1 SLOAD SWAP1 DUP5 SHL SHR LT SWAP2 PUSH1 0x1 SWAP3 PUSH2 0x333 JUMPI JUMPDEST POP ADD PUSH2 0x197 JUMP JUMPDEST PUSH2 0x377 SWAP1 PUSH2 0x340 DUP4 PUSH2 0xABF JUMP JUMPDEST SWAP1 SLOAD SWAP1 DUP3 SHL SHR PUSH2 0x360 PUSH2 0x352 DUP6 PUSH2 0xAF6 JUMP JUMPDEST SWAP3 SWAP1 SWAP4 DUP4 DUP6 SLOAD SWAP2 SHL SHR PUSH2 0xC56 JUMP JUMPDEST DUP3 SLOAD PUSH1 0x0 NOT PUSH1 0x3 SWAP4 SWAP1 SWAP4 SHL SWAP3 DUP4 SHL NOT AND SWAP2 SHL OR SWAP1 SSTORE JUMP JUMPDEST DUP7 PUSH2 0x32C JUMP JUMPDEST PUSH4 0x4E487B71 PUSH1 0xE0 SHL DUP8 MSTORE PUSH1 0x11 DUP7 MSTORE PUSH1 0x24 DUP8 REVERT JUMPDEST DUP3 DUP1 RETURN JUMPDEST PUSH2 0x3B1 SWAP2 SWAP4 POP RETURNDATASIZE DUP1 DUP5 DUP4 RETURNDATACOPY PUSH2 0x3A9 DUP2 DUP4 PUSH2 0xB60 JUMP JUMPDEST DUP2 ADD SWAP1 PUSH2 0xBC3 JUMP JUMPDEST SWAP2 DUP5 PUSH2 0x194 JUMP JUMPDEST DUP5 MLOAD RETURNDATASIZE DUP5 DUP3 RETURNDATACOPY RETURNDATASIZE SWAP1 REVERT JUMPDEST POP SWAP2 CALLVALUE PUSH2 0x149 JUMPI PUSH1 0x20 SWAP1 PUSH1 0x20 PUSH1 0x3 NOT CALLDATASIZE ADD SLT PUSH2 0x149 JUMPI DUP4 CALLDATALOAD SWAP4 PUSH8 0xFFFFFFFFFFFFFFFF DUP6 GT PUSH2 0x455 JUMPI CALLDATASIZE PUSH1 0x23 DUP7 ADD SLT ISZERO PUSH2 0x455 JUMPI DUP5 ADD CALLDATALOAD PUSH2 0x401 DUP2 PUSH2 0xB82 JUMP JUMPDEST SWAP5 PUSH2 0x40E DUP6 MLOAD SWAP7 DUP8 PUSH2 0xB60 JUMP JUMPDEST DUP2 DUP7 MSTORE PUSH1 0x24 PUSH1 0x20 DUP8 ADD SWAP3 PUSH1 0x5 SHL DUP3 ADD ADD SWAP3 CALLDATASIZE DUP5 GT PUSH2 0x149 JUMPI POP PUSH1 0x24 ADD SWAP1 JUMPDEST DUP3 DUP3 LT PUSH2 0x446 JUMPI PUSH1 0x20 DUP6 PUSH2 0x43F DUP9 PUSH2 0xC70 JUMP JUMPDEST SWAP1 MLOAD SWAP1 DUP2 MSTORE RETURN JUMPDEST DUP2 CALLDATALOAD DUP2 MSTORE SWAP1 DUP4 ADD SWAP1 DUP4 ADD PUSH2 0x42C JUMP JUMPDEST POP DUP1 REVERT JUMPDEST POP CALLVALUE PUSH2 0x14C JUMPI PUSH1 0x20 CALLDATASIZE PUSH1 0x3 NOT ADD SLT PUSH2 0x14C JUMPI CALLDATALOAD SWAP2 PUSH1 0xD SLOAD DUP4 LT ISZERO PUSH2 0x149 JUMPI POP PUSH2 0x13B PUSH1 0x20 SWAP3 PUSH2 0xABF JUMP JUMPDEST POP POP CALLVALUE PUSH2 0x455 JUMPI DUP2 PUSH1 0x3 NOT CALLDATASIZE ADD SLT PUSH2 0x455 JUMPI PUSH1 0x20 SWAP1 PUSH1 0x9 SLOAD SWAP1 MLOAD SWAP1 DUP2 MSTORE RETURN JUMPDEST POP CALLVALUE PUSH2 0x14C JUMPI PUSH1 0x20 CALLDATASIZE PUSH1 0x3 NOT ADD SLT PUSH2 0x14C JUMPI CALLDATALOAD PUSH1 0xB SLOAD DUP2 LT ISZERO PUSH2 0x14C JUMPI PUSH1 0x20 SWAP3 POP PUSH1 0xB PUSH1 0x0 MSTORE PUSH32 0x175B7A638427703F0DBE7BB9BBF987A2551717B34E79F33B5B1008D1FA01DB9 ADD SLOAD SWAP1 MLOAD SWAP1 DUP2 MSTORE RETURN JUMPDEST DUP4 DUP3 CALLVALUE PUSH2 0x455 JUMPI PUSH1 0x20 CALLDATASIZE PUSH1 0x3 NOT ADD SLT PUSH2 0x455 JUMPI CALLDATALOAD PUSH1 0x9 SSTORE DUP1 RETURN JUMPDEST POP CALLVALUE PUSH2 0x14C JUMPI PUSH1 0x20 CALLDATASIZE PUSH1 0x3 NOT ADD SLT PUSH2 0x14C JUMPI CALLDATALOAD SWAP2 PUSH1 0x8 SLOAD DUP4 LT ISZERO PUSH2 0x149 JUMPI POP PUSH2 0x13B PUSH1 0x20 SWAP3 PUSH2 0xA88 JUMP JUMPDEST POP CALLVALUE PUSH2 0x14C JUMPI PUSH1 0x20 CALLDATASIZE PUSH1 0x3 NOT ADD SLT PUSH2 0x14C JUMPI CALLDATALOAD SWAP2 PUSH1 0x2 SLOAD DUP4 LT ISZERO PUSH2 0x149 JUMPI POP PUSH2 0x13B PUSH1 0x20 SWAP3 PUSH2 0xA51 JUMP JUMPDEST POP SWAP1 CALLVALUE PUSH2 0x14C JUMPI DUP3 PUSH1 0x3 NOT CALLDATASIZE ADD SLT PUSH2 0x14C JUMPI DUP1 MLOAD SWAP2 DUP3 DUP5 SLOAD SWAP4 DUP5 DUP3 MSTORE PUSH1 0x20 DUP1 SWAP3 ADD DUP7 DUP1 MSTORE PUSH1 0x0 DUP1 MLOAD PUSH1 0x20 PUSH2 0xEC1 DUP4 CODECOPY DUP2 MLOAD SWAP2 MSTORE DUP8 JUMPDEST DUP5 DUP9 DUP3 LT PUSH2 0x7D4 JUMPI POP POP POP SWAP1 PUSH2 0x5B0 DUP2 PUSH2 0x5B5 SWAP4 SUB DUP3 PUSH2 0xB60 JUMP JUMPDEST PUSH2 0xC70 JUMP JUMPDEST SWAP4 PUSH1 0x3 SLOAD DUP6 LT PUSH2 0x6F0 JUMPI JUMPDEST POP PUSH1 0x10 SLOAD DUP4 MLOAD PUSH4 0x2BA8F1B3 PUSH1 0xE0 SHL DUP2 MSTORE PUSH1 0x1 PUSH1 0x1 PUSH1 0xA0 SHL SUB SWAP1 SWAP2 AND SWAP2 SWAP1 DUP7 DUP2 DUP6 DUP2 DUP7 GAS STATICCALL SWAP1 DUP2 ISZERO PUSH2 0x6E6 JUMPI SWAP1 PUSH2 0x5FD SWAP2 DUP9 SWAP2 PUSH2 0x6CC JUMPI JUMPDEST POP PUSH2 0xC70 JUMP JUMPDEST DUP6 LT PUSH2 0x607 JUMPI DUP6 DUP1 RETURN JUMPDEST DUP2 EXTCODESIZE ISZERO PUSH2 0x6C8 JUMPI SWAP4 DUP6 SWAP2 DUP5 MLOAD SWAP6 DUP7 SWAP3 PUSH4 0xA5CDC59B PUSH1 0xE0 SHL DUP5 MSTORE PUSH1 0x44 DUP5 ADD SWAP2 DUP8 DUP8 DUP7 ADD MSTORE DUP6 SLOAD DUP1 SWAP4 MSTORE PUSH1 0x64 DUP6 ADD SWAP3 DUP7 DUP1 MSTORE PUSH1 0x0 DUP1 MLOAD PUSH1 0x20 PUSH2 0xEC1 DUP4 CODECOPY DUP2 MLOAD SWAP2 MSTORE SWAP2 DUP8 SWAP1 JUMPDEST DUP3 DUP3 LT PUSH2 0x6AA JUMPI POP POP POP POP DUP4 DUP1 SWAP3 DUP7 SWAP3 PUSH1 0x24 DUP4 ADD MSTORE SUB SWAP3 GAS CALL DUP1 ISZERO PUSH2 0x6A0 JUMPI PUSH2 0x674 JUMPI JUMPDEST DUP1 DUP1 DUP6 DUP1 RETURN JUMPDEST PUSH8 0xFFFFFFFFFFFFFFFF DUP4 GT PUSH2 0x68D JUMPI POP MSTORE CODESIZE DUP1 DUP1 PUSH2 0x66E JUMP JUMPDEST PUSH4 0x4E487B71 PUSH1 0xE0 SHL DUP5 MSTORE PUSH1 0x41 SWAP1 MSTORE PUSH1 0x24 DUP4 REVERT JUMPDEST DUP3 MLOAD RETURNDATASIZE DUP7 DUP3 RETURNDATACOPY RETURNDATASIZE SWAP1 REVERT JUMPDEST DUP4 SLOAD DUP7 MSTORE DUP13 SWAP9 POP DUP12 SWAP8 POP SWAP5 DUP6 ADD SWAP5 PUSH1 0x1 SWAP4 DUP5 ADD SWAP4 SWAP2 SWAP1 SWAP2 ADD SWAP1 PUSH2 0x64A JUMP JUMPDEST DUP6 DUP1 REVERT JUMPDEST PUSH2 0x6E0 SWAP2 POP RETURNDATASIZE DUP1 DUP11 DUP4 RETURNDATACOPY PUSH2 0x3A9 DUP2 DUP4 PUSH2 0xB60 JUMP JUMPDEST CODESIZE PUSH2 0x5F7 JUMP JUMPDEST DUP6 MLOAD RETURNDATASIZE DUP10 DUP3 RETURNDATACOPY RETURNDATASIZE SWAP1 REVERT JUMPDEST DUP5 PUSH1 0x3 SSTORE PUSH8 0xFFFFFFFFFFFFFFFF DUP2 GT PUSH2 0x7C1 JUMPI PUSH9 0x10000000000000000 DUP2 GT PUSH2 0x7C1 JUMPI PUSH1 0x2 SLOAD DUP2 PUSH1 0x2 SSTORE DUP1 DUP3 LT PUSH2 0x781 JUMPI JUMPDEST POP PUSH1 0x0 DUP1 MLOAD PUSH1 0x20 PUSH2 0xEC1 DUP4 CODECOPY DUP2 MLOAD SWAP2 MSTORE PUSH1 0x2 DUP8 MSTORE DUP1 SLOAD SWAP1 DUP8 SWAP2 JUMPDEST DUP4 DUP4 LT PUSH2 0x74B JUMPI POP POP POP PUSH2 0x5C0 JUMP JUMPDEST PUSH1 0x1 DUP1 SWAP2 SWAP3 ADD SWAP3 DUP4 SLOAD SWAP3 DUP2 PUSH32 0x405787FA12A823E0F2B7631CC41B3BA8828B3321CA811111FA75CD3AA3BB5ACE ADD SSTORE ADD SWAP2 SWAP1 PUSH2 0x73C JUMP JUMPDEST DUP2 PUSH32 0x405787FA12A823E0F2B7631CC41B3BA8828B3321CA811111FA75CD3AA3BB5ACE SWAP2 DUP3 ADD SWAP2 ADD JUMPDEST DUP2 DUP2 LT PUSH2 0x7B6 JUMPI POP PUSH2 0x722 JUMP JUMPDEST DUP8 DUP2 SSTORE PUSH1 0x1 ADD PUSH2 0x7A9 JUMP JUMPDEST PUSH4 0x4E487B71 PUSH1 0xE0 SHL DUP7 MSTORE PUSH1 0x41 DUP4 MSTORE PUSH1 0x24 DUP7 REVERT JUMPDEST DUP3 SLOAD DUP5 MSTORE SWAP1 SWAP3 ADD SWAP2 PUSH1 0x1 SWAP2 DUP3 ADD SWAP2 ADD PUSH2 0x595 JUMP JUMPDEST POP CALLVALUE PUSH2 0x14C JUMPI PUSH1 0x20 CALLDATASIZE PUSH1 0x3 NOT ADD SLT PUSH2 0x14C JUMPI CALLDATALOAD PUSH1 0xA SLOAD DUP2 LT ISZERO PUSH2 0x14C JUMPI PUSH1 0xA PUSH1 0x20 SWAP4 MSTORE PUSH32 0xC65A7BB8D6351C1CF70C95A316CC6A92839C986682D98BC35F958F4883F9D2A8 ADD SLOAD SWAP1 MLOAD SWAP1 DUP2 MSTORE RETURN JUMPDEST POP POP CALLVALUE PUSH2 0x455 JUMPI DUP2 PUSH1 0x3 NOT CALLDATASIZE ADD SLT PUSH2 0x455 JUMPI PUSH1 0x10 SLOAD SWAP1 MLOAD PUSH1 0x1 PUSH1 0x1 PUSH1 0xA0 SHL SUB SWAP1 SWAP2 AND DUP2 MSTORE PUSH1 0x20 SWAP1 RETURN JUMPDEST POP CALLVALUE PUSH2 0x14C JUMPI PUSH1 0x20 CALLDATASIZE PUSH1 0x3 NOT ADD SLT PUSH2 0x14C JUMPI CALLDATALOAD SWAP2 PUSH1 0x1 SLOAD DUP4 LT ISZERO PUSH2 0x149 JUMPI POP PUSH2 0x13B PUSH1 0x20 SWAP3 PUSH2 0xA1A JUMP JUMPDEST POP POP CALLVALUE PUSH2 0x455 JUMPI DUP2 PUSH1 0x3 NOT CALLDATASIZE ADD SLT PUSH2 0x455 JUMPI PUSH1 0x20 SWAP1 PUSH1 0xE SLOAD SWAP1 MLOAD SWAP1 DUP2 MSTORE RETURN JUMPDEST DUP4 DUP3 CALLVALUE PUSH2 0x455 JUMPI PUSH1 0x20 CALLDATASIZE PUSH1 0x3 NOT ADD SLT PUSH2 0x455 JUMPI CALLDATALOAD PUSH1 0xE SSTORE DUP1 RETURN JUMPDEST POP POP CALLVALUE PUSH2 0x455 JUMPI DUP2 PUSH1 0x3 NOT CALLDATASIZE ADD SLT PUSH2 0x455 JUMPI PUSH1 0x20 SWAP1 PUSH1 0x5 SLOAD SWAP1 MLOAD SWAP1 DUP2 MSTORE RETURN JUMPDEST POP CALLVALUE PUSH2 0x14C JUMPI PUSH1 0x20 CALLDATASIZE PUSH1 0x3 NOT ADD SLT PUSH2 0x14C JUMPI CALLDATALOAD PUSH1 0xC SLOAD DUP2 LT ISZERO PUSH2 0x14C JUMPI PUSH1 0xC PUSH1 0x20 SWAP4 MSTORE PUSH32 0xDF6966C971051C3D54EC59162606531493A51404A002842F56009D7E5CF4A8C7 ADD SLOAD SWAP1 MLOAD SWAP1 DUP2 MSTORE RETURN JUMPDEST POP POP CALLVALUE PUSH2 0x455 JUMPI DUP2 PUSH1 0x3 NOT CALLDATASIZE ADD SLT PUSH2 0x455 JUMPI PUSH1 0x20 SWAP1 PUSH1 0x3 SLOAD SWAP1 MLOAD SWAP1 DUP2 MSTORE RETURN JUMPDEST POP POP CALLVALUE PUSH2 0x455 JUMPI DUP2 PUSH1 0x3 NOT CALLDATASIZE ADD SLT PUSH2 0x455 JUMPI PUSH1 0x20 SWAP1 PUSH1 0xF SLOAD SWAP1 MLOAD SWAP1 DUP2 MSTORE RETURN JUMPDEST POP POP CALLVALUE PUSH2 0x455 JUMPI DUP2 PUSH1 0x3 NOT CALLDATASIZE ADD SLT PUSH2 0x455 JUMPI PUSH1 0x20 SWAP1 PUSH1 0x6 SLOAD SWAP1 MLOAD SWAP1 DUP2 MSTORE RETURN JUMPDEST POP CALLVALUE PUSH2 0x14C JUMPI DUP3 PUSH1 0x3 NOT CALLDATASIZE ADD SLT PUSH2 0x14C JUMPI PUSH1 0x20 SWAP3 POP SLOAD SWAP1 MLOAD SWAP1 DUP2 MSTORE RETURN JUMPDEST POP CALLVALUE PUSH2 0x14C JUMPI PUSH1 0x20 CALLDATASIZE PUSH1 0x3 NOT ADD SLT PUSH2 0x14C JUMPI CALLDATALOAD SWAP2 PUSH1 0x7 SLOAD DUP4 LT ISZERO PUSH2 0x149 JUMPI POP PUSH2 0x13B PUSH1 0x20 SWAP3 JUMPDEST PUSH1 0x7 SLOAD DUP2 LT ISZERO PUSH2 0xA04 JUMPI PUSH1 0x7 PUSH1 0x0 MSTORE PUSH32 0xA66CC928B5EDB82AF9BD49922954155AB7B0942694BEA4CE44661D9A8736C688 ADD SWAP1 PUSH1 0x0 SWAP1 JUMP JUMPDEST PUSH4 0x4E487B71 PUSH1 0xE0 SHL PUSH1 0x0 MSTORE PUSH1 0x32 PUSH1 0x4 MSTORE PUSH1 0x24 PUSH1 0x0 REVERT JUMPDEST PUSH1 0x1 SLOAD DUP2 LT ISZERO PUSH2 0xA04 JUMPI PUSH1 0x1 PUSH1 0x0 MSTORE PUSH32 0xB10E2D527612073B26EECDFD717E6A320CF44B4AFAC2B0732D9FCBE2B7FA0CF6 ADD SWAP1 PUSH1 0x0 SWAP1 JUMP JUMPDEST PUSH1 0x2 SLOAD DUP2 LT ISZERO PUSH2 0xA04 JUMPI PUSH1 0x2 PUSH1 0x0 MSTORE PUSH32 0x405787FA12A823E0F2B7631CC41B3BA8828B3321CA811111FA75CD3AA3BB5ACE ADD SWAP1 PUSH1 0x0 SWAP1 JUMP JUMPDEST PUSH1 0x8 SLOAD DUP2 LT ISZERO PUSH2 0xA04 JUMPI PUSH1 0x8 PUSH1 0x0 MSTORE PUSH32 0xF3F7A9FE364FAAB93B216DA50A3214154F22A0A2B415B23A84C8169E8B636EE3 ADD SWAP1 PUSH1 0x0 SWAP1 JUMP JUMPDEST PUSH1 0xD SLOAD DUP2 LT ISZERO PUSH2 0xA04 JUMPI PUSH1 0xD PUSH1 0x0 MSTORE PUSH32 0xD7B6990105719101DABEB77144F2A3385C8033ACD3AF97E9423A695E81AD1EB5 ADD SWAP1 PUSH1 0x0 SWAP1 JUMP JUMPDEST SWAP1 PUSH1 0x0 SWAP2 DUP3 SLOAD DUP2 LT ISZERO PUSH2 0xB1A JUMPI DUP3 DUP1 MSTORE PUSH1 0x0 DUP1 MLOAD PUSH1 0x20 PUSH2 0xEC1 DUP4 CODECOPY DUP2 MLOAD SWAP2 MSTORE ADD SWAP2 SWAP1 JUMP JUMPDEST PUSH4 0x4E487B71 PUSH1 0xE0 SHL DUP4 MSTORE PUSH1 0x32 PUSH1 0x4 MSTORE PUSH1 0x24 DUP4 REVERT JUMPDEST PUSH1 0x60 DUP2 ADD SWAP1 DUP2 LT PUSH8 0xFFFFFFFFFFFFFFFF DUP3 GT OR PUSH2 0xB4A JUMPI PUSH1 0x40 MSTORE JUMP JUMPDEST PUSH4 0x4E487B71 PUSH1 0xE0 SHL PUSH1 0x0 MSTORE PUSH1 0x41 PUSH1 0x4 MSTORE PUSH1 0x24 PUSH1 0x0 REVERT JUMPDEST SWAP1 PUSH1 0x1F DUP1 NOT SWAP2 ADD AND DUP2 ADD SWAP1 DUP2 LT PUSH8 0xFFFFFFFFFFFFFFFF DUP3 GT OR PUSH2 0xB4A JUMPI PUSH1 0x40 MSTORE JUMP JUMPDEST PUSH8 0xFFFFFFFFFFFFFFFF DUP2 GT PUSH2 0xB4A JUMPI PUSH1 0x5 SHL PUSH1 0x20 ADD SWAP1 JUMP JUMPDEST DUP2 DUP2 MUL SWAP3 SWAP2 DUP2 ISZERO SWAP2 DUP5 DIV EQ OR ISZERO PUSH2 0xBAD JUMPI JUMP JUMPDEST PUSH4 0x4E487B71 PUSH1 0xE0 SHL PUSH1 0x0 MSTORE PUSH1 0x11 PUSH1 0x4 MSTORE PUSH1 0x24 PUSH1 0x0 REVERT JUMPDEST PUSH1 0x20 SWAP1 DUP2 DUP2 DUP5 SUB SLT PUSH2 0xC3D JUMPI DUP1 MLOAD SWAP1 PUSH8 0xFFFFFFFFFFFFFFFF DUP3 GT PUSH2 0xC3D JUMPI ADD SWAP2 DUP1 PUSH1 0x1F DUP5 ADD SLT ISZERO PUSH2 0xC3D JUMPI DUP3 MLOAD PUSH2 0xBF9 DUP2 PUSH2 0xB82 JUMP JUMPDEST SWAP4 PUSH2 0xC07 PUSH1 0x40 MLOAD SWAP6 DUP7 PUSH2 0xB60 JUMP JUMPDEST DUP2 DUP6 MSTORE DUP4 DUP1 DUP7 ADD SWAP3 PUSH1 0x5 SHL DUP3 ADD ADD SWAP3 DUP4 GT PUSH2 0xC3D JUMPI DUP4 ADD SWAP1 JUMPDEST DUP3 DUP3 LT PUSH2 0xC2E JUMPI POP POP POP POP SWAP1 JUMP JUMPDEST DUP2 MLOAD DUP2 MSTORE SWAP1 DUP4 ADD SWAP1 DUP4 ADD PUSH2 0xC20 JUMP JUMPDEST PUSH1 0x0 DUP1 REVERT JUMPDEST DUP1 MLOAD DUP3 LT ISZERO PUSH2 0xA04 JUMPI PUSH1 0x20 SWAP2 PUSH1 0x5 SHL ADD ADD SWAP1 JUMP JUMPDEST SWAP2 SWAP1 DUP3 SUB SWAP2 DUP3 GT PUSH2 0xBAD JUMPI JUMP JUMPDEST SWAP2 SWAP1 DUP3 ADD DUP1 SWAP3 GT PUSH2 0xBAD JUMPI JUMP JUMPDEST SWAP1 PUSH1 0x0 SWAP2 PUSH1 0x40 MLOAD DUP1 SWAP2 PUSH1 0xA SLOAD DUP1 DUP4 MSTORE PUSH1 0x20 DUP1 SWAP4 ADD SWAP1 PUSH1 0xA DUP8 MSTORE PUSH32 0xC65A7BB8D6351C1CF70C95A316CC6A92839C986682D98BC35F958F4883F9D2A8 SWAP1 DUP8 JUMPDEST DUP2 DUP2 LT PUSH2 0xEAC JUMPI POP POP POP DUP4 PUSH2 0xCC3 SWAP2 SUB DUP5 PUSH2 0xB60 JUMP JUMPDEST PUSH1 0x40 MLOAD DUP1 SWAP3 PUSH1 0x20 PUSH1 0xC SLOAD SWAP3 DUP4 DUP2 MSTORE ADD SWAP2 PUSH1 0xC DUP9 MSTORE PUSH32 0xDF6966C971051C3D54EC59162606531493A51404A002842F56009D7E5CF4A8C7 SWAP2 DUP9 SWAP1 JUMPDEST DUP3 DUP3 LT PUSH2 0xE95 JUMPI POP POP POP POP DUP3 PUSH2 0xD13 SWAP2 SUB DUP4 PUSH2 0xB60 JUMP JUMPDEST DUP5 SWAP3 PUSH1 0xE SLOAD SWAP6 JUMPDEST DUP3 MLOAD DUP6 LT ISZERO PUSH2 0xE8D JUMPI PUSH2 0xDE3 PUSH1 0x1 SWAP2 PUSH2 0xD33 DUP8 DUP7 PUSH2 0xC42 JUMP JUMPDEST MLOAD DUP1 PUSH2 0xD3F DUP10 DUP8 PUSH2 0xC42 JUMP JUMPDEST MLOAD LT PUSH2 0xE6D JUMPI POP PUSH1 0x0 PUSH2 0xD66 PUSH2 0xD55 DUP10 DUP9 PUSH2 0xC42 JUMP JUMPDEST MLOAD PUSH2 0xD60 DUP11 DUP9 PUSH2 0xC42 JUMP JUMPDEST MLOAD PUSH2 0xC56 JUMP JUMPDEST PUSH2 0xD70 DUP10 DUP8 PUSH2 0xC42 JUMP JUMPDEST MSTORE JUMPDEST DUP1 PUSH2 0xD7D DUP10 DUP10 PUSH2 0xC42 JUMP JUMPDEST MLOAD LT PUSH2 0xE45 JUMPI PUSH2 0xD91 SWAP1 PUSH2 0xD60 DUP10 DUP10 PUSH2 0xC42 JUMP JUMPDEST PUSH2 0xD9B DUP9 DUP9 PUSH2 0xC42 JUMP JUMPDEST MSTORE PUSH1 0x0 SWAP1 JUMPDEST DUP2 PUSH2 0xDBB PUSH2 0xDAD DUP11 PUSH2 0x9CD JUMP JUMPDEST SWAP5 SWAP1 SLOAD PUSH1 0x3 SWAP6 DUP7 SHL SHR PUSH2 0xB9A JUMP JUMPDEST SWAP3 DUP12 DUP1 DUP4 GT PUSH2 0xE23 JUMPI JUMPDEST POP PUSH2 0xDCF DUP11 PUSH2 0xA88 JUMP JUMPDEST SWAP1 SLOAD SWAP1 DUP3 SHL SHR DUP3 GT PUSH2 0xDEB JUMPI JUMPDEST POP POP PUSH2 0xC63 JUMP JUMPDEST SWAP5 ADD SWAP4 PUSH2 0xD1A JUMP JUMPDEST PUSH2 0xE0C PUSH2 0xE1B SWAP4 SWAP5 SWAP3 PUSH2 0xE15 SWAP3 PUSH2 0xE01 DUP14 PUSH2 0xA88 JUMP JUMPDEST SWAP1 SLOAD SWAP2 SHL SHR SWAP1 PUSH2 0xC56 JUMP JUMPDEST PUSH1 0x9 SLOAD SWAP1 PUSH2 0xB9A JUMP JUMPDEST SWAP1 PUSH2 0xC63 JUMP JUMPDEST SWAP1 CODESIZE DUP1 PUSH2 0xDDC JUMP JUMPDEST SWAP4 PUSH2 0xE15 PUSH2 0xE35 PUSH2 0xE3E SWAP4 SWAP7 DUP6 PUSH2 0xC56 JUMP JUMPDEST PUSH1 0xF SLOAD SWAP1 PUSH2 0xB9A JUMP JUMPDEST SWAP3 DUP12 PUSH2 0xDC5 JUMP JUMPDEST PUSH2 0xE5A SWAP1 PUSH2 0xE53 DUP10 DUP10 PUSH2 0xC42 JUMP JUMPDEST MLOAD SWAP1 PUSH2 0xC56 JUMP JUMPDEST SWAP1 PUSH1 0x0 PUSH2 0xE67 DUP10 DUP10 PUSH2 0xC42 JUMP JUMPDEST MSTORE PUSH2 0xDA0 JUMP JUMPDEST PUSH2 0xE7B SWAP1 PUSH2 0xE53 DUP10 DUP8 PUSH2 0xC42 JUMP JUMPDEST PUSH1 0x0 PUSH2 0xE87 DUP10 DUP8 PUSH2 0xC42 JUMP JUMPDEST MSTORE PUSH2 0xD72 JUMP JUMPDEST SWAP6 POP POP POP POP POP JUMP JUMPDEST DUP4 SLOAD DUP6 MSTORE SWAP4 DUP5 ADD SWAP4 PUSH1 0x1 SWAP4 DUP5 ADD SWAP4 SWAP1 SWAP2 ADD SWAP1 PUSH2 0xCFC JUMP JUMPDEST DUP3 SLOAD DUP5 MSTORE SWAP3 DUP6 ADD SWAP3 PUSH1 0x1 SWAP3 DUP4 ADD SWAP3 ADD PUSH2 0xCAD JUMP INVALID 0x29 0xD 0xEC 0xD9 SLOAD DUP12 PUSH3 0xA8D603 GASLIMIT 0xA9 DUP9 CODESIZE PUSH16 0xC84BA6BC95484008F6362F93160EF3E5 PUSH4 0xA2646970 PUSH7 0x7358221220F0D0 GAS PREVRANDAO MSTORE PUSH18 0x7FD2880671C4F89C14FF779C80207E5BE791 0xE7 0xCD 0xE6 SDIV 0xCA GASPRICE STOP 0xD5 PUSH5 0x736F6C6343 STOP ADDMOD OR STOP CALLER "},"methodIdentifiers":{"batteryCapacity(uint256)":"b6ce6709","batteryCharge(uint256)":"4eb274ff","c1()":"5f57697c","c2()":"48e257cb","capacity(uint256)":"ab1bbeca","flexibleLoad(uint256)":"e329143f","globalContract()":"90ccfa0f","objectiveFunction(uint256[])":"f0374885","peakDemandPenalty()":"4a702c3d","peakDemandThreshold()":"69cd1db8","penaltyRate()":"d6b7494f","personalBestPosition(uint256)":"a86853d5","personalBestScore()":"4d985ae4","position(uint256)":"f7a95a9e","renewableGeneration(uint256)":"96d14da6","tariff(uint256)":"16b51928","updateBestPositions()":"973b9cc1","updatePeakDemandThreshold(uint256)":"68633fe3","updatePenaltyRate(uint256)":"b4630583","updateVelocityAndPosition()":"f6451c0a","velocity(uint256)":"6f240774","w()":"205c9cc7"}}}}}