{"contracts/Node.sol":{"Node":{"abi":[{"inputs":[{"internalType":"address","name":"globalContractAddress","type":"address"},{"internalType":"int256[]","name":"initialPosition","type":"int256[]"},{"internalType":"int256[]","name":"initialVelocity","type":"int256[]"},{"internalType":"int256[]","name":"initialTariff","type":"int256[]"},{"internalType":"uint256[]","name":"initialCapacity","type":"uint256[]"},{"internalType":"uint256[]","name":"initialRenewableGeneration","type":"uint256[]"},{"internalType":"uint256[]","name":"initialBatteryCapacity","type":"uint256[]"},{"internalType":"uint256[]","name":"initialBatteryCharge","type":"uint256[]"},{"internalType":"uint256[]","name":"initialFlexibleLoad","type":"uint256[]"},{"internalType":"uint256[]","name":"_flexibilityAbove","type":"uint256[]"},{"internalType":"uint256[]","name":"_flexibilityBelow","type":"uint256[]"}],"stateMutability":"nonpayable","type":"constructor"},{"anonymous":false,"inputs":[{"indexed":true,"internalType":"address","name":"node","type":"address"},{"indexed":false,"internalType":"int256","name":"newScore","type":"int256"}],"name":"BestPositionUpdated","type":"event"},{"anonymous":false,"inputs":[{"indexed":false,"internalType":"uint256","name":"timestamp","type":"uint256"}],"name":"NewPlanReceived","type":"event"},{"inputs":[{"internalType":"uint256","name":"","type":"uint256"}],"name":"batteryCapacity","outputs":[{"internalType":"uint256","name":"","type":"uint256"}],"stateMutability":"view","type":"function"},{"inputs":[{"internalType":"uint256","name":"","type":"uint256"}],"name":"batteryCharge","outputs":[{"internalType":"uint256","name":"","type":"uint256"}],"stateMutability":"view","type":"function"},{"inputs":[],"name":"c1","outputs":[{"internalType":"int256","name":"","type":"int256"}],"stateMutability":"view","type":"function"},{"inputs":[],"name":"c2","outputs":[{"internalType":"int256","name":"","type":"int256"}],"stateMutability":"view","type":"function"},{"inputs":[{"internalType":"uint256","name":"","type":"uint256"}],"name":"capacity","outputs":[{"internalType":"uint256","name":"","type":"uint256"}],"stateMutability":"view","type":"function"},{"inputs":[{"internalType":"uint256","name":"","type":"uint256"}],"name":"flexibilityAbove","outputs":[{"internalType":"uint256","name":"","type":"uint256"}],"stateMutability":"view","type":"function"},{"inputs":[{"internalType":"uint256","name":"","type":"uint256"}],"name":"flexibilityBelow","outputs":[{"internalType":"uint256","name":"","type":"uint256"}],"stateMutability":"view","type":"function"},{"inputs":[{"internalType":"uint256","name":"","type":"uint256"}],"name":"flexibleLoad","outputs":[{"internalType":"uint256","name":"","type":"uint256"}],"stateMutability":"view","type":"function"},{"inputs":[],"name":"globalContract","outputs":[{"internalType":"contract GlobalContractInterface","name":"","type":"address"}],"stateMutability":"view","type":"function"},{"inputs":[],"name":"lastKnownGlobalTimestamp","outputs":[{"internalType":"uint256","name":"","type":"uint256"}],"stateMutability":"view","type":"function"},{"inputs":[{"internalType":"int256[]","name":"pos","type":"int256[]"}],"name":"objectiveFunction","outputs":[{"internalType":"int256","name":"","type":"int256"}],"stateMutability":"view","type":"function"},{"inputs":[{"internalType":"uint256","name":"","type":"uint256"}],"name":"personalBestPosition","outputs":[{"internalType":"int256","name":"","type":"int256"}],"stateMutability":"view","type":"function"},{"inputs":[],"name":"personalBestScore","outputs":[{"internalType":"int256","name":"","type":"int256"}],"stateMutability":"view","type":"function"},{"inputs":[{"internalType":"uint256","name":"","type":"uint256"}],"name":"position","outputs":[{"internalType":"int256","name":"","type":"int256"}],"stateMutability":"view","type":"function"},{"inputs":[{"internalType":"uint256","name":"","type":"uint256"}],"name":"renewableGeneration","outputs":[{"internalType":"uint256","name":"","type":"uint256"}],"stateMutability":"view","type":"function"},{"inputs":[{"internalType":"uint256","name":"","type":"uint256"}],"name":"tariff","outputs":[{"internalType":"int256","name":"","type":"int256"}],"stateMutability":"view","type":"function"},{"inputs":[],"name":"updateBestPositions","outputs":[],"stateMutability":"nonpayable","type":"function"},{"inputs":[],"name":"updateVelocityAndPosition","outputs":[],"stateMutability":"nonpayable","type":"function"},{"inputs":[{"internalType":"uint256","name":"","type":"uint256"}],"name":"velocity","outputs":[{"internalType":"int256","name":"","type":"int256"}],"stateMutability":"view","type":"function"},{"inputs":[],"name":"w","outputs":[{"internalType":"int256","name":"","type":"int256"}],"stateMutability":"view","type":"function"}],"evm":{"bytecode":{"linkReferences":{},"object":"608060405234620009765762001b4d803803806200001d816200097b565b928339810161016082820312620009765781516001600160a01b0381169290839003620009765760208101516001600160401b03811162000976578262000066918301620009a1565b60408201516001600160401b03811162000976578362000088918401620009a1565b60608301516001600160401b038111620009765784620000aa918501620009a1565b60808401516001600160401b038111620009765785620000cc918601620009a1565b60a08501516001600160401b038111620009765786620000ee918701620009a1565b60c08601519092906001600160401b03811162000976578762000113918801620009a1565b60e08701519094906001600160401b03811162000976578862000138918901620009a1565b6101008801519096906001600160401b0381116200097657896200015e918a01620009a1565b6101208901519098906001600160401b03811162000976578a62000184918301620009a1565b610140820151909a906001600160401b0381116200097657620001a89201620009a1565b6001600160ff1b03600355603260055560966006819055600755601080546001600160a01b031916909b17909a558051916001600160401b038311620005b357680100000000000000008311620005b357600054836000558084106200092e575b5060208201928360008052602060002060005b838110620009195750508251929150506001600160401b038211620005b357680100000000000000008211620005b35760015482600155808310620008cf575b506020016001600052602060002060005b838110620008ba5750509151929150506001600160401b038211620005b357680100000000000000008211620005b3576002548260025580831062000870575b506002600052602060002060005b8381106200085b5750508251929150506001600160401b038211620005b357680100000000000000008211620005b3576008548260085580831062000812575b506020016008600052602060002060005b838110620007fd5750508251929150506001600160401b038211620005b357680100000000000000008211620005b35760095482600955808310620007b4575b506020016009600052602060002060005b8381106200079f5750508251929150506001600160401b038211620005b357680100000000000000008211620005b357600a5482600a5580831062000756575b50602001600a600052602060002060005b838110620007415750508251929150506001600160401b038211620005b357680100000000000000008211620005b357600b5482600b55808310620006f8575b50602001600b600052602060002060005b838110620006e35750508251929150506001600160401b038211620005b357680100000000000000008211620005b357600c5482600c558083106200069a575b50602001600c600052602060002060005b838110620006855750508251929150506001600160401b038211620005b357680100000000000000008211620005b357600d5482600d558083106200063c575b50602001600d600052602060002060005b838110620006275784518690866001600160401b038211620005b357680100000000000000008211620005b357600e5482600e55808310620005de575b50602001600e600052602060002060005b838110620005c9578451856001600160401b038211620005b357680100000000000000008211620005b357600f5482600f558083106200056a575b5060200190600f60005260206000209160005b8281106200055557604051611142908162000a0b8239f35b6001906020835193019281860155016200053d565b600f6000527f8d1108e10bcb7c27dddfc02ed9d693a074039d026cf4ea4240b40f7d581ac8029081019083015b818110620005a657506200052a565b6000815560010162000597565b634e487b7160e01b600052604160045260246000fd5b600190602084519401938184015501620004ef565b600e6000527fbb7b4a454dc3493923482f07822329ed19e8244eff582cc204f8554c3620c3fd9081019083015b8181106200061a5750620004de565b600081556001016200060b565b600190602084519401938184015501620004a1565b600d6000527fd7b6990105719101dabeb77144f2a3385c8033acd3af97e9423a695e81ad1eb59081019083015b81811062000678575062000490565b6000815560010162000669565b60019060208451940193818401550162000450565b600c6000527fdf6966c971051c3d54ec59162606531493a51404a002842f56009d7e5cf4a8c79081019083015b818110620006d657506200043f565b60008155600101620006c7565b600190602084519401938184015501620003ff565b600b6000527f0175b7a638427703f0dbe7bb9bbf987a2551717b34e79f33b5b1008d1fa01db99081019083015b818110620007345750620003ee565b6000815560010162000725565b600190602084519401938184015501620003ae565b600a6000527fc65a7bb8d6351c1cf70c95a316cc6a92839c986682d98bc35f958f4883f9d2a89081019083015b8181106200079257506200039d565b6000815560010162000783565b6001906020845194019381840155016200035d565b60096000527f6e1540171b6c0c960b71a7020d9f60077f6af931a8bbf590da0223dacf75c7af9081019083015b818110620007f057506200034c565b60008155600101620007e1565b6001906020845194019381840155016200030c565b60086000527ff3f7a9fe364faab93b216da50a3214154f22a0a2b415b23a84c8169e8b636ee39081019083015b8181106200084e5750620002fb565b600081556001016200083f565b600190602084519401938184015501620002bb565b60026000527f405787fa12a823e0f2b7631cc41b3ba8828b3321ca811111fa75cd3aa3bb5ace908382015b8183018110620008ad575050620002ad565b600081556001016200089b565b6001906020845194019381840155016200026d565b60016000527fb10e2d527612073b26eecdfd717e6a320cf44b4afac2b0732d9fcbe2b7fa0cf6908382015b81830181106200090c5750506200025c565b60008155600101620008fa565b6001906020845194019381840155016200021c565b600080527f290decd9548b62a8d60345a988386fc84ba6bc95484008f6362f93160ef3e5639081019084015b81811062000969575062000209565b600081556001016200095a565b600080fd5b6040519190601f01601f191682016001600160401b03811183821017620005b357604052565b81601f8201121562000976578051916020916001600160401b038411620005b3578360051b908380620009d68185016200097b565b80978152019282010192831162000976578301905b828210620009fa575050505090565b81518152908301908301620009eb56fe6040608081526004908136101561001557600080fd5b600091823560e01c806316b51928146107a6578063205c9cc714610787578063364132d9146106f4578063375a105e146106ca57806348e257cb146106ab5780634d985ae41461068c5780634eb274ff1461063f5780635f57697c146106205780636f240774146105f657806378b6d7d4146105cc57806390ccfa0f1461059f57806396d14da614610552578063973b9cc11461028d578063a86853d514610263578063ab1bbeca14610213578063b6ce6709146101c3578063d0c6c7af146101a6578063e329143f14610156578063f6451c0a1461013a5763f7a95a9e146100fd57600080fd5b34610136576020366003190112610136573591805483101561013357506101256020926108f5565b91905490519160031b1c8152f35b80fd5b8280fd5b8334610133578060031936011261013357610153610c8a565b80f35b50346101365760203660031901126101365735600d548110156101365760209250600d6000527fd7b6990105719101dabeb77144f2a3385c8033acd3af97e9423a695e81ad1eb501549051908152f35b503461013657826003193601126101365760209250549051908152f35b50346101365760203660031901126101365735600b548110156101365760209250600b6000527f0175b7a638427703f0dbe7bb9bbf987a2551717b34e79f33b5b1008d1fa01db901549051908152f35b50346101365760203660031901126101365735600954811015610136576020925060096000527f6e1540171b6c0c960b71a7020d9f60077f6af931a8bbf590da0223dacf75c7af01549051908152f35b503461013657602036600319011261013657359160025483101561013357506101256020926108be565b5090346101365760031991838336011261054e576102bf82516102ba816102b381610c31565b038261093f565b610a1e565b600390600354811261042a575b600e54906102d982610977565b926102e68651948561093f565b8284526102f283610977565b926020916020860194601f1901368637895b8281106103d95750506010546001600160a01b0316949050843b156103d55796929088949260208851998a96632fc0395f60e01b885260608a89015261034c60648901610c31565b9360248901528784030160448801525191828152019291865b8281106103bb57505050508383809203925af180156103b157610386578380f35b67ffffffffffffffff831161039e5750523880808380f35b634e487b7160e01b845260419052602483fd5b82513d86823e3d90fd5b835185528b97508a96509381019392810192600101610365565b8880fd5b6103e281610887565b905490831b1c6103f182610819565b905490841b1c81018091116104175790600191821c610410828a61098f565b5201610304565b634e487b7160e01b8c526011895260248cfd5b80600355855467ffffffffffffffff811161053b5768010000000000000000811161053b57600254816002558082106104fb575b507f290decd9548b62a8d60345a988386fc84ba6bc95484008f6362f93160ef3e5636002885280549088915b8383106104c5575050505083518181527f409d103f7876158f293a85ee39f235ce0c309ab1aca81024a51dfb4b471e556e60203092a26102cc565b60018091920192835492817f405787fa12a823e0f2b7631cc41b3ba8828b3321ca811111fa75cd3aa3bb5ace015501919061048a565b817f405787fa12a823e0f2b7631cc41b3ba8828b3321ca811111fa75cd3aa3bb5ace91820191015b818110610530575061045e565b888155600101610523565b634e487b7160e01b875260418452602487fd5b8380fd5b50346101365760203660031901126101365735600a5481101561013657600a602093527fc65a7bb8d6351c1cf70c95a316cc6a92839c986682d98bc35f958f4883f9d2a801549051908152f35b5050346105c857816003193601126105c85760105490516001600160a01b039091168152602090f35b5080fd5b5034610136576020366003190112610136573591600e548310156101335750610125602092610887565b50346101365760203660031901126101365735916001548310156101335750610125602092610850565b5050346105c857816003193601126105c8576020906006549051908152f35b50346101365760203660031901126101365735600c5481101561013657600c602093527fdf6966c971051c3d54ec59162606531493a51404a002842f56009d7e5cf4a8c701549051908152f35b5050346105c857816003193601126105c8576020906003549051908152f35b5050346105c857816003193601126105c8576020906007549051908152f35b5034610136576020366003190112610136573591600f548310156101335750610125602092610819565b5091346101335760209060206003193601126101335783359367ffffffffffffffff85116105c857366023860112156105c85784013561073381610977565b946107408551968761093f565b8186526024602087019260051b820101923684116101335750602401905b8282106107785760208561077188610a1e565b9051908152f35b8135815290830190830161075e565b5050346105c857816003193601126105c8576020906005549051908152f35b503461013657602036600319011261013657359160085483101561013357506101256020925b6008548110156108035760086000527ff3f7a9fe364faab93b216da50a3214154f22a0a2b415b23a84c8169e8b636ee30190600090565b634e487b7160e01b600052603260045260246000fd5b600f5481101561080357600f6000527f8d1108e10bcb7c27dddfc02ed9d693a074039d026cf4ea4240b40f7d581ac8020190600090565b6001548110156108035760016000527fb10e2d527612073b26eecdfd717e6a320cf44b4afac2b0732d9fcbe2b7fa0cf60190600090565b600e5481101561080357600e6000527fbb7b4a454dc3493923482f07822329ed19e8244eff582cc204f8554c3620c3fd0190600090565b6002548110156108035760026000527f405787fa12a823e0f2b7631cc41b3ba8828b3321ca811111fa75cd3aa3bb5ace0190600090565b90600091825481101561092b578280527f290decd9548b62a8d60345a988386fc84ba6bc95484008f6362f93160ef3e563019190565b634e487b7160e01b83526032600452602483fd5b90601f8019910116810190811067ffffffffffffffff82111761096157604052565b634e487b7160e01b600052604160045260246000fd5b67ffffffffffffffff81116109615760051b60200190565b80518210156108035760209160051b010190565b919082039182116109b057565b634e487b7160e01b600052601160045260246000fd5b818102929160008212600160ff1b8214166109b05781840514901517156109b057565b919091600083820193841291129080158216911516176109b057565b818103929160001380158285131691841216176109b057565b600090805160405180600a54808252602080920190600a87527fc65a7bb8d6351c1cf70c95a316cc6a92839c986682d98bc35f958f4883f9d2a890875b818110610c1d5750505082610a7191038361093f565b60405180916020600c54928381520191600c88527fdf6966c971051c3d54ec59162606531493a51404a002842f56009d7e5cf4a8c79188905b828210610c06575050505081610ac191038261093f565b84935b838510610ad357505050505090565b9091929394610ae2868361098f565b516000811215610b2e57610af5876107cc565b92905491600160ff1b81146109b057600193610b2293610b1c926000039160031b1c6109c6565b90610a05565b955b0193929190610ac4565b600191610bb5918080610b418b8a61098f565b5110610be55750610b5c90610b568a8961098f565b516109a3565b610b66898861098f565b5260005b80610b758a8861098f565b5110610bbb57610b8990610b568a8861098f565b610b93898761098f565b52610baf60005b610ba38a6107cc565b90549060031b1c6109c6565b906109e9565b95610b24565b610bd3610baf91610bcc8b8961098f565b51906109a3565b6000610bdf8b8961098f565b52610b9a565b610bf49150610bcc8a8961098f565b6000610c008a8961098f565b52610b6a565b835485529384019360019384019390910190610aaa565b825484529284019260019283019201610a5b565b600080548083528180526020928301927f290decd9548b62a8d60345a988386fc84ba6bc95484008f6362f93160ef3e56392905b828210610c73575050505090565b835485529384019360019384019390910190610c65565b601054604080516302989b4b60e61b8152600493926020916001600160a01b0391839082908890829086165afa908115611101576000916110d4575b508554811115610ff75782917fc06999d659d5132dd93a1915097da1a6a24201916389e38da2404e4bca5e59be8795948360009488558651908152a160105416835194858092631e385f6960e01b82525afa9283156110c957600093611036575b50825160005403610fff5760005b600054811015610ff757610d48816108f5565b905484514285820190815260208101859052600393841b9290921c604083015280606083010390610d81601f199283810183528261093f565b60649283915190200690600191828601808711610fe257846065918a610dde8b610dd2610dad8d610850565b9054908d1b1c9351938492830195428791606093918352602083015260408201520190565b0387810183528261093f565b5190200692610dec88610850565b905490881b1c90610e258b519182610e198d8201958d428891606093918352602083015260408201520190565b0390810183528261093f565b5190200792603119840193841316610fcd57610f0b92610ee3859384610ed389610ece8f610ee898839c60019f9e8f93610ece610ec586610ead610e9782610e91610ed398610e76610eda9d6108be565b905490821b1c90610e86846108f5565b9054911b1c90610a05565b9661098f565b51610ea1836108f5565b9054908d1b1c90610a05565b99610eba60055492610850565b9054911b1c906109c6565b946006546109c6565b6109c6565b05906109e9565b946007546109c6565b6109e9565b05610ef284610850565b90919082549060031b91821b91600019901b1916179055565b610f3e610f35610f1a846108f5565b905490841b1c610f2985610850565b905490851b1c906109e9565b610ef2846108f5565b610f47826108be565b905490821b1c610f72610f68610f5c85610819565b905490851b1c83610a05565b91610f2985610887565b91818392610f7f866108f5565b905490841b1c12610fba575b50610f95846108f5565b9054911b1c13610fa7575b5001610d35565b610fb490610ef2836108f5565b38610fa0565b610fc790610ef2866108f5565b38610f8b565b60118b634e487b7160e01b6000525260246000fd5b60118c634e487b7160e01b6000525260246000fd5b505050509050565b8490606492519162461bcd60e51b8352820152601260248201527144696d656e7369756e6920696e6567616c6560701b6044820152fd5b9290923d8083833e611048818361093f565b81019084818303126101365780519067ffffffffffffffff821161054e570181601f820112156101365780519061107e82610977565b9361108b8651958661093f565b828552868086019360051b830101938411610133575085809101915b8383106110b957505050509138610d27565b82518152918101918691016110a7565b82513d6000823e3d90fd5b908382813d83116110fa575b6110ea818361093f565b8101031261013357505138610cc6565b503d6110e0565b84513d6000823e3d90fdfea26469706673582212207a5be9456fb8a2df2f970f6d9f59e6b160f7ded47e72dc6dbc2b7708957a73a164736f6c63430008170033","opcodes":"PUSH1 0x80 PUSH1 0x40 MSTORE CALLVALUE PUSH3 0x976 JUMPI PUSH3 0x1B4D DUP1 CODESIZE SUB DUP1 PUSH3 0x1D DUP2 PUSH3 0x97B JUMP JUMPDEST SWAP3 DUP4 CODECOPY DUP2 ADD PUSH2 0x160 DUP3 DUP3 SUB SLT PUSH3 0x976 JUMPI DUP2 MLOAD PUSH1 0x1 PUSH1 0x1 PUSH1 0xA0 SHL SUB DUP2 AND SWAP3 SWAP1 DUP4 SWAP1 SUB PUSH3 0x976 JUMPI PUSH1 0x20 DUP2 ADD MLOAD PUSH1 0x1 PUSH1 0x1 PUSH1 0x40 SHL SUB DUP2 GT PUSH3 0x976 JUMPI DUP3 PUSH3 0x66 SWAP2 DUP4 ADD PUSH3 0x9A1 JUMP JUMPDEST PUSH1 0x40 DUP3 ADD MLOAD PUSH1 0x1 PUSH1 0x1 PUSH1 0x40 SHL SUB DUP2 GT PUSH3 0x976 JUMPI DUP4 PUSH3 0x88 SWAP2 DUP5 ADD PUSH3 0x9A1 JUMP JUMPDEST PUSH1 0x60 DUP4 ADD MLOAD PUSH1 0x1 PUSH1 0x1 PUSH1 0x40 SHL SUB DUP2 GT PUSH3 0x976 JUMPI DUP5 PUSH3 0xAA SWAP2 DUP6 ADD PUSH3 0x9A1 JUMP JUMPDEST PUSH1 0x80 DUP5 ADD MLOAD PUSH1 0x1 PUSH1 0x1 PUSH1 0x40 SHL SUB DUP2 GT PUSH3 0x976 JUMPI DUP6 PUSH3 0xCC SWAP2 DUP7 ADD PUSH3 0x9A1 JUMP JUMPDEST PUSH1 0xA0 DUP6 ADD MLOAD PUSH1 0x1 PUSH1 0x1 PUSH1 0x40 SHL SUB DUP2 GT PUSH3 0x976 JUMPI DUP7 PUSH3 0xEE SWAP2 DUP8 ADD PUSH3 0x9A1 JUMP JUMPDEST PUSH1 0xC0 DUP7 ADD MLOAD SWAP1 SWAP3 SWAP1 PUSH1 0x1 PUSH1 0x1 PUSH1 0x40 SHL SUB DUP2 GT PUSH3 0x976 JUMPI DUP8 PUSH3 0x113 SWAP2 DUP9 ADD PUSH3 0x9A1 JUMP JUMPDEST PUSH1 0xE0 DUP8 ADD MLOAD SWAP1 SWAP5 SWAP1 PUSH1 0x1 PUSH1 0x1 PUSH1 0x40 SHL SUB DUP2 GT PUSH3 0x976 JUMPI DUP9 PUSH3 0x138 SWAP2 DUP10 ADD PUSH3 0x9A1 JUMP JUMPDEST PUSH2 0x100 DUP9 ADD MLOAD SWAP1 SWAP7 SWAP1 PUSH1 0x1 PUSH1 0x1 PUSH1 0x40 SHL SUB DUP2 GT PUSH3 0x976 JUMPI DUP10 PUSH3 0x15E SWAP2 DUP11 ADD PUSH3 0x9A1 JUMP JUMPDEST PUSH2 0x120 DUP10 ADD MLOAD SWAP1 SWAP9 SWAP1 PUSH1 0x1 PUSH1 0x1 PUSH1 0x40 SHL SUB DUP2 GT PUSH3 0x976 JUMPI DUP11 PUSH3 0x184 SWAP2 DUP4 ADD PUSH3 0x9A1 JUMP JUMPDEST PUSH2 0x140 DUP3 ADD MLOAD SWAP1 SWAP11 SWAP1 PUSH1 0x1 PUSH1 0x1 PUSH1 0x40 SHL SUB DUP2 GT PUSH3 0x976 JUMPI PUSH3 0x1A8 SWAP3 ADD PUSH3 0x9A1 JUMP JUMPDEST PUSH1 0x1 PUSH1 0x1 PUSH1 0xFF SHL SUB PUSH1 0x3 SSTORE PUSH1 0x32 PUSH1 0x5 SSTORE PUSH1 0x96 PUSH1 0x6 DUP2 SWAP1 SSTORE PUSH1 0x7 SSTORE PUSH1 0x10 DUP1 SLOAD PUSH1 0x1 PUSH1 0x1 PUSH1 0xA0 SHL SUB NOT AND SWAP1 SWAP12 OR SWAP1 SWAP11 SSTORE DUP1 MLOAD SWAP2 PUSH1 0x1 PUSH1 0x1 PUSH1 0x40 SHL SUB DUP4 GT PUSH3 0x5B3 JUMPI PUSH9 0x10000000000000000 DUP4 GT PUSH3 0x5B3 JUMPI PUSH1 0x0 SLOAD DUP4 PUSH1 0x0 SSTORE DUP1 DUP5 LT PUSH3 0x92E JUMPI JUMPDEST POP PUSH1 0x20 DUP3 ADD SWAP3 DUP4 PUSH1 0x0 DUP1 MSTORE PUSH1 0x20 PUSH1 0x0 KECCAK256 PUSH1 0x0 JUMPDEST DUP4 DUP2 LT PUSH3 0x919 JUMPI POP POP DUP3 MLOAD SWAP3 SWAP2 POP POP PUSH1 0x1 PUSH1 0x1 PUSH1 0x40 SHL SUB DUP3 GT PUSH3 0x5B3 JUMPI PUSH9 0x10000000000000000 DUP3 GT PUSH3 0x5B3 JUMPI PUSH1 0x1 SLOAD DUP3 PUSH1 0x1 SSTORE DUP1 DUP4 LT PUSH3 0x8CF JUMPI JUMPDEST POP PUSH1 0x20 ADD PUSH1 0x1 PUSH1 0x0 MSTORE PUSH1 0x20 PUSH1 0x0 KECCAK256 PUSH1 0x0 JUMPDEST DUP4 DUP2 LT PUSH3 0x8BA JUMPI POP POP SWAP2 MLOAD SWAP3 SWAP2 POP POP PUSH1 0x1 PUSH1 0x1 PUSH1 0x40 SHL SUB DUP3 GT PUSH3 0x5B3 JUMPI PUSH9 0x10000000000000000 DUP3 GT PUSH3 0x5B3 JUMPI PUSH1 0x2 SLOAD DUP3 PUSH1 0x2 SSTORE DUP1 DUP4 LT PUSH3 0x870 JUMPI JUMPDEST POP PUSH1 0x2 PUSH1 0x0 MSTORE PUSH1 0x20 PUSH1 0x0 KECCAK256 PUSH1 0x0 JUMPDEST DUP4 DUP2 LT PUSH3 0x85B JUMPI POP POP DUP3 MLOAD SWAP3 SWAP2 POP POP PUSH1 0x1 PUSH1 0x1 PUSH1 0x40 SHL SUB DUP3 GT PUSH3 0x5B3 JUMPI PUSH9 0x10000000000000000 DUP3 GT PUSH3 0x5B3 JUMPI PUSH1 0x8 SLOAD DUP3 PUSH1 0x8 SSTORE DUP1 DUP4 LT PUSH3 0x812 JUMPI JUMPDEST POP PUSH1 0x20 ADD PUSH1 0x8 PUSH1 0x0 MSTORE PUSH1 0x20 PUSH1 0x0 KECCAK256 PUSH1 0x0 JUMPDEST DUP4 DUP2 LT PUSH3 0x7FD JUMPI POP POP DUP3 MLOAD SWAP3 SWAP2 POP POP PUSH1 0x1 PUSH1 0x1 PUSH1 0x40 SHL SUB DUP3 GT PUSH3 0x5B3 JUMPI PUSH9 0x10000000000000000 DUP3 GT PUSH3 0x5B3 JUMPI PUSH1 0x9 SLOAD DUP3 PUSH1 0x9 SSTORE DUP1 DUP4 LT PUSH3 0x7B4 JUMPI JUMPDEST POP PUSH1 0x20 ADD PUSH1 0x9 PUSH1 0x0 MSTORE PUSH1 0x20 PUSH1 0x0 KECCAK256 PUSH1 0x0 JUMPDEST DUP4 DUP2 LT PUSH3 0x79F JUMPI POP POP DUP3 MLOAD SWAP3 SWAP2 POP POP PUSH1 0x1 PUSH1 0x1 PUSH1 0x40 SHL SUB DUP3 GT PUSH3 0x5B3 JUMPI PUSH9 0x10000000000000000 DUP3 GT PUSH3 0x5B3 JUMPI PUSH1 0xA SLOAD DUP3 PUSH1 0xA SSTORE DUP1 DUP4 LT PUSH3 0x756 JUMPI JUMPDEST POP PUSH1 0x20 ADD PUSH1 0xA PUSH1 0x0 MSTORE PUSH1 0x20 PUSH1 0x0 KECCAK256 PUSH1 0x0 JUMPDEST DUP4 DUP2 LT PUSH3 0x741 JUMPI POP POP DUP3 MLOAD SWAP3 SWAP2 POP POP PUSH1 0x1 PUSH1 0x1 PUSH1 0x40 SHL SUB DUP3 GT PUSH3 0x5B3 JUMPI PUSH9 0x10000000000000000 DUP3 GT PUSH3 0x5B3 JUMPI PUSH1 0xB SLOAD DUP3 PUSH1 0xB SSTORE DUP1 DUP4 LT PUSH3 0x6F8 JUMPI JUMPDEST POP PUSH1 0x20 ADD PUSH1 0xB PUSH1 0x0 MSTORE PUSH1 0x20 PUSH1 0x0 KECCAK256 PUSH1 0x0 JUMPDEST DUP4 DUP2 LT PUSH3 0x6E3 JUMPI POP POP DUP3 MLOAD SWAP3 SWAP2 POP POP PUSH1 0x1 PUSH1 0x1 PUSH1 0x40 SHL SUB DUP3 GT PUSH3 0x5B3 JUMPI PUSH9 0x10000000000000000 DUP3 GT PUSH3 0x5B3 JUMPI PUSH1 0xC SLOAD DUP3 PUSH1 0xC SSTORE DUP1 DUP4 LT PUSH3 0x69A JUMPI JUMPDEST POP PUSH1 0x20 ADD PUSH1 0xC PUSH1 0x0 MSTORE PUSH1 0x20 PUSH1 0x0 KECCAK256 PUSH1 0x0 JUMPDEST DUP4 DUP2 LT PUSH3 0x685 JUMPI POP POP DUP3 MLOAD SWAP3 SWAP2 POP POP PUSH1 0x1 PUSH1 0x1 PUSH1 0x40 SHL SUB DUP3 GT PUSH3 0x5B3 JUMPI PUSH9 0x10000000000000000 DUP3 GT PUSH3 0x5B3 JUMPI PUSH1 0xD SLOAD DUP3 PUSH1 0xD SSTORE DUP1 DUP4 LT PUSH3 0x63C JUMPI JUMPDEST POP PUSH1 0x20 ADD PUSH1 0xD PUSH1 0x0 MSTORE PUSH1 0x20 PUSH1 0x0 KECCAK256 PUSH1 0x0 JUMPDEST DUP4 DUP2 LT PUSH3 0x627 JUMPI DUP5 MLOAD DUP7 SWAP1 DUP7 PUSH1 0x1 PUSH1 0x1 PUSH1 0x40 SHL SUB DUP3 GT PUSH3 0x5B3 JUMPI PUSH9 0x10000000000000000 DUP3 GT PUSH3 0x5B3 JUMPI PUSH1 0xE SLOAD DUP3 PUSH1 0xE SSTORE DUP1 DUP4 LT PUSH3 0x5DE JUMPI JUMPDEST POP PUSH1 0x20 ADD PUSH1 0xE PUSH1 0x0 MSTORE PUSH1 0x20 PUSH1 0x0 KECCAK256 PUSH1 0x0 JUMPDEST DUP4 DUP2 LT PUSH3 0x5C9 JUMPI DUP5 MLOAD DUP6 PUSH1 0x1 PUSH1 0x1 PUSH1 0x40 SHL SUB DUP3 GT PUSH3 0x5B3 JUMPI PUSH9 0x10000000000000000 DUP3 GT PUSH3 0x5B3 JUMPI PUSH1 0xF SLOAD DUP3 PUSH1 0xF SSTORE DUP1 DUP4 LT PUSH3 0x56A JUMPI JUMPDEST POP PUSH1 0x20 ADD SWAP1 PUSH1 0xF PUSH1 0x0 MSTORE PUSH1 0x20 PUSH1 0x0 KECCAK256 SWAP2 PUSH1 0x0 JUMPDEST DUP3 DUP2 LT PUSH3 0x555 JUMPI PUSH1 0x40 MLOAD PUSH2 0x1142 SWAP1 DUP2 PUSH3 0xA0B DUP3 CODECOPY RETURN JUMPDEST PUSH1 0x1 SWAP1 PUSH1 0x20 DUP4 MLOAD SWAP4 ADD SWAP3 DUP2 DUP7 ADD SSTORE ADD PUSH3 0x53D JUMP JUMPDEST PUSH1 0xF PUSH1 0x0 MSTORE PUSH32 0x8D1108E10BCB7C27DDDFC02ED9D693A074039D026CF4EA4240B40F7D581AC802 SWAP1 DUP2 ADD SWAP1 DUP4 ADD JUMPDEST DUP2 DUP2 LT PUSH3 0x5A6 JUMPI POP PUSH3 0x52A JUMP JUMPDEST PUSH1 0x0 DUP2 SSTORE PUSH1 0x1 ADD PUSH3 0x597 JUMP JUMPDEST PUSH4 0x4E487B71 PUSH1 0xE0 SHL PUSH1 0x0 MSTORE PUSH1 0x41 PUSH1 0x4 MSTORE PUSH1 0x24 PUSH1 0x0 REVERT JUMPDEST PUSH1 0x1 SWAP1 PUSH1 0x20 DUP5 MLOAD SWAP5 ADD SWAP4 DUP2 DUP5 ADD SSTORE ADD PUSH3 0x4EF JUMP JUMPDEST PUSH1 0xE PUSH1 0x0 MSTORE PUSH32 0xBB7B4A454DC3493923482F07822329ED19E8244EFF582CC204F8554C3620C3FD SWAP1 DUP2 ADD SWAP1 DUP4 ADD JUMPDEST DUP2 DUP2 LT PUSH3 0x61A JUMPI POP PUSH3 0x4DE JUMP JUMPDEST PUSH1 0x0 DUP2 SSTORE PUSH1 0x1 ADD PUSH3 0x60B JUMP JUMPDEST PUSH1 0x1 SWAP1 PUSH1 0x20 DUP5 MLOAD SWAP5 ADD SWAP4 DUP2 DUP5 ADD SSTORE ADD PUSH3 0x4A1 JUMP JUMPDEST PUSH1 0xD PUSH1 0x0 MSTORE PUSH32 0xD7B6990105719101DABEB77144F2A3385C8033ACD3AF97E9423A695E81AD1EB5 SWAP1 DUP2 ADD SWAP1 DUP4 ADD JUMPDEST DUP2 DUP2 LT PUSH3 0x678 JUMPI POP PUSH3 0x490 JUMP JUMPDEST PUSH1 0x0 DUP2 SSTORE PUSH1 0x1 ADD PUSH3 0x669 JUMP JUMPDEST PUSH1 0x1 SWAP1 PUSH1 0x20 DUP5 MLOAD SWAP5 ADD SWAP4 DUP2 DUP5 ADD SSTORE ADD PUSH3 0x450 JUMP JUMPDEST PUSH1 0xC PUSH1 0x0 MSTORE PUSH32 0xDF6966C971051C3D54EC59162606531493A51404A002842F56009D7E5CF4A8C7 SWAP1 DUP2 ADD SWAP1 DUP4 ADD JUMPDEST DUP2 DUP2 LT PUSH3 0x6D6 JUMPI POP PUSH3 0x43F JUMP JUMPDEST PUSH1 0x0 DUP2 SSTORE PUSH1 0x1 ADD PUSH3 0x6C7 JUMP JUMPDEST PUSH1 0x1 SWAP1 PUSH1 0x20 DUP5 MLOAD SWAP5 ADD SWAP4 DUP2 DUP5 ADD SSTORE ADD PUSH3 0x3FF JUMP JUMPDEST PUSH1 0xB PUSH1 0x0 MSTORE PUSH32 0x175B7A638427703F0DBE7BB9BBF987A2551717B34E79F33B5B1008D1FA01DB9 SWAP1 DUP2 ADD SWAP1 DUP4 ADD JUMPDEST DUP2 DUP2 LT PUSH3 0x734 JUMPI POP PUSH3 0x3EE JUMP JUMPDEST PUSH1 0x0 DUP2 SSTORE PUSH1 0x1 ADD PUSH3 0x725 JUMP JUMPDEST PUSH1 0x1 SWAP1 PUSH1 0x20 DUP5 MLOAD SWAP5 ADD SWAP4 DUP2 DUP5 ADD SSTORE ADD PUSH3 0x3AE JUMP JUMPDEST PUSH1 0xA PUSH1 0x0 MSTORE PUSH32 0xC65A7BB8D6351C1CF70C95A316CC6A92839C986682D98BC35F958F4883F9D2A8 SWAP1 DUP2 ADD SWAP1 DUP4 ADD JUMPDEST DUP2 DUP2 LT PUSH3 0x792 JUMPI POP PUSH3 0x39D JUMP JUMPDEST PUSH1 0x0 DUP2 SSTORE PUSH1 0x1 ADD PUSH3 0x783 JUMP JUMPDEST PUSH1 0x1 SWAP1 PUSH1 0x20 DUP5 MLOAD SWAP5 ADD SWAP4 DUP2 DUP5 ADD SSTORE ADD PUSH3 0x35D JUMP JUMPDEST PUSH1 0x9 PUSH1 0x0 MSTORE PUSH32 0x6E1540171B6C0C960B71A7020D9F60077F6AF931A8BBF590DA0223DACF75C7AF SWAP1 DUP2 ADD SWAP1 DUP4 ADD JUMPDEST DUP2 DUP2 LT PUSH3 0x7F0 JUMPI POP PUSH3 0x34C JUMP JUMPDEST PUSH1 0x0 DUP2 SSTORE PUSH1 0x1 ADD PUSH3 0x7E1 JUMP JUMPDEST PUSH1 0x1 SWAP1 PUSH1 0x20 DUP5 MLOAD SWAP5 ADD SWAP4 DUP2 DUP5 ADD SSTORE ADD PUSH3 0x30C JUMP JUMPDEST PUSH1 0x8 PUSH1 0x0 MSTORE PUSH32 0xF3F7A9FE364FAAB93B216DA50A3214154F22A0A2B415B23A84C8169E8B636EE3 SWAP1 DUP2 ADD SWAP1 DUP4 ADD JUMPDEST DUP2 DUP2 LT PUSH3 0x84E JUMPI POP PUSH3 0x2FB JUMP JUMPDEST PUSH1 0x0 DUP2 SSTORE PUSH1 0x1 ADD PUSH3 0x83F JUMP JUMPDEST PUSH1 0x1 SWAP1 PUSH1 0x20 DUP5 MLOAD SWAP5 ADD SWAP4 DUP2 DUP5 ADD SSTORE ADD PUSH3 0x2BB JUMP JUMPDEST PUSH1 0x2 PUSH1 0x0 MSTORE PUSH32 0x405787FA12A823E0F2B7631CC41B3BA8828B3321CA811111FA75CD3AA3BB5ACE SWAP1 DUP4 DUP3 ADD JUMPDEST DUP2 DUP4 ADD DUP2 LT PUSH3 0x8AD JUMPI POP POP PUSH3 0x2AD JUMP JUMPDEST PUSH1 0x0 DUP2 SSTORE PUSH1 0x1 ADD PUSH3 0x89B JUMP JUMPDEST PUSH1 0x1 SWAP1 PUSH1 0x20 DUP5 MLOAD SWAP5 ADD SWAP4 DUP2 DUP5 ADD SSTORE ADD PUSH3 0x26D JUMP JUMPDEST PUSH1 0x1 PUSH1 0x0 MSTORE PUSH32 0xB10E2D527612073B26EECDFD717E6A320CF44B4AFAC2B0732D9FCBE2B7FA0CF6 SWAP1 DUP4 DUP3 ADD JUMPDEST DUP2 DUP4 ADD DUP2 LT PUSH3 0x90C JUMPI POP POP PUSH3 0x25C JUMP JUMPDEST PUSH1 0x0 DUP2 SSTORE PUSH1 0x1 ADD PUSH3 0x8FA JUMP JUMPDEST PUSH1 0x1 SWAP1 PUSH1 0x20 DUP5 MLOAD SWAP5 ADD SWAP4 DUP2 DUP5 ADD SSTORE ADD PUSH3 0x21C JUMP JUMPDEST PUSH1 0x0 DUP1 MSTORE PUSH32 0x290DECD9548B62A8D60345A988386FC84BA6BC95484008F6362F93160EF3E563 SWAP1 DUP2 ADD SWAP1 DUP5 ADD JUMPDEST DUP2 DUP2 LT PUSH3 0x969 JUMPI POP PUSH3 0x209 JUMP JUMPDEST PUSH1 0x0 DUP2 SSTORE PUSH1 0x1 ADD PUSH3 0x95A JUMP JUMPDEST PUSH1 0x0 DUP1 REVERT JUMPDEST PUSH1 0x40 MLOAD SWAP2 SWAP1 PUSH1 0x1F ADD PUSH1 0x1F NOT AND DUP3 ADD PUSH1 0x1 PUSH1 0x1 PUSH1 0x40 SHL SUB DUP2 GT DUP4 DUP3 LT OR PUSH3 0x5B3 JUMPI PUSH1 0x40 MSTORE JUMP JUMPDEST DUP2 PUSH1 0x1F DUP3 ADD SLT ISZERO PUSH3 0x976 JUMPI DUP1 MLOAD SWAP2 PUSH1 0x20 SWAP2 PUSH1 0x1 PUSH1 0x1 PUSH1 0x40 SHL SUB DUP5 GT PUSH3 0x5B3 JUMPI DUP4 PUSH1 0x5 SHL SWAP1 DUP4 DUP1 PUSH3 0x9D6 DUP2 DUP6 ADD PUSH3 0x97B JUMP JUMPDEST DUP1 SWAP8 DUP2 MSTORE ADD SWAP3 DUP3 ADD ADD SWAP3 DUP4 GT PUSH3 0x976 JUMPI DUP4 ADD SWAP1 JUMPDEST DUP3 DUP3 LT PUSH3 0x9FA JUMPI POP POP POP POP SWAP1 JUMP JUMPDEST DUP2 MLOAD DUP2 MSTORE SWAP1 DUP4 ADD SWAP1 DUP4 ADD PUSH3 0x9EB JUMP INVALID PUSH1 0x40 PUSH1 0x80 DUP2 MSTORE PUSH1 0x4 SWAP1 DUP2 CALLDATASIZE LT ISZERO PUSH2 0x15 JUMPI PUSH1 0x0 DUP1 REVERT JUMPDEST PUSH1 0x0 SWAP2 DUP3 CALLDATALOAD PUSH1 0xE0 SHR DUP1 PUSH4 0x16B51928 EQ PUSH2 0x7A6 JUMPI DUP1 PUSH4 0x205C9CC7 EQ PUSH2 0x787 JUMPI DUP1 PUSH4 0x364132D9 EQ PUSH2 0x6F4 JUMPI DUP1 PUSH4 0x375A105E EQ PUSH2 0x6CA JUMPI DUP1 PUSH4 0x48E257CB EQ PUSH2 0x6AB JUMPI DUP1 PUSH4 0x4D985AE4 EQ PUSH2 0x68C JUMPI DUP1 PUSH4 0x4EB274FF EQ PUSH2 0x63F JUMPI DUP1 PUSH4 0x5F57697C EQ PUSH2 0x620 JUMPI DUP1 PUSH4 0x6F240774 EQ PUSH2 0x5F6 JUMPI DUP1 PUSH4 0x78B6D7D4 EQ PUSH2 0x5CC JUMPI DUP1 PUSH4 0x90CCFA0F EQ PUSH2 0x59F JUMPI DUP1 PUSH4 0x96D14DA6 EQ PUSH2 0x552 JUMPI DUP1 PUSH4 0x973B9CC1 EQ PUSH2 0x28D JUMPI DUP1 PUSH4 0xA86853D5 EQ PUSH2 0x263 JUMPI DUP1 PUSH4 0xAB1BBECA EQ PUSH2 0x213 JUMPI DUP1 PUSH4 0xB6CE6709 EQ PUSH2 0x1C3 JUMPI DUP1 PUSH4 0xD0C6C7AF EQ PUSH2 0x1A6 JUMPI DUP1 PUSH4 0xE329143F EQ PUSH2 0x156 JUMPI DUP1 PUSH4 0xF6451C0A EQ PUSH2 0x13A JUMPI PUSH4 0xF7A95A9E EQ PUSH2 0xFD JUMPI PUSH1 0x0 DUP1 REVERT JUMPDEST CALLVALUE PUSH2 0x136 JUMPI PUSH1 0x20 CALLDATASIZE PUSH1 0x3 NOT ADD SLT PUSH2 0x136 JUMPI CALLDATALOAD SWAP2 DUP1 SLOAD DUP4 LT ISZERO PUSH2 0x133 JUMPI POP PUSH2 0x125 PUSH1 0x20 SWAP3 PUSH2 0x8F5 JUMP JUMPDEST SWAP2 SWAP1 SLOAD SWAP1 MLOAD SWAP2 PUSH1 0x3 SHL SHR DUP2 MSTORE RETURN JUMPDEST DUP1 REVERT JUMPDEST DUP3 DUP1 REVERT JUMPDEST DUP4 CALLVALUE PUSH2 0x133 JUMPI DUP1 PUSH1 0x3 NOT CALLDATASIZE ADD SLT PUSH2 0x133 JUMPI PUSH2 0x153 PUSH2 0xC8A JUMP JUMPDEST DUP1 RETURN JUMPDEST POP CALLVALUE PUSH2 0x136 JUMPI PUSH1 0x20 CALLDATASIZE PUSH1 0x3 NOT ADD SLT PUSH2 0x136 JUMPI CALLDATALOAD PUSH1 0xD SLOAD DUP2 LT ISZERO PUSH2 0x136 JUMPI PUSH1 0x20 SWAP3 POP PUSH1 0xD PUSH1 0x0 MSTORE PUSH32 0xD7B6990105719101DABEB77144F2A3385C8033ACD3AF97E9423A695E81AD1EB5 ADD SLOAD SWAP1 MLOAD SWAP1 DUP2 MSTORE RETURN JUMPDEST POP CALLVALUE PUSH2 0x136 JUMPI DUP3 PUSH1 0x3 NOT CALLDATASIZE ADD SLT PUSH2 0x136 JUMPI PUSH1 0x20 SWAP3 POP SLOAD SWAP1 MLOAD SWAP1 DUP2 MSTORE RETURN JUMPDEST POP CALLVALUE PUSH2 0x136 JUMPI PUSH1 0x20 CALLDATASIZE PUSH1 0x3 NOT ADD SLT PUSH2 0x136 JUMPI CALLDATALOAD PUSH1 0xB SLOAD DUP2 LT ISZERO PUSH2 0x136 JUMPI PUSH1 0x20 SWAP3 POP PUSH1 0xB PUSH1 0x0 MSTORE PUSH32 0x175B7A638427703F0DBE7BB9BBF987A2551717B34E79F33B5B1008D1FA01DB9 ADD SLOAD SWAP1 MLOAD SWAP1 DUP2 MSTORE RETURN JUMPDEST POP CALLVALUE PUSH2 0x136 JUMPI PUSH1 0x20 CALLDATASIZE PUSH1 0x3 NOT ADD SLT PUSH2 0x136 JUMPI CALLDATALOAD PUSH1 0x9 SLOAD DUP2 LT ISZERO PUSH2 0x136 JUMPI PUSH1 0x20 SWAP3 POP PUSH1 0x9 PUSH1 0x0 MSTORE PUSH32 0x6E1540171B6C0C960B71A7020D9F60077F6AF931A8BBF590DA0223DACF75C7AF ADD SLOAD SWAP1 MLOAD SWAP1 DUP2 MSTORE RETURN JUMPDEST POP CALLVALUE PUSH2 0x136 JUMPI PUSH1 0x20 CALLDATASIZE PUSH1 0x3 NOT ADD SLT PUSH2 0x136 JUMPI CALLDATALOAD SWAP2 PUSH1 0x2 SLOAD DUP4 LT ISZERO PUSH2 0x133 JUMPI POP PUSH2 0x125 PUSH1 0x20 SWAP3 PUSH2 0x8BE JUMP JUMPDEST POP SWAP1 CALLVALUE PUSH2 0x136 JUMPI PUSH1 0x3 NOT SWAP2 DUP4 DUP4 CALLDATASIZE ADD SLT PUSH2 0x54E JUMPI PUSH2 0x2BF DUP3 MLOAD PUSH2 0x2BA DUP2 PUSH2 0x2B3 DUP2 PUSH2 0xC31 JUMP JUMPDEST SUB DUP3 PUSH2 0x93F JUMP JUMPDEST PUSH2 0xA1E JUMP JUMPDEST PUSH1 0x3 SWAP1 PUSH1 0x3 SLOAD DUP2 SLT PUSH2 0x42A JUMPI JUMPDEST PUSH1 0xE SLOAD SWAP1 PUSH2 0x2D9 DUP3 PUSH2 0x977 JUMP JUMPDEST SWAP3 PUSH2 0x2E6 DUP7 MLOAD SWAP5 DUP6 PUSH2 0x93F JUMP JUMPDEST DUP3 DUP5 MSTORE PUSH2 0x2F2 DUP4 PUSH2 0x977 JUMP JUMPDEST SWAP3 PUSH1 0x20 SWAP2 PUSH1 0x20 DUP7 ADD SWAP5 PUSH1 0x1F NOT ADD CALLDATASIZE DUP7 CALLDATACOPY DUP10 JUMPDEST DUP3 DUP2 LT PUSH2 0x3D9 JUMPI POP POP PUSH1 0x10 SLOAD PUSH1 0x1 PUSH1 0x1 PUSH1 0xA0 SHL SUB AND SWAP5 SWAP1 POP DUP5 EXTCODESIZE ISZERO PUSH2 0x3D5 JUMPI SWAP7 SWAP3 SWAP1 DUP9 SWAP5 SWAP3 PUSH1 0x20 DUP9 MLOAD SWAP10 DUP11 SWAP7 PUSH4 0x2FC0395F PUSH1 0xE0 SHL DUP9 MSTORE PUSH1 0x60 DUP11 DUP10 ADD MSTORE PUSH2 0x34C PUSH1 0x64 DUP10 ADD PUSH2 0xC31 JUMP JUMPDEST SWAP4 PUSH1 0x24 DUP10 ADD MSTORE DUP8 DUP5 SUB ADD PUSH1 0x44 DUP9 ADD MSTORE MLOAD SWAP2 DUP3 DUP2 MSTORE ADD SWAP3 SWAP2 DUP7 JUMPDEST DUP3 DUP2 LT PUSH2 0x3BB JUMPI POP POP POP POP DUP4 DUP4 DUP1 SWAP3 SUB SWAP3 GAS CALL DUP1 ISZERO PUSH2 0x3B1 JUMPI PUSH2 0x386 JUMPI DUP4 DUP1 RETURN JUMPDEST PUSH8 0xFFFFFFFFFFFFFFFF DUP4 GT PUSH2 0x39E JUMPI POP MSTORE CODESIZE DUP1 DUP1 DUP4 DUP1 RETURN JUMPDEST PUSH4 0x4E487B71 PUSH1 0xE0 SHL DUP5 MSTORE PUSH1 0x41 SWAP1 MSTORE PUSH1 0x24 DUP4 REVERT JUMPDEST DUP3 MLOAD RETURNDATASIZE DUP7 DUP3 RETURNDATACOPY RETURNDATASIZE SWAP1 REVERT JUMPDEST DUP4 MLOAD DUP6 MSTORE DUP12 SWAP8 POP DUP11 SWAP7 POP SWAP4 DUP2 ADD SWAP4 SWAP3 DUP2 ADD SWAP3 PUSH1 0x1 ADD PUSH2 0x365 JUMP JUMPDEST DUP9 DUP1 REVERT JUMPDEST PUSH2 0x3E2 DUP2 PUSH2 0x887 JUMP JUMPDEST SWAP1 SLOAD SWAP1 DUP4 SHL SHR PUSH2 0x3F1 DUP3 PUSH2 0x819 JUMP JUMPDEST SWAP1 SLOAD SWAP1 DUP5 SHL SHR DUP2 ADD DUP1 SWAP2 GT PUSH2 0x417 JUMPI SWAP1 PUSH1 0x1 SWAP2 DUP3 SHR PUSH2 0x410 DUP3 DUP11 PUSH2 0x98F JUMP JUMPDEST MSTORE ADD PUSH2 0x304 JUMP JUMPDEST PUSH4 0x4E487B71 PUSH1 0xE0 SHL DUP13 MSTORE PUSH1 0x11 DUP10 MSTORE PUSH1 0x24 DUP13 REVERT JUMPDEST DUP1 PUSH1 0x3 SSTORE DUP6 SLOAD PUSH8 0xFFFFFFFFFFFFFFFF DUP2 GT PUSH2 0x53B JUMPI PUSH9 0x10000000000000000 DUP2 GT PUSH2 0x53B JUMPI PUSH1 0x2 SLOAD DUP2 PUSH1 0x2 SSTORE DUP1 DUP3 LT PUSH2 0x4FB JUMPI JUMPDEST POP PUSH32 0x290DECD9548B62A8D60345A988386FC84BA6BC95484008F6362F93160EF3E563 PUSH1 0x2 DUP9 MSTORE DUP1 SLOAD SWAP1 DUP9 SWAP2 JUMPDEST DUP4 DUP4 LT PUSH2 0x4C5 JUMPI POP POP POP POP DUP4 MLOAD DUP2 DUP2 MSTORE PUSH32 0x409D103F7876158F293A85EE39F235CE0C309AB1ACA81024A51DFB4B471E556E PUSH1 0x20 ADDRESS SWAP3 LOG2 PUSH2 0x2CC JUMP JUMPDEST PUSH1 0x1 DUP1 SWAP2 SWAP3 ADD SWAP3 DUP4 SLOAD SWAP3 DUP2 PUSH32 0x405787FA12A823E0F2B7631CC41B3BA8828B3321CA811111FA75CD3AA3BB5ACE ADD SSTORE ADD SWAP2 SWAP1 PUSH2 0x48A JUMP JUMPDEST DUP2 PUSH32 0x405787FA12A823E0F2B7631CC41B3BA8828B3321CA811111FA75CD3AA3BB5ACE SWAP2 DUP3 ADD SWAP2 ADD JUMPDEST DUP2 DUP2 LT PUSH2 0x530 JUMPI POP PUSH2 0x45E JUMP JUMPDEST DUP9 DUP2 SSTORE PUSH1 0x1 ADD PUSH2 0x523 JUMP JUMPDEST PUSH4 0x4E487B71 PUSH1 0xE0 SHL DUP8 MSTORE PUSH1 0x41 DUP5 MSTORE PUSH1 0x24 DUP8 REVERT JUMPDEST DUP4 DUP1 REVERT JUMPDEST POP CALLVALUE PUSH2 0x136 JUMPI PUSH1 0x20 CALLDATASIZE PUSH1 0x3 NOT ADD SLT PUSH2 0x136 JUMPI CALLDATALOAD PUSH1 0xA SLOAD DUP2 LT ISZERO PUSH2 0x136 JUMPI PUSH1 0xA PUSH1 0x20 SWAP4 MSTORE PUSH32 0xC65A7BB8D6351C1CF70C95A316CC6A92839C986682D98BC35F958F4883F9D2A8 ADD SLOAD SWAP1 MLOAD SWAP1 DUP2 MSTORE RETURN JUMPDEST POP POP CALLVALUE PUSH2 0x5C8 JUMPI DUP2 PUSH1 0x3 NOT CALLDATASIZE ADD SLT PUSH2 0x5C8 JUMPI PUSH1 0x10 SLOAD SWAP1 MLOAD PUSH1 0x1 PUSH1 0x1 PUSH1 0xA0 SHL SUB SWAP1 SWAP2 AND DUP2 MSTORE PUSH1 0x20 SWAP1 RETURN JUMPDEST POP DUP1 REVERT JUMPDEST POP CALLVALUE PUSH2 0x136 JUMPI PUSH1 0x20 CALLDATASIZE PUSH1 0x3 NOT ADD SLT PUSH2 0x136 JUMPI CALLDATALOAD SWAP2 PUSH1 0xE SLOAD DUP4 LT ISZERO PUSH2 0x133 JUMPI POP PUSH2 0x125 PUSH1 0x20 SWAP3 PUSH2 0x887 JUMP JUMPDEST POP CALLVALUE PUSH2 0x136 JUMPI PUSH1 0x20 CALLDATASIZE PUSH1 0x3 NOT ADD SLT PUSH2 0x136 JUMPI CALLDATALOAD SWAP2 PUSH1 0x1 SLOAD DUP4 LT ISZERO PUSH2 0x133 JUMPI POP PUSH2 0x125 PUSH1 0x20 SWAP3 PUSH2 0x850 JUMP JUMPDEST POP POP CALLVALUE PUSH2 0x5C8 JUMPI DUP2 PUSH1 0x3 NOT CALLDATASIZE ADD SLT PUSH2 0x5C8 JUMPI PUSH1 0x20 SWAP1 PUSH1 0x6 SLOAD SWAP1 MLOAD SWAP1 DUP2 MSTORE RETURN JUMPDEST POP CALLVALUE PUSH2 0x136 JUMPI PUSH1 0x20 CALLDATASIZE PUSH1 0x3 NOT ADD SLT PUSH2 0x136 JUMPI CALLDATALOAD PUSH1 0xC SLOAD DUP2 LT ISZERO PUSH2 0x136 JUMPI PUSH1 0xC PUSH1 0x20 SWAP4 MSTORE PUSH32 0xDF6966C971051C3D54EC59162606531493A51404A002842F56009D7E5CF4A8C7 ADD SLOAD SWAP1 MLOAD SWAP1 DUP2 MSTORE RETURN JUMPDEST POP POP CALLVALUE PUSH2 0x5C8 JUMPI DUP2 PUSH1 0x3 NOT CALLDATASIZE ADD SLT PUSH2 0x5C8 JUMPI PUSH1 0x20 SWAP1 PUSH1 0x3 SLOAD SWAP1 MLOAD SWAP1 DUP2 MSTORE RETURN JUMPDEST POP POP CALLVALUE PUSH2 0x5C8 JUMPI DUP2 PUSH1 0x3 NOT CALLDATASIZE ADD SLT PUSH2 0x5C8 JUMPI PUSH1 0x20 SWAP1 PUSH1 0x7 SLOAD SWAP1 MLOAD SWAP1 DUP2 MSTORE RETURN JUMPDEST POP CALLVALUE PUSH2 0x136 JUMPI PUSH1 0x20 CALLDATASIZE PUSH1 0x3 NOT ADD SLT PUSH2 0x136 JUMPI CALLDATALOAD SWAP2 PUSH1 0xF SLOAD DUP4 LT ISZERO PUSH2 0x133 JUMPI POP PUSH2 0x125 PUSH1 0x20 SWAP3 PUSH2 0x819 JUMP JUMPDEST POP SWAP2 CALLVALUE PUSH2 0x133 JUMPI PUSH1 0x20 SWAP1 PUSH1 0x20 PUSH1 0x3 NOT CALLDATASIZE ADD SLT PUSH2 0x133 JUMPI DUP4 CALLDATALOAD SWAP4 PUSH8 0xFFFFFFFFFFFFFFFF DUP6 GT PUSH2 0x5C8 JUMPI CALLDATASIZE PUSH1 0x23 DUP7 ADD SLT ISZERO PUSH2 0x5C8 JUMPI DUP5 ADD CALLDATALOAD PUSH2 0x733 DUP2 PUSH2 0x977 JUMP JUMPDEST SWAP5 PUSH2 0x740 DUP6 MLOAD SWAP7 DUP8 PUSH2 0x93F JUMP JUMPDEST DUP2 DUP7 MSTORE PUSH1 0x24 PUSH1 0x20 DUP8 ADD SWAP3 PUSH1 0x5 SHL DUP3 ADD ADD SWAP3 CALLDATASIZE DUP5 GT PUSH2 0x133 JUMPI POP PUSH1 0x24 ADD SWAP1 JUMPDEST DUP3 DUP3 LT PUSH2 0x778 JUMPI PUSH1 0x20 DUP6 PUSH2 0x771 DUP9 PUSH2 0xA1E JUMP JUMPDEST SWAP1 MLOAD SWAP1 DUP2 MSTORE RETURN JUMPDEST DUP2 CALLDATALOAD DUP2 MSTORE SWAP1 DUP4 ADD SWAP1 DUP4 ADD PUSH2 0x75E JUMP JUMPDEST POP POP CALLVALUE PUSH2 0x5C8 JUMPI DUP2 PUSH1 0x3 NOT CALLDATASIZE ADD SLT PUSH2 0x5C8 JUMPI PUSH1 0x20 SWAP1 PUSH1 0x5 SLOAD SWAP1 MLOAD SWAP1 DUP2 MSTORE RETURN JUMPDEST POP CALLVALUE PUSH2 0x136 JUMPI PUSH1 0x20 CALLDATASIZE PUSH1 0x3 NOT ADD SLT PUSH2 0x136 JUMPI CALLDATALOAD SWAP2 PUSH1 0x8 SLOAD DUP4 LT ISZERO PUSH2 0x133 JUMPI POP PUSH2 0x125 PUSH1 0x20 SWAP3 JUMPDEST PUSH1 0x8 SLOAD DUP2 LT ISZERO PUSH2 0x803 JUMPI PUSH1 0x8 PUSH1 0x0 MSTORE PUSH32 0xF3F7A9FE364FAAB93B216DA50A3214154F22A0A2B415B23A84C8169E8B636EE3 ADD SWAP1 PUSH1 0x0 SWAP1 JUMP JUMPDEST PUSH4 0x4E487B71 PUSH1 0xE0 SHL PUSH1 0x0 MSTORE PUSH1 0x32 PUSH1 0x4 MSTORE PUSH1 0x24 PUSH1 0x0 REVERT JUMPDEST PUSH1 0xF SLOAD DUP2 LT ISZERO PUSH2 0x803 JUMPI PUSH1 0xF PUSH1 0x0 MSTORE PUSH32 0x8D1108E10BCB7C27DDDFC02ED9D693A074039D026CF4EA4240B40F7D581AC802 ADD SWAP1 PUSH1 0x0 SWAP1 JUMP JUMPDEST PUSH1 0x1 SLOAD DUP2 LT ISZERO PUSH2 0x803 JUMPI PUSH1 0x1 PUSH1 0x0 MSTORE PUSH32 0xB10E2D527612073B26EECDFD717E6A320CF44B4AFAC2B0732D9FCBE2B7FA0CF6 ADD SWAP1 PUSH1 0x0 SWAP1 JUMP JUMPDEST PUSH1 0xE SLOAD DUP2 LT ISZERO PUSH2 0x803 JUMPI PUSH1 0xE PUSH1 0x0 MSTORE PUSH32 0xBB7B4A454DC3493923482F07822329ED19E8244EFF582CC204F8554C3620C3FD ADD SWAP1 PUSH1 0x0 SWAP1 JUMP JUMPDEST PUSH1 0x2 SLOAD DUP2 LT ISZERO PUSH2 0x803 JUMPI PUSH1 0x2 PUSH1 0x0 MSTORE PUSH32 0x405787FA12A823E0F2B7631CC41B3BA8828B3321CA811111FA75CD3AA3BB5ACE ADD SWAP1 PUSH1 0x0 SWAP1 JUMP JUMPDEST SWAP1 PUSH1 0x0 SWAP2 DUP3 SLOAD DUP2 LT ISZERO PUSH2 0x92B JUMPI DUP3 DUP1 MSTORE PUSH32 0x290DECD9548B62A8D60345A988386FC84BA6BC95484008F6362F93160EF3E563 ADD SWAP2 SWAP1 JUMP JUMPDEST PUSH4 0x4E487B71 PUSH1 0xE0 SHL DUP4 MSTORE PUSH1 0x32 PUSH1 0x4 MSTORE PUSH1 0x24 DUP4 REVERT JUMPDEST SWAP1 PUSH1 0x1F DUP1 NOT SWAP2 ADD AND DUP2 ADD SWAP1 DUP2 LT PUSH8 0xFFFFFFFFFFFFFFFF DUP3 GT OR PUSH2 0x961 JUMPI PUSH1 0x40 MSTORE JUMP JUMPDEST PUSH4 0x4E487B71 PUSH1 0xE0 SHL PUSH1 0x0 MSTORE PUSH1 0x41 PUSH1 0x4 MSTORE PUSH1 0x24 PUSH1 0x0 REVERT JUMPDEST PUSH8 0xFFFFFFFFFFFFFFFF DUP2 GT PUSH2 0x961 JUMPI PUSH1 0x5 SHL PUSH1 0x20 ADD SWAP1 JUMP JUMPDEST DUP1 MLOAD DUP3 LT ISZERO PUSH2 0x803 JUMPI PUSH1 0x20 SWAP2 PUSH1 0x5 SHL ADD ADD SWAP1 JUMP JUMPDEST SWAP2 SWAP1 DUP3 SUB SWAP2 DUP3 GT PUSH2 0x9B0 JUMPI JUMP JUMPDEST PUSH4 0x4E487B71 PUSH1 0xE0 SHL PUSH1 0x0 MSTORE PUSH1 0x11 PUSH1 0x4 MSTORE PUSH1 0x24 PUSH1 0x0 REVERT JUMPDEST DUP2 DUP2 MUL SWAP3 SWAP2 PUSH1 0x0 DUP3 SLT PUSH1 0x1 PUSH1 0xFF SHL DUP3 EQ AND PUSH2 0x9B0 JUMPI DUP2 DUP5 SDIV EQ SWAP1 ISZERO OR ISZERO PUSH2 0x9B0 JUMPI JUMP JUMPDEST SWAP2 SWAP1 SWAP2 PUSH1 0x0 DUP4 DUP3 ADD SWAP4 DUP5 SLT SWAP2 SLT SWAP1 DUP1 ISZERO DUP3 AND SWAP2 ISZERO AND OR PUSH2 0x9B0 JUMPI JUMP JUMPDEST DUP2 DUP2 SUB SWAP3 SWAP2 PUSH1 0x0 SGT DUP1 ISZERO DUP3 DUP6 SGT AND SWAP2 DUP5 SLT AND OR PUSH2 0x9B0 JUMPI JUMP JUMPDEST PUSH1 0x0 SWAP1 DUP1 MLOAD PUSH1 0x40 MLOAD DUP1 PUSH1 0xA SLOAD DUP1 DUP3 MSTORE PUSH1 0x20 DUP1 SWAP3 ADD SWAP1 PUSH1 0xA DUP8 MSTORE PUSH32 0xC65A7BB8D6351C1CF70C95A316CC6A92839C986682D98BC35F958F4883F9D2A8 SWAP1 DUP8 JUMPDEST DUP2 DUP2 LT PUSH2 0xC1D JUMPI POP POP POP DUP3 PUSH2 0xA71 SWAP2 SUB DUP4 PUSH2 0x93F JUMP JUMPDEST PUSH1 0x40 MLOAD DUP1 SWAP2 PUSH1 0x20 PUSH1 0xC SLOAD SWAP3 DUP4 DUP2 MSTORE ADD SWAP2 PUSH1 0xC DUP9 MSTORE PUSH32 0xDF6966C971051C3D54EC59162606531493A51404A002842F56009D7E5CF4A8C7 SWAP2 DUP9 SWAP1 JUMPDEST DUP3 DUP3 LT PUSH2 0xC06 JUMPI POP POP POP POP DUP2 PUSH2 0xAC1 SWAP2 SUB DUP3 PUSH2 0x93F JUMP JUMPDEST DUP5 SWAP4 JUMPDEST DUP4 DUP6 LT PUSH2 0xAD3 JUMPI POP POP POP POP POP SWAP1 JUMP JUMPDEST SWAP1 SWAP2 SWAP3 SWAP4 SWAP5 PUSH2 0xAE2 DUP7 DUP4 PUSH2 0x98F JUMP JUMPDEST MLOAD PUSH1 0x0 DUP2 SLT ISZERO PUSH2 0xB2E JUMPI PUSH2 0xAF5 DUP8 PUSH2 0x7CC JUMP JUMPDEST SWAP3 SWAP1 SLOAD SWAP2 PUSH1 0x1 PUSH1 0xFF SHL DUP2 EQ PUSH2 0x9B0 JUMPI PUSH1 0x1 SWAP4 PUSH2 0xB22 SWAP4 PUSH2 0xB1C SWAP3 PUSH1 0x0 SUB SWAP2 PUSH1 0x3 SHL SHR PUSH2 0x9C6 JUMP JUMPDEST SWAP1 PUSH2 0xA05 JUMP JUMPDEST SWAP6 JUMPDEST ADD SWAP4 SWAP3 SWAP2 SWAP1 PUSH2 0xAC4 JUMP JUMPDEST PUSH1 0x1 SWAP2 PUSH2 0xBB5 SWAP2 DUP1 DUP1 PUSH2 0xB41 DUP12 DUP11 PUSH2 0x98F JUMP JUMPDEST MLOAD LT PUSH2 0xBE5 JUMPI POP PUSH2 0xB5C SWAP1 PUSH2 0xB56 DUP11 DUP10 PUSH2 0x98F JUMP JUMPDEST MLOAD PUSH2 0x9A3 JUMP JUMPDEST PUSH2 0xB66 DUP10 DUP9 PUSH2 0x98F JUMP JUMPDEST MSTORE PUSH1 0x0 JUMPDEST DUP1 PUSH2 0xB75 DUP11 DUP9 PUSH2 0x98F JUMP JUMPDEST MLOAD LT PUSH2 0xBBB JUMPI PUSH2 0xB89 SWAP1 PUSH2 0xB56 DUP11 DUP9 PUSH2 0x98F JUMP JUMPDEST PUSH2 0xB93 DUP10 DUP8 PUSH2 0x98F JUMP JUMPDEST MSTORE PUSH2 0xBAF PUSH1 0x0 JUMPDEST PUSH2 0xBA3 DUP11 PUSH2 0x7CC JUMP JUMPDEST SWAP1 SLOAD SWAP1 PUSH1 0x3 SHL SHR PUSH2 0x9C6 JUMP JUMPDEST SWAP1 PUSH2 0x9E9 JUMP JUMPDEST SWAP6 PUSH2 0xB24 JUMP JUMPDEST PUSH2 0xBD3 PUSH2 0xBAF SWAP2 PUSH2 0xBCC DUP12 DUP10 PUSH2 0x98F JUMP JUMPDEST MLOAD SWAP1 PUSH2 0x9A3 JUMP JUMPDEST PUSH1 0x0 PUSH2 0xBDF DUP12 DUP10 PUSH2 0x98F JUMP JUMPDEST MSTORE PUSH2 0xB9A JUMP JUMPDEST PUSH2 0xBF4 SWAP2 POP PUSH2 0xBCC DUP11 DUP10 PUSH2 0x98F JUMP JUMPDEST PUSH1 0x0 PUSH2 0xC00 DUP11 DUP10 PUSH2 0x98F JUMP JUMPDEST MSTORE PUSH2 0xB6A JUMP JUMPDEST DUP4 SLOAD DUP6 MSTORE SWAP4 DUP5 ADD SWAP4 PUSH1 0x1 SWAP4 DUP5 ADD SWAP4 SWAP1 SWAP2 ADD SWAP1 PUSH2 0xAAA JUMP JUMPDEST DUP3 SLOAD DUP5 MSTORE SWAP3 DUP5 ADD SWAP3 PUSH1 0x1 SWAP3 DUP4 ADD SWAP3 ADD PUSH2 0xA5B JUMP JUMPDEST PUSH1 0x0 DUP1 SLOAD DUP1 DUP4 MSTORE DUP2 DUP1 MSTORE PUSH1 0x20 SWAP3 DUP4 ADD SWAP3 PUSH32 0x290DECD9548B62A8D60345A988386FC84BA6BC95484008F6362F93160EF3E563 SWAP3 SWAP1 JUMPDEST DUP3 DUP3 LT PUSH2 0xC73 JUMPI POP POP POP POP SWAP1 JUMP JUMPDEST DUP4 SLOAD DUP6 MSTORE SWAP4 DUP5 ADD SWAP4 PUSH1 0x1 SWAP4 DUP5 ADD SWAP4 SWAP1 SWAP2 ADD SWAP1 PUSH2 0xC65 JUMP JUMPDEST PUSH1 0x10 SLOAD PUSH1 0x40 DUP1 MLOAD PUSH4 0x2989B4B PUSH1 0xE6 SHL DUP2 MSTORE PUSH1 0x4 SWAP4 SWAP3 PUSH1 0x20 SWAP2 PUSH1 0x1 PUSH1 0x1 PUSH1 0xA0 SHL SUB SWAP2 DUP4 SWAP1 DUP3 SWAP1 DUP9 SWAP1 DUP3 SWAP1 DUP7 AND GAS STATICCALL SWAP1 DUP2 ISZERO PUSH2 0x1101 JUMPI PUSH1 0x0 SWAP2 PUSH2 0x10D4 JUMPI JUMPDEST POP DUP6 SLOAD DUP2 GT ISZERO PUSH2 0xFF7 JUMPI DUP3 SWAP2 PUSH32 0xC06999D659D5132DD93A1915097DA1A6A24201916389E38DA2404E4BCA5E59BE DUP8 SWAP6 SWAP5 DUP4 PUSH1 0x0 SWAP5 DUP9 SSTORE DUP7 MLOAD SWAP1 DUP2 MSTORE LOG1 PUSH1 0x10 SLOAD AND DUP4 MLOAD SWAP5 DUP6 DUP1 SWAP3 PUSH4 0x1E385F69 PUSH1 0xE0 SHL DUP3 MSTORE GAS STATICCALL SWAP3 DUP4 ISZERO PUSH2 0x10C9 JUMPI PUSH1 0x0 SWAP4 PUSH2 0x1036 JUMPI JUMPDEST POP DUP3 MLOAD PUSH1 0x0 SLOAD SUB PUSH2 0xFFF JUMPI PUSH1 0x0 JUMPDEST PUSH1 0x0 SLOAD DUP2 LT ISZERO PUSH2 0xFF7 JUMPI PUSH2 0xD48 DUP2 PUSH2 0x8F5 JUMP JUMPDEST SWAP1 SLOAD DUP5 MLOAD TIMESTAMP DUP6 DUP3 ADD SWAP1 DUP2 MSTORE PUSH1 0x20 DUP2 ADD DUP6 SWAP1 MSTORE PUSH1 0x3 SWAP4 DUP5 SHL SWAP3 SWAP1 SWAP3 SHR PUSH1 0x40 DUP4 ADD MSTORE DUP1 PUSH1 0x60 DUP4 ADD SUB SWAP1 PUSH2 0xD81 PUSH1 0x1F NOT SWAP3 DUP4 DUP2 ADD DUP4 MSTORE DUP3 PUSH2 0x93F JUMP JUMPDEST PUSH1 0x64 SWAP3 DUP4 SWAP2 MLOAD SWAP1 KECCAK256 MOD SWAP1 PUSH1 0x1 SWAP2 DUP3 DUP7 ADD DUP1 DUP8 GT PUSH2 0xFE2 JUMPI DUP5 PUSH1 0x65 SWAP2 DUP11 PUSH2 0xDDE DUP12 PUSH2 0xDD2 PUSH2 0xDAD DUP14 PUSH2 0x850 JUMP JUMPDEST SWAP1 SLOAD SWAP1 DUP14 SHL SHR SWAP4 MLOAD SWAP4 DUP5 SWAP3 DUP4 ADD SWAP6 TIMESTAMP DUP8 SWAP2 PUSH1 0x60 SWAP4 SWAP2 DUP4 MSTORE PUSH1 0x20 DUP4 ADD MSTORE PUSH1 0x40 DUP3 ADD MSTORE ADD SWAP1 JUMP JUMPDEST SUB DUP8 DUP2 ADD DUP4 MSTORE DUP3 PUSH2 0x93F JUMP JUMPDEST MLOAD SWAP1 KECCAK256 MOD SWAP3 PUSH2 0xDEC DUP9 PUSH2 0x850 JUMP JUMPDEST SWAP1 SLOAD SWAP1 DUP9 SHL SHR SWAP1 PUSH2 0xE25 DUP12 MLOAD SWAP2 DUP3 PUSH2 0xE19 DUP14 DUP3 ADD SWAP6 DUP14 TIMESTAMP DUP9 SWAP2 PUSH1 0x60 SWAP4 SWAP2 DUP4 MSTORE PUSH1 0x20 DUP4 ADD MSTORE PUSH1 0x40 DUP3 ADD MSTORE ADD SWAP1 JUMP JUMPDEST SUB SWAP1 DUP2 ADD DUP4 MSTORE DUP3 PUSH2 0x93F JUMP JUMPDEST MLOAD SWAP1 KECCAK256 SMOD SWAP3 PUSH1 0x31 NOT DUP5 ADD SWAP4 DUP5 SGT AND PUSH2 0xFCD JUMPI PUSH2 0xF0B SWAP3 PUSH2 0xEE3 DUP6 SWAP4 DUP5 PUSH2 0xED3 DUP10 PUSH2 0xECE DUP16 PUSH2 0xEE8 SWAP9 DUP4 SWAP13 PUSH1 0x1 SWAP16 SWAP15 DUP16 SWAP4 PUSH2 0xECE PUSH2 0xEC5 DUP7 PUSH2 0xEAD PUSH2 0xE97 DUP3 PUSH2 0xE91 PUSH2 0xED3 SWAP9 PUSH2 0xE76 PUSH2 0xEDA SWAP14 PUSH2 0x8BE JUMP JUMPDEST SWAP1 SLOAD SWAP1 DUP3 SHL SHR SWAP1 PUSH2 0xE86 DUP5 PUSH2 0x8F5 JUMP JUMPDEST SWAP1 SLOAD SWAP2 SHL SHR SWAP1 PUSH2 0xA05 JUMP JUMPDEST SWAP7 PUSH2 0x98F JUMP JUMPDEST MLOAD PUSH2 0xEA1 DUP4 PUSH2 0x8F5 JUMP JUMPDEST SWAP1 SLOAD SWAP1 DUP14 SHL SHR SWAP1 PUSH2 0xA05 JUMP JUMPDEST SWAP10 PUSH2 0xEBA PUSH1 0x5 SLOAD SWAP3 PUSH2 0x850 JUMP JUMPDEST SWAP1 SLOAD SWAP2 SHL SHR SWAP1 PUSH2 0x9C6 JUMP JUMPDEST SWAP5 PUSH1 0x6 SLOAD PUSH2 0x9C6 JUMP JUMPDEST PUSH2 0x9C6 JUMP JUMPDEST SDIV SWAP1 PUSH2 0x9E9 JUMP JUMPDEST SWAP5 PUSH1 0x7 SLOAD PUSH2 0x9C6 JUMP JUMPDEST PUSH2 0x9E9 JUMP JUMPDEST SDIV PUSH2 0xEF2 DUP5 PUSH2 0x850 JUMP JUMPDEST SWAP1 SWAP2 SWAP1 DUP3 SLOAD SWAP1 PUSH1 0x3 SHL SWAP2 DUP3 SHL SWAP2 PUSH1 0x0 NOT SWAP1 SHL NOT AND OR SWAP1 SSTORE JUMP JUMPDEST PUSH2 0xF3E PUSH2 0xF35 PUSH2 0xF1A DUP5 PUSH2 0x8F5 JUMP JUMPDEST SWAP1 SLOAD SWAP1 DUP5 SHL SHR PUSH2 0xF29 DUP6 PUSH2 0x850 JUMP JUMPDEST SWAP1 SLOAD SWAP1 DUP6 SHL SHR SWAP1 PUSH2 0x9E9 JUMP JUMPDEST PUSH2 0xEF2 DUP5 PUSH2 0x8F5 JUMP JUMPDEST PUSH2 0xF47 DUP3 PUSH2 0x8BE JUMP JUMPDEST SWAP1 SLOAD SWAP1 DUP3 SHL SHR PUSH2 0xF72 PUSH2 0xF68 PUSH2 0xF5C DUP6 PUSH2 0x819 JUMP JUMPDEST SWAP1 SLOAD SWAP1 DUP6 SHL SHR DUP4 PUSH2 0xA05 JUMP JUMPDEST SWAP2 PUSH2 0xF29 DUP6 PUSH2 0x887 JUMP JUMPDEST SWAP2 DUP2 DUP4 SWAP3 PUSH2 0xF7F DUP7 PUSH2 0x8F5 JUMP JUMPDEST SWAP1 SLOAD SWAP1 DUP5 SHL SHR SLT PUSH2 0xFBA JUMPI JUMPDEST POP PUSH2 0xF95 DUP5 PUSH2 0x8F5 JUMP JUMPDEST SWAP1 SLOAD SWAP2 SHL SHR SGT PUSH2 0xFA7 JUMPI JUMPDEST POP ADD PUSH2 0xD35 JUMP JUMPDEST PUSH2 0xFB4 SWAP1 PUSH2 0xEF2 DUP4 PUSH2 0x8F5 JUMP JUMPDEST CODESIZE PUSH2 0xFA0 JUMP JUMPDEST PUSH2 0xFC7 SWAP1 PUSH2 0xEF2 DUP7 PUSH2 0x8F5 JUMP JUMPDEST CODESIZE PUSH2 0xF8B JUMP JUMPDEST PUSH1 0x11 DUP12 PUSH4 0x4E487B71 PUSH1 0xE0 SHL PUSH1 0x0 MSTORE MSTORE PUSH1 0x24 PUSH1 0x0 REVERT JUMPDEST PUSH1 0x11 DUP13 PUSH4 0x4E487B71 PUSH1 0xE0 SHL PUSH1 0x0 MSTORE MSTORE PUSH1 0x24 PUSH1 0x0 REVERT JUMPDEST POP POP POP POP SWAP1 POP JUMP JUMPDEST DUP5 SWAP1 PUSH1 0x64 SWAP3 MLOAD SWAP2 PUSH3 0x461BCD PUSH1 0xE5 SHL DUP4 MSTORE DUP3 ADD MSTORE PUSH1 0x12 PUSH1 0x24 DUP3 ADD MSTORE PUSH18 0x44696D656E7369756E6920696E6567616C65 PUSH1 0x70 SHL PUSH1 0x44 DUP3 ADD MSTORE REVERT JUMPDEST SWAP3 SWAP1 SWAP3 RETURNDATASIZE DUP1 DUP4 DUP4 RETURNDATACOPY PUSH2 0x1048 DUP2 DUP4 PUSH2 0x93F JUMP JUMPDEST DUP2 ADD SWAP1 DUP5 DUP2 DUP4 SUB SLT PUSH2 0x136 JUMPI DUP1 MLOAD SWAP1 PUSH8 0xFFFFFFFFFFFFFFFF DUP3 GT PUSH2 0x54E JUMPI ADD DUP2 PUSH1 0x1F DUP3 ADD SLT ISZERO PUSH2 0x136 JUMPI DUP1 MLOAD SWAP1 PUSH2 0x107E DUP3 PUSH2 0x977 JUMP JUMPDEST SWAP4 PUSH2 0x108B DUP7 MLOAD SWAP6 DUP7 PUSH2 0x93F JUMP JUMPDEST DUP3 DUP6 MSTORE DUP7 DUP1 DUP7 ADD SWAP4 PUSH1 0x5 SHL DUP4 ADD ADD SWAP4 DUP5 GT PUSH2 0x133 JUMPI POP DUP6 DUP1 SWAP2 ADD SWAP2 JUMPDEST DUP4 DUP4 LT PUSH2 0x10B9 JUMPI POP POP POP POP SWAP2 CODESIZE PUSH2 0xD27 JUMP JUMPDEST DUP3 MLOAD DUP2 MSTORE SWAP2 DUP2 ADD SWAP2 DUP7 SWAP2 ADD PUSH2 0x10A7 JUMP JUMPDEST DUP3 MLOAD RETURNDATASIZE PUSH1 0x0 DUP3 RETURNDATACOPY RETURNDATASIZE SWAP1 REVERT JUMPDEST SWAP1 DUP4 DUP3 DUP2 RETURNDATASIZE DUP4 GT PUSH2 0x10FA JUMPI JUMPDEST PUSH2 0x10EA DUP2 DUP4 PUSH2 0x93F JUMP JUMPDEST DUP2 ADD SUB SLT PUSH2 0x133 JUMPI POP MLOAD CODESIZE PUSH2 0xCC6 JUMP JUMPDEST POP RETURNDATASIZE PUSH2 0x10E0 JUMP JUMPDEST DUP5 MLOAD RETURNDATASIZE PUSH1 0x0 DUP3 RETURNDATACOPY RETURNDATASIZE SWAP1 REVERT INVALID LOG2 PUSH5 0x6970667358 0x22 SLT KECCAK256 PUSH27 0x5BE9456FB8A2DF2F970F6D9F59E6B160F7DED47E72DC6DBC2B7708 SWAP6 PUSH27 0x73A164736F6C634300081700330000000000000000000000000000 "},"methodIdentifiers":{"batteryCapacity(uint256)":"b6ce6709","batteryCharge(uint256)":"4eb274ff","c1()":"5f57697c","c2()":"48e257cb","capacity(uint256)":"ab1bbeca","flexibilityAbove(uint256)":"78b6d7d4","flexibilityBelow(uint256)":"375a105e","flexibleLoad(uint256)":"e329143f","globalContract()":"90ccfa0f","lastKnownGlobalTimestamp()":"d0c6c7af","objectiveFunction(int256[])":"364132d9","personalBestPosition(uint256)":"a86853d5","personalBestScore()":"4d985ae4","position(uint256)":"f7a95a9e","renewableGeneration(uint256)":"96d14da6","tariff(uint256)":"16b51928","updateBestPositions()":"973b9cc1","updateVelocityAndPosition()":"f6451c0a","velocity(uint256)":"6f240774","w()":"205c9cc7"}}}}}