{"contracts/GlobalContract.sol":{"GlobalContract":{"abi":[{"anonymous":false,"inputs":[{"indexed":false,"internalType":"int256[]","name":"newPlan","type":"int256[]"},{"indexed":false,"internalType":"uint256","name":"timestamp","type":"uint256"}],"name":"GlobalPlanComputed","type":"event"},{"anonymous":false,"inputs":[{"indexed":true,"internalType":"address","name":"node","type":"address"},{"indexed":false,"internalType":"int256","name":"bestScore","type":"int256"}],"name":"NodeResultUpdated","type":"event"},{"inputs":[],"name":"computeGlobalOptimalPlan","outputs":[],"stateMutability":"nonpayable","type":"function"},{"inputs":[{"internalType":"address","name":"_node","type":"address"}],"name":"getBestPosition","outputs":[{"internalType":"int256[]","name":"","type":"int256[]"}],"stateMutability":"view","type":"function"},{"inputs":[],"name":"getGlobalOptimalPlanArray","outputs":[{"internalType":"int256[]","name":"","type":"int256[]"}],"stateMutability":"view","type":"function"},{"inputs":[{"internalType":"uint256","name":"hour","type":"uint256"}],"name":"getGlobalOptimalPlanHour","outputs":[{"internalType":"int256","name":"","type":"int256"}],"stateMutability":"view","type":"function"},{"inputs":[],"name":"getLastUpdatedTimestamp","outputs":[{"internalType":"uint256","name":"","type":"uint256"}],"stateMutability":"view","type":"function"},{"inputs":[{"internalType":"uint256","name":"","type":"uint256"}],"name":"globalOptimalPlan","outputs":[{"internalType":"int256","name":"","type":"int256"}],"stateMutability":"view","type":"function"},{"inputs":[],"name":"lastUpdatedTimestamp","outputs":[{"internalType":"uint256","name":"","type":"uint256"}],"stateMutability":"view","type":"function"},{"inputs":[{"internalType":"uint256","name":"","type":"uint256"}],"name":"nodeAddresses","outputs":[{"internalType":"address","name":"","type":"address"}],"stateMutability":"view","type":"function"},{"inputs":[{"internalType":"address","name":"","type":"address"}],"name":"nodeResults","outputs":[{"internalType":"int256","name":"bestScore","type":"int256"},{"internalType":"bool","name":"exists","type":"bool"}],"stateMutability":"view","type":"function"},{"inputs":[],"name":"numHours","outputs":[{"internalType":"uint256","name":"","type":"uint256"}],"stateMutability":"view","type":"function"},{"inputs":[{"internalType":"int256[]","name":"newPosition","type":"int256[]"},{"internalType":"int256","name":"newScore","type":"int256"},{"internalType":"uint256[]","name":"newFlexibilityWeight","type":"uint256[]"}],"name":"updateNodeResult","outputs":[],"stateMutability":"nonpayable","type":"function"}],"evm":{"bytecode":{"linkReferences":{},"object":"6080806040523461001657610c4d908161001c8239f35b600080fdfe6040608081526004908136101561001557600080fd5b600091823560e01c80631e385f6914610a185780632fc0395f146106655780637207c5561461061b5780637f042dc0146105f457806394f6cd8d146105d5578063a626d2c0146105b8578063af602b431461052d578063c4d77090146104ea578063ed3bf9c414610137578063efe5c98d146100ba5763fbaf894c1461009a57600080fd5b346100b657826003193601126100b65760209250549051908152f35b8280fd5b50829034610133576020366003190112610133578035906003548210156100f05760208480858581526002845220549051908152f35b606490602085519162461bcd60e51b8352820152601960248201527f4f726120696e20616661726120696e74657276616c756c7569000000000000006044820152fd5b5080fd5b5091903461013357816003193601126101335760018054156104ae5760038054156104725783825b610299575b5050504283558181518094631e385f6960e01b825281305afa90811561028e5782916101cd575b90816101c17f94e1547304e6d63037244c908da52f757ad8e339edce5f9e09985dd78fb8f5399351928284938452830190610ab3565b4260208301520390a180f35b90503d8083853e6101de8185610b82565b830160209384818303126102865780519067ffffffffffffffff821161028a57019080601f8301121561028657815161021681610bba565b9261022385519485610b82565b818452868085019260051b820101928311610282578601905b828210610273575050507f94e1547304e6d63037244c908da52f757ad8e339edce5f9e09985dd78fb8f5399293509083925061018b565b8151815290860190860161023c565b8580fd5b8380fd5b8480fd5b51913d9150823e3d90fd5b815481101561046d57848590868554905b81811061032f57505081158581610314575061030157600160ff1b81146000198314166102ee5791849392918492828952600260205205868820555b01909161015f565b634e487b7160e01b875260118852602487fd5b634e487b7160e01b875260128852602487fd5b949391505083915080875260026020526005868820556102e6565b9586610343829b95979394969a9998610b1d565b90546001600160a01b0391851b1c81168a5260208a8152898b208501548b919060ff1661037e575b50505001989596979391909492986102aa565b90918399945061038f819994610b1d565b905490871b1c1682528181526103aa8c60028c852001610b6a565b905490861b1c976103ba8a610b1d565b905490871b1c168252526103d08a898b20610b6a565b905490841b1c86810291908a8812600160ff1b82141661045a57878305148715171561044757898282019283129112908015821691151617610434579481018091116104215789909538898161036b565b634e487b7160e01b885260118452602488fd5b634e487b7160e01b895260118552602489fd5b634e487b7160e01b8a526011865260248afd5b634e487b7160e01b8b526011875260248bfd5b610164565b825162461bcd60e51b815260208187015260166024820152751b9d5b521bdd5c9cc81b9d48195cdd19481cd95d185d60521b6044820152606490fd5b815162461bcd60e51b81526020818601526016602482015275139a58da5d5b881b9bd9081a5b9c9959da5cdd1c985d60521b6044820152606490fd5b50346100b65760203660031901126100b657359160015483101561052a5750610514602092610b1d565b905491519160018060a01b039160031b1c168152f35b80fd5b5090346100b6576020918260031936011261028657356001600160a01b03811690819003610286578352828252808320815190819485928583549182815201928252858220915b868282106105a157859061059d8861058e84890385610b82565b51928284938452830190610ab3565b0390f35b835485528895509093019260019283019201610574565b50346100b657826003193601126100b65760209250549051908152f35b5050346101335781600319360112610133576020906003549051908152f35b50346100b65760203660031901126100b65760209282913581526002845220549051908152f35b50346100b65760203660031901126100b657356001600160a01b038116908190036100b6579181928152806020522060ff6003600183015492015416825191825215156020820152f35b5090346100b65760603660031901126100b65767ffffffffffffffff90823582811161028a576106989036908501610ae7565b90936024803595604435868111610a14576106b69036908501610ae7565b9091338a526020978a8952878b2060ff60038201541615600014610964575087519160808301838110838211176109065789526106f288610bba565b906106ff8a519283610b82565b8882528a82018960051b820191368311610960578c90915b83831061095057505050508252888201938a855261073484610bba565b936107418a519586610b82565b8085528a85019060051b82019136831161094c578b90915b83831061093c57505050508782019283526060820192600194858552338d528c8b52898d20935180519084821161092a578e888e8093610799868b610bd2565b019288835280832092905b8582106109185750505050505051858401556002830190518051928311610906578a906107d18484610bd2565b01908c52898c20858d5b8481106108f45750505050506003019051151560ff80198354169116179055805490600160401b8210156108e257818101905561081790610b1d565b81546001600160a01b0360039290921b91821b19163390911b1790555b60035480610870575050506003557f1e61759c28c006b2edeffc298e59ea00a93888cddb41dc60e8236de97f039b3c91905b519283523392a280f35b909192036108a2575050907f1e61759c28c006b2edeffc298e59ea00a93888cddb41dc60e8236de97f039b3c91610866565b606493601c9293519362461bcd60e51b85528401528201527f44696d656e7369756e65206e65636f72657370756e7a61746f617265000000006044820152fd5b634e487b7160e01b8952604184528289fd5b8c8451940193818401550186906107db565b634e487b7160e01b8d5260418852868dfd5b8451940193818401550189908f6107a4565b634e487b7160e01b8f5260418a52888ffd5b82358152918101918c9101610759565b8d80fd5b82358152918101918d9101610717565b8e80fd5b60019491928b6001830180548212610984575b5050505050505050610834565b55838911610906576109968983610bd2565b908c52898c2090858d5b8a8110610a025750505050338b528a89526002888c20019183116109f0576109c88383610bd2565b908a52878a208a5b8381106109df57808b81610977565b8235828201559189019184016109d0565b634e487b7160e01b8b5260418652848bfd5b8c8335930192818501550186906109a0565b8880fd5b50919034610133578160031936011261013357600354610a3781610bba565b92610a4483519485610b82565b818452610a5082610bba565b602090601f19013686830137815b838110610a7a5784516020808252819061059d90820189610ab3565b80835260028252848320548651821015610aa057600582901b8701830152600101610a5e565b634e487b7160e01b845260328852602484fd5b90815180825260208080930193019160005b828110610ad3575050505090565b835185529381019392810192600101610ac5565b9181601f84011215610b185782359167ffffffffffffffff8311610b18576020808501948460051b010111610b1857565b600080fd5b600154811015610b545760016000527fb10e2d527612073b26eecdfd717e6a320cf44b4afac2b0732d9fcbe2b7fa0cf60190600090565b634e487b7160e01b600052603260045260246000fd5b8054821015610b545760005260206000200190600090565b90601f8019910116810190811067ffffffffffffffff821117610ba457604052565b634e487b7160e01b600052604160045260246000fd5b67ffffffffffffffff8111610ba45760051b60200190565b600160401b8211610ba457805491808255828110610bef57505050565b600091600052602060002092830192015b828110610c0c57505050565b818155600101610c0056fea2646970667358221220dd00a42c2a3434f4a3165667efa9d58539a7ec830d328f7ae34881446025d94064736f6c63430008170033","opcodes":"PUSH1 0x80 DUP1 PUSH1 0x40 MSTORE CALLVALUE PUSH2 0x16 JUMPI PUSH2 0xC4D SWAP1 DUP2 PUSH2 0x1C DUP3 CODECOPY RETURN JUMPDEST PUSH1 0x0 DUP1 REVERT INVALID PUSH1 0x40 PUSH1 0x80 DUP2 MSTORE PUSH1 0x4 SWAP1 DUP2 CALLDATASIZE LT ISZERO PUSH2 0x15 JUMPI PUSH1 0x0 DUP1 REVERT JUMPDEST PUSH1 0x0 SWAP2 DUP3 CALLDATALOAD PUSH1 0xE0 SHR DUP1 PUSH4 0x1E385F69 EQ PUSH2 0xA18 JUMPI DUP1 PUSH4 0x2FC0395F EQ PUSH2 0x665 JUMPI DUP1 PUSH4 0x7207C556 EQ PUSH2 0x61B JUMPI DUP1 PUSH4 0x7F042DC0 EQ PUSH2 0x5F4 JUMPI DUP1 PUSH4 0x94F6CD8D EQ PUSH2 0x5D5 JUMPI DUP1 PUSH4 0xA626D2C0 EQ PUSH2 0x5B8 JUMPI DUP1 PUSH4 0xAF602B43 EQ PUSH2 0x52D JUMPI DUP1 PUSH4 0xC4D77090 EQ PUSH2 0x4EA JUMPI DUP1 PUSH4 0xED3BF9C4 EQ PUSH2 0x137 JUMPI DUP1 PUSH4 0xEFE5C98D EQ PUSH2 0xBA JUMPI PUSH4 0xFBAF894C EQ PUSH2 0x9A JUMPI PUSH1 0x0 DUP1 REVERT JUMPDEST CALLVALUE PUSH2 0xB6 JUMPI DUP3 PUSH1 0x3 NOT CALLDATASIZE ADD SLT PUSH2 0xB6 JUMPI PUSH1 0x20 SWAP3 POP SLOAD SWAP1 MLOAD SWAP1 DUP2 MSTORE RETURN JUMPDEST DUP3 DUP1 REVERT JUMPDEST POP DUP3 SWAP1 CALLVALUE PUSH2 0x133 JUMPI PUSH1 0x20 CALLDATASIZE PUSH1 0x3 NOT ADD SLT PUSH2 0x133 JUMPI DUP1 CALLDATALOAD SWAP1 PUSH1 0x3 SLOAD DUP3 LT ISZERO PUSH2 0xF0 JUMPI PUSH1 0x20 DUP5 DUP1 DUP6 DUP6 DUP2 MSTORE PUSH1 0x2 DUP5 MSTORE KECCAK256 SLOAD SWAP1 MLOAD SWAP1 DUP2 MSTORE RETURN JUMPDEST PUSH1 0x64 SWAP1 PUSH1 0x20 DUP6 MLOAD SWAP2 PUSH3 0x461BCD PUSH1 0xE5 SHL DUP4 MSTORE DUP3 ADD MSTORE PUSH1 0x19 PUSH1 0x24 DUP3 ADD MSTORE PUSH32 0x4F726120696E20616661726120696E74657276616C756C756900000000000000 PUSH1 0x44 DUP3 ADD MSTORE REVERT JUMPDEST POP DUP1 REVERT JUMPDEST POP SWAP2 SWAP1 CALLVALUE PUSH2 0x133 JUMPI DUP2 PUSH1 0x3 NOT CALLDATASIZE ADD SLT PUSH2 0x133 JUMPI PUSH1 0x1 DUP1 SLOAD ISZERO PUSH2 0x4AE JUMPI PUSH1 0x3 DUP1 SLOAD ISZERO PUSH2 0x472 JUMPI DUP4 DUP3 JUMPDEST PUSH2 0x299 JUMPI JUMPDEST POP POP POP TIMESTAMP DUP4 SSTORE DUP2 DUP2 MLOAD DUP1 SWAP5 PUSH4 0x1E385F69 PUSH1 0xE0 SHL DUP3 MSTORE DUP2 ADDRESS GAS STATICCALL SWAP1 DUP2 ISZERO PUSH2 0x28E JUMPI DUP3 SWAP2 PUSH2 0x1CD JUMPI JUMPDEST SWAP1 DUP2 PUSH2 0x1C1 PUSH32 0x94E1547304E6D63037244C908DA52F757AD8E339EDCE5F9E09985DD78FB8F539 SWAP4 MLOAD SWAP3 DUP3 DUP5 SWAP4 DUP5 MSTORE DUP4 ADD SWAP1 PUSH2 0xAB3 JUMP JUMPDEST TIMESTAMP PUSH1 0x20 DUP4 ADD MSTORE SUB SWAP1 LOG1 DUP1 RETURN JUMPDEST SWAP1 POP RETURNDATASIZE DUP1 DUP4 DUP6 RETURNDATACOPY PUSH2 0x1DE DUP2 DUP6 PUSH2 0xB82 JUMP JUMPDEST DUP4 ADD PUSH1 0x20 SWAP4 DUP5 DUP2 DUP4 SUB SLT PUSH2 0x286 JUMPI DUP1 MLOAD SWAP1 PUSH8 0xFFFFFFFFFFFFFFFF DUP3 GT PUSH2 0x28A JUMPI ADD SWAP1 DUP1 PUSH1 0x1F DUP4 ADD SLT ISZERO PUSH2 0x286 JUMPI DUP2 MLOAD PUSH2 0x216 DUP2 PUSH2 0xBBA JUMP JUMPDEST SWAP3 PUSH2 0x223 DUP6 MLOAD SWAP5 DUP6 PUSH2 0xB82 JUMP JUMPDEST DUP2 DUP5 MSTORE DUP7 DUP1 DUP6 ADD SWAP3 PUSH1 0x5 SHL DUP3 ADD ADD SWAP3 DUP4 GT PUSH2 0x282 JUMPI DUP7 ADD SWAP1 JUMPDEST DUP3 DUP3 LT PUSH2 0x273 JUMPI POP POP POP PUSH32 0x94E1547304E6D63037244C908DA52F757AD8E339EDCE5F9E09985DD78FB8F539 SWAP3 SWAP4 POP SWAP1 DUP4 SWAP3 POP PUSH2 0x18B JUMP JUMPDEST DUP2 MLOAD DUP2 MSTORE SWAP1 DUP7 ADD SWAP1 DUP7 ADD PUSH2 0x23C JUMP JUMPDEST DUP6 DUP1 REVERT JUMPDEST DUP4 DUP1 REVERT JUMPDEST DUP5 DUP1 REVERT JUMPDEST MLOAD SWAP2 RETURNDATASIZE SWAP2 POP DUP3 RETURNDATACOPY RETURNDATASIZE SWAP1 REVERT JUMPDEST DUP2 SLOAD DUP2 LT ISZERO PUSH2 0x46D JUMPI DUP5 DUP6 SWAP1 DUP7 DUP6 SLOAD SWAP1 JUMPDEST DUP2 DUP2 LT PUSH2 0x32F JUMPI POP POP DUP2 ISZERO DUP6 DUP2 PUSH2 0x314 JUMPI POP PUSH2 0x301 JUMPI PUSH1 0x1 PUSH1 0xFF SHL DUP2 EQ PUSH1 0x0 NOT DUP4 EQ AND PUSH2 0x2EE JUMPI SWAP2 DUP5 SWAP4 SWAP3 SWAP2 DUP5 SWAP3 DUP3 DUP10 MSTORE PUSH1 0x2 PUSH1 0x20 MSTORE SDIV DUP7 DUP9 KECCAK256 SSTORE JUMPDEST ADD SWAP1 SWAP2 PUSH2 0x15F JUMP JUMPDEST PUSH4 0x4E487B71 PUSH1 0xE0 SHL DUP8 MSTORE PUSH1 0x11 DUP9 MSTORE PUSH1 0x24 DUP8 REVERT JUMPDEST PUSH4 0x4E487B71 PUSH1 0xE0 SHL DUP8 MSTORE PUSH1 0x12 DUP9 MSTORE PUSH1 0x24 DUP8 REVERT JUMPDEST SWAP5 SWAP4 SWAP2 POP POP DUP4 SWAP2 POP DUP1 DUP8 MSTORE PUSH1 0x2 PUSH1 0x20 MSTORE PUSH1 0x5 DUP7 DUP9 KECCAK256 SSTORE PUSH2 0x2E6 JUMP JUMPDEST SWAP6 DUP7 PUSH2 0x343 DUP3 SWAP12 SWAP6 SWAP8 SWAP4 SWAP5 SWAP7 SWAP11 SWAP10 SWAP9 PUSH2 0xB1D JUMP JUMPDEST SWAP1 SLOAD PUSH1 0x1 PUSH1 0x1 PUSH1 0xA0 SHL SUB SWAP2 DUP6 SHL SHR DUP2 AND DUP11 MSTORE PUSH1 0x20 DUP11 DUP2 MSTORE DUP10 DUP12 KECCAK256 DUP6 ADD SLOAD DUP12 SWAP2 SWAP1 PUSH1 0xFF AND PUSH2 0x37E JUMPI JUMPDEST POP POP POP ADD SWAP9 SWAP6 SWAP7 SWAP8 SWAP4 SWAP2 SWAP1 SWAP5 SWAP3 SWAP9 PUSH2 0x2AA JUMP JUMPDEST SWAP1 SWAP2 DUP4 SWAP10 SWAP5 POP PUSH2 0x38F DUP2 SWAP10 SWAP5 PUSH2 0xB1D JUMP JUMPDEST SWAP1 SLOAD SWAP1 DUP8 SHL SHR AND DUP3 MSTORE DUP2 DUP2 MSTORE PUSH2 0x3AA DUP13 PUSH1 0x2 DUP13 DUP6 KECCAK256 ADD PUSH2 0xB6A JUMP JUMPDEST SWAP1 SLOAD SWAP1 DUP7 SHL SHR SWAP8 PUSH2 0x3BA DUP11 PUSH2 0xB1D JUMP JUMPDEST SWAP1 SLOAD SWAP1 DUP8 SHL SHR AND DUP3 MSTORE MSTORE PUSH2 0x3D0 DUP11 DUP10 DUP12 KECCAK256 PUSH2 0xB6A JUMP JUMPDEST SWAP1 SLOAD SWAP1 DUP5 SHL SHR DUP7 DUP2 MUL SWAP2 SWAP1 DUP11 DUP9 SLT PUSH1 0x1 PUSH1 0xFF SHL DUP3 EQ AND PUSH2 0x45A JUMPI DUP8 DUP4 SDIV EQ DUP8 ISZERO OR ISZERO PUSH2 0x447 JUMPI DUP10 DUP3 DUP3 ADD SWAP3 DUP4 SLT SWAP2 SLT SWAP1 DUP1 ISZERO DUP3 AND SWAP2 ISZERO AND OR PUSH2 0x434 JUMPI SWAP5 DUP2 ADD DUP1 SWAP2 GT PUSH2 0x421 JUMPI DUP10 SWAP1 SWAP6 CODESIZE DUP10 DUP2 PUSH2 0x36B JUMP JUMPDEST PUSH4 0x4E487B71 PUSH1 0xE0 SHL DUP9 MSTORE PUSH1 0x11 DUP5 MSTORE PUSH1 0x24 DUP9 REVERT JUMPDEST PUSH4 0x4E487B71 PUSH1 0xE0 SHL DUP10 MSTORE PUSH1 0x11 DUP6 MSTORE PUSH1 0x24 DUP10 REVERT JUMPDEST PUSH4 0x4E487B71 PUSH1 0xE0 SHL DUP11 MSTORE PUSH1 0x11 DUP7 MSTORE PUSH1 0x24 DUP11 REVERT JUMPDEST PUSH4 0x4E487B71 PUSH1 0xE0 SHL DUP12 MSTORE PUSH1 0x11 DUP8 MSTORE PUSH1 0x24 DUP12 REVERT JUMPDEST PUSH2 0x164 JUMP JUMPDEST DUP3 MLOAD PUSH3 0x461BCD PUSH1 0xE5 SHL DUP2 MSTORE PUSH1 0x20 DUP2 DUP8 ADD MSTORE PUSH1 0x16 PUSH1 0x24 DUP3 ADD MSTORE PUSH22 0x1B9D5B521BDD5C9CC81B9D48195CDD19481CD95D185D PUSH1 0x52 SHL PUSH1 0x44 DUP3 ADD MSTORE PUSH1 0x64 SWAP1 REVERT JUMPDEST DUP2 MLOAD PUSH3 0x461BCD PUSH1 0xE5 SHL DUP2 MSTORE PUSH1 0x20 DUP2 DUP7 ADD MSTORE PUSH1 0x16 PUSH1 0x24 DUP3 ADD MSTORE PUSH22 0x139A58DA5D5B881B9BD9081A5B9C9959DA5CDD1C985D PUSH1 0x52 SHL PUSH1 0x44 DUP3 ADD MSTORE PUSH1 0x64 SWAP1 REVERT JUMPDEST POP CALLVALUE PUSH2 0xB6 JUMPI PUSH1 0x20 CALLDATASIZE PUSH1 0x3 NOT ADD SLT PUSH2 0xB6 JUMPI CALLDATALOAD SWAP2 PUSH1 0x1 SLOAD DUP4 LT ISZERO PUSH2 0x52A JUMPI POP PUSH2 0x514 PUSH1 0x20 SWAP3 PUSH2 0xB1D JUMP JUMPDEST SWAP1 SLOAD SWAP2 MLOAD SWAP2 PUSH1 0x1 DUP1 PUSH1 0xA0 SHL SUB SWAP2 PUSH1 0x3 SHL SHR AND DUP2 MSTORE RETURN JUMPDEST DUP1 REVERT JUMPDEST POP SWAP1 CALLVALUE PUSH2 0xB6 JUMPI PUSH1 0x20 SWAP2 DUP3 PUSH1 0x3 NOT CALLDATASIZE ADD SLT PUSH2 0x286 JUMPI CALLDATALOAD PUSH1 0x1 PUSH1 0x1 PUSH1 0xA0 SHL SUB DUP2 AND SWAP1 DUP2 SWAP1 SUB PUSH2 0x286 JUMPI DUP4 MSTORE DUP3 DUP3 MSTORE DUP1 DUP4 KECCAK256 DUP2 MLOAD SWAP1 DUP2 SWAP5 DUP6 SWAP3 DUP6 DUP4 SLOAD SWAP2 DUP3 DUP2 MSTORE ADD SWAP3 DUP3 MSTORE DUP6 DUP3 KECCAK256 SWAP2 JUMPDEST DUP7 DUP3 DUP3 LT PUSH2 0x5A1 JUMPI DUP6 SWAP1 PUSH2 0x59D DUP9 PUSH2 0x58E DUP5 DUP10 SUB DUP6 PUSH2 0xB82 JUMP JUMPDEST MLOAD SWAP3 DUP3 DUP5 SWAP4 DUP5 MSTORE DUP4 ADD SWAP1 PUSH2 0xAB3 JUMP JUMPDEST SUB SWAP1 RETURN JUMPDEST DUP4 SLOAD DUP6 MSTORE DUP9 SWAP6 POP SWAP1 SWAP4 ADD SWAP3 PUSH1 0x1 SWAP3 DUP4 ADD SWAP3 ADD PUSH2 0x574 JUMP JUMPDEST POP CALLVALUE PUSH2 0xB6 JUMPI DUP3 PUSH1 0x3 NOT CALLDATASIZE ADD SLT PUSH2 0xB6 JUMPI PUSH1 0x20 SWAP3 POP SLOAD SWAP1 MLOAD SWAP1 DUP2 MSTORE RETURN JUMPDEST POP POP CALLVALUE PUSH2 0x133 JUMPI DUP2 PUSH1 0x3 NOT CALLDATASIZE ADD SLT PUSH2 0x133 JUMPI PUSH1 0x20 SWAP1 PUSH1 0x3 SLOAD SWAP1 MLOAD SWAP1 DUP2 MSTORE RETURN JUMPDEST POP CALLVALUE PUSH2 0xB6 JUMPI PUSH1 0x20 CALLDATASIZE PUSH1 0x3 NOT ADD SLT PUSH2 0xB6 JUMPI PUSH1 0x20 SWAP3 DUP3 SWAP2 CALLDATALOAD DUP2 MSTORE PUSH1 0x2 DUP5 MSTORE KECCAK256 SLOAD SWAP1 MLOAD SWAP1 DUP2 MSTORE RETURN JUMPDEST POP CALLVALUE PUSH2 0xB6 JUMPI PUSH1 0x20 CALLDATASIZE PUSH1 0x3 NOT ADD SLT PUSH2 0xB6 JUMPI CALLDATALOAD PUSH1 0x1 PUSH1 0x1 PUSH1 0xA0 SHL SUB DUP2 AND SWAP1 DUP2 SWAP1 SUB PUSH2 0xB6 JUMPI SWAP2 DUP2 SWAP3 DUP2 MSTORE DUP1 PUSH1 0x20 MSTORE KECCAK256 PUSH1 0xFF PUSH1 0x3 PUSH1 0x1 DUP4 ADD SLOAD SWAP3 ADD SLOAD AND DUP3 MLOAD SWAP2 DUP3 MSTORE ISZERO ISZERO PUSH1 0x20 DUP3 ADD MSTORE RETURN JUMPDEST POP SWAP1 CALLVALUE PUSH2 0xB6 JUMPI PUSH1 0x60 CALLDATASIZE PUSH1 0x3 NOT ADD SLT PUSH2 0xB6 JUMPI PUSH8 0xFFFFFFFFFFFFFFFF SWAP1 DUP3 CALLDATALOAD DUP3 DUP2 GT PUSH2 0x28A JUMPI PUSH2 0x698 SWAP1 CALLDATASIZE SWAP1 DUP6 ADD PUSH2 0xAE7 JUMP JUMPDEST SWAP1 SWAP4 PUSH1 0x24 DUP1 CALLDATALOAD SWAP6 PUSH1 0x44 CALLDATALOAD DUP7 DUP2 GT PUSH2 0xA14 JUMPI PUSH2 0x6B6 SWAP1 CALLDATASIZE SWAP1 DUP6 ADD PUSH2 0xAE7 JUMP JUMPDEST SWAP1 SWAP2 CALLER DUP11 MSTORE PUSH1 0x20 SWAP8 DUP11 DUP10 MSTORE DUP8 DUP12 KECCAK256 PUSH1 0xFF PUSH1 0x3 DUP3 ADD SLOAD AND ISZERO PUSH1 0x0 EQ PUSH2 0x964 JUMPI POP DUP8 MLOAD SWAP2 PUSH1 0x80 DUP4 ADD DUP4 DUP2 LT DUP4 DUP3 GT OR PUSH2 0x906 JUMPI DUP10 MSTORE PUSH2 0x6F2 DUP9 PUSH2 0xBBA JUMP JUMPDEST SWAP1 PUSH2 0x6FF DUP11 MLOAD SWAP3 DUP4 PUSH2 0xB82 JUMP JUMPDEST DUP9 DUP3 MSTORE DUP11 DUP3 ADD DUP10 PUSH1 0x5 SHL DUP3 ADD SWAP2 CALLDATASIZE DUP4 GT PUSH2 0x960 JUMPI DUP13 SWAP1 SWAP2 JUMPDEST DUP4 DUP4 LT PUSH2 0x950 JUMPI POP POP POP POP DUP3 MSTORE DUP9 DUP3 ADD SWAP4 DUP11 DUP6 MSTORE PUSH2 0x734 DUP5 PUSH2 0xBBA JUMP JUMPDEST SWAP4 PUSH2 0x741 DUP11 MLOAD SWAP6 DUP7 PUSH2 0xB82 JUMP JUMPDEST DUP1 DUP6 MSTORE DUP11 DUP6 ADD SWAP1 PUSH1 0x5 SHL DUP3 ADD SWAP2 CALLDATASIZE DUP4 GT PUSH2 0x94C JUMPI DUP12 SWAP1 SWAP2 JUMPDEST DUP4 DUP4 LT PUSH2 0x93C JUMPI POP POP POP POP DUP8 DUP3 ADD SWAP3 DUP4 MSTORE PUSH1 0x60 DUP3 ADD SWAP3 PUSH1 0x1 SWAP5 DUP6 DUP6 MSTORE CALLER DUP14 MSTORE DUP13 DUP12 MSTORE DUP10 DUP14 KECCAK256 SWAP4 MLOAD DUP1 MLOAD SWAP1 DUP5 DUP3 GT PUSH2 0x92A JUMPI DUP15 DUP9 DUP15 DUP1 SWAP4 PUSH2 0x799 DUP7 DUP12 PUSH2 0xBD2 JUMP JUMPDEST ADD SWAP3 DUP9 DUP4 MSTORE DUP1 DUP4 KECCAK256 SWAP3 SWAP1 JUMPDEST DUP6 DUP3 LT PUSH2 0x918 JUMPI POP POP POP POP POP POP MLOAD DUP6 DUP5 ADD SSTORE PUSH1 0x2 DUP4 ADD SWAP1 MLOAD DUP1 MLOAD SWAP3 DUP4 GT PUSH2 0x906 JUMPI DUP11 SWAP1 PUSH2 0x7D1 DUP5 DUP5 PUSH2 0xBD2 JUMP JUMPDEST ADD SWAP1 DUP13 MSTORE DUP10 DUP13 KECCAK256 DUP6 DUP14 JUMPDEST DUP5 DUP2 LT PUSH2 0x8F4 JUMPI POP POP POP POP POP PUSH1 0x3 ADD SWAP1 MLOAD ISZERO ISZERO PUSH1 0xFF DUP1 NOT DUP4 SLOAD AND SWAP2 AND OR SWAP1 SSTORE DUP1 SLOAD SWAP1 PUSH1 0x1 PUSH1 0x40 SHL DUP3 LT ISZERO PUSH2 0x8E2 JUMPI DUP2 DUP2 ADD SWAP1 SSTORE PUSH2 0x817 SWAP1 PUSH2 0xB1D JUMP JUMPDEST DUP2 SLOAD PUSH1 0x1 PUSH1 0x1 PUSH1 0xA0 SHL SUB PUSH1 0x3 SWAP3 SWAP1 SWAP3 SHL SWAP2 DUP3 SHL NOT AND CALLER SWAP1 SWAP2 SHL OR SWAP1 SSTORE JUMPDEST PUSH1 0x3 SLOAD DUP1 PUSH2 0x870 JUMPI POP POP POP PUSH1 0x3 SSTORE PUSH32 0x1E61759C28C006B2EDEFFC298E59EA00A93888CDDB41DC60E8236DE97F039B3C SWAP2 SWAP1 JUMPDEST MLOAD SWAP3 DUP4 MSTORE CALLER SWAP3 LOG2 DUP1 RETURN JUMPDEST SWAP1 SWAP2 SWAP3 SUB PUSH2 0x8A2 JUMPI POP POP SWAP1 PUSH32 0x1E61759C28C006B2EDEFFC298E59EA00A93888CDDB41DC60E8236DE97F039B3C SWAP2 PUSH2 0x866 JUMP JUMPDEST PUSH1 0x64 SWAP4 PUSH1 0x1C SWAP3 SWAP4 MLOAD SWAP4 PUSH3 0x461BCD PUSH1 0xE5 SHL DUP6 MSTORE DUP5 ADD MSTORE DUP3 ADD MSTORE PUSH32 0x44696D656E7369756E65206E65636F72657370756E7A61746F61726500000000 PUSH1 0x44 DUP3 ADD MSTORE REVERT JUMPDEST PUSH4 0x4E487B71 PUSH1 0xE0 SHL DUP10 MSTORE PUSH1 0x41 DUP5 MSTORE DUP3 DUP10 REVERT JUMPDEST DUP13 DUP5 MLOAD SWAP5 ADD SWAP4 DUP2 DUP5 ADD SSTORE ADD DUP7 SWAP1 PUSH2 0x7DB JUMP JUMPDEST PUSH4 0x4E487B71 PUSH1 0xE0 SHL DUP14 MSTORE PUSH1 0x41 DUP9 MSTORE DUP7 DUP14 REVERT JUMPDEST DUP5 MLOAD SWAP5 ADD SWAP4 DUP2 DUP5 ADD SSTORE ADD DUP10 SWAP1 DUP16 PUSH2 0x7A4 JUMP JUMPDEST PUSH4 0x4E487B71 PUSH1 0xE0 SHL DUP16 MSTORE PUSH1 0x41 DUP11 MSTORE DUP9 DUP16 REVERT JUMPDEST DUP3 CALLDATALOAD DUP2 MSTORE SWAP2 DUP2 ADD SWAP2 DUP13 SWAP2 ADD PUSH2 0x759 JUMP JUMPDEST DUP14 DUP1 REVERT JUMPDEST DUP3 CALLDATALOAD DUP2 MSTORE SWAP2 DUP2 ADD SWAP2 DUP14 SWAP2 ADD PUSH2 0x717 JUMP JUMPDEST DUP15 DUP1 REVERT JUMPDEST PUSH1 0x1 SWAP5 SWAP2 SWAP3 DUP12 PUSH1 0x1 DUP4 ADD DUP1 SLOAD DUP3 SLT PUSH2 0x984 JUMPI JUMPDEST POP POP POP POP POP POP POP POP PUSH2 0x834 JUMP JUMPDEST SSTORE DUP4 DUP10 GT PUSH2 0x906 JUMPI PUSH2 0x996 DUP10 DUP4 PUSH2 0xBD2 JUMP JUMPDEST SWAP1 DUP13 MSTORE DUP10 DUP13 KECCAK256 SWAP1 DUP6 DUP14 JUMPDEST DUP11 DUP2 LT PUSH2 0xA02 JUMPI POP POP POP POP CALLER DUP12 MSTORE DUP11 DUP10 MSTORE PUSH1 0x2 DUP9 DUP13 KECCAK256 ADD SWAP2 DUP4 GT PUSH2 0x9F0 JUMPI PUSH2 0x9C8 DUP4 DUP4 PUSH2 0xBD2 JUMP JUMPDEST SWAP1 DUP11 MSTORE DUP8 DUP11 KECCAK256 DUP11 JUMPDEST DUP4 DUP2 LT PUSH2 0x9DF JUMPI DUP1 DUP12 DUP2 PUSH2 0x977 JUMP JUMPDEST DUP3 CALLDATALOAD DUP3 DUP3 ADD SSTORE SWAP2 DUP10 ADD SWAP2 DUP5 ADD PUSH2 0x9D0 JUMP JUMPDEST PUSH4 0x4E487B71 PUSH1 0xE0 SHL DUP12 MSTORE PUSH1 0x41 DUP7 MSTORE DUP5 DUP12 REVERT JUMPDEST DUP13 DUP4 CALLDATALOAD SWAP4 ADD SWAP3 DUP2 DUP6 ADD SSTORE ADD DUP7 SWAP1 PUSH2 0x9A0 JUMP JUMPDEST DUP9 DUP1 REVERT JUMPDEST POP SWAP2 SWAP1 CALLVALUE PUSH2 0x133 JUMPI DUP2 PUSH1 0x3 NOT CALLDATASIZE ADD SLT PUSH2 0x133 JUMPI PUSH1 0x3 SLOAD PUSH2 0xA37 DUP2 PUSH2 0xBBA JUMP JUMPDEST SWAP3 PUSH2 0xA44 DUP4 MLOAD SWAP5 DUP6 PUSH2 0xB82 JUMP JUMPDEST DUP2 DUP5 MSTORE PUSH2 0xA50 DUP3 PUSH2 0xBBA JUMP JUMPDEST PUSH1 0x20 SWAP1 PUSH1 0x1F NOT ADD CALLDATASIZE DUP7 DUP4 ADD CALLDATACOPY DUP2 JUMPDEST DUP4 DUP2 LT PUSH2 0xA7A JUMPI DUP5 MLOAD PUSH1 0x20 DUP1 DUP3 MSTORE DUP2 SWAP1 PUSH2 0x59D SWAP1 DUP3 ADD DUP10 PUSH2 0xAB3 JUMP JUMPDEST DUP1 DUP4 MSTORE PUSH1 0x2 DUP3 MSTORE DUP5 DUP4 KECCAK256 SLOAD DUP7 MLOAD DUP3 LT ISZERO PUSH2 0xAA0 JUMPI PUSH1 0x5 DUP3 SWAP1 SHL DUP8 ADD DUP4 ADD MSTORE PUSH1 0x1 ADD PUSH2 0xA5E JUMP JUMPDEST PUSH4 0x4E487B71 PUSH1 0xE0 SHL DUP5 MSTORE PUSH1 0x32 DUP9 MSTORE PUSH1 0x24 DUP5 REVERT JUMPDEST SWAP1 DUP2 MLOAD DUP1 DUP3 MSTORE PUSH1 0x20 DUP1 DUP1 SWAP4 ADD SWAP4 ADD SWAP2 PUSH1 0x0 JUMPDEST DUP3 DUP2 LT PUSH2 0xAD3 JUMPI POP POP POP POP SWAP1 JUMP JUMPDEST DUP4 MLOAD DUP6 MSTORE SWAP4 DUP2 ADD SWAP4 SWAP3 DUP2 ADD SWAP3 PUSH1 0x1 ADD PUSH2 0xAC5 JUMP JUMPDEST SWAP2 DUP2 PUSH1 0x1F DUP5 ADD SLT ISZERO PUSH2 0xB18 JUMPI DUP3 CALLDATALOAD SWAP2 PUSH8 0xFFFFFFFFFFFFFFFF DUP4 GT PUSH2 0xB18 JUMPI PUSH1 0x20 DUP1 DUP6 ADD SWAP5 DUP5 PUSH1 0x5 SHL ADD ADD GT PUSH2 0xB18 JUMPI JUMP JUMPDEST PUSH1 0x0 DUP1 REVERT JUMPDEST PUSH1 0x1 SLOAD DUP2 LT ISZERO PUSH2 0xB54 JUMPI PUSH1 0x1 PUSH1 0x0 MSTORE PUSH32 0xB10E2D527612073B26EECDFD717E6A320CF44B4AFAC2B0732D9FCBE2B7FA0CF6 ADD SWAP1 PUSH1 0x0 SWAP1 JUMP JUMPDEST PUSH4 0x4E487B71 PUSH1 0xE0 SHL PUSH1 0x0 MSTORE PUSH1 0x32 PUSH1 0x4 MSTORE PUSH1 0x24 PUSH1 0x0 REVERT JUMPDEST DUP1 SLOAD DUP3 LT ISZERO PUSH2 0xB54 JUMPI PUSH1 0x0 MSTORE PUSH1 0x20 PUSH1 0x0 KECCAK256 ADD SWAP1 PUSH1 0x0 SWAP1 JUMP JUMPDEST SWAP1 PUSH1 0x1F DUP1 NOT SWAP2 ADD AND DUP2 ADD SWAP1 DUP2 LT PUSH8 0xFFFFFFFFFFFFFFFF DUP3 GT OR PUSH2 0xBA4 JUMPI PUSH1 0x40 MSTORE JUMP JUMPDEST PUSH4 0x4E487B71 PUSH1 0xE0 SHL PUSH1 0x0 MSTORE PUSH1 0x41 PUSH1 0x4 MSTORE PUSH1 0x24 PUSH1 0x0 REVERT JUMPDEST PUSH8 0xFFFFFFFFFFFFFFFF DUP2 GT PUSH2 0xBA4 JUMPI PUSH1 0x5 SHL PUSH1 0x20 ADD SWAP1 JUMP JUMPDEST PUSH1 0x1 PUSH1 0x40 SHL DUP3 GT PUSH2 0xBA4 JUMPI DUP1 SLOAD SWAP2 DUP1 DUP3 SSTORE DUP3 DUP2 LT PUSH2 0xBEF JUMPI POP POP POP JUMP JUMPDEST PUSH1 0x0 SWAP2 PUSH1 0x0 MSTORE PUSH1 0x20 PUSH1 0x0 KECCAK256 SWAP3 DUP4 ADD SWAP3 ADD JUMPDEST DUP3 DUP2 LT PUSH2 0xC0C JUMPI POP POP POP JUMP JUMPDEST DUP2 DUP2 SSTORE PUSH1 0x1 ADD PUSH2 0xC00 JUMP INVALID LOG2 PUSH5 0x6970667358 0x22 SLT KECCAK256 0xDD STOP LOG4 0x2C 0x2A CALLVALUE CALLVALUE DELEGATECALL LOG3 AND JUMP PUSH8 0xEFA9D58539A7EC83 0xD ORIGIN DUP16 PUSH27 0xE34881446025D94064736F6C634300081700330000000000000000 "},"methodIdentifiers":{"computeGlobalOptimalPlan()":"ed3bf9c4","getBestPosition(address)":"af602b43","getGlobalOptimalPlanArray()":"1e385f69","getGlobalOptimalPlanHour(uint256)":"efe5c98d","getLastUpdatedTimestamp()":"a626d2c0","globalOptimalPlan(uint256)":"7f042dc0","lastUpdatedTimestamp()":"fbaf894c","nodeAddresses(uint256)":"c4d77090","nodeResults(address)":"7207c556","numHours()":"94f6cd8d","updateNodeResult(int256[],int256,uint256[])":"2fc0395f"}}}}}