{"contracts/GlobalContract.sol":{"GlobalContract":{"abi":[{"anonymous":false,"inputs":[{"indexed":true,"internalType":"address","name":"trigger","type":"address"},{"indexed":false,"internalType":"int256[]","name":"newPlan","type":"int256[]"},{"indexed":false,"internalType":"uint256","name":"timestamp","type":"uint256"}],"name":"GlobalPlanComputed","type":"event"},{"anonymous":false,"inputs":[{"indexed":true,"internalType":"address","name":"node","type":"address"},{"indexed":false,"internalType":"int256","name":"bestScore","type":"int256"}],"name":"NodeResultUpdated","type":"event"},{"inputs":[],"name":"bestGlobalCost","outputs":[{"internalType":"int256","name":"","type":"int256"}],"stateMutability":"view","type":"function"},{"inputs":[{"internalType":"uint256","name":"","type":"uint256"}],"name":"bestGlobalPlan","outputs":[{"internalType":"int256","name":"","type":"int256"}],"stateMutability":"view","type":"function"},{"inputs":[],"name":"computeGlobalOptimalPlan","outputs":[],"stateMutability":"nonpayable","type":"function"},{"inputs":[],"name":"finalizePlan","outputs":[],"stateMutability":"nonpayable","type":"function"},{"inputs":[],"name":"finalized","outputs":[{"internalType":"bool","name":"","type":"bool"}],"stateMutability":"view","type":"function"},{"inputs":[],"name":"frozenGlobalCost","outputs":[{"internalType":"int256","name":"","type":"int256"}],"stateMutability":"view","type":"function"},{"inputs":[],"name":"getBestGlobalPlan","outputs":[{"internalType":"int256[]","name":"","type":"int256[]"}],"stateMutability":"view","type":"function"},{"inputs":[{"internalType":"address","name":"_node","type":"address"}],"name":"getBestPosition","outputs":[{"internalType":"int256[]","name":"","type":"int256[]"}],"stateMutability":"view","type":"function"},{"inputs":[],"name":"getGlobalOptimalPlanArray","outputs":[{"internalType":"int256[]","name":"","type":"int256[]"}],"stateMutability":"view","type":"function"},{"inputs":[{"internalType":"uint256","name":"hour","type":"uint256"}],"name":"getGlobalOptimalPlanHour","outputs":[{"internalType":"int256","name":"","type":"int256"}],"stateMutability":"view","type":"function"},{"inputs":[],"name":"getLastUpdatedTimestamp","outputs":[{"internalType":"uint256","name":"","type":"uint256"}],"stateMutability":"view","type":"function"},{"inputs":[],"name":"getNodeAddresses","outputs":[{"internalType":"address[]","name":"","type":"address[]"}],"stateMutability":"view","type":"function"},{"inputs":[{"internalType":"uint256","name":"","type":"uint256"}],"name":"globalOptimalPlan","outputs":[{"internalType":"int256","name":"","type":"int256"}],"stateMutability":"view","type":"function"},{"inputs":[],"name":"lastUpdatedTimestamp","outputs":[{"internalType":"uint256","name":"","type":"uint256"}],"stateMutability":"view","type":"function"},{"inputs":[{"internalType":"uint256","name":"","type":"uint256"}],"name":"nodeAddresses","outputs":[{"internalType":"address","name":"","type":"address"}],"stateMutability":"view","type":"function"},{"inputs":[{"internalType":"address","name":"","type":"address"}],"name":"nodeResults","outputs":[{"internalType":"int256","name":"bestScore","type":"int256"},{"internalType":"bool","name":"exists","type":"bool"}],"stateMutability":"view","type":"function"},{"inputs":[],"name":"numHours","outputs":[{"internalType":"uint256","name":"","type":"uint256"}],"stateMutability":"view","type":"function"},{"inputs":[{"internalType":"int256[]","name":"newPosition","type":"int256[]"},{"internalType":"int256","name":"newScore","type":"int256"},{"internalType":"uint256[]","name":"newFlexibilityWeight","type":"uint256[]"}],"name":"updateNodeResult","outputs":[],"stateMutability":"nonpayable","type":"function"}],"evm":{"bytecode":{"linkReferences":{},"object":"6080806040523461002b576001600160ff1b036004556008805460ff1916905561107c90816100318239f35b600080fdfe608060408181526004918236101561001657600080fd5b600092833560e01c9182630bfa7ec914610e1d575081630c27abc814610de4578163160b0cad14610dc65781631e385f6914610d4e5781632e94982414610c935781632fc0395f146108df5781637207c556146108945781637f042dc01461086c57816394f6cd8d1461084d578163a00239d614610827578163a626d2c014610808578163af602b431461077c578163b3f05b9714610758578163b6042cf9146106da578163c4d7709014610692578163ed3bf9c414610185578163efe5c98d1461010c575063fbaf894c146100eb57600080fd5b346101085781600319360112610108576020906007549051908152f35b5080fd5b83915034610108576020366003190112610108578035906003548210156101425760208480858581526002845220549051908152f35b606490602085519162461bcd60e51b8352820152601960248201527f4f726120696e20616661726120696e74657276616c756c7569000000000000006044820152fd5b8383346101085781600319360112610108576001908154156106575760039081541561061c5783835b610465575b50426007558051631e385f6960e01b81529484868281305afa95861561045b5785966103bd575b506101ed82519683885283880190610ec3565b7ff4e36818b74fbce4c838f2f1bf0bd911f73e9aebb1c54789dd9ea8446a1e426260209742898201528033930390a28485858054915b82811061035a575050506005549081158015610350575b610242578680f35b825583548082036102a4575b50505083948394935b610263575b8086958680f35b825484101561029f57848481958852600283528388205461028382610e39565b8192915490881b91821b91600019901b19161790550193610257565b61025c565b6102ad90610f7d565b9081519267ffffffffffffffff841161033d57600160401b841161033d57509087918360055580841061030a575b500160058652855b8281101561024e5781516000805160206110278339815191528201559087019085016102e3565b868460008051602061102783398151915292830192015b82811061032f5750506102db565b8981558a9450889101610321565b634e487b7160e01b885260419052602487fd5b508254811261023a565b61036381610e74565b90546001600160a01b0391891b1c81168a52898b52868a2088015460ff1661038f575b50018690610223565b93819461039e6103b693610e74565b9054908a1b1c168a52898b5282878b20015490610ff4565b928a610386565b9095503d8086833e6103cf8183610f2d565b81019060209081818403126104535780519067ffffffffffffffff821161045757019180601f8401121561045357825161040881610f65565b9361041586519586610f2d565b818552838086019260051b82010192831161044f578301905b828210610440575050505094866101da565b8151815290830190830161042e565b8880fd5b8680fd5b8780fd5b82513d87823e3d90fd5b825481101561061757848590868654905b8181106104f8575050811586816104de57506104cb57600160ff1b81146000198314166104b857918592918392828952600260205205848820555b01906101ae565b634e487b7160e01b875260118852602487fd5b634e487b7160e01b875260128852602487fd5b9391505082915080875260026020526005848820556104b1565b968761050c829b9597989394969a99610e74565b90546001600160a01b0391851b1c81168a5260208a8152898b208501548b919060ff16610547575b5050500198969793919095949298610476565b909183999450610558819994610e74565b905490871b1c1682528181526105738c60028c852001610eab565b905490861b1c976105838a610e74565b905490871b1c168252526105998a898b20610eab565b905490841b1c86810291908a8812600160ff1b8214166106045787830514871517156105f157906105c991610ff4565b9481018091116105de578990958b8981610534565b634e487b7160e01b885260118452602488fd5b634e487b7160e01b8a526011865260248afd5b634e487b7160e01b8b526011875260248bfd5b6101b3565b5162461bcd60e51b815260208186015260166024820152751b9d5b521bdd5c9cc81b9d48195cdd19481cd95d185d60521b6044820152606490fd5b5162461bcd60e51b81526020818501526016602482015275139a58da5d5b881b9bd9081a5b9c9959da5cdd1c985d60521b6044820152606490fd5b9050346106d65760203660031901126106d65735916001548310156106d357506106bd602092610e74565b905491519160018060a01b039160031b1c168152f35b80fd5b8280fd5b8284346106d357806003193601126106d35781519182916005548085526020809501946005835260008051602061102783398151915292905b8282106107415761073d868661072b828b0383610f2d565b51918291602083526020830190610ec3565b0390f35b835487529586019560019384019390910190610713565b50503461010857816003193601126101085760209060ff6008541690519015158152f35b919050346106d6576020918260031936011261080457356001600160a01b03811690819003610804578352828252808320815190819485928583549182815201928252858220915b868282106107ed57859061073d886107de84890385610f2d565b51928284938452830190610ec3565b8354855288955090930192600192830192016107c4565b8380fd5b5050346101085781600319360112610108576020906007549051908152f35b839034610108578160031936011261010857600160ff1960085416176008555460065580f35b5050346101085781600319360112610108576020906003549051908152f35b9050346106d65760203660031901126106d65760209282913581526002845220549051908152f35b9050346106d65760203660031901126106d657356001600160a01b038116908190036106d6579181928152806020522060ff6003600183015492015416825191825215156020820152f35b919050346106d65760603660031901126106d65767ffffffffffffffff908235828111610c8f576109139036908501610ef7565b9093602480359560443586811161044f576109319036908501610ef7565b9091338a526020978a8952878b2060ff60038201541615600014610bdf57508751916080830183811083821117610b8157895261096d88610f65565b9061097a8a519283610f2d565b8882528a82018960051b820191368311610bdb578c90915b838310610bcb57505050508252888201938a85526109af84610f65565b936109bc8a519586610f2d565b8085528a85019060051b820191368311610bc7578b90915b838310610bb757505050508782019283526060820192600194858552338d528c8b52898d209351805190848211610ba5578e888e8093610a14868b610faf565b019288835280832092905b858210610b935750505050505051858401556002830190518051928311610b81578a90610a4c8484610faf565b01908c52898c20858d5b848110610b6f5750505050506003019051151560ff80198354169116179055805490600160401b821015610b5d578181019055610a9290610e74565b81546001600160a01b0360039290921b91821b19163390911b1790555b60035480610aeb575050506003557f1e61759c28c006b2edeffc298e59ea00a93888cddb41dc60e8236de97f039b3c91905b519283523392a280f35b90919203610b1d575050907f1e61759c28c006b2edeffc298e59ea00a93888cddb41dc60e8236de97f039b3c91610ae1565b606493601c9293519362461bcd60e51b85528401528201527f44696d656e7369756e65206e65636f72657370756e7a61746f617265000000006044820152fd5b634e487b7160e01b8952604184528289fd5b8c845194019381840155018690610a56565b634e487b7160e01b8d5260418852868dfd5b8451940193818401550189908f610a1f565b634e487b7160e01b8f5260418a52888ffd5b82358152918101918c91016109d4565b8d80fd5b82358152918101918d9101610992565b8e80fd5b60019491928b6001830180548212610bff575b5050505050505050610aaf565b55838911610b8157610c118983610faf565b908c52898c2090858d5b8a8110610c7d5750505050338b528a89526002888c2001918311610c6b57610c438383610faf565b908a52878a208a5b838110610c5a57808b81610bf2565b823582820155918901918401610c4b565b634e487b7160e01b8b5260418652848bfd5b8c833593019281850155018690610c1b565b8480fd5b50503461010857816003193601126101085780516001805480835281855260208084019592939186907fb10e2d527612073b26eecdfd717e6a320cf44b4afac2b0732d9fcbe2b7fa0cf690855b818110610d325750505082610cf6910383610f2d565b8451948186019282875251809352850195925b828110610d165785870386f35b83516001600160a01b0316875295810195928101928401610d09565b82546001600160a01b0316845292840192918701918701610ce0565b838334610108578160031936011261010857600354610d6c81610f7d565b92805b828110610d8b5783516020808252819061073d90820188610ec3565b80825260206002815284832054908651831015610db357600583901b87010152600101610d6f565b634e487b7160e01b845260328852602484fd5b9050346106d657826003193601126106d65760209250549051908152f35b9050346106d65760203660031901126106d65735916005548310156106d35750610e0f602092610e39565b91905490519160031b1c8152f35b8490346101085781600319360112610108576020906006548152f35b600554811015610e5e5760056000526000805160206110278339815191520190600090565b634e487b7160e01b600052603260045260246000fd5b600154811015610e5e5760016000527fb10e2d527612073b26eecdfd717e6a320cf44b4afac2b0732d9fcbe2b7fa0cf60190600090565b8054821015610e5e5760005260206000200190600090565b90815180825260208080930193019160005b828110610ee3575050505090565b835185529381019392810192600101610ed5565b9181601f84011215610f285782359167ffffffffffffffff8311610f28576020808501948460051b010111610f2857565b600080fd5b90601f8019910116810190811067ffffffffffffffff821117610f4f57604052565b634e487b7160e01b600052604160045260246000fd5b67ffffffffffffffff8111610f4f5760051b60200190565b90610f8782610f65565b610f946040519182610f2d565b8281528092610fa5601f1991610f65565b0190602036910137565b600160401b8211610f4f57805491808255828110610fcc57505050565b600091600052602060002092830192015b828110610fe957505050565b818155600101610fdd565b9190916000838201938412911290801582169115161761101057565b634e487b7160e01b600052601160045260246000fdfe036b6384b5eca791c62761152d0c79bb0604c104a5fb6f4eb0703f3154bb3db0a2646970667358221220bea5e1295faa3ebfa8a986284d6d96e981414acd35addd3813d7f2f5c69090b964736f6c63430008170033","opcodes":"PUSH1 0x80 DUP1 PUSH1 0x40 MSTORE CALLVALUE PUSH2 0x2B JUMPI PUSH1 0x1 PUSH1 0x1 PUSH1 0xFF SHL SUB PUSH1 0x4 SSTORE PUSH1 0x8 DUP1 SLOAD PUSH1 0xFF NOT AND SWAP1 SSTORE PUSH2 0x107C SWAP1 DUP2 PUSH2 0x31 DUP3 CODECOPY RETURN JUMPDEST PUSH1 0x0 DUP1 REVERT INVALID PUSH1 0x80 PUSH1 0x40 DUP2 DUP2 MSTORE PUSH1 0x4 SWAP2 DUP3 CALLDATASIZE LT ISZERO PUSH2 0x16 JUMPI PUSH1 0x0 DUP1 REVERT JUMPDEST PUSH1 0x0 SWAP3 DUP4 CALLDATALOAD PUSH1 0xE0 SHR SWAP2 DUP3 PUSH4 0xBFA7EC9 EQ PUSH2 0xE1D JUMPI POP DUP2 PUSH4 0xC27ABC8 EQ PUSH2 0xDE4 JUMPI DUP2 PUSH4 0x160B0CAD EQ PUSH2 0xDC6 JUMPI DUP2 PUSH4 0x1E385F69 EQ PUSH2 0xD4E JUMPI DUP2 PUSH4 0x2E949824 EQ PUSH2 0xC93 JUMPI DUP2 PUSH4 0x2FC0395F EQ PUSH2 0x8DF JUMPI DUP2 PUSH4 0x7207C556 EQ PUSH2 0x894 JUMPI DUP2 PUSH4 0x7F042DC0 EQ PUSH2 0x86C JUMPI DUP2 PUSH4 0x94F6CD8D EQ PUSH2 0x84D JUMPI DUP2 PUSH4 0xA00239D6 EQ PUSH2 0x827 JUMPI DUP2 PUSH4 0xA626D2C0 EQ PUSH2 0x808 JUMPI DUP2 PUSH4 0xAF602B43 EQ PUSH2 0x77C JUMPI DUP2 PUSH4 0xB3F05B97 EQ PUSH2 0x758 JUMPI DUP2 PUSH4 0xB6042CF9 EQ PUSH2 0x6DA JUMPI DUP2 PUSH4 0xC4D77090 EQ PUSH2 0x692 JUMPI DUP2 PUSH4 0xED3BF9C4 EQ PUSH2 0x185 JUMPI DUP2 PUSH4 0xEFE5C98D EQ PUSH2 0x10C JUMPI POP PUSH4 0xFBAF894C EQ PUSH2 0xEB JUMPI PUSH1 0x0 DUP1 REVERT JUMPDEST CALLVALUE PUSH2 0x108 JUMPI DUP2 PUSH1 0x3 NOT CALLDATASIZE ADD SLT PUSH2 0x108 JUMPI PUSH1 0x20 SWAP1 PUSH1 0x7 SLOAD SWAP1 MLOAD SWAP1 DUP2 MSTORE RETURN JUMPDEST POP DUP1 REVERT JUMPDEST DUP4 SWAP2 POP CALLVALUE PUSH2 0x108 JUMPI PUSH1 0x20 CALLDATASIZE PUSH1 0x3 NOT ADD SLT PUSH2 0x108 JUMPI DUP1 CALLDATALOAD SWAP1 PUSH1 0x3 SLOAD DUP3 LT ISZERO PUSH2 0x142 JUMPI PUSH1 0x20 DUP5 DUP1 DUP6 DUP6 DUP2 MSTORE PUSH1 0x2 DUP5 MSTORE KECCAK256 SLOAD SWAP1 MLOAD SWAP1 DUP2 MSTORE RETURN JUMPDEST PUSH1 0x64 SWAP1 PUSH1 0x20 DUP6 MLOAD SWAP2 PUSH3 0x461BCD PUSH1 0xE5 SHL DUP4 MSTORE DUP3 ADD MSTORE PUSH1 0x19 PUSH1 0x24 DUP3 ADD MSTORE PUSH32 0x4F726120696E20616661726120696E74657276616C756C756900000000000000 PUSH1 0x44 DUP3 ADD MSTORE REVERT JUMPDEST DUP4 DUP4 CALLVALUE PUSH2 0x108 JUMPI DUP2 PUSH1 0x3 NOT CALLDATASIZE ADD SLT PUSH2 0x108 JUMPI PUSH1 0x1 SWAP1 DUP2 SLOAD ISZERO PUSH2 0x657 JUMPI PUSH1 0x3 SWAP1 DUP2 SLOAD ISZERO PUSH2 0x61C JUMPI DUP4 DUP4 JUMPDEST PUSH2 0x465 JUMPI JUMPDEST POP TIMESTAMP PUSH1 0x7 SSTORE DUP1 MLOAD PUSH4 0x1E385F69 PUSH1 0xE0 SHL DUP2 MSTORE SWAP5 DUP5 DUP7 DUP3 DUP2 ADDRESS GAS STATICCALL SWAP6 DUP7 ISZERO PUSH2 0x45B JUMPI DUP6 SWAP7 PUSH2 0x3BD JUMPI JUMPDEST POP PUSH2 0x1ED DUP3 MLOAD SWAP7 DUP4 DUP9 MSTORE DUP4 DUP9 ADD SWAP1 PUSH2 0xEC3 JUMP JUMPDEST PUSH32 0xF4E36818B74FBCE4C838F2F1BF0BD911F73E9AEBB1C54789DD9EA8446A1E4262 PUSH1 0x20 SWAP8 TIMESTAMP DUP10 DUP3 ADD MSTORE DUP1 CALLER SWAP4 SUB SWAP1 LOG2 DUP5 DUP6 DUP6 DUP1 SLOAD SWAP2 JUMPDEST DUP3 DUP2 LT PUSH2 0x35A JUMPI POP POP POP PUSH1 0x5 SLOAD SWAP1 DUP2 ISZERO DUP1 ISZERO PUSH2 0x350 JUMPI JUMPDEST PUSH2 0x242 JUMPI DUP7 DUP1 RETURN JUMPDEST DUP3 SSTORE DUP4 SLOAD DUP1 DUP3 SUB PUSH2 0x2A4 JUMPI JUMPDEST POP POP POP DUP4 SWAP5 DUP4 SWAP5 SWAP4 JUMPDEST PUSH2 0x263 JUMPI JUMPDEST DUP1 DUP7 SWAP6 DUP7 DUP1 RETURN JUMPDEST DUP3 SLOAD DUP5 LT ISZERO PUSH2 0x29F JUMPI DUP5 DUP5 DUP2 SWAP6 DUP9 MSTORE PUSH1 0x2 DUP4 MSTORE DUP4 DUP9 KECCAK256 SLOAD PUSH2 0x283 DUP3 PUSH2 0xE39 JUMP JUMPDEST DUP2 SWAP3 SWAP2 SLOAD SWAP1 DUP9 SHL SWAP2 DUP3 SHL SWAP2 PUSH1 0x0 NOT SWAP1 SHL NOT AND OR SWAP1 SSTORE ADD SWAP4 PUSH2 0x257 JUMP JUMPDEST PUSH2 0x25C JUMP JUMPDEST PUSH2 0x2AD SWAP1 PUSH2 0xF7D JUMP JUMPDEST SWAP1 DUP2 MLOAD SWAP3 PUSH8 0xFFFFFFFFFFFFFFFF DUP5 GT PUSH2 0x33D JUMPI PUSH1 0x1 PUSH1 0x40 SHL DUP5 GT PUSH2 0x33D JUMPI POP SWAP1 DUP8 SWAP2 DUP4 PUSH1 0x5 SSTORE DUP1 DUP5 LT PUSH2 0x30A JUMPI JUMPDEST POP ADD PUSH1 0x5 DUP7 MSTORE DUP6 JUMPDEST DUP3 DUP2 LT ISZERO PUSH2 0x24E JUMPI DUP2 MLOAD PUSH1 0x0 DUP1 MLOAD PUSH1 0x20 PUSH2 0x1027 DUP4 CODECOPY DUP2 MLOAD SWAP2 MSTORE DUP3 ADD SSTORE SWAP1 DUP8 ADD SWAP1 DUP6 ADD PUSH2 0x2E3 JUMP JUMPDEST DUP7 DUP5 PUSH1 0x0 DUP1 MLOAD PUSH1 0x20 PUSH2 0x1027 DUP4 CODECOPY DUP2 MLOAD SWAP2 MSTORE SWAP3 DUP4 ADD SWAP3 ADD JUMPDEST DUP3 DUP2 LT PUSH2 0x32F JUMPI POP POP PUSH2 0x2DB JUMP JUMPDEST DUP10 DUP2 SSTORE DUP11 SWAP5 POP DUP9 SWAP2 ADD PUSH2 0x321 JUMP JUMPDEST PUSH4 0x4E487B71 PUSH1 0xE0 SHL DUP9 MSTORE PUSH1 0x41 SWAP1 MSTORE PUSH1 0x24 DUP8 REVERT JUMPDEST POP DUP3 SLOAD DUP2 SLT PUSH2 0x23A JUMP JUMPDEST PUSH2 0x363 DUP2 PUSH2 0xE74 JUMP JUMPDEST SWAP1 SLOAD PUSH1 0x1 PUSH1 0x1 PUSH1 0xA0 SHL SUB SWAP2 DUP10 SHL SHR DUP2 AND DUP11 MSTORE DUP10 DUP12 MSTORE DUP7 DUP11 KECCAK256 DUP9 ADD SLOAD PUSH1 0xFF AND PUSH2 0x38F JUMPI JUMPDEST POP ADD DUP7 SWAP1 PUSH2 0x223 JUMP JUMPDEST SWAP4 DUP2 SWAP5 PUSH2 0x39E PUSH2 0x3B6 SWAP4 PUSH2 0xE74 JUMP JUMPDEST SWAP1 SLOAD SWAP1 DUP11 SHL SHR AND DUP11 MSTORE DUP10 DUP12 MSTORE DUP3 DUP8 DUP12 KECCAK256 ADD SLOAD SWAP1 PUSH2 0xFF4 JUMP JUMPDEST SWAP3 DUP11 PUSH2 0x386 JUMP JUMPDEST SWAP1 SWAP6 POP RETURNDATASIZE DUP1 DUP7 DUP4 RETURNDATACOPY PUSH2 0x3CF DUP2 DUP4 PUSH2 0xF2D JUMP JUMPDEST DUP2 ADD SWAP1 PUSH1 0x20 SWAP1 DUP2 DUP2 DUP5 SUB SLT PUSH2 0x453 JUMPI DUP1 MLOAD SWAP1 PUSH8 0xFFFFFFFFFFFFFFFF DUP3 GT PUSH2 0x457 JUMPI ADD SWAP2 DUP1 PUSH1 0x1F DUP5 ADD SLT ISZERO PUSH2 0x453 JUMPI DUP3 MLOAD PUSH2 0x408 DUP2 PUSH2 0xF65 JUMP JUMPDEST SWAP4 PUSH2 0x415 DUP7 MLOAD SWAP6 DUP7 PUSH2 0xF2D JUMP JUMPDEST DUP2 DUP6 MSTORE DUP4 DUP1 DUP7 ADD SWAP3 PUSH1 0x5 SHL DUP3 ADD ADD SWAP3 DUP4 GT PUSH2 0x44F JUMPI DUP4 ADD SWAP1 JUMPDEST DUP3 DUP3 LT PUSH2 0x440 JUMPI POP POP POP POP SWAP5 DUP7 PUSH2 0x1DA JUMP JUMPDEST DUP2 MLOAD DUP2 MSTORE SWAP1 DUP4 ADD SWAP1 DUP4 ADD PUSH2 0x42E JUMP JUMPDEST DUP9 DUP1 REVERT JUMPDEST DUP7 DUP1 REVERT JUMPDEST DUP8 DUP1 REVERT JUMPDEST DUP3 MLOAD RETURNDATASIZE DUP8 DUP3 RETURNDATACOPY RETURNDATASIZE SWAP1 REVERT JUMPDEST DUP3 SLOAD DUP2 LT ISZERO PUSH2 0x617 JUMPI DUP5 DUP6 SWAP1 DUP7 DUP7 SLOAD SWAP1 JUMPDEST DUP2 DUP2 LT PUSH2 0x4F8 JUMPI POP POP DUP2 ISZERO DUP7 DUP2 PUSH2 0x4DE JUMPI POP PUSH2 0x4CB JUMPI PUSH1 0x1 PUSH1 0xFF SHL DUP2 EQ PUSH1 0x0 NOT DUP4 EQ AND PUSH2 0x4B8 JUMPI SWAP2 DUP6 SWAP3 SWAP2 DUP4 SWAP3 DUP3 DUP10 MSTORE PUSH1 0x2 PUSH1 0x20 MSTORE SDIV DUP5 DUP9 KECCAK256 SSTORE JUMPDEST ADD SWAP1 PUSH2 0x1AE JUMP JUMPDEST PUSH4 0x4E487B71 PUSH1 0xE0 SHL DUP8 MSTORE PUSH1 0x11 DUP9 MSTORE PUSH1 0x24 DUP8 REVERT JUMPDEST PUSH4 0x4E487B71 PUSH1 0xE0 SHL DUP8 MSTORE PUSH1 0x12 DUP9 MSTORE PUSH1 0x24 DUP8 REVERT JUMPDEST SWAP4 SWAP2 POP POP DUP3 SWAP2 POP DUP1 DUP8 MSTORE PUSH1 0x2 PUSH1 0x20 MSTORE PUSH1 0x5 DUP5 DUP9 KECCAK256 SSTORE PUSH2 0x4B1 JUMP JUMPDEST SWAP7 DUP8 PUSH2 0x50C DUP3 SWAP12 SWAP6 SWAP8 SWAP9 SWAP4 SWAP5 SWAP7 SWAP11 SWAP10 PUSH2 0xE74 JUMP JUMPDEST SWAP1 SLOAD PUSH1 0x1 PUSH1 0x1 PUSH1 0xA0 SHL SUB SWAP2 DUP6 SHL SHR DUP2 AND DUP11 MSTORE PUSH1 0x20 DUP11 DUP2 MSTORE DUP10 DUP12 KECCAK256 DUP6 ADD SLOAD DUP12 SWAP2 SWAP1 PUSH1 0xFF AND PUSH2 0x547 JUMPI JUMPDEST POP POP POP ADD SWAP9 SWAP7 SWAP8 SWAP4 SWAP2 SWAP1 SWAP6 SWAP5 SWAP3 SWAP9 PUSH2 0x476 JUMP JUMPDEST SWAP1 SWAP2 DUP4 SWAP10 SWAP5 POP PUSH2 0x558 DUP2 SWAP10 SWAP5 PUSH2 0xE74 JUMP JUMPDEST SWAP1 SLOAD SWAP1 DUP8 SHL SHR AND DUP3 MSTORE DUP2 DUP2 MSTORE PUSH2 0x573 DUP13 PUSH1 0x2 DUP13 DUP6 KECCAK256 ADD PUSH2 0xEAB JUMP JUMPDEST SWAP1 SLOAD SWAP1 DUP7 SHL SHR SWAP8 PUSH2 0x583 DUP11 PUSH2 0xE74 JUMP JUMPDEST SWAP1 SLOAD SWAP1 DUP8 SHL SHR AND DUP3 MSTORE MSTORE PUSH2 0x599 DUP11 DUP10 DUP12 KECCAK256 PUSH2 0xEAB JUMP JUMPDEST SWAP1 SLOAD SWAP1 DUP5 SHL SHR DUP7 DUP2 MUL SWAP2 SWAP1 DUP11 DUP9 SLT PUSH1 0x1 PUSH1 0xFF SHL DUP3 EQ AND PUSH2 0x604 JUMPI DUP8 DUP4 SDIV EQ DUP8 ISZERO OR ISZERO PUSH2 0x5F1 JUMPI SWAP1 PUSH2 0x5C9 SWAP2 PUSH2 0xFF4 JUMP JUMPDEST SWAP5 DUP2 ADD DUP1 SWAP2 GT PUSH2 0x5DE JUMPI DUP10 SWAP1 SWAP6 DUP12 DUP10 DUP2 PUSH2 0x534 JUMP JUMPDEST PUSH4 0x4E487B71 PUSH1 0xE0 SHL DUP9 MSTORE PUSH1 0x11 DUP5 MSTORE PUSH1 0x24 DUP9 REVERT JUMPDEST PUSH4 0x4E487B71 PUSH1 0xE0 SHL DUP11 MSTORE PUSH1 0x11 DUP7 MSTORE PUSH1 0x24 DUP11 REVERT JUMPDEST PUSH4 0x4E487B71 PUSH1 0xE0 SHL DUP12 MSTORE PUSH1 0x11 DUP8 MSTORE PUSH1 0x24 DUP12 REVERT JUMPDEST PUSH2 0x1B3 JUMP JUMPDEST MLOAD PUSH3 0x461BCD PUSH1 0xE5 SHL DUP2 MSTORE PUSH1 0x20 DUP2 DUP7 ADD MSTORE PUSH1 0x16 PUSH1 0x24 DUP3 ADD MSTORE PUSH22 0x1B9D5B521BDD5C9CC81B9D48195CDD19481CD95D185D PUSH1 0x52 SHL PUSH1 0x44 DUP3 ADD MSTORE PUSH1 0x64 SWAP1 REVERT JUMPDEST MLOAD PUSH3 0x461BCD PUSH1 0xE5 SHL DUP2 MSTORE PUSH1 0x20 DUP2 DUP6 ADD MSTORE PUSH1 0x16 PUSH1 0x24 DUP3 ADD MSTORE PUSH22 0x139A58DA5D5B881B9BD9081A5B9C9959DA5CDD1C985D PUSH1 0x52 SHL PUSH1 0x44 DUP3 ADD MSTORE PUSH1 0x64 SWAP1 REVERT JUMPDEST SWAP1 POP CALLVALUE PUSH2 0x6D6 JUMPI PUSH1 0x20 CALLDATASIZE PUSH1 0x3 NOT ADD SLT PUSH2 0x6D6 JUMPI CALLDATALOAD SWAP2 PUSH1 0x1 SLOAD DUP4 LT ISZERO PUSH2 0x6D3 JUMPI POP PUSH2 0x6BD PUSH1 0x20 SWAP3 PUSH2 0xE74 JUMP JUMPDEST SWAP1 SLOAD SWAP2 MLOAD SWAP2 PUSH1 0x1 DUP1 PUSH1 0xA0 SHL SUB SWAP2 PUSH1 0x3 SHL SHR AND DUP2 MSTORE RETURN JUMPDEST DUP1 REVERT JUMPDEST DUP3 DUP1 REVERT JUMPDEST DUP3 DUP5 CALLVALUE PUSH2 0x6D3 JUMPI DUP1 PUSH1 0x3 NOT CALLDATASIZE ADD SLT PUSH2 0x6D3 JUMPI DUP2 MLOAD SWAP2 DUP3 SWAP2 PUSH1 0x5 SLOAD DUP1 DUP6 MSTORE PUSH1 0x20 DUP1 SWAP6 ADD SWAP5 PUSH1 0x5 DUP4 MSTORE PUSH1 0x0 DUP1 MLOAD PUSH1 0x20 PUSH2 0x1027 DUP4 CODECOPY DUP2 MLOAD SWAP2 MSTORE SWAP3 SWAP1 JUMPDEST DUP3 DUP3 LT PUSH2 0x741 JUMPI PUSH2 0x73D DUP7 DUP7 PUSH2 0x72B DUP3 DUP12 SUB DUP4 PUSH2 0xF2D JUMP JUMPDEST MLOAD SWAP2 DUP3 SWAP2 PUSH1 0x20 DUP4 MSTORE PUSH1 0x20 DUP4 ADD SWAP1 PUSH2 0xEC3 JUMP JUMPDEST SUB SWAP1 RETURN JUMPDEST DUP4 SLOAD DUP8 MSTORE SWAP6 DUP7 ADD SWAP6 PUSH1 0x1 SWAP4 DUP5 ADD SWAP4 SWAP1 SWAP2 ADD SWAP1 PUSH2 0x713 JUMP JUMPDEST POP POP CALLVALUE PUSH2 0x108 JUMPI DUP2 PUSH1 0x3 NOT CALLDATASIZE ADD SLT PUSH2 0x108 JUMPI PUSH1 0x20 SWAP1 PUSH1 0xFF PUSH1 0x8 SLOAD AND SWAP1 MLOAD SWAP1 ISZERO ISZERO DUP2 MSTORE RETURN JUMPDEST SWAP2 SWAP1 POP CALLVALUE PUSH2 0x6D6 JUMPI PUSH1 0x20 SWAP2 DUP3 PUSH1 0x3 NOT CALLDATASIZE ADD SLT PUSH2 0x804 JUMPI CALLDATALOAD PUSH1 0x1 PUSH1 0x1 PUSH1 0xA0 SHL SUB DUP2 AND SWAP1 DUP2 SWAP1 SUB PUSH2 0x804 JUMPI DUP4 MSTORE DUP3 DUP3 MSTORE DUP1 DUP4 KECCAK256 DUP2 MLOAD SWAP1 DUP2 SWAP5 DUP6 SWAP3 DUP6 DUP4 SLOAD SWAP2 DUP3 DUP2 MSTORE ADD SWAP3 DUP3 MSTORE DUP6 DUP3 KECCAK256 SWAP2 JUMPDEST DUP7 DUP3 DUP3 LT PUSH2 0x7ED JUMPI DUP6 SWAP1 PUSH2 0x73D DUP9 PUSH2 0x7DE DUP5 DUP10 SUB DUP6 PUSH2 0xF2D JUMP JUMPDEST MLOAD SWAP3 DUP3 DUP5 SWAP4 DUP5 MSTORE DUP4 ADD SWAP1 PUSH2 0xEC3 JUMP JUMPDEST DUP4 SLOAD DUP6 MSTORE DUP9 SWAP6 POP SWAP1 SWAP4 ADD SWAP3 PUSH1 0x1 SWAP3 DUP4 ADD SWAP3 ADD PUSH2 0x7C4 JUMP JUMPDEST DUP4 DUP1 REVERT JUMPDEST POP POP CALLVALUE PUSH2 0x108 JUMPI DUP2 PUSH1 0x3 NOT CALLDATASIZE ADD SLT PUSH2 0x108 JUMPI PUSH1 0x20 SWAP1 PUSH1 0x7 SLOAD SWAP1 MLOAD SWAP1 DUP2 MSTORE RETURN JUMPDEST DUP4 SWAP1 CALLVALUE PUSH2 0x108 JUMPI DUP2 PUSH1 0x3 NOT CALLDATASIZE ADD SLT PUSH2 0x108 JUMPI PUSH1 0x1 PUSH1 0xFF NOT PUSH1 0x8 SLOAD AND OR PUSH1 0x8 SSTORE SLOAD PUSH1 0x6 SSTORE DUP1 RETURN JUMPDEST POP POP CALLVALUE PUSH2 0x108 JUMPI DUP2 PUSH1 0x3 NOT CALLDATASIZE ADD SLT PUSH2 0x108 JUMPI PUSH1 0x20 SWAP1 PUSH1 0x3 SLOAD SWAP1 MLOAD SWAP1 DUP2 MSTORE RETURN JUMPDEST SWAP1 POP CALLVALUE PUSH2 0x6D6 JUMPI PUSH1 0x20 CALLDATASIZE PUSH1 0x3 NOT ADD SLT PUSH2 0x6D6 JUMPI PUSH1 0x20 SWAP3 DUP3 SWAP2 CALLDATALOAD DUP2 MSTORE PUSH1 0x2 DUP5 MSTORE KECCAK256 SLOAD SWAP1 MLOAD SWAP1 DUP2 MSTORE RETURN JUMPDEST SWAP1 POP CALLVALUE PUSH2 0x6D6 JUMPI PUSH1 0x20 CALLDATASIZE PUSH1 0x3 NOT ADD SLT PUSH2 0x6D6 JUMPI CALLDATALOAD PUSH1 0x1 PUSH1 0x1 PUSH1 0xA0 SHL SUB DUP2 AND SWAP1 DUP2 SWAP1 SUB PUSH2 0x6D6 JUMPI SWAP2 DUP2 SWAP3 DUP2 MSTORE DUP1 PUSH1 0x20 MSTORE KECCAK256 PUSH1 0xFF PUSH1 0x3 PUSH1 0x1 DUP4 ADD SLOAD SWAP3 ADD SLOAD AND DUP3 MLOAD SWAP2 DUP3 MSTORE ISZERO ISZERO PUSH1 0x20 DUP3 ADD MSTORE RETURN JUMPDEST SWAP2 SWAP1 POP CALLVALUE PUSH2 0x6D6 JUMPI PUSH1 0x60 CALLDATASIZE PUSH1 0x3 NOT ADD SLT PUSH2 0x6D6 JUMPI PUSH8 0xFFFFFFFFFFFFFFFF SWAP1 DUP3 CALLDATALOAD DUP3 DUP2 GT PUSH2 0xC8F JUMPI PUSH2 0x913 SWAP1 CALLDATASIZE SWAP1 DUP6 ADD PUSH2 0xEF7 JUMP JUMPDEST SWAP1 SWAP4 PUSH1 0x24 DUP1 CALLDATALOAD SWAP6 PUSH1 0x44 CALLDATALOAD DUP7 DUP2 GT PUSH2 0x44F JUMPI PUSH2 0x931 SWAP1 CALLDATASIZE SWAP1 DUP6 ADD PUSH2 0xEF7 JUMP JUMPDEST SWAP1 SWAP2 CALLER DUP11 MSTORE PUSH1 0x20 SWAP8 DUP11 DUP10 MSTORE DUP8 DUP12 KECCAK256 PUSH1 0xFF PUSH1 0x3 DUP3 ADD SLOAD AND ISZERO PUSH1 0x0 EQ PUSH2 0xBDF JUMPI POP DUP8 MLOAD SWAP2 PUSH1 0x80 DUP4 ADD DUP4 DUP2 LT DUP4 DUP3 GT OR PUSH2 0xB81 JUMPI DUP10 MSTORE PUSH2 0x96D DUP9 PUSH2 0xF65 JUMP JUMPDEST SWAP1 PUSH2 0x97A DUP11 MLOAD SWAP3 DUP4 PUSH2 0xF2D JUMP JUMPDEST DUP9 DUP3 MSTORE DUP11 DUP3 ADD DUP10 PUSH1 0x5 SHL DUP3 ADD SWAP2 CALLDATASIZE DUP4 GT PUSH2 0xBDB JUMPI DUP13 SWAP1 SWAP2 JUMPDEST DUP4 DUP4 LT PUSH2 0xBCB JUMPI POP POP POP POP DUP3 MSTORE DUP9 DUP3 ADD SWAP4 DUP11 DUP6 MSTORE PUSH2 0x9AF DUP5 PUSH2 0xF65 JUMP JUMPDEST SWAP4 PUSH2 0x9BC DUP11 MLOAD SWAP6 DUP7 PUSH2 0xF2D JUMP JUMPDEST DUP1 DUP6 MSTORE DUP11 DUP6 ADD SWAP1 PUSH1 0x5 SHL DUP3 ADD SWAP2 CALLDATASIZE DUP4 GT PUSH2 0xBC7 JUMPI DUP12 SWAP1 SWAP2 JUMPDEST DUP4 DUP4 LT PUSH2 0xBB7 JUMPI POP POP POP POP DUP8 DUP3 ADD SWAP3 DUP4 MSTORE PUSH1 0x60 DUP3 ADD SWAP3 PUSH1 0x1 SWAP5 DUP6 DUP6 MSTORE CALLER DUP14 MSTORE DUP13 DUP12 MSTORE DUP10 DUP14 KECCAK256 SWAP4 MLOAD DUP1 MLOAD SWAP1 DUP5 DUP3 GT PUSH2 0xBA5 JUMPI DUP15 DUP9 DUP15 DUP1 SWAP4 PUSH2 0xA14 DUP7 DUP12 PUSH2 0xFAF JUMP JUMPDEST ADD SWAP3 DUP9 DUP4 MSTORE DUP1 DUP4 KECCAK256 SWAP3 SWAP1 JUMPDEST DUP6 DUP3 LT PUSH2 0xB93 JUMPI POP POP POP POP POP POP MLOAD DUP6 DUP5 ADD SSTORE PUSH1 0x2 DUP4 ADD SWAP1 MLOAD DUP1 MLOAD SWAP3 DUP4 GT PUSH2 0xB81 JUMPI DUP11 SWAP1 PUSH2 0xA4C DUP5 DUP5 PUSH2 0xFAF JUMP JUMPDEST ADD SWAP1 DUP13 MSTORE DUP10 DUP13 KECCAK256 DUP6 DUP14 JUMPDEST DUP5 DUP2 LT PUSH2 0xB6F JUMPI POP POP POP POP POP PUSH1 0x3 ADD SWAP1 MLOAD ISZERO ISZERO PUSH1 0xFF DUP1 NOT DUP4 SLOAD AND SWAP2 AND OR SWAP1 SSTORE DUP1 SLOAD SWAP1 PUSH1 0x1 PUSH1 0x40 SHL DUP3 LT ISZERO PUSH2 0xB5D JUMPI DUP2 DUP2 ADD SWAP1 SSTORE PUSH2 0xA92 SWAP1 PUSH2 0xE74 JUMP JUMPDEST DUP2 SLOAD PUSH1 0x1 PUSH1 0x1 PUSH1 0xA0 SHL SUB PUSH1 0x3 SWAP3 SWAP1 SWAP3 SHL SWAP2 DUP3 SHL NOT AND CALLER SWAP1 SWAP2 SHL OR SWAP1 SSTORE JUMPDEST PUSH1 0x3 SLOAD DUP1 PUSH2 0xAEB JUMPI POP POP POP PUSH1 0x3 SSTORE PUSH32 0x1E61759C28C006B2EDEFFC298E59EA00A93888CDDB41DC60E8236DE97F039B3C SWAP2 SWAP1 JUMPDEST MLOAD SWAP3 DUP4 MSTORE CALLER SWAP3 LOG2 DUP1 RETURN JUMPDEST SWAP1 SWAP2 SWAP3 SUB PUSH2 0xB1D JUMPI POP POP SWAP1 PUSH32 0x1E61759C28C006B2EDEFFC298E59EA00A93888CDDB41DC60E8236DE97F039B3C SWAP2 PUSH2 0xAE1 JUMP JUMPDEST PUSH1 0x64 SWAP4 PUSH1 0x1C SWAP3 SWAP4 MLOAD SWAP4 PUSH3 0x461BCD PUSH1 0xE5 SHL DUP6 MSTORE DUP5 ADD MSTORE DUP3 ADD MSTORE PUSH32 0x44696D656E7369756E65206E65636F72657370756E7A61746F61726500000000 PUSH1 0x44 DUP3 ADD MSTORE REVERT JUMPDEST PUSH4 0x4E487B71 PUSH1 0xE0 SHL DUP10 MSTORE PUSH1 0x41 DUP5 MSTORE DUP3 DUP10 REVERT JUMPDEST DUP13 DUP5 MLOAD SWAP5 ADD SWAP4 DUP2 DUP5 ADD SSTORE ADD DUP7 SWAP1 PUSH2 0xA56 JUMP JUMPDEST PUSH4 0x4E487B71 PUSH1 0xE0 SHL DUP14 MSTORE PUSH1 0x41 DUP9 MSTORE DUP7 DUP14 REVERT JUMPDEST DUP5 MLOAD SWAP5 ADD SWAP4 DUP2 DUP5 ADD SSTORE ADD DUP10 SWAP1 DUP16 PUSH2 0xA1F JUMP JUMPDEST PUSH4 0x4E487B71 PUSH1 0xE0 SHL DUP16 MSTORE PUSH1 0x41 DUP11 MSTORE DUP9 DUP16 REVERT JUMPDEST DUP3 CALLDATALOAD DUP2 MSTORE SWAP2 DUP2 ADD SWAP2 DUP13 SWAP2 ADD PUSH2 0x9D4 JUMP JUMPDEST DUP14 DUP1 REVERT JUMPDEST DUP3 CALLDATALOAD DUP2 MSTORE SWAP2 DUP2 ADD SWAP2 DUP14 SWAP2 ADD PUSH2 0x992 JUMP JUMPDEST DUP15 DUP1 REVERT JUMPDEST PUSH1 0x1 SWAP5 SWAP2 SWAP3 DUP12 PUSH1 0x1 DUP4 ADD DUP1 SLOAD DUP3 SLT PUSH2 0xBFF JUMPI JUMPDEST POP POP POP POP POP POP POP POP PUSH2 0xAAF JUMP JUMPDEST SSTORE DUP4 DUP10 GT PUSH2 0xB81 JUMPI PUSH2 0xC11 DUP10 DUP4 PUSH2 0xFAF JUMP JUMPDEST SWAP1 DUP13 MSTORE DUP10 DUP13 KECCAK256 SWAP1 DUP6 DUP14 JUMPDEST DUP11 DUP2 LT PUSH2 0xC7D JUMPI POP POP POP POP CALLER DUP12 MSTORE DUP11 DUP10 MSTORE PUSH1 0x2 DUP9 DUP13 KECCAK256 ADD SWAP2 DUP4 GT PUSH2 0xC6B JUMPI PUSH2 0xC43 DUP4 DUP4 PUSH2 0xFAF JUMP JUMPDEST SWAP1 DUP11 MSTORE DUP8 DUP11 KECCAK256 DUP11 JUMPDEST DUP4 DUP2 LT PUSH2 0xC5A JUMPI DUP1 DUP12 DUP2 PUSH2 0xBF2 JUMP JUMPDEST DUP3 CALLDATALOAD DUP3 DUP3 ADD SSTORE SWAP2 DUP10 ADD SWAP2 DUP5 ADD PUSH2 0xC4B JUMP JUMPDEST PUSH4 0x4E487B71 PUSH1 0xE0 SHL DUP12 MSTORE PUSH1 0x41 DUP7 MSTORE DUP5 DUP12 REVERT JUMPDEST DUP13 DUP4 CALLDATALOAD SWAP4 ADD SWAP3 DUP2 DUP6 ADD SSTORE ADD DUP7 SWAP1 PUSH2 0xC1B JUMP JUMPDEST DUP5 DUP1 REVERT JUMPDEST POP POP CALLVALUE PUSH2 0x108 JUMPI DUP2 PUSH1 0x3 NOT CALLDATASIZE ADD SLT PUSH2 0x108 JUMPI DUP1 MLOAD PUSH1 0x1 DUP1 SLOAD DUP1 DUP4 MSTORE DUP2 DUP6 MSTORE PUSH1 0x20 DUP1 DUP5 ADD SWAP6 SWAP3 SWAP4 SWAP2 DUP7 SWAP1 PUSH32 0xB10E2D527612073B26EECDFD717E6A320CF44B4AFAC2B0732D9FCBE2B7FA0CF6 SWAP1 DUP6 JUMPDEST DUP2 DUP2 LT PUSH2 0xD32 JUMPI POP POP POP DUP3 PUSH2 0xCF6 SWAP2 SUB DUP4 PUSH2 0xF2D JUMP JUMPDEST DUP5 MLOAD SWAP5 DUP2 DUP7 ADD SWAP3 DUP3 DUP8 MSTORE MLOAD DUP1 SWAP4 MSTORE DUP6 ADD SWAP6 SWAP3 JUMPDEST DUP3 DUP2 LT PUSH2 0xD16 JUMPI DUP6 DUP8 SUB DUP7 RETURN JUMPDEST DUP4 MLOAD PUSH1 0x1 PUSH1 0x1 PUSH1 0xA0 SHL SUB AND DUP8 MSTORE SWAP6 DUP2 ADD SWAP6 SWAP3 DUP2 ADD SWAP3 DUP5 ADD PUSH2 0xD09 JUMP JUMPDEST DUP3 SLOAD PUSH1 0x1 PUSH1 0x1 PUSH1 0xA0 SHL SUB AND DUP5 MSTORE SWAP3 DUP5 ADD SWAP3 SWAP2 DUP8 ADD SWAP2 DUP8 ADD PUSH2 0xCE0 JUMP JUMPDEST DUP4 DUP4 CALLVALUE PUSH2 0x108 JUMPI DUP2 PUSH1 0x3 NOT CALLDATASIZE ADD SLT PUSH2 0x108 JUMPI PUSH1 0x3 SLOAD PUSH2 0xD6C DUP2 PUSH2 0xF7D JUMP JUMPDEST SWAP3 DUP1 JUMPDEST DUP3 DUP2 LT PUSH2 0xD8B JUMPI DUP4 MLOAD PUSH1 0x20 DUP1 DUP3 MSTORE DUP2 SWAP1 PUSH2 0x73D SWAP1 DUP3 ADD DUP9 PUSH2 0xEC3 JUMP JUMPDEST DUP1 DUP3 MSTORE PUSH1 0x20 PUSH1 0x2 DUP2 MSTORE DUP5 DUP4 KECCAK256 SLOAD SWAP1 DUP7 MLOAD DUP4 LT ISZERO PUSH2 0xDB3 JUMPI PUSH1 0x5 DUP4 SWAP1 SHL DUP8 ADD ADD MSTORE PUSH1 0x1 ADD PUSH2 0xD6F JUMP JUMPDEST PUSH4 0x4E487B71 PUSH1 0xE0 SHL DUP5 MSTORE PUSH1 0x32 DUP9 MSTORE PUSH1 0x24 DUP5 REVERT JUMPDEST SWAP1 POP CALLVALUE PUSH2 0x6D6 JUMPI DUP3 PUSH1 0x3 NOT CALLDATASIZE ADD SLT PUSH2 0x6D6 JUMPI PUSH1 0x20 SWAP3 POP SLOAD SWAP1 MLOAD SWAP1 DUP2 MSTORE RETURN JUMPDEST SWAP1 POP CALLVALUE PUSH2 0x6D6 JUMPI PUSH1 0x20 CALLDATASIZE PUSH1 0x3 NOT ADD SLT PUSH2 0x6D6 JUMPI CALLDATALOAD SWAP2 PUSH1 0x5 SLOAD DUP4 LT ISZERO PUSH2 0x6D3 JUMPI POP PUSH2 0xE0F PUSH1 0x20 SWAP3 PUSH2 0xE39 JUMP JUMPDEST SWAP2 SWAP1 SLOAD SWAP1 MLOAD SWAP2 PUSH1 0x3 SHL SHR DUP2 MSTORE RETURN JUMPDEST DUP5 SWAP1 CALLVALUE PUSH2 0x108 JUMPI DUP2 PUSH1 0x3 NOT CALLDATASIZE ADD SLT PUSH2 0x108 JUMPI PUSH1 0x20 SWAP1 PUSH1 0x6 SLOAD DUP2 MSTORE RETURN JUMPDEST PUSH1 0x5 SLOAD DUP2 LT ISZERO PUSH2 0xE5E JUMPI PUSH1 0x5 PUSH1 0x0 MSTORE PUSH1 0x0 DUP1 MLOAD PUSH1 0x20 PUSH2 0x1027 DUP4 CODECOPY DUP2 MLOAD SWAP2 MSTORE ADD SWAP1 PUSH1 0x0 SWAP1 JUMP JUMPDEST PUSH4 0x4E487B71 PUSH1 0xE0 SHL PUSH1 0x0 MSTORE PUSH1 0x32 PUSH1 0x4 MSTORE PUSH1 0x24 PUSH1 0x0 REVERT JUMPDEST PUSH1 0x1 SLOAD DUP2 LT ISZERO PUSH2 0xE5E JUMPI PUSH1 0x1 PUSH1 0x0 MSTORE PUSH32 0xB10E2D527612073B26EECDFD717E6A320CF44B4AFAC2B0732D9FCBE2B7FA0CF6 ADD SWAP1 PUSH1 0x0 SWAP1 JUMP JUMPDEST DUP1 SLOAD DUP3 LT ISZERO PUSH2 0xE5E JUMPI PUSH1 0x0 MSTORE PUSH1 0x20 PUSH1 0x0 KECCAK256 ADD SWAP1 PUSH1 0x0 SWAP1 JUMP JUMPDEST SWAP1 DUP2 MLOAD DUP1 DUP3 MSTORE PUSH1 0x20 DUP1 DUP1 SWAP4 ADD SWAP4 ADD SWAP2 PUSH1 0x0 JUMPDEST DUP3 DUP2 LT PUSH2 0xEE3 JUMPI POP POP POP POP SWAP1 JUMP JUMPDEST DUP4 MLOAD DUP6 MSTORE SWAP4 DUP2 ADD SWAP4 SWAP3 DUP2 ADD SWAP3 PUSH1 0x1 ADD PUSH2 0xED5 JUMP JUMPDEST SWAP2 DUP2 PUSH1 0x1F DUP5 ADD SLT ISZERO PUSH2 0xF28 JUMPI DUP3 CALLDATALOAD SWAP2 PUSH8 0xFFFFFFFFFFFFFFFF DUP4 GT PUSH2 0xF28 JUMPI PUSH1 0x20 DUP1 DUP6 ADD SWAP5 DUP5 PUSH1 0x5 SHL ADD ADD GT PUSH2 0xF28 JUMPI JUMP JUMPDEST PUSH1 0x0 DUP1 REVERT JUMPDEST SWAP1 PUSH1 0x1F DUP1 NOT SWAP2 ADD AND DUP2 ADD SWAP1 DUP2 LT PUSH8 0xFFFFFFFFFFFFFFFF DUP3 GT OR PUSH2 0xF4F JUMPI PUSH1 0x40 MSTORE JUMP JUMPDEST PUSH4 0x4E487B71 PUSH1 0xE0 SHL PUSH1 0x0 MSTORE PUSH1 0x41 PUSH1 0x4 MSTORE PUSH1 0x24 PUSH1 0x0 REVERT JUMPDEST PUSH8 0xFFFFFFFFFFFFFFFF DUP2 GT PUSH2 0xF4F JUMPI PUSH1 0x5 SHL PUSH1 0x20 ADD SWAP1 JUMP JUMPDEST SWAP1 PUSH2 0xF87 DUP3 PUSH2 0xF65 JUMP JUMPDEST PUSH2 0xF94 PUSH1 0x40 MLOAD SWAP2 DUP3 PUSH2 0xF2D JUMP JUMPDEST DUP3 DUP2 MSTORE DUP1 SWAP3 PUSH2 0xFA5 PUSH1 0x1F NOT SWAP2 PUSH2 0xF65 JUMP JUMPDEST ADD SWAP1 PUSH1 0x20 CALLDATASIZE SWAP2 ADD CALLDATACOPY JUMP JUMPDEST PUSH1 0x1 PUSH1 0x40 SHL DUP3 GT PUSH2 0xF4F JUMPI DUP1 SLOAD SWAP2 DUP1 DUP3 SSTORE DUP3 DUP2 LT PUSH2 0xFCC JUMPI POP POP POP JUMP JUMPDEST PUSH1 0x0 SWAP2 PUSH1 0x0 MSTORE PUSH1 0x20 PUSH1 0x0 KECCAK256 SWAP3 DUP4 ADD SWAP3 ADD JUMPDEST DUP3 DUP2 LT PUSH2 0xFE9 JUMPI POP POP POP JUMP JUMPDEST DUP2 DUP2 SSTORE PUSH1 0x1 ADD PUSH2 0xFDD JUMP JUMPDEST SWAP2 SWAP1 SWAP2 PUSH1 0x0 DUP4 DUP3 ADD SWAP4 DUP5 SLT SWAP2 SLT SWAP1 DUP1 ISZERO DUP3 AND SWAP2 ISZERO AND OR PUSH2 0x1010 JUMPI JUMP JUMPDEST PUSH4 0x4E487B71 PUSH1 0xE0 SHL PUSH1 0x0 MSTORE PUSH1 0x11 PUSH1 0x4 MSTORE PUSH1 0x24 PUSH1 0x0 REVERT INVALID SUB PUSH12 0x6384B5ECA791C62761152D0C PUSH26 0xBB0604C104A5FB6F4EB0703F3154BB3DB0A26469706673582212 KECCAK256 0xBE 0xA5 0xE1 0x29 PUSH0 0xAA RETURNDATACOPY 0xBF 0xA8 0xA9 DUP7 0x28 0x4D PUSH14 0x96E981414ACD35ADDD3813D7F2F5 0xC6 SWAP1 SWAP1 0xB9 PUSH5 0x736F6C6343 STOP ADDMOD OR STOP CALLER "},"methodIdentifiers":{"bestGlobalCost()":"160b0cad","bestGlobalPlan(uint256)":"0c27abc8","computeGlobalOptimalPlan()":"ed3bf9c4","finalizePlan()":"a00239d6","finalized()":"b3f05b97","frozenGlobalCost()":"0bfa7ec9","getBestGlobalPlan()":"b6042cf9","getBestPosition(address)":"af602b43","getGlobalOptimalPlanArray()":"1e385f69","getGlobalOptimalPlanHour(uint256)":"efe5c98d","getLastUpdatedTimestamp()":"a626d2c0","getNodeAddresses()":"2e949824","globalOptimalPlan(uint256)":"7f042dc0","lastUpdatedTimestamp()":"fbaf894c","nodeAddresses(uint256)":"c4d77090","nodeResults(address)":"7207c556","numHours()":"94f6cd8d","updateNodeResult(int256[],int256,uint256[])":"2fc0395f"}}}}}