{"contracts/Node.sol":{"Node":{"abi":[{"inputs":[{"internalType":"address","name":"globalContractAddress","type":"address"},{"internalType":"uint256[]","name":"initialPosition","type":"uint256[]"},{"internalType":"uint256[]","name":"initialVelocity","type":"uint256[]"}],"stateMutability":"nonpayable","type":"constructor"},{"inputs":[],"name":"c1","outputs":[{"internalType":"uint256","name":"","type":"uint256"}],"stateMutability":"view","type":"function"},{"inputs":[],"name":"c2","outputs":[{"internalType":"uint256","name":"","type":"uint256"}],"stateMutability":"view","type":"function"},{"inputs":[],"name":"globalContract","outputs":[{"internalType":"contract GlobalContractInterface","name":"","type":"address"}],"stateMutability":"view","type":"function"},{"inputs":[{"internalType":"uint256[]","name":"pos","type":"uint256[]"}],"name":"objectiveFunction","outputs":[{"internalType":"uint256","name":"","type":"uint256"}],"stateMutability":"pure","type":"function"},{"inputs":[{"internalType":"uint256","name":"","type":"uint256"}],"name":"personalBestPosition","outputs":[{"internalType":"uint256","name":"","type":"uint256"}],"stateMutability":"view","type":"function"},{"inputs":[],"name":"personalBestScore","outputs":[{"internalType":"uint256","name":"","type":"uint256"}],"stateMutability":"view","type":"function"},{"inputs":[{"internalType":"uint256","name":"","type":"uint256"}],"name":"position","outputs":[{"internalType":"uint256","name":"","type":"uint256"}],"stateMutability":"view","type":"function"},{"inputs":[],"name":"updateBestPositions","outputs":[],"stateMutability":"nonpayable","type":"function"},{"inputs":[],"name":"updateVelocityAndPosition","outputs":[],"stateMutability":"nonpayable","type":"function"},{"inputs":[{"internalType":"uint256","name":"","type":"uint256"}],"name":"velocity","outputs":[{"internalType":"uint256","name":"","type":"uint256"}],"stateMutability":"view","type":"function"},{"inputs":[],"name":"w","outputs":[{"internalType":"uint256","name":"","type":"uint256"}],"stateMutability":"view","type":"function"}],"evm":{"bytecode":{"linkReferences":{},"object":"608060405234620002935762000d48803803806200001d8162000298565b928339810190606081830312620002935780516001600160a01b038116929083900362000293576020828101516001600160401b0393908481116200029357836200006a918301620002d4565b9260408201518581116200029357620000849201620002d4565b6000196003556032600490815560966005819055600655600780546001600160a01b031916909617909555825190948482116200027e57680100000000000000008083116200026957600094855484875580851062000241575b508481019384878052868820885b8381106200022e575050505087518781116200021b578281116200021b57856001998a54838c55808410620001ee575b50018988528688208a895b848110620001db57505050505051958611620001c8578511620001b55750600254846002558085106200018a575b509160028152818120905b8481106200017857604051610a0a90816200033e8239f35b83518282015592820192850162000160565b60028452858584862092830192015b828110620001a957505062000155565b85815501869062000199565b634e487b7160e01b845260419052602483fd5b634e487b7160e01b855260418252602485fd5b89845194019381840155018b9062000127565b8b8a528b84848c2092830192015b8281106200020c5750506200011c565b8b81558a94508d9101620001fc565b634e487b7160e01b875260418452602487fd5b82518282015591880191600101620000ec565b8680528486882091820191015b8181106200025d5750620000de565b8781556001016200024e565b604182634e487b7160e01b6000525260246000fd5b604190634e487b7160e01b6000525260246000fd5b600080fd5b6040519190601f01601f191682016001600160401b03811183821017620002be57604052565b634e487b7160e01b600052604160045260246000fd5b81601f8201121562000293578051916020916001600160401b038411620002be578360051b9083806200030981850162000298565b80978152019282010192831162000293578301905b8282106200032d575050505090565b815181529083019083016200031e56fe6080604081815260048036101561001557600080fd5b600092833560e01c908163205c9cc7146106d35750806348e257cb146106b45780634d985ae4146106955780635f57697c146106765780636f2407741461064c57806390ccfa0f14610623578063973b9cc11461039b578063a86853d514610371578063f0374885146102da578063f6451c0a146100d95763f7a95a9e1461009c57600080fd5b346100d55760203660031901126100d557359180548310156100d257506100c4602092610773565b91905490519160031b1c8152f35b80fd5b8280fd5b5091346100d257806003193601126100d2576007548251632ba8f1b360e01b8152939082908590839082906001600160a01b03165afa9384156102d05782946102ac575b50815b82548110156102a8578351602090818101904282528387820152868152610146816107ab565b6064918291519020069160018401908185116102955790829188519081019142835289820152888152610178816107ab565b51902006818554938161018a876106ef565b969054600397881b1c61019c91610817565b91600554906101aa91610817565b6101b38861073c565b905490881b1c6101c289610773565b905490891b1c6101d1916109a7565b6101da91610817565b046101e49161095f565b91600654906101f291610817565b6101fc868b6108bf565b5161020687610773565b905490871b1c610215916109a7565b61021e91610817565b046102289161095f565b04610232836106ef565b61024d929082549060031b91821b91600019901b1916179055565b610256826106ef565b905490821b1c61026583610773565b919092828454911b1c906102789161095f565b825460001960039390931b92831b1916911b179055600101610120565b634e487b7160e01b875260118652602487fd5b8280f35b6102c99194503d8084833e6102c181836107dd565b810190610840565b923861011d565b83513d84823e3d90fd5b5091346100d25760209060206003193601126100d25783359367ffffffffffffffff851161036d573660238601121561036d57840135610319816107ff565b94610326855196876107dd565b8186526024602087019260051b820101923684116100d25750602401905b82821061035e576020856103578861096c565b9051908152f35b81358152908301908301610344565b5080fd5b50346100d55760203660031901126100d55735916002548310156100d257506100c460209261073c565b5090346100d557826003193601126100d5578051918284549384825260208092018680526000805160206109b5833981519152875b8488821061060f57505050906103eb816103f09303826107dd565b61096c565b93600354851061052b575b506007548351632ba8f1b360e01b81526001600160a01b03909116919086818581865afa9081156105215790610438918891610507575b5061096c565b8510610442578580f35b813b1561050357938591845195869263a5cdc59b60e01b845260448401918787860152855480935260648501928680526000805160206109b58339815191529187905b8282106104e557505050508380928692602483015203925af180156104db576104af575b80808580f35b67ffffffffffffffff83116104c85750523880806104a9565b634e487b7160e01b845260419052602483fd5b82513d86823e3d90fd5b835486528c98508b9750948501946001938401939190910190610485565b8580fd5b61051b91503d808a833e6102c181836107dd565b38610432565b85513d89823e3d90fd5b8460035567ffffffffffffffff81116105fc576801000000000000000081116105fc57600254816002558082106105bc575b506000805160206109b58339815191526002875280549087915b838310610586575050506103fb565b60018091920192835492817f405787fa12a823e0f2b7631cc41b3ba8828b3321ca811111fa75cd3aa3bb5ace0155019190610577565b817f405787fa12a823e0f2b7631cc41b3ba8828b3321ca811111fa75cd3aa3bb5ace91820191015b8181106105f1575061055d565b8781556001016105e4565b634e487b7160e01b865260418352602486fd5b8254845290920191600191820191016103d0565b50503461036d578160031936011261036d5760075490516001600160a01b039091168152602090f35b50346100d55760203660031901126100d55735916001548310156100d257506100c46020926106ef565b50503461036d578160031936011261036d576020906005549051908152f35b50503461036d578160031936011261036d576020906003549051908152f35b50503461036d578160031936011261036d576020906006549051908152f35b925050346100d557826003193601126100d55760209250548152f35b6001548110156107265760016000527fb10e2d527612073b26eecdfd717e6a320cf44b4afac2b0732d9fcbe2b7fa0cf60190600090565b634e487b7160e01b600052603260045260246000fd5b6002548110156107265760026000527f405787fa12a823e0f2b7631cc41b3ba8828b3321ca811111fa75cd3aa3bb5ace0190600090565b906000918254811015610797578280526000805160206109b5833981519152019190565b634e487b7160e01b83526032600452602483fd5b6060810190811067ffffffffffffffff8211176107c757604052565b634e487b7160e01b600052604160045260246000fd5b90601f8019910116810190811067ffffffffffffffff8211176107c757604052565b67ffffffffffffffff81116107c75760051b60200190565b8181029291811591840414171561082a57565b634e487b7160e01b600052601160045260246000fd5b60209081818403126108ba5780519067ffffffffffffffff82116108ba57019180601f840112156108ba578251610876816107ff565b9361088460405195866107dd565b818552838086019260051b8201019283116108ba578301905b8282106108ab575050505090565b8151815290830190830161089d565b600080fd5b80518210156107265760209160051b010190565b80156109595780806001146109525760021461094c576001908161013382101682600b8310161761094457906002815b80821161091b5750508160001904811161082a570290565b90928060001904811161082a5781841661093b575b800292811c90610903565b80920291610930565b600291500a90565b50600490565b5050600190565b50600090565b9190820180921161082a57565b600090815b81518310156109a15761099960019161099361098d86866108bf565b516108d3565b9061095f565b920191610971565b91505090565b9190820391821161082a5756fe290decd9548b62a8d60345a988386fc84ba6bc95484008f6362f93160ef3e563a264697066735822122022b51c13f46e62d56c72be7bf250376966f62ead01ec2d6208b1578d5d3baec364736f6c63430008170033","opcodes":"PUSH1 0x80 PUSH1 0x40 MSTORE CALLVALUE PUSH3 0x293 JUMPI PUSH3 0xD48 DUP1 CODESIZE SUB DUP1 PUSH3 0x1D DUP2 PUSH3 0x298 JUMP JUMPDEST SWAP3 DUP4 CODECOPY DUP2 ADD SWAP1 PUSH1 0x60 DUP2 DUP4 SUB SLT PUSH3 0x293 JUMPI DUP1 MLOAD PUSH1 0x1 PUSH1 0x1 PUSH1 0xA0 SHL SUB DUP2 AND SWAP3 SWAP1 DUP4 SWAP1 SUB PUSH3 0x293 JUMPI PUSH1 0x20 DUP3 DUP2 ADD MLOAD PUSH1 0x1 PUSH1 0x1 PUSH1 0x40 SHL SUB SWAP4 SWAP1 DUP5 DUP2 GT PUSH3 0x293 JUMPI DUP4 PUSH3 0x6A SWAP2 DUP4 ADD PUSH3 0x2D4 JUMP JUMPDEST SWAP3 PUSH1 0x40 DUP3 ADD MLOAD DUP6 DUP2 GT PUSH3 0x293 JUMPI PUSH3 0x84 SWAP3 ADD PUSH3 0x2D4 JUMP JUMPDEST PUSH1 0x0 NOT PUSH1 0x3 SSTORE PUSH1 0x32 PUSH1 0x4 SWAP1 DUP2 SSTORE PUSH1 0x96 PUSH1 0x5 DUP2 SWAP1 SSTORE PUSH1 0x6 SSTORE PUSH1 0x7 DUP1 SLOAD PUSH1 0x1 PUSH1 0x1 PUSH1 0xA0 SHL SUB NOT AND SWAP1 SWAP7 OR SWAP1 SWAP6 SSTORE DUP3 MLOAD SWAP1 SWAP5 DUP5 DUP3 GT PUSH3 0x27E JUMPI PUSH9 0x10000000000000000 DUP1 DUP4 GT PUSH3 0x269 JUMPI PUSH1 0x0 SWAP5 DUP6 SLOAD DUP5 DUP8 SSTORE DUP1 DUP6 LT PUSH3 0x241 JUMPI JUMPDEST POP DUP5 DUP2 ADD SWAP4 DUP5 DUP8 DUP1 MSTORE DUP7 DUP9 KECCAK256 DUP9 JUMPDEST DUP4 DUP2 LT PUSH3 0x22E JUMPI POP POP POP POP DUP8 MLOAD DUP8 DUP2 GT PUSH3 0x21B JUMPI DUP3 DUP2 GT PUSH3 0x21B JUMPI DUP6 PUSH1 0x1 SWAP10 DUP11 SLOAD DUP4 DUP13 SSTORE DUP1 DUP5 LT PUSH3 0x1EE JUMPI JUMPDEST POP ADD DUP10 DUP9 MSTORE DUP7 DUP9 KECCAK256 DUP11 DUP10 JUMPDEST DUP5 DUP2 LT PUSH3 0x1DB JUMPI POP POP POP POP POP MLOAD SWAP6 DUP7 GT PUSH3 0x1C8 JUMPI DUP6 GT PUSH3 0x1B5 JUMPI POP PUSH1 0x2 SLOAD DUP5 PUSH1 0x2 SSTORE DUP1 DUP6 LT PUSH3 0x18A JUMPI JUMPDEST POP SWAP2 PUSH1 0x2 DUP2 MSTORE DUP2 DUP2 KECCAK256 SWAP1 JUMPDEST DUP5 DUP2 LT PUSH3 0x178 JUMPI PUSH1 0x40 MLOAD PUSH2 0xA0A SWAP1 DUP2 PUSH3 0x33E DUP3 CODECOPY RETURN JUMPDEST DUP4 MLOAD DUP3 DUP3 ADD SSTORE SWAP3 DUP3 ADD SWAP3 DUP6 ADD PUSH3 0x160 JUMP JUMPDEST PUSH1 0x2 DUP5 MSTORE DUP6 DUP6 DUP5 DUP7 KECCAK256 SWAP3 DUP4 ADD SWAP3 ADD JUMPDEST DUP3 DUP2 LT PUSH3 0x1A9 JUMPI POP POP PUSH3 0x155 JUMP JUMPDEST DUP6 DUP2 SSTORE ADD DUP7 SWAP1 PUSH3 0x199 JUMP JUMPDEST PUSH4 0x4E487B71 PUSH1 0xE0 SHL DUP5 MSTORE PUSH1 0x41 SWAP1 MSTORE PUSH1 0x24 DUP4 REVERT JUMPDEST PUSH4 0x4E487B71 PUSH1 0xE0 SHL DUP6 MSTORE PUSH1 0x41 DUP3 MSTORE PUSH1 0x24 DUP6 REVERT JUMPDEST DUP10 DUP5 MLOAD SWAP5 ADD SWAP4 DUP2 DUP5 ADD SSTORE ADD DUP12 SWAP1 PUSH3 0x127 JUMP JUMPDEST DUP12 DUP11 MSTORE DUP12 DUP5 DUP5 DUP13 KECCAK256 SWAP3 DUP4 ADD SWAP3 ADD JUMPDEST DUP3 DUP2 LT PUSH3 0x20C JUMPI POP POP PUSH3 0x11C JUMP JUMPDEST DUP12 DUP2 SSTORE DUP11 SWAP5 POP DUP14 SWAP2 ADD PUSH3 0x1FC JUMP JUMPDEST PUSH4 0x4E487B71 PUSH1 0xE0 SHL DUP8 MSTORE PUSH1 0x41 DUP5 MSTORE PUSH1 0x24 DUP8 REVERT JUMPDEST DUP3 MLOAD DUP3 DUP3 ADD SSTORE SWAP2 DUP9 ADD SWAP2 PUSH1 0x1 ADD PUSH3 0xEC JUMP JUMPDEST DUP7 DUP1 MSTORE DUP5 DUP7 DUP9 KECCAK256 SWAP2 DUP3 ADD SWAP2 ADD JUMPDEST DUP2 DUP2 LT PUSH3 0x25D JUMPI POP PUSH3 0xDE JUMP JUMPDEST DUP8 DUP2 SSTORE PUSH1 0x1 ADD PUSH3 0x24E JUMP JUMPDEST PUSH1 0x41 DUP3 PUSH4 0x4E487B71 PUSH1 0xE0 SHL PUSH1 0x0 MSTORE MSTORE PUSH1 0x24 PUSH1 0x0 REVERT JUMPDEST PUSH1 0x41 SWAP1 PUSH4 0x4E487B71 PUSH1 0xE0 SHL PUSH1 0x0 MSTORE MSTORE PUSH1 0x24 PUSH1 0x0 REVERT JUMPDEST PUSH1 0x0 DUP1 REVERT JUMPDEST PUSH1 0x40 MLOAD SWAP2 SWAP1 PUSH1 0x1F ADD PUSH1 0x1F NOT AND DUP3 ADD PUSH1 0x1 PUSH1 0x1 PUSH1 0x40 SHL SUB DUP2 GT DUP4 DUP3 LT OR PUSH3 0x2BE JUMPI PUSH1 0x40 MSTORE JUMP JUMPDEST PUSH4 0x4E487B71 PUSH1 0xE0 SHL PUSH1 0x0 MSTORE PUSH1 0x41 PUSH1 0x4 MSTORE PUSH1 0x24 PUSH1 0x0 REVERT JUMPDEST DUP2 PUSH1 0x1F DUP3 ADD SLT ISZERO PUSH3 0x293 JUMPI DUP1 MLOAD SWAP2 PUSH1 0x20 SWAP2 PUSH1 0x1 PUSH1 0x1 PUSH1 0x40 SHL SUB DUP5 GT PUSH3 0x2BE JUMPI DUP4 PUSH1 0x5 SHL SWAP1 DUP4 DUP1 PUSH3 0x309 DUP2 DUP6 ADD PUSH3 0x298 JUMP JUMPDEST DUP1 SWAP8 DUP2 MSTORE ADD SWAP3 DUP3 ADD ADD SWAP3 DUP4 GT PUSH3 0x293 JUMPI DUP4 ADD SWAP1 JUMPDEST DUP3 DUP3 LT PUSH3 0x32D JUMPI POP POP POP POP SWAP1 JUMP JUMPDEST DUP2 MLOAD DUP2 MSTORE SWAP1 DUP4 ADD SWAP1 DUP4 ADD PUSH3 0x31E JUMP INVALID PUSH1 0x80 PUSH1 0x40 DUP2 DUP2 MSTORE PUSH1 0x4 DUP1 CALLDATASIZE LT ISZERO PUSH2 0x15 JUMPI PUSH1 0x0 DUP1 REVERT JUMPDEST PUSH1 0x0 SWAP3 DUP4 CALLDATALOAD PUSH1 0xE0 SHR SWAP1 DUP2 PUSH4 0x205C9CC7 EQ PUSH2 0x6D3 JUMPI POP DUP1 PUSH4 0x48E257CB EQ PUSH2 0x6B4 JUMPI DUP1 PUSH4 0x4D985AE4 EQ PUSH2 0x695 JUMPI DUP1 PUSH4 0x5F57697C EQ PUSH2 0x676 JUMPI DUP1 PUSH4 0x6F240774 EQ PUSH2 0x64C JUMPI DUP1 PUSH4 0x90CCFA0F EQ PUSH2 0x623 JUMPI DUP1 PUSH4 0x973B9CC1 EQ PUSH2 0x39B JUMPI DUP1 PUSH4 0xA86853D5 EQ PUSH2 0x371 JUMPI DUP1 PUSH4 0xF0374885 EQ PUSH2 0x2DA JUMPI DUP1 PUSH4 0xF6451C0A EQ PUSH2 0xD9 JUMPI PUSH4 0xF7A95A9E EQ PUSH2 0x9C JUMPI PUSH1 0x0 DUP1 REVERT JUMPDEST CALLVALUE PUSH2 0xD5 JUMPI PUSH1 0x20 CALLDATASIZE PUSH1 0x3 NOT ADD SLT PUSH2 0xD5 JUMPI CALLDATALOAD SWAP2 DUP1 SLOAD DUP4 LT ISZERO PUSH2 0xD2 JUMPI POP PUSH2 0xC4 PUSH1 0x20 SWAP3 PUSH2 0x773 JUMP JUMPDEST SWAP2 SWAP1 SLOAD SWAP1 MLOAD SWAP2 PUSH1 0x3 SHL SHR DUP2 MSTORE RETURN JUMPDEST DUP1 REVERT JUMPDEST DUP3 DUP1 REVERT JUMPDEST POP SWAP2 CALLVALUE PUSH2 0xD2 JUMPI DUP1 PUSH1 0x3 NOT CALLDATASIZE ADD SLT PUSH2 0xD2 JUMPI PUSH1 0x7 SLOAD DUP3 MLOAD PUSH4 0x2BA8F1B3 PUSH1 0xE0 SHL DUP2 MSTORE SWAP4 SWAP1 DUP3 SWAP1 DUP6 SWAP1 DUP4 SWAP1 DUP3 SWAP1 PUSH1 0x1 PUSH1 0x1 PUSH1 0xA0 SHL SUB AND GAS STATICCALL SWAP4 DUP5 ISZERO PUSH2 0x2D0 JUMPI DUP3 SWAP5 PUSH2 0x2AC JUMPI JUMPDEST POP DUP2 JUMPDEST DUP3 SLOAD DUP2 LT ISZERO PUSH2 0x2A8 JUMPI DUP4 MLOAD PUSH1 0x20 SWAP1 DUP2 DUP2 ADD SWAP1 TIMESTAMP DUP3 MSTORE DUP4 DUP8 DUP3 ADD MSTORE DUP7 DUP2 MSTORE PUSH2 0x146 DUP2 PUSH2 0x7AB JUMP JUMPDEST PUSH1 0x64 SWAP2 DUP3 SWAP2 MLOAD SWAP1 KECCAK256 MOD SWAP2 PUSH1 0x1 DUP5 ADD SWAP1 DUP2 DUP6 GT PUSH2 0x295 JUMPI SWAP1 DUP3 SWAP2 DUP9 MLOAD SWAP1 DUP2 ADD SWAP2 TIMESTAMP DUP4 MSTORE DUP10 DUP3 ADD MSTORE DUP9 DUP2 MSTORE PUSH2 0x178 DUP2 PUSH2 0x7AB JUMP JUMPDEST MLOAD SWAP1 KECCAK256 MOD DUP2 DUP6 SLOAD SWAP4 DUP2 PUSH2 0x18A DUP8 PUSH2 0x6EF JUMP JUMPDEST SWAP7 SWAP1 SLOAD PUSH1 0x3 SWAP8 DUP9 SHL SHR PUSH2 0x19C SWAP2 PUSH2 0x817 JUMP JUMPDEST SWAP2 PUSH1 0x5 SLOAD SWAP1 PUSH2 0x1AA SWAP2 PUSH2 0x817 JUMP JUMPDEST PUSH2 0x1B3 DUP9 PUSH2 0x73C JUMP JUMPDEST SWAP1 SLOAD SWAP1 DUP9 SHL SHR PUSH2 0x1C2 DUP10 PUSH2 0x773 JUMP JUMPDEST SWAP1 SLOAD SWAP1 DUP10 SHL SHR PUSH2 0x1D1 SWAP2 PUSH2 0x9A7 JUMP JUMPDEST PUSH2 0x1DA SWAP2 PUSH2 0x817 JUMP JUMPDEST DIV PUSH2 0x1E4 SWAP2 PUSH2 0x95F JUMP JUMPDEST SWAP2 PUSH1 0x6 SLOAD SWAP1 PUSH2 0x1F2 SWAP2 PUSH2 0x817 JUMP JUMPDEST PUSH2 0x1FC DUP7 DUP12 PUSH2 0x8BF JUMP JUMPDEST MLOAD PUSH2 0x206 DUP8 PUSH2 0x773 JUMP JUMPDEST SWAP1 SLOAD SWAP1 DUP8 SHL SHR PUSH2 0x215 SWAP2 PUSH2 0x9A7 JUMP JUMPDEST PUSH2 0x21E SWAP2 PUSH2 0x817 JUMP JUMPDEST DIV PUSH2 0x228 SWAP2 PUSH2 0x95F JUMP JUMPDEST DIV PUSH2 0x232 DUP4 PUSH2 0x6EF JUMP JUMPDEST PUSH2 0x24D SWAP3 SWAP1 DUP3 SLOAD SWAP1 PUSH1 0x3 SHL SWAP2 DUP3 SHL SWAP2 PUSH1 0x0 NOT SWAP1 SHL NOT AND OR SWAP1 SSTORE JUMP JUMPDEST PUSH2 0x256 DUP3 PUSH2 0x6EF JUMP JUMPDEST SWAP1 SLOAD SWAP1 DUP3 SHL SHR PUSH2 0x265 DUP4 PUSH2 0x773 JUMP JUMPDEST SWAP2 SWAP1 SWAP3 DUP3 DUP5 SLOAD SWAP2 SHL SHR SWAP1 PUSH2 0x278 SWAP2 PUSH2 0x95F JUMP JUMPDEST DUP3 SLOAD PUSH1 0x0 NOT PUSH1 0x3 SWAP4 SWAP1 SWAP4 SHL SWAP3 DUP4 SHL NOT AND SWAP2 SHL OR SWAP1 SSTORE PUSH1 0x1 ADD PUSH2 0x120 JUMP JUMPDEST PUSH4 0x4E487B71 PUSH1 0xE0 SHL DUP8 MSTORE PUSH1 0x11 DUP7 MSTORE PUSH1 0x24 DUP8 REVERT JUMPDEST DUP3 DUP1 RETURN JUMPDEST PUSH2 0x2C9 SWAP2 SWAP5 POP RETURNDATASIZE DUP1 DUP5 DUP4 RETURNDATACOPY PUSH2 0x2C1 DUP2 DUP4 PUSH2 0x7DD JUMP JUMPDEST DUP2 ADD SWAP1 PUSH2 0x840 JUMP JUMPDEST SWAP3 CODESIZE PUSH2 0x11D JUMP JUMPDEST DUP4 MLOAD RETURNDATASIZE DUP5 DUP3 RETURNDATACOPY RETURNDATASIZE SWAP1 REVERT JUMPDEST POP SWAP2 CALLVALUE PUSH2 0xD2 JUMPI PUSH1 0x20 SWAP1 PUSH1 0x20 PUSH1 0x3 NOT CALLDATASIZE ADD SLT PUSH2 0xD2 JUMPI DUP4 CALLDATALOAD SWAP4 PUSH8 0xFFFFFFFFFFFFFFFF DUP6 GT PUSH2 0x36D JUMPI CALLDATASIZE PUSH1 0x23 DUP7 ADD SLT ISZERO PUSH2 0x36D JUMPI DUP5 ADD CALLDATALOAD PUSH2 0x319 DUP2 PUSH2 0x7FF JUMP JUMPDEST SWAP5 PUSH2 0x326 DUP6 MLOAD SWAP7 DUP8 PUSH2 0x7DD JUMP JUMPDEST DUP2 DUP7 MSTORE PUSH1 0x24 PUSH1 0x20 DUP8 ADD SWAP3 PUSH1 0x5 SHL DUP3 ADD ADD SWAP3 CALLDATASIZE DUP5 GT PUSH2 0xD2 JUMPI POP PUSH1 0x24 ADD SWAP1 JUMPDEST DUP3 DUP3 LT PUSH2 0x35E JUMPI PUSH1 0x20 DUP6 PUSH2 0x357 DUP9 PUSH2 0x96C JUMP JUMPDEST SWAP1 MLOAD SWAP1 DUP2 MSTORE RETURN JUMPDEST DUP2 CALLDATALOAD DUP2 MSTORE SWAP1 DUP4 ADD SWAP1 DUP4 ADD PUSH2 0x344 JUMP JUMPDEST POP DUP1 REVERT JUMPDEST POP CALLVALUE PUSH2 0xD5 JUMPI PUSH1 0x20 CALLDATASIZE PUSH1 0x3 NOT ADD SLT PUSH2 0xD5 JUMPI CALLDATALOAD SWAP2 PUSH1 0x2 SLOAD DUP4 LT ISZERO PUSH2 0xD2 JUMPI POP PUSH2 0xC4 PUSH1 0x20 SWAP3 PUSH2 0x73C JUMP JUMPDEST POP SWAP1 CALLVALUE PUSH2 0xD5 JUMPI DUP3 PUSH1 0x3 NOT CALLDATASIZE ADD SLT PUSH2 0xD5 JUMPI DUP1 MLOAD SWAP2 DUP3 DUP5 SLOAD SWAP4 DUP5 DUP3 MSTORE PUSH1 0x20 DUP1 SWAP3 ADD DUP7 DUP1 MSTORE PUSH1 0x0 DUP1 MLOAD PUSH1 0x20 PUSH2 0x9B5 DUP4 CODECOPY DUP2 MLOAD SWAP2 MSTORE DUP8 JUMPDEST DUP5 DUP9 DUP3 LT PUSH2 0x60F JUMPI POP POP POP SWAP1 PUSH2 0x3EB DUP2 PUSH2 0x3F0 SWAP4 SUB DUP3 PUSH2 0x7DD JUMP JUMPDEST PUSH2 0x96C JUMP JUMPDEST SWAP4 PUSH1 0x3 SLOAD DUP6 LT PUSH2 0x52B JUMPI JUMPDEST POP PUSH1 0x7 SLOAD DUP4 MLOAD PUSH4 0x2BA8F1B3 PUSH1 0xE0 SHL DUP2 MSTORE PUSH1 0x1 PUSH1 0x1 PUSH1 0xA0 SHL SUB SWAP1 SWAP2 AND SWAP2 SWAP1 DUP7 DUP2 DUP6 DUP2 DUP7 GAS STATICCALL SWAP1 DUP2 ISZERO PUSH2 0x521 JUMPI SWAP1 PUSH2 0x438 SWAP2 DUP9 SWAP2 PUSH2 0x507 JUMPI JUMPDEST POP PUSH2 0x96C JUMP JUMPDEST DUP6 LT PUSH2 0x442 JUMPI DUP6 DUP1 RETURN JUMPDEST DUP2 EXTCODESIZE ISZERO PUSH2 0x503 JUMPI SWAP4 DUP6 SWAP2 DUP5 MLOAD SWAP6 DUP7 SWAP3 PUSH4 0xA5CDC59B PUSH1 0xE0 SHL DUP5 MSTORE PUSH1 0x44 DUP5 ADD SWAP2 DUP8 DUP8 DUP7 ADD MSTORE DUP6 SLOAD DUP1 SWAP4 MSTORE PUSH1 0x64 DUP6 ADD SWAP3 DUP7 DUP1 MSTORE PUSH1 0x0 DUP1 MLOAD PUSH1 0x20 PUSH2 0x9B5 DUP4 CODECOPY DUP2 MLOAD SWAP2 MSTORE SWAP2 DUP8 SWAP1 JUMPDEST DUP3 DUP3 LT PUSH2 0x4E5 JUMPI POP POP POP POP DUP4 DUP1 SWAP3 DUP7 SWAP3 PUSH1 0x24 DUP4 ADD MSTORE SUB SWAP3 GAS CALL DUP1 ISZERO PUSH2 0x4DB JUMPI PUSH2 0x4AF JUMPI JUMPDEST DUP1 DUP1 DUP6 DUP1 RETURN JUMPDEST PUSH8 0xFFFFFFFFFFFFFFFF DUP4 GT PUSH2 0x4C8 JUMPI POP MSTORE CODESIZE DUP1 DUP1 PUSH2 0x4A9 JUMP JUMPDEST PUSH4 0x4E487B71 PUSH1 0xE0 SHL DUP5 MSTORE PUSH1 0x41 SWAP1 MSTORE PUSH1 0x24 DUP4 REVERT JUMPDEST DUP3 MLOAD RETURNDATASIZE DUP7 DUP3 RETURNDATACOPY RETURNDATASIZE SWAP1 REVERT JUMPDEST DUP4 SLOAD DUP7 MSTORE DUP13 SWAP9 POP DUP12 SWAP8 POP SWAP5 DUP6 ADD SWAP5 PUSH1 0x1 SWAP4 DUP5 ADD SWAP4 SWAP2 SWAP1 SWAP2 ADD SWAP1 PUSH2 0x485 JUMP JUMPDEST DUP6 DUP1 REVERT JUMPDEST PUSH2 0x51B SWAP2 POP RETURNDATASIZE DUP1 DUP11 DUP4 RETURNDATACOPY PUSH2 0x2C1 DUP2 DUP4 PUSH2 0x7DD JUMP JUMPDEST CODESIZE PUSH2 0x432 JUMP JUMPDEST DUP6 MLOAD RETURNDATASIZE DUP10 DUP3 RETURNDATACOPY RETURNDATASIZE SWAP1 REVERT JUMPDEST DUP5 PUSH1 0x3 SSTORE PUSH8 0xFFFFFFFFFFFFFFFF DUP2 GT PUSH2 0x5FC JUMPI PUSH9 0x10000000000000000 DUP2 GT PUSH2 0x5FC JUMPI PUSH1 0x2 SLOAD DUP2 PUSH1 0x2 SSTORE DUP1 DUP3 LT PUSH2 0x5BC JUMPI JUMPDEST POP PUSH1 0x0 DUP1 MLOAD PUSH1 0x20 PUSH2 0x9B5 DUP4 CODECOPY DUP2 MLOAD SWAP2 MSTORE PUSH1 0x2 DUP8 MSTORE DUP1 SLOAD SWAP1 DUP8 SWAP2 JUMPDEST DUP4 DUP4 LT PUSH2 0x586 JUMPI POP POP POP PUSH2 0x3FB JUMP JUMPDEST PUSH1 0x1 DUP1 SWAP2 SWAP3 ADD SWAP3 DUP4 SLOAD SWAP3 DUP2 PUSH32 0x405787FA12A823E0F2B7631CC41B3BA8828B3321CA811111FA75CD3AA3BB5ACE ADD SSTORE ADD SWAP2 SWAP1 PUSH2 0x577 JUMP JUMPDEST DUP2 PUSH32 0x405787FA12A823E0F2B7631CC41B3BA8828B3321CA811111FA75CD3AA3BB5ACE SWAP2 DUP3 ADD SWAP2 ADD JUMPDEST DUP2 DUP2 LT PUSH2 0x5F1 JUMPI POP PUSH2 0x55D JUMP JUMPDEST DUP8 DUP2 SSTORE PUSH1 0x1 ADD PUSH2 0x5E4 JUMP JUMPDEST PUSH4 0x4E487B71 PUSH1 0xE0 SHL DUP7 MSTORE PUSH1 0x41 DUP4 MSTORE PUSH1 0x24 DUP7 REVERT JUMPDEST DUP3 SLOAD DUP5 MSTORE SWAP1 SWAP3 ADD SWAP2 PUSH1 0x1 SWAP2 DUP3 ADD SWAP2 ADD PUSH2 0x3D0 JUMP JUMPDEST POP POP CALLVALUE PUSH2 0x36D JUMPI DUP2 PUSH1 0x3 NOT CALLDATASIZE ADD SLT PUSH2 0x36D JUMPI PUSH1 0x7 SLOAD SWAP1 MLOAD PUSH1 0x1 PUSH1 0x1 PUSH1 0xA0 SHL SUB SWAP1 SWAP2 AND DUP2 MSTORE PUSH1 0x20 SWAP1 RETURN JUMPDEST POP CALLVALUE PUSH2 0xD5 JUMPI PUSH1 0x20 CALLDATASIZE PUSH1 0x3 NOT ADD SLT PUSH2 0xD5 JUMPI CALLDATALOAD SWAP2 PUSH1 0x1 SLOAD DUP4 LT ISZERO PUSH2 0xD2 JUMPI POP PUSH2 0xC4 PUSH1 0x20 SWAP3 PUSH2 0x6EF JUMP JUMPDEST POP POP CALLVALUE PUSH2 0x36D JUMPI DUP2 PUSH1 0x3 NOT CALLDATASIZE ADD SLT PUSH2 0x36D JUMPI PUSH1 0x20 SWAP1 PUSH1 0x5 SLOAD SWAP1 MLOAD SWAP1 DUP2 MSTORE RETURN JUMPDEST POP POP CALLVALUE PUSH2 0x36D JUMPI DUP2 PUSH1 0x3 NOT CALLDATASIZE ADD SLT PUSH2 0x36D JUMPI PUSH1 0x20 SWAP1 PUSH1 0x3 SLOAD SWAP1 MLOAD SWAP1 DUP2 MSTORE RETURN JUMPDEST POP POP CALLVALUE PUSH2 0x36D JUMPI DUP2 PUSH1 0x3 NOT CALLDATASIZE ADD SLT PUSH2 0x36D JUMPI PUSH1 0x20 SWAP1 PUSH1 0x6 SLOAD SWAP1 MLOAD SWAP1 DUP2 MSTORE RETURN JUMPDEST SWAP3 POP POP CALLVALUE PUSH2 0xD5 JUMPI DUP3 PUSH1 0x3 NOT CALLDATASIZE ADD SLT PUSH2 0xD5 JUMPI PUSH1 0x20 SWAP3 POP SLOAD DUP2 MSTORE RETURN JUMPDEST PUSH1 0x1 SLOAD DUP2 LT ISZERO PUSH2 0x726 JUMPI PUSH1 0x1 PUSH1 0x0 MSTORE PUSH32 0xB10E2D527612073B26EECDFD717E6A320CF44B4AFAC2B0732D9FCBE2B7FA0CF6 ADD SWAP1 PUSH1 0x0 SWAP1 JUMP JUMPDEST PUSH4 0x4E487B71 PUSH1 0xE0 SHL PUSH1 0x0 MSTORE PUSH1 0x32 PUSH1 0x4 MSTORE PUSH1 0x24 PUSH1 0x0 REVERT JUMPDEST PUSH1 0x2 SLOAD DUP2 LT ISZERO PUSH2 0x726 JUMPI PUSH1 0x2 PUSH1 0x0 MSTORE PUSH32 0x405787FA12A823E0F2B7631CC41B3BA8828B3321CA811111FA75CD3AA3BB5ACE ADD SWAP1 PUSH1 0x0 SWAP1 JUMP JUMPDEST SWAP1 PUSH1 0x0 SWAP2 DUP3 SLOAD DUP2 LT ISZERO PUSH2 0x797 JUMPI DUP3 DUP1 MSTORE PUSH1 0x0 DUP1 MLOAD PUSH1 0x20 PUSH2 0x9B5 DUP4 CODECOPY DUP2 MLOAD SWAP2 MSTORE ADD SWAP2 SWAP1 JUMP JUMPDEST PUSH4 0x4E487B71 PUSH1 0xE0 SHL DUP4 MSTORE PUSH1 0x32 PUSH1 0x4 MSTORE PUSH1 0x24 DUP4 REVERT JUMPDEST PUSH1 0x60 DUP2 ADD SWAP1 DUP2 LT PUSH8 0xFFFFFFFFFFFFFFFF DUP3 GT OR PUSH2 0x7C7 JUMPI PUSH1 0x40 MSTORE JUMP JUMPDEST PUSH4 0x4E487B71 PUSH1 0xE0 SHL PUSH1 0x0 MSTORE PUSH1 0x41 PUSH1 0x4 MSTORE PUSH1 0x24 PUSH1 0x0 REVERT JUMPDEST SWAP1 PUSH1 0x1F DUP1 NOT SWAP2 ADD AND DUP2 ADD SWAP1 DUP2 LT PUSH8 0xFFFFFFFFFFFFFFFF DUP3 GT OR PUSH2 0x7C7 JUMPI PUSH1 0x40 MSTORE JUMP JUMPDEST PUSH8 0xFFFFFFFFFFFFFFFF DUP2 GT PUSH2 0x7C7 JUMPI PUSH1 0x5 SHL PUSH1 0x20 ADD SWAP1 JUMP JUMPDEST DUP2 DUP2 MUL SWAP3 SWAP2 DUP2 ISZERO SWAP2 DUP5 DIV EQ OR ISZERO PUSH2 0x82A JUMPI JUMP JUMPDEST PUSH4 0x4E487B71 PUSH1 0xE0 SHL PUSH1 0x0 MSTORE PUSH1 0x11 PUSH1 0x4 MSTORE PUSH1 0x24 PUSH1 0x0 REVERT JUMPDEST PUSH1 0x20 SWAP1 DUP2 DUP2 DUP5 SUB SLT PUSH2 0x8BA JUMPI DUP1 MLOAD SWAP1 PUSH8 0xFFFFFFFFFFFFFFFF DUP3 GT PUSH2 0x8BA JUMPI ADD SWAP2 DUP1 PUSH1 0x1F DUP5 ADD SLT ISZERO PUSH2 0x8BA JUMPI DUP3 MLOAD PUSH2 0x876 DUP2 PUSH2 0x7FF JUMP JUMPDEST SWAP4 PUSH2 0x884 PUSH1 0x40 MLOAD SWAP6 DUP7 PUSH2 0x7DD JUMP JUMPDEST DUP2 DUP6 MSTORE DUP4 DUP1 DUP7 ADD SWAP3 PUSH1 0x5 SHL DUP3 ADD ADD SWAP3 DUP4 GT PUSH2 0x8BA JUMPI DUP4 ADD SWAP1 JUMPDEST DUP3 DUP3 LT PUSH2 0x8AB JUMPI POP POP POP POP SWAP1 JUMP JUMPDEST DUP2 MLOAD DUP2 MSTORE SWAP1 DUP4 ADD SWAP1 DUP4 ADD PUSH2 0x89D JUMP JUMPDEST PUSH1 0x0 DUP1 REVERT JUMPDEST DUP1 MLOAD DUP3 LT ISZERO PUSH2 0x726 JUMPI PUSH1 0x20 SWAP2 PUSH1 0x5 SHL ADD ADD SWAP1 JUMP JUMPDEST DUP1 ISZERO PUSH2 0x959 JUMPI DUP1 DUP1 PUSH1 0x1 EQ PUSH2 0x952 JUMPI PUSH1 0x2 EQ PUSH2 0x94C JUMPI PUSH1 0x1 SWAP1 DUP2 PUSH2 0x133 DUP3 LT AND DUP3 PUSH1 0xB DUP4 LT AND OR PUSH2 0x944 JUMPI SWAP1 PUSH1 0x2 DUP2 JUMPDEST DUP1 DUP3 GT PUSH2 0x91B JUMPI POP POP DUP2 PUSH1 0x0 NOT DIV DUP2 GT PUSH2 0x82A JUMPI MUL SWAP1 JUMP JUMPDEST SWAP1 SWAP3 DUP1 PUSH1 0x0 NOT DIV DUP2 GT PUSH2 0x82A JUMPI DUP2 DUP5 AND PUSH2 0x93B JUMPI JUMPDEST DUP1 MUL SWAP3 DUP2 SHR SWAP1 PUSH2 0x903 JUMP JUMPDEST DUP1 SWAP3 MUL SWAP2 PUSH2 0x930 JUMP JUMPDEST PUSH1 0x2 SWAP2 POP EXP SWAP1 JUMP JUMPDEST POP PUSH1 0x4 SWAP1 JUMP JUMPDEST POP POP PUSH1 0x1 SWAP1 JUMP JUMPDEST POP PUSH1 0x0 SWAP1 JUMP JUMPDEST SWAP2 SWAP1 DUP3 ADD DUP1 SWAP3 GT PUSH2 0x82A JUMPI JUMP JUMPDEST PUSH1 0x0 SWAP1 DUP2 JUMPDEST DUP2 MLOAD DUP4 LT ISZERO PUSH2 0x9A1 JUMPI PUSH2 0x999 PUSH1 0x1 SWAP2 PUSH2 0x993 PUSH2 0x98D DUP7 DUP7 PUSH2 0x8BF JUMP JUMPDEST MLOAD PUSH2 0x8D3 JUMP JUMPDEST SWAP1 PUSH2 0x95F JUMP JUMPDEST SWAP3 ADD SWAP2 PUSH2 0x971 JUMP JUMPDEST SWAP2 POP POP SWAP1 JUMP JUMPDEST SWAP2 SWAP1 DUP3 SUB SWAP2 DUP3 GT PUSH2 0x82A JUMPI JUMP INVALID 0x29 0xD 0xEC 0xD9 SLOAD DUP12 PUSH3 0xA8D603 GASLIMIT 0xA9 DUP9 CODESIZE PUSH16 0xC84BA6BC95484008F6362F93160EF3E5 PUSH4 0xA2646970 PUSH7 0x735822122022B5 SHR SGT DELEGATECALL PUSH15 0x62D56C72BE7BF250376966F62EAD01 0xEC 0x2D PUSH3 0x8B157 DUP14 0x5D EXTCODESIZE 0xAE 0xC3 PUSH5 0x736F6C6343 STOP ADDMOD OR STOP CALLER "},"methodIdentifiers":{"c1()":"5f57697c","c2()":"48e257cb","globalContract()":"90ccfa0f","objectiveFunction(uint256[])":"f0374885","personalBestPosition(uint256)":"a86853d5","personalBestScore()":"4d985ae4","position(uint256)":"f7a95a9e","updateBestPositions()":"973b9cc1","updateVelocityAndPosition()":"f6451c0a","velocity(uint256)":"6f240774","w()":"205c9cc7"}}}}}