{"contracts/DateTime.sol":{"DateTime":{"abi":[{"inputs":[{"internalType":"uint256","name":"timestamp","type":"uint256"}],"name":"getDay","outputs":[{"internalType":"uint8","name":"","type":"uint8"}],"stateMutability":"pure","type":"function"},{"inputs":[{"internalType":"uint8","name":"month","type":"uint8"},{"internalType":"uint16","name":"year","type":"uint16"}],"name":"getDaysInMonth","outputs":[{"internalType":"uint8","name":"","type":"uint8"}],"stateMutability":"pure","type":"function"},{"inputs":[{"internalType":"uint256","name":"timestamp","type":"uint256"}],"name":"getHour","outputs":[{"internalType":"uint8","name":"","type":"uint8"}],"stateMutability":"pure","type":"function"},{"inputs":[{"internalType":"uint256","name":"timestamp","type":"uint256"}],"name":"getMinute","outputs":[{"internalType":"uint8","name":"","type":"uint8"}],"stateMutability":"pure","type":"function"},{"inputs":[{"internalType":"uint256","name":"timestamp","type":"uint256"}],"name":"getMonth","outputs":[{"internalType":"uint8","name":"","type":"uint8"}],"stateMutability":"pure","type":"function"},{"inputs":[{"internalType":"uint256","name":"timestamp","type":"uint256"}],"name":"getSecond","outputs":[{"internalType":"uint8","name":"","type":"uint8"}],"stateMutability":"pure","type":"function"},{"inputs":[{"internalType":"uint256","name":"timestamp","type":"uint256"}],"name":"getWeekday","outputs":[{"internalType":"uint8","name":"","type":"uint8"}],"stateMutability":"pure","type":"function"},{"inputs":[{"internalType":"uint256","name":"timestamp","type":"uint256"}],"name":"getYear","outputs":[{"internalType":"uint16","name":"","type":"uint16"}],"stateMutability":"pure","type":"function"},{"inputs":[{"internalType":"uint16","name":"year","type":"uint16"}],"name":"isLeapYear","outputs":[{"internalType":"bool","name":"","type":"bool"}],"stateMutability":"pure","type":"function"},{"inputs":[{"internalType":"uint256","name":"year","type":"uint256"}],"name":"leapYearsBefore","outputs":[{"internalType":"uint256","name":"","type":"uint256"}],"stateMutability":"pure","type":"function"},{"inputs":[{"internalType":"uint256","name":"timestamp","type":"uint256"}],"name":"parseTimestamp","outputs":[{"components":[{"internalType":"uint16","name":"year","type":"uint16"},{"internalType":"uint8","name":"month","type":"uint8"},{"internalType":"uint8","name":"day","type":"uint8"},{"internalType":"uint8","name":"hour","type":"uint8"},{"internalType":"uint8","name":"minute","type":"uint8"},{"internalType":"uint8","name":"second","type":"uint8"},{"internalType":"uint8","name":"weekday","type":"uint8"}],"internalType":"struct DateTime._DateTime","name":"dt","type":"tuple"}],"stateMutability":"pure","type":"function"}],"evm":{"bytecode":{"linkReferences":{},"object":"6080806040523461001a576107f79081610020823930815050f35b600080fdfe60806040908082526004908136101561001757600080fd5b600090813560e01c9081633e239e1a1461026c575080634ac1ad781461024e57806365c728401461022f5780638aa001fc1461021157806392d66313146101f2578063a324ad24146101c9578063a6f0e57714610198578063b199993714610175578063b238ad0e14610132578063f97d0591146100c05763fa93f8831461009e57600080fd5b60203660031901126100bd575060ff603c806020945193350406168152f35b80fd5b50829060203660031901126100bd57506100dc60e09235610568565b9060c081519261ffff815116845260208101519260ff8094166020860152838183015116908501528260608201511660608501528260808201511660808501528260a08201511660a085015201511660c0820152f35b50919081600319360112610171573560ff81168103610171576024359261ffff841684036100bd575061016960209360ff9261047f565b915191168152f35b8280fd5b50829060203660031901126100bd575061019160209235610451565b9051908152f35b509190602036600319011261017157359161ffff831683036100bd57506101c0602092610418565b90519015158152f35b50829060203660031901126100bd575060ff60206101e8819435610568565b0151169051908152f35b50829060203660031901126100bd575061ffff61016960209335610313565b5060203660031901126100bd575060ff603c60209351923506168152f35b50829060203660031901126100bd575060ff816101e860209435610568565b50829060203660031901126100bd575060ff610169602093356102b2565b91905060203660031901126100bd575060ff6018603c8060209535040406168152f35b9190820180921161029c57565b634e487b7160e01b600052601160045260246000fd5b6201518090046004810180911161029c57600760ff91061690565b6101dc1981019190821161029c57565b9190820391821161029c57565b61ffff9081166107b119019190821161029c57565b61ffff908116600019019190821161029c57565b6000906301e133806107b281830481018091116104045761ffff8091169361034261033d86610451565b6102cd565b6301e285009281840293840482036103f0579061036891610362886102ea565b166102dd565b808402938404036103dc5750906103819193929361028f565b82811161038e5750905090565b61039f61039a836102ff565b610418565b156103c3576301e284ff19810190811161029c576103bd90916102ff565b90610381565b6301e1337f19810190811161029c576103bd90916102ff565b634e487b7160e01b81526011600452602490fd5b634e487b7160e01b83526011600452602483fd5b634e487b7160e01b84526011600452602484fd5b6003811661044b5761ffff8091168160648206166104445761019090061661043f57600190565b600090565b5050600190565b50600090565b600019810190811161029c5780610190610474606461047c94048360021c6102dd565b91049061028f565b90565b60ff1660018114801561054d575b8015610543575b8015610539575b801561052f575b8015610525575b801561051b575b156104bc575050601f90565b60048114908115610510575b8115610505575b81156104fa575b50156104e25750601e90565b6104eb90610418565b156104f557601d90565b601c90565b600b915014386104d6565b6009811491506104cf565b6006811491506104c8565b50600c81146104b0565b50600a81146104a9565b50600881146104a2565b506007811461049b565b5060058114610494565b506003811461048d565b60ff1660ff811461029c5760010190565b6040519060e0820182811067ffffffffffffffff8211176107ab5760405260008083526020830192818452604081018281526060820193838552608083019684885260a084019185835260c0850190868252859361ffff9a6105d961033d8d6105d086610313565b16808b52610451565b6301e28500908082029182048103610797576105fc908e610362818d51166102ea565b906301e13380918083029283040361079757906106189161028f565b9960019a5b60ff90818d1691600c8311610782578f8e61063b918e51169061047f565b169162015180928084029384040361076e5786610658838561028f565b1161067757506106719161066b9161028f565b9b610557565b9a61061d565b91509b508c91939597999c9d929496989a9d525b60019a5b6106a68d60ff91829186838751169151169061047f565b16908d1690811161074f5762015180908282018083116107395789106106f9575081018091116106e5576106dd6106a6919c610557565b9b905061068f565b634e487b7160e01b8e52601160045260248efd5b9350505050610734979b50603c9294969a5060ff988994969a50525b81860490836018848404061690520616905283603c83061690526102b2565b169052565b5050634e487b7160e01b8f52601160045260248ffd5b50505050610734969a50603c919395995060ff97508792949850610715565b634e487b7160e01b8d52601160045260248dfd5b509b5050919395979a9b90929496989b61068b565b634e487b7160e01b8b52601160045260248bfd5b634e487b7160e01b600052604160045260246000fdfea264697066735822122063f8c02201cd42861cfebeb82d16f32d19b99ce6a7c865ee06c734901a2a230c64736f6c63430008170033","opcodes":"PUSH1 0x80 DUP1 PUSH1 0x40 MSTORE CALLVALUE PUSH2 0x1A JUMPI PUSH2 0x7F7 SWAP1 DUP2 PUSH2 0x20 DUP3 CODECOPY ADDRESS DUP2 POP POP RETURN JUMPDEST PUSH1 0x0 DUP1 REVERT INVALID PUSH1 0x80 PUSH1 0x40 SWAP1 DUP1 DUP3 MSTORE PUSH1 0x4 SWAP1 DUP2 CALLDATASIZE LT ISZERO PUSH2 0x17 JUMPI PUSH1 0x0 DUP1 REVERT JUMPDEST PUSH1 0x0 SWAP1 DUP2 CALLDATALOAD PUSH1 0xE0 SHR SWAP1 DUP2 PUSH4 0x3E239E1A EQ PUSH2 0x26C JUMPI POP DUP1 PUSH4 0x4AC1AD78 EQ PUSH2 0x24E JUMPI DUP1 PUSH4 0x65C72840 EQ PUSH2 0x22F JUMPI DUP1 PUSH4 0x8AA001FC EQ PUSH2 0x211 JUMPI DUP1 PUSH4 0x92D66313 EQ PUSH2 0x1F2 JUMPI DUP1 PUSH4 0xA324AD24 EQ PUSH2 0x1C9 JUMPI DUP1 PUSH4 0xA6F0E577 EQ PUSH2 0x198 JUMPI DUP1 PUSH4 0xB1999937 EQ PUSH2 0x175 JUMPI DUP1 PUSH4 0xB238AD0E EQ PUSH2 0x132 JUMPI DUP1 PUSH4 0xF97D0591 EQ PUSH2 0xC0 JUMPI PUSH4 0xFA93F883 EQ PUSH2 0x9E JUMPI PUSH1 0x0 DUP1 REVERT JUMPDEST PUSH1 0x20 CALLDATASIZE PUSH1 0x3 NOT ADD SLT PUSH2 0xBD JUMPI POP PUSH1 0xFF PUSH1 0x3C DUP1 PUSH1 0x20 SWAP5 MLOAD SWAP4 CALLDATALOAD DIV MOD AND DUP2 MSTORE RETURN JUMPDEST DUP1 REVERT JUMPDEST POP DUP3 SWAP1 PUSH1 0x20 CALLDATASIZE PUSH1 0x3 NOT ADD SLT PUSH2 0xBD JUMPI POP PUSH2 0xDC PUSH1 0xE0 SWAP3 CALLDATALOAD PUSH2 0x568 JUMP JUMPDEST SWAP1 PUSH1 0xC0 DUP2 MLOAD SWAP3 PUSH2 0xFFFF DUP2 MLOAD AND DUP5 MSTORE PUSH1 0x20 DUP2 ADD MLOAD SWAP3 PUSH1 0xFF DUP1 SWAP5 AND PUSH1 0x20 DUP7 ADD MSTORE DUP4 DUP2 DUP4 ADD MLOAD AND SWAP1 DUP6 ADD MSTORE DUP3 PUSH1 0x60 DUP3 ADD MLOAD AND PUSH1 0x60 DUP6 ADD MSTORE DUP3 PUSH1 0x80 DUP3 ADD MLOAD AND PUSH1 0x80 DUP6 ADD MSTORE DUP3 PUSH1 0xA0 DUP3 ADD MLOAD AND PUSH1 0xA0 DUP6 ADD MSTORE ADD MLOAD AND PUSH1 0xC0 DUP3 ADD MSTORE RETURN JUMPDEST POP SWAP2 SWAP1 DUP2 PUSH1 0x3 NOT CALLDATASIZE ADD SLT PUSH2 0x171 JUMPI CALLDATALOAD PUSH1 0xFF DUP2 AND DUP2 SUB PUSH2 0x171 JUMPI PUSH1 0x24 CALLDATALOAD SWAP3 PUSH2 0xFFFF DUP5 AND DUP5 SUB PUSH2 0xBD JUMPI POP PUSH2 0x169 PUSH1 0x20 SWAP4 PUSH1 0xFF SWAP3 PUSH2 0x47F JUMP JUMPDEST SWAP2 MLOAD SWAP2 AND DUP2 MSTORE RETURN JUMPDEST DUP3 DUP1 REVERT JUMPDEST POP DUP3 SWAP1 PUSH1 0x20 CALLDATASIZE PUSH1 0x3 NOT ADD SLT PUSH2 0xBD JUMPI POP PUSH2 0x191 PUSH1 0x20 SWAP3 CALLDATALOAD PUSH2 0x451 JUMP JUMPDEST SWAP1 MLOAD SWAP1 DUP2 MSTORE RETURN JUMPDEST POP SWAP2 SWAP1 PUSH1 0x20 CALLDATASIZE PUSH1 0x3 NOT ADD SLT PUSH2 0x171 JUMPI CALLDATALOAD SWAP2 PUSH2 0xFFFF DUP4 AND DUP4 SUB PUSH2 0xBD JUMPI POP PUSH2 0x1C0 PUSH1 0x20 SWAP3 PUSH2 0x418 JUMP JUMPDEST SWAP1 MLOAD SWAP1 ISZERO ISZERO DUP2 MSTORE RETURN JUMPDEST POP DUP3 SWAP1 PUSH1 0x20 CALLDATASIZE PUSH1 0x3 NOT ADD SLT PUSH2 0xBD JUMPI POP PUSH1 0xFF PUSH1 0x20 PUSH2 0x1E8 DUP2 SWAP5 CALLDATALOAD PUSH2 0x568 JUMP JUMPDEST ADD MLOAD AND SWAP1 MLOAD SWAP1 DUP2 MSTORE RETURN JUMPDEST POP DUP3 SWAP1 PUSH1 0x20 CALLDATASIZE PUSH1 0x3 NOT ADD SLT PUSH2 0xBD JUMPI POP PUSH2 0xFFFF PUSH2 0x169 PUSH1 0x20 SWAP4 CALLDATALOAD PUSH2 0x313 JUMP JUMPDEST POP PUSH1 0x20 CALLDATASIZE PUSH1 0x3 NOT ADD SLT PUSH2 0xBD JUMPI POP PUSH1 0xFF PUSH1 0x3C PUSH1 0x20 SWAP4 MLOAD SWAP3 CALLDATALOAD MOD AND DUP2 MSTORE RETURN JUMPDEST POP DUP3 SWAP1 PUSH1 0x20 CALLDATASIZE PUSH1 0x3 NOT ADD SLT PUSH2 0xBD JUMPI POP PUSH1 0xFF DUP2 PUSH2 0x1E8 PUSH1 0x20 SWAP5 CALLDATALOAD PUSH2 0x568 JUMP JUMPDEST POP DUP3 SWAP1 PUSH1 0x20 CALLDATASIZE PUSH1 0x3 NOT ADD SLT PUSH2 0xBD JUMPI POP PUSH1 0xFF PUSH2 0x169 PUSH1 0x20 SWAP4 CALLDATALOAD PUSH2 0x2B2 JUMP JUMPDEST SWAP2 SWAP1 POP PUSH1 0x20 CALLDATASIZE PUSH1 0x3 NOT ADD SLT PUSH2 0xBD JUMPI POP PUSH1 0xFF PUSH1 0x18 PUSH1 0x3C DUP1 PUSH1 0x20 SWAP6 CALLDATALOAD DIV DIV MOD AND DUP2 MSTORE RETURN JUMPDEST SWAP2 SWAP1 DUP3 ADD DUP1 SWAP3 GT PUSH2 0x29C JUMPI JUMP JUMPDEST PUSH4 0x4E487B71 PUSH1 0xE0 SHL PUSH1 0x0 MSTORE PUSH1 0x11 PUSH1 0x4 MSTORE PUSH1 0x24 PUSH1 0x0 REVERT JUMPDEST PUSH3 0x15180 SWAP1 DIV PUSH1 0x4 DUP2 ADD DUP1 SWAP2 GT PUSH2 0x29C JUMPI PUSH1 0x7 PUSH1 0xFF SWAP2 MOD AND SWAP1 JUMP JUMPDEST PUSH2 0x1DC NOT DUP2 ADD SWAP2 SWAP1 DUP3 GT PUSH2 0x29C JUMPI JUMP JUMPDEST SWAP2 SWAP1 DUP3 SUB SWAP2 DUP3 GT PUSH2 0x29C JUMPI JUMP JUMPDEST PUSH2 0xFFFF SWAP1 DUP2 AND PUSH2 0x7B1 NOT ADD SWAP2 SWAP1 DUP3 GT PUSH2 0x29C JUMPI JUMP JUMPDEST PUSH2 0xFFFF SWAP1 DUP2 AND PUSH1 0x0 NOT ADD SWAP2 SWAP1 DUP3 GT PUSH2 0x29C JUMPI JUMP JUMPDEST PUSH1 0x0 SWAP1 PUSH4 0x1E13380 PUSH2 0x7B2 DUP2 DUP4 DIV DUP2 ADD DUP1 SWAP2 GT PUSH2 0x404 JUMPI PUSH2 0xFFFF DUP1 SWAP2 AND SWAP4 PUSH2 0x342 PUSH2 0x33D DUP7 PUSH2 0x451 JUMP JUMPDEST PUSH2 0x2CD JUMP JUMPDEST PUSH4 0x1E28500 SWAP3 DUP2 DUP5 MUL SWAP4 DUP5 DIV DUP3 SUB PUSH2 0x3F0 JUMPI SWAP1 PUSH2 0x368 SWAP2 PUSH2 0x362 DUP9 PUSH2 0x2EA JUMP JUMPDEST AND PUSH2 0x2DD JUMP JUMPDEST DUP1 DUP5 MUL SWAP4 DUP5 DIV SUB PUSH2 0x3DC JUMPI POP SWAP1 PUSH2 0x381 SWAP2 SWAP4 SWAP3 SWAP4 PUSH2 0x28F JUMP JUMPDEST DUP3 DUP2 GT PUSH2 0x38E JUMPI POP SWAP1 POP SWAP1 JUMP JUMPDEST PUSH2 0x39F PUSH2 0x39A DUP4 PUSH2 0x2FF JUMP JUMPDEST PUSH2 0x418 JUMP JUMPDEST ISZERO PUSH2 0x3C3 JUMPI PUSH4 0x1E284FF NOT DUP2 ADD SWAP1 DUP2 GT PUSH2 0x29C JUMPI PUSH2 0x3BD SWAP1 SWAP2 PUSH2 0x2FF JUMP JUMPDEST SWAP1 PUSH2 0x381 JUMP JUMPDEST PUSH4 0x1E1337F NOT DUP2 ADD SWAP1 DUP2 GT PUSH2 0x29C JUMPI PUSH2 0x3BD SWAP1 SWAP2 PUSH2 0x2FF JUMP JUMPDEST PUSH4 0x4E487B71 PUSH1 0xE0 SHL DUP2 MSTORE PUSH1 0x11 PUSH1 0x4 MSTORE PUSH1 0x24 SWAP1 REVERT JUMPDEST PUSH4 0x4E487B71 PUSH1 0xE0 SHL DUP4 MSTORE PUSH1 0x11 PUSH1 0x4 MSTORE PUSH1 0x24 DUP4 REVERT JUMPDEST PUSH4 0x4E487B71 PUSH1 0xE0 SHL DUP5 MSTORE PUSH1 0x11 PUSH1 0x4 MSTORE PUSH1 0x24 DUP5 REVERT JUMPDEST PUSH1 0x3 DUP2 AND PUSH2 0x44B JUMPI PUSH2 0xFFFF DUP1 SWAP2 AND DUP2 PUSH1 0x64 DUP3 MOD AND PUSH2 0x444 JUMPI PUSH2 0x190 SWAP1 MOD AND PUSH2 0x43F JUMPI PUSH1 0x1 SWAP1 JUMP JUMPDEST PUSH1 0x0 SWAP1 JUMP JUMPDEST POP POP PUSH1 0x1 SWAP1 JUMP JUMPDEST POP PUSH1 0x0 SWAP1 JUMP JUMPDEST PUSH1 0x0 NOT DUP2 ADD SWAP1 DUP2 GT PUSH2 0x29C JUMPI DUP1 PUSH2 0x190 PUSH2 0x474 PUSH1 0x64 PUSH2 0x47C SWAP5 DIV DUP4 PUSH1 0x2 SHR PUSH2 0x2DD JUMP JUMPDEST SWAP2 DIV SWAP1 PUSH2 0x28F JUMP JUMPDEST SWAP1 JUMP JUMPDEST PUSH1 0xFF AND PUSH1 0x1 DUP2 EQ DUP1 ISZERO PUSH2 0x54D JUMPI JUMPDEST DUP1 ISZERO PUSH2 0x543 JUMPI JUMPDEST DUP1 ISZERO PUSH2 0x539 JUMPI JUMPDEST DUP1 ISZERO PUSH2 0x52F JUMPI JUMPDEST DUP1 ISZERO PUSH2 0x525 JUMPI JUMPDEST DUP1 ISZERO PUSH2 0x51B JUMPI JUMPDEST ISZERO PUSH2 0x4BC JUMPI POP POP PUSH1 0x1F SWAP1 JUMP JUMPDEST PUSH1 0x4 DUP2 EQ SWAP1 DUP2 ISZERO PUSH2 0x510 JUMPI JUMPDEST DUP2 ISZERO PUSH2 0x505 JUMPI JUMPDEST DUP2 ISZERO PUSH2 0x4FA JUMPI JUMPDEST POP ISZERO PUSH2 0x4E2 JUMPI POP PUSH1 0x1E SWAP1 JUMP JUMPDEST PUSH2 0x4EB SWAP1 PUSH2 0x418 JUMP JUMPDEST ISZERO PUSH2 0x4F5 JUMPI PUSH1 0x1D SWAP1 JUMP JUMPDEST PUSH1 0x1C SWAP1 JUMP JUMPDEST PUSH1 0xB SWAP2 POP EQ CODESIZE PUSH2 0x4D6 JUMP JUMPDEST PUSH1 0x9 DUP2 EQ SWAP2 POP PUSH2 0x4CF JUMP JUMPDEST PUSH1 0x6 DUP2 EQ SWAP2 POP PUSH2 0x4C8 JUMP JUMPDEST POP PUSH1 0xC DUP2 EQ PUSH2 0x4B0 JUMP JUMPDEST POP PUSH1 0xA DUP2 EQ PUSH2 0x4A9 JUMP JUMPDEST POP PUSH1 0x8 DUP2 EQ PUSH2 0x4A2 JUMP JUMPDEST POP PUSH1 0x7 DUP2 EQ PUSH2 0x49B JUMP JUMPDEST POP PUSH1 0x5 DUP2 EQ PUSH2 0x494 JUMP JUMPDEST POP PUSH1 0x3 DUP2 EQ PUSH2 0x48D JUMP JUMPDEST PUSH1 0xFF AND PUSH1 0xFF DUP2 EQ PUSH2 0x29C JUMPI PUSH1 0x1 ADD SWAP1 JUMP JUMPDEST PUSH1 0x40 MLOAD SWAP1 PUSH1 0xE0 DUP3 ADD DUP3 DUP2 LT PUSH8 0xFFFFFFFFFFFFFFFF DUP3 GT OR PUSH2 0x7AB JUMPI PUSH1 0x40 MSTORE PUSH1 0x0 DUP1 DUP4 MSTORE PUSH1 0x20 DUP4 ADD SWAP3 DUP2 DUP5 MSTORE PUSH1 0x40 DUP2 ADD DUP3 DUP2 MSTORE PUSH1 0x60 DUP3 ADD SWAP4 DUP4 DUP6 MSTORE PUSH1 0x80 DUP4 ADD SWAP7 DUP5 DUP9 MSTORE PUSH1 0xA0 DUP5 ADD SWAP2 DUP6 DUP4 MSTORE PUSH1 0xC0 DUP6 ADD SWAP1 DUP7 DUP3 MSTORE DUP6 SWAP4 PUSH2 0xFFFF SWAP11 PUSH2 0x5D9 PUSH2 0x33D DUP14 PUSH2 0x5D0 DUP7 PUSH2 0x313 JUMP JUMPDEST AND DUP1 DUP12 MSTORE PUSH2 0x451 JUMP JUMPDEST PUSH4 0x1E28500 SWAP1 DUP1 DUP3 MUL SWAP2 DUP3 DIV DUP2 SUB PUSH2 0x797 JUMPI PUSH2 0x5FC SWAP1 DUP15 PUSH2 0x362 DUP2 DUP14 MLOAD AND PUSH2 0x2EA JUMP JUMPDEST SWAP1 PUSH4 0x1E13380 SWAP2 DUP1 DUP4 MUL SWAP3 DUP4 DIV SUB PUSH2 0x797 JUMPI SWAP1 PUSH2 0x618 SWAP2 PUSH2 0x28F JUMP JUMPDEST SWAP10 PUSH1 0x1 SWAP11 JUMPDEST PUSH1 0xFF SWAP1 DUP2 DUP14 AND SWAP2 PUSH1 0xC DUP4 GT PUSH2 0x782 JUMPI DUP16 DUP15 PUSH2 0x63B SWAP2 DUP15 MLOAD AND SWAP1 PUSH2 0x47F JUMP JUMPDEST AND SWAP2 PUSH3 0x15180 SWAP3 DUP1 DUP5 MUL SWAP4 DUP5 DIV SUB PUSH2 0x76E JUMPI DUP7 PUSH2 0x658 DUP4 DUP6 PUSH2 0x28F JUMP JUMPDEST GT PUSH2 0x677 JUMPI POP PUSH2 0x671 SWAP2 PUSH2 0x66B SWAP2 PUSH2 0x28F JUMP JUMPDEST SWAP12 PUSH2 0x557 JUMP JUMPDEST SWAP11 PUSH2 0x61D JUMP JUMPDEST SWAP2 POP SWAP12 POP DUP13 SWAP2 SWAP4 SWAP6 SWAP8 SWAP10 SWAP13 SWAP14 SWAP3 SWAP5 SWAP7 SWAP9 SWAP11 SWAP14 MSTORE JUMPDEST PUSH1 0x1 SWAP11 JUMPDEST PUSH2 0x6A6 DUP14 PUSH1 0xFF SWAP2 DUP3 SWAP2 DUP7 DUP4 DUP8 MLOAD AND SWAP2 MLOAD AND SWAP1 PUSH2 0x47F JUMP JUMPDEST AND SWAP1 DUP14 AND SWAP1 DUP2 GT PUSH2 0x74F JUMPI PUSH3 0x15180 SWAP1 DUP3 DUP3 ADD DUP1 DUP4 GT PUSH2 0x739 JUMPI DUP10 LT PUSH2 0x6F9 JUMPI POP DUP2 ADD DUP1 SWAP2 GT PUSH2 0x6E5 JUMPI PUSH2 0x6DD PUSH2 0x6A6 SWAP2 SWAP13 PUSH2 0x557 JUMP JUMPDEST SWAP12 SWAP1 POP PUSH2 0x68F JUMP JUMPDEST PUSH4 0x4E487B71 PUSH1 0xE0 SHL DUP15 MSTORE PUSH1 0x11 PUSH1 0x4 MSTORE PUSH1 0x24 DUP15 REVERT JUMPDEST SWAP4 POP POP POP POP PUSH2 0x734 SWAP8 SWAP12 POP PUSH1 0x3C SWAP3 SWAP5 SWAP7 SWAP11 POP PUSH1 0xFF SWAP9 DUP10 SWAP5 SWAP7 SWAP11 POP MSTORE JUMPDEST DUP2 DUP7 DIV SWAP1 DUP4 PUSH1 0x18 DUP5 DUP5 DIV MOD AND SWAP1 MSTORE MOD AND SWAP1 MSTORE DUP4 PUSH1 0x3C DUP4 MOD AND SWAP1 MSTORE PUSH2 0x2B2 JUMP JUMPDEST AND SWAP1 MSTORE JUMP JUMPDEST POP POP PUSH4 0x4E487B71 PUSH1 0xE0 SHL DUP16 MSTORE PUSH1 0x11 PUSH1 0x4 MSTORE PUSH1 0x24 DUP16 REVERT JUMPDEST POP POP POP POP PUSH2 0x734 SWAP7 SWAP11 POP PUSH1 0x3C SWAP2 SWAP4 SWAP6 SWAP10 POP PUSH1 0xFF SWAP8 POP DUP8 SWAP3 SWAP5 SWAP9 POP PUSH2 0x715 JUMP JUMPDEST PUSH4 0x4E487B71 PUSH1 0xE0 SHL DUP14 MSTORE PUSH1 0x11 PUSH1 0x4 MSTORE PUSH1 0x24 DUP14 REVERT JUMPDEST POP SWAP12 POP POP SWAP2 SWAP4 SWAP6 SWAP8 SWAP11 SWAP12 SWAP1 SWAP3 SWAP5 SWAP7 SWAP9 SWAP12 PUSH2 0x68B JUMP JUMPDEST PUSH4 0x4E487B71 PUSH1 0xE0 SHL DUP12 MSTORE PUSH1 0x11 PUSH1 0x4 MSTORE PUSH1 0x24 DUP12 REVERT JUMPDEST PUSH4 0x4E487B71 PUSH1 0xE0 SHL PUSH1 0x0 MSTORE PUSH1 0x41 PUSH1 0x4 MSTORE PUSH1 0x24 PUSH1 0x0 REVERT INVALID LOG2 PUSH5 0x6970667358 0x22 SLT KECCAK256 PUSH4 0xF8C02201 0xCD TIMESTAMP DUP7 SHR INVALID 0xBE 0xB8 0x2D AND RETURN 0x2D NOT 0xB9 SWAP13 0xE6 0xA7 0xC8 PUSH6 0xEE06C734901A 0x2A 0x23 0xC PUSH5 0x736F6C6343 STOP ADDMOD OR STOP CALLER "},"methodIdentifiers":{"getDay(uint256)":"65c72840","getDaysInMonth(uint8,uint16)":"b238ad0e","getHour(uint256)":"3e239e1a","getMinute(uint256)":"fa93f883","getMonth(uint256)":"a324ad24","getSecond(uint256)":"8aa001fc","getWeekday(uint256)":"4ac1ad78","getYear(uint256)":"92d66313","isLeapYear(uint16)":"a6f0e577","leapYearsBefore(uint256)":"b1999937","parseTimestamp(uint256)":"f97d0591"}}}}}