{"contracts/Node.sol":{"Node":{"abi":[{"inputs":[{"internalType":"address","name":"globalContractAddress","type":"address"},{"internalType":"int256[]","name":"initialPosition","type":"int256[]"},{"internalType":"int256[]","name":"initialVelocity","type":"int256[]"},{"internalType":"uint256[]","name":"initialTariff","type":"uint256[]"},{"internalType":"uint256[]","name":"initialCapacity","type":"uint256[]"},{"internalType":"uint256[]","name":"initialRenewableGeneration","type":"uint256[]"},{"internalType":"uint256[]","name":"initialBatteryCapacity","type":"uint256[]"},{"internalType":"uint256[]","name":"initialBatteryCharge","type":"uint256[]"},{"internalType":"uint256[]","name":"initialFlexibleLoad","type":"uint256[]"}],"stateMutability":"nonpayable","type":"constructor"},{"anonymous":false,"inputs":[{"indexed":true,"internalType":"address","name":"node","type":"address"},{"indexed":false,"internalType":"uint256","name":"newScore","type":"uint256"}],"name":"BestPositionUpdated","type":"event"},{"anonymous":false,"inputs":[{"indexed":false,"internalType":"int256","name":"newVelocity","type":"int256"},{"indexed":false,"internalType":"int256","name":"newPosition","type":"int256"},{"indexed":false,"internalType":"int256","name":"diffGlobal","type":"int256"},{"indexed":false,"internalType":"int256","name":"diffPersonal","type":"int256"}],"name":"DebugVelocityUpdate","type":"event"},{"anonymous":false,"inputs":[{"indexed":false,"internalType":"uint256","name":"timestamp","type":"uint256"}],"name":"NewPlanReceived","type":"event"},{"inputs":[{"internalType":"uint256","name":"","type":"uint256"}],"name":"batteryCapacity","outputs":[{"internalType":"uint256","name":"","type":"uint256"}],"stateMutability":"view","type":"function"},{"inputs":[{"internalType":"uint256","name":"","type":"uint256"}],"name":"batteryCharge","outputs":[{"internalType":"uint256","name":"","type":"uint256"}],"stateMutability":"view","type":"function"},{"inputs":[],"name":"c1","outputs":[{"internalType":"int256","name":"","type":"int256"}],"stateMutability":"view","type":"function"},{"inputs":[],"name":"c2","outputs":[{"internalType":"int256","name":"","type":"int256"}],"stateMutability":"view","type":"function"},{"inputs":[{"internalType":"uint256","name":"","type":"uint256"}],"name":"capacity","outputs":[{"internalType":"uint256","name":"","type":"uint256"}],"stateMutability":"view","type":"function"},{"inputs":[{"internalType":"uint256","name":"","type":"uint256"}],"name":"flexibleLoad","outputs":[{"internalType":"uint256","name":"","type":"uint256"}],"stateMutability":"view","type":"function"},{"inputs":[],"name":"globalContract","outputs":[{"internalType":"contract GlobalContractInterface","name":"","type":"address"}],"stateMutability":"view","type":"function"},{"inputs":[],"name":"lastKnownGlobalTimestamp","outputs":[{"internalType":"uint256","name":"","type":"uint256"}],"stateMutability":"view","type":"function"},{"inputs":[{"internalType":"int256[]","name":"pos","type":"int256[]"}],"name":"objectiveFunction","outputs":[{"internalType":"uint256","name":"","type":"uint256"}],"stateMutability":"view","type":"function"},{"inputs":[{"internalType":"uint256","name":"","type":"uint256"}],"name":"personalBestPosition","outputs":[{"internalType":"int256","name":"","type":"int256"}],"stateMutability":"view","type":"function"},{"inputs":[],"name":"personalBestScore","outputs":[{"internalType":"uint256","name":"","type":"uint256"}],"stateMutability":"view","type":"function"},{"inputs":[{"internalType":"uint256","name":"","type":"uint256"}],"name":"position","outputs":[{"internalType":"int256","name":"","type":"int256"}],"stateMutability":"view","type":"function"},{"inputs":[{"internalType":"uint256","name":"","type":"uint256"}],"name":"renewableGeneration","outputs":[{"internalType":"uint256","name":"","type":"uint256"}],"stateMutability":"view","type":"function"},{"inputs":[{"internalType":"uint256","name":"","type":"uint256"}],"name":"tariff","outputs":[{"internalType":"uint256","name":"","type":"uint256"}],"stateMutability":"view","type":"function"},{"inputs":[],"name":"updateBestPositions","outputs":[],"stateMutability":"nonpayable","type":"function"},{"inputs":[],"name":"updateVelocityAndPosition","outputs":[],"stateMutability":"nonpayable","type":"function"},{"inputs":[{"internalType":"uint256","name":"","type":"uint256"}],"name":"velocity","outputs":[{"internalType":"int256","name":"","type":"int256"}],"stateMutability":"view","type":"function"},{"inputs":[],"name":"w","outputs":[{"internalType":"int256","name":"","type":"int256"}],"stateMutability":"view","type":"function"}],"evm":{"bytecode":{"linkReferences":{},"object":"608060405234620006c8576200175e803803806200001d81620006cd565b928339810161012082820312620006c85781516001600160a01b0381169190829003620006c8576020838101519093906001600160401b038111620006c857826200006a9183016200070b565b60408201516001600160401b038111620006c857836200008c9184016200070b565b60608301516001600160401b038111620006c85784620000ae9185016200076f565b60808401516001600160401b038111620006c85785620000d09186016200076f565b60a08501519092906001600160401b038111620006c85786620000f59187016200076f565b60c08601519094906001600160401b038111620006c857876200011a9188016200076f565b60e08701519096906001600160401b038111620006c857886200013f9183016200076f565b6101008201519098906001600160401b038111620006c8576200016392016200076f565b600019600355603260055560966006819055600755600e80546001600160a01b0319169099179098558051916001600160401b038311620004a857680100000000000000008311620004a857600054836000558084106200069d575b508982019283600080528b6000208c60005b848110620006895750508351939250506001600160401b0383119050620004a857680100000000000000008211620004a8578a90600154836001558084106200065a575b500160016000528a60002060005b838110620006475750509151929150506001600160401b038211620004a857680100000000000000008211620004a857600254826002558083106200061b575b5060026000528860002060005b838110620006085750508251929150506001600160401b038211620004a857680100000000000000008211620004a857879060085483600855808410620005d9575b500160086000528760002060005b838110620005c65750508251929150506001600160401b038211620004a857680100000000000000008211620004a85786906009548360095580841062000597575b500160096000528660002060005b838110620005845750508251929150506001600160401b038211620004a857680100000000000000008211620004a8578590600a5483600a5580841062000555575b5001600a6000528560002060005b838110620005425750508251929150506001600160401b038211620004a857680100000000000000008211620004a8578490600b5483600b5580841062000513575b5001600b6000528460002060005b838110620005005750508251929150506001600160401b038211620004a857680100000000000000008211620004a8578390600c5483600c55808410620004d1575b5001600c6000528360002060005b838110620004be5784518690866001600160401b038211620004a857680100000000000000008211620004a8578290600d5483600d5580841062000479575b5001600d600052826000209260005b8381106200046657604051610f909081620007ce8239f35b825185820155918101916001016200044e565b600d600052838360002091820191015b8181106200049857506200043f565b6000815585935060010162000489565b634e487b7160e01b600052604160045260246000fd5b8251828201559185019160010162000400565b600c600052838360002091820191015b818110620004f05750620003f2565b60008155869350600101620004e1565b82518282015591860191600101620003b0565b600b600052838360002091820191015b818110620005325750620003a2565b6000815587935060010162000523565b8251828201559187019160010162000360565b600a600052838360002091820191015b81811062000574575062000352565b6000815588935060010162000565565b8251828201559188019160010162000310565b6009600052838360002091820191015b818110620005b6575062000302565b60008155899350600101620005a7565b82518282015591890191600101620002c0565b6008600052838360002091820191015b818110620005f85750620002b2565b600081558a9350600101620005e9565b825182820155918a019160010162000270565b6002600052828a60002091820191015b8181106200063a575062000263565b600081556001016200062b565b825182820155918c019160010162000223565b6001600052838360002091820191015b81811062000679575062000215565b600081558d93506001016200066a565b8351838201559201918d90600101620001d1565b60008052838b60002091820191015b818110620006bb5750620001bf565b60008155600101620006ac565b600080fd5b6040519190601f01601f191682016001600160401b03811183821017620004a857604052565b6001600160401b038111620004a85760051b60200190565b9080601f83011215620006c857815190602091620007336200072d82620006f3565b620006cd565b9360208086848152019260051b820101928311620006c857602001905b8282106200075f575050505090565b8151815290830190830162000750565b9080601f83011215620006c857815190602091620007916200072d82620006f3565b9360208086848152019260051b820101928311620006c857602001905b828210620007bd575050505090565b81518152908301908301620007ae56fe6040608081526004908136101561001557600080fd5b600091823560e01c806316b5192814610643578063205c9cc714610624578063364132d91461059157806348e257cb146105725780634d985ae4146105535780634eb274ff146105065780635f57697c146104e75780636f240774146104bd57806390ccfa0f1461049457806396d14da614610447578063973b9cc114610251578063a86853d514610227578063ab1bbeca146101d7578063b6ce670914610187578063d0c6c7af1461016a578063e329143f14610140578063f6451c0a146101245763f7a95a9e146100e757600080fd5b34610120576020366003190112610120573591805483101561011d575061010f60209261075b565b91905490519160031b1c8152f35b80fd5b8280fd5b833461011d578060031936011261011d5761013d610ae4565b80f35b5034610120576020366003190112610120573591600d5483101561011d575061010f602092610724565b503461012057826003193601126101205760209250549051908152f35b50346101205760203660031901126101205735600b548110156101205760209250600b6000527f0175b7a638427703f0dbe7bb9bbf987a2551717b34e79f33b5b1008d1fa01db901549051908152f35b50346101205760203660031901126101205735600954811015610120576020925060096000527f6e1540171b6c0c960b71a7020d9f60077f6af931a8bbf590da0223dacf75c7af01549051908152f35b503461012057602036600319011261012057359160025483101561011d575061010f6020926106ed565b50919034610443578160031936011261044357610282815161027d8161027681610a33565b03826107d7565b610848565b92600354841061031a575b600e54929384936001600160a01b031690813b1561031657849184518096818094632b64b97960e01b825288888301526102c960448301610a33565b90602483015203925af1801561030c576102e1578380f35b67ffffffffffffffff83116102f95750523880808380f35b634e487b7160e01b845260419052602483fd5b82513d86823e3d90fd5b8480fd5b8360035582549367ffffffffffffffff85116104305768010000000000000000851161043057600254856002558086106103f0575b507f290decd9548b62a8d60345a988386fc84ba6bc95484008f6362f93160ef3e5639460028552855485905b8282106103ba5750505083945082518181527f60b985a91456caf8829cc2cce7adb4018cacdfcd3c752494fce97c6862f83a8a60203092a2935061028d565b60018091980191825498817f405787fa12a823e0f2b7631cc41b3ba8828b3321ca811111fa75cd3aa3bb5ace015501909661037b565b857f405787fa12a823e0f2b7631cc41b3ba8828b3321ca811111fa75cd3aa3bb5ace91820191015b818110610425575061034f565b858155600101610418565b634e487b7160e01b845260418252602484fd5b5080fd5b50346101205760203660031901126101205735600a5481101561012057600a602093527fc65a7bb8d6351c1cf70c95a316cc6a92839c986682d98bc35f958f4883f9d2a801549051908152f35b505034610443578160031936011261044357600e5490516001600160a01b039091168152602090f35b503461012057602036600319011261012057359160015483101561011d575061010f6020926106b6565b5050346104435781600319360112610443576020906006549051908152f35b50346101205760203660031901126101205735600c5481101561012057600c602093527fdf6966c971051c3d54ec59162606531493a51404a002842f56009d7e5cf4a8c701549051908152f35b5050346104435781600319360112610443576020906003549051908152f35b5050346104435781600319360112610443576020906007549051908152f35b50913461011d57602090602060031936011261011d5783359367ffffffffffffffff85116104435736602386011215610443578401356105d0816107f9565b946105dd855196876107d7565b8186526024602087019260051b8201019236841161011d5750602401905b8282106106155760208561060e88610848565b9051908152f35b813581529083019083016105fb565b5050346104435781600319360112610443576020906005549051908152f35b503461012057602036600319011261012057359160085483101561011d575061010f6020925b6008548110156106a05760086000527ff3f7a9fe364faab93b216da50a3214154f22a0a2b415b23a84c8169e8b636ee30190600090565b634e487b7160e01b600052603260045260246000fd5b6001548110156106a05760016000527fb10e2d527612073b26eecdfd717e6a320cf44b4afac2b0732d9fcbe2b7fa0cf60190600090565b6002548110156106a05760026000527f405787fa12a823e0f2b7631cc41b3ba8828b3321ca811111fa75cd3aa3bb5ace0190600090565b600d548110156106a057600d6000527fd7b6990105719101dabeb77144f2a3385c8033acd3af97e9423a695e81ad1eb50190600090565b906000918254811015610791578280527f290decd9548b62a8d60345a988386fc84ba6bc95484008f6362f93160ef3e563019190565b634e487b7160e01b83526032600452602483fd5b6060810190811067ffffffffffffffff8211176107c157604052565b634e487b7160e01b600052604160045260246000fd5b90601f8019910116810190811067ffffffffffffffff8211176107c157604052565b67ffffffffffffffff81116107c15760051b60200190565b80518210156106a05760209160051b010190565b9190820391821161083257565b634e487b7160e01b600052601160045260246000fd5b600090805160405180600a54808352602080930190600a87527fc65a7bb8d6351c1cf70c95a316cc6a92839c986682d98bc35f958f4883f9d2a890875b818110610a1f575050508161089b9103826107d7565b60405180926020600c54928381520191600c88527fdf6966c971051c3d54ec59162606531493a51404a002842f56009d7e5cf4a8c79188905b828210610a085750505050826108eb9103836107d7565b84935b8385106108fd57505050505090565b9091929394600061090e8784610811565b5112156109f85760005b80806109248987610811565b51106109d7575061093f906109398886610811565b51610825565b6109498785610811565b5260005b806109588887610811565b51106109b05761096c906109398887610811565b6109768786610811565b5260005b61098387610669565b90549060031b1c8181029181830414901517156108325781018091116108325794600101939291906108ee565b6109c5906109be8887610811565b5190610825565b60006109d18887610811565b5261097a565b6109e691506109be8886610811565b60006109f28886610811565b5261094d565b610a028683610811565b51610918565b8354855293840193600193840193909101906108d4565b825484529285019260019283019201610885565b600080548083528180526020928301927f290decd9548b62a8d60345a988386fc84ba6bc95484008f6362f93160ef3e56392905b828210610a75575050505090565b835485529384019360019384019390910190610a67565b8181039291600013801582851316918412161761083257565b818102929160008212600160ff1b82141661083257818405149015171561083257565b9190916000838201938412911290801582169115161761083257565b600e54604080516302989b4b60e61b81529092916020916004916001600160a01b039190849082908590829086165afa908115610f4f57600091610f22575b508254811115610e455782917fc06999d659d5132dd93a1915097da1a6a24201916389e38da2404e4bca5e59be858360009486558951908152a1600e5416865192838092631e385f6960e01b82525afa908115610f1757600091610e84575b50805160005403610e4d5760005b600054811015610e4557855190848201914283528188820152878152610bb5816107a5565b60649283915190200660018201808311610e305783908951888101914283528b8201528a8152610be4816107a5565b5190200690610bf2836106ed565b905490600391610c018661075b565b905490841b1c91831b1c90610c1591610a8c565b94610c208588610811565b51610c2a8661075b565b905490841b1c610c3991610a8c565b938185600595828a8854610c4c8c6106b6565b9054908a1b1c610c5b91610aa5565b9260065490610c6991610aa5565b90610c7391610aa5565b05610c7d91610ac8565b9260075490610c8b91610aa5565b90610c9591610aa5565b05610c9f91610ac8565b05610ca9856106b6565b610cc4929082549060031b91821b91600019901b1916179055565b610ccd846106b6565b905490821b1c15947f07f7c34bf0ad986b5a2225a4df1dad20d729c84a018d71cd4202869d1760ffda93608093600197610e0c575b50610d4f610d2d610d128861075b565b905490861b1c610d21896106b6565b905490871b1c90610ac8565b610d368861075b565b90919082549060031b91821b91600019901b1916179055565b6000610d5a8761075b565b905490851b1c12610df0575b610d6f8661075b565b905490841b1c610d7e87610724565b905490851b1c10610dc1575b610d93866106b6565b905490841b1c92610da38761075b565b9054911b1c8c519384528a8401528b8301526060820152a101610b90565b610deb610d2d610dd08861075b565b905490861b1c610ddf89610724565b905490871b1c90610a8c565b610d8a565b610df98661075b565b81549060001990861b1b19169055610d66565b610e15876106b6565b8192915490861b91821b91600019901b191617905538610d02565b601186634e487b7160e01b6000525260246000fd5b505050509050565b5060649184519162461bcd60e51b8352820152601260248201527144696d656e7369756e6920696e6567616c6560701b6044820152fd5b3d8083833e610e9381836107d7565b81019084818303126101205780519067ffffffffffffffff8211610f13570181601f8201121561012057805190610ec9826107f9565b93610ed6895195866107d7565b828552868086019360051b83010193841161011d575085809101915b838310610f03575050505038610b82565b8251815291810191869101610ef2565b8380fd5b85513d6000823e3d90fd5b908482813d8311610f48575b610f3881836107d7565b8101031261011d57505138610b23565b503d610f2e565b86513d6000823e3d90fdfea26469706673582212203bfe6b575bdd886567d45617032e87c0fcb8854d70bf4d6d8624d086eda7ff4f64736f6c63430008170033","opcodes":"PUSH1 0x80 PUSH1 0x40 MSTORE CALLVALUE PUSH3 0x6C8 JUMPI PUSH3 0x175E DUP1 CODESIZE SUB DUP1 PUSH3 0x1D DUP2 PUSH3 0x6CD JUMP JUMPDEST SWAP3 DUP4 CODECOPY DUP2 ADD PUSH2 0x120 DUP3 DUP3 SUB SLT PUSH3 0x6C8 JUMPI DUP2 MLOAD PUSH1 0x1 PUSH1 0x1 PUSH1 0xA0 SHL SUB DUP2 AND SWAP2 SWAP1 DUP3 SWAP1 SUB PUSH3 0x6C8 JUMPI PUSH1 0x20 DUP4 DUP2 ADD MLOAD SWAP1 SWAP4 SWAP1 PUSH1 0x1 PUSH1 0x1 PUSH1 0x40 SHL SUB DUP2 GT PUSH3 0x6C8 JUMPI DUP3 PUSH3 0x6A SWAP2 DUP4 ADD PUSH3 0x70B JUMP JUMPDEST PUSH1 0x40 DUP3 ADD MLOAD PUSH1 0x1 PUSH1 0x1 PUSH1 0x40 SHL SUB DUP2 GT PUSH3 0x6C8 JUMPI DUP4 PUSH3 0x8C SWAP2 DUP5 ADD PUSH3 0x70B JUMP JUMPDEST PUSH1 0x60 DUP4 ADD MLOAD PUSH1 0x1 PUSH1 0x1 PUSH1 0x40 SHL SUB DUP2 GT PUSH3 0x6C8 JUMPI DUP5 PUSH3 0xAE SWAP2 DUP6 ADD PUSH3 0x76F JUMP JUMPDEST PUSH1 0x80 DUP5 ADD MLOAD PUSH1 0x1 PUSH1 0x1 PUSH1 0x40 SHL SUB DUP2 GT PUSH3 0x6C8 JUMPI DUP6 PUSH3 0xD0 SWAP2 DUP7 ADD PUSH3 0x76F JUMP JUMPDEST PUSH1 0xA0 DUP6 ADD MLOAD SWAP1 SWAP3 SWAP1 PUSH1 0x1 PUSH1 0x1 PUSH1 0x40 SHL SUB DUP2 GT PUSH3 0x6C8 JUMPI DUP7 PUSH3 0xF5 SWAP2 DUP8 ADD PUSH3 0x76F JUMP JUMPDEST PUSH1 0xC0 DUP7 ADD MLOAD SWAP1 SWAP5 SWAP1 PUSH1 0x1 PUSH1 0x1 PUSH1 0x40 SHL SUB DUP2 GT PUSH3 0x6C8 JUMPI DUP8 PUSH3 0x11A SWAP2 DUP9 ADD PUSH3 0x76F JUMP JUMPDEST PUSH1 0xE0 DUP8 ADD MLOAD SWAP1 SWAP7 SWAP1 PUSH1 0x1 PUSH1 0x1 PUSH1 0x40 SHL SUB DUP2 GT PUSH3 0x6C8 JUMPI DUP9 PUSH3 0x13F SWAP2 DUP4 ADD PUSH3 0x76F JUMP JUMPDEST PUSH2 0x100 DUP3 ADD MLOAD SWAP1 SWAP9 SWAP1 PUSH1 0x1 PUSH1 0x1 PUSH1 0x40 SHL SUB DUP2 GT PUSH3 0x6C8 JUMPI PUSH3 0x163 SWAP3 ADD PUSH3 0x76F JUMP JUMPDEST PUSH1 0x0 NOT PUSH1 0x3 SSTORE PUSH1 0x32 PUSH1 0x5 SSTORE PUSH1 0x96 PUSH1 0x6 DUP2 SWAP1 SSTORE PUSH1 0x7 SSTORE PUSH1 0xE DUP1 SLOAD PUSH1 0x1 PUSH1 0x1 PUSH1 0xA0 SHL SUB NOT AND SWAP1 SWAP10 OR SWAP1 SWAP9 SSTORE DUP1 MLOAD SWAP2 PUSH1 0x1 PUSH1 0x1 PUSH1 0x40 SHL SUB DUP4 GT PUSH3 0x4A8 JUMPI PUSH9 0x10000000000000000 DUP4 GT PUSH3 0x4A8 JUMPI PUSH1 0x0 SLOAD DUP4 PUSH1 0x0 SSTORE DUP1 DUP5 LT PUSH3 0x69D JUMPI JUMPDEST POP DUP10 DUP3 ADD SWAP3 DUP4 PUSH1 0x0 DUP1 MSTORE DUP12 PUSH1 0x0 KECCAK256 DUP13 PUSH1 0x0 JUMPDEST DUP5 DUP2 LT PUSH3 0x689 JUMPI POP POP DUP4 MLOAD SWAP4 SWAP3 POP POP PUSH1 0x1 PUSH1 0x1 PUSH1 0x40 SHL SUB DUP4 GT SWAP1 POP PUSH3 0x4A8 JUMPI PUSH9 0x10000000000000000 DUP3 GT PUSH3 0x4A8 JUMPI DUP11 SWAP1 PUSH1 0x1 SLOAD DUP4 PUSH1 0x1 SSTORE DUP1 DUP5 LT PUSH3 0x65A JUMPI JUMPDEST POP ADD PUSH1 0x1 PUSH1 0x0 MSTORE DUP11 PUSH1 0x0 KECCAK256 PUSH1 0x0 JUMPDEST DUP4 DUP2 LT PUSH3 0x647 JUMPI POP POP SWAP2 MLOAD SWAP3 SWAP2 POP POP PUSH1 0x1 PUSH1 0x1 PUSH1 0x40 SHL SUB DUP3 GT PUSH3 0x4A8 JUMPI PUSH9 0x10000000000000000 DUP3 GT PUSH3 0x4A8 JUMPI PUSH1 0x2 SLOAD DUP3 PUSH1 0x2 SSTORE DUP1 DUP4 LT PUSH3 0x61B JUMPI JUMPDEST POP PUSH1 0x2 PUSH1 0x0 MSTORE DUP9 PUSH1 0x0 KECCAK256 PUSH1 0x0 JUMPDEST DUP4 DUP2 LT PUSH3 0x608 JUMPI POP POP DUP3 MLOAD SWAP3 SWAP2 POP POP PUSH1 0x1 PUSH1 0x1 PUSH1 0x40 SHL SUB DUP3 GT PUSH3 0x4A8 JUMPI PUSH9 0x10000000000000000 DUP3 GT PUSH3 0x4A8 JUMPI DUP8 SWAP1 PUSH1 0x8 SLOAD DUP4 PUSH1 0x8 SSTORE DUP1 DUP5 LT PUSH3 0x5D9 JUMPI JUMPDEST POP ADD PUSH1 0x8 PUSH1 0x0 MSTORE DUP8 PUSH1 0x0 KECCAK256 PUSH1 0x0 JUMPDEST DUP4 DUP2 LT PUSH3 0x5C6 JUMPI POP POP DUP3 MLOAD SWAP3 SWAP2 POP POP PUSH1 0x1 PUSH1 0x1 PUSH1 0x40 SHL SUB DUP3 GT PUSH3 0x4A8 JUMPI PUSH9 0x10000000000000000 DUP3 GT PUSH3 0x4A8 JUMPI DUP7 SWAP1 PUSH1 0x9 SLOAD DUP4 PUSH1 0x9 SSTORE DUP1 DUP5 LT PUSH3 0x597 JUMPI JUMPDEST POP ADD PUSH1 0x9 PUSH1 0x0 MSTORE DUP7 PUSH1 0x0 KECCAK256 PUSH1 0x0 JUMPDEST DUP4 DUP2 LT PUSH3 0x584 JUMPI POP POP DUP3 MLOAD SWAP3 SWAP2 POP POP PUSH1 0x1 PUSH1 0x1 PUSH1 0x40 SHL SUB DUP3 GT PUSH3 0x4A8 JUMPI PUSH9 0x10000000000000000 DUP3 GT PUSH3 0x4A8 JUMPI DUP6 SWAP1 PUSH1 0xA SLOAD DUP4 PUSH1 0xA SSTORE DUP1 DUP5 LT PUSH3 0x555 JUMPI JUMPDEST POP ADD PUSH1 0xA PUSH1 0x0 MSTORE DUP6 PUSH1 0x0 KECCAK256 PUSH1 0x0 JUMPDEST DUP4 DUP2 LT PUSH3 0x542 JUMPI POP POP DUP3 MLOAD SWAP3 SWAP2 POP POP PUSH1 0x1 PUSH1 0x1 PUSH1 0x40 SHL SUB DUP3 GT PUSH3 0x4A8 JUMPI PUSH9 0x10000000000000000 DUP3 GT PUSH3 0x4A8 JUMPI DUP5 SWAP1 PUSH1 0xB SLOAD DUP4 PUSH1 0xB SSTORE DUP1 DUP5 LT PUSH3 0x513 JUMPI JUMPDEST POP ADD PUSH1 0xB PUSH1 0x0 MSTORE DUP5 PUSH1 0x0 KECCAK256 PUSH1 0x0 JUMPDEST DUP4 DUP2 LT PUSH3 0x500 JUMPI POP POP DUP3 MLOAD SWAP3 SWAP2 POP POP PUSH1 0x1 PUSH1 0x1 PUSH1 0x40 SHL SUB DUP3 GT PUSH3 0x4A8 JUMPI PUSH9 0x10000000000000000 DUP3 GT PUSH3 0x4A8 JUMPI DUP4 SWAP1 PUSH1 0xC SLOAD DUP4 PUSH1 0xC SSTORE DUP1 DUP5 LT PUSH3 0x4D1 JUMPI JUMPDEST POP ADD PUSH1 0xC PUSH1 0x0 MSTORE DUP4 PUSH1 0x0 KECCAK256 PUSH1 0x0 JUMPDEST DUP4 DUP2 LT PUSH3 0x4BE JUMPI DUP5 MLOAD DUP7 SWAP1 DUP7 PUSH1 0x1 PUSH1 0x1 PUSH1 0x40 SHL SUB DUP3 GT PUSH3 0x4A8 JUMPI PUSH9 0x10000000000000000 DUP3 GT PUSH3 0x4A8 JUMPI DUP3 SWAP1 PUSH1 0xD SLOAD DUP4 PUSH1 0xD SSTORE DUP1 DUP5 LT PUSH3 0x479 JUMPI JUMPDEST POP ADD PUSH1 0xD PUSH1 0x0 MSTORE DUP3 PUSH1 0x0 KECCAK256 SWAP3 PUSH1 0x0 JUMPDEST DUP4 DUP2 LT PUSH3 0x466 JUMPI PUSH1 0x40 MLOAD PUSH2 0xF90 SWAP1 DUP2 PUSH3 0x7CE DUP3 CODECOPY RETURN JUMPDEST DUP3 MLOAD DUP6 DUP3 ADD SSTORE SWAP2 DUP2 ADD SWAP2 PUSH1 0x1 ADD PUSH3 0x44E JUMP JUMPDEST PUSH1 0xD PUSH1 0x0 MSTORE DUP4 DUP4 PUSH1 0x0 KECCAK256 SWAP2 DUP3 ADD SWAP2 ADD JUMPDEST DUP2 DUP2 LT PUSH3 0x498 JUMPI POP PUSH3 0x43F JUMP JUMPDEST PUSH1 0x0 DUP2 SSTORE DUP6 SWAP4 POP PUSH1 0x1 ADD PUSH3 0x489 JUMP JUMPDEST PUSH4 0x4E487B71 PUSH1 0xE0 SHL PUSH1 0x0 MSTORE PUSH1 0x41 PUSH1 0x4 MSTORE PUSH1 0x24 PUSH1 0x0 REVERT JUMPDEST DUP3 MLOAD DUP3 DUP3 ADD SSTORE SWAP2 DUP6 ADD SWAP2 PUSH1 0x1 ADD PUSH3 0x400 JUMP JUMPDEST PUSH1 0xC PUSH1 0x0 MSTORE DUP4 DUP4 PUSH1 0x0 KECCAK256 SWAP2 DUP3 ADD SWAP2 ADD JUMPDEST DUP2 DUP2 LT PUSH3 0x4F0 JUMPI POP PUSH3 0x3F2 JUMP JUMPDEST PUSH1 0x0 DUP2 SSTORE DUP7 SWAP4 POP PUSH1 0x1 ADD PUSH3 0x4E1 JUMP JUMPDEST DUP3 MLOAD DUP3 DUP3 ADD SSTORE SWAP2 DUP7 ADD SWAP2 PUSH1 0x1 ADD PUSH3 0x3B0 JUMP JUMPDEST PUSH1 0xB PUSH1 0x0 MSTORE DUP4 DUP4 PUSH1 0x0 KECCAK256 SWAP2 DUP3 ADD SWAP2 ADD JUMPDEST DUP2 DUP2 LT PUSH3 0x532 JUMPI POP PUSH3 0x3A2 JUMP JUMPDEST PUSH1 0x0 DUP2 SSTORE DUP8 SWAP4 POP PUSH1 0x1 ADD PUSH3 0x523 JUMP JUMPDEST DUP3 MLOAD DUP3 DUP3 ADD SSTORE SWAP2 DUP8 ADD SWAP2 PUSH1 0x1 ADD PUSH3 0x360 JUMP JUMPDEST PUSH1 0xA PUSH1 0x0 MSTORE DUP4 DUP4 PUSH1 0x0 KECCAK256 SWAP2 DUP3 ADD SWAP2 ADD JUMPDEST DUP2 DUP2 LT PUSH3 0x574 JUMPI POP PUSH3 0x352 JUMP JUMPDEST PUSH1 0x0 DUP2 SSTORE DUP9 SWAP4 POP PUSH1 0x1 ADD PUSH3 0x565 JUMP JUMPDEST DUP3 MLOAD DUP3 DUP3 ADD SSTORE SWAP2 DUP9 ADD SWAP2 PUSH1 0x1 ADD PUSH3 0x310 JUMP JUMPDEST PUSH1 0x9 PUSH1 0x0 MSTORE DUP4 DUP4 PUSH1 0x0 KECCAK256 SWAP2 DUP3 ADD SWAP2 ADD JUMPDEST DUP2 DUP2 LT PUSH3 0x5B6 JUMPI POP PUSH3 0x302 JUMP JUMPDEST PUSH1 0x0 DUP2 SSTORE DUP10 SWAP4 POP PUSH1 0x1 ADD PUSH3 0x5A7 JUMP JUMPDEST DUP3 MLOAD DUP3 DUP3 ADD SSTORE SWAP2 DUP10 ADD SWAP2 PUSH1 0x1 ADD PUSH3 0x2C0 JUMP JUMPDEST PUSH1 0x8 PUSH1 0x0 MSTORE DUP4 DUP4 PUSH1 0x0 KECCAK256 SWAP2 DUP3 ADD SWAP2 ADD JUMPDEST DUP2 DUP2 LT PUSH3 0x5F8 JUMPI POP PUSH3 0x2B2 JUMP JUMPDEST PUSH1 0x0 DUP2 SSTORE DUP11 SWAP4 POP PUSH1 0x1 ADD PUSH3 0x5E9 JUMP JUMPDEST DUP3 MLOAD DUP3 DUP3 ADD SSTORE SWAP2 DUP11 ADD SWAP2 PUSH1 0x1 ADD PUSH3 0x270 JUMP JUMPDEST PUSH1 0x2 PUSH1 0x0 MSTORE DUP3 DUP11 PUSH1 0x0 KECCAK256 SWAP2 DUP3 ADD SWAP2 ADD JUMPDEST DUP2 DUP2 LT PUSH3 0x63A JUMPI POP PUSH3 0x263 JUMP JUMPDEST PUSH1 0x0 DUP2 SSTORE PUSH1 0x1 ADD PUSH3 0x62B JUMP JUMPDEST DUP3 MLOAD DUP3 DUP3 ADD SSTORE SWAP2 DUP13 ADD SWAP2 PUSH1 0x1 ADD PUSH3 0x223 JUMP JUMPDEST PUSH1 0x1 PUSH1 0x0 MSTORE DUP4 DUP4 PUSH1 0x0 KECCAK256 SWAP2 DUP3 ADD SWAP2 ADD JUMPDEST DUP2 DUP2 LT PUSH3 0x679 JUMPI POP PUSH3 0x215 JUMP JUMPDEST PUSH1 0x0 DUP2 SSTORE DUP14 SWAP4 POP PUSH1 0x1 ADD PUSH3 0x66A JUMP JUMPDEST DUP4 MLOAD DUP4 DUP3 ADD SSTORE SWAP3 ADD SWAP2 DUP14 SWAP1 PUSH1 0x1 ADD PUSH3 0x1D1 JUMP JUMPDEST PUSH1 0x0 DUP1 MSTORE DUP4 DUP12 PUSH1 0x0 KECCAK256 SWAP2 DUP3 ADD SWAP2 ADD JUMPDEST DUP2 DUP2 LT PUSH3 0x6BB JUMPI POP PUSH3 0x1BF JUMP JUMPDEST PUSH1 0x0 DUP2 SSTORE PUSH1 0x1 ADD PUSH3 0x6AC JUMP JUMPDEST PUSH1 0x0 DUP1 REVERT JUMPDEST PUSH1 0x40 MLOAD SWAP2 SWAP1 PUSH1 0x1F ADD PUSH1 0x1F NOT AND DUP3 ADD PUSH1 0x1 PUSH1 0x1 PUSH1 0x40 SHL SUB DUP2 GT DUP4 DUP3 LT OR PUSH3 0x4A8 JUMPI PUSH1 0x40 MSTORE JUMP JUMPDEST PUSH1 0x1 PUSH1 0x1 PUSH1 0x40 SHL SUB DUP2 GT PUSH3 0x4A8 JUMPI PUSH1 0x5 SHL PUSH1 0x20 ADD SWAP1 JUMP JUMPDEST SWAP1 DUP1 PUSH1 0x1F DUP4 ADD SLT ISZERO PUSH3 0x6C8 JUMPI DUP2 MLOAD SWAP1 PUSH1 0x20 SWAP2 PUSH3 0x733 PUSH3 0x72D DUP3 PUSH3 0x6F3 JUMP JUMPDEST PUSH3 0x6CD JUMP JUMPDEST SWAP4 PUSH1 0x20 DUP1 DUP7 DUP5 DUP2 MSTORE ADD SWAP3 PUSH1 0x5 SHL DUP3 ADD ADD SWAP3 DUP4 GT PUSH3 0x6C8 JUMPI PUSH1 0x20 ADD SWAP1 JUMPDEST DUP3 DUP3 LT PUSH3 0x75F JUMPI POP POP POP POP SWAP1 JUMP JUMPDEST DUP2 MLOAD DUP2 MSTORE SWAP1 DUP4 ADD SWAP1 DUP4 ADD PUSH3 0x750 JUMP JUMPDEST SWAP1 DUP1 PUSH1 0x1F DUP4 ADD SLT ISZERO PUSH3 0x6C8 JUMPI DUP2 MLOAD SWAP1 PUSH1 0x20 SWAP2 PUSH3 0x791 PUSH3 0x72D DUP3 PUSH3 0x6F3 JUMP JUMPDEST SWAP4 PUSH1 0x20 DUP1 DUP7 DUP5 DUP2 MSTORE ADD SWAP3 PUSH1 0x5 SHL DUP3 ADD ADD SWAP3 DUP4 GT PUSH3 0x6C8 JUMPI PUSH1 0x20 ADD SWAP1 JUMPDEST DUP3 DUP3 LT PUSH3 0x7BD JUMPI POP POP POP POP SWAP1 JUMP JUMPDEST DUP2 MLOAD DUP2 MSTORE SWAP1 DUP4 ADD SWAP1 DUP4 ADD PUSH3 0x7AE JUMP INVALID PUSH1 0x40 PUSH1 0x80 DUP2 MSTORE PUSH1 0x4 SWAP1 DUP2 CALLDATASIZE LT ISZERO PUSH2 0x15 JUMPI PUSH1 0x0 DUP1 REVERT JUMPDEST PUSH1 0x0 SWAP2 DUP3 CALLDATALOAD PUSH1 0xE0 SHR DUP1 PUSH4 0x16B51928 EQ PUSH2 0x643 JUMPI DUP1 PUSH4 0x205C9CC7 EQ PUSH2 0x624 JUMPI DUP1 PUSH4 0x364132D9 EQ PUSH2 0x591 JUMPI DUP1 PUSH4 0x48E257CB EQ PUSH2 0x572 JUMPI DUP1 PUSH4 0x4D985AE4 EQ PUSH2 0x553 JUMPI DUP1 PUSH4 0x4EB274FF EQ PUSH2 0x506 JUMPI DUP1 PUSH4 0x5F57697C EQ PUSH2 0x4E7 JUMPI DUP1 PUSH4 0x6F240774 EQ PUSH2 0x4BD JUMPI DUP1 PUSH4 0x90CCFA0F EQ PUSH2 0x494 JUMPI DUP1 PUSH4 0x96D14DA6 EQ PUSH2 0x447 JUMPI DUP1 PUSH4 0x973B9CC1 EQ PUSH2 0x251 JUMPI DUP1 PUSH4 0xA86853D5 EQ PUSH2 0x227 JUMPI DUP1 PUSH4 0xAB1BBECA EQ PUSH2 0x1D7 JUMPI DUP1 PUSH4 0xB6CE6709 EQ PUSH2 0x187 JUMPI DUP1 PUSH4 0xD0C6C7AF EQ PUSH2 0x16A JUMPI DUP1 PUSH4 0xE329143F EQ PUSH2 0x140 JUMPI DUP1 PUSH4 0xF6451C0A EQ PUSH2 0x124 JUMPI PUSH4 0xF7A95A9E EQ PUSH2 0xE7 JUMPI PUSH1 0x0 DUP1 REVERT JUMPDEST CALLVALUE PUSH2 0x120 JUMPI PUSH1 0x20 CALLDATASIZE PUSH1 0x3 NOT ADD SLT PUSH2 0x120 JUMPI CALLDATALOAD SWAP2 DUP1 SLOAD DUP4 LT ISZERO PUSH2 0x11D JUMPI POP PUSH2 0x10F PUSH1 0x20 SWAP3 PUSH2 0x75B JUMP JUMPDEST SWAP2 SWAP1 SLOAD SWAP1 MLOAD SWAP2 PUSH1 0x3 SHL SHR DUP2 MSTORE RETURN JUMPDEST DUP1 REVERT JUMPDEST DUP3 DUP1 REVERT JUMPDEST DUP4 CALLVALUE PUSH2 0x11D JUMPI DUP1 PUSH1 0x3 NOT CALLDATASIZE ADD SLT PUSH2 0x11D JUMPI PUSH2 0x13D PUSH2 0xAE4 JUMP JUMPDEST DUP1 RETURN JUMPDEST POP CALLVALUE PUSH2 0x120 JUMPI PUSH1 0x20 CALLDATASIZE PUSH1 0x3 NOT ADD SLT PUSH2 0x120 JUMPI CALLDATALOAD SWAP2 PUSH1 0xD SLOAD DUP4 LT ISZERO PUSH2 0x11D JUMPI POP PUSH2 0x10F PUSH1 0x20 SWAP3 PUSH2 0x724 JUMP JUMPDEST POP CALLVALUE PUSH2 0x120 JUMPI DUP3 PUSH1 0x3 NOT CALLDATASIZE ADD SLT PUSH2 0x120 JUMPI PUSH1 0x20 SWAP3 POP SLOAD SWAP1 MLOAD SWAP1 DUP2 MSTORE RETURN JUMPDEST POP CALLVALUE PUSH2 0x120 JUMPI PUSH1 0x20 CALLDATASIZE PUSH1 0x3 NOT ADD SLT PUSH2 0x120 JUMPI CALLDATALOAD PUSH1 0xB SLOAD DUP2 LT ISZERO PUSH2 0x120 JUMPI PUSH1 0x20 SWAP3 POP PUSH1 0xB PUSH1 0x0 MSTORE PUSH32 0x175B7A638427703F0DBE7BB9BBF987A2551717B34E79F33B5B1008D1FA01DB9 ADD SLOAD SWAP1 MLOAD SWAP1 DUP2 MSTORE RETURN JUMPDEST POP CALLVALUE PUSH2 0x120 JUMPI PUSH1 0x20 CALLDATASIZE PUSH1 0x3 NOT ADD SLT PUSH2 0x120 JUMPI CALLDATALOAD PUSH1 0x9 SLOAD DUP2 LT ISZERO PUSH2 0x120 JUMPI PUSH1 0x20 SWAP3 POP PUSH1 0x9 PUSH1 0x0 MSTORE PUSH32 0x6E1540171B6C0C960B71A7020D9F60077F6AF931A8BBF590DA0223DACF75C7AF ADD SLOAD SWAP1 MLOAD SWAP1 DUP2 MSTORE RETURN JUMPDEST POP CALLVALUE PUSH2 0x120 JUMPI PUSH1 0x20 CALLDATASIZE PUSH1 0x3 NOT ADD SLT PUSH2 0x120 JUMPI CALLDATALOAD SWAP2 PUSH1 0x2 SLOAD DUP4 LT ISZERO PUSH2 0x11D JUMPI POP PUSH2 0x10F PUSH1 0x20 SWAP3 PUSH2 0x6ED JUMP JUMPDEST POP SWAP2 SWAP1 CALLVALUE PUSH2 0x443 JUMPI DUP2 PUSH1 0x3 NOT CALLDATASIZE ADD SLT PUSH2 0x443 JUMPI PUSH2 0x282 DUP2 MLOAD PUSH2 0x27D DUP2 PUSH2 0x276 DUP2 PUSH2 0xA33 JUMP JUMPDEST SUB DUP3 PUSH2 0x7D7 JUMP JUMPDEST PUSH2 0x848 JUMP JUMPDEST SWAP3 PUSH1 0x3 SLOAD DUP5 LT PUSH2 0x31A JUMPI JUMPDEST PUSH1 0xE SLOAD SWAP3 SWAP4 DUP5 SWAP4 PUSH1 0x1 PUSH1 0x1 PUSH1 0xA0 SHL SUB AND SWAP1 DUP2 EXTCODESIZE ISZERO PUSH2 0x316 JUMPI DUP5 SWAP2 DUP5 MLOAD DUP1 SWAP7 DUP2 DUP1 SWAP5 PUSH4 0x2B64B979 PUSH1 0xE0 SHL DUP3 MSTORE DUP9 DUP9 DUP4 ADD MSTORE PUSH2 0x2C9 PUSH1 0x44 DUP4 ADD PUSH2 0xA33 JUMP JUMPDEST SWAP1 PUSH1 0x24 DUP4 ADD MSTORE SUB SWAP3 GAS CALL DUP1 ISZERO PUSH2 0x30C JUMPI PUSH2 0x2E1 JUMPI DUP4 DUP1 RETURN JUMPDEST PUSH8 0xFFFFFFFFFFFFFFFF DUP4 GT PUSH2 0x2F9 JUMPI POP MSTORE CODESIZE DUP1 DUP1 DUP4 DUP1 RETURN JUMPDEST PUSH4 0x4E487B71 PUSH1 0xE0 SHL DUP5 MSTORE PUSH1 0x41 SWAP1 MSTORE PUSH1 0x24 DUP4 REVERT JUMPDEST DUP3 MLOAD RETURNDATASIZE DUP7 DUP3 RETURNDATACOPY RETURNDATASIZE SWAP1 REVERT JUMPDEST DUP5 DUP1 REVERT JUMPDEST DUP4 PUSH1 0x3 SSTORE DUP3 SLOAD SWAP4 PUSH8 0xFFFFFFFFFFFFFFFF DUP6 GT PUSH2 0x430 JUMPI PUSH9 0x10000000000000000 DUP6 GT PUSH2 0x430 JUMPI PUSH1 0x2 SLOAD DUP6 PUSH1 0x2 SSTORE DUP1 DUP7 LT PUSH2 0x3F0 JUMPI JUMPDEST POP PUSH32 0x290DECD9548B62A8D60345A988386FC84BA6BC95484008F6362F93160EF3E563 SWAP5 PUSH1 0x2 DUP6 MSTORE DUP6 SLOAD DUP6 SWAP1 JUMPDEST DUP3 DUP3 LT PUSH2 0x3BA JUMPI POP POP POP DUP4 SWAP5 POP DUP3 MLOAD DUP2 DUP2 MSTORE PUSH32 0x60B985A91456CAF8829CC2CCE7ADB4018CACDFCD3C752494FCE97C6862F83A8A PUSH1 0x20 ADDRESS SWAP3 LOG2 SWAP4 POP PUSH2 0x28D JUMP JUMPDEST PUSH1 0x1 DUP1 SWAP2 SWAP9 ADD SWAP2 DUP3 SLOAD SWAP9 DUP2 PUSH32 0x405787FA12A823E0F2B7631CC41B3BA8828B3321CA811111FA75CD3AA3BB5ACE ADD SSTORE ADD SWAP1 SWAP7 PUSH2 0x37B JUMP JUMPDEST DUP6 PUSH32 0x405787FA12A823E0F2B7631CC41B3BA8828B3321CA811111FA75CD3AA3BB5ACE SWAP2 DUP3 ADD SWAP2 ADD JUMPDEST DUP2 DUP2 LT PUSH2 0x425 JUMPI POP PUSH2 0x34F JUMP JUMPDEST DUP6 DUP2 SSTORE PUSH1 0x1 ADD PUSH2 0x418 JUMP JUMPDEST PUSH4 0x4E487B71 PUSH1 0xE0 SHL DUP5 MSTORE PUSH1 0x41 DUP3 MSTORE PUSH1 0x24 DUP5 REVERT JUMPDEST POP DUP1 REVERT JUMPDEST POP CALLVALUE PUSH2 0x120 JUMPI PUSH1 0x20 CALLDATASIZE PUSH1 0x3 NOT ADD SLT PUSH2 0x120 JUMPI CALLDATALOAD PUSH1 0xA SLOAD DUP2 LT ISZERO PUSH2 0x120 JUMPI PUSH1 0xA PUSH1 0x20 SWAP4 MSTORE PUSH32 0xC65A7BB8D6351C1CF70C95A316CC6A92839C986682D98BC35F958F4883F9D2A8 ADD SLOAD SWAP1 MLOAD SWAP1 DUP2 MSTORE RETURN JUMPDEST POP POP CALLVALUE PUSH2 0x443 JUMPI DUP2 PUSH1 0x3 NOT CALLDATASIZE ADD SLT PUSH2 0x443 JUMPI PUSH1 0xE SLOAD SWAP1 MLOAD PUSH1 0x1 PUSH1 0x1 PUSH1 0xA0 SHL SUB SWAP1 SWAP2 AND DUP2 MSTORE PUSH1 0x20 SWAP1 RETURN JUMPDEST POP CALLVALUE PUSH2 0x120 JUMPI PUSH1 0x20 CALLDATASIZE PUSH1 0x3 NOT ADD SLT PUSH2 0x120 JUMPI CALLDATALOAD SWAP2 PUSH1 0x1 SLOAD DUP4 LT ISZERO PUSH2 0x11D JUMPI POP PUSH2 0x10F PUSH1 0x20 SWAP3 PUSH2 0x6B6 JUMP JUMPDEST POP POP CALLVALUE PUSH2 0x443 JUMPI DUP2 PUSH1 0x3 NOT CALLDATASIZE ADD SLT PUSH2 0x443 JUMPI PUSH1 0x20 SWAP1 PUSH1 0x6 SLOAD SWAP1 MLOAD SWAP1 DUP2 MSTORE RETURN JUMPDEST POP CALLVALUE PUSH2 0x120 JUMPI PUSH1 0x20 CALLDATASIZE PUSH1 0x3 NOT ADD SLT PUSH2 0x120 JUMPI CALLDATALOAD PUSH1 0xC SLOAD DUP2 LT ISZERO PUSH2 0x120 JUMPI PUSH1 0xC PUSH1 0x20 SWAP4 MSTORE PUSH32 0xDF6966C971051C3D54EC59162606531493A51404A002842F56009D7E5CF4A8C7 ADD SLOAD SWAP1 MLOAD SWAP1 DUP2 MSTORE RETURN JUMPDEST POP POP CALLVALUE PUSH2 0x443 JUMPI DUP2 PUSH1 0x3 NOT CALLDATASIZE ADD SLT PUSH2 0x443 JUMPI PUSH1 0x20 SWAP1 PUSH1 0x3 SLOAD SWAP1 MLOAD SWAP1 DUP2 MSTORE RETURN JUMPDEST POP POP CALLVALUE PUSH2 0x443 JUMPI DUP2 PUSH1 0x3 NOT CALLDATASIZE ADD SLT PUSH2 0x443 JUMPI PUSH1 0x20 SWAP1 PUSH1 0x7 SLOAD SWAP1 MLOAD SWAP1 DUP2 MSTORE RETURN JUMPDEST POP SWAP2 CALLVALUE PUSH2 0x11D JUMPI PUSH1 0x20 SWAP1 PUSH1 0x20 PUSH1 0x3 NOT CALLDATASIZE ADD SLT PUSH2 0x11D JUMPI DUP4 CALLDATALOAD SWAP4 PUSH8 0xFFFFFFFFFFFFFFFF DUP6 GT PUSH2 0x443 JUMPI CALLDATASIZE PUSH1 0x23 DUP7 ADD SLT ISZERO PUSH2 0x443 JUMPI DUP5 ADD CALLDATALOAD PUSH2 0x5D0 DUP2 PUSH2 0x7F9 JUMP JUMPDEST SWAP5 PUSH2 0x5DD DUP6 MLOAD SWAP7 DUP8 PUSH2 0x7D7 JUMP JUMPDEST DUP2 DUP7 MSTORE PUSH1 0x24 PUSH1 0x20 DUP8 ADD SWAP3 PUSH1 0x5 SHL DUP3 ADD ADD SWAP3 CALLDATASIZE DUP5 GT PUSH2 0x11D JUMPI POP PUSH1 0x24 ADD SWAP1 JUMPDEST DUP3 DUP3 LT PUSH2 0x615 JUMPI PUSH1 0x20 DUP6 PUSH2 0x60E DUP9 PUSH2 0x848 JUMP JUMPDEST SWAP1 MLOAD SWAP1 DUP2 MSTORE RETURN JUMPDEST DUP2 CALLDATALOAD DUP2 MSTORE SWAP1 DUP4 ADD SWAP1 DUP4 ADD PUSH2 0x5FB JUMP JUMPDEST POP POP CALLVALUE PUSH2 0x443 JUMPI DUP2 PUSH1 0x3 NOT CALLDATASIZE ADD SLT PUSH2 0x443 JUMPI PUSH1 0x20 SWAP1 PUSH1 0x5 SLOAD SWAP1 MLOAD SWAP1 DUP2 MSTORE RETURN JUMPDEST POP CALLVALUE PUSH2 0x120 JUMPI PUSH1 0x20 CALLDATASIZE PUSH1 0x3 NOT ADD SLT PUSH2 0x120 JUMPI CALLDATALOAD SWAP2 PUSH1 0x8 SLOAD DUP4 LT ISZERO PUSH2 0x11D JUMPI POP PUSH2 0x10F PUSH1 0x20 SWAP3 JUMPDEST PUSH1 0x8 SLOAD DUP2 LT ISZERO PUSH2 0x6A0 JUMPI PUSH1 0x8 PUSH1 0x0 MSTORE PUSH32 0xF3F7A9FE364FAAB93B216DA50A3214154F22A0A2B415B23A84C8169E8B636EE3 ADD SWAP1 PUSH1 0x0 SWAP1 JUMP JUMPDEST PUSH4 0x4E487B71 PUSH1 0xE0 SHL PUSH1 0x0 MSTORE PUSH1 0x32 PUSH1 0x4 MSTORE PUSH1 0x24 PUSH1 0x0 REVERT JUMPDEST PUSH1 0x1 SLOAD DUP2 LT ISZERO PUSH2 0x6A0 JUMPI PUSH1 0x1 PUSH1 0x0 MSTORE PUSH32 0xB10E2D527612073B26EECDFD717E6A320CF44B4AFAC2B0732D9FCBE2B7FA0CF6 ADD SWAP1 PUSH1 0x0 SWAP1 JUMP JUMPDEST PUSH1 0x2 SLOAD DUP2 LT ISZERO PUSH2 0x6A0 JUMPI PUSH1 0x2 PUSH1 0x0 MSTORE PUSH32 0x405787FA12A823E0F2B7631CC41B3BA8828B3321CA811111FA75CD3AA3BB5ACE ADD SWAP1 PUSH1 0x0 SWAP1 JUMP JUMPDEST PUSH1 0xD SLOAD DUP2 LT ISZERO PUSH2 0x6A0 JUMPI PUSH1 0xD PUSH1 0x0 MSTORE PUSH32 0xD7B6990105719101DABEB77144F2A3385C8033ACD3AF97E9423A695E81AD1EB5 ADD SWAP1 PUSH1 0x0 SWAP1 JUMP JUMPDEST SWAP1 PUSH1 0x0 SWAP2 DUP3 SLOAD DUP2 LT ISZERO PUSH2 0x791 JUMPI DUP3 DUP1 MSTORE PUSH32 0x290DECD9548B62A8D60345A988386FC84BA6BC95484008F6362F93160EF3E563 ADD SWAP2 SWAP1 JUMP JUMPDEST PUSH4 0x4E487B71 PUSH1 0xE0 SHL DUP4 MSTORE PUSH1 0x32 PUSH1 0x4 MSTORE PUSH1 0x24 DUP4 REVERT JUMPDEST PUSH1 0x60 DUP2 ADD SWAP1 DUP2 LT PUSH8 0xFFFFFFFFFFFFFFFF DUP3 GT OR PUSH2 0x7C1 JUMPI PUSH1 0x40 MSTORE JUMP JUMPDEST PUSH4 0x4E487B71 PUSH1 0xE0 SHL PUSH1 0x0 MSTORE PUSH1 0x41 PUSH1 0x4 MSTORE PUSH1 0x24 PUSH1 0x0 REVERT JUMPDEST SWAP1 PUSH1 0x1F DUP1 NOT SWAP2 ADD AND DUP2 ADD SWAP1 DUP2 LT PUSH8 0xFFFFFFFFFFFFFFFF DUP3 GT OR PUSH2 0x7C1 JUMPI PUSH1 0x40 MSTORE JUMP JUMPDEST PUSH8 0xFFFFFFFFFFFFFFFF DUP2 GT PUSH2 0x7C1 JUMPI PUSH1 0x5 SHL PUSH1 0x20 ADD SWAP1 JUMP JUMPDEST DUP1 MLOAD DUP3 LT ISZERO PUSH2 0x6A0 JUMPI PUSH1 0x20 SWAP2 PUSH1 0x5 SHL ADD ADD SWAP1 JUMP JUMPDEST SWAP2 SWAP1 DUP3 SUB SWAP2 DUP3 GT PUSH2 0x832 JUMPI JUMP JUMPDEST PUSH4 0x4E487B71 PUSH1 0xE0 SHL PUSH1 0x0 MSTORE PUSH1 0x11 PUSH1 0x4 MSTORE PUSH1 0x24 PUSH1 0x0 REVERT JUMPDEST PUSH1 0x0 SWAP1 DUP1 MLOAD PUSH1 0x40 MLOAD DUP1 PUSH1 0xA SLOAD DUP1 DUP4 MSTORE PUSH1 0x20 DUP1 SWAP4 ADD SWAP1 PUSH1 0xA DUP8 MSTORE PUSH32 0xC65A7BB8D6351C1CF70C95A316CC6A92839C986682D98BC35F958F4883F9D2A8 SWAP1 DUP8 JUMPDEST DUP2 DUP2 LT PUSH2 0xA1F JUMPI POP POP POP DUP2 PUSH2 0x89B SWAP2 SUB DUP3 PUSH2 0x7D7 JUMP JUMPDEST PUSH1 0x40 MLOAD DUP1 SWAP3 PUSH1 0x20 PUSH1 0xC SLOAD SWAP3 DUP4 DUP2 MSTORE ADD SWAP2 PUSH1 0xC DUP9 MSTORE PUSH32 0xDF6966C971051C3D54EC59162606531493A51404A002842F56009D7E5CF4A8C7 SWAP2 DUP9 SWAP1 JUMPDEST DUP3 DUP3 LT PUSH2 0xA08 JUMPI POP POP POP POP DUP3 PUSH2 0x8EB SWAP2 SUB DUP4 PUSH2 0x7D7 JUMP JUMPDEST DUP5 SWAP4 JUMPDEST DUP4 DUP6 LT PUSH2 0x8FD JUMPI POP POP POP POP POP SWAP1 JUMP JUMPDEST SWAP1 SWAP2 SWAP3 SWAP4 SWAP5 PUSH1 0x0 PUSH2 0x90E DUP8 DUP5 PUSH2 0x811 JUMP JUMPDEST MLOAD SLT ISZERO PUSH2 0x9F8 JUMPI PUSH1 0x0 JUMPDEST DUP1 DUP1 PUSH2 0x924 DUP10 DUP8 PUSH2 0x811 JUMP JUMPDEST MLOAD LT PUSH2 0x9D7 JUMPI POP PUSH2 0x93F SWAP1 PUSH2 0x939 DUP9 DUP7 PUSH2 0x811 JUMP JUMPDEST MLOAD PUSH2 0x825 JUMP JUMPDEST PUSH2 0x949 DUP8 DUP6 PUSH2 0x811 JUMP JUMPDEST MSTORE PUSH1 0x0 JUMPDEST DUP1 PUSH2 0x958 DUP9 DUP8 PUSH2 0x811 JUMP JUMPDEST MLOAD LT PUSH2 0x9B0 JUMPI PUSH2 0x96C SWAP1 PUSH2 0x939 DUP9 DUP8 PUSH2 0x811 JUMP JUMPDEST PUSH2 0x976 DUP8 DUP7 PUSH2 0x811 JUMP JUMPDEST MSTORE PUSH1 0x0 JUMPDEST PUSH2 0x983 DUP8 PUSH2 0x669 JUMP JUMPDEST SWAP1 SLOAD SWAP1 PUSH1 0x3 SHL SHR DUP2 DUP2 MUL SWAP2 DUP2 DUP4 DIV EQ SWAP1 ISZERO OR ISZERO PUSH2 0x832 JUMPI DUP2 ADD DUP1 SWAP2 GT PUSH2 0x832 JUMPI SWAP5 PUSH1 0x1 ADD SWAP4 SWAP3 SWAP2 SWAP1 PUSH2 0x8EE JUMP JUMPDEST PUSH2 0x9C5 SWAP1 PUSH2 0x9BE DUP9 DUP8 PUSH2 0x811 JUMP JUMPDEST MLOAD SWAP1 PUSH2 0x825 JUMP JUMPDEST PUSH1 0x0 PUSH2 0x9D1 DUP9 DUP8 PUSH2 0x811 JUMP JUMPDEST MSTORE PUSH2 0x97A JUMP JUMPDEST PUSH2 0x9E6 SWAP2 POP PUSH2 0x9BE DUP9 DUP7 PUSH2 0x811 JUMP JUMPDEST PUSH1 0x0 PUSH2 0x9F2 DUP9 DUP7 PUSH2 0x811 JUMP JUMPDEST MSTORE PUSH2 0x94D JUMP JUMPDEST PUSH2 0xA02 DUP7 DUP4 PUSH2 0x811 JUMP JUMPDEST MLOAD PUSH2 0x918 JUMP JUMPDEST DUP4 SLOAD DUP6 MSTORE SWAP4 DUP5 ADD SWAP4 PUSH1 0x1 SWAP4 DUP5 ADD SWAP4 SWAP1 SWAP2 ADD SWAP1 PUSH2 0x8D4 JUMP JUMPDEST DUP3 SLOAD DUP5 MSTORE SWAP3 DUP6 ADD SWAP3 PUSH1 0x1 SWAP3 DUP4 ADD SWAP3 ADD PUSH2 0x885 JUMP JUMPDEST PUSH1 0x0 DUP1 SLOAD DUP1 DUP4 MSTORE DUP2 DUP1 MSTORE PUSH1 0x20 SWAP3 DUP4 ADD SWAP3 PUSH32 0x290DECD9548B62A8D60345A988386FC84BA6BC95484008F6362F93160EF3E563 SWAP3 SWAP1 JUMPDEST DUP3 DUP3 LT PUSH2 0xA75 JUMPI POP POP POP POP SWAP1 JUMP JUMPDEST DUP4 SLOAD DUP6 MSTORE SWAP4 DUP5 ADD SWAP4 PUSH1 0x1 SWAP4 DUP5 ADD SWAP4 SWAP1 SWAP2 ADD SWAP1 PUSH2 0xA67 JUMP JUMPDEST DUP2 DUP2 SUB SWAP3 SWAP2 PUSH1 0x0 SGT DUP1 ISZERO DUP3 DUP6 SGT AND SWAP2 DUP5 SLT AND OR PUSH2 0x832 JUMPI JUMP JUMPDEST DUP2 DUP2 MUL SWAP3 SWAP2 PUSH1 0x0 DUP3 SLT PUSH1 0x1 PUSH1 0xFF SHL DUP3 EQ AND PUSH2 0x832 JUMPI DUP2 DUP5 SDIV EQ SWAP1 ISZERO OR ISZERO PUSH2 0x832 JUMPI JUMP JUMPDEST SWAP2 SWAP1 SWAP2 PUSH1 0x0 DUP4 DUP3 ADD SWAP4 DUP5 SLT SWAP2 SLT SWAP1 DUP1 ISZERO DUP3 AND SWAP2 ISZERO AND OR PUSH2 0x832 JUMPI JUMP JUMPDEST PUSH1 0xE SLOAD PUSH1 0x40 DUP1 MLOAD PUSH4 0x2989B4B PUSH1 0xE6 SHL DUP2 MSTORE SWAP1 SWAP3 SWAP2 PUSH1 0x20 SWAP2 PUSH1 0x4 SWAP2 PUSH1 0x1 PUSH1 0x1 PUSH1 0xA0 SHL SUB SWAP2 SWAP1 DUP5 SWAP1 DUP3 SWAP1 DUP6 SWAP1 DUP3 SWAP1 DUP7 AND GAS STATICCALL SWAP1 DUP2 ISZERO PUSH2 0xF4F JUMPI PUSH1 0x0 SWAP2 PUSH2 0xF22 JUMPI JUMPDEST POP DUP3 SLOAD DUP2 GT ISZERO PUSH2 0xE45 JUMPI DUP3 SWAP2 PUSH32 0xC06999D659D5132DD93A1915097DA1A6A24201916389E38DA2404E4BCA5E59BE DUP6 DUP4 PUSH1 0x0 SWAP5 DUP7 SSTORE DUP10 MLOAD SWAP1 DUP2 MSTORE LOG1 PUSH1 0xE SLOAD AND DUP7 MLOAD SWAP3 DUP4 DUP1 SWAP3 PUSH4 0x1E385F69 PUSH1 0xE0 SHL DUP3 MSTORE GAS STATICCALL SWAP1 DUP2 ISZERO PUSH2 0xF17 JUMPI PUSH1 0x0 SWAP2 PUSH2 0xE84 JUMPI JUMPDEST POP DUP1 MLOAD PUSH1 0x0 SLOAD SUB PUSH2 0xE4D JUMPI PUSH1 0x0 JUMPDEST PUSH1 0x0 SLOAD DUP2 LT ISZERO PUSH2 0xE45 JUMPI DUP6 MLOAD SWAP1 DUP5 DUP3 ADD SWAP2 TIMESTAMP DUP4 MSTORE DUP2 DUP9 DUP3 ADD MSTORE DUP8 DUP2 MSTORE PUSH2 0xBB5 DUP2 PUSH2 0x7A5 JUMP JUMPDEST PUSH1 0x64 SWAP3 DUP4 SWAP2 MLOAD SWAP1 KECCAK256 MOD PUSH1 0x1 DUP3 ADD DUP1 DUP4 GT PUSH2 0xE30 JUMPI DUP4 SWAP1 DUP10 MLOAD DUP9 DUP2 ADD SWAP2 TIMESTAMP DUP4 MSTORE DUP12 DUP3 ADD MSTORE DUP11 DUP2 MSTORE PUSH2 0xBE4 DUP2 PUSH2 0x7A5 JUMP JUMPDEST MLOAD SWAP1 KECCAK256 MOD SWAP1 PUSH2 0xBF2 DUP4 PUSH2 0x6ED JUMP JUMPDEST SWAP1 SLOAD SWAP1 PUSH1 0x3 SWAP2 PUSH2 0xC01 DUP7 PUSH2 0x75B JUMP JUMPDEST SWAP1 SLOAD SWAP1 DUP5 SHL SHR SWAP2 DUP4 SHL SHR SWAP1 PUSH2 0xC15 SWAP2 PUSH2 0xA8C JUMP JUMPDEST SWAP5 PUSH2 0xC20 DUP6 DUP9 PUSH2 0x811 JUMP JUMPDEST MLOAD PUSH2 0xC2A DUP7 PUSH2 0x75B JUMP JUMPDEST SWAP1 SLOAD SWAP1 DUP5 SHL SHR PUSH2 0xC39 SWAP2 PUSH2 0xA8C JUMP JUMPDEST SWAP4 DUP2 DUP6 PUSH1 0x5 SWAP6 DUP3 DUP11 DUP9 SLOAD PUSH2 0xC4C DUP13 PUSH2 0x6B6 JUMP JUMPDEST SWAP1 SLOAD SWAP1 DUP11 SHL SHR PUSH2 0xC5B SWAP2 PUSH2 0xAA5 JUMP JUMPDEST SWAP3 PUSH1 0x6 SLOAD SWAP1 PUSH2 0xC69 SWAP2 PUSH2 0xAA5 JUMP JUMPDEST SWAP1 PUSH2 0xC73 SWAP2 PUSH2 0xAA5 JUMP JUMPDEST SDIV PUSH2 0xC7D SWAP2 PUSH2 0xAC8 JUMP JUMPDEST SWAP3 PUSH1 0x7 SLOAD SWAP1 PUSH2 0xC8B SWAP2 PUSH2 0xAA5 JUMP JUMPDEST SWAP1 PUSH2 0xC95 SWAP2 PUSH2 0xAA5 JUMP JUMPDEST SDIV PUSH2 0xC9F SWAP2 PUSH2 0xAC8 JUMP JUMPDEST SDIV PUSH2 0xCA9 DUP6 PUSH2 0x6B6 JUMP JUMPDEST PUSH2 0xCC4 SWAP3 SWAP1 DUP3 SLOAD SWAP1 PUSH1 0x3 SHL SWAP2 DUP3 SHL SWAP2 PUSH1 0x0 NOT SWAP1 SHL NOT AND OR SWAP1 SSTORE JUMP JUMPDEST PUSH2 0xCCD DUP5 PUSH2 0x6B6 JUMP JUMPDEST SWAP1 SLOAD SWAP1 DUP3 SHL SHR ISZERO SWAP5 PUSH32 0x7F7C34BF0AD986B5A2225A4DF1DAD20D729C84A018D71CD4202869D1760FFDA SWAP4 PUSH1 0x80 SWAP4 PUSH1 0x1 SWAP8 PUSH2 0xE0C JUMPI JUMPDEST POP PUSH2 0xD4F PUSH2 0xD2D PUSH2 0xD12 DUP9 PUSH2 0x75B JUMP JUMPDEST SWAP1 SLOAD SWAP1 DUP7 SHL SHR PUSH2 0xD21 DUP10 PUSH2 0x6B6 JUMP JUMPDEST SWAP1 SLOAD SWAP1 DUP8 SHL SHR SWAP1 PUSH2 0xAC8 JUMP JUMPDEST PUSH2 0xD36 DUP9 PUSH2 0x75B JUMP JUMPDEST SWAP1 SWAP2 SWAP1 DUP3 SLOAD SWAP1 PUSH1 0x3 SHL SWAP2 DUP3 SHL SWAP2 PUSH1 0x0 NOT SWAP1 SHL NOT AND OR SWAP1 SSTORE JUMP JUMPDEST PUSH1 0x0 PUSH2 0xD5A DUP8 PUSH2 0x75B JUMP JUMPDEST SWAP1 SLOAD SWAP1 DUP6 SHL SHR SLT PUSH2 0xDF0 JUMPI JUMPDEST PUSH2 0xD6F DUP7 PUSH2 0x75B JUMP JUMPDEST SWAP1 SLOAD SWAP1 DUP5 SHL SHR PUSH2 0xD7E DUP8 PUSH2 0x724 JUMP JUMPDEST SWAP1 SLOAD SWAP1 DUP6 SHL SHR LT PUSH2 0xDC1 JUMPI JUMPDEST PUSH2 0xD93 DUP7 PUSH2 0x6B6 JUMP JUMPDEST SWAP1 SLOAD SWAP1 DUP5 SHL SHR SWAP3 PUSH2 0xDA3 DUP8 PUSH2 0x75B JUMP JUMPDEST SWAP1 SLOAD SWAP2 SHL SHR DUP13 MLOAD SWAP4 DUP5 MSTORE DUP11 DUP5 ADD MSTORE DUP12 DUP4 ADD MSTORE PUSH1 0x60 DUP3 ADD MSTORE LOG1 ADD PUSH2 0xB90 JUMP JUMPDEST PUSH2 0xDEB PUSH2 0xD2D PUSH2 0xDD0 DUP9 PUSH2 0x75B JUMP JUMPDEST SWAP1 SLOAD SWAP1 DUP7 SHL SHR PUSH2 0xDDF DUP10 PUSH2 0x724 JUMP JUMPDEST SWAP1 SLOAD SWAP1 DUP8 SHL SHR SWAP1 PUSH2 0xA8C JUMP JUMPDEST PUSH2 0xD8A JUMP JUMPDEST PUSH2 0xDF9 DUP7 PUSH2 0x75B JUMP JUMPDEST DUP2 SLOAD SWAP1 PUSH1 0x0 NOT SWAP1 DUP7 SHL SHL NOT AND SWAP1 SSTORE PUSH2 0xD66 JUMP JUMPDEST PUSH2 0xE15 DUP8 PUSH2 0x6B6 JUMP JUMPDEST DUP2 SWAP3 SWAP2 SLOAD SWAP1 DUP7 SHL SWAP2 DUP3 SHL SWAP2 PUSH1 0x0 NOT SWAP1 SHL NOT AND OR SWAP1 SSTORE CODESIZE PUSH2 0xD02 JUMP JUMPDEST PUSH1 0x11 DUP7 PUSH4 0x4E487B71 PUSH1 0xE0 SHL PUSH1 0x0 MSTORE MSTORE PUSH1 0x24 PUSH1 0x0 REVERT JUMPDEST POP POP POP POP SWAP1 POP JUMP JUMPDEST POP PUSH1 0x64 SWAP2 DUP5 MLOAD SWAP2 PUSH3 0x461BCD PUSH1 0xE5 SHL DUP4 MSTORE DUP3 ADD MSTORE PUSH1 0x12 PUSH1 0x24 DUP3 ADD MSTORE PUSH18 0x44696D656E7369756E6920696E6567616C65 PUSH1 0x70 SHL PUSH1 0x44 DUP3 ADD MSTORE REVERT JUMPDEST RETURNDATASIZE DUP1 DUP4 DUP4 RETURNDATACOPY PUSH2 0xE93 DUP2 DUP4 PUSH2 0x7D7 JUMP JUMPDEST DUP2 ADD SWAP1 DUP5 DUP2 DUP4 SUB SLT PUSH2 0x120 JUMPI DUP1 MLOAD SWAP1 PUSH8 0xFFFFFFFFFFFFFFFF DUP3 GT PUSH2 0xF13 JUMPI ADD DUP2 PUSH1 0x1F DUP3 ADD SLT ISZERO PUSH2 0x120 JUMPI DUP1 MLOAD SWAP1 PUSH2 0xEC9 DUP3 PUSH2 0x7F9 JUMP JUMPDEST SWAP4 PUSH2 0xED6 DUP10 MLOAD SWAP6 DUP7 PUSH2 0x7D7 JUMP JUMPDEST DUP3 DUP6 MSTORE DUP7 DUP1 DUP7 ADD SWAP4 PUSH1 0x5 SHL DUP4 ADD ADD SWAP4 DUP5 GT PUSH2 0x11D JUMPI POP DUP6 DUP1 SWAP2 ADD SWAP2 JUMPDEST DUP4 DUP4 LT PUSH2 0xF03 JUMPI POP POP POP POP CODESIZE PUSH2 0xB82 JUMP JUMPDEST DUP3 MLOAD DUP2 MSTORE SWAP2 DUP2 ADD SWAP2 DUP7 SWAP2 ADD PUSH2 0xEF2 JUMP JUMPDEST DUP4 DUP1 REVERT JUMPDEST DUP6 MLOAD RETURNDATASIZE PUSH1 0x0 DUP3 RETURNDATACOPY RETURNDATASIZE SWAP1 REVERT JUMPDEST SWAP1 DUP5 DUP3 DUP2 RETURNDATASIZE DUP4 GT PUSH2 0xF48 JUMPI JUMPDEST PUSH2 0xF38 DUP2 DUP4 PUSH2 0x7D7 JUMP JUMPDEST DUP2 ADD SUB SLT PUSH2 0x11D JUMPI POP MLOAD CODESIZE PUSH2 0xB23 JUMP JUMPDEST POP RETURNDATASIZE PUSH2 0xF2E JUMP JUMPDEST DUP7 MLOAD RETURNDATASIZE PUSH1 0x0 DUP3 RETURNDATACOPY RETURNDATASIZE SWAP1 REVERT INVALID LOG2 PUSH5 0x6970667358 0x22 SLT KECCAK256 EXTCODESIZE INVALID PUSH12 0x575BDD886567D45617032E87 0xC0 0xFC 0xB8 DUP6 0x4D PUSH17 0xBF4D6D8624D086EDA7FF4F64736F6C6343 STOP ADDMOD OR STOP CALLER "},"methodIdentifiers":{"batteryCapacity(uint256)":"b6ce6709","batteryCharge(uint256)":"4eb274ff","c1()":"5f57697c","c2()":"48e257cb","capacity(uint256)":"ab1bbeca","flexibleLoad(uint256)":"e329143f","globalContract()":"90ccfa0f","lastKnownGlobalTimestamp()":"d0c6c7af","objectiveFunction(int256[])":"364132d9","personalBestPosition(uint256)":"a86853d5","personalBestScore()":"4d985ae4","position(uint256)":"f7a95a9e","renewableGeneration(uint256)":"96d14da6","tariff(uint256)":"16b51928","updateBestPositions()":"973b9cc1","updateVelocityAndPosition()":"f6451c0a","velocity(uint256)":"6f240774","w()":"205c9cc7"}}}}}