{"contracts/Node.sol":{"Node":{"abi":[{"inputs":[{"internalType":"address","name":"globalContractAddress","type":"address"},{"internalType":"int256[]","name":"initialPosition","type":"int256[]"},{"internalType":"int256[]","name":"initialVelocity","type":"int256[]"},{"internalType":"int256[]","name":"initialTariff","type":"int256[]"},{"internalType":"uint256[]","name":"initialCapacity","type":"uint256[]"},{"internalType":"uint256[]","name":"initialRenewableGeneration","type":"uint256[]"},{"internalType":"uint256[]","name":"initialBatteryCapacity","type":"uint256[]"},{"internalType":"uint256[]","name":"initialBatteryCharge","type":"uint256[]"},{"internalType":"uint256[]","name":"initialFlexibleLoad","type":"uint256[]"},{"internalType":"uint256[]","name":"_flexibilityAbove","type":"uint256[]"},{"internalType":"uint256[]","name":"_flexibilityBelow","type":"uint256[]"}],"stateMutability":"nonpayable","type":"constructor"},{"anonymous":false,"inputs":[{"indexed":true,"internalType":"address","name":"node","type":"address"},{"indexed":false,"internalType":"int256","name":"newScore","type":"int256"}],"name":"BestPositionUpdated","type":"event"},{"anonymous":false,"inputs":[{"indexed":false,"internalType":"uint256","name":"timestamp","type":"uint256"}],"name":"NewPlanReceived","type":"event"},{"inputs":[{"internalType":"uint256","name":"","type":"uint256"}],"name":"batteryCapacity","outputs":[{"internalType":"uint256","name":"","type":"uint256"}],"stateMutability":"view","type":"function"},{"inputs":[{"internalType":"uint256","name":"","type":"uint256"}],"name":"batteryCharge","outputs":[{"internalType":"uint256","name":"","type":"uint256"}],"stateMutability":"view","type":"function"},{"inputs":[],"name":"c1","outputs":[{"internalType":"int256","name":"","type":"int256"}],"stateMutability":"view","type":"function"},{"inputs":[],"name":"c2","outputs":[{"internalType":"int256","name":"","type":"int256"}],"stateMutability":"view","type":"function"},{"inputs":[{"internalType":"uint256","name":"","type":"uint256"}],"name":"capacity","outputs":[{"internalType":"uint256","name":"","type":"uint256"}],"stateMutability":"view","type":"function"},{"inputs":[{"internalType":"uint256","name":"","type":"uint256"}],"name":"flexibilityAbove","outputs":[{"internalType":"uint256","name":"","type":"uint256"}],"stateMutability":"view","type":"function"},{"inputs":[{"internalType":"uint256","name":"","type":"uint256"}],"name":"flexibilityBelow","outputs":[{"internalType":"uint256","name":"","type":"uint256"}],"stateMutability":"view","type":"function"},{"inputs":[{"internalType":"uint256","name":"","type":"uint256"}],"name":"flexibleLoad","outputs":[{"internalType":"uint256","name":"","type":"uint256"}],"stateMutability":"view","type":"function"},{"inputs":[{"internalType":"uint256","name":"hour","type":"uint256"},{"internalType":"int256","name":"consumption","type":"int256"}],"name":"getEffectiveTariff","outputs":[{"internalType":"int256","name":"","type":"int256"}],"stateMutability":"view","type":"function"},{"inputs":[],"name":"globalContract","outputs":[{"internalType":"contract GlobalContractInterface","name":"","type":"address"}],"stateMutability":"view","type":"function"},{"inputs":[],"name":"lastKnownGlobalTimestamp","outputs":[{"internalType":"uint256","name":"","type":"uint256"}],"stateMutability":"view","type":"function"},{"inputs":[{"internalType":"int256[]","name":"pos","type":"int256[]"}],"name":"objectiveFunction","outputs":[{"internalType":"int256","name":"","type":"int256"}],"stateMutability":"view","type":"function"},{"inputs":[{"internalType":"uint256","name":"","type":"uint256"}],"name":"personalBestPosition","outputs":[{"internalType":"int256","name":"","type":"int256"}],"stateMutability":"view","type":"function"},{"inputs":[],"name":"personalBestScore","outputs":[{"internalType":"int256","name":"","type":"int256"}],"stateMutability":"view","type":"function"},{"inputs":[{"internalType":"uint256","name":"","type":"uint256"}],"name":"position","outputs":[{"internalType":"int256","name":"","type":"int256"}],"stateMutability":"view","type":"function"},{"inputs":[{"internalType":"uint256","name":"","type":"uint256"}],"name":"renewableGeneration","outputs":[{"internalType":"uint256","name":"","type":"uint256"}],"stateMutability":"view","type":"function"},{"inputs":[{"internalType":"uint256","name":"","type":"uint256"}],"name":"tariff","outputs":[{"internalType":"int256","name":"","type":"int256"}],"stateMutability":"view","type":"function"},{"inputs":[],"name":"updateBestPositions","outputs":[],"stateMutability":"nonpayable","type":"function"},{"inputs":[],"name":"updateVelocityAndPosition","outputs":[],"stateMutability":"nonpayable","type":"function"},{"inputs":[{"internalType":"uint256","name":"","type":"uint256"}],"name":"velocity","outputs":[{"internalType":"int256","name":"","type":"int256"}],"stateMutability":"view","type":"function"},{"inputs":[],"name":"w","outputs":[{"internalType":"int256","name":"","type":"int256"}],"stateMutability":"view","type":"function"}],"evm":{"bytecode":{"linkReferences":{},"object":"608060405234620009765762001c0c803803806200001d816200097b565b928339810161016082820312620009765781516001600160a01b0381169290839003620009765760208101516001600160401b03811162000976578262000066918301620009a1565b60408201516001600160401b03811162000976578362000088918401620009a1565b60608301516001600160401b038111620009765784620000aa918501620009a1565b60808401516001600160401b038111620009765785620000cc918601620009a1565b60a08501516001600160401b038111620009765786620000ee918701620009a1565b60c08601519092906001600160401b03811162000976578762000113918801620009a1565b60e08701519094906001600160401b03811162000976578862000138918901620009a1565b6101008801519096906001600160401b0381116200097657896200015e918a01620009a1565b6101208901519098906001600160401b03811162000976578a62000184918301620009a1565b610140820151909a906001600160401b0381116200097657620001a89201620009a1565b6001600160ff1b03600355603260055560c86006819055600755601080546001600160a01b031916909b17909a558051916001600160401b038311620005b357680100000000000000008311620005b357600054836000558084106200092e575b5060208201928360008052602060002060005b838110620009195750508251929150506001600160401b038211620005b357680100000000000000008211620005b35760015482600155808310620008cf575b506020016001600052602060002060005b838110620008ba5750509151929150506001600160401b038211620005b357680100000000000000008211620005b3576002548260025580831062000870575b506002600052602060002060005b8381106200085b5750508251929150506001600160401b038211620005b357680100000000000000008211620005b3576008548260085580831062000812575b506020016008600052602060002060005b838110620007fd5750508251929150506001600160401b038211620005b357680100000000000000008211620005b35760095482600955808310620007b4575b506020016009600052602060002060005b8381106200079f5750508251929150506001600160401b038211620005b357680100000000000000008211620005b357600a5482600a5580831062000756575b50602001600a600052602060002060005b838110620007415750508251929150506001600160401b038211620005b357680100000000000000008211620005b357600b5482600b55808310620006f8575b50602001600b600052602060002060005b838110620006e35750508251929150506001600160401b038211620005b357680100000000000000008211620005b357600c5482600c558083106200069a575b50602001600c600052602060002060005b838110620006855750508251929150506001600160401b038211620005b357680100000000000000008211620005b357600d5482600d558083106200063c575b50602001600d600052602060002060005b838110620006275784518690866001600160401b038211620005b357680100000000000000008211620005b357600e5482600e55808310620005de575b50602001600e600052602060002060005b838110620005c9578451856001600160401b038211620005b357680100000000000000008211620005b357600f5482600f558083106200056a575b5060200190600f60005260206000209160005b8281106200055557604051611201908162000a0b8239f35b6001906020835193019281860155016200053d565b600f6000527f8d1108e10bcb7c27dddfc02ed9d693a074039d026cf4ea4240b40f7d581ac8029081019083015b818110620005a657506200052a565b6000815560010162000597565b634e487b7160e01b600052604160045260246000fd5b600190602084519401938184015501620004ef565b600e6000527fbb7b4a454dc3493923482f07822329ed19e8244eff582cc204f8554c3620c3fd9081019083015b8181106200061a5750620004de565b600081556001016200060b565b600190602084519401938184015501620004a1565b600d6000527fd7b6990105719101dabeb77144f2a3385c8033acd3af97e9423a695e81ad1eb59081019083015b81811062000678575062000490565b6000815560010162000669565b60019060208451940193818401550162000450565b600c6000527fdf6966c971051c3d54ec59162606531493a51404a002842f56009d7e5cf4a8c79081019083015b818110620006d657506200043f565b60008155600101620006c7565b600190602084519401938184015501620003ff565b600b6000527f0175b7a638427703f0dbe7bb9bbf987a2551717b34e79f33b5b1008d1fa01db99081019083015b818110620007345750620003ee565b6000815560010162000725565b600190602084519401938184015501620003ae565b600a6000527fc65a7bb8d6351c1cf70c95a316cc6a92839c986682d98bc35f958f4883f9d2a89081019083015b8181106200079257506200039d565b6000815560010162000783565b6001906020845194019381840155016200035d565b60096000527f6e1540171b6c0c960b71a7020d9f60077f6af931a8bbf590da0223dacf75c7af9081019083015b818110620007f057506200034c565b60008155600101620007e1565b6001906020845194019381840155016200030c565b60086000527ff3f7a9fe364faab93b216da50a3214154f22a0a2b415b23a84c8169e8b636ee39081019083015b8181106200084e5750620002fb565b600081556001016200083f565b600190602084519401938184015501620002bb565b60026000527f405787fa12a823e0f2b7631cc41b3ba8828b3321ca811111fa75cd3aa3bb5ace908382015b8183018110620008ad575050620002ad565b600081556001016200089b565b6001906020845194019381840155016200026d565b60016000527fb10e2d527612073b26eecdfd717e6a320cf44b4afac2b0732d9fcbe2b7fa0cf6908382015b81830181106200090c5750506200025c565b60008155600101620008fa565b6001906020845194019381840155016200021c565b600080527f290decd9548b62a8d60345a988386fc84ba6bc95484008f6362f93160ef3e5639081019084015b81811062000969575062000209565b600081556001016200095a565b600080fd5b6040519190601f01601f191682016001600160401b03811183821017620005b357604052565b81601f8201121562000976578051916020916001600160401b038411620005b3578360051b908380620009d68185016200097b565b80978152019282010192831162000976578301905b828210620009fa575050505090565b81518152908301908301620009eb56fe6040608081526004908136101561001557600080fd5b600091823560e01c806316b5192814610c77578063205c9cc714610c58578063364132d914610bcc578063375a105e14610ba257806348e257cb14610b835780634d985ae414610b645780634eb274ff14610b175780635f57697c14610af85780636f24077414610ace57806378b6d7d414610aa457806390ccfa0f14610a7b578063957b405614610a5157806396d14da614610a04578063973b9cc114610743578063a86853d514610719578063ab1bbeca146106c9578063b6ce670914610679578063d0c6c7af1461065c578063e329143f1461060c578063f6451c0a146101455763f7a95a9e1461010857600080fd5b34610141576020366003190112610141573591805483101561013e5750610130602092610dc6565b91905490519160031b1c8152f35b80fd5b8280fd5b5091903461060857816003193601126106085760105481516302989b4b60e61b815260209390916001600160a01b031684838781845afa80156105fe579082918793906105ca575b839450868394548211610598575b50508451631e385f6960e01b815293849182905afa91821561058c5781926104f2575b5081518154036104ba57805b81548110156104b6576101dc81610dc6565b905485514288820190815260208101859052600393841b9290921c604083015280606083010390610215601f1992838101835282610e10565b6064928391519020066001918286018087116104a357896102af6102bb8d95948860659561026f61027b8d8f61024a90610d21565b9054911b1c88519283918d830195428791606093918352602083015260408201520190565b03858101835282610e10565b51902006966102898c610d21565b9054908c1b1c94519384918201958d428891606093918352602083015260408201520190565b03908101835282610e10565b519020079260311984019384131661048e576103a29261037a85938461036a896103656103718f98839c60019f9e8f9b61036561035c8e61037f9f61032e8161032861036a9861030d61034495610d8f565b905490821b1c9061031d84610dc6565b9054911b1c90610efd565b96610e60565b5161033883610dc6565b9054908d1b1c90610efd565b9961035160055492610d21565b9054911b1c90610ead565b94600654610ead565b610ead565b0590610ed0565b94600754610ead565b610ed0565b0561038984610d21565b90919082549060031b91821b91600019901b1916179055565b6103d56103cc6103b184610dc6565b905490841b1c6103c085610d21565b905490851b1c90610ed0565b61038984610dc6565b6104046103e183610d8f565b905490831b1c6103fe6103f385610cea565b905490851b1c610e97565b90610efd565b61043361041084610d8f565b905490841b1c61042d61042286610d58565b905490861b1c610e97565b90610ed0565b9181839261044086610dc6565b905490841b1c1261047b575b5061045684610dc6565b9054911b1c13610468575b50016101ca565b6104759061038983610dc6565b38610461565b6104889061038986610dc6565b3861044c565b60118b634e487b7160e01b6000525260246000fd5b634e487b7160e01b885260118c52602488fd5b5080f35b825162461bcd60e51b8152808601859052601260248201527144696d656e7369756e6920696e6567616c6560701b6044820152606490fd5b9091503d8083833e6105048183610e10565b81019084818303126101415780519067ffffffffffffffff821161058857019080601f8301121561014157815161053a81610e48565b9261054786519485610e10565b818452868085019260051b8201019283116105845786809101915b838310610574575050505090386101be565b8251815291810191879101610562565b8480fd5b8380fd5b508251903d90823e3d90fd5b817fc06999d659d5132dd93a1915097da1a6a24201916389e38da2404e4bca5e59be9287558751908152a1388661019b565b509150918481813d83116105f7575b6105e38183610e10565b81010312610141575185928392909161018d565b503d6105d9565b84513d84823e3d90fd5b5080fd5b50346101415760203660031901126101415735600d548110156101415760209250600d6000527fd7b6990105719101dabeb77144f2a3385c8033acd3af97e9423a695e81ad1eb501549051908152f35b503461014157826003193601126101415760209250549051908152f35b50346101415760203660031901126101415735600b548110156101415760209250600b6000527f0175b7a638427703f0dbe7bb9bbf987a2551717b34e79f33b5b1008d1fa01db901549051908152f35b50346101415760203660031901126101415735600954811015610141576020925060096000527f6e1540171b6c0c960b71a7020d9f60077f6af931a8bbf590da0223dacf75c7af01549051908152f35b503461014157602036600319011261014157359160025483101561013e5750610130602092610d8f565b509034610141576003199183833601126105885761077582516107708161076981611172565b0382610e10565b610f16565b60039060035481126108e0575b600e549061078f82610e48565b9261079c86519485610e10565b8284526107a883610e48565b926020916020860194601f1901368637895b82811061088f5750506010546001600160a01b0316949050843b1561088b5796929088949260208851998a96632fc0395f60e01b885260608a89015261080260648901611172565b9360248901528784030160448801525191828152019291865b82811061087157505050508383809203925af180156108675761083c578380f35b67ffffffffffffffff83116108545750523880808380f35b634e487b7160e01b845260419052602483fd5b82513d86823e3d90fd5b835185528b97508a9650938101939281019260010161081b565b8880fd5b61089881610d58565b905490831b1c6108a782610cea565b905490841b1c81018091116108cd5790600191821c6108c6828a610e60565b52016107ba565b634e487b7160e01b8c526011895260248cfd5b80600355855467ffffffffffffffff81116109f1576801000000000000000081116109f157600254816002558082106109b1575b507f290decd9548b62a8d60345a988386fc84ba6bc95484008f6362f93160ef3e5636002885280549088915b83831061097b575050505083518181527f409d103f7876158f293a85ee39f235ce0c309ab1aca81024a51dfb4b471e556e60203092a2610782565b60018091920192835492817f405787fa12a823e0f2b7631cc41b3ba8828b3321ca811111fa75cd3aa3bb5ace0155019190610940565b817f405787fa12a823e0f2b7631cc41b3ba8828b3321ca811111fa75cd3aa3bb5ace91820191015b8181106109e65750610914565b8881556001016109d9565b634e487b7160e01b875260418452602487fd5b50346101415760203660031901126101415735600a5481101561014157600a602093527fc65a7bb8d6351c1cf70c95a316cc6a92839c986682d98bc35f958f4883f9d2a801549051908152f35b50913461013e578160031936011261013e5750610a74602092602435903561110e565b9051908152f35b50503461060857816003193601126106085760105490516001600160a01b039091168152602090f35b5034610141576020366003190112610141573591600e5483101561013e5750610130602092610d58565b503461014157602036600319011261014157359160015483101561013e5750610130602092610d21565b5050346106085781600319360112610608576020906006549051908152f35b50346101415760203660031901126101415735600c5481101561014157600c602093527fdf6966c971051c3d54ec59162606531493a51404a002842f56009d7e5cf4a8c701549051908152f35b5050346106085781600319360112610608576020906003549051908152f35b5050346106085781600319360112610608576020906007549051908152f35b5034610141576020366003190112610141573591600f5483101561013e5750610130602092610cea565b50913461013e57602090602060031936011261013e5783359367ffffffffffffffff8511610608573660238601121561060857840135610c0b81610e48565b94610c1885519687610e10565b8186526024602087019260051b8201019236841161013e5750602401905b828210610c4957602085610a7488610f16565b81358152908301908301610c36565b5050346106085781600319360112610608576020906005549051908152f35b503461014157602036600319011261014157359160085483101561013e57506101306020925b600854811015610cd45760086000527ff3f7a9fe364faab93b216da50a3214154f22a0a2b415b23a84c8169e8b636ee30190600090565b634e487b7160e01b600052603260045260246000fd5b600f54811015610cd457600f6000527f8d1108e10bcb7c27dddfc02ed9d693a074039d026cf4ea4240b40f7d581ac8020190600090565b600154811015610cd45760016000527fb10e2d527612073b26eecdfd717e6a320cf44b4afac2b0732d9fcbe2b7fa0cf60190600090565b600e54811015610cd457600e6000527fbb7b4a454dc3493923482f07822329ed19e8244eff582cc204f8554c3620c3fd0190600090565b600254811015610cd45760026000527f405787fa12a823e0f2b7631cc41b3ba8828b3321ca811111fa75cd3aa3bb5ace0190600090565b906000918254811015610dfc578280527f290decd9548b62a8d60345a988386fc84ba6bc95484008f6362f93160ef3e563019190565b634e487b7160e01b83526032600452602483fd5b90601f8019910116810190811067ffffffffffffffff821117610e3257604052565b634e487b7160e01b600052604160045260246000fd5b67ffffffffffffffff8111610e325760051b60200190565b8051821015610cd45760209160051b010190565b91908203918211610e8157565b634e487b7160e01b600052601160045260246000fd5b908160011b9180830560021490151715610e8157565b818102929160008212600160ff1b821416610e81578184051490151715610e8157565b91909160008382019384129112908015821691151617610e8157565b600160ff1b8114610e815760000390565b81810392916000138015828513169184121617610e8157565b600090805160405180600a54808252602080920190600a87527fc65a7bb8d6351c1cf70c95a316cc6a92839c986682d98bc35f958f4883f9d2a890875b8181106110fa5750505082610f69910383610e10565b60405180916020600c54928381520191600c88527fdf6966c971051c3d54ec59162606531493a51404a002842f56009d7e5cf4a8c79188905b8282106110e3575050505081610fb9910382610e10565b84935b838510610fcb57505050505090565b9091929394600190610fdd8784610e60565b51906000821215611014576103fe82611002610ffc611008958c61110e565b91610eec565b90610ead565b955b0193929190610fbc565b6110929180806110248b8a610e60565b51106110c2575061103f906110398a89610e60565b51610e74565b6110498988610e60565b5260005b806110588a88610e60565b51106110985761106c906110398a88610e60565b6110768987610e60565b5261042d60005b6110868a610c9d565b90549060031b1c610ead565b9561100a565b6110b061042d916110a98b89610e60565b5190610e74565b60006110bc8b89610e60565b5261107d565b6110d191506110a98a89610e60565b60006110dd8a89610e60565b5261104d565b835485529384019360019384019390910190610fa2565b825484529284019260019283019201610f53565b61111790610c9d565b90549060031b1c906000811260001461116e5761113390610eec565b60011c60140180601411610e815760288111611166575b6064039060648211610e815760649161116291610ead565b0590565b50602861114a565b5090565b600080548083528180526020928301927f290decd9548b62a8d60345a988386fc84ba6bc95484008f6362f93160ef3e56392905b8282106111b4575050505090565b8354855293840193600193840193909101906111a656fea2646970667358221220ce8c5e0d464cb1aadadab423d59681620387c8882b0bcedc40515700b3333e4664736f6c63430008170033","opcodes":"PUSH1 0x80 PUSH1 0x40 MSTORE CALLVALUE PUSH3 0x976 JUMPI PUSH3 0x1C0C DUP1 CODESIZE SUB DUP1 PUSH3 0x1D DUP2 PUSH3 0x97B JUMP JUMPDEST SWAP3 DUP4 CODECOPY DUP2 ADD PUSH2 0x160 DUP3 DUP3 SUB SLT PUSH3 0x976 JUMPI DUP2 MLOAD PUSH1 0x1 PUSH1 0x1 PUSH1 0xA0 SHL SUB DUP2 AND SWAP3 SWAP1 DUP4 SWAP1 SUB PUSH3 0x976 JUMPI PUSH1 0x20 DUP2 ADD MLOAD PUSH1 0x1 PUSH1 0x1 PUSH1 0x40 SHL SUB DUP2 GT PUSH3 0x976 JUMPI DUP3 PUSH3 0x66 SWAP2 DUP4 ADD PUSH3 0x9A1 JUMP JUMPDEST PUSH1 0x40 DUP3 ADD MLOAD PUSH1 0x1 PUSH1 0x1 PUSH1 0x40 SHL SUB DUP2 GT PUSH3 0x976 JUMPI DUP4 PUSH3 0x88 SWAP2 DUP5 ADD PUSH3 0x9A1 JUMP JUMPDEST PUSH1 0x60 DUP4 ADD MLOAD PUSH1 0x1 PUSH1 0x1 PUSH1 0x40 SHL SUB DUP2 GT PUSH3 0x976 JUMPI DUP5 PUSH3 0xAA SWAP2 DUP6 ADD PUSH3 0x9A1 JUMP JUMPDEST PUSH1 0x80 DUP5 ADD MLOAD PUSH1 0x1 PUSH1 0x1 PUSH1 0x40 SHL SUB DUP2 GT PUSH3 0x976 JUMPI DUP6 PUSH3 0xCC SWAP2 DUP7 ADD PUSH3 0x9A1 JUMP JUMPDEST PUSH1 0xA0 DUP6 ADD MLOAD PUSH1 0x1 PUSH1 0x1 PUSH1 0x40 SHL SUB DUP2 GT PUSH3 0x976 JUMPI DUP7 PUSH3 0xEE SWAP2 DUP8 ADD PUSH3 0x9A1 JUMP JUMPDEST PUSH1 0xC0 DUP7 ADD MLOAD SWAP1 SWAP3 SWAP1 PUSH1 0x1 PUSH1 0x1 PUSH1 0x40 SHL SUB DUP2 GT PUSH3 0x976 JUMPI DUP8 PUSH3 0x113 SWAP2 DUP9 ADD PUSH3 0x9A1 JUMP JUMPDEST PUSH1 0xE0 DUP8 ADD MLOAD SWAP1 SWAP5 SWAP1 PUSH1 0x1 PUSH1 0x1 PUSH1 0x40 SHL SUB DUP2 GT PUSH3 0x976 JUMPI DUP9 PUSH3 0x138 SWAP2 DUP10 ADD PUSH3 0x9A1 JUMP JUMPDEST PUSH2 0x100 DUP9 ADD MLOAD SWAP1 SWAP7 SWAP1 PUSH1 0x1 PUSH1 0x1 PUSH1 0x40 SHL SUB DUP2 GT PUSH3 0x976 JUMPI DUP10 PUSH3 0x15E SWAP2 DUP11 ADD PUSH3 0x9A1 JUMP JUMPDEST PUSH2 0x120 DUP10 ADD MLOAD SWAP1 SWAP9 SWAP1 PUSH1 0x1 PUSH1 0x1 PUSH1 0x40 SHL SUB DUP2 GT PUSH3 0x976 JUMPI DUP11 PUSH3 0x184 SWAP2 DUP4 ADD PUSH3 0x9A1 JUMP JUMPDEST PUSH2 0x140 DUP3 ADD MLOAD SWAP1 SWAP11 SWAP1 PUSH1 0x1 PUSH1 0x1 PUSH1 0x40 SHL SUB DUP2 GT PUSH3 0x976 JUMPI PUSH3 0x1A8 SWAP3 ADD PUSH3 0x9A1 JUMP JUMPDEST PUSH1 0x1 PUSH1 0x1 PUSH1 0xFF SHL SUB PUSH1 0x3 SSTORE PUSH1 0x32 PUSH1 0x5 SSTORE PUSH1 0xC8 PUSH1 0x6 DUP2 SWAP1 SSTORE PUSH1 0x7 SSTORE PUSH1 0x10 DUP1 SLOAD PUSH1 0x1 PUSH1 0x1 PUSH1 0xA0 SHL SUB NOT AND SWAP1 SWAP12 OR SWAP1 SWAP11 SSTORE DUP1 MLOAD SWAP2 PUSH1 0x1 PUSH1 0x1 PUSH1 0x40 SHL SUB DUP4 GT PUSH3 0x5B3 JUMPI PUSH9 0x10000000000000000 DUP4 GT PUSH3 0x5B3 JUMPI PUSH1 0x0 SLOAD DUP4 PUSH1 0x0 SSTORE DUP1 DUP5 LT PUSH3 0x92E JUMPI JUMPDEST POP PUSH1 0x20 DUP3 ADD SWAP3 DUP4 PUSH1 0x0 DUP1 MSTORE PUSH1 0x20 PUSH1 0x0 KECCAK256 PUSH1 0x0 JUMPDEST DUP4 DUP2 LT PUSH3 0x919 JUMPI POP POP DUP3 MLOAD SWAP3 SWAP2 POP POP PUSH1 0x1 PUSH1 0x1 PUSH1 0x40 SHL SUB DUP3 GT PUSH3 0x5B3 JUMPI PUSH9 0x10000000000000000 DUP3 GT PUSH3 0x5B3 JUMPI PUSH1 0x1 SLOAD DUP3 PUSH1 0x1 SSTORE DUP1 DUP4 LT PUSH3 0x8CF JUMPI JUMPDEST POP PUSH1 0x20 ADD PUSH1 0x1 PUSH1 0x0 MSTORE PUSH1 0x20 PUSH1 0x0 KECCAK256 PUSH1 0x0 JUMPDEST DUP4 DUP2 LT PUSH3 0x8BA JUMPI POP POP SWAP2 MLOAD SWAP3 SWAP2 POP POP PUSH1 0x1 PUSH1 0x1 PUSH1 0x40 SHL SUB DUP3 GT PUSH3 0x5B3 JUMPI PUSH9 0x10000000000000000 DUP3 GT PUSH3 0x5B3 JUMPI PUSH1 0x2 SLOAD DUP3 PUSH1 0x2 SSTORE DUP1 DUP4 LT PUSH3 0x870 JUMPI JUMPDEST POP PUSH1 0x2 PUSH1 0x0 MSTORE PUSH1 0x20 PUSH1 0x0 KECCAK256 PUSH1 0x0 JUMPDEST DUP4 DUP2 LT PUSH3 0x85B JUMPI POP POP DUP3 MLOAD SWAP3 SWAP2 POP POP PUSH1 0x1 PUSH1 0x1 PUSH1 0x40 SHL SUB DUP3 GT PUSH3 0x5B3 JUMPI PUSH9 0x10000000000000000 DUP3 GT PUSH3 0x5B3 JUMPI PUSH1 0x8 SLOAD DUP3 PUSH1 0x8 SSTORE DUP1 DUP4 LT PUSH3 0x812 JUMPI JUMPDEST POP PUSH1 0x20 ADD PUSH1 0x8 PUSH1 0x0 MSTORE PUSH1 0x20 PUSH1 0x0 KECCAK256 PUSH1 0x0 JUMPDEST DUP4 DUP2 LT PUSH3 0x7FD JUMPI POP POP DUP3 MLOAD SWAP3 SWAP2 POP POP PUSH1 0x1 PUSH1 0x1 PUSH1 0x40 SHL SUB DUP3 GT PUSH3 0x5B3 JUMPI PUSH9 0x10000000000000000 DUP3 GT PUSH3 0x5B3 JUMPI PUSH1 0x9 SLOAD DUP3 PUSH1 0x9 SSTORE DUP1 DUP4 LT PUSH3 0x7B4 JUMPI JUMPDEST POP PUSH1 0x20 ADD PUSH1 0x9 PUSH1 0x0 MSTORE PUSH1 0x20 PUSH1 0x0 KECCAK256 PUSH1 0x0 JUMPDEST DUP4 DUP2 LT PUSH3 0x79F JUMPI POP POP DUP3 MLOAD SWAP3 SWAP2 POP POP PUSH1 0x1 PUSH1 0x1 PUSH1 0x40 SHL SUB DUP3 GT PUSH3 0x5B3 JUMPI PUSH9 0x10000000000000000 DUP3 GT PUSH3 0x5B3 JUMPI PUSH1 0xA SLOAD DUP3 PUSH1 0xA SSTORE DUP1 DUP4 LT PUSH3 0x756 JUMPI JUMPDEST POP PUSH1 0x20 ADD PUSH1 0xA PUSH1 0x0 MSTORE PUSH1 0x20 PUSH1 0x0 KECCAK256 PUSH1 0x0 JUMPDEST DUP4 DUP2 LT PUSH3 0x741 JUMPI POP POP DUP3 MLOAD SWAP3 SWAP2 POP POP PUSH1 0x1 PUSH1 0x1 PUSH1 0x40 SHL SUB DUP3 GT PUSH3 0x5B3 JUMPI PUSH9 0x10000000000000000 DUP3 GT PUSH3 0x5B3 JUMPI PUSH1 0xB SLOAD DUP3 PUSH1 0xB SSTORE DUP1 DUP4 LT PUSH3 0x6F8 JUMPI JUMPDEST POP PUSH1 0x20 ADD PUSH1 0xB PUSH1 0x0 MSTORE PUSH1 0x20 PUSH1 0x0 KECCAK256 PUSH1 0x0 JUMPDEST DUP4 DUP2 LT PUSH3 0x6E3 JUMPI POP POP DUP3 MLOAD SWAP3 SWAP2 POP POP PUSH1 0x1 PUSH1 0x1 PUSH1 0x40 SHL SUB DUP3 GT PUSH3 0x5B3 JUMPI PUSH9 0x10000000000000000 DUP3 GT PUSH3 0x5B3 JUMPI PUSH1 0xC SLOAD DUP3 PUSH1 0xC SSTORE DUP1 DUP4 LT PUSH3 0x69A JUMPI JUMPDEST POP PUSH1 0x20 ADD PUSH1 0xC PUSH1 0x0 MSTORE PUSH1 0x20 PUSH1 0x0 KECCAK256 PUSH1 0x0 JUMPDEST DUP4 DUP2 LT PUSH3 0x685 JUMPI POP POP DUP3 MLOAD SWAP3 SWAP2 POP POP PUSH1 0x1 PUSH1 0x1 PUSH1 0x40 SHL SUB DUP3 GT PUSH3 0x5B3 JUMPI PUSH9 0x10000000000000000 DUP3 GT PUSH3 0x5B3 JUMPI PUSH1 0xD SLOAD DUP3 PUSH1 0xD SSTORE DUP1 DUP4 LT PUSH3 0x63C JUMPI JUMPDEST POP PUSH1 0x20 ADD PUSH1 0xD PUSH1 0x0 MSTORE PUSH1 0x20 PUSH1 0x0 KECCAK256 PUSH1 0x0 JUMPDEST DUP4 DUP2 LT PUSH3 0x627 JUMPI DUP5 MLOAD DUP7 SWAP1 DUP7 PUSH1 0x1 PUSH1 0x1 PUSH1 0x40 SHL SUB DUP3 GT PUSH3 0x5B3 JUMPI PUSH9 0x10000000000000000 DUP3 GT PUSH3 0x5B3 JUMPI PUSH1 0xE SLOAD DUP3 PUSH1 0xE SSTORE DUP1 DUP4 LT PUSH3 0x5DE JUMPI JUMPDEST POP PUSH1 0x20 ADD PUSH1 0xE PUSH1 0x0 MSTORE PUSH1 0x20 PUSH1 0x0 KECCAK256 PUSH1 0x0 JUMPDEST DUP4 DUP2 LT PUSH3 0x5C9 JUMPI DUP5 MLOAD DUP6 PUSH1 0x1 PUSH1 0x1 PUSH1 0x40 SHL SUB DUP3 GT PUSH3 0x5B3 JUMPI PUSH9 0x10000000000000000 DUP3 GT PUSH3 0x5B3 JUMPI PUSH1 0xF SLOAD DUP3 PUSH1 0xF SSTORE DUP1 DUP4 LT PUSH3 0x56A JUMPI JUMPDEST POP PUSH1 0x20 ADD SWAP1 PUSH1 0xF PUSH1 0x0 MSTORE PUSH1 0x20 PUSH1 0x0 KECCAK256 SWAP2 PUSH1 0x0 JUMPDEST DUP3 DUP2 LT PUSH3 0x555 JUMPI PUSH1 0x40 MLOAD PUSH2 0x1201 SWAP1 DUP2 PUSH3 0xA0B DUP3 CODECOPY RETURN JUMPDEST PUSH1 0x1 SWAP1 PUSH1 0x20 DUP4 MLOAD SWAP4 ADD SWAP3 DUP2 DUP7 ADD SSTORE ADD PUSH3 0x53D JUMP JUMPDEST PUSH1 0xF PUSH1 0x0 MSTORE PUSH32 0x8D1108E10BCB7C27DDDFC02ED9D693A074039D026CF4EA4240B40F7D581AC802 SWAP1 DUP2 ADD SWAP1 DUP4 ADD JUMPDEST DUP2 DUP2 LT PUSH3 0x5A6 JUMPI POP PUSH3 0x52A JUMP JUMPDEST PUSH1 0x0 DUP2 SSTORE PUSH1 0x1 ADD PUSH3 0x597 JUMP JUMPDEST PUSH4 0x4E487B71 PUSH1 0xE0 SHL PUSH1 0x0 MSTORE PUSH1 0x41 PUSH1 0x4 MSTORE PUSH1 0x24 PUSH1 0x0 REVERT JUMPDEST PUSH1 0x1 SWAP1 PUSH1 0x20 DUP5 MLOAD SWAP5 ADD SWAP4 DUP2 DUP5 ADD SSTORE ADD PUSH3 0x4EF JUMP JUMPDEST PUSH1 0xE PUSH1 0x0 MSTORE PUSH32 0xBB7B4A454DC3493923482F07822329ED19E8244EFF582CC204F8554C3620C3FD SWAP1 DUP2 ADD SWAP1 DUP4 ADD JUMPDEST DUP2 DUP2 LT PUSH3 0x61A JUMPI POP PUSH3 0x4DE JUMP JUMPDEST PUSH1 0x0 DUP2 SSTORE PUSH1 0x1 ADD PUSH3 0x60B JUMP JUMPDEST PUSH1 0x1 SWAP1 PUSH1 0x20 DUP5 MLOAD SWAP5 ADD SWAP4 DUP2 DUP5 ADD SSTORE ADD PUSH3 0x4A1 JUMP JUMPDEST PUSH1 0xD PUSH1 0x0 MSTORE PUSH32 0xD7B6990105719101DABEB77144F2A3385C8033ACD3AF97E9423A695E81AD1EB5 SWAP1 DUP2 ADD SWAP1 DUP4 ADD JUMPDEST DUP2 DUP2 LT PUSH3 0x678 JUMPI POP PUSH3 0x490 JUMP JUMPDEST PUSH1 0x0 DUP2 SSTORE PUSH1 0x1 ADD PUSH3 0x669 JUMP JUMPDEST PUSH1 0x1 SWAP1 PUSH1 0x20 DUP5 MLOAD SWAP5 ADD SWAP4 DUP2 DUP5 ADD SSTORE ADD PUSH3 0x450 JUMP JUMPDEST PUSH1 0xC PUSH1 0x0 MSTORE PUSH32 0xDF6966C971051C3D54EC59162606531493A51404A002842F56009D7E5CF4A8C7 SWAP1 DUP2 ADD SWAP1 DUP4 ADD JUMPDEST DUP2 DUP2 LT PUSH3 0x6D6 JUMPI POP PUSH3 0x43F JUMP JUMPDEST PUSH1 0x0 DUP2 SSTORE PUSH1 0x1 ADD PUSH3 0x6C7 JUMP JUMPDEST PUSH1 0x1 SWAP1 PUSH1 0x20 DUP5 MLOAD SWAP5 ADD SWAP4 DUP2 DUP5 ADD SSTORE ADD PUSH3 0x3FF JUMP JUMPDEST PUSH1 0xB PUSH1 0x0 MSTORE PUSH32 0x175B7A638427703F0DBE7BB9BBF987A2551717B34E79F33B5B1008D1FA01DB9 SWAP1 DUP2 ADD SWAP1 DUP4 ADD JUMPDEST DUP2 DUP2 LT PUSH3 0x734 JUMPI POP PUSH3 0x3EE JUMP JUMPDEST PUSH1 0x0 DUP2 SSTORE PUSH1 0x1 ADD PUSH3 0x725 JUMP JUMPDEST PUSH1 0x1 SWAP1 PUSH1 0x20 DUP5 MLOAD SWAP5 ADD SWAP4 DUP2 DUP5 ADD SSTORE ADD PUSH3 0x3AE JUMP JUMPDEST PUSH1 0xA PUSH1 0x0 MSTORE PUSH32 0xC65A7BB8D6351C1CF70C95A316CC6A92839C986682D98BC35F958F4883F9D2A8 SWAP1 DUP2 ADD SWAP1 DUP4 ADD JUMPDEST DUP2 DUP2 LT PUSH3 0x792 JUMPI POP PUSH3 0x39D JUMP JUMPDEST PUSH1 0x0 DUP2 SSTORE PUSH1 0x1 ADD PUSH3 0x783 JUMP JUMPDEST PUSH1 0x1 SWAP1 PUSH1 0x20 DUP5 MLOAD SWAP5 ADD SWAP4 DUP2 DUP5 ADD SSTORE ADD PUSH3 0x35D JUMP JUMPDEST PUSH1 0x9 PUSH1 0x0 MSTORE PUSH32 0x6E1540171B6C0C960B71A7020D9F60077F6AF931A8BBF590DA0223DACF75C7AF SWAP1 DUP2 ADD SWAP1 DUP4 ADD JUMPDEST DUP2 DUP2 LT PUSH3 0x7F0 JUMPI POP PUSH3 0x34C JUMP JUMPDEST PUSH1 0x0 DUP2 SSTORE PUSH1 0x1 ADD PUSH3 0x7E1 JUMP JUMPDEST PUSH1 0x1 SWAP1 PUSH1 0x20 DUP5 MLOAD SWAP5 ADD SWAP4 DUP2 DUP5 ADD SSTORE ADD PUSH3 0x30C JUMP JUMPDEST PUSH1 0x8 PUSH1 0x0 MSTORE PUSH32 0xF3F7A9FE364FAAB93B216DA50A3214154F22A0A2B415B23A84C8169E8B636EE3 SWAP1 DUP2 ADD SWAP1 DUP4 ADD JUMPDEST DUP2 DUP2 LT PUSH3 0x84E JUMPI POP PUSH3 0x2FB JUMP JUMPDEST PUSH1 0x0 DUP2 SSTORE PUSH1 0x1 ADD PUSH3 0x83F JUMP JUMPDEST PUSH1 0x1 SWAP1 PUSH1 0x20 DUP5 MLOAD SWAP5 ADD SWAP4 DUP2 DUP5 ADD SSTORE ADD PUSH3 0x2BB JUMP JUMPDEST PUSH1 0x2 PUSH1 0x0 MSTORE PUSH32 0x405787FA12A823E0F2B7631CC41B3BA8828B3321CA811111FA75CD3AA3BB5ACE SWAP1 DUP4 DUP3 ADD JUMPDEST DUP2 DUP4 ADD DUP2 LT PUSH3 0x8AD JUMPI POP POP PUSH3 0x2AD JUMP JUMPDEST PUSH1 0x0 DUP2 SSTORE PUSH1 0x1 ADD PUSH3 0x89B JUMP JUMPDEST PUSH1 0x1 SWAP1 PUSH1 0x20 DUP5 MLOAD SWAP5 ADD SWAP4 DUP2 DUP5 ADD SSTORE ADD PUSH3 0x26D JUMP JUMPDEST PUSH1 0x1 PUSH1 0x0 MSTORE PUSH32 0xB10E2D527612073B26EECDFD717E6A320CF44B4AFAC2B0732D9FCBE2B7FA0CF6 SWAP1 DUP4 DUP3 ADD JUMPDEST DUP2 DUP4 ADD DUP2 LT PUSH3 0x90C JUMPI POP POP PUSH3 0x25C JUMP JUMPDEST PUSH1 0x0 DUP2 SSTORE PUSH1 0x1 ADD PUSH3 0x8FA JUMP JUMPDEST PUSH1 0x1 SWAP1 PUSH1 0x20 DUP5 MLOAD SWAP5 ADD SWAP4 DUP2 DUP5 ADD SSTORE ADD PUSH3 0x21C JUMP JUMPDEST PUSH1 0x0 DUP1 MSTORE PUSH32 0x290DECD9548B62A8D60345A988386FC84BA6BC95484008F6362F93160EF3E563 SWAP1 DUP2 ADD SWAP1 DUP5 ADD JUMPDEST DUP2 DUP2 LT PUSH3 0x969 JUMPI POP PUSH3 0x209 JUMP JUMPDEST PUSH1 0x0 DUP2 SSTORE PUSH1 0x1 ADD PUSH3 0x95A JUMP JUMPDEST PUSH1 0x0 DUP1 REVERT JUMPDEST PUSH1 0x40 MLOAD SWAP2 SWAP1 PUSH1 0x1F ADD PUSH1 0x1F NOT AND DUP3 ADD PUSH1 0x1 PUSH1 0x1 PUSH1 0x40 SHL SUB DUP2 GT DUP4 DUP3 LT OR PUSH3 0x5B3 JUMPI PUSH1 0x40 MSTORE JUMP JUMPDEST DUP2 PUSH1 0x1F DUP3 ADD SLT ISZERO PUSH3 0x976 JUMPI DUP1 MLOAD SWAP2 PUSH1 0x20 SWAP2 PUSH1 0x1 PUSH1 0x1 PUSH1 0x40 SHL SUB DUP5 GT PUSH3 0x5B3 JUMPI DUP4 PUSH1 0x5 SHL SWAP1 DUP4 DUP1 PUSH3 0x9D6 DUP2 DUP6 ADD PUSH3 0x97B JUMP JUMPDEST DUP1 SWAP8 DUP2 MSTORE ADD SWAP3 DUP3 ADD ADD SWAP3 DUP4 GT PUSH3 0x976 JUMPI DUP4 ADD SWAP1 JUMPDEST DUP3 DUP3 LT PUSH3 0x9FA JUMPI POP POP POP POP SWAP1 JUMP JUMPDEST DUP2 MLOAD DUP2 MSTORE SWAP1 DUP4 ADD SWAP1 DUP4 ADD PUSH3 0x9EB JUMP INVALID PUSH1 0x40 PUSH1 0x80 DUP2 MSTORE PUSH1 0x4 SWAP1 DUP2 CALLDATASIZE LT ISZERO PUSH2 0x15 JUMPI PUSH1 0x0 DUP1 REVERT JUMPDEST PUSH1 0x0 SWAP2 DUP3 CALLDATALOAD PUSH1 0xE0 SHR DUP1 PUSH4 0x16B51928 EQ PUSH2 0xC77 JUMPI DUP1 PUSH4 0x205C9CC7 EQ PUSH2 0xC58 JUMPI DUP1 PUSH4 0x364132D9 EQ PUSH2 0xBCC JUMPI DUP1 PUSH4 0x375A105E EQ PUSH2 0xBA2 JUMPI DUP1 PUSH4 0x48E257CB EQ PUSH2 0xB83 JUMPI DUP1 PUSH4 0x4D985AE4 EQ PUSH2 0xB64 JUMPI DUP1 PUSH4 0x4EB274FF EQ PUSH2 0xB17 JUMPI DUP1 PUSH4 0x5F57697C EQ PUSH2 0xAF8 JUMPI DUP1 PUSH4 0x6F240774 EQ PUSH2 0xACE JUMPI DUP1 PUSH4 0x78B6D7D4 EQ PUSH2 0xAA4 JUMPI DUP1 PUSH4 0x90CCFA0F EQ PUSH2 0xA7B JUMPI DUP1 PUSH4 0x957B4056 EQ PUSH2 0xA51 JUMPI DUP1 PUSH4 0x96D14DA6 EQ PUSH2 0xA04 JUMPI DUP1 PUSH4 0x973B9CC1 EQ PUSH2 0x743 JUMPI DUP1 PUSH4 0xA86853D5 EQ PUSH2 0x719 JUMPI DUP1 PUSH4 0xAB1BBECA EQ PUSH2 0x6C9 JUMPI DUP1 PUSH4 0xB6CE6709 EQ PUSH2 0x679 JUMPI DUP1 PUSH4 0xD0C6C7AF EQ PUSH2 0x65C JUMPI DUP1 PUSH4 0xE329143F EQ PUSH2 0x60C JUMPI DUP1 PUSH4 0xF6451C0A EQ PUSH2 0x145 JUMPI PUSH4 0xF7A95A9E EQ PUSH2 0x108 JUMPI PUSH1 0x0 DUP1 REVERT JUMPDEST CALLVALUE PUSH2 0x141 JUMPI PUSH1 0x20 CALLDATASIZE PUSH1 0x3 NOT ADD SLT PUSH2 0x141 JUMPI CALLDATALOAD SWAP2 DUP1 SLOAD DUP4 LT ISZERO PUSH2 0x13E JUMPI POP PUSH2 0x130 PUSH1 0x20 SWAP3 PUSH2 0xDC6 JUMP JUMPDEST SWAP2 SWAP1 SLOAD SWAP1 MLOAD SWAP2 PUSH1 0x3 SHL SHR DUP2 MSTORE RETURN JUMPDEST DUP1 REVERT JUMPDEST DUP3 DUP1 REVERT JUMPDEST POP SWAP2 SWAP1 CALLVALUE PUSH2 0x608 JUMPI DUP2 PUSH1 0x3 NOT CALLDATASIZE ADD SLT PUSH2 0x608 JUMPI PUSH1 0x10 SLOAD DUP2 MLOAD PUSH4 0x2989B4B PUSH1 0xE6 SHL DUP2 MSTORE PUSH1 0x20 SWAP4 SWAP1 SWAP2 PUSH1 0x1 PUSH1 0x1 PUSH1 0xA0 SHL SUB AND DUP5 DUP4 DUP8 DUP2 DUP5 GAS STATICCALL DUP1 ISZERO PUSH2 0x5FE JUMPI SWAP1 DUP3 SWAP2 DUP8 SWAP4 SWAP1 PUSH2 0x5CA JUMPI JUMPDEST DUP4 SWAP5 POP DUP7 DUP4 SWAP5 SLOAD DUP3 GT PUSH2 0x598 JUMPI JUMPDEST POP POP DUP5 MLOAD PUSH4 0x1E385F69 PUSH1 0xE0 SHL DUP2 MSTORE SWAP4 DUP5 SWAP2 DUP3 SWAP1 GAS STATICCALL SWAP2 DUP3 ISZERO PUSH2 0x58C JUMPI DUP2 SWAP3 PUSH2 0x4F2 JUMPI JUMPDEST POP DUP2 MLOAD DUP2 SLOAD SUB PUSH2 0x4BA JUMPI DUP1 JUMPDEST DUP2 SLOAD DUP2 LT ISZERO PUSH2 0x4B6 JUMPI PUSH2 0x1DC DUP2 PUSH2 0xDC6 JUMP JUMPDEST SWAP1 SLOAD DUP6 MLOAD TIMESTAMP DUP9 DUP3 ADD SWAP1 DUP2 MSTORE PUSH1 0x20 DUP2 ADD DUP6 SWAP1 MSTORE PUSH1 0x3 SWAP4 DUP5 SHL SWAP3 SWAP1 SWAP3 SHR PUSH1 0x40 DUP4 ADD MSTORE DUP1 PUSH1 0x60 DUP4 ADD SUB SWAP1 PUSH2 0x215 PUSH1 0x1F NOT SWAP3 DUP4 DUP2 ADD DUP4 MSTORE DUP3 PUSH2 0xE10 JUMP JUMPDEST PUSH1 0x64 SWAP3 DUP4 SWAP2 MLOAD SWAP1 KECCAK256 MOD PUSH1 0x1 SWAP2 DUP3 DUP7 ADD DUP1 DUP8 GT PUSH2 0x4A3 JUMPI DUP10 PUSH2 0x2AF PUSH2 0x2BB DUP14 SWAP6 SWAP5 DUP9 PUSH1 0x65 SWAP6 PUSH2 0x26F PUSH2 0x27B DUP14 DUP16 PUSH2 0x24A SWAP1 PUSH2 0xD21 JUMP JUMPDEST SWAP1 SLOAD SWAP2 SHL SHR DUP9 MLOAD SWAP3 DUP4 SWAP2 DUP14 DUP4 ADD SWAP6 TIMESTAMP DUP8 SWAP2 PUSH1 0x60 SWAP4 SWAP2 DUP4 MSTORE PUSH1 0x20 DUP4 ADD MSTORE PUSH1 0x40 DUP3 ADD MSTORE ADD SWAP1 JUMP JUMPDEST SUB DUP6 DUP2 ADD DUP4 MSTORE DUP3 PUSH2 0xE10 JUMP JUMPDEST MLOAD SWAP1 KECCAK256 MOD SWAP7 PUSH2 0x289 DUP13 PUSH2 0xD21 JUMP JUMPDEST SWAP1 SLOAD SWAP1 DUP13 SHL SHR SWAP5 MLOAD SWAP4 DUP5 SWAP2 DUP3 ADD SWAP6 DUP14 TIMESTAMP DUP9 SWAP2 PUSH1 0x60 SWAP4 SWAP2 DUP4 MSTORE PUSH1 0x20 DUP4 ADD MSTORE PUSH1 0x40 DUP3 ADD MSTORE ADD SWAP1 JUMP JUMPDEST SUB SWAP1 DUP2 ADD DUP4 MSTORE DUP3 PUSH2 0xE10 JUMP JUMPDEST MLOAD SWAP1 KECCAK256 SMOD SWAP3 PUSH1 0x31 NOT DUP5 ADD SWAP4 DUP5 SGT AND PUSH2 0x48E JUMPI PUSH2 0x3A2 SWAP3 PUSH2 0x37A DUP6 SWAP4 DUP5 PUSH2 0x36A DUP10 PUSH2 0x365 PUSH2 0x371 DUP16 SWAP9 DUP4 SWAP13 PUSH1 0x1 SWAP16 SWAP15 DUP16 SWAP12 PUSH2 0x365 PUSH2 0x35C DUP15 PUSH2 0x37F SWAP16 PUSH2 0x32E DUP2 PUSH2 0x328 PUSH2 0x36A SWAP9 PUSH2 0x30D PUSH2 0x344 SWAP6 PUSH2 0xD8F JUMP JUMPDEST SWAP1 SLOAD SWAP1 DUP3 SHL SHR SWAP1 PUSH2 0x31D DUP5 PUSH2 0xDC6 JUMP JUMPDEST SWAP1 SLOAD SWAP2 SHL SHR SWAP1 PUSH2 0xEFD JUMP JUMPDEST SWAP7 PUSH2 0xE60 JUMP JUMPDEST MLOAD PUSH2 0x338 DUP4 PUSH2 0xDC6 JUMP JUMPDEST SWAP1 SLOAD SWAP1 DUP14 SHL SHR SWAP1 PUSH2 0xEFD JUMP JUMPDEST SWAP10 PUSH2 0x351 PUSH1 0x5 SLOAD SWAP3 PUSH2 0xD21 JUMP JUMPDEST SWAP1 SLOAD SWAP2 SHL SHR SWAP1 PUSH2 0xEAD JUMP JUMPDEST SWAP5 PUSH1 0x6 SLOAD PUSH2 0xEAD JUMP JUMPDEST PUSH2 0xEAD JUMP JUMPDEST SDIV SWAP1 PUSH2 0xED0 JUMP JUMPDEST SWAP5 PUSH1 0x7 SLOAD PUSH2 0xEAD JUMP JUMPDEST PUSH2 0xED0 JUMP JUMPDEST SDIV PUSH2 0x389 DUP5 PUSH2 0xD21 JUMP JUMPDEST SWAP1 SWAP2 SWAP1 DUP3 SLOAD SWAP1 PUSH1 0x3 SHL SWAP2 DUP3 SHL SWAP2 PUSH1 0x0 NOT SWAP1 SHL NOT AND OR SWAP1 SSTORE JUMP JUMPDEST PUSH2 0x3D5 PUSH2 0x3CC PUSH2 0x3B1 DUP5 PUSH2 0xDC6 JUMP JUMPDEST SWAP1 SLOAD SWAP1 DUP5 SHL SHR PUSH2 0x3C0 DUP6 PUSH2 0xD21 JUMP JUMPDEST SWAP1 SLOAD SWAP1 DUP6 SHL SHR SWAP1 PUSH2 0xED0 JUMP JUMPDEST PUSH2 0x389 DUP5 PUSH2 0xDC6 JUMP JUMPDEST PUSH2 0x404 PUSH2 0x3E1 DUP4 PUSH2 0xD8F JUMP JUMPDEST SWAP1 SLOAD SWAP1 DUP4 SHL SHR PUSH2 0x3FE PUSH2 0x3F3 DUP6 PUSH2 0xCEA JUMP JUMPDEST SWAP1 SLOAD SWAP1 DUP6 SHL SHR PUSH2 0xE97 JUMP JUMPDEST SWAP1 PUSH2 0xEFD JUMP JUMPDEST PUSH2 0x433 PUSH2 0x410 DUP5 PUSH2 0xD8F JUMP JUMPDEST SWAP1 SLOAD SWAP1 DUP5 SHL SHR PUSH2 0x42D PUSH2 0x422 DUP7 PUSH2 0xD58 JUMP JUMPDEST SWAP1 SLOAD SWAP1 DUP7 SHL SHR PUSH2 0xE97 JUMP JUMPDEST SWAP1 PUSH2 0xED0 JUMP JUMPDEST SWAP2 DUP2 DUP4 SWAP3 PUSH2 0x440 DUP7 PUSH2 0xDC6 JUMP JUMPDEST SWAP1 SLOAD SWAP1 DUP5 SHL SHR SLT PUSH2 0x47B JUMPI JUMPDEST POP PUSH2 0x456 DUP5 PUSH2 0xDC6 JUMP JUMPDEST SWAP1 SLOAD SWAP2 SHL SHR SGT PUSH2 0x468 JUMPI JUMPDEST POP ADD PUSH2 0x1CA JUMP JUMPDEST PUSH2 0x475 SWAP1 PUSH2 0x389 DUP4 PUSH2 0xDC6 JUMP JUMPDEST CODESIZE PUSH2 0x461 JUMP JUMPDEST PUSH2 0x488 SWAP1 PUSH2 0x389 DUP7 PUSH2 0xDC6 JUMP JUMPDEST CODESIZE PUSH2 0x44C JUMP JUMPDEST PUSH1 0x11 DUP12 PUSH4 0x4E487B71 PUSH1 0xE0 SHL PUSH1 0x0 MSTORE MSTORE PUSH1 0x24 PUSH1 0x0 REVERT JUMPDEST PUSH4 0x4E487B71 PUSH1 0xE0 SHL DUP9 MSTORE PUSH1 0x11 DUP13 MSTORE PUSH1 0x24 DUP9 REVERT JUMPDEST POP DUP1 RETURN JUMPDEST DUP3 MLOAD PUSH3 0x461BCD PUSH1 0xE5 SHL DUP2 MSTORE DUP1 DUP7 ADD DUP6 SWAP1 MSTORE PUSH1 0x12 PUSH1 0x24 DUP3 ADD MSTORE PUSH18 0x44696D656E7369756E6920696E6567616C65 PUSH1 0x70 SHL PUSH1 0x44 DUP3 ADD MSTORE PUSH1 0x64 SWAP1 REVERT JUMPDEST SWAP1 SWAP2 POP RETURNDATASIZE DUP1 DUP4 DUP4 RETURNDATACOPY PUSH2 0x504 DUP2 DUP4 PUSH2 0xE10 JUMP JUMPDEST DUP2 ADD SWAP1 DUP5 DUP2 DUP4 SUB SLT PUSH2 0x141 JUMPI DUP1 MLOAD SWAP1 PUSH8 0xFFFFFFFFFFFFFFFF DUP3 GT PUSH2 0x588 JUMPI ADD SWAP1 DUP1 PUSH1 0x1F DUP4 ADD SLT ISZERO PUSH2 0x141 JUMPI DUP2 MLOAD PUSH2 0x53A DUP2 PUSH2 0xE48 JUMP JUMPDEST SWAP3 PUSH2 0x547 DUP7 MLOAD SWAP5 DUP6 PUSH2 0xE10 JUMP JUMPDEST DUP2 DUP5 MSTORE DUP7 DUP1 DUP6 ADD SWAP3 PUSH1 0x5 SHL DUP3 ADD ADD SWAP3 DUP4 GT PUSH2 0x584 JUMPI DUP7 DUP1 SWAP2 ADD SWAP2 JUMPDEST DUP4 DUP4 LT PUSH2 0x574 JUMPI POP POP POP POP SWAP1 CODESIZE PUSH2 0x1BE JUMP JUMPDEST DUP3 MLOAD DUP2 MSTORE SWAP2 DUP2 ADD SWAP2 DUP8 SWAP2 ADD PUSH2 0x562 JUMP JUMPDEST DUP5 DUP1 REVERT JUMPDEST DUP4 DUP1 REVERT JUMPDEST POP DUP3 MLOAD SWAP1 RETURNDATASIZE SWAP1 DUP3 RETURNDATACOPY RETURNDATASIZE SWAP1 REVERT JUMPDEST DUP2 PUSH32 0xC06999D659D5132DD93A1915097DA1A6A24201916389E38DA2404E4BCA5E59BE SWAP3 DUP8 SSTORE DUP8 MLOAD SWAP1 DUP2 MSTORE LOG1 CODESIZE DUP7 PUSH2 0x19B JUMP JUMPDEST POP SWAP2 POP SWAP2 DUP5 DUP2 DUP2 RETURNDATASIZE DUP4 GT PUSH2 0x5F7 JUMPI JUMPDEST PUSH2 0x5E3 DUP2 DUP4 PUSH2 0xE10 JUMP JUMPDEST DUP2 ADD SUB SLT PUSH2 0x141 JUMPI MLOAD DUP6 SWAP3 DUP4 SWAP3 SWAP1 SWAP2 PUSH2 0x18D JUMP JUMPDEST POP RETURNDATASIZE PUSH2 0x5D9 JUMP JUMPDEST DUP5 MLOAD RETURNDATASIZE DUP5 DUP3 RETURNDATACOPY RETURNDATASIZE SWAP1 REVERT JUMPDEST POP DUP1 REVERT JUMPDEST POP CALLVALUE PUSH2 0x141 JUMPI PUSH1 0x20 CALLDATASIZE PUSH1 0x3 NOT ADD SLT PUSH2 0x141 JUMPI CALLDATALOAD PUSH1 0xD SLOAD DUP2 LT ISZERO PUSH2 0x141 JUMPI PUSH1 0x20 SWAP3 POP PUSH1 0xD PUSH1 0x0 MSTORE PUSH32 0xD7B6990105719101DABEB77144F2A3385C8033ACD3AF97E9423A695E81AD1EB5 ADD SLOAD SWAP1 MLOAD SWAP1 DUP2 MSTORE RETURN JUMPDEST POP CALLVALUE PUSH2 0x141 JUMPI DUP3 PUSH1 0x3 NOT CALLDATASIZE ADD SLT PUSH2 0x141 JUMPI PUSH1 0x20 SWAP3 POP SLOAD SWAP1 MLOAD SWAP1 DUP2 MSTORE RETURN JUMPDEST POP CALLVALUE PUSH2 0x141 JUMPI PUSH1 0x20 CALLDATASIZE PUSH1 0x3 NOT ADD SLT PUSH2 0x141 JUMPI CALLDATALOAD PUSH1 0xB SLOAD DUP2 LT ISZERO PUSH2 0x141 JUMPI PUSH1 0x20 SWAP3 POP PUSH1 0xB PUSH1 0x0 MSTORE PUSH32 0x175B7A638427703F0DBE7BB9BBF987A2551717B34E79F33B5B1008D1FA01DB9 ADD SLOAD SWAP1 MLOAD SWAP1 DUP2 MSTORE RETURN JUMPDEST POP CALLVALUE PUSH2 0x141 JUMPI PUSH1 0x20 CALLDATASIZE PUSH1 0x3 NOT ADD SLT PUSH2 0x141 JUMPI CALLDATALOAD PUSH1 0x9 SLOAD DUP2 LT ISZERO PUSH2 0x141 JUMPI PUSH1 0x20 SWAP3 POP PUSH1 0x9 PUSH1 0x0 MSTORE PUSH32 0x6E1540171B6C0C960B71A7020D9F60077F6AF931A8BBF590DA0223DACF75C7AF ADD SLOAD SWAP1 MLOAD SWAP1 DUP2 MSTORE RETURN JUMPDEST POP CALLVALUE PUSH2 0x141 JUMPI PUSH1 0x20 CALLDATASIZE PUSH1 0x3 NOT ADD SLT PUSH2 0x141 JUMPI CALLDATALOAD SWAP2 PUSH1 0x2 SLOAD DUP4 LT ISZERO PUSH2 0x13E JUMPI POP PUSH2 0x130 PUSH1 0x20 SWAP3 PUSH2 0xD8F JUMP JUMPDEST POP SWAP1 CALLVALUE PUSH2 0x141 JUMPI PUSH1 0x3 NOT SWAP2 DUP4 DUP4 CALLDATASIZE ADD SLT PUSH2 0x588 JUMPI PUSH2 0x775 DUP3 MLOAD PUSH2 0x770 DUP2 PUSH2 0x769 DUP2 PUSH2 0x1172 JUMP JUMPDEST SUB DUP3 PUSH2 0xE10 JUMP JUMPDEST PUSH2 0xF16 JUMP JUMPDEST PUSH1 0x3 SWAP1 PUSH1 0x3 SLOAD DUP2 SLT PUSH2 0x8E0 JUMPI JUMPDEST PUSH1 0xE SLOAD SWAP1 PUSH2 0x78F DUP3 PUSH2 0xE48 JUMP JUMPDEST SWAP3 PUSH2 0x79C DUP7 MLOAD SWAP5 DUP6 PUSH2 0xE10 JUMP JUMPDEST DUP3 DUP5 MSTORE PUSH2 0x7A8 DUP4 PUSH2 0xE48 JUMP JUMPDEST SWAP3 PUSH1 0x20 SWAP2 PUSH1 0x20 DUP7 ADD SWAP5 PUSH1 0x1F NOT ADD CALLDATASIZE DUP7 CALLDATACOPY DUP10 JUMPDEST DUP3 DUP2 LT PUSH2 0x88F JUMPI POP POP PUSH1 0x10 SLOAD PUSH1 0x1 PUSH1 0x1 PUSH1 0xA0 SHL SUB AND SWAP5 SWAP1 POP DUP5 EXTCODESIZE ISZERO PUSH2 0x88B JUMPI SWAP7 SWAP3 SWAP1 DUP9 SWAP5 SWAP3 PUSH1 0x20 DUP9 MLOAD SWAP10 DUP11 SWAP7 PUSH4 0x2FC0395F PUSH1 0xE0 SHL DUP9 MSTORE PUSH1 0x60 DUP11 DUP10 ADD MSTORE PUSH2 0x802 PUSH1 0x64 DUP10 ADD PUSH2 0x1172 JUMP JUMPDEST SWAP4 PUSH1 0x24 DUP10 ADD MSTORE DUP8 DUP5 SUB ADD PUSH1 0x44 DUP9 ADD MSTORE MLOAD SWAP2 DUP3 DUP2 MSTORE ADD SWAP3 SWAP2 DUP7 JUMPDEST DUP3 DUP2 LT PUSH2 0x871 JUMPI POP POP POP POP DUP4 DUP4 DUP1 SWAP3 SUB SWAP3 GAS CALL DUP1 ISZERO PUSH2 0x867 JUMPI PUSH2 0x83C JUMPI DUP4 DUP1 RETURN JUMPDEST PUSH8 0xFFFFFFFFFFFFFFFF DUP4 GT PUSH2 0x854 JUMPI POP MSTORE CODESIZE DUP1 DUP1 DUP4 DUP1 RETURN JUMPDEST PUSH4 0x4E487B71 PUSH1 0xE0 SHL DUP5 MSTORE PUSH1 0x41 SWAP1 MSTORE PUSH1 0x24 DUP4 REVERT JUMPDEST DUP3 MLOAD RETURNDATASIZE DUP7 DUP3 RETURNDATACOPY RETURNDATASIZE SWAP1 REVERT JUMPDEST DUP4 MLOAD DUP6 MSTORE DUP12 SWAP8 POP DUP11 SWAP7 POP SWAP4 DUP2 ADD SWAP4 SWAP3 DUP2 ADD SWAP3 PUSH1 0x1 ADD PUSH2 0x81B JUMP JUMPDEST DUP9 DUP1 REVERT JUMPDEST PUSH2 0x898 DUP2 PUSH2 0xD58 JUMP JUMPDEST SWAP1 SLOAD SWAP1 DUP4 SHL SHR PUSH2 0x8A7 DUP3 PUSH2 0xCEA JUMP JUMPDEST SWAP1 SLOAD SWAP1 DUP5 SHL SHR DUP2 ADD DUP1 SWAP2 GT PUSH2 0x8CD JUMPI SWAP1 PUSH1 0x1 SWAP2 DUP3 SHR PUSH2 0x8C6 DUP3 DUP11 PUSH2 0xE60 JUMP JUMPDEST MSTORE ADD PUSH2 0x7BA JUMP JUMPDEST PUSH4 0x4E487B71 PUSH1 0xE0 SHL DUP13 MSTORE PUSH1 0x11 DUP10 MSTORE PUSH1 0x24 DUP13 REVERT JUMPDEST DUP1 PUSH1 0x3 SSTORE DUP6 SLOAD PUSH8 0xFFFFFFFFFFFFFFFF DUP2 GT PUSH2 0x9F1 JUMPI PUSH9 0x10000000000000000 DUP2 GT PUSH2 0x9F1 JUMPI PUSH1 0x2 SLOAD DUP2 PUSH1 0x2 SSTORE DUP1 DUP3 LT PUSH2 0x9B1 JUMPI JUMPDEST POP PUSH32 0x290DECD9548B62A8D60345A988386FC84BA6BC95484008F6362F93160EF3E563 PUSH1 0x2 DUP9 MSTORE DUP1 SLOAD SWAP1 DUP9 SWAP2 JUMPDEST DUP4 DUP4 LT PUSH2 0x97B JUMPI POP POP POP POP DUP4 MLOAD DUP2 DUP2 MSTORE PUSH32 0x409D103F7876158F293A85EE39F235CE0C309AB1ACA81024A51DFB4B471E556E PUSH1 0x20 ADDRESS SWAP3 LOG2 PUSH2 0x782 JUMP JUMPDEST PUSH1 0x1 DUP1 SWAP2 SWAP3 ADD SWAP3 DUP4 SLOAD SWAP3 DUP2 PUSH32 0x405787FA12A823E0F2B7631CC41B3BA8828B3321CA811111FA75CD3AA3BB5ACE ADD SSTORE ADD SWAP2 SWAP1 PUSH2 0x940 JUMP JUMPDEST DUP2 PUSH32 0x405787FA12A823E0F2B7631CC41B3BA8828B3321CA811111FA75CD3AA3BB5ACE SWAP2 DUP3 ADD SWAP2 ADD JUMPDEST DUP2 DUP2 LT PUSH2 0x9E6 JUMPI POP PUSH2 0x914 JUMP JUMPDEST DUP9 DUP2 SSTORE PUSH1 0x1 ADD PUSH2 0x9D9 JUMP JUMPDEST PUSH4 0x4E487B71 PUSH1 0xE0 SHL DUP8 MSTORE PUSH1 0x41 DUP5 MSTORE PUSH1 0x24 DUP8 REVERT JUMPDEST POP CALLVALUE PUSH2 0x141 JUMPI PUSH1 0x20 CALLDATASIZE PUSH1 0x3 NOT ADD SLT PUSH2 0x141 JUMPI CALLDATALOAD PUSH1 0xA SLOAD DUP2 LT ISZERO PUSH2 0x141 JUMPI PUSH1 0xA PUSH1 0x20 SWAP4 MSTORE PUSH32 0xC65A7BB8D6351C1CF70C95A316CC6A92839C986682D98BC35F958F4883F9D2A8 ADD SLOAD SWAP1 MLOAD SWAP1 DUP2 MSTORE RETURN JUMPDEST POP SWAP2 CALLVALUE PUSH2 0x13E JUMPI DUP2 PUSH1 0x3 NOT CALLDATASIZE ADD SLT PUSH2 0x13E JUMPI POP PUSH2 0xA74 PUSH1 0x20 SWAP3 PUSH1 0x24 CALLDATALOAD SWAP1 CALLDATALOAD PUSH2 0x110E JUMP JUMPDEST SWAP1 MLOAD SWAP1 DUP2 MSTORE RETURN JUMPDEST POP POP CALLVALUE PUSH2 0x608 JUMPI DUP2 PUSH1 0x3 NOT CALLDATASIZE ADD SLT PUSH2 0x608 JUMPI PUSH1 0x10 SLOAD SWAP1 MLOAD PUSH1 0x1 PUSH1 0x1 PUSH1 0xA0 SHL SUB SWAP1 SWAP2 AND DUP2 MSTORE PUSH1 0x20 SWAP1 RETURN JUMPDEST POP CALLVALUE PUSH2 0x141 JUMPI PUSH1 0x20 CALLDATASIZE PUSH1 0x3 NOT ADD SLT PUSH2 0x141 JUMPI CALLDATALOAD SWAP2 PUSH1 0xE SLOAD DUP4 LT ISZERO PUSH2 0x13E JUMPI POP PUSH2 0x130 PUSH1 0x20 SWAP3 PUSH2 0xD58 JUMP JUMPDEST POP CALLVALUE PUSH2 0x141 JUMPI PUSH1 0x20 CALLDATASIZE PUSH1 0x3 NOT ADD SLT PUSH2 0x141 JUMPI CALLDATALOAD SWAP2 PUSH1 0x1 SLOAD DUP4 LT ISZERO PUSH2 0x13E JUMPI POP PUSH2 0x130 PUSH1 0x20 SWAP3 PUSH2 0xD21 JUMP JUMPDEST POP POP CALLVALUE PUSH2 0x608 JUMPI DUP2 PUSH1 0x3 NOT CALLDATASIZE ADD SLT PUSH2 0x608 JUMPI PUSH1 0x20 SWAP1 PUSH1 0x6 SLOAD SWAP1 MLOAD SWAP1 DUP2 MSTORE RETURN JUMPDEST POP CALLVALUE PUSH2 0x141 JUMPI PUSH1 0x20 CALLDATASIZE PUSH1 0x3 NOT ADD SLT PUSH2 0x141 JUMPI CALLDATALOAD PUSH1 0xC SLOAD DUP2 LT ISZERO PUSH2 0x141 JUMPI PUSH1 0xC PUSH1 0x20 SWAP4 MSTORE PUSH32 0xDF6966C971051C3D54EC59162606531493A51404A002842F56009D7E5CF4A8C7 ADD SLOAD SWAP1 MLOAD SWAP1 DUP2 MSTORE RETURN JUMPDEST POP POP CALLVALUE PUSH2 0x608 JUMPI DUP2 PUSH1 0x3 NOT CALLDATASIZE ADD SLT PUSH2 0x608 JUMPI PUSH1 0x20 SWAP1 PUSH1 0x3 SLOAD SWAP1 MLOAD SWAP1 DUP2 MSTORE RETURN JUMPDEST POP POP CALLVALUE PUSH2 0x608 JUMPI DUP2 PUSH1 0x3 NOT CALLDATASIZE ADD SLT PUSH2 0x608 JUMPI PUSH1 0x20 SWAP1 PUSH1 0x7 SLOAD SWAP1 MLOAD SWAP1 DUP2 MSTORE RETURN JUMPDEST POP CALLVALUE PUSH2 0x141 JUMPI PUSH1 0x20 CALLDATASIZE PUSH1 0x3 NOT ADD SLT PUSH2 0x141 JUMPI CALLDATALOAD SWAP2 PUSH1 0xF SLOAD DUP4 LT ISZERO PUSH2 0x13E JUMPI POP PUSH2 0x130 PUSH1 0x20 SWAP3 PUSH2 0xCEA JUMP JUMPDEST POP SWAP2 CALLVALUE PUSH2 0x13E JUMPI PUSH1 0x20 SWAP1 PUSH1 0x20 PUSH1 0x3 NOT CALLDATASIZE ADD SLT PUSH2 0x13E JUMPI DUP4 CALLDATALOAD SWAP4 PUSH8 0xFFFFFFFFFFFFFFFF DUP6 GT PUSH2 0x608 JUMPI CALLDATASIZE PUSH1 0x23 DUP7 ADD SLT ISZERO PUSH2 0x608 JUMPI DUP5 ADD CALLDATALOAD PUSH2 0xC0B DUP2 PUSH2 0xE48 JUMP JUMPDEST SWAP5 PUSH2 0xC18 DUP6 MLOAD SWAP7 DUP8 PUSH2 0xE10 JUMP JUMPDEST DUP2 DUP7 MSTORE PUSH1 0x24 PUSH1 0x20 DUP8 ADD SWAP3 PUSH1 0x5 SHL DUP3 ADD ADD SWAP3 CALLDATASIZE DUP5 GT PUSH2 0x13E JUMPI POP PUSH1 0x24 ADD SWAP1 JUMPDEST DUP3 DUP3 LT PUSH2 0xC49 JUMPI PUSH1 0x20 DUP6 PUSH2 0xA74 DUP9 PUSH2 0xF16 JUMP JUMPDEST DUP2 CALLDATALOAD DUP2 MSTORE SWAP1 DUP4 ADD SWAP1 DUP4 ADD PUSH2 0xC36 JUMP JUMPDEST POP POP CALLVALUE PUSH2 0x608 JUMPI DUP2 PUSH1 0x3 NOT CALLDATASIZE ADD SLT PUSH2 0x608 JUMPI PUSH1 0x20 SWAP1 PUSH1 0x5 SLOAD SWAP1 MLOAD SWAP1 DUP2 MSTORE RETURN JUMPDEST POP CALLVALUE PUSH2 0x141 JUMPI PUSH1 0x20 CALLDATASIZE PUSH1 0x3 NOT ADD SLT PUSH2 0x141 JUMPI CALLDATALOAD SWAP2 PUSH1 0x8 SLOAD DUP4 LT ISZERO PUSH2 0x13E JUMPI POP PUSH2 0x130 PUSH1 0x20 SWAP3 JUMPDEST PUSH1 0x8 SLOAD DUP2 LT ISZERO PUSH2 0xCD4 JUMPI PUSH1 0x8 PUSH1 0x0 MSTORE PUSH32 0xF3F7A9FE364FAAB93B216DA50A3214154F22A0A2B415B23A84C8169E8B636EE3 ADD SWAP1 PUSH1 0x0 SWAP1 JUMP JUMPDEST PUSH4 0x4E487B71 PUSH1 0xE0 SHL PUSH1 0x0 MSTORE PUSH1 0x32 PUSH1 0x4 MSTORE PUSH1 0x24 PUSH1 0x0 REVERT JUMPDEST PUSH1 0xF SLOAD DUP2 LT ISZERO PUSH2 0xCD4 JUMPI PUSH1 0xF PUSH1 0x0 MSTORE PUSH32 0x8D1108E10BCB7C27DDDFC02ED9D693A074039D026CF4EA4240B40F7D581AC802 ADD SWAP1 PUSH1 0x0 SWAP1 JUMP JUMPDEST PUSH1 0x1 SLOAD DUP2 LT ISZERO PUSH2 0xCD4 JUMPI PUSH1 0x1 PUSH1 0x0 MSTORE PUSH32 0xB10E2D527612073B26EECDFD717E6A320CF44B4AFAC2B0732D9FCBE2B7FA0CF6 ADD SWAP1 PUSH1 0x0 SWAP1 JUMP JUMPDEST PUSH1 0xE SLOAD DUP2 LT ISZERO PUSH2 0xCD4 JUMPI PUSH1 0xE PUSH1 0x0 MSTORE PUSH32 0xBB7B4A454DC3493923482F07822329ED19E8244EFF582CC204F8554C3620C3FD ADD SWAP1 PUSH1 0x0 SWAP1 JUMP JUMPDEST PUSH1 0x2 SLOAD DUP2 LT ISZERO PUSH2 0xCD4 JUMPI PUSH1 0x2 PUSH1 0x0 MSTORE PUSH32 0x405787FA12A823E0F2B7631CC41B3BA8828B3321CA811111FA75CD3AA3BB5ACE ADD SWAP1 PUSH1 0x0 SWAP1 JUMP JUMPDEST SWAP1 PUSH1 0x0 SWAP2 DUP3 SLOAD DUP2 LT ISZERO PUSH2 0xDFC JUMPI DUP3 DUP1 MSTORE PUSH32 0x290DECD9548B62A8D60345A988386FC84BA6BC95484008F6362F93160EF3E563 ADD SWAP2 SWAP1 JUMP JUMPDEST PUSH4 0x4E487B71 PUSH1 0xE0 SHL DUP4 MSTORE PUSH1 0x32 PUSH1 0x4 MSTORE PUSH1 0x24 DUP4 REVERT JUMPDEST SWAP1 PUSH1 0x1F DUP1 NOT SWAP2 ADD AND DUP2 ADD SWAP1 DUP2 LT PUSH8 0xFFFFFFFFFFFFFFFF DUP3 GT OR PUSH2 0xE32 JUMPI PUSH1 0x40 MSTORE JUMP JUMPDEST PUSH4 0x4E487B71 PUSH1 0xE0 SHL PUSH1 0x0 MSTORE PUSH1 0x41 PUSH1 0x4 MSTORE PUSH1 0x24 PUSH1 0x0 REVERT JUMPDEST PUSH8 0xFFFFFFFFFFFFFFFF DUP2 GT PUSH2 0xE32 JUMPI PUSH1 0x5 SHL PUSH1 0x20 ADD SWAP1 JUMP JUMPDEST DUP1 MLOAD DUP3 LT ISZERO PUSH2 0xCD4 JUMPI PUSH1 0x20 SWAP2 PUSH1 0x5 SHL ADD ADD SWAP1 JUMP JUMPDEST SWAP2 SWAP1 DUP3 SUB SWAP2 DUP3 GT PUSH2 0xE81 JUMPI JUMP JUMPDEST PUSH4 0x4E487B71 PUSH1 0xE0 SHL PUSH1 0x0 MSTORE PUSH1 0x11 PUSH1 0x4 MSTORE PUSH1 0x24 PUSH1 0x0 REVERT JUMPDEST SWAP1 DUP2 PUSH1 0x1 SHL SWAP2 DUP1 DUP4 SDIV PUSH1 0x2 EQ SWAP1 ISZERO OR ISZERO PUSH2 0xE81 JUMPI JUMP JUMPDEST DUP2 DUP2 MUL SWAP3 SWAP2 PUSH1 0x0 DUP3 SLT PUSH1 0x1 PUSH1 0xFF SHL DUP3 EQ AND PUSH2 0xE81 JUMPI DUP2 DUP5 SDIV EQ SWAP1 ISZERO OR ISZERO PUSH2 0xE81 JUMPI JUMP JUMPDEST SWAP2 SWAP1 SWAP2 PUSH1 0x0 DUP4 DUP3 ADD SWAP4 DUP5 SLT SWAP2 SLT SWAP1 DUP1 ISZERO DUP3 AND SWAP2 ISZERO AND OR PUSH2 0xE81 JUMPI JUMP JUMPDEST PUSH1 0x1 PUSH1 0xFF SHL DUP2 EQ PUSH2 0xE81 JUMPI PUSH1 0x0 SUB SWAP1 JUMP JUMPDEST DUP2 DUP2 SUB SWAP3 SWAP2 PUSH1 0x0 SGT DUP1 ISZERO DUP3 DUP6 SGT AND SWAP2 DUP5 SLT AND OR PUSH2 0xE81 JUMPI JUMP JUMPDEST PUSH1 0x0 SWAP1 DUP1 MLOAD PUSH1 0x40 MLOAD DUP1 PUSH1 0xA SLOAD DUP1 DUP3 MSTORE PUSH1 0x20 DUP1 SWAP3 ADD SWAP1 PUSH1 0xA DUP8 MSTORE PUSH32 0xC65A7BB8D6351C1CF70C95A316CC6A92839C986682D98BC35F958F4883F9D2A8 SWAP1 DUP8 JUMPDEST DUP2 DUP2 LT PUSH2 0x10FA JUMPI POP POP POP DUP3 PUSH2 0xF69 SWAP2 SUB DUP4 PUSH2 0xE10 JUMP JUMPDEST PUSH1 0x40 MLOAD DUP1 SWAP2 PUSH1 0x20 PUSH1 0xC SLOAD SWAP3 DUP4 DUP2 MSTORE ADD SWAP2 PUSH1 0xC DUP9 MSTORE PUSH32 0xDF6966C971051C3D54EC59162606531493A51404A002842F56009D7E5CF4A8C7 SWAP2 DUP9 SWAP1 JUMPDEST DUP3 DUP3 LT PUSH2 0x10E3 JUMPI POP POP POP POP DUP2 PUSH2 0xFB9 SWAP2 SUB DUP3 PUSH2 0xE10 JUMP JUMPDEST DUP5 SWAP4 JUMPDEST DUP4 DUP6 LT PUSH2 0xFCB JUMPI POP POP POP POP POP SWAP1 JUMP JUMPDEST SWAP1 SWAP2 SWAP3 SWAP4 SWAP5 PUSH1 0x1 SWAP1 PUSH2 0xFDD DUP8 DUP5 PUSH2 0xE60 JUMP JUMPDEST MLOAD SWAP1 PUSH1 0x0 DUP3 SLT ISZERO PUSH2 0x1014 JUMPI PUSH2 0x3FE DUP3 PUSH2 0x1002 PUSH2 0xFFC PUSH2 0x1008 SWAP6 DUP13 PUSH2 0x110E JUMP JUMPDEST SWAP2 PUSH2 0xEEC JUMP JUMPDEST SWAP1 PUSH2 0xEAD JUMP JUMPDEST SWAP6 JUMPDEST ADD SWAP4 SWAP3 SWAP2 SWAP1 PUSH2 0xFBC JUMP JUMPDEST PUSH2 0x1092 SWAP2 DUP1 DUP1 PUSH2 0x1024 DUP12 DUP11 PUSH2 0xE60 JUMP JUMPDEST MLOAD LT PUSH2 0x10C2 JUMPI POP PUSH2 0x103F SWAP1 PUSH2 0x1039 DUP11 DUP10 PUSH2 0xE60 JUMP JUMPDEST MLOAD PUSH2 0xE74 JUMP JUMPDEST PUSH2 0x1049 DUP10 DUP9 PUSH2 0xE60 JUMP JUMPDEST MSTORE PUSH1 0x0 JUMPDEST DUP1 PUSH2 0x1058 DUP11 DUP9 PUSH2 0xE60 JUMP JUMPDEST MLOAD LT PUSH2 0x1098 JUMPI PUSH2 0x106C SWAP1 PUSH2 0x1039 DUP11 DUP9 PUSH2 0xE60 JUMP JUMPDEST PUSH2 0x1076 DUP10 DUP8 PUSH2 0xE60 JUMP JUMPDEST MSTORE PUSH2 0x42D PUSH1 0x0 JUMPDEST PUSH2 0x1086 DUP11 PUSH2 0xC9D JUMP JUMPDEST SWAP1 SLOAD SWAP1 PUSH1 0x3 SHL SHR PUSH2 0xEAD JUMP JUMPDEST SWAP6 PUSH2 0x100A JUMP JUMPDEST PUSH2 0x10B0 PUSH2 0x42D SWAP2 PUSH2 0x10A9 DUP12 DUP10 PUSH2 0xE60 JUMP JUMPDEST MLOAD SWAP1 PUSH2 0xE74 JUMP JUMPDEST PUSH1 0x0 PUSH2 0x10BC DUP12 DUP10 PUSH2 0xE60 JUMP JUMPDEST MSTORE PUSH2 0x107D JUMP JUMPDEST PUSH2 0x10D1 SWAP2 POP PUSH2 0x10A9 DUP11 DUP10 PUSH2 0xE60 JUMP JUMPDEST PUSH1 0x0 PUSH2 0x10DD DUP11 DUP10 PUSH2 0xE60 JUMP JUMPDEST MSTORE PUSH2 0x104D JUMP JUMPDEST DUP4 SLOAD DUP6 MSTORE SWAP4 DUP5 ADD SWAP4 PUSH1 0x1 SWAP4 DUP5 ADD SWAP4 SWAP1 SWAP2 ADD SWAP1 PUSH2 0xFA2 JUMP JUMPDEST DUP3 SLOAD DUP5 MSTORE SWAP3 DUP5 ADD SWAP3 PUSH1 0x1 SWAP3 DUP4 ADD SWAP3 ADD PUSH2 0xF53 JUMP JUMPDEST PUSH2 0x1117 SWAP1 PUSH2 0xC9D JUMP JUMPDEST SWAP1 SLOAD SWAP1 PUSH1 0x3 SHL SHR SWAP1 PUSH1 0x0 DUP2 SLT PUSH1 0x0 EQ PUSH2 0x116E JUMPI PUSH2 0x1133 SWAP1 PUSH2 0xEEC JUMP JUMPDEST PUSH1 0x1 SHR PUSH1 0x14 ADD DUP1 PUSH1 0x14 GT PUSH2 0xE81 JUMPI PUSH1 0x28 DUP2 GT PUSH2 0x1166 JUMPI JUMPDEST PUSH1 0x64 SUB SWAP1 PUSH1 0x64 DUP3 GT PUSH2 0xE81 JUMPI PUSH1 0x64 SWAP2 PUSH2 0x1162 SWAP2 PUSH2 0xEAD JUMP JUMPDEST SDIV SWAP1 JUMP JUMPDEST POP PUSH1 0x28 PUSH2 0x114A JUMP JUMPDEST POP SWAP1 JUMP JUMPDEST PUSH1 0x0 DUP1 SLOAD DUP1 DUP4 MSTORE DUP2 DUP1 MSTORE PUSH1 0x20 SWAP3 DUP4 ADD SWAP3 PUSH32 0x290DECD9548B62A8D60345A988386FC84BA6BC95484008F6362F93160EF3E563 SWAP3 SWAP1 JUMPDEST DUP3 DUP3 LT PUSH2 0x11B4 JUMPI POP POP POP POP SWAP1 JUMP JUMPDEST DUP4 SLOAD DUP6 MSTORE SWAP4 DUP5 ADD SWAP4 PUSH1 0x1 SWAP4 DUP5 ADD SWAP4 SWAP1 SWAP2 ADD SWAP1 PUSH2 0x11A6 JUMP INVALID LOG2 PUSH5 0x6970667358 0x22 SLT KECCAK256 0xCE DUP13 0x5E 0xD CHAINID 0x4C 0xB1 0xAA 0xDA 0xDA 0xB4 0x23 0xD5 SWAP7 DUP2 PUSH3 0x387C8 DUP9 0x2B SIGNEXTEND 0xCE 0xDC BLOCKHASH MLOAD JUMPI STOP 0xB3 CALLER RETURNDATACOPY CHAINID PUSH5 0x736F6C6343 STOP ADDMOD OR STOP CALLER "},"methodIdentifiers":{"batteryCapacity(uint256)":"b6ce6709","batteryCharge(uint256)":"4eb274ff","c1()":"5f57697c","c2()":"48e257cb","capacity(uint256)":"ab1bbeca","flexibilityAbove(uint256)":"78b6d7d4","flexibilityBelow(uint256)":"375a105e","flexibleLoad(uint256)":"e329143f","getEffectiveTariff(uint256,int256)":"957b4056","globalContract()":"90ccfa0f","lastKnownGlobalTimestamp()":"d0c6c7af","objectiveFunction(int256[])":"364132d9","personalBestPosition(uint256)":"a86853d5","personalBestScore()":"4d985ae4","position(uint256)":"f7a95a9e","renewableGeneration(uint256)":"96d14da6","tariff(uint256)":"16b51928","updateBestPositions()":"973b9cc1","updateVelocityAndPosition()":"f6451c0a","velocity(uint256)":"6f240774","w()":"205c9cc7"}}}}}