{"contracts/Node.sol":{"Node":{"abi":[{"inputs":[{"internalType":"address","name":"globalContractAddress","type":"address"},{"internalType":"int256[]","name":"initialPosition","type":"int256[]"},{"internalType":"int256[]","name":"initialVelocity","type":"int256[]"},{"internalType":"int256[]","name":"initialTariff","type":"int256[]"},{"internalType":"uint256[]","name":"initialCapacity","type":"uint256[]"},{"internalType":"uint256[]","name":"initialRenewableGeneration","type":"uint256[]"},{"internalType":"uint256[]","name":"initialBatteryCapacity","type":"uint256[]"},{"internalType":"uint256[]","name":"initialBatteryCharge","type":"uint256[]"},{"internalType":"uint256[]","name":"initialFlexibleLoad","type":"uint256[]"},{"internalType":"uint256[]","name":"_flexibilityAbove","type":"uint256[]"},{"internalType":"uint256[]","name":"_flexibilityBelow","type":"uint256[]"}],"stateMutability":"nonpayable","type":"constructor"},{"anonymous":false,"inputs":[{"indexed":true,"internalType":"address","name":"node","type":"address"},{"indexed":false,"internalType":"int256","name":"newScore","type":"int256"}],"name":"BestPositionUpdated","type":"event"},{"anonymous":false,"inputs":[{"indexed":false,"internalType":"uint256","name":"timestamp","type":"uint256"}],"name":"NewPlanReceived","type":"event"},{"inputs":[{"internalType":"uint256","name":"","type":"uint256"}],"name":"batteryCapacity","outputs":[{"internalType":"uint256","name":"","type":"uint256"}],"stateMutability":"view","type":"function"},{"inputs":[{"internalType":"uint256","name":"","type":"uint256"}],"name":"batteryCharge","outputs":[{"internalType":"uint256","name":"","type":"uint256"}],"stateMutability":"view","type":"function"},{"inputs":[],"name":"c1","outputs":[{"internalType":"int256","name":"","type":"int256"}],"stateMutability":"view","type":"function"},{"inputs":[],"name":"c2","outputs":[{"internalType":"int256","name":"","type":"int256"}],"stateMutability":"view","type":"function"},{"inputs":[{"internalType":"uint256","name":"","type":"uint256"}],"name":"capacity","outputs":[{"internalType":"uint256","name":"","type":"uint256"}],"stateMutability":"view","type":"function"},{"inputs":[{"internalType":"uint256","name":"","type":"uint256"}],"name":"flexibilityAbove","outputs":[{"internalType":"uint256","name":"","type":"uint256"}],"stateMutability":"view","type":"function"},{"inputs":[{"internalType":"uint256","name":"","type":"uint256"}],"name":"flexibilityBelow","outputs":[{"internalType":"uint256","name":"","type":"uint256"}],"stateMutability":"view","type":"function"},{"inputs":[{"internalType":"uint256","name":"","type":"uint256"}],"name":"flexibleLoad","outputs":[{"internalType":"uint256","name":"","type":"uint256"}],"stateMutability":"view","type":"function"},{"inputs":[{"internalType":"uint256","name":"","type":"uint256"}],"name":"frozenBatteryCharge","outputs":[{"internalType":"uint256","name":"","type":"uint256"}],"stateMutability":"view","type":"function"},{"inputs":[{"internalType":"uint256","name":"","type":"uint256"}],"name":"frozenRenewableGeneration","outputs":[{"internalType":"uint256","name":"","type":"uint256"}],"stateMutability":"view","type":"function"},{"inputs":[],"name":"getBatteryCapacity","outputs":[{"internalType":"uint256[]","name":"","type":"uint256[]"}],"stateMutability":"view","type":"function"},{"inputs":[],"name":"getBatteryCharge","outputs":[{"internalType":"uint256[]","name":"","type":"uint256[]"}],"stateMutability":"view","type":"function"},{"inputs":[],"name":"getCapacity","outputs":[{"internalType":"uint256[]","name":"","type":"uint256[]"}],"stateMutability":"view","type":"function"},{"inputs":[{"internalType":"uint256","name":"hour","type":"uint256"},{"internalType":"int256","name":"consumption","type":"int256"}],"name":"getEffectiveTariff","outputs":[{"internalType":"int256","name":"","type":"int256"}],"stateMutability":"view","type":"function"},{"inputs":[],"name":"getFlexibilityAbove","outputs":[{"internalType":"uint256[]","name":"","type":"uint256[]"}],"stateMutability":"view","type":"function"},{"inputs":[],"name":"getFlexibilityBelow","outputs":[{"internalType":"uint256[]","name":"","type":"uint256[]"}],"stateMutability":"view","type":"function"},{"inputs":[],"name":"getFrozenCost","outputs":[{"internalType":"int256","name":"","type":"int256"}],"stateMutability":"view","type":"function"},{"inputs":[],"name":"getFrozenEnergyBreakdown","outputs":[{"components":[{"internalType":"int256","name":"consumption","type":"int256"},{"internalType":"bool","name":"isInjection","type":"bool"},{"internalType":"uint256","name":"fromRenewable","type":"uint256"},{"internalType":"uint256","name":"fromBattery","type":"uint256"},{"internalType":"uint256","name":"fromGrid","type":"uint256"},{"internalType":"int256","name":"globalTarget","type":"int256"},{"internalType":"int256","name":"deviationFromGlobal","type":"int256"}],"internalType":"struct Node.HourlyBreakdown[]","name":"","type":"tuple[]"}],"stateMutability":"view","type":"function"},{"inputs":[],"name":"getPersonalBestPosition","outputs":[{"internalType":"int256[]","name":"","type":"int256[]"}],"stateMutability":"view","type":"function"},{"inputs":[],"name":"getPosition","outputs":[{"internalType":"int256[]","name":"","type":"int256[]"}],"stateMutability":"view","type":"function"},{"inputs":[],"name":"getRenewableGeneration","outputs":[{"internalType":"uint256[]","name":"","type":"uint256[]"}],"stateMutability":"view","type":"function"},{"inputs":[],"name":"getTariff","outputs":[{"internalType":"int256[]","name":"","type":"int256[]"}],"stateMutability":"view","type":"function"},{"inputs":[],"name":"globalContract","outputs":[{"internalType":"contract GlobalContractInterface","name":"","type":"address"}],"stateMutability":"view","type":"function"},{"inputs":[],"name":"lastKnownGlobalTimestamp","outputs":[{"internalType":"uint256","name":"","type":"uint256"}],"stateMutability":"view","type":"function"},{"inputs":[{"internalType":"int256[]","name":"pos","type":"int256[]"}],"name":"objectiveFunction","outputs":[{"internalType":"int256","name":"","type":"int256"}],"stateMutability":"view","type":"function"},{"inputs":[{"internalType":"int256[]","name":"pos","type":"int256[]"}],"name":"objectiveFunctionFrozen","outputs":[{"internalType":"int256","name":"","type":"int256"}],"stateMutability":"view","type":"function"},{"inputs":[{"internalType":"uint256","name":"","type":"uint256"}],"name":"personalBestPosition","outputs":[{"internalType":"int256","name":"","type":"int256"}],"stateMutability":"view","type":"function"},{"inputs":[],"name":"personalBestScore","outputs":[{"internalType":"int256","name":"","type":"int256"}],"stateMutability":"view","type":"function"},{"inputs":[{"internalType":"uint256","name":"","type":"uint256"}],"name":"position","outputs":[{"internalType":"int256","name":"","type":"int256"}],"stateMutability":"view","type":"function"},{"inputs":[{"internalType":"uint256","name":"","type":"uint256"}],"name":"renewableGeneration","outputs":[{"internalType":"uint256","name":"","type":"uint256"}],"stateMutability":"view","type":"function"},{"inputs":[{"internalType":"uint256","name":"","type":"uint256"}],"name":"tariff","outputs":[{"internalType":"int256","name":"","type":"int256"}],"stateMutability":"view","type":"function"},{"inputs":[],"name":"updateBestPositions","outputs":[],"stateMutability":"nonpayable","type":"function"},{"inputs":[],"name":"updateVelocityAndPosition","outputs":[],"stateMutability":"nonpayable","type":"function"},{"inputs":[{"internalType":"uint256","name":"","type":"uint256"}],"name":"velocity","outputs":[{"internalType":"int256","name":"","type":"int256"}],"stateMutability":"view","type":"function"},{"inputs":[],"name":"w","outputs":[{"internalType":"int256","name":"","type":"int256"}],"stateMutability":"view","type":"function"}],"evm":{"bytecode":{"linkReferences":{},"object":"60806040523462000bd25762002fb2803803806200001d8162000bd7565b92833981016101608282031262000bd25781516001600160a01b038116919082900362000bd25760208301516001600160401b03811162000bd257816200006691850162000c15565b60408401519093906001600160401b03811162000bd257826200008b91830162000c15565b60608201516001600160401b03811162000bd25783620000ad91840162000c15565b60808301516001600160401b03811162000bd25784620000cf91850162000c15565b60a08401516001600160401b03811162000bd25785620000f191860162000c15565b60c08501519091906001600160401b03811162000bd257866200011691870162000c15565b60e08601519093906001600160401b03811162000bd257876200013b91880162000c15565b6101008701519095906001600160401b03811162000bd257886200016191890162000c15565b6101208801519097906001600160401b03811162000bd257896200018791830162000c15565b6101408201519099906001600160401b03811162000bd257620001ab920162000c15565b6001600160ff1b03600355603260055560c86006819055600755601080546001600160a01b031916909a179099558951620001e69062000c79565b8051906001600160401b038211620008905768010000000000000000821162000890576000548260005580831062000b9b575b5060200160008052602060002060005b83811062000b86575050505062000241815162000c79565b8051906001600160401b038211620008905768010000000000000000821162000890576001548260015580831062000b4d575b506020016001600052602060002060005b83811062000b3857505050506200029d8a5162000c79565b8051906001600160401b038211620008905768010000000000000000821162000890576002548260025580831062000aff575b506020016002600052602060002060005b83811062000aea5750505050620002f9825162000c79565b8051906001600160401b038211620008905768010000000000000000821162000890576008548260085580831062000ab1575b506020016008600052602060002060005b83811062000a9c575050505062000355835162000c79565b8051906001600160401b038211620008905768010000000000000000821162000890576009548260095580831062000a63575b506020016009600052602060002060005b83811062000a4e5750505050620003b1845162000c79565b8051906001600160401b03821162000890576801000000000000000082116200089057600a5482600a5580831062000a15575b50602001600a600052602060002060005b83811062000a0057505050506200040d855162000c79565b8051906001600160401b03821162000890576801000000000000000082116200089057600b5482600b55808310620009b6575b50602001600b600052602060002060005b838110620009a1575050505062000469865162000c79565b8051906001600160401b03821162000890576801000000000000000082116200089057600c5482600c5580831062000957575b50602001600c600052602060002060005b838110620009425750505050620004c5875162000c79565b8051906001600160401b03821162000890576801000000000000000082116200089057600d5482600d5580831062000909575b50602001600d600052602060002060005b838110620008f4575050505062000521885162000c79565b8051906001600160401b03821162000890576801000000000000000082116200089057600e5482600e55808310620008bb575b50602001600e600052602060002060005b838110620008a657505050506200057d895162000c79565b8051906001600160401b03821162000890576801000000000000000082116200089057600f5482600f5580831062000846575b50602001600f600052602060002060005b83811062000831575050505060005b8a518110156200082157620005e6818c62000ca6565b516000548210156200080b576000805260008051602062002f1283398151915282015562000615818c62000ca6565b516002548210156200080b57600260005260008051602062002eb283398151915282015562000645818362000ca6565b516001548210156200080b57600160005260008051602062002f9283398151915282015562000675818462000ca6565b516008548210156200080b57600860005260008051602062002f52833981519152820155620006a5818562000ca6565b516009548210156200080b57600960005260008051602062002f72833981519152820155620006d5818662000ca6565b51600a548210156200080b57600a60005260008051602062002ef283398151915282015562000705818762000ca6565b51600b548210156200080b57600b6000527f0175b7a638427703f0dbe7bb9bbf987a2551717b34e79f33b5b1008d1fa01db982015562000746818862000ca6565b51600c548210156200080b57600c6000527fdf6966c971051c3d54ec59162606531493a51404a002842f56009d7e5cf4a8c782015562000787818962000ca6565b51600d548210156200080b57600d60005260008051602062002f32833981519152820155620007b7818a62000ca6565b51600e548210156200080b57600e60005260008051602062002ed2833981519152820155620007e7818b62000ca6565b5190600f548110156200080b57600191600f600052816020600020015501620005d0565b634e487b7160e01b600052603260045260246000fd5b6040516121f6908162000cbc8239f35b600190602084519401938184015501620005c1565b600f6000527f8d1108e10bcb7c27dddfc02ed9d693a074039d026cf4ea4240b40f7d581ac802908382015b818301811062000883575050620005b0565b6000815560010162000871565b634e487b7160e01b600052604160045260246000fd5b60019060208451940193818401550162000565565b600e60005260008051602062002ed2833981519152908382015b8183018110620008e757505062000554565b60008155600101620008d5565b60019060208451940193818401550162000509565b600d60005260008051602062002f32833981519152908382015b818301811062000935575050620004f8565b6000815560010162000923565b600190602084519401938184015501620004ad565b600c6000527fdf6966c971051c3d54ec59162606531493a51404a002842f56009d7e5cf4a8c7908382015b8183018110620009945750506200049c565b6000815560010162000982565b60019060208451940193818401550162000451565b600b6000527f0175b7a638427703f0dbe7bb9bbf987a2551717b34e79f33b5b1008d1fa01db9908382015b8183018110620009f357505062000440565b60008155600101620009e1565b600190602084519401938184015501620003f5565b600a60005260008051602062002ef2833981519152908382015b818301811062000a41575050620003e4565b6000815560010162000a2f565b60019060208451940193818401550162000399565b600960005260008051602062002f72833981519152908382015b818301811062000a8f57505062000388565b6000815560010162000a7d565b6001906020845194019381840155016200033d565b600860005260008051602062002f52833981519152908382015b818301811062000add5750506200032c565b6000815560010162000acb565b600190602084519401938184015501620002e1565b600260005260008051602062002eb2833981519152908382015b818301811062000b2b575050620002d0565b6000815560010162000b19565b60019060208451940193818401550162000285565b600160005260008051602062002f92833981519152908382015b818301811062000b7957505062000274565b6000815560010162000b67565b60019060208451940193818401550162000229565b6000805260008051602062002f128339815191529081019083015b81811062000bc5575062000219565b6000815560010162000bb6565b600080fd5b6040519190601f01601f191682016001600160401b038111838210176200089057604052565b6001600160401b038111620008905760051b60200190565b9080601f8301121562000bd25781519060209162000c3d62000c378262000bfd565b62000bd7565b9360208086848152019260051b82010192831162000bd257602001905b82821062000c69575050505090565b8151815290830190830162000c5a565b9062000c8962000c378362000bfd565b828152809262000c9c601f199162000bfd565b0190602036910137565b80518210156200080b5760209160051b01019056fe6080604081815260048036101561001557600080fd5b60009260e0843560e01c91826303bc4a86146113a65750816304d019421461137b57816316b5192814611350578163205c9cc714611330578163300aee1414611314578163364132d9146112f6578163375a105e146112cb5781634485bb551461125157816348e257cb146112315781634d985ae4146112115781634eb274ff146111e65781635f57697c146111c65781636f2407741461119b5781637398ab181461112257816378b6d7d4146110f757816385c96e661461107d57816390ccfa0f14611053578163957b40561461103357816396d14da614611008578163973b9cc114610c67578163983bedda14610bec5781639b14d83b14610b71578163a86853d514610b46578163ab1bbeca14610b1b578163b27966e614610aa0578163b6ce670914610a4f578163c40000d4146109d4578163d0c6c7af146109b6578163e329143f14610965578163e7d463851461092e578163f6451c0a146104ed578163f74989481461029f57508063f7a95a9e14610276578063fb722277146101e55763ff9c446f146101a757600080fd5b346101e15760203660031901126101e15735916011548310156101de57506101d0602092611609565b91905490519160031b1c8152f35b80fd5b8280fd5b8284346101de57806003193601126101de57508051600a80548083526000918252602080840194927fc65a7bb8d6351c1cf70c95a316cc6a92839c986682d98bc35f958f4883f9d2a892915b82821061025f5761025b8686610249828b0383611640565b51918291602083526020830190611715565b0390f35b835487529586019560019384019390910190610231565b50346101e15760203660031901126101e157359180548310156101de57506101d06020926114f5565b90508284346101de57806003193601126101de57600254906102c082611678565b946102cd84519687611640565b8286526102d983611678565b60209390601f190184845b8281106104d7575050601054865163b6042cf960e01b815293859250849182906001600160a01b03165afa9182156104cd5783926104a9575b508296949593925b8181106103a75750505083519381850192828652845180945282828701950196915b8483106103545786860387f35b875180518752808501511515878601528082015187830152606080820151908801526080808201519088015260a0808201519088015260c090810151908701529683019694810194600190920191610347565b806103b96001929995969897996115ad565b9054600391821b1c6103c9612157565b9181835287821289840152858751146000146104a0576103fa6103ec858961185b565b515b8060a08601528361199d565b60c084015287821361042b575b5050610413828b61185b565b5261041e818a61185b565b5001969495939296610325565b819061043685611609565b905490821b1c90610446866113cc565b9054911b1c9280821061048b5750508983015286905b81811061047757506060820152855b60808201528a80610407565b610486918160608501526118e9565b61046b565b61049a9250818c8601526118e9565b9061045c565b6103fa886103ee565b6104c69192503d8085833e6104be8183611640565b81019061186f565b908761031d565b85513d85823e3d90fd5b6104df612157565b82828c0101520185906102e4565b5050346101e157826003193601126101e15760105482516302989b4b60e61b8152929060209085906001600160a01b031682868681845afa801561092457859683969596916108ef575b5083855482116108bd575b5050845163b6042cf960e01b815295869182905afa9384156108b3578594610897575b50835185540361086257845b855481101561085e57610583816114f5565b905485514285820190815260208101859052600393841b9290921c6040830152806060830103906105bc601f1992838101835282611640565b6064928391519020069060019182860180871161084b57846065918b6106198b61060d6105e88d6114be565b9054908d1b1c9351938492830195428791606093918352602083015260408201520190565b03878101835282611640565b5190200692610627886114be565b905490881b1c906106608c5191826106548d8201958d428891606093918352602083015260408201520190565b03908101835282611640565b5190200692603119840193841316610836579161071b610720928561070b886107068f8499839b61070b60019f9e938f6106fd816106e56106cf826106c96107129b6106ae610706986115ad565b905490821b1c906106be846114f5565b9054911b1c9061199d565b9661185b565b516106d9836114f5565b9054908d1b1c9061199d565b996106f2600554926114be565b9054911b1c9061197a565b9460065461197a565b61197a565b05906119d4565b9460075461197a565b6119d4565b0561074461072d846114be565b819391549060031b91821b91600019901b19161790565b905561076d610752836114f5565b905490831b1c610761846114be565b905490841b1c906119d4565b61077961072d846114f5565b90556107aa610787836115ad565b905490831b1c6107a461079985611450565b905490851b1c61190c565b9061199d565b6107d96107b6846115ad565b905490841b1c6107d36107c88661153f565b905490861b1c61190c565b906119d4565b918183926107e6866114f5565b905490841b1c12610822575b506107fc846114f5565b9054911b1c1361080e575b5001610571565b61081a61072d836114f5565b905538610807565b61082e61072d866114f5565b9055386107f2565b601188634e487b7160e01b6000525260246000fd5b634e487b7160e01b8c526011895260248cfd5b8580f35b606492519162461bcd60e51b8352820152601260248201527144696d656e7369756e6920696e6567616c6560701b6044820152fd5b6108ac9194503d8087833e6104be8183611640565b9238610565565b83513d87823e3d90fd5b817fc06999d659d5132dd93a1915097da1a6a24201916389e38da2404e4bca5e59be9287558751908152a13883610542565b809550848092503d831161091d575b6109088183611640565b810103126109195785935138610537565b5080fd5b503d6108fe565b84513d84823e3d90fd5b50505034610919578160031936011261091957805161025b9161095b8261095481611785565b0383611640565b5191829182611749565b5050346101e15760203660031901126101e15735600d548110156101e15760209250600d6000527fd7b6990105719101dabeb77144f2a3385c8033acd3af97e9423a695e81ad1eb501549051908152f35b5050346101e157826003193601126101e15760209250549051908152f35b8385346101de57806003193601126101de57508051600980548083526000918252602080840194927f6e1540171b6c0c960b71a7020d9f60077f6af931a8bbf590da0223dacf75c7af92915b828210610a385761025b8686610249828b0383611640565b835487529586019560019384019390910190610a20565b5050346101e15760203660031901126101e15735600b548110156101e15760209250600b6000527f0175b7a638427703f0dbe7bb9bbf987a2551717b34e79f33b5b1008d1fa01db901549051908152f35b8385346101de57806003193601126101de57508051600e80548083526000918252602080840194927fbb7b4a454dc3493923482f07822329ed19e8244eff582cc204f8554c3620c3fd92915b828210610b045761025b8686610249828b0383611640565b835487529586019560019384019390910190610aec565b5050346101e15760203660031901126101e15735916009548310156101de57506101d06020926115d2565b5050346101e15760203660031901126101e15735916002548310156101de57506101d06020926115ad565b8385346101de57806003193601126101de57508051600880548083526000918252602080840194927ff3f7a9fe364faab93b216da50a3214154f22a0a2b415b23a84c8169e8b636ee392915b828210610bd55761025b868661095b828b0383611640565b835487529586019560019384019390910190610bbd565b8385346101de57806003193601126101de57508051600f80548083526000918252602080840194927f8d1108e10bcb7c27dddfc02ed9d693a074039d026cf4ea4240b40f7d581ac80292915b828210610c505761025b8686610249828b0383611640565b835487529586019560019384019390910190610c38565b505090346101e157600319918383360112610d5b57610c9a8251610c9581610c8e816117d0565b0382611640565b611dae565b600380548212610da7575b908591600e54610cb481611829565b91845b828110610d5f5750506010546001600160a01b0316919050813b15610d5b5783610d1497875198899586948593632fc0395f60e01b855260608b860152610d00606486016117d0565b926024860152848303016044850152611715565b03925af18015610d5157610d26578380f35b67ffffffffffffffff8311610d3e5750523880808380f35b634e487b7160e01b845260419052602483fd5b82513d86823e3d90fd5b8380fd5b6001919293949550610d8e610d738261153f565b905490851b1c610d8283611450565b905490861b1c906119b6565b821c610d9a828761185b565b5201908894939291610cb7565b919492909384835583549267ffffffffffffffff8411610ff5576801000000000000000093848111610fe25760025481600255808210610fb4575b507f290decd9548b62a8d60345a988386fc84ba6bc95484008f6362f93160ef3e5636002875280549087915b838310610f9057505050506011916011548660115580610f4e575b506012936012548760125580610f0c575b50865b600a54811015610ed257610e5081611576565b9054865491861b1c88821015610ebf57610e7361072d6001938481018a55611609565b9055610e7e82611487565b9054885491871b1c9189821015610eac5761072d82610ea4926001969594018b556113cc565b905501610e3d565b634e487b7160e01b8b5260418d5260248bfd5b634e487b7160e01b8a5260418c5260248afd5b5095979450959250905083518281527f409d103f7876158f293a85ee39f235ce0c309ab1aca81024a51dfb4b471e556e60203092a2610ca5565b601288527fbb8a6a4669ba250d26cd7a459eca9d215f8307e33aebe50379bc5a3617ec3444908101905b818110610f435750610e3a565b888155600101610f36565b601187527f31ecc21a745e3968a04e9570e4425bc18fa8019c68028196b546d1669c200c68908101905b818110610f855750610e29565b878155600101610f78565b60018091920192835492816000805160206121a18339815191520155019190610e0e565b816000805160206121a183398151915291820191015b818110610fd75750610de2565b878155600101610fca565b634e487b7160e01b865260418852602486fd5b634e487b7160e01b855260418752602485fd5b5050346101e15760203660031901126101e1573591600a548310156101de57506101d0602092611576565b505091346101de57816003193601126101de57506101d060209235611419565b5050503461091957816003193601126109195760105490516001600160a01b039091168152602090f35b8385346101de57806003193601126101de578151918291600c54808552602080950194600c83527fdf6966c971051c3d54ec59162606531493a51404a002842f56009d7e5cf4a8c792905b8282106110e05761025b8686610249828b0383611640565b8354875295860195600193840193909101906110c8565b5050346101e15760203660031901126101e1573591600e548310156101de57506101d060209261153f565b8385346101de57806003193601126101de57805461113f81611678565b9161114c84519384611640565b818352601f1961115b83611678565b013660208501375b8181106111775783518061025b8582611749565b806111836001926114f5565b90549060031b1c611194828661185b565b5201611163565b5050346101e15760203660031901126101e15735916001548310156101de57506101d06020926114be565b505050346109195781600319360112610919576020906006549051908152f35b5050346101e15760203660031901126101e1573591600c548310156101de57506101d0602092611487565b505050346109195781600319360112610919576020906003549051908152f35b505050346109195781600319360112610919576020906007549051908152f35b8385346101de57806003193601126101de578151918291600b54808552602080950194600b83527f0175b7a638427703f0dbe7bb9bbf987a2551717b34e79f33b5b1008d1fa01db992905b8282106112b45761025b8686610249828b0383611640565b83548752958601956001938401939091019061129c565b5050346101e15760203660031901126101e1573591600f548310156101de57506101d0602092611450565b505050346109195760209061130d610c9536611690565b9051908152f35b505050346109195760209061130d61132b36611690565b6119f0565b505050346109195781600319360112610919576020906005549051908152f35b5050346101e15760203660031901126101e15735916008548310156101de57506101d0602092611419565b5050346101e15760203660031901126101e15735916012548310156101de57506101d06020926113cc565b8486346101de57806003193601126101de575061130d8261132b81610c8e602096611785565b6012548110156114035760126000527fbb8a6a4669ba250d26cd7a459eca9d215f8307e33aebe50379bc5a3617ec34440190600090565b634e487b7160e01b600052603260045260246000fd5b6008548110156114035760086000527ff3f7a9fe364faab93b216da50a3214154f22a0a2b415b23a84c8169e8b636ee30190600090565b600f5481101561140357600f6000527f8d1108e10bcb7c27dddfc02ed9d693a074039d026cf4ea4240b40f7d581ac8020190600090565b600c5481101561140357600c6000527fdf6966c971051c3d54ec59162606531493a51404a002842f56009d7e5cf4a8c70190600090565b6001548110156114035760016000527fb10e2d527612073b26eecdfd717e6a320cf44b4afac2b0732d9fcbe2b7fa0cf60190600090565b90600091825481101561152b578280527f290decd9548b62a8d60345a988386fc84ba6bc95484008f6362f93160ef3e563019190565b634e487b7160e01b83526032600452602483fd5b600e5481101561140357600e6000527fbb7b4a454dc3493923482f07822329ed19e8244eff582cc204f8554c3620c3fd0190600090565b600a5481101561140357600a6000527fc65a7bb8d6351c1cf70c95a316cc6a92839c986682d98bc35f958f4883f9d2a80190600090565b6002548110156114035760026000526000805160206121a18339815191520190600090565b6009548110156114035760096000527f6e1540171b6c0c960b71a7020d9f60077f6af931a8bbf590da0223dacf75c7af0190600090565b6011548110156114035760116000527f31ecc21a745e3968a04e9570e4425bc18fa8019c68028196b546d1669c200c680190600090565b90601f8019910116810190811067ffffffffffffffff82111761166257604052565b634e487b7160e01b600052604160045260246000fd5b67ffffffffffffffff81116116625760051b60200190565b602080600319830112611710576004359167ffffffffffffffff831161171057806023840112156117105782600401356116c981611678565b936116d76040519586611640565b8185526024602086019260051b82010192831161171057602401905b828210611701575050505090565b813581529083019083016116f3565b600080fd5b90815180825260208080930193019160005b828110611735575050505090565b835185529381019392810192600101611727565b602090602060408183019282815285518094520193019160005b828110611771575050505090565b835185529381019392810192600101611763565b6002549081815260208091019160026000526000805160206121a1833981519152916000905b8282106117b9575050505090565b8354855293840193600193840193909101906117ab565b600080548083528180526020928301927f290decd9548b62a8d60345a988386fc84ba6bc95484008f6362f93160ef3e56392905b828210611812575050505090565b835485529384019360019384019390910190611804565b9061183382611678565b6118406040519182611640565b8281528092611851601f1991611678565b0190602036910137565b80518210156114035760209160051b010190565b60209081818403126117105780519067ffffffffffffffff821161171057019180601f840112156117105782516118a581611678565b936118b36040519586611640565b818552838086019260051b820101928311611710578301905b8282106118da575050505090565b815181529083019083016118cc565b919082039182116118f657565b634e487b7160e01b600052601160045260246000fd5b908160011b91808305600214901517156118f657565b90604b820291808305604b14901517156118f657565b90602b820291808305602b14901517156118f657565b906012820291808305601214901517156118f657565b908160021b91808305600414901517156118f657565b818102929160008212600160ff1b8214166118f65781840514901517156118f657565b818103929160001380158285131691841216176118f657565b919082018092116118f657565b600160ff1b81146118f65760000390565b919091600083820193841291129080158216911516176118f657565b600090805160115490611a0282611829565b91845b818110611d8a57505060125491611a1b83611829565b92855b818110611d6657505060105460405163b6042cf960e01b815291908690839060049082906001600160a01b03165afa918215611d5b578692611d3f575b509392919085945b828610611a735750505050505090565b909192939495611bab6001916107d3611a8c8a8a61185b565b51600080821215611c7d5750611ab181611aa58d611419565b90549060031b1c61197a565b905b611b928c6107d3611b8c611ac6836115d2565b90546003949160009190861b1c871315611c7057506107d3611b86611af9611aed846115d2565b905490881b1c8961199d565b955b611b63611b07856115ad565b905490831b1c611b3e611b37611b1c8861153f565b905490861b1c611b2b89611450565b905490871b1c906119b6565b918c61199d565b60008112611c6157905b60009181811315611c5957611b5d925061199d565b94611609565b9054911b1c88600091818113600014611c5157611b80925061199d565b95611922565b91611938565b9161194e565b6000918d8b8b5114611bb7575b505061071b91926119d4565b96019493929190611a63565b611bc4611bcc918c61185b565b51809261199d565b90838212611c425781905b8015611c3a57600a9005915b828213611bf3575b50508d611b9f565b61071b941215611c1a57611c0f91611c0a9161199d565b611964565b925b92913880611beb565b611c2a611c3492611c2f9261199d565b61190c565b6119c3565b92611c11565b508391611be3565b611c4b826119c3565b90611bd7565b505095611922565b505094611609565b611c6a906119c3565b90611b48565b611b866107d39195611afb565b611ceb908c8384611c8e838c61185b565b5110611d1957611cab611cb291611ca5848d61185b565b516118e9565b918a61185b565b528c815b8c81611cc2848361185b565b5110611cf157611ce091611ca584611cd99361185b565b918d61185b565b525b611aa58d611419565b90611ab3565b611d1391611d0584611d0c9396959661185b565b51906118e9565b928d61185b565b52611ce2565b50611d2e611d27828b61185b565b51856118e9565b82611d39838c61185b565b52611cb6565b611d549192503d8088833e6104be8183611640565b9038611a5b565b6040513d88823e3d90fd5b80611d726001926113cc565b90549060031b1c611d83828861185b565b5201611a1e565b80611d96600192611609565b90549060031b1c611da7828761185b565b5201611a05565b60009080516040519081600a8054808552602080950190600a88527fc65a7bb8d6351c1cf70c95a316cc6a92839c986682d98bc35f958f4883f9d2a890885b87828210612143575050505082611e05910383611640565b604051918280956020600c54958681520194600c8a527fdf6966c971051c3d54ec59162606531493a51404a002842f56009d7e5cf4a8c7918a905b8282106121295750505050611e59906004940386611640565b60105460405163b6042cf960e01b815293889185919082906001600160a01b03165afa92831561211e578793612102575b50949392919086955b838710611ea4575050505050505090565b90919293949596611fa26001916107d3611ebe8b8b61185b565b518b6000808312156120565750611ed882611aa583611419565b915b611f8a611ee6836115d2565b905460039160009190831b1c84131561204957506107d3611b8c611f18611f0c876115d2565b905490851b1c8661199d565b925b6107d3611b86611f29896115ad565b905490841b1c611f60611f59611f3e8c61153f565b905490871b1c611f4d8d611450565b905490881b1c906119b6565b918a61199d565b6000811261203a57905b6000918181131561203257611f7f925061199d565b925b611b638a611576565b906000928c8c5114611faf57505061071b91926119d4565b9701959493929190611e93565b611bc4611fbc918d61185b565b90838212612022578a82915b80156120195705915b828213611fe1575b50508e611b9f565b61071b94121561200357611ff891611c0a9161199d565b925b92913880611fd9565b611c2a61201392611c2f9261199d565b92611ffa565b50508391611fd1565b8a61202c836119c3565b91611fc8565b505092611f81565b612043906119c3565b90611f6a565b611b8c6107d39192611f1a565b6120be908384612066858c61185b565b51106120e25761207a90611ca5858c61185b565b612084848b61185b565b52805b8d8483612094828461185b565b51106120c4576120ad829394611ca5836120b39561185b565b9261185b565b525b611aa583611419565b91611eda565b6120d68294611d05836120dc9561185b565b9361185b565b526120b5565b506120f0611d27848b61185b565b90806120fc858c61185b565b52612087565b6121179193503d8089833e6104be8183611640565b9138611e8a565b6040513d89823e3d90fd5b835488529687019689945060019384019390910190611e40565b835485529093019260019283019201611ded565b6040519060e0820182811067ffffffffffffffff821117611662576040528160c06000918281528260208201528260408201528260608201528260808201528260a0820152015256fe405787fa12a823e0f2b7631cc41b3ba8828b3321ca811111fa75cd3aa3bb5acea264697066735822122017ced4aa76a9d8e97c4b8053817825f836e093c791d234bdbf4059cc2862c79764736f6c63430008170033405787fa12a823e0f2b7631cc41b3ba8828b3321ca811111fa75cd3aa3bb5acebb7b4a454dc3493923482f07822329ed19e8244eff582cc204f8554c3620c3fdc65a7bb8d6351c1cf70c95a316cc6a92839c986682d98bc35f958f4883f9d2a8290decd9548b62a8d60345a988386fc84ba6bc95484008f6362f93160ef3e563d7b6990105719101dabeb77144f2a3385c8033acd3af97e9423a695e81ad1eb5f3f7a9fe364faab93b216da50a3214154f22a0a2b415b23a84c8169e8b636ee36e1540171b6c0c960b71a7020d9f60077f6af931a8bbf590da0223dacf75c7afb10e2d527612073b26eecdfd717e6a320cf44b4afac2b0732d9fcbe2b7fa0cf6","opcodes":"PUSH1 0x80 PUSH1 0x40 MSTORE CALLVALUE PUSH3 0xBD2 JUMPI PUSH3 0x2FB2 DUP1 CODESIZE SUB DUP1 PUSH3 0x1D DUP2 PUSH3 0xBD7 JUMP JUMPDEST SWAP3 DUP4 CODECOPY DUP2 ADD PUSH2 0x160 DUP3 DUP3 SUB SLT PUSH3 0xBD2 JUMPI DUP2 MLOAD PUSH1 0x1 PUSH1 0x1 PUSH1 0xA0 SHL SUB DUP2 AND SWAP2 SWAP1 DUP3 SWAP1 SUB PUSH3 0xBD2 JUMPI PUSH1 0x20 DUP4 ADD MLOAD PUSH1 0x1 PUSH1 0x1 PUSH1 0x40 SHL SUB DUP2 GT PUSH3 0xBD2 JUMPI DUP2 PUSH3 0x66 SWAP2 DUP6 ADD PUSH3 0xC15 JUMP JUMPDEST PUSH1 0x40 DUP5 ADD MLOAD SWAP1 SWAP4 SWAP1 PUSH1 0x1 PUSH1 0x1 PUSH1 0x40 SHL SUB DUP2 GT PUSH3 0xBD2 JUMPI DUP3 PUSH3 0x8B SWAP2 DUP4 ADD PUSH3 0xC15 JUMP JUMPDEST PUSH1 0x60 DUP3 ADD MLOAD PUSH1 0x1 PUSH1 0x1 PUSH1 0x40 SHL SUB DUP2 GT PUSH3 0xBD2 JUMPI DUP4 PUSH3 0xAD SWAP2 DUP5 ADD PUSH3 0xC15 JUMP JUMPDEST PUSH1 0x80 DUP4 ADD MLOAD PUSH1 0x1 PUSH1 0x1 PUSH1 0x40 SHL SUB DUP2 GT PUSH3 0xBD2 JUMPI DUP5 PUSH3 0xCF SWAP2 DUP6 ADD PUSH3 0xC15 JUMP JUMPDEST PUSH1 0xA0 DUP5 ADD MLOAD PUSH1 0x1 PUSH1 0x1 PUSH1 0x40 SHL SUB DUP2 GT PUSH3 0xBD2 JUMPI DUP6 PUSH3 0xF1 SWAP2 DUP7 ADD PUSH3 0xC15 JUMP JUMPDEST PUSH1 0xC0 DUP6 ADD MLOAD SWAP1 SWAP2 SWAP1 PUSH1 0x1 PUSH1 0x1 PUSH1 0x40 SHL SUB DUP2 GT PUSH3 0xBD2 JUMPI DUP7 PUSH3 0x116 SWAP2 DUP8 ADD PUSH3 0xC15 JUMP JUMPDEST PUSH1 0xE0 DUP7 ADD MLOAD SWAP1 SWAP4 SWAP1 PUSH1 0x1 PUSH1 0x1 PUSH1 0x40 SHL SUB DUP2 GT PUSH3 0xBD2 JUMPI DUP8 PUSH3 0x13B SWAP2 DUP9 ADD PUSH3 0xC15 JUMP JUMPDEST PUSH2 0x100 DUP8 ADD MLOAD SWAP1 SWAP6 SWAP1 PUSH1 0x1 PUSH1 0x1 PUSH1 0x40 SHL SUB DUP2 GT PUSH3 0xBD2 JUMPI DUP9 PUSH3 0x161 SWAP2 DUP10 ADD PUSH3 0xC15 JUMP JUMPDEST PUSH2 0x120 DUP9 ADD MLOAD SWAP1 SWAP8 SWAP1 PUSH1 0x1 PUSH1 0x1 PUSH1 0x40 SHL SUB DUP2 GT PUSH3 0xBD2 JUMPI DUP10 PUSH3 0x187 SWAP2 DUP4 ADD PUSH3 0xC15 JUMP JUMPDEST PUSH2 0x140 DUP3 ADD MLOAD SWAP1 SWAP10 SWAP1 PUSH1 0x1 PUSH1 0x1 PUSH1 0x40 SHL SUB DUP2 GT PUSH3 0xBD2 JUMPI PUSH3 0x1AB SWAP3 ADD PUSH3 0xC15 JUMP JUMPDEST PUSH1 0x1 PUSH1 0x1 PUSH1 0xFF SHL SUB PUSH1 0x3 SSTORE PUSH1 0x32 PUSH1 0x5 SSTORE PUSH1 0xC8 PUSH1 0x6 DUP2 SWAP1 SSTORE PUSH1 0x7 SSTORE PUSH1 0x10 DUP1 SLOAD PUSH1 0x1 PUSH1 0x1 PUSH1 0xA0 SHL SUB NOT AND SWAP1 SWAP11 OR SWAP1 SWAP10 SSTORE DUP10 MLOAD PUSH3 0x1E6 SWAP1 PUSH3 0xC79 JUMP JUMPDEST DUP1 MLOAD SWAP1 PUSH1 0x1 PUSH1 0x1 PUSH1 0x40 SHL SUB DUP3 GT PUSH3 0x890 JUMPI PUSH9 0x10000000000000000 DUP3 GT PUSH3 0x890 JUMPI PUSH1 0x0 SLOAD DUP3 PUSH1 0x0 SSTORE DUP1 DUP4 LT PUSH3 0xB9B JUMPI JUMPDEST POP PUSH1 0x20 ADD PUSH1 0x0 DUP1 MSTORE PUSH1 0x20 PUSH1 0x0 KECCAK256 PUSH1 0x0 JUMPDEST DUP4 DUP2 LT PUSH3 0xB86 JUMPI POP POP POP POP PUSH3 0x241 DUP2 MLOAD PUSH3 0xC79 JUMP JUMPDEST DUP1 MLOAD SWAP1 PUSH1 0x1 PUSH1 0x1 PUSH1 0x40 SHL SUB DUP3 GT PUSH3 0x890 JUMPI PUSH9 0x10000000000000000 DUP3 GT PUSH3 0x890 JUMPI PUSH1 0x1 SLOAD DUP3 PUSH1 0x1 SSTORE DUP1 DUP4 LT PUSH3 0xB4D JUMPI JUMPDEST POP PUSH1 0x20 ADD PUSH1 0x1 PUSH1 0x0 MSTORE PUSH1 0x20 PUSH1 0x0 KECCAK256 PUSH1 0x0 JUMPDEST DUP4 DUP2 LT PUSH3 0xB38 JUMPI POP POP POP POP PUSH3 0x29D DUP11 MLOAD PUSH3 0xC79 JUMP JUMPDEST DUP1 MLOAD SWAP1 PUSH1 0x1 PUSH1 0x1 PUSH1 0x40 SHL SUB DUP3 GT PUSH3 0x890 JUMPI PUSH9 0x10000000000000000 DUP3 GT PUSH3 0x890 JUMPI PUSH1 0x2 SLOAD DUP3 PUSH1 0x2 SSTORE DUP1 DUP4 LT PUSH3 0xAFF JUMPI JUMPDEST POP PUSH1 0x20 ADD PUSH1 0x2 PUSH1 0x0 MSTORE PUSH1 0x20 PUSH1 0x0 KECCAK256 PUSH1 0x0 JUMPDEST DUP4 DUP2 LT PUSH3 0xAEA JUMPI POP POP POP POP PUSH3 0x2F9 DUP3 MLOAD PUSH3 0xC79 JUMP JUMPDEST DUP1 MLOAD SWAP1 PUSH1 0x1 PUSH1 0x1 PUSH1 0x40 SHL SUB DUP3 GT PUSH3 0x890 JUMPI PUSH9 0x10000000000000000 DUP3 GT PUSH3 0x890 JUMPI PUSH1 0x8 SLOAD DUP3 PUSH1 0x8 SSTORE DUP1 DUP4 LT PUSH3 0xAB1 JUMPI JUMPDEST POP PUSH1 0x20 ADD PUSH1 0x8 PUSH1 0x0 MSTORE PUSH1 0x20 PUSH1 0x0 KECCAK256 PUSH1 0x0 JUMPDEST DUP4 DUP2 LT PUSH3 0xA9C JUMPI POP POP POP POP PUSH3 0x355 DUP4 MLOAD PUSH3 0xC79 JUMP JUMPDEST DUP1 MLOAD SWAP1 PUSH1 0x1 PUSH1 0x1 PUSH1 0x40 SHL SUB DUP3 GT PUSH3 0x890 JUMPI PUSH9 0x10000000000000000 DUP3 GT PUSH3 0x890 JUMPI PUSH1 0x9 SLOAD DUP3 PUSH1 0x9 SSTORE DUP1 DUP4 LT PUSH3 0xA63 JUMPI JUMPDEST POP PUSH1 0x20 ADD PUSH1 0x9 PUSH1 0x0 MSTORE PUSH1 0x20 PUSH1 0x0 KECCAK256 PUSH1 0x0 JUMPDEST DUP4 DUP2 LT PUSH3 0xA4E JUMPI POP POP POP POP PUSH3 0x3B1 DUP5 MLOAD PUSH3 0xC79 JUMP JUMPDEST DUP1 MLOAD SWAP1 PUSH1 0x1 PUSH1 0x1 PUSH1 0x40 SHL SUB DUP3 GT PUSH3 0x890 JUMPI PUSH9 0x10000000000000000 DUP3 GT PUSH3 0x890 JUMPI PUSH1 0xA SLOAD DUP3 PUSH1 0xA SSTORE DUP1 DUP4 LT PUSH3 0xA15 JUMPI JUMPDEST POP PUSH1 0x20 ADD PUSH1 0xA PUSH1 0x0 MSTORE PUSH1 0x20 PUSH1 0x0 KECCAK256 PUSH1 0x0 JUMPDEST DUP4 DUP2 LT PUSH3 0xA00 JUMPI POP POP POP POP PUSH3 0x40D DUP6 MLOAD PUSH3 0xC79 JUMP JUMPDEST DUP1 MLOAD SWAP1 PUSH1 0x1 PUSH1 0x1 PUSH1 0x40 SHL SUB DUP3 GT PUSH3 0x890 JUMPI PUSH9 0x10000000000000000 DUP3 GT PUSH3 0x890 JUMPI PUSH1 0xB SLOAD DUP3 PUSH1 0xB SSTORE DUP1 DUP4 LT PUSH3 0x9B6 JUMPI JUMPDEST POP PUSH1 0x20 ADD PUSH1 0xB PUSH1 0x0 MSTORE PUSH1 0x20 PUSH1 0x0 KECCAK256 PUSH1 0x0 JUMPDEST DUP4 DUP2 LT PUSH3 0x9A1 JUMPI POP POP POP POP PUSH3 0x469 DUP7 MLOAD PUSH3 0xC79 JUMP JUMPDEST DUP1 MLOAD SWAP1 PUSH1 0x1 PUSH1 0x1 PUSH1 0x40 SHL SUB DUP3 GT PUSH3 0x890 JUMPI PUSH9 0x10000000000000000 DUP3 GT PUSH3 0x890 JUMPI PUSH1 0xC SLOAD DUP3 PUSH1 0xC SSTORE DUP1 DUP4 LT PUSH3 0x957 JUMPI JUMPDEST POP PUSH1 0x20 ADD PUSH1 0xC PUSH1 0x0 MSTORE PUSH1 0x20 PUSH1 0x0 KECCAK256 PUSH1 0x0 JUMPDEST DUP4 DUP2 LT PUSH3 0x942 JUMPI POP POP POP POP PUSH3 0x4C5 DUP8 MLOAD PUSH3 0xC79 JUMP JUMPDEST DUP1 MLOAD SWAP1 PUSH1 0x1 PUSH1 0x1 PUSH1 0x40 SHL SUB DUP3 GT PUSH3 0x890 JUMPI PUSH9 0x10000000000000000 DUP3 GT PUSH3 0x890 JUMPI PUSH1 0xD SLOAD DUP3 PUSH1 0xD SSTORE DUP1 DUP4 LT PUSH3 0x909 JUMPI JUMPDEST POP PUSH1 0x20 ADD PUSH1 0xD PUSH1 0x0 MSTORE PUSH1 0x20 PUSH1 0x0 KECCAK256 PUSH1 0x0 JUMPDEST DUP4 DUP2 LT PUSH3 0x8F4 JUMPI POP POP POP POP PUSH3 0x521 DUP9 MLOAD PUSH3 0xC79 JUMP JUMPDEST DUP1 MLOAD SWAP1 PUSH1 0x1 PUSH1 0x1 PUSH1 0x40 SHL SUB DUP3 GT PUSH3 0x890 JUMPI PUSH9 0x10000000000000000 DUP3 GT PUSH3 0x890 JUMPI PUSH1 0xE SLOAD DUP3 PUSH1 0xE SSTORE DUP1 DUP4 LT PUSH3 0x8BB JUMPI JUMPDEST POP PUSH1 0x20 ADD PUSH1 0xE PUSH1 0x0 MSTORE PUSH1 0x20 PUSH1 0x0 KECCAK256 PUSH1 0x0 JUMPDEST DUP4 DUP2 LT PUSH3 0x8A6 JUMPI POP POP POP POP PUSH3 0x57D DUP10 MLOAD PUSH3 0xC79 JUMP JUMPDEST DUP1 MLOAD SWAP1 PUSH1 0x1 PUSH1 0x1 PUSH1 0x40 SHL SUB DUP3 GT PUSH3 0x890 JUMPI PUSH9 0x10000000000000000 DUP3 GT PUSH3 0x890 JUMPI PUSH1 0xF SLOAD DUP3 PUSH1 0xF SSTORE DUP1 DUP4 LT PUSH3 0x846 JUMPI JUMPDEST POP PUSH1 0x20 ADD PUSH1 0xF PUSH1 0x0 MSTORE PUSH1 0x20 PUSH1 0x0 KECCAK256 PUSH1 0x0 JUMPDEST DUP4 DUP2 LT PUSH3 0x831 JUMPI POP POP POP POP PUSH1 0x0 JUMPDEST DUP11 MLOAD DUP2 LT ISZERO PUSH3 0x821 JUMPI PUSH3 0x5E6 DUP2 DUP13 PUSH3 0xCA6 JUMP JUMPDEST MLOAD PUSH1 0x0 SLOAD DUP3 LT ISZERO PUSH3 0x80B JUMPI PUSH1 0x0 DUP1 MSTORE PUSH1 0x0 DUP1 MLOAD PUSH1 0x20 PUSH3 0x2F12 DUP4 CODECOPY DUP2 MLOAD SWAP2 MSTORE DUP3 ADD SSTORE PUSH3 0x615 DUP2 DUP13 PUSH3 0xCA6 JUMP JUMPDEST MLOAD PUSH1 0x2 SLOAD DUP3 LT ISZERO PUSH3 0x80B JUMPI PUSH1 0x2 PUSH1 0x0 MSTORE PUSH1 0x0 DUP1 MLOAD PUSH1 0x20 PUSH3 0x2EB2 DUP4 CODECOPY DUP2 MLOAD SWAP2 MSTORE DUP3 ADD SSTORE PUSH3 0x645 DUP2 DUP4 PUSH3 0xCA6 JUMP JUMPDEST MLOAD PUSH1 0x1 SLOAD DUP3 LT ISZERO PUSH3 0x80B JUMPI PUSH1 0x1 PUSH1 0x0 MSTORE PUSH1 0x0 DUP1 MLOAD PUSH1 0x20 PUSH3 0x2F92 DUP4 CODECOPY DUP2 MLOAD SWAP2 MSTORE DUP3 ADD SSTORE PUSH3 0x675 DUP2 DUP5 PUSH3 0xCA6 JUMP JUMPDEST MLOAD PUSH1 0x8 SLOAD DUP3 LT ISZERO PUSH3 0x80B JUMPI PUSH1 0x8 PUSH1 0x0 MSTORE PUSH1 0x0 DUP1 MLOAD PUSH1 0x20 PUSH3 0x2F52 DUP4 CODECOPY DUP2 MLOAD SWAP2 MSTORE DUP3 ADD SSTORE PUSH3 0x6A5 DUP2 DUP6 PUSH3 0xCA6 JUMP JUMPDEST MLOAD PUSH1 0x9 SLOAD DUP3 LT ISZERO PUSH3 0x80B JUMPI PUSH1 0x9 PUSH1 0x0 MSTORE PUSH1 0x0 DUP1 MLOAD PUSH1 0x20 PUSH3 0x2F72 DUP4 CODECOPY DUP2 MLOAD SWAP2 MSTORE DUP3 ADD SSTORE PUSH3 0x6D5 DUP2 DUP7 PUSH3 0xCA6 JUMP JUMPDEST MLOAD PUSH1 0xA SLOAD DUP3 LT ISZERO PUSH3 0x80B JUMPI PUSH1 0xA PUSH1 0x0 MSTORE PUSH1 0x0 DUP1 MLOAD PUSH1 0x20 PUSH3 0x2EF2 DUP4 CODECOPY DUP2 MLOAD SWAP2 MSTORE DUP3 ADD SSTORE PUSH3 0x705 DUP2 DUP8 PUSH3 0xCA6 JUMP JUMPDEST MLOAD PUSH1 0xB SLOAD DUP3 LT ISZERO PUSH3 0x80B JUMPI PUSH1 0xB PUSH1 0x0 MSTORE PUSH32 0x175B7A638427703F0DBE7BB9BBF987A2551717B34E79F33B5B1008D1FA01DB9 DUP3 ADD SSTORE PUSH3 0x746 DUP2 DUP9 PUSH3 0xCA6 JUMP JUMPDEST MLOAD PUSH1 0xC SLOAD DUP3 LT ISZERO PUSH3 0x80B JUMPI PUSH1 0xC PUSH1 0x0 MSTORE PUSH32 0xDF6966C971051C3D54EC59162606531493A51404A002842F56009D7E5CF4A8C7 DUP3 ADD SSTORE PUSH3 0x787 DUP2 DUP10 PUSH3 0xCA6 JUMP JUMPDEST MLOAD PUSH1 0xD SLOAD DUP3 LT ISZERO PUSH3 0x80B JUMPI PUSH1 0xD PUSH1 0x0 MSTORE PUSH1 0x0 DUP1 MLOAD PUSH1 0x20 PUSH3 0x2F32 DUP4 CODECOPY DUP2 MLOAD SWAP2 MSTORE DUP3 ADD SSTORE PUSH3 0x7B7 DUP2 DUP11 PUSH3 0xCA6 JUMP JUMPDEST MLOAD PUSH1 0xE SLOAD DUP3 LT ISZERO PUSH3 0x80B JUMPI PUSH1 0xE PUSH1 0x0 MSTORE PUSH1 0x0 DUP1 MLOAD PUSH1 0x20 PUSH3 0x2ED2 DUP4 CODECOPY DUP2 MLOAD SWAP2 MSTORE DUP3 ADD SSTORE PUSH3 0x7E7 DUP2 DUP12 PUSH3 0xCA6 JUMP JUMPDEST MLOAD SWAP1 PUSH1 0xF SLOAD DUP2 LT ISZERO PUSH3 0x80B JUMPI PUSH1 0x1 SWAP2 PUSH1 0xF PUSH1 0x0 MSTORE DUP2 PUSH1 0x20 PUSH1 0x0 KECCAK256 ADD SSTORE ADD PUSH3 0x5D0 JUMP JUMPDEST PUSH4 0x4E487B71 PUSH1 0xE0 SHL PUSH1 0x0 MSTORE PUSH1 0x32 PUSH1 0x4 MSTORE PUSH1 0x24 PUSH1 0x0 REVERT JUMPDEST PUSH1 0x40 MLOAD PUSH2 0x21F6 SWAP1 DUP2 PUSH3 0xCBC DUP3 CODECOPY RETURN JUMPDEST PUSH1 0x1 SWAP1 PUSH1 0x20 DUP5 MLOAD SWAP5 ADD SWAP4 DUP2 DUP5 ADD SSTORE ADD PUSH3 0x5C1 JUMP JUMPDEST PUSH1 0xF PUSH1 0x0 MSTORE PUSH32 0x8D1108E10BCB7C27DDDFC02ED9D693A074039D026CF4EA4240B40F7D581AC802 SWAP1 DUP4 DUP3 ADD JUMPDEST DUP2 DUP4 ADD DUP2 LT PUSH3 0x883 JUMPI POP POP PUSH3 0x5B0 JUMP JUMPDEST PUSH1 0x0 DUP2 SSTORE PUSH1 0x1 ADD PUSH3 0x871 JUMP JUMPDEST PUSH4 0x4E487B71 PUSH1 0xE0 SHL PUSH1 0x0 MSTORE PUSH1 0x41 PUSH1 0x4 MSTORE PUSH1 0x24 PUSH1 0x0 REVERT JUMPDEST PUSH1 0x1 SWAP1 PUSH1 0x20 DUP5 MLOAD SWAP5 ADD SWAP4 DUP2 DUP5 ADD SSTORE ADD PUSH3 0x565 JUMP JUMPDEST PUSH1 0xE PUSH1 0x0 MSTORE PUSH1 0x0 DUP1 MLOAD PUSH1 0x20 PUSH3 0x2ED2 DUP4 CODECOPY DUP2 MLOAD SWAP2 MSTORE SWAP1 DUP4 DUP3 ADD JUMPDEST DUP2 DUP4 ADD DUP2 LT PUSH3 0x8E7 JUMPI POP POP PUSH3 0x554 JUMP JUMPDEST PUSH1 0x0 DUP2 SSTORE PUSH1 0x1 ADD PUSH3 0x8D5 JUMP JUMPDEST PUSH1 0x1 SWAP1 PUSH1 0x20 DUP5 MLOAD SWAP5 ADD SWAP4 DUP2 DUP5 ADD SSTORE ADD PUSH3 0x509 JUMP JUMPDEST PUSH1 0xD PUSH1 0x0 MSTORE PUSH1 0x0 DUP1 MLOAD PUSH1 0x20 PUSH3 0x2F32 DUP4 CODECOPY DUP2 MLOAD SWAP2 MSTORE SWAP1 DUP4 DUP3 ADD JUMPDEST DUP2 DUP4 ADD DUP2 LT PUSH3 0x935 JUMPI POP POP PUSH3 0x4F8 JUMP JUMPDEST PUSH1 0x0 DUP2 SSTORE PUSH1 0x1 ADD PUSH3 0x923 JUMP JUMPDEST PUSH1 0x1 SWAP1 PUSH1 0x20 DUP5 MLOAD SWAP5 ADD SWAP4 DUP2 DUP5 ADD SSTORE ADD PUSH3 0x4AD JUMP JUMPDEST PUSH1 0xC PUSH1 0x0 MSTORE PUSH32 0xDF6966C971051C3D54EC59162606531493A51404A002842F56009D7E5CF4A8C7 SWAP1 DUP4 DUP3 ADD JUMPDEST DUP2 DUP4 ADD DUP2 LT PUSH3 0x994 JUMPI POP POP PUSH3 0x49C JUMP JUMPDEST PUSH1 0x0 DUP2 SSTORE PUSH1 0x1 ADD PUSH3 0x982 JUMP JUMPDEST PUSH1 0x1 SWAP1 PUSH1 0x20 DUP5 MLOAD SWAP5 ADD SWAP4 DUP2 DUP5 ADD SSTORE ADD PUSH3 0x451 JUMP JUMPDEST PUSH1 0xB PUSH1 0x0 MSTORE PUSH32 0x175B7A638427703F0DBE7BB9BBF987A2551717B34E79F33B5B1008D1FA01DB9 SWAP1 DUP4 DUP3 ADD JUMPDEST DUP2 DUP4 ADD DUP2 LT PUSH3 0x9F3 JUMPI POP POP PUSH3 0x440 JUMP JUMPDEST PUSH1 0x0 DUP2 SSTORE PUSH1 0x1 ADD PUSH3 0x9E1 JUMP JUMPDEST PUSH1 0x1 SWAP1 PUSH1 0x20 DUP5 MLOAD SWAP5 ADD SWAP4 DUP2 DUP5 ADD SSTORE ADD PUSH3 0x3F5 JUMP JUMPDEST PUSH1 0xA PUSH1 0x0 MSTORE PUSH1 0x0 DUP1 MLOAD PUSH1 0x20 PUSH3 0x2EF2 DUP4 CODECOPY DUP2 MLOAD SWAP2 MSTORE SWAP1 DUP4 DUP3 ADD JUMPDEST DUP2 DUP4 ADD DUP2 LT PUSH3 0xA41 JUMPI POP POP PUSH3 0x3E4 JUMP JUMPDEST PUSH1 0x0 DUP2 SSTORE PUSH1 0x1 ADD PUSH3 0xA2F JUMP JUMPDEST PUSH1 0x1 SWAP1 PUSH1 0x20 DUP5 MLOAD SWAP5 ADD SWAP4 DUP2 DUP5 ADD SSTORE ADD PUSH3 0x399 JUMP JUMPDEST PUSH1 0x9 PUSH1 0x0 MSTORE PUSH1 0x0 DUP1 MLOAD PUSH1 0x20 PUSH3 0x2F72 DUP4 CODECOPY DUP2 MLOAD SWAP2 MSTORE SWAP1 DUP4 DUP3 ADD JUMPDEST DUP2 DUP4 ADD DUP2 LT PUSH3 0xA8F JUMPI POP POP PUSH3 0x388 JUMP JUMPDEST PUSH1 0x0 DUP2 SSTORE PUSH1 0x1 ADD PUSH3 0xA7D JUMP JUMPDEST PUSH1 0x1 SWAP1 PUSH1 0x20 DUP5 MLOAD SWAP5 ADD SWAP4 DUP2 DUP5 ADD SSTORE ADD PUSH3 0x33D JUMP JUMPDEST PUSH1 0x8 PUSH1 0x0 MSTORE PUSH1 0x0 DUP1 MLOAD PUSH1 0x20 PUSH3 0x2F52 DUP4 CODECOPY DUP2 MLOAD SWAP2 MSTORE SWAP1 DUP4 DUP3 ADD JUMPDEST DUP2 DUP4 ADD DUP2 LT PUSH3 0xADD JUMPI POP POP PUSH3 0x32C JUMP JUMPDEST PUSH1 0x0 DUP2 SSTORE PUSH1 0x1 ADD PUSH3 0xACB JUMP JUMPDEST PUSH1 0x1 SWAP1 PUSH1 0x20 DUP5 MLOAD SWAP5 ADD SWAP4 DUP2 DUP5 ADD SSTORE ADD PUSH3 0x2E1 JUMP JUMPDEST PUSH1 0x2 PUSH1 0x0 MSTORE PUSH1 0x0 DUP1 MLOAD PUSH1 0x20 PUSH3 0x2EB2 DUP4 CODECOPY DUP2 MLOAD SWAP2 MSTORE SWAP1 DUP4 DUP3 ADD JUMPDEST DUP2 DUP4 ADD DUP2 LT PUSH3 0xB2B JUMPI POP POP PUSH3 0x2D0 JUMP JUMPDEST PUSH1 0x0 DUP2 SSTORE PUSH1 0x1 ADD PUSH3 0xB19 JUMP JUMPDEST PUSH1 0x1 SWAP1 PUSH1 0x20 DUP5 MLOAD SWAP5 ADD SWAP4 DUP2 DUP5 ADD SSTORE ADD PUSH3 0x285 JUMP JUMPDEST PUSH1 0x1 PUSH1 0x0 MSTORE PUSH1 0x0 DUP1 MLOAD PUSH1 0x20 PUSH3 0x2F92 DUP4 CODECOPY DUP2 MLOAD SWAP2 MSTORE SWAP1 DUP4 DUP3 ADD JUMPDEST DUP2 DUP4 ADD DUP2 LT PUSH3 0xB79 JUMPI POP POP PUSH3 0x274 JUMP JUMPDEST PUSH1 0x0 DUP2 SSTORE PUSH1 0x1 ADD PUSH3 0xB67 JUMP JUMPDEST PUSH1 0x1 SWAP1 PUSH1 0x20 DUP5 MLOAD SWAP5 ADD SWAP4 DUP2 DUP5 ADD SSTORE ADD PUSH3 0x229 JUMP JUMPDEST PUSH1 0x0 DUP1 MSTORE PUSH1 0x0 DUP1 MLOAD PUSH1 0x20 PUSH3 0x2F12 DUP4 CODECOPY DUP2 MLOAD SWAP2 MSTORE SWAP1 DUP2 ADD SWAP1 DUP4 ADD JUMPDEST DUP2 DUP2 LT PUSH3 0xBC5 JUMPI POP PUSH3 0x219 JUMP JUMPDEST PUSH1 0x0 DUP2 SSTORE PUSH1 0x1 ADD PUSH3 0xBB6 JUMP JUMPDEST PUSH1 0x0 DUP1 REVERT JUMPDEST PUSH1 0x40 MLOAD SWAP2 SWAP1 PUSH1 0x1F ADD PUSH1 0x1F NOT AND DUP3 ADD PUSH1 0x1 PUSH1 0x1 PUSH1 0x40 SHL SUB DUP2 GT DUP4 DUP3 LT OR PUSH3 0x890 JUMPI PUSH1 0x40 MSTORE JUMP JUMPDEST PUSH1 0x1 PUSH1 0x1 PUSH1 0x40 SHL SUB DUP2 GT PUSH3 0x890 JUMPI PUSH1 0x5 SHL PUSH1 0x20 ADD SWAP1 JUMP JUMPDEST SWAP1 DUP1 PUSH1 0x1F DUP4 ADD SLT ISZERO PUSH3 0xBD2 JUMPI DUP2 MLOAD SWAP1 PUSH1 0x20 SWAP2 PUSH3 0xC3D PUSH3 0xC37 DUP3 PUSH3 0xBFD JUMP JUMPDEST PUSH3 0xBD7 JUMP JUMPDEST SWAP4 PUSH1 0x20 DUP1 DUP7 DUP5 DUP2 MSTORE ADD SWAP3 PUSH1 0x5 SHL DUP3 ADD ADD SWAP3 DUP4 GT PUSH3 0xBD2 JUMPI PUSH1 0x20 ADD SWAP1 JUMPDEST DUP3 DUP3 LT PUSH3 0xC69 JUMPI POP POP POP POP SWAP1 JUMP JUMPDEST DUP2 MLOAD DUP2 MSTORE SWAP1 DUP4 ADD SWAP1 DUP4 ADD PUSH3 0xC5A JUMP JUMPDEST SWAP1 PUSH3 0xC89 PUSH3 0xC37 DUP4 PUSH3 0xBFD JUMP JUMPDEST DUP3 DUP2 MSTORE DUP1 SWAP3 PUSH3 0xC9C PUSH1 0x1F NOT SWAP2 PUSH3 0xBFD JUMP JUMPDEST ADD SWAP1 PUSH1 0x20 CALLDATASIZE SWAP2 ADD CALLDATACOPY JUMP JUMPDEST DUP1 MLOAD DUP3 LT ISZERO PUSH3 0x80B JUMPI PUSH1 0x20 SWAP2 PUSH1 0x5 SHL ADD ADD SWAP1 JUMP INVALID PUSH1 0x80 PUSH1 0x40 DUP2 DUP2 MSTORE PUSH1 0x4 DUP1 CALLDATASIZE LT ISZERO PUSH2 0x15 JUMPI PUSH1 0x0 DUP1 REVERT JUMPDEST PUSH1 0x0 SWAP3 PUSH1 0xE0 DUP5 CALLDATALOAD PUSH1 0xE0 SHR SWAP2 DUP3 PUSH4 0x3BC4A86 EQ PUSH2 0x13A6 JUMPI POP DUP2 PUSH4 0x4D01942 EQ PUSH2 0x137B JUMPI DUP2 PUSH4 0x16B51928 EQ PUSH2 0x1350 JUMPI DUP2 PUSH4 0x205C9CC7 EQ PUSH2 0x1330 JUMPI DUP2 PUSH4 0x300AEE14 EQ PUSH2 0x1314 JUMPI DUP2 PUSH4 0x364132D9 EQ PUSH2 0x12F6 JUMPI DUP2 PUSH4 0x375A105E EQ PUSH2 0x12CB JUMPI DUP2 PUSH4 0x4485BB55 EQ PUSH2 0x1251 JUMPI DUP2 PUSH4 0x48E257CB EQ PUSH2 0x1231 JUMPI DUP2 PUSH4 0x4D985AE4 EQ PUSH2 0x1211 JUMPI DUP2 PUSH4 0x4EB274FF EQ PUSH2 0x11E6 JUMPI DUP2 PUSH4 0x5F57697C EQ PUSH2 0x11C6 JUMPI DUP2 PUSH4 0x6F240774 EQ PUSH2 0x119B JUMPI DUP2 PUSH4 0x7398AB18 EQ PUSH2 0x1122 JUMPI DUP2 PUSH4 0x78B6D7D4 EQ PUSH2 0x10F7 JUMPI DUP2 PUSH4 0x85C96E66 EQ PUSH2 0x107D JUMPI DUP2 PUSH4 0x90CCFA0F EQ PUSH2 0x1053 JUMPI DUP2 PUSH4 0x957B4056 EQ PUSH2 0x1033 JUMPI DUP2 PUSH4 0x96D14DA6 EQ PUSH2 0x1008 JUMPI DUP2 PUSH4 0x973B9CC1 EQ PUSH2 0xC67 JUMPI DUP2 PUSH4 0x983BEDDA EQ PUSH2 0xBEC JUMPI DUP2 PUSH4 0x9B14D83B EQ PUSH2 0xB71 JUMPI DUP2 PUSH4 0xA86853D5 EQ PUSH2 0xB46 JUMPI DUP2 PUSH4 0xAB1BBECA EQ PUSH2 0xB1B JUMPI DUP2 PUSH4 0xB27966E6 EQ PUSH2 0xAA0 JUMPI DUP2 PUSH4 0xB6CE6709 EQ PUSH2 0xA4F JUMPI DUP2 PUSH4 0xC40000D4 EQ PUSH2 0x9D4 JUMPI DUP2 PUSH4 0xD0C6C7AF EQ PUSH2 0x9B6 JUMPI DUP2 PUSH4 0xE329143F EQ PUSH2 0x965 JUMPI DUP2 PUSH4 0xE7D46385 EQ PUSH2 0x92E JUMPI DUP2 PUSH4 0xF6451C0A EQ PUSH2 0x4ED JUMPI DUP2 PUSH4 0xF7498948 EQ PUSH2 0x29F JUMPI POP DUP1 PUSH4 0xF7A95A9E EQ PUSH2 0x276 JUMPI DUP1 PUSH4 0xFB722277 EQ PUSH2 0x1E5 JUMPI PUSH4 0xFF9C446F EQ PUSH2 0x1A7 JUMPI PUSH1 0x0 DUP1 REVERT JUMPDEST CALLVALUE PUSH2 0x1E1 JUMPI PUSH1 0x20 CALLDATASIZE PUSH1 0x3 NOT ADD SLT PUSH2 0x1E1 JUMPI CALLDATALOAD SWAP2 PUSH1 0x11 SLOAD DUP4 LT ISZERO PUSH2 0x1DE JUMPI POP PUSH2 0x1D0 PUSH1 0x20 SWAP3 PUSH2 0x1609 JUMP JUMPDEST SWAP2 SWAP1 SLOAD SWAP1 MLOAD SWAP2 PUSH1 0x3 SHL SHR DUP2 MSTORE RETURN JUMPDEST DUP1 REVERT JUMPDEST DUP3 DUP1 REVERT JUMPDEST DUP3 DUP5 CALLVALUE PUSH2 0x1DE JUMPI DUP1 PUSH1 0x3 NOT CALLDATASIZE ADD SLT PUSH2 0x1DE JUMPI POP DUP1 MLOAD PUSH1 0xA DUP1 SLOAD DUP1 DUP4 MSTORE PUSH1 0x0 SWAP2 DUP3 MSTORE PUSH1 0x20 DUP1 DUP5 ADD SWAP5 SWAP3 PUSH32 0xC65A7BB8D6351C1CF70C95A316CC6A92839C986682D98BC35F958F4883F9D2A8 SWAP3 SWAP2 JUMPDEST DUP3 DUP3 LT PUSH2 0x25F JUMPI PUSH2 0x25B DUP7 DUP7 PUSH2 0x249 DUP3 DUP12 SUB DUP4 PUSH2 0x1640 JUMP JUMPDEST MLOAD SWAP2 DUP3 SWAP2 PUSH1 0x20 DUP4 MSTORE PUSH1 0x20 DUP4 ADD SWAP1 PUSH2 0x1715 JUMP JUMPDEST SUB SWAP1 RETURN JUMPDEST DUP4 SLOAD DUP8 MSTORE SWAP6 DUP7 ADD SWAP6 PUSH1 0x1 SWAP4 DUP5 ADD SWAP4 SWAP1 SWAP2 ADD SWAP1 PUSH2 0x231 JUMP JUMPDEST POP CALLVALUE PUSH2 0x1E1 JUMPI PUSH1 0x20 CALLDATASIZE PUSH1 0x3 NOT ADD SLT PUSH2 0x1E1 JUMPI CALLDATALOAD SWAP2 DUP1 SLOAD DUP4 LT ISZERO PUSH2 0x1DE JUMPI POP PUSH2 0x1D0 PUSH1 0x20 SWAP3 PUSH2 0x14F5 JUMP JUMPDEST SWAP1 POP DUP3 DUP5 CALLVALUE PUSH2 0x1DE JUMPI DUP1 PUSH1 0x3 NOT CALLDATASIZE ADD SLT PUSH2 0x1DE JUMPI PUSH1 0x2 SLOAD SWAP1 PUSH2 0x2C0 DUP3 PUSH2 0x1678 JUMP JUMPDEST SWAP5 PUSH2 0x2CD DUP5 MLOAD SWAP7 DUP8 PUSH2 0x1640 JUMP JUMPDEST DUP3 DUP7 MSTORE PUSH2 0x2D9 DUP4 PUSH2 0x1678 JUMP JUMPDEST PUSH1 0x20 SWAP4 SWAP1 PUSH1 0x1F NOT ADD DUP5 DUP5 JUMPDEST DUP3 DUP2 LT PUSH2 0x4D7 JUMPI POP POP PUSH1 0x10 SLOAD DUP7 MLOAD PUSH4 0xB6042CF9 PUSH1 0xE0 SHL DUP2 MSTORE SWAP4 DUP6 SWAP3 POP DUP5 SWAP2 DUP3 SWAP1 PUSH1 0x1 PUSH1 0x1 PUSH1 0xA0 SHL SUB AND GAS STATICCALL SWAP2 DUP3 ISZERO PUSH2 0x4CD JUMPI DUP4 SWAP3 PUSH2 0x4A9 JUMPI JUMPDEST POP DUP3 SWAP7 SWAP5 SWAP6 SWAP4 SWAP3 JUMPDEST DUP2 DUP2 LT PUSH2 0x3A7 JUMPI POP POP POP DUP4 MLOAD SWAP4 DUP2 DUP6 ADD SWAP3 DUP3 DUP7 MSTORE DUP5 MLOAD DUP1 SWAP5 MSTORE DUP3 DUP3 DUP8 ADD SWAP6 ADD SWAP7 SWAP2 JUMPDEST DUP5 DUP4 LT PUSH2 0x354 JUMPI DUP7 DUP7 SUB DUP8 RETURN JUMPDEST DUP8 MLOAD DUP1 MLOAD DUP8 MSTORE DUP1 DUP6 ADD MLOAD ISZERO ISZERO DUP8 DUP7 ADD MSTORE DUP1 DUP3 ADD MLOAD DUP8 DUP4 ADD MSTORE PUSH1 0x60 DUP1 DUP3 ADD MLOAD SWAP1 DUP9 ADD MSTORE PUSH1 0x80 DUP1 DUP3 ADD MLOAD SWAP1 DUP9 ADD MSTORE PUSH1 0xA0 DUP1 DUP3 ADD MLOAD SWAP1 DUP9 ADD MSTORE PUSH1 0xC0 SWAP1 DUP2 ADD MLOAD SWAP1 DUP8 ADD MSTORE SWAP7 DUP4 ADD SWAP7 SWAP5 DUP2 ADD SWAP5 PUSH1 0x1 SWAP1 SWAP3 ADD SWAP2 PUSH2 0x347 JUMP JUMPDEST DUP1 PUSH2 0x3B9 PUSH1 0x1 SWAP3 SWAP10 SWAP6 SWAP7 SWAP9 SWAP8 SWAP10 PUSH2 0x15AD JUMP JUMPDEST SWAP1 SLOAD PUSH1 0x3 SWAP2 DUP3 SHL SHR PUSH2 0x3C9 PUSH2 0x2157 JUMP JUMPDEST SWAP2 DUP2 DUP4 MSTORE DUP8 DUP3 SLT DUP10 DUP5 ADD MSTORE DUP6 DUP8 MLOAD EQ PUSH1 0x0 EQ PUSH2 0x4A0 JUMPI PUSH2 0x3FA PUSH2 0x3EC DUP6 DUP10 PUSH2 0x185B JUMP JUMPDEST MLOAD JUMPDEST DUP1 PUSH1 0xA0 DUP7 ADD MSTORE DUP4 PUSH2 0x199D JUMP JUMPDEST PUSH1 0xC0 DUP5 ADD MSTORE DUP8 DUP3 SGT PUSH2 0x42B JUMPI JUMPDEST POP POP PUSH2 0x413 DUP3 DUP12 PUSH2 0x185B JUMP JUMPDEST MSTORE PUSH2 0x41E DUP2 DUP11 PUSH2 0x185B JUMP JUMPDEST POP ADD SWAP7 SWAP5 SWAP6 SWAP4 SWAP3 SWAP7 PUSH2 0x325 JUMP JUMPDEST DUP2 SWAP1 PUSH2 0x436 DUP6 PUSH2 0x1609 JUMP JUMPDEST SWAP1 SLOAD SWAP1 DUP3 SHL SHR SWAP1 PUSH2 0x446 DUP7 PUSH2 0x13CC JUMP JUMPDEST SWAP1 SLOAD SWAP2 SHL SHR SWAP3 DUP1 DUP3 LT PUSH2 0x48B JUMPI POP POP DUP10 DUP4 ADD MSTORE DUP7 SWAP1 JUMPDEST DUP2 DUP2 LT PUSH2 0x477 JUMPI POP PUSH1 0x60 DUP3 ADD MSTORE DUP6 JUMPDEST PUSH1 0x80 DUP3 ADD MSTORE DUP11 DUP1 PUSH2 0x407 JUMP JUMPDEST PUSH2 0x486 SWAP2 DUP2 PUSH1 0x60 DUP6 ADD MSTORE PUSH2 0x18E9 JUMP JUMPDEST PUSH2 0x46B JUMP JUMPDEST PUSH2 0x49A SWAP3 POP DUP2 DUP13 DUP7 ADD MSTORE PUSH2 0x18E9 JUMP JUMPDEST SWAP1 PUSH2 0x45C JUMP JUMPDEST PUSH2 0x3FA DUP9 PUSH2 0x3EE JUMP JUMPDEST PUSH2 0x4C6 SWAP2 SWAP3 POP RETURNDATASIZE DUP1 DUP6 DUP4 RETURNDATACOPY PUSH2 0x4BE DUP2 DUP4 PUSH2 0x1640 JUMP JUMPDEST DUP2 ADD SWAP1 PUSH2 0x186F JUMP JUMPDEST SWAP1 DUP8 PUSH2 0x31D JUMP JUMPDEST DUP6 MLOAD RETURNDATASIZE DUP6 DUP3 RETURNDATACOPY RETURNDATASIZE SWAP1 REVERT JUMPDEST PUSH2 0x4DF PUSH2 0x2157 JUMP JUMPDEST DUP3 DUP3 DUP13 ADD ADD MSTORE ADD DUP6 SWAP1 PUSH2 0x2E4 JUMP JUMPDEST POP POP CALLVALUE PUSH2 0x1E1 JUMPI DUP3 PUSH1 0x3 NOT CALLDATASIZE ADD SLT PUSH2 0x1E1 JUMPI PUSH1 0x10 SLOAD DUP3 MLOAD PUSH4 0x2989B4B PUSH1 0xE6 SHL DUP2 MSTORE SWAP3 SWAP1 PUSH1 0x20 SWAP1 DUP6 SWAP1 PUSH1 0x1 PUSH1 0x1 PUSH1 0xA0 SHL SUB AND DUP3 DUP7 DUP7 DUP2 DUP5 GAS STATICCALL DUP1 ISZERO PUSH2 0x924 JUMPI DUP6 SWAP7 DUP4 SWAP7 SWAP6 SWAP7 SWAP2 PUSH2 0x8EF JUMPI JUMPDEST POP DUP4 DUP6 SLOAD DUP3 GT PUSH2 0x8BD JUMPI JUMPDEST POP POP DUP5 MLOAD PUSH4 0xB6042CF9 PUSH1 0xE0 SHL DUP2 MSTORE SWAP6 DUP7 SWAP2 DUP3 SWAP1 GAS STATICCALL SWAP4 DUP5 ISZERO PUSH2 0x8B3 JUMPI DUP6 SWAP5 PUSH2 0x897 JUMPI JUMPDEST POP DUP4 MLOAD DUP6 SLOAD SUB PUSH2 0x862 JUMPI DUP5 JUMPDEST DUP6 SLOAD DUP2 LT ISZERO PUSH2 0x85E JUMPI PUSH2 0x583 DUP2 PUSH2 0x14F5 JUMP JUMPDEST SWAP1 SLOAD DUP6 MLOAD TIMESTAMP DUP6 DUP3 ADD SWAP1 DUP2 MSTORE PUSH1 0x20 DUP2 ADD DUP6 SWAP1 MSTORE PUSH1 0x3 SWAP4 DUP5 SHL SWAP3 SWAP1 SWAP3 SHR PUSH1 0x40 DUP4 ADD MSTORE DUP1 PUSH1 0x60 DUP4 ADD SUB SWAP1 PUSH2 0x5BC PUSH1 0x1F NOT SWAP3 DUP4 DUP2 ADD DUP4 MSTORE DUP3 PUSH2 0x1640 JUMP JUMPDEST PUSH1 0x64 SWAP3 DUP4 SWAP2 MLOAD SWAP1 KECCAK256 MOD SWAP1 PUSH1 0x1 SWAP2 DUP3 DUP7 ADD DUP1 DUP8 GT PUSH2 0x84B JUMPI DUP5 PUSH1 0x65 SWAP2 DUP12 PUSH2 0x619 DUP12 PUSH2 0x60D PUSH2 0x5E8 DUP14 PUSH2 0x14BE JUMP JUMPDEST SWAP1 SLOAD SWAP1 DUP14 SHL SHR SWAP4 MLOAD SWAP4 DUP5 SWAP3 DUP4 ADD SWAP6 TIMESTAMP DUP8 SWAP2 PUSH1 0x60 SWAP4 SWAP2 DUP4 MSTORE PUSH1 0x20 DUP4 ADD MSTORE PUSH1 0x40 DUP3 ADD MSTORE ADD SWAP1 JUMP JUMPDEST SUB DUP8 DUP2 ADD DUP4 MSTORE DUP3 PUSH2 0x1640 JUMP JUMPDEST MLOAD SWAP1 KECCAK256 MOD SWAP3 PUSH2 0x627 DUP9 PUSH2 0x14BE JUMP JUMPDEST SWAP1 SLOAD SWAP1 DUP9 SHL SHR SWAP1 PUSH2 0x660 DUP13 MLOAD SWAP2 DUP3 PUSH2 0x654 DUP14 DUP3 ADD SWAP6 DUP14 TIMESTAMP DUP9 SWAP2 PUSH1 0x60 SWAP4 SWAP2 DUP4 MSTORE PUSH1 0x20 DUP4 ADD MSTORE PUSH1 0x40 DUP3 ADD MSTORE ADD SWAP1 JUMP JUMPDEST SUB SWAP1 DUP2 ADD DUP4 MSTORE DUP3 PUSH2 0x1640 JUMP JUMPDEST MLOAD SWAP1 KECCAK256 MOD SWAP3 PUSH1 0x31 NOT DUP5 ADD SWAP4 DUP5 SGT AND PUSH2 0x836 JUMPI SWAP2 PUSH2 0x71B PUSH2 0x720 SWAP3 DUP6 PUSH2 0x70B DUP9 PUSH2 0x706 DUP16 DUP5 SWAP10 DUP4 SWAP12 PUSH2 0x70B PUSH1 0x1 SWAP16 SWAP15 SWAP4 DUP16 PUSH2 0x6FD DUP2 PUSH2 0x6E5 PUSH2 0x6CF DUP3 PUSH2 0x6C9 PUSH2 0x712 SWAP12 PUSH2 0x6AE PUSH2 0x706 SWAP9 PUSH2 0x15AD JUMP JUMPDEST SWAP1 SLOAD SWAP1 DUP3 SHL SHR SWAP1 PUSH2 0x6BE DUP5 PUSH2 0x14F5 JUMP JUMPDEST SWAP1 SLOAD SWAP2 SHL SHR SWAP1 PUSH2 0x199D JUMP JUMPDEST SWAP7 PUSH2 0x185B JUMP JUMPDEST MLOAD PUSH2 0x6D9 DUP4 PUSH2 0x14F5 JUMP JUMPDEST SWAP1 SLOAD SWAP1 DUP14 SHL SHR SWAP1 PUSH2 0x199D JUMP JUMPDEST SWAP10 PUSH2 0x6F2 PUSH1 0x5 SLOAD SWAP3 PUSH2 0x14BE JUMP JUMPDEST SWAP1 SLOAD SWAP2 SHL SHR SWAP1 PUSH2 0x197A JUMP JUMPDEST SWAP5 PUSH1 0x6 SLOAD PUSH2 0x197A JUMP JUMPDEST PUSH2 0x197A JUMP JUMPDEST SDIV SWAP1 PUSH2 0x19D4 JUMP JUMPDEST SWAP5 PUSH1 0x7 SLOAD PUSH2 0x197A JUMP JUMPDEST PUSH2 0x19D4 JUMP JUMPDEST SDIV PUSH2 0x744 PUSH2 0x72D DUP5 PUSH2 0x14BE JUMP JUMPDEST DUP2 SWAP4 SWAP2 SLOAD SWAP1 PUSH1 0x3 SHL SWAP2 DUP3 SHL SWAP2 PUSH1 0x0 NOT SWAP1 SHL NOT AND OR SWAP1 JUMP JUMPDEST SWAP1 SSTORE PUSH2 0x76D PUSH2 0x752 DUP4 PUSH2 0x14F5 JUMP JUMPDEST SWAP1 SLOAD SWAP1 DUP4 SHL SHR PUSH2 0x761 DUP5 PUSH2 0x14BE JUMP JUMPDEST SWAP1 SLOAD SWAP1 DUP5 SHL SHR SWAP1 PUSH2 0x19D4 JUMP JUMPDEST PUSH2 0x779 PUSH2 0x72D DUP5 PUSH2 0x14F5 JUMP JUMPDEST SWAP1 SSTORE PUSH2 0x7AA PUSH2 0x787 DUP4 PUSH2 0x15AD JUMP JUMPDEST SWAP1 SLOAD SWAP1 DUP4 SHL SHR PUSH2 0x7A4 PUSH2 0x799 DUP6 PUSH2 0x1450 JUMP JUMPDEST SWAP1 SLOAD SWAP1 DUP6 SHL SHR PUSH2 0x190C JUMP JUMPDEST SWAP1 PUSH2 0x199D JUMP JUMPDEST PUSH2 0x7D9 PUSH2 0x7B6 DUP5 PUSH2 0x15AD JUMP JUMPDEST SWAP1 SLOAD SWAP1 DUP5 SHL SHR PUSH2 0x7D3 PUSH2 0x7C8 DUP7 PUSH2 0x153F JUMP JUMPDEST SWAP1 SLOAD SWAP1 DUP7 SHL SHR PUSH2 0x190C JUMP JUMPDEST SWAP1 PUSH2 0x19D4 JUMP JUMPDEST SWAP2 DUP2 DUP4 SWAP3 PUSH2 0x7E6 DUP7 PUSH2 0x14F5 JUMP JUMPDEST SWAP1 SLOAD SWAP1 DUP5 SHL SHR SLT PUSH2 0x822 JUMPI JUMPDEST POP PUSH2 0x7FC DUP5 PUSH2 0x14F5 JUMP JUMPDEST SWAP1 SLOAD SWAP2 SHL SHR SGT PUSH2 0x80E JUMPI JUMPDEST POP ADD PUSH2 0x571 JUMP JUMPDEST PUSH2 0x81A PUSH2 0x72D DUP4 PUSH2 0x14F5 JUMP JUMPDEST SWAP1 SSTORE CODESIZE PUSH2 0x807 JUMP JUMPDEST PUSH2 0x82E PUSH2 0x72D DUP7 PUSH2 0x14F5 JUMP JUMPDEST SWAP1 SSTORE CODESIZE PUSH2 0x7F2 JUMP JUMPDEST PUSH1 0x11 DUP9 PUSH4 0x4E487B71 PUSH1 0xE0 SHL PUSH1 0x0 MSTORE MSTORE PUSH1 0x24 PUSH1 0x0 REVERT JUMPDEST PUSH4 0x4E487B71 PUSH1 0xE0 SHL DUP13 MSTORE PUSH1 0x11 DUP10 MSTORE PUSH1 0x24 DUP13 REVERT JUMPDEST DUP6 DUP1 RETURN JUMPDEST PUSH1 0x64 SWAP3 MLOAD SWAP2 PUSH3 0x461BCD PUSH1 0xE5 SHL DUP4 MSTORE DUP3 ADD MSTORE PUSH1 0x12 PUSH1 0x24 DUP3 ADD MSTORE PUSH18 0x44696D656E7369756E6920696E6567616C65 PUSH1 0x70 SHL PUSH1 0x44 DUP3 ADD MSTORE REVERT JUMPDEST PUSH2 0x8AC SWAP2 SWAP5 POP RETURNDATASIZE DUP1 DUP8 DUP4 RETURNDATACOPY PUSH2 0x4BE DUP2 DUP4 PUSH2 0x1640 JUMP JUMPDEST SWAP3 CODESIZE PUSH2 0x565 JUMP JUMPDEST DUP4 MLOAD RETURNDATASIZE DUP8 DUP3 RETURNDATACOPY RETURNDATASIZE SWAP1 REVERT JUMPDEST DUP2 PUSH32 0xC06999D659D5132DD93A1915097DA1A6A24201916389E38DA2404E4BCA5E59BE SWAP3 DUP8 SSTORE DUP8 MLOAD SWAP1 DUP2 MSTORE LOG1 CODESIZE DUP4 PUSH2 0x542 JUMP JUMPDEST DUP1 SWAP6 POP DUP5 DUP1 SWAP3 POP RETURNDATASIZE DUP4 GT PUSH2 0x91D JUMPI JUMPDEST PUSH2 0x908 DUP2 DUP4 PUSH2 0x1640 JUMP JUMPDEST DUP2 ADD SUB SLT PUSH2 0x919 JUMPI DUP6 SWAP4 MLOAD CODESIZE PUSH2 0x537 JUMP JUMPDEST POP DUP1 REVERT JUMPDEST POP RETURNDATASIZE PUSH2 0x8FE JUMP JUMPDEST DUP5 MLOAD RETURNDATASIZE DUP5 DUP3 RETURNDATACOPY RETURNDATASIZE SWAP1 REVERT JUMPDEST POP POP POP CALLVALUE PUSH2 0x919 JUMPI DUP2 PUSH1 0x3 NOT CALLDATASIZE ADD SLT PUSH2 0x919 JUMPI DUP1 MLOAD PUSH2 0x25B SWAP2 PUSH2 0x95B DUP3 PUSH2 0x954 DUP2 PUSH2 0x1785 JUMP JUMPDEST SUB DUP4 PUSH2 0x1640 JUMP JUMPDEST MLOAD SWAP2 DUP3 SWAP2 DUP3 PUSH2 0x1749 JUMP JUMPDEST POP POP CALLVALUE PUSH2 0x1E1 JUMPI PUSH1 0x20 CALLDATASIZE PUSH1 0x3 NOT ADD SLT PUSH2 0x1E1 JUMPI CALLDATALOAD PUSH1 0xD SLOAD DUP2 LT ISZERO PUSH2 0x1E1 JUMPI PUSH1 0x20 SWAP3 POP PUSH1 0xD PUSH1 0x0 MSTORE PUSH32 0xD7B6990105719101DABEB77144F2A3385C8033ACD3AF97E9423A695E81AD1EB5 ADD SLOAD SWAP1 MLOAD SWAP1 DUP2 MSTORE RETURN JUMPDEST POP POP CALLVALUE PUSH2 0x1E1 JUMPI DUP3 PUSH1 0x3 NOT CALLDATASIZE ADD SLT PUSH2 0x1E1 JUMPI PUSH1 0x20 SWAP3 POP SLOAD SWAP1 MLOAD SWAP1 DUP2 MSTORE RETURN JUMPDEST DUP4 DUP6 CALLVALUE PUSH2 0x1DE JUMPI DUP1 PUSH1 0x3 NOT CALLDATASIZE ADD SLT PUSH2 0x1DE JUMPI POP DUP1 MLOAD PUSH1 0x9 DUP1 SLOAD DUP1 DUP4 MSTORE PUSH1 0x0 SWAP2 DUP3 MSTORE PUSH1 0x20 DUP1 DUP5 ADD SWAP5 SWAP3 PUSH32 0x6E1540171B6C0C960B71A7020D9F60077F6AF931A8BBF590DA0223DACF75C7AF SWAP3 SWAP2 JUMPDEST DUP3 DUP3 LT PUSH2 0xA38 JUMPI PUSH2 0x25B DUP7 DUP7 PUSH2 0x249 DUP3 DUP12 SUB DUP4 PUSH2 0x1640 JUMP JUMPDEST DUP4 SLOAD DUP8 MSTORE SWAP6 DUP7 ADD SWAP6 PUSH1 0x1 SWAP4 DUP5 ADD SWAP4 SWAP1 SWAP2 ADD SWAP1 PUSH2 0xA20 JUMP JUMPDEST POP POP CALLVALUE PUSH2 0x1E1 JUMPI PUSH1 0x20 CALLDATASIZE PUSH1 0x3 NOT ADD SLT PUSH2 0x1E1 JUMPI CALLDATALOAD PUSH1 0xB SLOAD DUP2 LT ISZERO PUSH2 0x1E1 JUMPI PUSH1 0x20 SWAP3 POP PUSH1 0xB PUSH1 0x0 MSTORE PUSH32 0x175B7A638427703F0DBE7BB9BBF987A2551717B34E79F33B5B1008D1FA01DB9 ADD SLOAD SWAP1 MLOAD SWAP1 DUP2 MSTORE RETURN JUMPDEST DUP4 DUP6 CALLVALUE PUSH2 0x1DE JUMPI DUP1 PUSH1 0x3 NOT CALLDATASIZE ADD SLT PUSH2 0x1DE JUMPI POP DUP1 MLOAD PUSH1 0xE DUP1 SLOAD DUP1 DUP4 MSTORE PUSH1 0x0 SWAP2 DUP3 MSTORE PUSH1 0x20 DUP1 DUP5 ADD SWAP5 SWAP3 PUSH32 0xBB7B4A454DC3493923482F07822329ED19E8244EFF582CC204F8554C3620C3FD SWAP3 SWAP2 JUMPDEST DUP3 DUP3 LT PUSH2 0xB04 JUMPI PUSH2 0x25B DUP7 DUP7 PUSH2 0x249 DUP3 DUP12 SUB DUP4 PUSH2 0x1640 JUMP JUMPDEST DUP4 SLOAD DUP8 MSTORE SWAP6 DUP7 ADD SWAP6 PUSH1 0x1 SWAP4 DUP5 ADD SWAP4 SWAP1 SWAP2 ADD SWAP1 PUSH2 0xAEC JUMP JUMPDEST POP POP CALLVALUE PUSH2 0x1E1 JUMPI PUSH1 0x20 CALLDATASIZE PUSH1 0x3 NOT ADD SLT PUSH2 0x1E1 JUMPI CALLDATALOAD SWAP2 PUSH1 0x9 SLOAD DUP4 LT ISZERO PUSH2 0x1DE JUMPI POP PUSH2 0x1D0 PUSH1 0x20 SWAP3 PUSH2 0x15D2 JUMP JUMPDEST POP POP CALLVALUE PUSH2 0x1E1 JUMPI PUSH1 0x20 CALLDATASIZE PUSH1 0x3 NOT ADD SLT PUSH2 0x1E1 JUMPI CALLDATALOAD SWAP2 PUSH1 0x2 SLOAD DUP4 LT ISZERO PUSH2 0x1DE JUMPI POP PUSH2 0x1D0 PUSH1 0x20 SWAP3 PUSH2 0x15AD JUMP JUMPDEST DUP4 DUP6 CALLVALUE PUSH2 0x1DE JUMPI DUP1 PUSH1 0x3 NOT CALLDATASIZE ADD SLT PUSH2 0x1DE JUMPI POP DUP1 MLOAD PUSH1 0x8 DUP1 SLOAD DUP1 DUP4 MSTORE PUSH1 0x0 SWAP2 DUP3 MSTORE PUSH1 0x20 DUP1 DUP5 ADD SWAP5 SWAP3 PUSH32 0xF3F7A9FE364FAAB93B216DA50A3214154F22A0A2B415B23A84C8169E8B636EE3 SWAP3 SWAP2 JUMPDEST DUP3 DUP3 LT PUSH2 0xBD5 JUMPI PUSH2 0x25B DUP7 DUP7 PUSH2 0x95B DUP3 DUP12 SUB DUP4 PUSH2 0x1640 JUMP JUMPDEST DUP4 SLOAD DUP8 MSTORE SWAP6 DUP7 ADD SWAP6 PUSH1 0x1 SWAP4 DUP5 ADD SWAP4 SWAP1 SWAP2 ADD SWAP1 PUSH2 0xBBD JUMP JUMPDEST DUP4 DUP6 CALLVALUE PUSH2 0x1DE JUMPI DUP1 PUSH1 0x3 NOT CALLDATASIZE ADD SLT PUSH2 0x1DE JUMPI POP DUP1 MLOAD PUSH1 0xF DUP1 SLOAD DUP1 DUP4 MSTORE PUSH1 0x0 SWAP2 DUP3 MSTORE PUSH1 0x20 DUP1 DUP5 ADD SWAP5 SWAP3 PUSH32 0x8D1108E10BCB7C27DDDFC02ED9D693A074039D026CF4EA4240B40F7D581AC802 SWAP3 SWAP2 JUMPDEST DUP3 DUP3 LT PUSH2 0xC50 JUMPI PUSH2 0x25B DUP7 DUP7 PUSH2 0x249 DUP3 DUP12 SUB DUP4 PUSH2 0x1640 JUMP JUMPDEST DUP4 SLOAD DUP8 MSTORE SWAP6 DUP7 ADD SWAP6 PUSH1 0x1 SWAP4 DUP5 ADD SWAP4 SWAP1 SWAP2 ADD SWAP1 PUSH2 0xC38 JUMP JUMPDEST POP POP SWAP1 CALLVALUE PUSH2 0x1E1 JUMPI PUSH1 0x3 NOT SWAP2 DUP4 DUP4 CALLDATASIZE ADD SLT PUSH2 0xD5B JUMPI PUSH2 0xC9A DUP3 MLOAD PUSH2 0xC95 DUP2 PUSH2 0xC8E DUP2 PUSH2 0x17D0 JUMP JUMPDEST SUB DUP3 PUSH2 0x1640 JUMP JUMPDEST PUSH2 0x1DAE JUMP JUMPDEST PUSH1 0x3 DUP1 SLOAD DUP3 SLT PUSH2 0xDA7 JUMPI JUMPDEST SWAP1 DUP6 SWAP2 PUSH1 0xE SLOAD PUSH2 0xCB4 DUP2 PUSH2 0x1829 JUMP JUMPDEST SWAP2 DUP5 JUMPDEST DUP3 DUP2 LT PUSH2 0xD5F JUMPI POP POP PUSH1 0x10 SLOAD PUSH1 0x1 PUSH1 0x1 PUSH1 0xA0 SHL SUB AND SWAP2 SWAP1 POP DUP2 EXTCODESIZE ISZERO PUSH2 0xD5B JUMPI DUP4 PUSH2 0xD14 SWAP8 DUP8 MLOAD SWAP9 DUP10 SWAP6 DUP7 SWAP5 DUP6 SWAP4 PUSH4 0x2FC0395F PUSH1 0xE0 SHL DUP6 MSTORE PUSH1 0x60 DUP12 DUP7 ADD MSTORE PUSH2 0xD00 PUSH1 0x64 DUP7 ADD PUSH2 0x17D0 JUMP JUMPDEST SWAP3 PUSH1 0x24 DUP7 ADD MSTORE DUP5 DUP4 SUB ADD PUSH1 0x44 DUP6 ADD MSTORE PUSH2 0x1715 JUMP JUMPDEST SUB SWAP3 GAS CALL DUP1 ISZERO PUSH2 0xD51 JUMPI PUSH2 0xD26 JUMPI DUP4 DUP1 RETURN JUMPDEST PUSH8 0xFFFFFFFFFFFFFFFF DUP4 GT PUSH2 0xD3E JUMPI POP MSTORE CODESIZE DUP1 DUP1 DUP4 DUP1 RETURN JUMPDEST PUSH4 0x4E487B71 PUSH1 0xE0 SHL DUP5 MSTORE PUSH1 0x41 SWAP1 MSTORE PUSH1 0x24 DUP4 REVERT JUMPDEST DUP3 MLOAD RETURNDATASIZE DUP7 DUP3 RETURNDATACOPY RETURNDATASIZE SWAP1 REVERT JUMPDEST DUP4 DUP1 REVERT JUMPDEST PUSH1 0x1 SWAP2 SWAP3 SWAP4 SWAP5 SWAP6 POP PUSH2 0xD8E PUSH2 0xD73 DUP3 PUSH2 0x153F JUMP JUMPDEST SWAP1 SLOAD SWAP1 DUP6 SHL SHR PUSH2 0xD82 DUP4 PUSH2 0x1450 JUMP JUMPDEST SWAP1 SLOAD SWAP1 DUP7 SHL SHR SWAP1 PUSH2 0x19B6 JUMP JUMPDEST DUP3 SHR PUSH2 0xD9A DUP3 DUP8 PUSH2 0x185B JUMP JUMPDEST MSTORE ADD SWAP1 DUP9 SWAP5 SWAP4 SWAP3 SWAP2 PUSH2 0xCB7 JUMP JUMPDEST SWAP2 SWAP5 SWAP3 SWAP1 SWAP4 DUP5 DUP4 SSTORE DUP4 SLOAD SWAP3 PUSH8 0xFFFFFFFFFFFFFFFF DUP5 GT PUSH2 0xFF5 JUMPI PUSH9 0x10000000000000000 SWAP4 DUP5 DUP2 GT PUSH2 0xFE2 JUMPI PUSH1 0x2 SLOAD DUP2 PUSH1 0x2 SSTORE DUP1 DUP3 LT PUSH2 0xFB4 JUMPI JUMPDEST POP PUSH32 0x290DECD9548B62A8D60345A988386FC84BA6BC95484008F6362F93160EF3E563 PUSH1 0x2 DUP8 MSTORE DUP1 SLOAD SWAP1 DUP8 SWAP2 JUMPDEST DUP4 DUP4 LT PUSH2 0xF90 JUMPI POP POP POP POP PUSH1 0x11 SWAP2 PUSH1 0x11 SLOAD DUP7 PUSH1 0x11 SSTORE DUP1 PUSH2 0xF4E JUMPI JUMPDEST POP PUSH1 0x12 SWAP4 PUSH1 0x12 SLOAD DUP8 PUSH1 0x12 SSTORE DUP1 PUSH2 0xF0C JUMPI JUMPDEST POP DUP7 JUMPDEST PUSH1 0xA SLOAD DUP2 LT ISZERO PUSH2 0xED2 JUMPI PUSH2 0xE50 DUP2 PUSH2 0x1576 JUMP JUMPDEST SWAP1 SLOAD DUP7 SLOAD SWAP2 DUP7 SHL SHR DUP9 DUP3 LT ISZERO PUSH2 0xEBF JUMPI PUSH2 0xE73 PUSH2 0x72D PUSH1 0x1 SWAP4 DUP5 DUP2 ADD DUP11 SSTORE PUSH2 0x1609 JUMP JUMPDEST SWAP1 SSTORE PUSH2 0xE7E DUP3 PUSH2 0x1487 JUMP JUMPDEST SWAP1 SLOAD DUP9 SLOAD SWAP2 DUP8 SHL SHR SWAP2 DUP10 DUP3 LT ISZERO PUSH2 0xEAC JUMPI PUSH2 0x72D DUP3 PUSH2 0xEA4 SWAP3 PUSH1 0x1 SWAP7 SWAP6 SWAP5 ADD DUP12 SSTORE PUSH2 0x13CC JUMP JUMPDEST SWAP1 SSTORE ADD PUSH2 0xE3D JUMP JUMPDEST PUSH4 0x4E487B71 PUSH1 0xE0 SHL DUP12 MSTORE PUSH1 0x41 DUP14 MSTORE PUSH1 0x24 DUP12 REVERT JUMPDEST PUSH4 0x4E487B71 PUSH1 0xE0 SHL DUP11 MSTORE PUSH1 0x41 DUP13 MSTORE PUSH1 0x24 DUP11 REVERT JUMPDEST POP SWAP6 SWAP8 SWAP5 POP SWAP6 SWAP3 POP SWAP1 POP DUP4 MLOAD DUP3 DUP2 MSTORE PUSH32 0x409D103F7876158F293A85EE39F235CE0C309AB1ACA81024A51DFB4B471E556E PUSH1 0x20 ADDRESS SWAP3 LOG2 PUSH2 0xCA5 JUMP JUMPDEST PUSH1 0x12 DUP9 MSTORE PUSH32 0xBB8A6A4669BA250D26CD7A459ECA9D215F8307E33AEBE50379BC5A3617EC3444 SWAP1 DUP2 ADD SWAP1 JUMPDEST DUP2 DUP2 LT PUSH2 0xF43 JUMPI POP PUSH2 0xE3A JUMP JUMPDEST DUP9 DUP2 SSTORE PUSH1 0x1 ADD PUSH2 0xF36 JUMP JUMPDEST PUSH1 0x11 DUP8 MSTORE PUSH32 0x31ECC21A745E3968A04E9570E4425BC18FA8019C68028196B546D1669C200C68 SWAP1 DUP2 ADD SWAP1 JUMPDEST DUP2 DUP2 LT PUSH2 0xF85 JUMPI POP PUSH2 0xE29 JUMP JUMPDEST DUP8 DUP2 SSTORE PUSH1 0x1 ADD PUSH2 0xF78 JUMP JUMPDEST PUSH1 0x1 DUP1 SWAP2 SWAP3 ADD SWAP3 DUP4 SLOAD SWAP3 DUP2 PUSH1 0x0 DUP1 MLOAD PUSH1 0x20 PUSH2 0x21A1 DUP4 CODECOPY DUP2 MLOAD SWAP2 MSTORE ADD SSTORE ADD SWAP2 SWAP1 PUSH2 0xE0E JUMP JUMPDEST DUP2 PUSH1 0x0 DUP1 MLOAD PUSH1 0x20 PUSH2 0x21A1 DUP4 CODECOPY DUP2 MLOAD SWAP2 MSTORE SWAP2 DUP3 ADD SWAP2 ADD JUMPDEST DUP2 DUP2 LT PUSH2 0xFD7 JUMPI POP PUSH2 0xDE2 JUMP JUMPDEST DUP8 DUP2 SSTORE PUSH1 0x1 ADD PUSH2 0xFCA JUMP JUMPDEST PUSH4 0x4E487B71 PUSH1 0xE0 SHL DUP7 MSTORE PUSH1 0x41 DUP9 MSTORE PUSH1 0x24 DUP7 REVERT JUMPDEST PUSH4 0x4E487B71 PUSH1 0xE0 SHL DUP6 MSTORE PUSH1 0x41 DUP8 MSTORE PUSH1 0x24 DUP6 REVERT JUMPDEST POP POP CALLVALUE PUSH2 0x1E1 JUMPI PUSH1 0x20 CALLDATASIZE PUSH1 0x3 NOT ADD SLT PUSH2 0x1E1 JUMPI CALLDATALOAD SWAP2 PUSH1 0xA SLOAD DUP4 LT ISZERO PUSH2 0x1DE JUMPI POP PUSH2 0x1D0 PUSH1 0x20 SWAP3 PUSH2 0x1576 JUMP JUMPDEST POP POP SWAP2 CALLVALUE PUSH2 0x1DE JUMPI DUP2 PUSH1 0x3 NOT CALLDATASIZE ADD SLT PUSH2 0x1DE JUMPI POP PUSH2 0x1D0 PUSH1 0x20 SWAP3 CALLDATALOAD PUSH2 0x1419 JUMP JUMPDEST POP POP POP CALLVALUE PUSH2 0x919 JUMPI DUP2 PUSH1 0x3 NOT CALLDATASIZE ADD SLT PUSH2 0x919 JUMPI PUSH1 0x10 SLOAD SWAP1 MLOAD PUSH1 0x1 PUSH1 0x1 PUSH1 0xA0 SHL SUB SWAP1 SWAP2 AND DUP2 MSTORE PUSH1 0x20 SWAP1 RETURN JUMPDEST DUP4 DUP6 CALLVALUE PUSH2 0x1DE JUMPI DUP1 PUSH1 0x3 NOT CALLDATASIZE ADD SLT PUSH2 0x1DE JUMPI DUP2 MLOAD SWAP2 DUP3 SWAP2 PUSH1 0xC SLOAD DUP1 DUP6 MSTORE PUSH1 0x20 DUP1 SWAP6 ADD SWAP5 PUSH1 0xC DUP4 MSTORE PUSH32 0xDF6966C971051C3D54EC59162606531493A51404A002842F56009D7E5CF4A8C7 SWAP3 SWAP1 JUMPDEST DUP3 DUP3 LT PUSH2 0x10E0 JUMPI PUSH2 0x25B DUP7 DUP7 PUSH2 0x249 DUP3 DUP12 SUB DUP4 PUSH2 0x1640 JUMP JUMPDEST DUP4 SLOAD DUP8 MSTORE SWAP6 DUP7 ADD SWAP6 PUSH1 0x1 SWAP4 DUP5 ADD SWAP4 SWAP1 SWAP2 ADD SWAP1 PUSH2 0x10C8 JUMP JUMPDEST POP POP CALLVALUE PUSH2 0x1E1 JUMPI PUSH1 0x20 CALLDATASIZE PUSH1 0x3 NOT ADD SLT PUSH2 0x1E1 JUMPI CALLDATALOAD SWAP2 PUSH1 0xE SLOAD DUP4 LT ISZERO PUSH2 0x1DE JUMPI POP PUSH2 0x1D0 PUSH1 0x20 SWAP3 PUSH2 0x153F JUMP JUMPDEST DUP4 DUP6 CALLVALUE PUSH2 0x1DE JUMPI DUP1 PUSH1 0x3 NOT CALLDATASIZE ADD SLT PUSH2 0x1DE JUMPI DUP1 SLOAD PUSH2 0x113F DUP2 PUSH2 0x1678 JUMP JUMPDEST SWAP2 PUSH2 0x114C DUP5 MLOAD SWAP4 DUP5 PUSH2 0x1640 JUMP JUMPDEST DUP2 DUP4 MSTORE PUSH1 0x1F NOT PUSH2 0x115B DUP4 PUSH2 0x1678 JUMP JUMPDEST ADD CALLDATASIZE PUSH1 0x20 DUP6 ADD CALLDATACOPY JUMPDEST DUP2 DUP2 LT PUSH2 0x1177 JUMPI DUP4 MLOAD DUP1 PUSH2 0x25B DUP6 DUP3 PUSH2 0x1749 JUMP JUMPDEST DUP1 PUSH2 0x1183 PUSH1 0x1 SWAP3 PUSH2 0x14F5 JUMP JUMPDEST SWAP1 SLOAD SWAP1 PUSH1 0x3 SHL SHR PUSH2 0x1194 DUP3 DUP7 PUSH2 0x185B JUMP JUMPDEST MSTORE ADD PUSH2 0x1163 JUMP JUMPDEST POP POP CALLVALUE PUSH2 0x1E1 JUMPI PUSH1 0x20 CALLDATASIZE PUSH1 0x3 NOT ADD SLT PUSH2 0x1E1 JUMPI CALLDATALOAD SWAP2 PUSH1 0x1 SLOAD DUP4 LT ISZERO PUSH2 0x1DE JUMPI POP PUSH2 0x1D0 PUSH1 0x20 SWAP3 PUSH2 0x14BE JUMP JUMPDEST POP POP POP CALLVALUE PUSH2 0x919 JUMPI DUP2 PUSH1 0x3 NOT CALLDATASIZE ADD SLT PUSH2 0x919 JUMPI PUSH1 0x20 SWAP1 PUSH1 0x6 SLOAD SWAP1 MLOAD SWAP1 DUP2 MSTORE RETURN JUMPDEST POP POP CALLVALUE PUSH2 0x1E1 JUMPI PUSH1 0x20 CALLDATASIZE PUSH1 0x3 NOT ADD SLT PUSH2 0x1E1 JUMPI CALLDATALOAD SWAP2 PUSH1 0xC SLOAD DUP4 LT ISZERO PUSH2 0x1DE JUMPI POP PUSH2 0x1D0 PUSH1 0x20 SWAP3 PUSH2 0x1487 JUMP JUMPDEST POP POP POP CALLVALUE PUSH2 0x919 JUMPI DUP2 PUSH1 0x3 NOT CALLDATASIZE ADD SLT PUSH2 0x919 JUMPI PUSH1 0x20 SWAP1 PUSH1 0x3 SLOAD SWAP1 MLOAD SWAP1 DUP2 MSTORE RETURN JUMPDEST POP POP POP CALLVALUE PUSH2 0x919 JUMPI DUP2 PUSH1 0x3 NOT CALLDATASIZE ADD SLT PUSH2 0x919 JUMPI PUSH1 0x20 SWAP1 PUSH1 0x7 SLOAD SWAP1 MLOAD SWAP1 DUP2 MSTORE RETURN JUMPDEST DUP4 DUP6 CALLVALUE PUSH2 0x1DE JUMPI DUP1 PUSH1 0x3 NOT CALLDATASIZE ADD SLT PUSH2 0x1DE JUMPI DUP2 MLOAD SWAP2 DUP3 SWAP2 PUSH1 0xB SLOAD DUP1 DUP6 MSTORE PUSH1 0x20 DUP1 SWAP6 ADD SWAP5 PUSH1 0xB DUP4 MSTORE PUSH32 0x175B7A638427703F0DBE7BB9BBF987A2551717B34E79F33B5B1008D1FA01DB9 SWAP3 SWAP1 JUMPDEST DUP3 DUP3 LT PUSH2 0x12B4 JUMPI PUSH2 0x25B DUP7 DUP7 PUSH2 0x249 DUP3 DUP12 SUB DUP4 PUSH2 0x1640 JUMP JUMPDEST DUP4 SLOAD DUP8 MSTORE SWAP6 DUP7 ADD SWAP6 PUSH1 0x1 SWAP4 DUP5 ADD SWAP4 SWAP1 SWAP2 ADD SWAP1 PUSH2 0x129C JUMP JUMPDEST POP POP CALLVALUE PUSH2 0x1E1 JUMPI PUSH1 0x20 CALLDATASIZE PUSH1 0x3 NOT ADD SLT PUSH2 0x1E1 JUMPI CALLDATALOAD SWAP2 PUSH1 0xF SLOAD DUP4 LT ISZERO PUSH2 0x1DE JUMPI POP PUSH2 0x1D0 PUSH1 0x20 SWAP3 PUSH2 0x1450 JUMP JUMPDEST POP POP POP CALLVALUE PUSH2 0x919 JUMPI PUSH1 0x20 SWAP1 PUSH2 0x130D PUSH2 0xC95 CALLDATASIZE PUSH2 0x1690 JUMP JUMPDEST SWAP1 MLOAD SWAP1 DUP2 MSTORE RETURN JUMPDEST POP POP POP CALLVALUE PUSH2 0x919 JUMPI PUSH1 0x20 SWAP1 PUSH2 0x130D PUSH2 0x132B CALLDATASIZE PUSH2 0x1690 JUMP JUMPDEST PUSH2 0x19F0 JUMP JUMPDEST POP POP POP CALLVALUE PUSH2 0x919 JUMPI DUP2 PUSH1 0x3 NOT CALLDATASIZE ADD SLT PUSH2 0x919 JUMPI PUSH1 0x20 SWAP1 PUSH1 0x5 SLOAD SWAP1 MLOAD SWAP1 DUP2 MSTORE RETURN JUMPDEST POP POP CALLVALUE PUSH2 0x1E1 JUMPI PUSH1 0x20 CALLDATASIZE PUSH1 0x3 NOT ADD SLT PUSH2 0x1E1 JUMPI CALLDATALOAD SWAP2 PUSH1 0x8 SLOAD DUP4 LT ISZERO PUSH2 0x1DE JUMPI POP PUSH2 0x1D0 PUSH1 0x20 SWAP3 PUSH2 0x1419 JUMP JUMPDEST POP POP CALLVALUE PUSH2 0x1E1 JUMPI PUSH1 0x20 CALLDATASIZE PUSH1 0x3 NOT ADD SLT PUSH2 0x1E1 JUMPI CALLDATALOAD SWAP2 PUSH1 0x12 SLOAD DUP4 LT ISZERO PUSH2 0x1DE JUMPI POP PUSH2 0x1D0 PUSH1 0x20 SWAP3 PUSH2 0x13CC JUMP JUMPDEST DUP5 DUP7 CALLVALUE PUSH2 0x1DE JUMPI DUP1 PUSH1 0x3 NOT CALLDATASIZE ADD SLT PUSH2 0x1DE JUMPI POP PUSH2 0x130D DUP3 PUSH2 0x132B DUP2 PUSH2 0xC8E PUSH1 0x20 SWAP7 PUSH2 0x1785 JUMP JUMPDEST PUSH1 0x12 SLOAD DUP2 LT ISZERO PUSH2 0x1403 JUMPI PUSH1 0x12 PUSH1 0x0 MSTORE PUSH32 0xBB8A6A4669BA250D26CD7A459ECA9D215F8307E33AEBE50379BC5A3617EC3444 ADD SWAP1 PUSH1 0x0 SWAP1 JUMP JUMPDEST PUSH4 0x4E487B71 PUSH1 0xE0 SHL PUSH1 0x0 MSTORE PUSH1 0x32 PUSH1 0x4 MSTORE PUSH1 0x24 PUSH1 0x0 REVERT JUMPDEST PUSH1 0x8 SLOAD DUP2 LT ISZERO PUSH2 0x1403 JUMPI PUSH1 0x8 PUSH1 0x0 MSTORE PUSH32 0xF3F7A9FE364FAAB93B216DA50A3214154F22A0A2B415B23A84C8169E8B636EE3 ADD SWAP1 PUSH1 0x0 SWAP1 JUMP JUMPDEST PUSH1 0xF SLOAD DUP2 LT ISZERO PUSH2 0x1403 JUMPI PUSH1 0xF PUSH1 0x0 MSTORE PUSH32 0x8D1108E10BCB7C27DDDFC02ED9D693A074039D026CF4EA4240B40F7D581AC802 ADD SWAP1 PUSH1 0x0 SWAP1 JUMP JUMPDEST PUSH1 0xC SLOAD DUP2 LT ISZERO PUSH2 0x1403 JUMPI PUSH1 0xC PUSH1 0x0 MSTORE PUSH32 0xDF6966C971051C3D54EC59162606531493A51404A002842F56009D7E5CF4A8C7 ADD SWAP1 PUSH1 0x0 SWAP1 JUMP JUMPDEST PUSH1 0x1 SLOAD DUP2 LT ISZERO PUSH2 0x1403 JUMPI PUSH1 0x1 PUSH1 0x0 MSTORE PUSH32 0xB10E2D527612073B26EECDFD717E6A320CF44B4AFAC2B0732D9FCBE2B7FA0CF6 ADD SWAP1 PUSH1 0x0 SWAP1 JUMP JUMPDEST SWAP1 PUSH1 0x0 SWAP2 DUP3 SLOAD DUP2 LT ISZERO PUSH2 0x152B JUMPI DUP3 DUP1 MSTORE PUSH32 0x290DECD9548B62A8D60345A988386FC84BA6BC95484008F6362F93160EF3E563 ADD SWAP2 SWAP1 JUMP JUMPDEST PUSH4 0x4E487B71 PUSH1 0xE0 SHL DUP4 MSTORE PUSH1 0x32 PUSH1 0x4 MSTORE PUSH1 0x24 DUP4 REVERT JUMPDEST PUSH1 0xE SLOAD DUP2 LT ISZERO PUSH2 0x1403 JUMPI PUSH1 0xE PUSH1 0x0 MSTORE PUSH32 0xBB7B4A454DC3493923482F07822329ED19E8244EFF582CC204F8554C3620C3FD ADD SWAP1 PUSH1 0x0 SWAP1 JUMP JUMPDEST PUSH1 0xA SLOAD DUP2 LT ISZERO PUSH2 0x1403 JUMPI PUSH1 0xA PUSH1 0x0 MSTORE PUSH32 0xC65A7BB8D6351C1CF70C95A316CC6A92839C986682D98BC35F958F4883F9D2A8 ADD SWAP1 PUSH1 0x0 SWAP1 JUMP JUMPDEST PUSH1 0x2 SLOAD DUP2 LT ISZERO PUSH2 0x1403 JUMPI PUSH1 0x2 PUSH1 0x0 MSTORE PUSH1 0x0 DUP1 MLOAD PUSH1 0x20 PUSH2 0x21A1 DUP4 CODECOPY DUP2 MLOAD SWAP2 MSTORE ADD SWAP1 PUSH1 0x0 SWAP1 JUMP JUMPDEST PUSH1 0x9 SLOAD DUP2 LT ISZERO PUSH2 0x1403 JUMPI PUSH1 0x9 PUSH1 0x0 MSTORE PUSH32 0x6E1540171B6C0C960B71A7020D9F60077F6AF931A8BBF590DA0223DACF75C7AF ADD SWAP1 PUSH1 0x0 SWAP1 JUMP JUMPDEST PUSH1 0x11 SLOAD DUP2 LT ISZERO PUSH2 0x1403 JUMPI PUSH1 0x11 PUSH1 0x0 MSTORE PUSH32 0x31ECC21A745E3968A04E9570E4425BC18FA8019C68028196B546D1669C200C68 ADD SWAP1 PUSH1 0x0 SWAP1 JUMP JUMPDEST SWAP1 PUSH1 0x1F DUP1 NOT SWAP2 ADD AND DUP2 ADD SWAP1 DUP2 LT PUSH8 0xFFFFFFFFFFFFFFFF DUP3 GT OR PUSH2 0x1662 JUMPI PUSH1 0x40 MSTORE JUMP JUMPDEST PUSH4 0x4E487B71 PUSH1 0xE0 SHL PUSH1 0x0 MSTORE PUSH1 0x41 PUSH1 0x4 MSTORE PUSH1 0x24 PUSH1 0x0 REVERT JUMPDEST PUSH8 0xFFFFFFFFFFFFFFFF DUP2 GT PUSH2 0x1662 JUMPI PUSH1 0x5 SHL PUSH1 0x20 ADD SWAP1 JUMP JUMPDEST PUSH1 0x20 DUP1 PUSH1 0x3 NOT DUP4 ADD SLT PUSH2 0x1710 JUMPI PUSH1 0x4 CALLDATALOAD SWAP2 PUSH8 0xFFFFFFFFFFFFFFFF DUP4 GT PUSH2 0x1710 JUMPI DUP1 PUSH1 0x23 DUP5 ADD SLT ISZERO PUSH2 0x1710 JUMPI DUP3 PUSH1 0x4 ADD CALLDATALOAD PUSH2 0x16C9 DUP2 PUSH2 0x1678 JUMP JUMPDEST SWAP4 PUSH2 0x16D7 PUSH1 0x40 MLOAD SWAP6 DUP7 PUSH2 0x1640 JUMP JUMPDEST DUP2 DUP6 MSTORE PUSH1 0x24 PUSH1 0x20 DUP7 ADD SWAP3 PUSH1 0x5 SHL DUP3 ADD ADD SWAP3 DUP4 GT PUSH2 0x1710 JUMPI PUSH1 0x24 ADD SWAP1 JUMPDEST DUP3 DUP3 LT PUSH2 0x1701 JUMPI POP POP POP POP SWAP1 JUMP JUMPDEST DUP2 CALLDATALOAD DUP2 MSTORE SWAP1 DUP4 ADD SWAP1 DUP4 ADD PUSH2 0x16F3 JUMP JUMPDEST PUSH1 0x0 DUP1 REVERT JUMPDEST SWAP1 DUP2 MLOAD DUP1 DUP3 MSTORE PUSH1 0x20 DUP1 DUP1 SWAP4 ADD SWAP4 ADD SWAP2 PUSH1 0x0 JUMPDEST DUP3 DUP2 LT PUSH2 0x1735 JUMPI POP POP POP POP SWAP1 JUMP JUMPDEST DUP4 MLOAD DUP6 MSTORE SWAP4 DUP2 ADD SWAP4 SWAP3 DUP2 ADD SWAP3 PUSH1 0x1 ADD PUSH2 0x1727 JUMP JUMPDEST PUSH1 0x20 SWAP1 PUSH1 0x20 PUSH1 0x40 DUP2 DUP4 ADD SWAP3 DUP3 DUP2 MSTORE DUP6 MLOAD DUP1 SWAP5 MSTORE ADD SWAP4 ADD SWAP2 PUSH1 0x0 JUMPDEST DUP3 DUP2 LT PUSH2 0x1771 JUMPI POP POP POP POP SWAP1 JUMP JUMPDEST DUP4 MLOAD DUP6 MSTORE SWAP4 DUP2 ADD SWAP4 SWAP3 DUP2 ADD SWAP3 PUSH1 0x1 ADD PUSH2 0x1763 JUMP JUMPDEST PUSH1 0x2 SLOAD SWAP1 DUP2 DUP2 MSTORE PUSH1 0x20 DUP1 SWAP2 ADD SWAP2 PUSH1 0x2 PUSH1 0x0 MSTORE PUSH1 0x0 DUP1 MLOAD PUSH1 0x20 PUSH2 0x21A1 DUP4 CODECOPY DUP2 MLOAD SWAP2 MSTORE SWAP2 PUSH1 0x0 SWAP1 JUMPDEST DUP3 DUP3 LT PUSH2 0x17B9 JUMPI POP POP POP POP SWAP1 JUMP JUMPDEST DUP4 SLOAD DUP6 MSTORE SWAP4 DUP5 ADD SWAP4 PUSH1 0x1 SWAP4 DUP5 ADD SWAP4 SWAP1 SWAP2 ADD SWAP1 PUSH2 0x17AB JUMP JUMPDEST PUSH1 0x0 DUP1 SLOAD DUP1 DUP4 MSTORE DUP2 DUP1 MSTORE PUSH1 0x20 SWAP3 DUP4 ADD SWAP3 PUSH32 0x290DECD9548B62A8D60345A988386FC84BA6BC95484008F6362F93160EF3E563 SWAP3 SWAP1 JUMPDEST DUP3 DUP3 LT PUSH2 0x1812 JUMPI POP POP POP POP SWAP1 JUMP JUMPDEST DUP4 SLOAD DUP6 MSTORE SWAP4 DUP5 ADD SWAP4 PUSH1 0x1 SWAP4 DUP5 ADD SWAP4 SWAP1 SWAP2 ADD SWAP1 PUSH2 0x1804 JUMP JUMPDEST SWAP1 PUSH2 0x1833 DUP3 PUSH2 0x1678 JUMP JUMPDEST PUSH2 0x1840 PUSH1 0x40 MLOAD SWAP2 DUP3 PUSH2 0x1640 JUMP JUMPDEST DUP3 DUP2 MSTORE DUP1 SWAP3 PUSH2 0x1851 PUSH1 0x1F NOT SWAP2 PUSH2 0x1678 JUMP JUMPDEST ADD SWAP1 PUSH1 0x20 CALLDATASIZE SWAP2 ADD CALLDATACOPY JUMP JUMPDEST DUP1 MLOAD DUP3 LT ISZERO PUSH2 0x1403 JUMPI PUSH1 0x20 SWAP2 PUSH1 0x5 SHL ADD ADD SWAP1 JUMP JUMPDEST PUSH1 0x20 SWAP1 DUP2 DUP2 DUP5 SUB SLT PUSH2 0x1710 JUMPI DUP1 MLOAD SWAP1 PUSH8 0xFFFFFFFFFFFFFFFF DUP3 GT PUSH2 0x1710 JUMPI ADD SWAP2 DUP1 PUSH1 0x1F DUP5 ADD SLT ISZERO PUSH2 0x1710 JUMPI DUP3 MLOAD PUSH2 0x18A5 DUP2 PUSH2 0x1678 JUMP JUMPDEST SWAP4 PUSH2 0x18B3 PUSH1 0x40 MLOAD SWAP6 DUP7 PUSH2 0x1640 JUMP JUMPDEST DUP2 DUP6 MSTORE DUP4 DUP1 DUP7 ADD SWAP3 PUSH1 0x5 SHL DUP3 ADD ADD SWAP3 DUP4 GT PUSH2 0x1710 JUMPI DUP4 ADD SWAP1 JUMPDEST DUP3 DUP3 LT PUSH2 0x18DA JUMPI POP POP POP POP SWAP1 JUMP JUMPDEST DUP2 MLOAD DUP2 MSTORE SWAP1 DUP4 ADD SWAP1 DUP4 ADD PUSH2 0x18CC JUMP JUMPDEST SWAP2 SWAP1 DUP3 SUB SWAP2 DUP3 GT PUSH2 0x18F6 JUMPI JUMP JUMPDEST PUSH4 0x4E487B71 PUSH1 0xE0 SHL PUSH1 0x0 MSTORE PUSH1 0x11 PUSH1 0x4 MSTORE PUSH1 0x24 PUSH1 0x0 REVERT JUMPDEST SWAP1 DUP2 PUSH1 0x1 SHL SWAP2 DUP1 DUP4 SDIV PUSH1 0x2 EQ SWAP1 ISZERO OR ISZERO PUSH2 0x18F6 JUMPI JUMP JUMPDEST SWAP1 PUSH1 0x4B DUP3 MUL SWAP2 DUP1 DUP4 SDIV PUSH1 0x4B EQ SWAP1 ISZERO OR ISZERO PUSH2 0x18F6 JUMPI JUMP JUMPDEST SWAP1 PUSH1 0x2B DUP3 MUL SWAP2 DUP1 DUP4 SDIV PUSH1 0x2B EQ SWAP1 ISZERO OR ISZERO PUSH2 0x18F6 JUMPI JUMP JUMPDEST SWAP1 PUSH1 0x12 DUP3 MUL SWAP2 DUP1 DUP4 SDIV PUSH1 0x12 EQ SWAP1 ISZERO OR ISZERO PUSH2 0x18F6 JUMPI JUMP JUMPDEST SWAP1 DUP2 PUSH1 0x2 SHL SWAP2 DUP1 DUP4 SDIV PUSH1 0x4 EQ SWAP1 ISZERO OR ISZERO PUSH2 0x18F6 JUMPI JUMP JUMPDEST DUP2 DUP2 MUL SWAP3 SWAP2 PUSH1 0x0 DUP3 SLT PUSH1 0x1 PUSH1 0xFF SHL DUP3 EQ AND PUSH2 0x18F6 JUMPI DUP2 DUP5 SDIV EQ SWAP1 ISZERO OR ISZERO PUSH2 0x18F6 JUMPI JUMP JUMPDEST DUP2 DUP2 SUB SWAP3 SWAP2 PUSH1 0x0 SGT DUP1 ISZERO DUP3 DUP6 SGT AND SWAP2 DUP5 SLT AND OR PUSH2 0x18F6 JUMPI JUMP JUMPDEST SWAP2 SWAP1 DUP3 ADD DUP1 SWAP3 GT PUSH2 0x18F6 JUMPI JUMP JUMPDEST PUSH1 0x1 PUSH1 0xFF SHL DUP2 EQ PUSH2 0x18F6 JUMPI PUSH1 0x0 SUB SWAP1 JUMP JUMPDEST SWAP2 SWAP1 SWAP2 PUSH1 0x0 DUP4 DUP3 ADD SWAP4 DUP5 SLT SWAP2 SLT SWAP1 DUP1 ISZERO DUP3 AND SWAP2 ISZERO AND OR PUSH2 0x18F6 JUMPI JUMP JUMPDEST PUSH1 0x0 SWAP1 DUP1 MLOAD PUSH1 0x11 SLOAD SWAP1 PUSH2 0x1A02 DUP3 PUSH2 0x1829 JUMP JUMPDEST SWAP2 DUP5 JUMPDEST DUP2 DUP2 LT PUSH2 0x1D8A JUMPI POP POP PUSH1 0x12 SLOAD SWAP2 PUSH2 0x1A1B DUP4 PUSH2 0x1829 JUMP JUMPDEST SWAP3 DUP6 JUMPDEST DUP2 DUP2 LT PUSH2 0x1D66 JUMPI POP POP PUSH1 0x10 SLOAD PUSH1 0x40 MLOAD PUSH4 0xB6042CF9 PUSH1 0xE0 SHL DUP2 MSTORE SWAP2 SWAP1 DUP7 SWAP1 DUP4 SWAP1 PUSH1 0x4 SWAP1 DUP3 SWAP1 PUSH1 0x1 PUSH1 0x1 PUSH1 0xA0 SHL SUB AND GAS STATICCALL SWAP2 DUP3 ISZERO PUSH2 0x1D5B JUMPI DUP7 SWAP3 PUSH2 0x1D3F JUMPI JUMPDEST POP SWAP4 SWAP3 SWAP2 SWAP1 DUP6 SWAP5 JUMPDEST DUP3 DUP7 LT PUSH2 0x1A73 JUMPI POP POP POP POP POP POP SWAP1 JUMP JUMPDEST SWAP1 SWAP2 SWAP3 SWAP4 SWAP5 SWAP6 PUSH2 0x1BAB PUSH1 0x1 SWAP2 PUSH2 0x7D3 PUSH2 0x1A8C DUP11 DUP11 PUSH2 0x185B JUMP JUMPDEST MLOAD PUSH1 0x0 DUP1 DUP3 SLT ISZERO PUSH2 0x1C7D JUMPI POP PUSH2 0x1AB1 DUP2 PUSH2 0x1AA5 DUP14 PUSH2 0x1419 JUMP JUMPDEST SWAP1 SLOAD SWAP1 PUSH1 0x3 SHL SHR PUSH2 0x197A JUMP JUMPDEST SWAP1 JUMPDEST PUSH2 0x1B92 DUP13 PUSH2 0x7D3 PUSH2 0x1B8C PUSH2 0x1AC6 DUP4 PUSH2 0x15D2 JUMP JUMPDEST SWAP1 SLOAD PUSH1 0x3 SWAP5 SWAP2 PUSH1 0x0 SWAP2 SWAP1 DUP7 SHL SHR DUP8 SGT ISZERO PUSH2 0x1C70 JUMPI POP PUSH2 0x7D3 PUSH2 0x1B86 PUSH2 0x1AF9 PUSH2 0x1AED DUP5 PUSH2 0x15D2 JUMP JUMPDEST SWAP1 SLOAD SWAP1 DUP9 SHL SHR DUP10 PUSH2 0x199D JUMP JUMPDEST SWAP6 JUMPDEST PUSH2 0x1B63 PUSH2 0x1B07 DUP6 PUSH2 0x15AD JUMP JUMPDEST SWAP1 SLOAD SWAP1 DUP4 SHL SHR PUSH2 0x1B3E PUSH2 0x1B37 PUSH2 0x1B1C DUP9 PUSH2 0x153F JUMP JUMPDEST SWAP1 SLOAD SWAP1 DUP7 SHL SHR PUSH2 0x1B2B DUP10 PUSH2 0x1450 JUMP JUMPDEST SWAP1 SLOAD SWAP1 DUP8 SHL SHR SWAP1 PUSH2 0x19B6 JUMP JUMPDEST SWAP2 DUP13 PUSH2 0x199D JUMP JUMPDEST PUSH1 0x0 DUP2 SLT PUSH2 0x1C61 JUMPI SWAP1 JUMPDEST PUSH1 0x0 SWAP2 DUP2 DUP2 SGT ISZERO PUSH2 0x1C59 JUMPI PUSH2 0x1B5D SWAP3 POP PUSH2 0x199D JUMP JUMPDEST SWAP5 PUSH2 0x1609 JUMP JUMPDEST SWAP1 SLOAD SWAP2 SHL SHR DUP9 PUSH1 0x0 SWAP2 DUP2 DUP2 SGT PUSH1 0x0 EQ PUSH2 0x1C51 JUMPI PUSH2 0x1B80 SWAP3 POP PUSH2 0x199D JUMP JUMPDEST SWAP6 PUSH2 0x1922 JUMP JUMPDEST SWAP2 PUSH2 0x1938 JUMP JUMPDEST SWAP2 PUSH2 0x194E JUMP JUMPDEST PUSH1 0x0 SWAP2 DUP14 DUP12 DUP12 MLOAD EQ PUSH2 0x1BB7 JUMPI JUMPDEST POP POP PUSH2 0x71B SWAP2 SWAP3 PUSH2 0x19D4 JUMP JUMPDEST SWAP7 ADD SWAP5 SWAP4 SWAP3 SWAP2 SWAP1 PUSH2 0x1A63 JUMP JUMPDEST PUSH2 0x1BC4 PUSH2 0x1BCC SWAP2 DUP13 PUSH2 0x185B JUMP JUMPDEST MLOAD DUP1 SWAP3 PUSH2 0x199D JUMP JUMPDEST SWAP1 DUP4 DUP3 SLT PUSH2 0x1C42 JUMPI DUP2 SWAP1 JUMPDEST DUP1 ISZERO PUSH2 0x1C3A JUMPI PUSH1 0xA SWAP1 SDIV SWAP2 JUMPDEST DUP3 DUP3 SGT PUSH2 0x1BF3 JUMPI JUMPDEST POP POP DUP14 PUSH2 0x1B9F JUMP JUMPDEST PUSH2 0x71B SWAP5 SLT ISZERO PUSH2 0x1C1A JUMPI PUSH2 0x1C0F SWAP2 PUSH2 0x1C0A SWAP2 PUSH2 0x199D JUMP JUMPDEST PUSH2 0x1964 JUMP JUMPDEST SWAP3 JUMPDEST SWAP3 SWAP2 CODESIZE DUP1 PUSH2 0x1BEB JUMP JUMPDEST PUSH2 0x1C2A PUSH2 0x1C34 SWAP3 PUSH2 0x1C2F SWAP3 PUSH2 0x199D JUMP JUMPDEST PUSH2 0x190C JUMP JUMPDEST PUSH2 0x19C3 JUMP JUMPDEST SWAP3 PUSH2 0x1C11 JUMP JUMPDEST POP DUP4 SWAP2 PUSH2 0x1BE3 JUMP JUMPDEST PUSH2 0x1C4B DUP3 PUSH2 0x19C3 JUMP JUMPDEST SWAP1 PUSH2 0x1BD7 JUMP JUMPDEST POP POP SWAP6 PUSH2 0x1922 JUMP JUMPDEST POP POP SWAP5 PUSH2 0x1609 JUMP JUMPDEST PUSH2 0x1C6A SWAP1 PUSH2 0x19C3 JUMP JUMPDEST SWAP1 PUSH2 0x1B48 JUMP JUMPDEST PUSH2 0x1B86 PUSH2 0x7D3 SWAP2 SWAP6 PUSH2 0x1AFB JUMP JUMPDEST PUSH2 0x1CEB SWAP1 DUP13 DUP4 DUP5 PUSH2 0x1C8E DUP4 DUP13 PUSH2 0x185B JUMP JUMPDEST MLOAD LT PUSH2 0x1D19 JUMPI PUSH2 0x1CAB PUSH2 0x1CB2 SWAP2 PUSH2 0x1CA5 DUP5 DUP14 PUSH2 0x185B JUMP JUMPDEST MLOAD PUSH2 0x18E9 JUMP JUMPDEST SWAP2 DUP11 PUSH2 0x185B JUMP JUMPDEST MSTORE DUP13 DUP2 JUMPDEST DUP13 DUP2 PUSH2 0x1CC2 DUP5 DUP4 PUSH2 0x185B JUMP JUMPDEST MLOAD LT PUSH2 0x1CF1 JUMPI PUSH2 0x1CE0 SWAP2 PUSH2 0x1CA5 DUP5 PUSH2 0x1CD9 SWAP4 PUSH2 0x185B JUMP JUMPDEST SWAP2 DUP14 PUSH2 0x185B JUMP JUMPDEST MSTORE JUMPDEST PUSH2 0x1AA5 DUP14 PUSH2 0x1419 JUMP JUMPDEST SWAP1 PUSH2 0x1AB3 JUMP JUMPDEST PUSH2 0x1D13 SWAP2 PUSH2 0x1D05 DUP5 PUSH2 0x1D0C SWAP4 SWAP7 SWAP6 SWAP7 PUSH2 0x185B JUMP JUMPDEST MLOAD SWAP1 PUSH2 0x18E9 JUMP JUMPDEST SWAP3 DUP14 PUSH2 0x185B JUMP JUMPDEST MSTORE PUSH2 0x1CE2 JUMP JUMPDEST POP PUSH2 0x1D2E PUSH2 0x1D27 DUP3 DUP12 PUSH2 0x185B JUMP JUMPDEST MLOAD DUP6 PUSH2 0x18E9 JUMP JUMPDEST DUP3 PUSH2 0x1D39 DUP4 DUP13 PUSH2 0x185B JUMP JUMPDEST MSTORE PUSH2 0x1CB6 JUMP JUMPDEST PUSH2 0x1D54 SWAP2 SWAP3 POP RETURNDATASIZE DUP1 DUP9 DUP4 RETURNDATACOPY PUSH2 0x4BE DUP2 DUP4 PUSH2 0x1640 JUMP JUMPDEST SWAP1 CODESIZE PUSH2 0x1A5B JUMP JUMPDEST PUSH1 0x40 MLOAD RETURNDATASIZE DUP9 DUP3 RETURNDATACOPY RETURNDATASIZE SWAP1 REVERT JUMPDEST DUP1 PUSH2 0x1D72 PUSH1 0x1 SWAP3 PUSH2 0x13CC JUMP JUMPDEST SWAP1 SLOAD SWAP1 PUSH1 0x3 SHL SHR PUSH2 0x1D83 DUP3 DUP9 PUSH2 0x185B JUMP JUMPDEST MSTORE ADD PUSH2 0x1A1E JUMP JUMPDEST DUP1 PUSH2 0x1D96 PUSH1 0x1 SWAP3 PUSH2 0x1609 JUMP JUMPDEST SWAP1 SLOAD SWAP1 PUSH1 0x3 SHL SHR PUSH2 0x1DA7 DUP3 DUP8 PUSH2 0x185B JUMP JUMPDEST MSTORE ADD PUSH2 0x1A05 JUMP JUMPDEST PUSH1 0x0 SWAP1 DUP1 MLOAD PUSH1 0x40 MLOAD SWAP1 DUP2 PUSH1 0xA DUP1 SLOAD DUP1 DUP6 MSTORE PUSH1 0x20 DUP1 SWAP6 ADD SWAP1 PUSH1 0xA DUP9 MSTORE PUSH32 0xC65A7BB8D6351C1CF70C95A316CC6A92839C986682D98BC35F958F4883F9D2A8 SWAP1 DUP9 JUMPDEST DUP8 DUP3 DUP3 LT PUSH2 0x2143 JUMPI POP POP POP POP DUP3 PUSH2 0x1E05 SWAP2 SUB DUP4 PUSH2 0x1640 JUMP JUMPDEST PUSH1 0x40 MLOAD SWAP2 DUP3 DUP1 SWAP6 PUSH1 0x20 PUSH1 0xC SLOAD SWAP6 DUP7 DUP2 MSTORE ADD SWAP5 PUSH1 0xC DUP11 MSTORE PUSH32 0xDF6966C971051C3D54EC59162606531493A51404A002842F56009D7E5CF4A8C7 SWAP2 DUP11 SWAP1 JUMPDEST DUP3 DUP3 LT PUSH2 0x2129 JUMPI POP POP POP POP PUSH2 0x1E59 SWAP1 PUSH1 0x4 SWAP5 SUB DUP7 PUSH2 0x1640 JUMP JUMPDEST PUSH1 0x10 SLOAD PUSH1 0x40 MLOAD PUSH4 0xB6042CF9 PUSH1 0xE0 SHL DUP2 MSTORE SWAP4 DUP9 SWAP2 DUP6 SWAP2 SWAP1 DUP3 SWAP1 PUSH1 0x1 PUSH1 0x1 PUSH1 0xA0 SHL SUB AND GAS STATICCALL SWAP3 DUP4 ISZERO PUSH2 0x211E JUMPI DUP8 SWAP4 PUSH2 0x2102 JUMPI JUMPDEST POP SWAP5 SWAP4 SWAP3 SWAP2 SWAP1 DUP7 SWAP6 JUMPDEST DUP4 DUP8 LT PUSH2 0x1EA4 JUMPI POP POP POP POP POP POP POP SWAP1 JUMP JUMPDEST SWAP1 SWAP2 SWAP3 SWAP4 SWAP5 SWAP6 SWAP7 PUSH2 0x1FA2 PUSH1 0x1 SWAP2 PUSH2 0x7D3 PUSH2 0x1EBE DUP12 DUP12 PUSH2 0x185B JUMP JUMPDEST MLOAD DUP12 PUSH1 0x0 DUP1 DUP4 SLT ISZERO PUSH2 0x2056 JUMPI POP PUSH2 0x1ED8 DUP3 PUSH2 0x1AA5 DUP4 PUSH2 0x1419 JUMP JUMPDEST SWAP2 JUMPDEST PUSH2 0x1F8A PUSH2 0x1EE6 DUP4 PUSH2 0x15D2 JUMP JUMPDEST SWAP1 SLOAD PUSH1 0x3 SWAP2 PUSH1 0x0 SWAP2 SWAP1 DUP4 SHL SHR DUP5 SGT ISZERO PUSH2 0x2049 JUMPI POP PUSH2 0x7D3 PUSH2 0x1B8C PUSH2 0x1F18 PUSH2 0x1F0C DUP8 PUSH2 0x15D2 JUMP JUMPDEST SWAP1 SLOAD SWAP1 DUP6 SHL SHR DUP7 PUSH2 0x199D JUMP JUMPDEST SWAP3 JUMPDEST PUSH2 0x7D3 PUSH2 0x1B86 PUSH2 0x1F29 DUP10 PUSH2 0x15AD JUMP JUMPDEST SWAP1 SLOAD SWAP1 DUP5 SHL SHR PUSH2 0x1F60 PUSH2 0x1F59 PUSH2 0x1F3E DUP13 PUSH2 0x153F JUMP JUMPDEST SWAP1 SLOAD SWAP1 DUP8 SHL SHR PUSH2 0x1F4D DUP14 PUSH2 0x1450 JUMP JUMPDEST SWAP1 SLOAD SWAP1 DUP9 SHL SHR SWAP1 PUSH2 0x19B6 JUMP JUMPDEST SWAP2 DUP11 PUSH2 0x199D JUMP JUMPDEST PUSH1 0x0 DUP2 SLT PUSH2 0x203A JUMPI SWAP1 JUMPDEST PUSH1 0x0 SWAP2 DUP2 DUP2 SGT ISZERO PUSH2 0x2032 JUMPI PUSH2 0x1F7F SWAP3 POP PUSH2 0x199D JUMP JUMPDEST SWAP3 JUMPDEST PUSH2 0x1B63 DUP11 PUSH2 0x1576 JUMP JUMPDEST SWAP1 PUSH1 0x0 SWAP3 DUP13 DUP13 MLOAD EQ PUSH2 0x1FAF JUMPI POP POP PUSH2 0x71B SWAP2 SWAP3 PUSH2 0x19D4 JUMP JUMPDEST SWAP8 ADD SWAP6 SWAP5 SWAP4 SWAP3 SWAP2 SWAP1 PUSH2 0x1E93 JUMP JUMPDEST PUSH2 0x1BC4 PUSH2 0x1FBC SWAP2 DUP14 PUSH2 0x185B JUMP JUMPDEST SWAP1 DUP4 DUP3 SLT PUSH2 0x2022 JUMPI DUP11 DUP3 SWAP2 JUMPDEST DUP1 ISZERO PUSH2 0x2019 JUMPI SDIV SWAP2 JUMPDEST DUP3 DUP3 SGT PUSH2 0x1FE1 JUMPI JUMPDEST POP POP DUP15 PUSH2 0x1B9F JUMP JUMPDEST PUSH2 0x71B SWAP5 SLT ISZERO PUSH2 0x2003 JUMPI PUSH2 0x1FF8 SWAP2 PUSH2 0x1C0A SWAP2 PUSH2 0x199D JUMP JUMPDEST SWAP3 JUMPDEST SWAP3 SWAP2 CODESIZE DUP1 PUSH2 0x1FD9 JUMP JUMPDEST PUSH2 0x1C2A PUSH2 0x2013 SWAP3 PUSH2 0x1C2F SWAP3 PUSH2 0x199D JUMP JUMPDEST SWAP3 PUSH2 0x1FFA JUMP JUMPDEST POP POP DUP4 SWAP2 PUSH2 0x1FD1 JUMP JUMPDEST DUP11 PUSH2 0x202C DUP4 PUSH2 0x19C3 JUMP JUMPDEST SWAP2 PUSH2 0x1FC8 JUMP JUMPDEST POP POP SWAP3 PUSH2 0x1F81 JUMP JUMPDEST PUSH2 0x2043 SWAP1 PUSH2 0x19C3 JUMP JUMPDEST SWAP1 PUSH2 0x1F6A JUMP JUMPDEST PUSH2 0x1B8C PUSH2 0x7D3 SWAP2 SWAP3 PUSH2 0x1F1A JUMP JUMPDEST PUSH2 0x20BE SWAP1 DUP4 DUP5 PUSH2 0x2066 DUP6 DUP13 PUSH2 0x185B JUMP JUMPDEST MLOAD LT PUSH2 0x20E2 JUMPI PUSH2 0x207A SWAP1 PUSH2 0x1CA5 DUP6 DUP13 PUSH2 0x185B JUMP JUMPDEST PUSH2 0x2084 DUP5 DUP12 PUSH2 0x185B JUMP JUMPDEST MSTORE DUP1 JUMPDEST DUP14 DUP5 DUP4 PUSH2 0x2094 DUP3 DUP5 PUSH2 0x185B JUMP JUMPDEST MLOAD LT PUSH2 0x20C4 JUMPI PUSH2 0x20AD DUP3 SWAP4 SWAP5 PUSH2 0x1CA5 DUP4 PUSH2 0x20B3 SWAP6 PUSH2 0x185B JUMP JUMPDEST SWAP3 PUSH2 0x185B JUMP JUMPDEST MSTORE JUMPDEST PUSH2 0x1AA5 DUP4 PUSH2 0x1419 JUMP JUMPDEST SWAP2 PUSH2 0x1EDA JUMP JUMPDEST PUSH2 0x20D6 DUP3 SWAP5 PUSH2 0x1D05 DUP4 PUSH2 0x20DC SWAP6 PUSH2 0x185B JUMP JUMPDEST SWAP4 PUSH2 0x185B JUMP JUMPDEST MSTORE PUSH2 0x20B5 JUMP JUMPDEST POP PUSH2 0x20F0 PUSH2 0x1D27 DUP5 DUP12 PUSH2 0x185B JUMP JUMPDEST SWAP1 DUP1 PUSH2 0x20FC DUP6 DUP13 PUSH2 0x185B JUMP JUMPDEST MSTORE PUSH2 0x2087 JUMP JUMPDEST PUSH2 0x2117 SWAP2 SWAP4 POP RETURNDATASIZE DUP1 DUP10 DUP4 RETURNDATACOPY PUSH2 0x4BE DUP2 DUP4 PUSH2 0x1640 JUMP JUMPDEST SWAP2 CODESIZE PUSH2 0x1E8A JUMP JUMPDEST PUSH1 0x40 MLOAD RETURNDATASIZE DUP10 DUP3 RETURNDATACOPY RETURNDATASIZE SWAP1 REVERT JUMPDEST DUP4 SLOAD DUP9 MSTORE SWAP7 DUP8 ADD SWAP7 DUP10 SWAP5 POP PUSH1 0x1 SWAP4 DUP5 ADD SWAP4 SWAP1 SWAP2 ADD SWAP1 PUSH2 0x1E40 JUMP JUMPDEST DUP4 SLOAD DUP6 MSTORE SWAP1 SWAP4 ADD SWAP3 PUSH1 0x1 SWAP3 DUP4 ADD SWAP3 ADD PUSH2 0x1DED JUMP JUMPDEST PUSH1 0x40 MLOAD SWAP1 PUSH1 0xE0 DUP3 ADD DUP3 DUP2 LT PUSH8 0xFFFFFFFFFFFFFFFF DUP3 GT OR PUSH2 0x1662 JUMPI PUSH1 0x40 MSTORE DUP2 PUSH1 0xC0 PUSH1 0x0 SWAP2 DUP3 DUP2 MSTORE DUP3 PUSH1 0x20 DUP3 ADD MSTORE DUP3 PUSH1 0x40 DUP3 ADD MSTORE DUP3 PUSH1 0x60 DUP3 ADD MSTORE DUP3 PUSH1 0x80 DUP3 ADD MSTORE DUP3 PUSH1 0xA0 DUP3 ADD MSTORE ADD MSTORE JUMP INVALID BLOCKHASH JUMPI DUP8 STATICCALL SLT 0xA8 0x23 0xE0 CALLCODE 0xB7 PUSH4 0x1CC41B3B 0xA8 DUP3 DUP12 CALLER 0x21 0xCA DUP2 GT GT STATICCALL PUSH22 0xCD3AA3BB5ACEA264697066735822122017CED4AA76A9 0xD8 0xE9 PUSH29 0x4B8053817825F836E093C791D234BDBF4059CC2862C79764736F6C6343 STOP ADDMOD OR STOP CALLER BLOCKHASH JUMPI DUP8 STATICCALL SLT 0xA8 0x23 0xE0 CALLCODE 0xB7 PUSH4 0x1CC41B3B 0xA8 DUP3 DUP12 CALLER 0x21 0xCA DUP2 GT GT STATICCALL PUSH22 0xCD3AA3BB5ACEBB7B4A454DC3493923482F07822329ED NOT 0xE8 0x24 0x4E SELFDESTRUCT PC 0x2C 0xC2 DIV 0xF8 SSTORE 0x4C CALLDATASIZE KECCAK256 0xC3 REVERT 0xC6 GAS PUSH28 0xB8D6351C1CF70C95A316CC6A92839C986682D98BC35F958F4883F9D2 0xA8 0x29 0xD 0xEC 0xD9 SLOAD DUP12 PUSH3 0xA8D603 GASLIMIT 0xA9 DUP9 CODESIZE PUSH16 0xC84BA6BC95484008F6362F93160EF3E5 PUSH4 0xD7B69901 SDIV PUSH18 0x9101DABEB77144F2A3385C8033ACD3AF97E9 TIMESTAMP GASPRICE PUSH10 0x5E81AD1EB5F3F7A9FE36 0x4F 0xAA 0xB9 EXTCODESIZE 0x21 PUSH14 0xA50A3214154F22A0A2B415B23A84 0xC8 AND SWAP15 DUP12 PUSH4 0x6EE36E15 BLOCKHASH OR SHL PUSH13 0xC960B71A7020D9F60077F6AF9 BALANCE 0xA8 0xBB CREATE2 SWAP1 0xDA MUL 0x23 0xDA 0xCF PUSH22 0xC7AFB10E2D527612073B26EECDFD717E6A320CF44B4A STATICCALL 0xC2 0xB0 PUSH20 0x2D9FCBE2B7FA0CF6000000000000000000000000 "},"methodIdentifiers":{"batteryCapacity(uint256)":"b6ce6709","batteryCharge(uint256)":"4eb274ff","c1()":"5f57697c","c2()":"48e257cb","capacity(uint256)":"ab1bbeca","flexibilityAbove(uint256)":"78b6d7d4","flexibilityBelow(uint256)":"375a105e","flexibleLoad(uint256)":"e329143f","frozenBatteryCharge(uint256)":"04d01942","frozenRenewableGeneration(uint256)":"ff9c446f","getBatteryCapacity()":"4485bb55","getBatteryCharge()":"85c96e66","getCapacity()":"c40000d4","getEffectiveTariff(uint256,int256)":"957b4056","getFlexibilityAbove()":"b27966e6","getFlexibilityBelow()":"983bedda","getFrozenCost()":"03bc4a86","getFrozenEnergyBreakdown()":"f7498948","getPersonalBestPosition()":"e7d46385","getPosition()":"7398ab18","getRenewableGeneration()":"fb722277","getTariff()":"9b14d83b","globalContract()":"90ccfa0f","lastKnownGlobalTimestamp()":"d0c6c7af","objectiveFunction(int256[])":"364132d9","objectiveFunctionFrozen(int256[])":"300aee14","personalBestPosition(uint256)":"a86853d5","personalBestScore()":"4d985ae4","position(uint256)":"f7a95a9e","renewableGeneration(uint256)":"96d14da6","tariff(uint256)":"16b51928","updateBestPositions()":"973b9cc1","updateVelocityAndPosition()":"f6451c0a","velocity(uint256)":"6f240774","w()":"205c9cc7"}}}}}