{"contracts/GlobalContract.sol":{"GlobalContract":{"abi":[{"anonymous":false,"inputs":[{"indexed":false,"internalType":"int256[]","name":"newPlan","type":"int256[]"},{"indexed":false,"internalType":"uint256","name":"timestamp","type":"uint256"}],"name":"GlobalPlanComputed","type":"event"},{"anonymous":false,"inputs":[{"indexed":true,"internalType":"address","name":"node","type":"address"},{"indexed":false,"internalType":"int256","name":"bestScore","type":"int256"}],"name":"NodeResultUpdated","type":"event"},{"inputs":[],"name":"bestGlobalCost","outputs":[{"internalType":"int256","name":"","type":"int256"}],"stateMutability":"view","type":"function"},{"inputs":[{"internalType":"uint256","name":"","type":"uint256"}],"name":"bestGlobalPlan","outputs":[{"internalType":"int256","name":"","type":"int256"}],"stateMutability":"view","type":"function"},{"inputs":[],"name":"computeGlobalOptimalPlan","outputs":[],"stateMutability":"nonpayable","type":"function"},{"inputs":[],"name":"finalizePlan","outputs":[],"stateMutability":"nonpayable","type":"function"},{"inputs":[],"name":"finalized","outputs":[{"internalType":"bool","name":"","type":"bool"}],"stateMutability":"view","type":"function"},{"inputs":[],"name":"frozenGlobalCost","outputs":[{"internalType":"int256","name":"","type":"int256"}],"stateMutability":"view","type":"function"},{"inputs":[],"name":"getBestGlobalPlan","outputs":[{"internalType":"int256[]","name":"","type":"int256[]"}],"stateMutability":"view","type":"function"},{"inputs":[{"internalType":"address","name":"_node","type":"address"}],"name":"getBestPosition","outputs":[{"internalType":"int256[]","name":"","type":"int256[]"}],"stateMutability":"view","type":"function"},{"inputs":[],"name":"getGlobalOptimalPlanArray","outputs":[{"internalType":"int256[]","name":"","type":"int256[]"}],"stateMutability":"view","type":"function"},{"inputs":[{"internalType":"uint256","name":"hour","type":"uint256"}],"name":"getGlobalOptimalPlanHour","outputs":[{"internalType":"int256","name":"","type":"int256"}],"stateMutability":"view","type":"function"},{"inputs":[],"name":"getLastUpdatedTimestamp","outputs":[{"internalType":"uint256","name":"","type":"uint256"}],"stateMutability":"view","type":"function"},{"inputs":[{"internalType":"uint256","name":"","type":"uint256"}],"name":"globalOptimalPlan","outputs":[{"internalType":"int256","name":"","type":"int256"}],"stateMutability":"view","type":"function"},{"inputs":[],"name":"lastUpdatedTimestamp","outputs":[{"internalType":"uint256","name":"","type":"uint256"}],"stateMutability":"view","type":"function"},{"inputs":[{"internalType":"uint256","name":"","type":"uint256"}],"name":"nodeAddresses","outputs":[{"internalType":"address","name":"","type":"address"}],"stateMutability":"view","type":"function"},{"inputs":[{"internalType":"address","name":"","type":"address"}],"name":"nodeResults","outputs":[{"internalType":"int256","name":"bestScore","type":"int256"},{"internalType":"bool","name":"exists","type":"bool"}],"stateMutability":"view","type":"function"},{"inputs":[],"name":"numHours","outputs":[{"internalType":"uint256","name":"","type":"uint256"}],"stateMutability":"view","type":"function"},{"inputs":[{"internalType":"int256[]","name":"newPosition","type":"int256[]"},{"internalType":"int256","name":"newScore","type":"int256"},{"internalType":"uint256[]","name":"newFlexibilityWeight","type":"uint256[]"}],"name":"updateNodeResult","outputs":[],"stateMutability":"nonpayable","type":"function"}],"evm":{"bytecode":{"linkReferences":{},"object":"6080806040523461002b576001600160ff1b036004556008805460ff19169055610fb590816100318239f35b600080fdfe608060408181526004918236101561001657600080fd5b600092833560e01c9182630bfa7ec914610d56575081630c27abc814610d1d578163160b0cad14610cff5781631e385f6914610c875781632fc0395f146108d35781637207c556146108885781637f042dc01461086057816394f6cd8d14610841578163a00239d61461081b578163a626d2c0146107fc578163af602b4314610770578163b3f05b971461074c578163b6042cf9146106ce578163c4d7709014610686578163ed3bf9c41461017a578163efe5c98d14610101575063fbaf894c146100e057600080fd5b346100fd57816003193601126100fd576020906007549051908152f35b5080fd5b839150346100fd5760203660031901126100fd578035906003548210156101375760208480858581526002845220549051908152f35b606490602085519162461bcd60e51b8352820152601960248201527f4f726120696e20616661726120696e74657276616c756c7569000000000000006044820152fd5b8383346100fd57816003193601126100fd5760019081541561064b576003908154156106105783835b610459575b50426007558051631e385f6960e01b81529484868281305afa95861561044f5785966103b1575b507f94e1547304e6d63037244c908da52f757ad8e339edce5f9e09985dd78fb8f53961020383519784895284890190610dfc565b9680602098428a8301520390a18485858054915b82811061034e575050506005549081158015610344575b610236578680f35b82558354808203610298575b50505083948394935b610257575b8086958680f35b825484101561029357848481958852600283528388205461027782610d72565b8192915490881b91821b91600019901b1916179055019361024b565b610250565b6102a190610eb6565b9081519267ffffffffffffffff841161033157600160401b84116103315750908791836005558084106102fe575b500160058652855b82811015610242578151600080516020610f608339815191528201559087019085016102d7565b8684600080516020610f6083398151915292830192015b8281106103235750506102cf565b8981558a9450889101610315565b634e487b7160e01b885260419052602487fd5b508254811261022e565b61035781610dad565b90546001600160a01b0391891b1c81168a52898b52868a2088015460ff16610383575b50018690610217565b9381946103926103aa93610dad565b9054908a1b1c168a52898b5282878b20015490610f2d565b928a61037a565b9095503d8086833e6103c38183610e66565b81019060209081818403126104475780519067ffffffffffffffff821161044b57019180601f840112156104475782516103fc81610e9e565b9361040986519586610e66565b818552838086019260051b820101928311610443578301905b828210610434575050505094866101cf565b81518152908301908301610422565b8880fd5b8680fd5b8780fd5b82513d87823e3d90fd5b825481101561060b57848590868654905b8181106104ec575050811586816104d257506104bf57600160ff1b81146000198314166104ac57918592918392828952600260205205848820555b01906101a3565b634e487b7160e01b875260118852602487fd5b634e487b7160e01b875260128852602487fd5b9391505082915080875260026020526005848820556104a5565b9687610500829b9597989394969a99610dad565b90546001600160a01b0391851b1c81168a5260208a8152898b208501548b919060ff1661053b575b505050019896979391909594929861046a565b90918399945061054c819994610dad565b905490871b1c1682528181526105678c60028c852001610de4565b905490861b1c976105778a610dad565b905490871b1c1682525261058d8a898b20610de4565b905490841b1c86810291908a8812600160ff1b8214166105f85787830514871517156105e557906105bd91610f2d565b9481018091116105d2578990958b8981610528565b634e487b7160e01b885260118452602488fd5b634e487b7160e01b8a526011865260248afd5b634e487b7160e01b8b526011875260248bfd5b6101a8565b5162461bcd60e51b815260208186015260166024820152751b9d5b521bdd5c9cc81b9d48195cdd19481cd95d185d60521b6044820152606490fd5b5162461bcd60e51b81526020818501526016602482015275139a58da5d5b881b9bd9081a5b9c9959da5cdd1c985d60521b6044820152606490fd5b9050346106ca5760203660031901126106ca5735916001548310156106c757506106b1602092610dad565b905491519160018060a01b039160031b1c168152f35b80fd5b8280fd5b8284346106c757806003193601126106c757815191829160055480855260208095019460058352600080516020610f6083398151915292905b82821061073557610731868661071f828b0383610e66565b51918291602083526020830190610dfc565b0390f35b835487529586019560019384019390910190610707565b5050346100fd57816003193601126100fd5760209060ff6008541690519015158152f35b919050346106ca57602091826003193601126107f857356001600160a01b038116908190036107f8578352828252808320815190819485928583549182815201928252858220915b868282106107e1578590610731886107d284890385610e66565b51928284938452830190610dfc565b8354855288955090930192600192830192016107b8565b8380fd5b5050346100fd57816003193601126100fd576020906007549051908152f35b8390346100fd57816003193601126100fd57600160ff1960085416176008555460065580f35b5050346100fd57816003193601126100fd576020906003549051908152f35b9050346106ca5760203660031901126106ca5760209282913581526002845220549051908152f35b9050346106ca5760203660031901126106ca57356001600160a01b038116908190036106ca579181928152806020522060ff6003600183015492015416825191825215156020820152f35b919050346106ca5760603660031901126106ca5767ffffffffffffffff908235828111610c83576109079036908501610e30565b90936024803595604435868111610443576109259036908501610e30565b9091338a526020978a8952878b2060ff60038201541615600014610bd357508751916080830183811083821117610b7557895261096188610e9e565b9061096e8a519283610e66565b8882528a82018960051b820191368311610bcf578c90915b838310610bbf57505050508252888201938a85526109a384610e9e565b936109b08a519586610e66565b8085528a85019060051b820191368311610bbb578b90915b838310610bab57505050508782019283526060820192600194858552338d528c8b52898d209351805190848211610b99578e888e8093610a08868b610ee8565b019288835280832092905b858210610b875750505050505051858401556002830190518051928311610b75578a90610a408484610ee8565b01908c52898c20858d5b848110610b635750505050506003019051151560ff80198354169116179055805490600160401b821015610b51578181019055610a8690610dad565b81546001600160a01b0360039290921b91821b19163390911b1790555b60035480610adf575050506003557f1e61759c28c006b2edeffc298e59ea00a93888cddb41dc60e8236de97f039b3c91905b519283523392a280f35b90919203610b11575050907f1e61759c28c006b2edeffc298e59ea00a93888cddb41dc60e8236de97f039b3c91610ad5565b606493601c9293519362461bcd60e51b85528401528201527f44696d656e7369756e65206e65636f72657370756e7a61746f617265000000006044820152fd5b634e487b7160e01b8952604184528289fd5b8c845194019381840155018690610a4a565b634e487b7160e01b8d5260418852868dfd5b8451940193818401550189908f610a13565b634e487b7160e01b8f5260418a52888ffd5b82358152918101918c91016109c8565b8d80fd5b82358152918101918d9101610986565b8e80fd5b60019491928b6001830180548212610bf3575b5050505050505050610aa3565b55838911610b7557610c058983610ee8565b908c52898c2090858d5b8a8110610c715750505050338b528a89526002888c2001918311610c5f57610c378383610ee8565b908a52878a208a5b838110610c4e57808b81610be6565b823582820155918901918401610c3f565b634e487b7160e01b8b5260418652848bfd5b8c833593019281850155018690610c0f565b8480fd5b8383346100fd57816003193601126100fd57600354610ca581610eb6565b92805b828110610cc45783516020808252819061073190820188610dfc565b80825260206002815284832054908651831015610cec57600583901b87010152600101610ca8565b634e487b7160e01b845260328852602484fd5b9050346106ca57826003193601126106ca5760209250549051908152f35b9050346106ca5760203660031901126106ca5735916005548310156106c75750610d48602092610d72565b91905490519160031b1c8152f35b8490346100fd57816003193601126100fd576020906006548152f35b600554811015610d97576005600052600080516020610f608339815191520190600090565b634e487b7160e01b600052603260045260246000fd5b600154811015610d975760016000527fb10e2d527612073b26eecdfd717e6a320cf44b4afac2b0732d9fcbe2b7fa0cf60190600090565b8054821015610d975760005260206000200190600090565b90815180825260208080930193019160005b828110610e1c575050505090565b835185529381019392810192600101610e0e565b9181601f84011215610e615782359167ffffffffffffffff8311610e61576020808501948460051b010111610e6157565b600080fd5b90601f8019910116810190811067ffffffffffffffff821117610e8857604052565b634e487b7160e01b600052604160045260246000fd5b67ffffffffffffffff8111610e885760051b60200190565b90610ec082610e9e565b610ecd6040519182610e66565b8281528092610ede601f1991610e9e565b0190602036910137565b600160401b8211610e8857805491808255828110610f0557505050565b600091600052602060002092830192015b828110610f2257505050565b818155600101610f16565b91909160008382019384129112908015821691151617610f4957565b634e487b7160e01b600052601160045260246000fdfe036b6384b5eca791c62761152d0c79bb0604c104a5fb6f4eb0703f3154bb3db0a2646970667358221220401d28159403cf541157e6aec22f6b61ddb63c3dbb98cf0b1776b08cd4bf7d4e64736f6c63430008170033","opcodes":"PUSH1 0x80 DUP1 PUSH1 0x40 MSTORE CALLVALUE PUSH2 0x2B JUMPI PUSH1 0x1 PUSH1 0x1 PUSH1 0xFF SHL SUB PUSH1 0x4 SSTORE PUSH1 0x8 DUP1 SLOAD PUSH1 0xFF NOT AND SWAP1 SSTORE PUSH2 0xFB5 SWAP1 DUP2 PUSH2 0x31 DUP3 CODECOPY RETURN JUMPDEST PUSH1 0x0 DUP1 REVERT INVALID PUSH1 0x80 PUSH1 0x40 DUP2 DUP2 MSTORE PUSH1 0x4 SWAP2 DUP3 CALLDATASIZE LT ISZERO PUSH2 0x16 JUMPI PUSH1 0x0 DUP1 REVERT JUMPDEST PUSH1 0x0 SWAP3 DUP4 CALLDATALOAD PUSH1 0xE0 SHR SWAP2 DUP3 PUSH4 0xBFA7EC9 EQ PUSH2 0xD56 JUMPI POP DUP2 PUSH4 0xC27ABC8 EQ PUSH2 0xD1D JUMPI DUP2 PUSH4 0x160B0CAD EQ PUSH2 0xCFF JUMPI DUP2 PUSH4 0x1E385F69 EQ PUSH2 0xC87 JUMPI DUP2 PUSH4 0x2FC0395F EQ PUSH2 0x8D3 JUMPI DUP2 PUSH4 0x7207C556 EQ PUSH2 0x888 JUMPI DUP2 PUSH4 0x7F042DC0 EQ PUSH2 0x860 JUMPI DUP2 PUSH4 0x94F6CD8D EQ PUSH2 0x841 JUMPI DUP2 PUSH4 0xA00239D6 EQ PUSH2 0x81B JUMPI DUP2 PUSH4 0xA626D2C0 EQ PUSH2 0x7FC JUMPI DUP2 PUSH4 0xAF602B43 EQ PUSH2 0x770 JUMPI DUP2 PUSH4 0xB3F05B97 EQ PUSH2 0x74C JUMPI DUP2 PUSH4 0xB6042CF9 EQ PUSH2 0x6CE JUMPI DUP2 PUSH4 0xC4D77090 EQ PUSH2 0x686 JUMPI DUP2 PUSH4 0xED3BF9C4 EQ PUSH2 0x17A JUMPI DUP2 PUSH4 0xEFE5C98D EQ PUSH2 0x101 JUMPI POP PUSH4 0xFBAF894C EQ PUSH2 0xE0 JUMPI PUSH1 0x0 DUP1 REVERT JUMPDEST CALLVALUE PUSH2 0xFD JUMPI DUP2 PUSH1 0x3 NOT CALLDATASIZE ADD SLT PUSH2 0xFD JUMPI PUSH1 0x20 SWAP1 PUSH1 0x7 SLOAD SWAP1 MLOAD SWAP1 DUP2 MSTORE RETURN JUMPDEST POP DUP1 REVERT JUMPDEST DUP4 SWAP2 POP CALLVALUE PUSH2 0xFD JUMPI PUSH1 0x20 CALLDATASIZE PUSH1 0x3 NOT ADD SLT PUSH2 0xFD JUMPI DUP1 CALLDATALOAD SWAP1 PUSH1 0x3 SLOAD DUP3 LT ISZERO PUSH2 0x137 JUMPI PUSH1 0x20 DUP5 DUP1 DUP6 DUP6 DUP2 MSTORE PUSH1 0x2 DUP5 MSTORE KECCAK256 SLOAD SWAP1 MLOAD SWAP1 DUP2 MSTORE RETURN JUMPDEST PUSH1 0x64 SWAP1 PUSH1 0x20 DUP6 MLOAD SWAP2 PUSH3 0x461BCD PUSH1 0xE5 SHL DUP4 MSTORE DUP3 ADD MSTORE PUSH1 0x19 PUSH1 0x24 DUP3 ADD MSTORE PUSH32 0x4F726120696E20616661726120696E74657276616C756C756900000000000000 PUSH1 0x44 DUP3 ADD MSTORE REVERT JUMPDEST DUP4 DUP4 CALLVALUE PUSH2 0xFD JUMPI DUP2 PUSH1 0x3 NOT CALLDATASIZE ADD SLT PUSH2 0xFD JUMPI PUSH1 0x1 SWAP1 DUP2 SLOAD ISZERO PUSH2 0x64B JUMPI PUSH1 0x3 SWAP1 DUP2 SLOAD ISZERO PUSH2 0x610 JUMPI DUP4 DUP4 JUMPDEST PUSH2 0x459 JUMPI JUMPDEST POP TIMESTAMP PUSH1 0x7 SSTORE DUP1 MLOAD PUSH4 0x1E385F69 PUSH1 0xE0 SHL DUP2 MSTORE SWAP5 DUP5 DUP7 DUP3 DUP2 ADDRESS GAS STATICCALL SWAP6 DUP7 ISZERO PUSH2 0x44F JUMPI DUP6 SWAP7 PUSH2 0x3B1 JUMPI JUMPDEST POP PUSH32 0x94E1547304E6D63037244C908DA52F757AD8E339EDCE5F9E09985DD78FB8F539 PUSH2 0x203 DUP4 MLOAD SWAP8 DUP5 DUP10 MSTORE DUP5 DUP10 ADD SWAP1 PUSH2 0xDFC JUMP JUMPDEST SWAP7 DUP1 PUSH1 0x20 SWAP9 TIMESTAMP DUP11 DUP4 ADD MSTORE SUB SWAP1 LOG1 DUP5 DUP6 DUP6 DUP1 SLOAD SWAP2 JUMPDEST DUP3 DUP2 LT PUSH2 0x34E JUMPI POP POP POP PUSH1 0x5 SLOAD SWAP1 DUP2 ISZERO DUP1 ISZERO PUSH2 0x344 JUMPI JUMPDEST PUSH2 0x236 JUMPI DUP7 DUP1 RETURN JUMPDEST DUP3 SSTORE DUP4 SLOAD DUP1 DUP3 SUB PUSH2 0x298 JUMPI JUMPDEST POP POP POP DUP4 SWAP5 DUP4 SWAP5 SWAP4 JUMPDEST PUSH2 0x257 JUMPI JUMPDEST DUP1 DUP7 SWAP6 DUP7 DUP1 RETURN JUMPDEST DUP3 SLOAD DUP5 LT ISZERO PUSH2 0x293 JUMPI DUP5 DUP5 DUP2 SWAP6 DUP9 MSTORE PUSH1 0x2 DUP4 MSTORE DUP4 DUP9 KECCAK256 SLOAD PUSH2 0x277 DUP3 PUSH2 0xD72 JUMP JUMPDEST DUP2 SWAP3 SWAP2 SLOAD SWAP1 DUP9 SHL SWAP2 DUP3 SHL SWAP2 PUSH1 0x0 NOT SWAP1 SHL NOT AND OR SWAP1 SSTORE ADD SWAP4 PUSH2 0x24B JUMP JUMPDEST PUSH2 0x250 JUMP JUMPDEST PUSH2 0x2A1 SWAP1 PUSH2 0xEB6 JUMP JUMPDEST SWAP1 DUP2 MLOAD SWAP3 PUSH8 0xFFFFFFFFFFFFFFFF DUP5 GT PUSH2 0x331 JUMPI PUSH1 0x1 PUSH1 0x40 SHL DUP5 GT PUSH2 0x331 JUMPI POP SWAP1 DUP8 SWAP2 DUP4 PUSH1 0x5 SSTORE DUP1 DUP5 LT PUSH2 0x2FE JUMPI JUMPDEST POP ADD PUSH1 0x5 DUP7 MSTORE DUP6 JUMPDEST DUP3 DUP2 LT ISZERO PUSH2 0x242 JUMPI DUP2 MLOAD PUSH1 0x0 DUP1 MLOAD PUSH1 0x20 PUSH2 0xF60 DUP4 CODECOPY DUP2 MLOAD SWAP2 MSTORE DUP3 ADD SSTORE SWAP1 DUP8 ADD SWAP1 DUP6 ADD PUSH2 0x2D7 JUMP JUMPDEST DUP7 DUP5 PUSH1 0x0 DUP1 MLOAD PUSH1 0x20 PUSH2 0xF60 DUP4 CODECOPY DUP2 MLOAD SWAP2 MSTORE SWAP3 DUP4 ADD SWAP3 ADD JUMPDEST DUP3 DUP2 LT PUSH2 0x323 JUMPI POP POP PUSH2 0x2CF JUMP JUMPDEST DUP10 DUP2 SSTORE DUP11 SWAP5 POP DUP9 SWAP2 ADD PUSH2 0x315 JUMP JUMPDEST PUSH4 0x4E487B71 PUSH1 0xE0 SHL DUP9 MSTORE PUSH1 0x41 SWAP1 MSTORE PUSH1 0x24 DUP8 REVERT JUMPDEST POP DUP3 SLOAD DUP2 SLT PUSH2 0x22E JUMP JUMPDEST PUSH2 0x357 DUP2 PUSH2 0xDAD JUMP JUMPDEST SWAP1 SLOAD PUSH1 0x1 PUSH1 0x1 PUSH1 0xA0 SHL SUB SWAP2 DUP10 SHL SHR DUP2 AND DUP11 MSTORE DUP10 DUP12 MSTORE DUP7 DUP11 KECCAK256 DUP9 ADD SLOAD PUSH1 0xFF AND PUSH2 0x383 JUMPI JUMPDEST POP ADD DUP7 SWAP1 PUSH2 0x217 JUMP JUMPDEST SWAP4 DUP2 SWAP5 PUSH2 0x392 PUSH2 0x3AA SWAP4 PUSH2 0xDAD JUMP JUMPDEST SWAP1 SLOAD SWAP1 DUP11 SHL SHR AND DUP11 MSTORE DUP10 DUP12 MSTORE DUP3 DUP8 DUP12 KECCAK256 ADD SLOAD SWAP1 PUSH2 0xF2D JUMP JUMPDEST SWAP3 DUP11 PUSH2 0x37A JUMP JUMPDEST SWAP1 SWAP6 POP RETURNDATASIZE DUP1 DUP7 DUP4 RETURNDATACOPY PUSH2 0x3C3 DUP2 DUP4 PUSH2 0xE66 JUMP JUMPDEST DUP2 ADD SWAP1 PUSH1 0x20 SWAP1 DUP2 DUP2 DUP5 SUB SLT PUSH2 0x447 JUMPI DUP1 MLOAD SWAP1 PUSH8 0xFFFFFFFFFFFFFFFF DUP3 GT PUSH2 0x44B JUMPI ADD SWAP2 DUP1 PUSH1 0x1F DUP5 ADD SLT ISZERO PUSH2 0x447 JUMPI DUP3 MLOAD PUSH2 0x3FC DUP2 PUSH2 0xE9E JUMP JUMPDEST SWAP4 PUSH2 0x409 DUP7 MLOAD SWAP6 DUP7 PUSH2 0xE66 JUMP JUMPDEST DUP2 DUP6 MSTORE DUP4 DUP1 DUP7 ADD SWAP3 PUSH1 0x5 SHL DUP3 ADD ADD SWAP3 DUP4 GT PUSH2 0x443 JUMPI DUP4 ADD SWAP1 JUMPDEST DUP3 DUP3 LT PUSH2 0x434 JUMPI POP POP POP POP SWAP5 DUP7 PUSH2 0x1CF JUMP JUMPDEST DUP2 MLOAD DUP2 MSTORE SWAP1 DUP4 ADD SWAP1 DUP4 ADD PUSH2 0x422 JUMP JUMPDEST DUP9 DUP1 REVERT JUMPDEST DUP7 DUP1 REVERT JUMPDEST DUP8 DUP1 REVERT JUMPDEST DUP3 MLOAD RETURNDATASIZE DUP8 DUP3 RETURNDATACOPY RETURNDATASIZE SWAP1 REVERT JUMPDEST DUP3 SLOAD DUP2 LT ISZERO PUSH2 0x60B JUMPI DUP5 DUP6 SWAP1 DUP7 DUP7 SLOAD SWAP1 JUMPDEST DUP2 DUP2 LT PUSH2 0x4EC JUMPI POP POP DUP2 ISZERO DUP7 DUP2 PUSH2 0x4D2 JUMPI POP PUSH2 0x4BF JUMPI PUSH1 0x1 PUSH1 0xFF SHL DUP2 EQ PUSH1 0x0 NOT DUP4 EQ AND PUSH2 0x4AC JUMPI SWAP2 DUP6 SWAP3 SWAP2 DUP4 SWAP3 DUP3 DUP10 MSTORE PUSH1 0x2 PUSH1 0x20 MSTORE SDIV DUP5 DUP9 KECCAK256 SSTORE JUMPDEST ADD SWAP1 PUSH2 0x1A3 JUMP JUMPDEST PUSH4 0x4E487B71 PUSH1 0xE0 SHL DUP8 MSTORE PUSH1 0x11 DUP9 MSTORE PUSH1 0x24 DUP8 REVERT JUMPDEST PUSH4 0x4E487B71 PUSH1 0xE0 SHL DUP8 MSTORE PUSH1 0x12 DUP9 MSTORE PUSH1 0x24 DUP8 REVERT JUMPDEST SWAP4 SWAP2 POP POP DUP3 SWAP2 POP DUP1 DUP8 MSTORE PUSH1 0x2 PUSH1 0x20 MSTORE PUSH1 0x5 DUP5 DUP9 KECCAK256 SSTORE PUSH2 0x4A5 JUMP JUMPDEST SWAP7 DUP8 PUSH2 0x500 DUP3 SWAP12 SWAP6 SWAP8 SWAP9 SWAP4 SWAP5 SWAP7 SWAP11 SWAP10 PUSH2 0xDAD JUMP JUMPDEST SWAP1 SLOAD PUSH1 0x1 PUSH1 0x1 PUSH1 0xA0 SHL SUB SWAP2 DUP6 SHL SHR DUP2 AND DUP11 MSTORE PUSH1 0x20 DUP11 DUP2 MSTORE DUP10 DUP12 KECCAK256 DUP6 ADD SLOAD DUP12 SWAP2 SWAP1 PUSH1 0xFF AND PUSH2 0x53B JUMPI JUMPDEST POP POP POP ADD SWAP9 SWAP7 SWAP8 SWAP4 SWAP2 SWAP1 SWAP6 SWAP5 SWAP3 SWAP9 PUSH2 0x46A JUMP JUMPDEST SWAP1 SWAP2 DUP4 SWAP10 SWAP5 POP PUSH2 0x54C DUP2 SWAP10 SWAP5 PUSH2 0xDAD JUMP JUMPDEST SWAP1 SLOAD SWAP1 DUP8 SHL SHR AND DUP3 MSTORE DUP2 DUP2 MSTORE PUSH2 0x567 DUP13 PUSH1 0x2 DUP13 DUP6 KECCAK256 ADD PUSH2 0xDE4 JUMP JUMPDEST SWAP1 SLOAD SWAP1 DUP7 SHL SHR SWAP8 PUSH2 0x577 DUP11 PUSH2 0xDAD JUMP JUMPDEST SWAP1 SLOAD SWAP1 DUP8 SHL SHR AND DUP3 MSTORE MSTORE PUSH2 0x58D DUP11 DUP10 DUP12 KECCAK256 PUSH2 0xDE4 JUMP JUMPDEST SWAP1 SLOAD SWAP1 DUP5 SHL SHR DUP7 DUP2 MUL SWAP2 SWAP1 DUP11 DUP9 SLT PUSH1 0x1 PUSH1 0xFF SHL DUP3 EQ AND PUSH2 0x5F8 JUMPI DUP8 DUP4 SDIV EQ DUP8 ISZERO OR ISZERO PUSH2 0x5E5 JUMPI SWAP1 PUSH2 0x5BD SWAP2 PUSH2 0xF2D JUMP JUMPDEST SWAP5 DUP2 ADD DUP1 SWAP2 GT PUSH2 0x5D2 JUMPI DUP10 SWAP1 SWAP6 DUP12 DUP10 DUP2 PUSH2 0x528 JUMP JUMPDEST PUSH4 0x4E487B71 PUSH1 0xE0 SHL DUP9 MSTORE PUSH1 0x11 DUP5 MSTORE PUSH1 0x24 DUP9 REVERT JUMPDEST PUSH4 0x4E487B71 PUSH1 0xE0 SHL DUP11 MSTORE PUSH1 0x11 DUP7 MSTORE PUSH1 0x24 DUP11 REVERT JUMPDEST PUSH4 0x4E487B71 PUSH1 0xE0 SHL DUP12 MSTORE PUSH1 0x11 DUP8 MSTORE PUSH1 0x24 DUP12 REVERT JUMPDEST PUSH2 0x1A8 JUMP JUMPDEST MLOAD PUSH3 0x461BCD PUSH1 0xE5 SHL DUP2 MSTORE PUSH1 0x20 DUP2 DUP7 ADD MSTORE PUSH1 0x16 PUSH1 0x24 DUP3 ADD MSTORE PUSH22 0x1B9D5B521BDD5C9CC81B9D48195CDD19481CD95D185D PUSH1 0x52 SHL PUSH1 0x44 DUP3 ADD MSTORE PUSH1 0x64 SWAP1 REVERT JUMPDEST MLOAD PUSH3 0x461BCD PUSH1 0xE5 SHL DUP2 MSTORE PUSH1 0x20 DUP2 DUP6 ADD MSTORE PUSH1 0x16 PUSH1 0x24 DUP3 ADD MSTORE PUSH22 0x139A58DA5D5B881B9BD9081A5B9C9959DA5CDD1C985D PUSH1 0x52 SHL PUSH1 0x44 DUP3 ADD MSTORE PUSH1 0x64 SWAP1 REVERT JUMPDEST SWAP1 POP CALLVALUE PUSH2 0x6CA JUMPI PUSH1 0x20 CALLDATASIZE PUSH1 0x3 NOT ADD SLT PUSH2 0x6CA JUMPI CALLDATALOAD SWAP2 PUSH1 0x1 SLOAD DUP4 LT ISZERO PUSH2 0x6C7 JUMPI POP PUSH2 0x6B1 PUSH1 0x20 SWAP3 PUSH2 0xDAD JUMP JUMPDEST SWAP1 SLOAD SWAP2 MLOAD SWAP2 PUSH1 0x1 DUP1 PUSH1 0xA0 SHL SUB SWAP2 PUSH1 0x3 SHL SHR AND DUP2 MSTORE RETURN JUMPDEST DUP1 REVERT JUMPDEST DUP3 DUP1 REVERT JUMPDEST DUP3 DUP5 CALLVALUE PUSH2 0x6C7 JUMPI DUP1 PUSH1 0x3 NOT CALLDATASIZE ADD SLT PUSH2 0x6C7 JUMPI DUP2 MLOAD SWAP2 DUP3 SWAP2 PUSH1 0x5 SLOAD DUP1 DUP6 MSTORE PUSH1 0x20 DUP1 SWAP6 ADD SWAP5 PUSH1 0x5 DUP4 MSTORE PUSH1 0x0 DUP1 MLOAD PUSH1 0x20 PUSH2 0xF60 DUP4 CODECOPY DUP2 MLOAD SWAP2 MSTORE SWAP3 SWAP1 JUMPDEST DUP3 DUP3 LT PUSH2 0x735 JUMPI PUSH2 0x731 DUP7 DUP7 PUSH2 0x71F DUP3 DUP12 SUB DUP4 PUSH2 0xE66 JUMP JUMPDEST MLOAD SWAP2 DUP3 SWAP2 PUSH1 0x20 DUP4 MSTORE PUSH1 0x20 DUP4 ADD SWAP1 PUSH2 0xDFC JUMP JUMPDEST SUB SWAP1 RETURN JUMPDEST DUP4 SLOAD DUP8 MSTORE SWAP6 DUP7 ADD SWAP6 PUSH1 0x1 SWAP4 DUP5 ADD SWAP4 SWAP1 SWAP2 ADD SWAP1 PUSH2 0x707 JUMP JUMPDEST POP POP CALLVALUE PUSH2 0xFD JUMPI DUP2 PUSH1 0x3 NOT CALLDATASIZE ADD SLT PUSH2 0xFD JUMPI PUSH1 0x20 SWAP1 PUSH1 0xFF PUSH1 0x8 SLOAD AND SWAP1 MLOAD SWAP1 ISZERO ISZERO DUP2 MSTORE RETURN JUMPDEST SWAP2 SWAP1 POP CALLVALUE PUSH2 0x6CA JUMPI PUSH1 0x20 SWAP2 DUP3 PUSH1 0x3 NOT CALLDATASIZE ADD SLT PUSH2 0x7F8 JUMPI CALLDATALOAD PUSH1 0x1 PUSH1 0x1 PUSH1 0xA0 SHL SUB DUP2 AND SWAP1 DUP2 SWAP1 SUB PUSH2 0x7F8 JUMPI DUP4 MSTORE DUP3 DUP3 MSTORE DUP1 DUP4 KECCAK256 DUP2 MLOAD SWAP1 DUP2 SWAP5 DUP6 SWAP3 DUP6 DUP4 SLOAD SWAP2 DUP3 DUP2 MSTORE ADD SWAP3 DUP3 MSTORE DUP6 DUP3 KECCAK256 SWAP2 JUMPDEST DUP7 DUP3 DUP3 LT PUSH2 0x7E1 JUMPI DUP6 SWAP1 PUSH2 0x731 DUP9 PUSH2 0x7D2 DUP5 DUP10 SUB DUP6 PUSH2 0xE66 JUMP JUMPDEST MLOAD SWAP3 DUP3 DUP5 SWAP4 DUP5 MSTORE DUP4 ADD SWAP1 PUSH2 0xDFC JUMP JUMPDEST DUP4 SLOAD DUP6 MSTORE DUP9 SWAP6 POP SWAP1 SWAP4 ADD SWAP3 PUSH1 0x1 SWAP3 DUP4 ADD SWAP3 ADD PUSH2 0x7B8 JUMP JUMPDEST DUP4 DUP1 REVERT JUMPDEST POP POP CALLVALUE PUSH2 0xFD JUMPI DUP2 PUSH1 0x3 NOT CALLDATASIZE ADD SLT PUSH2 0xFD JUMPI PUSH1 0x20 SWAP1 PUSH1 0x7 SLOAD SWAP1 MLOAD SWAP1 DUP2 MSTORE RETURN JUMPDEST DUP4 SWAP1 CALLVALUE PUSH2 0xFD JUMPI DUP2 PUSH1 0x3 NOT CALLDATASIZE ADD SLT PUSH2 0xFD JUMPI PUSH1 0x1 PUSH1 0xFF NOT PUSH1 0x8 SLOAD AND OR PUSH1 0x8 SSTORE SLOAD PUSH1 0x6 SSTORE DUP1 RETURN JUMPDEST POP POP CALLVALUE PUSH2 0xFD JUMPI DUP2 PUSH1 0x3 NOT CALLDATASIZE ADD SLT PUSH2 0xFD JUMPI PUSH1 0x20 SWAP1 PUSH1 0x3 SLOAD SWAP1 MLOAD SWAP1 DUP2 MSTORE RETURN JUMPDEST SWAP1 POP CALLVALUE PUSH2 0x6CA JUMPI PUSH1 0x20 CALLDATASIZE PUSH1 0x3 NOT ADD SLT PUSH2 0x6CA JUMPI PUSH1 0x20 SWAP3 DUP3 SWAP2 CALLDATALOAD DUP2 MSTORE PUSH1 0x2 DUP5 MSTORE KECCAK256 SLOAD SWAP1 MLOAD SWAP1 DUP2 MSTORE RETURN JUMPDEST SWAP1 POP CALLVALUE PUSH2 0x6CA JUMPI PUSH1 0x20 CALLDATASIZE PUSH1 0x3 NOT ADD SLT PUSH2 0x6CA JUMPI CALLDATALOAD PUSH1 0x1 PUSH1 0x1 PUSH1 0xA0 SHL SUB DUP2 AND SWAP1 DUP2 SWAP1 SUB PUSH2 0x6CA JUMPI SWAP2 DUP2 SWAP3 DUP2 MSTORE DUP1 PUSH1 0x20 MSTORE KECCAK256 PUSH1 0xFF PUSH1 0x3 PUSH1 0x1 DUP4 ADD SLOAD SWAP3 ADD SLOAD AND DUP3 MLOAD SWAP2 DUP3 MSTORE ISZERO ISZERO PUSH1 0x20 DUP3 ADD MSTORE RETURN JUMPDEST SWAP2 SWAP1 POP CALLVALUE PUSH2 0x6CA JUMPI PUSH1 0x60 CALLDATASIZE PUSH1 0x3 NOT ADD SLT PUSH2 0x6CA JUMPI PUSH8 0xFFFFFFFFFFFFFFFF SWAP1 DUP3 CALLDATALOAD DUP3 DUP2 GT PUSH2 0xC83 JUMPI PUSH2 0x907 SWAP1 CALLDATASIZE SWAP1 DUP6 ADD PUSH2 0xE30 JUMP JUMPDEST SWAP1 SWAP4 PUSH1 0x24 DUP1 CALLDATALOAD SWAP6 PUSH1 0x44 CALLDATALOAD DUP7 DUP2 GT PUSH2 0x443 JUMPI PUSH2 0x925 SWAP1 CALLDATASIZE SWAP1 DUP6 ADD PUSH2 0xE30 JUMP JUMPDEST SWAP1 SWAP2 CALLER DUP11 MSTORE PUSH1 0x20 SWAP8 DUP11 DUP10 MSTORE DUP8 DUP12 KECCAK256 PUSH1 0xFF PUSH1 0x3 DUP3 ADD SLOAD AND ISZERO PUSH1 0x0 EQ PUSH2 0xBD3 JUMPI POP DUP8 MLOAD SWAP2 PUSH1 0x80 DUP4 ADD DUP4 DUP2 LT DUP4 DUP3 GT OR PUSH2 0xB75 JUMPI DUP10 MSTORE PUSH2 0x961 DUP9 PUSH2 0xE9E JUMP JUMPDEST SWAP1 PUSH2 0x96E DUP11 MLOAD SWAP3 DUP4 PUSH2 0xE66 JUMP JUMPDEST DUP9 DUP3 MSTORE DUP11 DUP3 ADD DUP10 PUSH1 0x5 SHL DUP3 ADD SWAP2 CALLDATASIZE DUP4 GT PUSH2 0xBCF JUMPI DUP13 SWAP1 SWAP2 JUMPDEST DUP4 DUP4 LT PUSH2 0xBBF JUMPI POP POP POP POP DUP3 MSTORE DUP9 DUP3 ADD SWAP4 DUP11 DUP6 MSTORE PUSH2 0x9A3 DUP5 PUSH2 0xE9E JUMP JUMPDEST SWAP4 PUSH2 0x9B0 DUP11 MLOAD SWAP6 DUP7 PUSH2 0xE66 JUMP JUMPDEST DUP1 DUP6 MSTORE DUP11 DUP6 ADD SWAP1 PUSH1 0x5 SHL DUP3 ADD SWAP2 CALLDATASIZE DUP4 GT PUSH2 0xBBB JUMPI DUP12 SWAP1 SWAP2 JUMPDEST DUP4 DUP4 LT PUSH2 0xBAB JUMPI POP POP POP POP DUP8 DUP3 ADD SWAP3 DUP4 MSTORE PUSH1 0x60 DUP3 ADD SWAP3 PUSH1 0x1 SWAP5 DUP6 DUP6 MSTORE CALLER DUP14 MSTORE DUP13 DUP12 MSTORE DUP10 DUP14 KECCAK256 SWAP4 MLOAD DUP1 MLOAD SWAP1 DUP5 DUP3 GT PUSH2 0xB99 JUMPI DUP15 DUP9 DUP15 DUP1 SWAP4 PUSH2 0xA08 DUP7 DUP12 PUSH2 0xEE8 JUMP JUMPDEST ADD SWAP3 DUP9 DUP4 MSTORE DUP1 DUP4 KECCAK256 SWAP3 SWAP1 JUMPDEST DUP6 DUP3 LT PUSH2 0xB87 JUMPI POP POP POP POP POP POP MLOAD DUP6 DUP5 ADD SSTORE PUSH1 0x2 DUP4 ADD SWAP1 MLOAD DUP1 MLOAD SWAP3 DUP4 GT PUSH2 0xB75 JUMPI DUP11 SWAP1 PUSH2 0xA40 DUP5 DUP5 PUSH2 0xEE8 JUMP JUMPDEST ADD SWAP1 DUP13 MSTORE DUP10 DUP13 KECCAK256 DUP6 DUP14 JUMPDEST DUP5 DUP2 LT PUSH2 0xB63 JUMPI POP POP POP POP POP PUSH1 0x3 ADD SWAP1 MLOAD ISZERO ISZERO PUSH1 0xFF DUP1 NOT DUP4 SLOAD AND SWAP2 AND OR SWAP1 SSTORE DUP1 SLOAD SWAP1 PUSH1 0x1 PUSH1 0x40 SHL DUP3 LT ISZERO PUSH2 0xB51 JUMPI DUP2 DUP2 ADD SWAP1 SSTORE PUSH2 0xA86 SWAP1 PUSH2 0xDAD JUMP JUMPDEST DUP2 SLOAD PUSH1 0x1 PUSH1 0x1 PUSH1 0xA0 SHL SUB PUSH1 0x3 SWAP3 SWAP1 SWAP3 SHL SWAP2 DUP3 SHL NOT AND CALLER SWAP1 SWAP2 SHL OR SWAP1 SSTORE JUMPDEST PUSH1 0x3 SLOAD DUP1 PUSH2 0xADF JUMPI POP POP POP PUSH1 0x3 SSTORE PUSH32 0x1E61759C28C006B2EDEFFC298E59EA00A93888CDDB41DC60E8236DE97F039B3C SWAP2 SWAP1 JUMPDEST MLOAD SWAP3 DUP4 MSTORE CALLER SWAP3 LOG2 DUP1 RETURN JUMPDEST SWAP1 SWAP2 SWAP3 SUB PUSH2 0xB11 JUMPI POP POP SWAP1 PUSH32 0x1E61759C28C006B2EDEFFC298E59EA00A93888CDDB41DC60E8236DE97F039B3C SWAP2 PUSH2 0xAD5 JUMP JUMPDEST PUSH1 0x64 SWAP4 PUSH1 0x1C SWAP3 SWAP4 MLOAD SWAP4 PUSH3 0x461BCD PUSH1 0xE5 SHL DUP6 MSTORE DUP5 ADD MSTORE DUP3 ADD MSTORE PUSH32 0x44696D656E7369756E65206E65636F72657370756E7A61746F61726500000000 PUSH1 0x44 DUP3 ADD MSTORE REVERT JUMPDEST PUSH4 0x4E487B71 PUSH1 0xE0 SHL DUP10 MSTORE PUSH1 0x41 DUP5 MSTORE DUP3 DUP10 REVERT JUMPDEST DUP13 DUP5 MLOAD SWAP5 ADD SWAP4 DUP2 DUP5 ADD SSTORE ADD DUP7 SWAP1 PUSH2 0xA4A JUMP JUMPDEST PUSH4 0x4E487B71 PUSH1 0xE0 SHL DUP14 MSTORE PUSH1 0x41 DUP9 MSTORE DUP7 DUP14 REVERT JUMPDEST DUP5 MLOAD SWAP5 ADD SWAP4 DUP2 DUP5 ADD SSTORE ADD DUP10 SWAP1 DUP16 PUSH2 0xA13 JUMP JUMPDEST PUSH4 0x4E487B71 PUSH1 0xE0 SHL DUP16 MSTORE PUSH1 0x41 DUP11 MSTORE DUP9 DUP16 REVERT JUMPDEST DUP3 CALLDATALOAD DUP2 MSTORE SWAP2 DUP2 ADD SWAP2 DUP13 SWAP2 ADD PUSH2 0x9C8 JUMP JUMPDEST DUP14 DUP1 REVERT JUMPDEST DUP3 CALLDATALOAD DUP2 MSTORE SWAP2 DUP2 ADD SWAP2 DUP14 SWAP2 ADD PUSH2 0x986 JUMP JUMPDEST DUP15 DUP1 REVERT JUMPDEST PUSH1 0x1 SWAP5 SWAP2 SWAP3 DUP12 PUSH1 0x1 DUP4 ADD DUP1 SLOAD DUP3 SLT PUSH2 0xBF3 JUMPI JUMPDEST POP POP POP POP POP POP POP POP PUSH2 0xAA3 JUMP JUMPDEST SSTORE DUP4 DUP10 GT PUSH2 0xB75 JUMPI PUSH2 0xC05 DUP10 DUP4 PUSH2 0xEE8 JUMP JUMPDEST SWAP1 DUP13 MSTORE DUP10 DUP13 KECCAK256 SWAP1 DUP6 DUP14 JUMPDEST DUP11 DUP2 LT PUSH2 0xC71 JUMPI POP POP POP POP CALLER DUP12 MSTORE DUP11 DUP10 MSTORE PUSH1 0x2 DUP9 DUP13 KECCAK256 ADD SWAP2 DUP4 GT PUSH2 0xC5F JUMPI PUSH2 0xC37 DUP4 DUP4 PUSH2 0xEE8 JUMP JUMPDEST SWAP1 DUP11 MSTORE DUP8 DUP11 KECCAK256 DUP11 JUMPDEST DUP4 DUP2 LT PUSH2 0xC4E JUMPI DUP1 DUP12 DUP2 PUSH2 0xBE6 JUMP JUMPDEST DUP3 CALLDATALOAD DUP3 DUP3 ADD SSTORE SWAP2 DUP10 ADD SWAP2 DUP5 ADD PUSH2 0xC3F JUMP JUMPDEST PUSH4 0x4E487B71 PUSH1 0xE0 SHL DUP12 MSTORE PUSH1 0x41 DUP7 MSTORE DUP5 DUP12 REVERT JUMPDEST DUP13 DUP4 CALLDATALOAD SWAP4 ADD SWAP3 DUP2 DUP6 ADD SSTORE ADD DUP7 SWAP1 PUSH2 0xC0F JUMP JUMPDEST DUP5 DUP1 REVERT JUMPDEST DUP4 DUP4 CALLVALUE PUSH2 0xFD JUMPI DUP2 PUSH1 0x3 NOT CALLDATASIZE ADD SLT PUSH2 0xFD JUMPI PUSH1 0x3 SLOAD PUSH2 0xCA5 DUP2 PUSH2 0xEB6 JUMP JUMPDEST SWAP3 DUP1 JUMPDEST DUP3 DUP2 LT PUSH2 0xCC4 JUMPI DUP4 MLOAD PUSH1 0x20 DUP1 DUP3 MSTORE DUP2 SWAP1 PUSH2 0x731 SWAP1 DUP3 ADD DUP9 PUSH2 0xDFC JUMP JUMPDEST DUP1 DUP3 MSTORE PUSH1 0x20 PUSH1 0x2 DUP2 MSTORE DUP5 DUP4 KECCAK256 SLOAD SWAP1 DUP7 MLOAD DUP4 LT ISZERO PUSH2 0xCEC JUMPI PUSH1 0x5 DUP4 SWAP1 SHL DUP8 ADD ADD MSTORE PUSH1 0x1 ADD PUSH2 0xCA8 JUMP JUMPDEST PUSH4 0x4E487B71 PUSH1 0xE0 SHL DUP5 MSTORE PUSH1 0x32 DUP9 MSTORE PUSH1 0x24 DUP5 REVERT JUMPDEST SWAP1 POP CALLVALUE PUSH2 0x6CA JUMPI DUP3 PUSH1 0x3 NOT CALLDATASIZE ADD SLT PUSH2 0x6CA JUMPI PUSH1 0x20 SWAP3 POP SLOAD SWAP1 MLOAD SWAP1 DUP2 MSTORE RETURN JUMPDEST SWAP1 POP CALLVALUE PUSH2 0x6CA JUMPI PUSH1 0x20 CALLDATASIZE PUSH1 0x3 NOT ADD SLT PUSH2 0x6CA JUMPI CALLDATALOAD SWAP2 PUSH1 0x5 SLOAD DUP4 LT ISZERO PUSH2 0x6C7 JUMPI POP PUSH2 0xD48 PUSH1 0x20 SWAP3 PUSH2 0xD72 JUMP JUMPDEST SWAP2 SWAP1 SLOAD SWAP1 MLOAD SWAP2 PUSH1 0x3 SHL SHR DUP2 MSTORE RETURN JUMPDEST DUP5 SWAP1 CALLVALUE PUSH2 0xFD JUMPI DUP2 PUSH1 0x3 NOT CALLDATASIZE ADD SLT PUSH2 0xFD JUMPI PUSH1 0x20 SWAP1 PUSH1 0x6 SLOAD DUP2 MSTORE RETURN JUMPDEST PUSH1 0x5 SLOAD DUP2 LT ISZERO PUSH2 0xD97 JUMPI PUSH1 0x5 PUSH1 0x0 MSTORE PUSH1 0x0 DUP1 MLOAD PUSH1 0x20 PUSH2 0xF60 DUP4 CODECOPY DUP2 MLOAD SWAP2 MSTORE ADD SWAP1 PUSH1 0x0 SWAP1 JUMP JUMPDEST PUSH4 0x4E487B71 PUSH1 0xE0 SHL PUSH1 0x0 MSTORE PUSH1 0x32 PUSH1 0x4 MSTORE PUSH1 0x24 PUSH1 0x0 REVERT JUMPDEST PUSH1 0x1 SLOAD DUP2 LT ISZERO PUSH2 0xD97 JUMPI PUSH1 0x1 PUSH1 0x0 MSTORE PUSH32 0xB10E2D527612073B26EECDFD717E6A320CF44B4AFAC2B0732D9FCBE2B7FA0CF6 ADD SWAP1 PUSH1 0x0 SWAP1 JUMP JUMPDEST DUP1 SLOAD DUP3 LT ISZERO PUSH2 0xD97 JUMPI PUSH1 0x0 MSTORE PUSH1 0x20 PUSH1 0x0 KECCAK256 ADD SWAP1 PUSH1 0x0 SWAP1 JUMP JUMPDEST SWAP1 DUP2 MLOAD DUP1 DUP3 MSTORE PUSH1 0x20 DUP1 DUP1 SWAP4 ADD SWAP4 ADD SWAP2 PUSH1 0x0 JUMPDEST DUP3 DUP2 LT PUSH2 0xE1C JUMPI POP POP POP POP SWAP1 JUMP JUMPDEST DUP4 MLOAD DUP6 MSTORE SWAP4 DUP2 ADD SWAP4 SWAP3 DUP2 ADD SWAP3 PUSH1 0x1 ADD PUSH2 0xE0E JUMP JUMPDEST SWAP2 DUP2 PUSH1 0x1F DUP5 ADD SLT ISZERO PUSH2 0xE61 JUMPI DUP3 CALLDATALOAD SWAP2 PUSH8 0xFFFFFFFFFFFFFFFF DUP4 GT PUSH2 0xE61 JUMPI PUSH1 0x20 DUP1 DUP6 ADD SWAP5 DUP5 PUSH1 0x5 SHL ADD ADD GT PUSH2 0xE61 JUMPI JUMP JUMPDEST PUSH1 0x0 DUP1 REVERT JUMPDEST SWAP1 PUSH1 0x1F DUP1 NOT SWAP2 ADD AND DUP2 ADD SWAP1 DUP2 LT PUSH8 0xFFFFFFFFFFFFFFFF DUP3 GT OR PUSH2 0xE88 JUMPI PUSH1 0x40 MSTORE JUMP JUMPDEST PUSH4 0x4E487B71 PUSH1 0xE0 SHL PUSH1 0x0 MSTORE PUSH1 0x41 PUSH1 0x4 MSTORE PUSH1 0x24 PUSH1 0x0 REVERT JUMPDEST PUSH8 0xFFFFFFFFFFFFFFFF DUP2 GT PUSH2 0xE88 JUMPI PUSH1 0x5 SHL PUSH1 0x20 ADD SWAP1 JUMP JUMPDEST SWAP1 PUSH2 0xEC0 DUP3 PUSH2 0xE9E JUMP JUMPDEST PUSH2 0xECD PUSH1 0x40 MLOAD SWAP2 DUP3 PUSH2 0xE66 JUMP JUMPDEST DUP3 DUP2 MSTORE DUP1 SWAP3 PUSH2 0xEDE PUSH1 0x1F NOT SWAP2 PUSH2 0xE9E JUMP JUMPDEST ADD SWAP1 PUSH1 0x20 CALLDATASIZE SWAP2 ADD CALLDATACOPY JUMP JUMPDEST PUSH1 0x1 PUSH1 0x40 SHL DUP3 GT PUSH2 0xE88 JUMPI DUP1 SLOAD SWAP2 DUP1 DUP3 SSTORE DUP3 DUP2 LT PUSH2 0xF05 JUMPI POP POP POP JUMP JUMPDEST PUSH1 0x0 SWAP2 PUSH1 0x0 MSTORE PUSH1 0x20 PUSH1 0x0 KECCAK256 SWAP3 DUP4 ADD SWAP3 ADD JUMPDEST DUP3 DUP2 LT PUSH2 0xF22 JUMPI POP POP POP JUMP JUMPDEST DUP2 DUP2 SSTORE PUSH1 0x1 ADD PUSH2 0xF16 JUMP JUMPDEST SWAP2 SWAP1 SWAP2 PUSH1 0x0 DUP4 DUP3 ADD SWAP4 DUP5 SLT SWAP2 SLT SWAP1 DUP1 ISZERO DUP3 AND SWAP2 ISZERO AND OR PUSH2 0xF49 JUMPI JUMP JUMPDEST PUSH4 0x4E487B71 PUSH1 0xE0 SHL PUSH1 0x0 MSTORE PUSH1 0x11 PUSH1 0x4 MSTORE PUSH1 0x24 PUSH1 0x0 REVERT INVALID SUB PUSH12 0x6384B5ECA791C62761152D0C PUSH26 0xBB0604C104A5FB6F4EB0703F3154BB3DB0A26469706673582212 KECCAK256 BLOCKHASH SAR 0x28 ISZERO SWAP5 SUB 0xCF SLOAD GT JUMPI 0xE6 0xAE 0xC2 0x2F PUSH12 0x61DDB63C3DBB98CF0B1776B0 DUP13 0xD4 0xBF PUSH30 0x4E64736F6C63430008170033000000000000000000000000000000000000 "},"methodIdentifiers":{"bestGlobalCost()":"160b0cad","bestGlobalPlan(uint256)":"0c27abc8","computeGlobalOptimalPlan()":"ed3bf9c4","finalizePlan()":"a00239d6","finalized()":"b3f05b97","frozenGlobalCost()":"0bfa7ec9","getBestGlobalPlan()":"b6042cf9","getBestPosition(address)":"af602b43","getGlobalOptimalPlanArray()":"1e385f69","getGlobalOptimalPlanHour(uint256)":"efe5c98d","getLastUpdatedTimestamp()":"a626d2c0","globalOptimalPlan(uint256)":"7f042dc0","lastUpdatedTimestamp()":"fbaf894c","nodeAddresses(uint256)":"c4d77090","nodeResults(address)":"7207c556","numHours()":"94f6cd8d","updateNodeResult(int256[],int256,uint256[])":"2fc0395f"}}}}}