{"contracts/Node.sol":{"Node":{"abi":[{"inputs":[{"internalType":"address","name":"globalContractAddress","type":"address"},{"internalType":"int256[]","name":"initialPosition","type":"int256[]"},{"internalType":"int256[]","name":"initialVelocity","type":"int256[]"},{"internalType":"int256[]","name":"initialTariff","type":"int256[]"},{"internalType":"uint256[]","name":"initialCapacity","type":"uint256[]"},{"internalType":"uint256[]","name":"initialRenewableGeneration","type":"uint256[]"},{"internalType":"uint256[]","name":"initialBatteryCapacity","type":"uint256[]"},{"internalType":"uint256[]","name":"initialBatteryCharge","type":"uint256[]"},{"internalType":"uint256[]","name":"initialFlexibleLoad","type":"uint256[]"},{"internalType":"uint256[]","name":"_flexibilityAbove","type":"uint256[]"},{"internalType":"uint256[]","name":"_flexibilityBelow","type":"uint256[]"}],"stateMutability":"nonpayable","type":"constructor"},{"anonymous":false,"inputs":[{"indexed":true,"internalType":"address","name":"node","type":"address"},{"indexed":false,"internalType":"int256","name":"newScore","type":"int256"}],"name":"BestPositionUpdated","type":"event"},{"anonymous":false,"inputs":[{"indexed":false,"internalType":"uint256","name":"timestamp","type":"uint256"}],"name":"NewPlanReceived","type":"event"},{"inputs":[{"internalType":"uint256","name":"","type":"uint256"}],"name":"batteryCapacity","outputs":[{"internalType":"uint256","name":"","type":"uint256"}],"stateMutability":"view","type":"function"},{"inputs":[{"internalType":"uint256","name":"","type":"uint256"}],"name":"batteryCharge","outputs":[{"internalType":"uint256","name":"","type":"uint256"}],"stateMutability":"view","type":"function"},{"inputs":[],"name":"c1","outputs":[{"internalType":"int256","name":"","type":"int256"}],"stateMutability":"view","type":"function"},{"inputs":[],"name":"c2","outputs":[{"internalType":"int256","name":"","type":"int256"}],"stateMutability":"view","type":"function"},{"inputs":[{"internalType":"uint256","name":"","type":"uint256"}],"name":"capacity","outputs":[{"internalType":"uint256","name":"","type":"uint256"}],"stateMutability":"view","type":"function"},{"inputs":[{"internalType":"uint256","name":"","type":"uint256"}],"name":"flexibilityAbove","outputs":[{"internalType":"uint256","name":"","type":"uint256"}],"stateMutability":"view","type":"function"},{"inputs":[{"internalType":"uint256","name":"","type":"uint256"}],"name":"flexibilityBelow","outputs":[{"internalType":"uint256","name":"","type":"uint256"}],"stateMutability":"view","type":"function"},{"inputs":[{"internalType":"uint256","name":"","type":"uint256"}],"name":"flexibleLoad","outputs":[{"internalType":"uint256","name":"","type":"uint256"}],"stateMutability":"view","type":"function"},{"inputs":[{"internalType":"uint256","name":"","type":"uint256"}],"name":"frozenBatteryCharge","outputs":[{"internalType":"uint256","name":"","type":"uint256"}],"stateMutability":"view","type":"function"},{"inputs":[{"internalType":"uint256","name":"","type":"uint256"}],"name":"frozenRenewableGeneration","outputs":[{"internalType":"uint256","name":"","type":"uint256"}],"stateMutability":"view","type":"function"},{"inputs":[],"name":"getBatteryCapacity","outputs":[{"internalType":"uint256[]","name":"","type":"uint256[]"}],"stateMutability":"view","type":"function"},{"inputs":[],"name":"getBatteryCharge","outputs":[{"internalType":"uint256[]","name":"","type":"uint256[]"}],"stateMutability":"view","type":"function"},{"inputs":[],"name":"getCapacity","outputs":[{"internalType":"uint256[]","name":"","type":"uint256[]"}],"stateMutability":"view","type":"function"},{"inputs":[{"internalType":"uint256","name":"hour","type":"uint256"},{"internalType":"int256","name":"consumption","type":"int256"}],"name":"getEffectiveTariff","outputs":[{"internalType":"int256","name":"","type":"int256"}],"stateMutability":"view","type":"function"},{"inputs":[],"name":"getFlexibilityAbove","outputs":[{"internalType":"uint256[]","name":"","type":"uint256[]"}],"stateMutability":"view","type":"function"},{"inputs":[],"name":"getFlexibilityBelow","outputs":[{"internalType":"uint256[]","name":"","type":"uint256[]"}],"stateMutability":"view","type":"function"},{"inputs":[],"name":"getFrozenCost","outputs":[{"internalType":"int256","name":"","type":"int256"}],"stateMutability":"view","type":"function"},{"inputs":[],"name":"getPersonalBestPosition","outputs":[{"internalType":"int256[]","name":"","type":"int256[]"}],"stateMutability":"view","type":"function"},{"inputs":[],"name":"getPosition","outputs":[{"internalType":"int256[]","name":"","type":"int256[]"}],"stateMutability":"view","type":"function"},{"inputs":[],"name":"getRenewableGeneration","outputs":[{"internalType":"uint256[]","name":"","type":"uint256[]"}],"stateMutability":"view","type":"function"},{"inputs":[],"name":"getTariff","outputs":[{"internalType":"int256[]","name":"","type":"int256[]"}],"stateMutability":"view","type":"function"},{"inputs":[],"name":"globalContract","outputs":[{"internalType":"contract GlobalContractInterface","name":"","type":"address"}],"stateMutability":"view","type":"function"},{"inputs":[],"name":"lastKnownGlobalTimestamp","outputs":[{"internalType":"uint256","name":"","type":"uint256"}],"stateMutability":"view","type":"function"},{"inputs":[{"internalType":"int256[]","name":"pos","type":"int256[]"}],"name":"objectiveFunction","outputs":[{"internalType":"int256","name":"","type":"int256"}],"stateMutability":"view","type":"function"},{"inputs":[{"internalType":"int256[]","name":"pos","type":"int256[]"}],"name":"objectiveFunctionFrozen","outputs":[{"internalType":"int256","name":"","type":"int256"}],"stateMutability":"view","type":"function"},{"inputs":[{"internalType":"uint256","name":"","type":"uint256"}],"name":"personalBestPosition","outputs":[{"internalType":"int256","name":"","type":"int256"}],"stateMutability":"view","type":"function"},{"inputs":[],"name":"personalBestScore","outputs":[{"internalType":"int256","name":"","type":"int256"}],"stateMutability":"view","type":"function"},{"inputs":[{"internalType":"uint256","name":"","type":"uint256"}],"name":"position","outputs":[{"internalType":"int256","name":"","type":"int256"}],"stateMutability":"view","type":"function"},{"inputs":[{"internalType":"uint256","name":"","type":"uint256"}],"name":"renewableGeneration","outputs":[{"internalType":"uint256","name":"","type":"uint256"}],"stateMutability":"view","type":"function"},{"inputs":[{"internalType":"uint256","name":"","type":"uint256"}],"name":"tariff","outputs":[{"internalType":"int256","name":"","type":"int256"}],"stateMutability":"view","type":"function"},{"inputs":[],"name":"updateBestPositions","outputs":[],"stateMutability":"nonpayable","type":"function"},{"inputs":[],"name":"updateVelocityAndPosition","outputs":[],"stateMutability":"nonpayable","type":"function"},{"inputs":[{"internalType":"uint256","name":"","type":"uint256"}],"name":"velocity","outputs":[{"internalType":"int256","name":"","type":"int256"}],"stateMutability":"view","type":"function"},{"inputs":[],"name":"w","outputs":[{"internalType":"int256","name":"","type":"int256"}],"stateMutability":"view","type":"function"}],"evm":{"bytecode":{"linkReferences":{},"object":"60806040523462000bd25762002b73803803806200001d8162000bd7565b92833981016101608282031262000bd25781516001600160a01b038116919082900362000bd25760208301516001600160401b03811162000bd257816200006691850162000c15565b60408401519093906001600160401b03811162000bd257826200008b91830162000c15565b60608201516001600160401b03811162000bd25783620000ad91840162000c15565b60808301516001600160401b03811162000bd25784620000cf91850162000c15565b60a08401516001600160401b03811162000bd25785620000f191860162000c15565b60c08501519091906001600160401b03811162000bd257866200011691870162000c15565b60e08601519093906001600160401b03811162000bd257876200013b91880162000c15565b6101008701519095906001600160401b03811162000bd257886200016191890162000c15565b6101208801519097906001600160401b03811162000bd257896200018791830162000c15565b6101408201519099906001600160401b03811162000bd257620001ab920162000c15565b6001600160ff1b03600355603260055560c86006819055600755601080546001600160a01b031916909a179099558951620001e69062000c79565b8051906001600160401b038211620008905768010000000000000000821162000890576000548260005580831062000b9b575b5060200160008052602060002060005b83811062000b86575050505062000241815162000c79565b8051906001600160401b038211620008905768010000000000000000821162000890576001548260015580831062000b4d575b506020016001600052602060002060005b83811062000b3857505050506200029d8a5162000c79565b8051906001600160401b038211620008905768010000000000000000821162000890576002548260025580831062000aff575b506020016002600052602060002060005b83811062000aea5750505050620002f9825162000c79565b8051906001600160401b038211620008905768010000000000000000821162000890576008548260085580831062000ab1575b506020016008600052602060002060005b83811062000a9c575050505062000355835162000c79565b8051906001600160401b038211620008905768010000000000000000821162000890576009548260095580831062000a63575b506020016009600052602060002060005b83811062000a4e5750505050620003b1845162000c79565b8051906001600160401b03821162000890576801000000000000000082116200089057600a5482600a5580831062000a15575b50602001600a600052602060002060005b83811062000a0057505050506200040d855162000c79565b8051906001600160401b03821162000890576801000000000000000082116200089057600b5482600b55808310620009b6575b50602001600b600052602060002060005b838110620009a1575050505062000469865162000c79565b8051906001600160401b03821162000890576801000000000000000082116200089057600c5482600c5580831062000957575b50602001600c600052602060002060005b838110620009425750505050620004c5875162000c79565b8051906001600160401b03821162000890576801000000000000000082116200089057600d5482600d5580831062000909575b50602001600d600052602060002060005b838110620008f4575050505062000521885162000c79565b8051906001600160401b03821162000890576801000000000000000082116200089057600e5482600e55808310620008bb575b50602001600e600052602060002060005b838110620008a657505050506200057d895162000c79565b8051906001600160401b03821162000890576801000000000000000082116200089057600f5482600f5580831062000846575b50602001600f600052602060002060005b83811062000831575050505060005b8a518110156200082157620005e6818c62000ca6565b516000548210156200080b576000805260008051602062002ad383398151915282015562000615818c62000ca6565b516002548210156200080b57600260005260008051602062002a7383398151915282015562000645818362000ca6565b516001548210156200080b57600160005260008051602062002b5383398151915282015562000675818462000ca6565b516008548210156200080b57600860005260008051602062002b13833981519152820155620006a5818562000ca6565b516009548210156200080b57600960005260008051602062002b33833981519152820155620006d5818662000ca6565b51600a548210156200080b57600a60005260008051602062002ab383398151915282015562000705818762000ca6565b51600b548210156200080b57600b6000527f0175b7a638427703f0dbe7bb9bbf987a2551717b34e79f33b5b1008d1fa01db982015562000746818862000ca6565b51600c548210156200080b57600c6000527fdf6966c971051c3d54ec59162606531493a51404a002842f56009d7e5cf4a8c782015562000787818962000ca6565b51600d548210156200080b57600d60005260008051602062002af3833981519152820155620007b7818a62000ca6565b51600e548210156200080b57600e60005260008051602062002a93833981519152820155620007e7818b62000ca6565b5190600f548110156200080b57600191600f600052816020600020015501620005d0565b634e487b7160e01b600052603260045260246000fd5b604051611db7908162000cbc8239f35b600190602084519401938184015501620005c1565b600f6000527f8d1108e10bcb7c27dddfc02ed9d693a074039d026cf4ea4240b40f7d581ac802908382015b818301811062000883575050620005b0565b6000815560010162000871565b634e487b7160e01b600052604160045260246000fd5b60019060208451940193818401550162000565565b600e60005260008051602062002a93833981519152908382015b8183018110620008e757505062000554565b60008155600101620008d5565b60019060208451940193818401550162000509565b600d60005260008051602062002af3833981519152908382015b818301811062000935575050620004f8565b6000815560010162000923565b600190602084519401938184015501620004ad565b600c6000527fdf6966c971051c3d54ec59162606531493a51404a002842f56009d7e5cf4a8c7908382015b8183018110620009945750506200049c565b6000815560010162000982565b60019060208451940193818401550162000451565b600b6000527f0175b7a638427703f0dbe7bb9bbf987a2551717b34e79f33b5b1008d1fa01db9908382015b8183018110620009f357505062000440565b60008155600101620009e1565b600190602084519401938184015501620003f5565b600a60005260008051602062002ab3833981519152908382015b818301811062000a41575050620003e4565b6000815560010162000a2f565b60019060208451940193818401550162000399565b600960005260008051602062002b33833981519152908382015b818301811062000a8f57505062000388565b6000815560010162000a7d565b6001906020845194019381840155016200033d565b600860005260008051602062002b13833981519152908382015b818301811062000add5750506200032c565b6000815560010162000acb565b600190602084519401938184015501620002e1565b600260005260008051602062002a73833981519152908382015b818301811062000b2b575050620002d0565b6000815560010162000b19565b60019060208451940193818401550162000285565b600160005260008051602062002b53833981519152908382015b818301811062000b7957505062000274565b6000815560010162000b67565b60019060208451940193818401550162000229565b6000805260008051602062002ad38339815191529081019083015b81811062000bc5575062000219565b6000815560010162000bb6565b600080fd5b6040519190601f01601f191682016001600160401b038111838210176200089057604052565b6001600160401b038111620008905760051b60200190565b9080601f8301121562000bd25781519060209162000c3d62000c378262000bfd565b62000bd7565b9360208086848152019260051b82010192831162000bd257602001905b82821062000c69575050505090565b8151815290830190830162000c5a565b9062000c8962000c378362000bfd565b828152809262000c9c601f199162000bfd565b0190602036910137565b80518210156200080b5760209160051b01019056fe6080604081815260048036101561001557600080fd5b600092833560e01c90816303bc4a86146110995750806304d019421461106f57806316b5192814611045578063205c9cc714611026578063300aee141461100b578063364132d914610ff5578063375a105e14610fcb5780634485bb5514610f5157806348e257cb14610f325780634d985ae414610f135780634eb274ff14610ee95780635f57697c14610eca5780636f24077414610ea05780637398ab1814610e2757806378b6d7d414610dfd57806385c96e6614610ddf57806390ccfa0f14610db6578063957b405614610d8c57806396d14da614610d62578063973b9cc1146109c2578063983bedda146109475780639b14d83b146108cc578063a86853d5146108a2578063ab1bbeca14610878578063b27966e6146107fd578063b6ce6709146107ad578063c40000d414610720578063d0c6c7af14610703578063e329143f146106b3578063e7d463851461067d578063f6451c0a14610239578063f7a95a9e14610210578063fb722277146101d75763ff9c446f1461019957600080fd5b346101d35760203660031901126101d35735916011548310156101d057506101c26020926112fc565b91905490519160031b1c8152f35b80fd5b8280fd5b50503461020c578160031936011261020c57610208906101f5611b0e565b9051918291602083526020830190611408565b0390f35b5080fd5b50346101d35760203660031901126101d357359180548310156101d057506101c26020926111e8565b50346101d357826003193601126101d35760105482516302989b4b60e61b8152929060209085906001600160a01b031682868681845afa80156106735785968396959691610642575b508385548211610610575b5050845163b6042cf960e01b815295869182905afa9384156106065785946105e2575b5083518554036105ad57845b85548110156105a9576102ce816111e8565b905485514285820190815260208101859052600393841b9290921c604083015280606083010390610307601f1992838101835282611333565b6064928391519020069060019182860180871161059657846065918b6103648b6103586103338d6111b1565b9054908d1b1c9351938492830195428791606093918352602083015260408201520190565b03878101835282611333565b5190200692610372886111b1565b905490881b1c906103ab8c51918261039f8d8201958d428891606093918352602083015260408201520190565b03908101835282611333565b5190200692603119840193841316610581579161046661046b9285610456886104518f8499839b61045660019f9e938f6104488161043061041a8261041461045d9b6103f9610451986112a0565b905490821b1c90610409846111e8565b9054911b1c9061168b565b9661154e565b51610424836111e8565b9054908d1b1c9061168b565b9961043d600554926111b1565b9054911b1c90611657565b94600654611657565b611657565b05906116b1565b94600754611657565b6116b1565b0561048f610478846111b1565b819391549060031b91821b91600019901b19161790565b90556104b861049d836111e8565b905490831b1c6104ac846111b1565b905490841b1c906116b1565b6104c4610478846111e8565b90556104f56104d2836112a0565b905490831b1c6104ef6104e485611143565b905490851b1c6115ff565b9061168b565b610524610501846112a0565b905490841b1c61051e61051386611232565b905490861b1c6115ff565b906116b1565b91818392610531866111e8565b905490841b1c1261056d575b50610547846111e8565b9054911b1c13610559575b50016102bc565b610565610478836111e8565b905538610552565b610579610478866111e8565b90553861053d565b601188634e487b7160e01b6000525260246000fd5b634e487b7160e01b8c526011895260248cfd5b8580f35b606492519162461bcd60e51b8352820152601260248201527144696d656e7369756e6920696e6567616c6560701b6044820152fd5b6105ff9194503d8087833e6105f78183611333565b810190611562565b92386102b0565b83513d87823e3d90fd5b817fc06999d659d5132dd93a1915097da1a6a24201916389e38da2404e4bca5e59be9287558751908152a1388361028d565b809550848092503d831161066c575b61065b8183611333565b8101031261020c5785935138610282565b503d610651565b84513d84823e3d90fd5b50503461020c578160031936011261020c578051610208916106a9826106a281611478565b0383611333565b519182918261143c565b50346101d35760203660031901126101d35735600d548110156101d35760209250600d6000527fd7b6990105719101dabeb77144f2a3385c8033acd3af97e9423a695e81ad1eb501549051908152f35b50346101d357826003193601126101d35760209250549051908152f35b8284346101d057806003193601126101d057508051600980548083526000918252602080840194927f6e1540171b6c0c960b71a7020d9f60077f6af931a8bbf590da0223dacf75c7af92915b828210610796576102088686610784828b0383611333565b51918291602083526020830190611408565b83548752958601956001938401939091019061076c565b50346101d35760203660031901126101d35735600b548110156101d35760209250600b6000527f0175b7a638427703f0dbe7bb9bbf987a2551717b34e79f33b5b1008d1fa01db901549051908152f35b8284346101d057806003193601126101d057508051600e80548083526000918252602080840194927fbb7b4a454dc3493923482f07822329ed19e8244eff582cc204f8554c3620c3fd92915b828210610861576102088686610784828b0383611333565b835487529586019560019384019390910190610849565b50346101d35760203660031901126101d35735916009548310156101d057506101c26020926112c5565b50346101d35760203660031901126101d35735916002548310156101d057506101c26020926112a0565b8284346101d057806003193601126101d057508051600880548083526000918252602080840194927ff3f7a9fe364faab93b216da50a3214154f22a0a2b415b23a84c8169e8b636ee392915b8282106109305761020886866106a9828b0383611333565b835487529586019560019384019390910190610918565b8284346101d057806003193601126101d057508051600f80548083526000918252602080840194927f8d1108e10bcb7c27dddfc02ed9d693a074039d026cf4ea4240b40f7d581ac80292915b8282106109ab576102088686610784828b0383611333565b835487529586019560019384019390910190610993565b5090346101d357600319918383360112610ab5576109f482516109ef816109e8816114c3565b0382611333565b611b7c565b600380548212610b01575b908591600e54610a0e8161151c565b91845b828110610ab95750506010546001600160a01b0316919050813b15610ab55783610a6e97875198899586948593632fc0395f60e01b855260608b860152610a5a606486016114c3565b926024860152848303016044850152611408565b03925af18015610aab57610a80578380f35b67ffffffffffffffff8311610a985750523880808380f35b634e487b7160e01b845260419052602483fd5b82513d86823e3d90fd5b8380fd5b6001919293949550610ae8610acd82611232565b905490851b1c610adc83611143565b905490861b1c906116a4565b821c610af4828761154e565b5201908894939291610a11565b919492909384835583549267ffffffffffffffff8411610d4f576801000000000000000093848111610d3c5760025481600255808210610d0e575b507f290decd9548b62a8d60345a988386fc84ba6bc95484008f6362f93160ef3e5636002875280549087915b838310610cea57505050506011916011548660115580610ca8575b506012936012548760125580610c66575b50865b600a54811015610c2c57610baa81611269565b9054865491861b1c88821015610c1957610bcd6104786001938481018a556112fc565b9055610bd88261117a565b9054885491871b1c9189821015610c065761047882610bfe926001969594018b556110bf565b905501610b97565b634e487b7160e01b8b5260418d5260248bfd5b634e487b7160e01b8a5260418c5260248afd5b5095979450959250905083518281527f409d103f7876158f293a85ee39f235ce0c309ab1aca81024a51dfb4b471e556e60203092a26109ff565b601288527fbb8a6a4669ba250d26cd7a459eca9d215f8307e33aebe50379bc5a3617ec3444908101905b818110610c9d5750610b94565b888155600101610c90565b601187527f31ecc21a745e3968a04e9570e4425bc18fa8019c68028196b546d1669c200c68908101905b818110610cdf5750610b83565b878155600101610cd2565b6001809192019283549281600080516020611d628339815191520155019190610b68565b81600080516020611d6283398151915291820191015b818110610d315750610b3c565b878155600101610d24565b634e487b7160e01b865260418852602486fd5b634e487b7160e01b855260418752602485fd5b50346101d35760203660031901126101d3573591600a548310156101d057506101c2602092611269565b5091346101d057816003193601126101d05750610daf6020926024359035611cfd565b9051908152f35b50503461020c578160031936011261020c5760105490516001600160a01b039091168152602090f35b50503461020c578160031936011261020c57610208906101f5611a9e565b50346101d35760203660031901126101d3573591600e548310156101d057506101c2602092611232565b8284346101d057806003193601126101d0578054610e448161136b565b91610e5184519384611333565b818352601f19610e608361136b565b013660208501375b818110610e7c57835180610208858261143c565b80610e886001926111e8565b90549060031b1c610e99828661154e565b5201610e68565b50346101d35760203660031901126101d35735916001548310156101d057506101c26020926111b1565b50503461020c578160031936011261020c576020906006549051908152f35b50346101d35760203660031901126101d3573591600c548310156101d057506101c260209261117a565b50503461020c578160031936011261020c576020906003549051908152f35b50503461020c578160031936011261020c576020906007549051908152f35b8284346101d057806003193601126101d0578151918291600b54808552602080950194600b83527f0175b7a638427703f0dbe7bb9bbf987a2551717b34e79f33b5b1008d1fa01db992905b828210610fb4576102088686610784828b0383611333565b835487529586019560019384019390910190610f9c565b50346101d35760203660031901126101d3573591600f548310156101d057506101c2602092611143565b50503461020c57602090610daf6109ef36611383565b50503461020c57602090610daf61102136611383565b6116cd565b50503461020c578160031936011261020c576020906005549051908152f35b50346101d35760203660031901126101d35735916008548310156101d057506101c260209261110c565b50346101d35760203660031901126101d35735916012548310156101d057506101c26020926110bf565b8385346101d057806003193601126101d05750610daf82611021816109e8602096611478565b6012548110156110f65760126000527fbb8a6a4669ba250d26cd7a459eca9d215f8307e33aebe50379bc5a3617ec34440190600090565b634e487b7160e01b600052603260045260246000fd5b6008548110156110f65760086000527ff3f7a9fe364faab93b216da50a3214154f22a0a2b415b23a84c8169e8b636ee30190600090565b600f548110156110f657600f6000527f8d1108e10bcb7c27dddfc02ed9d693a074039d026cf4ea4240b40f7d581ac8020190600090565b600c548110156110f657600c6000527fdf6966c971051c3d54ec59162606531493a51404a002842f56009d7e5cf4a8c70190600090565b6001548110156110f65760016000527fb10e2d527612073b26eecdfd717e6a320cf44b4afac2b0732d9fcbe2b7fa0cf60190600090565b90600091825481101561121e578280527f290decd9548b62a8d60345a988386fc84ba6bc95484008f6362f93160ef3e563019190565b634e487b7160e01b83526032600452602483fd5b600e548110156110f657600e6000527fbb7b4a454dc3493923482f07822329ed19e8244eff582cc204f8554c3620c3fd0190600090565b600a548110156110f657600a6000527fc65a7bb8d6351c1cf70c95a316cc6a92839c986682d98bc35f958f4883f9d2a80190600090565b6002548110156110f6576002600052600080516020611d628339815191520190600090565b6009548110156110f65760096000527f6e1540171b6c0c960b71a7020d9f60077f6af931a8bbf590da0223dacf75c7af0190600090565b6011548110156110f65760116000527f31ecc21a745e3968a04e9570e4425bc18fa8019c68028196b546d1669c200c680190600090565b90601f8019910116810190811067ffffffffffffffff82111761135557604052565b634e487b7160e01b600052604160045260246000fd5b67ffffffffffffffff81116113555760051b60200190565b602080600319830112611403576004359167ffffffffffffffff831161140357806023840112156114035782600401356113bc8161136b565b936113ca6040519586611333565b8185526024602086019260051b82010192831161140357602401905b8282106113f4575050505090565b813581529083019083016113e6565b600080fd5b90815180825260208080930193019160005b828110611428575050505090565b83518552938101939281019260010161141a565b602090602060408183019282815285518094520193019160005b828110611464575050505090565b835185529381019392810192600101611456565b600254908181526020809101916002600052600080516020611d62833981519152916000905b8282106114ac575050505090565b83548552938401936001938401939091019061149e565b600080548083528180526020928301927f290decd9548b62a8d60345a988386fc84ba6bc95484008f6362f93160ef3e56392905b828210611505575050505090565b8354855293840193600193840193909101906114f7565b906115268261136b565b6115336040519182611333565b8281528092611544601f199161136b565b0190602036910137565b80518210156110f65760209160051b010190565b60209081818403126114035780519067ffffffffffffffff821161140357019180601f840112156114035782516115988161136b565b936115a66040519586611333565b818552838086019260051b820101928311611403578301905b8282106115cd575050505090565b815181529083019083016115bf565b919082039182116115e957565b634e487b7160e01b600052601160045260246000fd5b908160011b91808305600214901517156115e957565b906005820291808305600514901517156115e957565b906003820291808305600314901517156115e957565b908160021b91808305600414901517156115e957565b818102929160008212600160ff1b8214166115e95781840514901517156115e957565b600160ff1b81146115e95760000390565b818103929160001380158285131691841216176115e957565b919082018092116115e957565b919091600083820193841291129080158216911516176115e957565b6000908051601154906116df8261151c565b91845b818110611a7a575050601254916116f88361151c565b92855b818110611a5657505060105460405163b6042cf960e01b815291908690839060049082906001600160a01b03165afa918215611a4b578692611a2f575b509392919085945b8286106117505750505050505090565b90919293949561189560019161051e6117698a8a61154e565b51808b600080831215611962575061178761179b9261178c92611cfd565b61167a565b6117958361167a565b90611657565b905b61187c8c61051e6118766117b0836112c5565b90546003949160009190861b1c871315611955575061051e6118706117e36117d7846112c5565b905490881b1c8961168b565b955b61184d6117f1856112a0565b905490831b1c61182861182161180688611232565b905490861b1c61181589611143565b905490871b1c906116a4565b918c61168b565b6000811261194657905b6000918181131561193e57611847925061168b565b946112fc565b9054911b1c886000918181136000146119365761186a925061168b565b95611615565b9161162b565b916115ff565b6000918d8b8b51146118a1575b505061046691926116b1565b96019493929190611740565b6118ae6118b6918c61154e565b51809261168b565b908382126119275781905b801561191f57600a9005915b8282136118dd575b50508d611889565b610466941215611904576118f9916118f49161168b565b611641565b925b929138806118d5565b611914611919926117879261168b565b6115ff565b926118fb565b5083916118cd565b6119308261167a565b906118c1565b505095611615565b5050946112fc565b61194f9061167a565b90611832565b61187061051e91956117e5565b906119db9284611972838c61154e565b5110611a095761198f61199691611989848d61154e565b516115dc565b918a61154e565b528c815b8c816119a6848361154e565b51106119e1576119c491611989846119bd9361154e565b918d61154e565b525b6119cf8d61110c565b90549060031b1c611657565b9061179d565b611a03916119f5846119fc9396959661154e565b51906115dc565b928d61154e565b526119c6565b50611a1e611a17828b61154e565b51856115dc565b82611a29838c61154e565b5261199a565b611a449192503d8088833e6105f78183611333565b9038611738565b6040513d88823e3d90fd5b80611a626001926110bf565b90549060031b1c611a73828861154e565b52016116fb565b80611a866001926112fc565b90549060031b1c611a97828761154e565b52016116e2565b60405190600c54808352826020916020820190600c6000527fdf6966c971051c3d54ec59162606531493a51404a002842f56009d7e5cf4a8c7936000905b828210611af457505050611af292500383611333565b565b855484526001958601958895509381019390910190611adc565b60405190600a54808352826020916020820190600a6000527fc65a7bb8d6351c1cf70c95a316cc6a92839c986682d98bc35f958f4883f9d2a8936000905b828210611b6257505050611af292500383611333565b855484526001958601958895509381019390910190611b4c565b6000908051611b89611b0e565b906004611b94611a9e565b60105460405163b6042cf960e01b815291949192879184919082906001600160a01b03165afa918215611a4b578692611ce1575b509392919085945b828610611be05750505050505090565b909192939495611c9b60019161051e611bf98a8a61154e565b51808b600080831215611ccb5750611787611c179261178c92611cfd565b905b61187c8c61051e611876611c2c836112c5565b90546003949160009190861b1c871315611cbe575061051e611870611c536117d7846112c5565b955b61184d611c61856112a0565b905490831b1c611c7661182161180688611232565b60008112611caf57905b60009181811315611ca757611c95925061168b565b94611269565b96019493929190611bd0565b505094611269565b611cb89061167a565b90611c80565b61187061051e9195611c55565b90611cdb9284611972838c61154e565b90611c19565b611cf69192503d8088833e6105f78183611333565b9038611bc8565b611d069061110c565b90549060031b1c9060008112600014611d5d57611d229061167a565b60011c601401806014116115e95760288111611d55575b60640390606482116115e957606491611d5191611657565b0590565b506028611d39565b509056fe405787fa12a823e0f2b7631cc41b3ba8828b3321ca811111fa75cd3aa3bb5acea26469706673582212202d7c9b11021f013fe66c47ed215b73d8987724c3816019e8ad988f1280762b7764736f6c63430008170033405787fa12a823e0f2b7631cc41b3ba8828b3321ca811111fa75cd3aa3bb5acebb7b4a454dc3493923482f07822329ed19e8244eff582cc204f8554c3620c3fdc65a7bb8d6351c1cf70c95a316cc6a92839c986682d98bc35f958f4883f9d2a8290decd9548b62a8d60345a988386fc84ba6bc95484008f6362f93160ef3e563d7b6990105719101dabeb77144f2a3385c8033acd3af97e9423a695e81ad1eb5f3f7a9fe364faab93b216da50a3214154f22a0a2b415b23a84c8169e8b636ee36e1540171b6c0c960b71a7020d9f60077f6af931a8bbf590da0223dacf75c7afb10e2d527612073b26eecdfd717e6a320cf44b4afac2b0732d9fcbe2b7fa0cf6","opcodes":"PUSH1 0x80 PUSH1 0x40 MSTORE CALLVALUE PUSH3 0xBD2 JUMPI PUSH3 0x2B73 DUP1 CODESIZE SUB DUP1 PUSH3 0x1D DUP2 PUSH3 0xBD7 JUMP JUMPDEST SWAP3 DUP4 CODECOPY DUP2 ADD PUSH2 0x160 DUP3 DUP3 SUB SLT PUSH3 0xBD2 JUMPI DUP2 MLOAD PUSH1 0x1 PUSH1 0x1 PUSH1 0xA0 SHL SUB DUP2 AND SWAP2 SWAP1 DUP3 SWAP1 SUB PUSH3 0xBD2 JUMPI PUSH1 0x20 DUP4 ADD MLOAD PUSH1 0x1 PUSH1 0x1 PUSH1 0x40 SHL SUB DUP2 GT PUSH3 0xBD2 JUMPI DUP2 PUSH3 0x66 SWAP2 DUP6 ADD PUSH3 0xC15 JUMP JUMPDEST PUSH1 0x40 DUP5 ADD MLOAD SWAP1 SWAP4 SWAP1 PUSH1 0x1 PUSH1 0x1 PUSH1 0x40 SHL SUB DUP2 GT PUSH3 0xBD2 JUMPI DUP3 PUSH3 0x8B SWAP2 DUP4 ADD PUSH3 0xC15 JUMP JUMPDEST PUSH1 0x60 DUP3 ADD MLOAD PUSH1 0x1 PUSH1 0x1 PUSH1 0x40 SHL SUB DUP2 GT PUSH3 0xBD2 JUMPI DUP4 PUSH3 0xAD SWAP2 DUP5 ADD PUSH3 0xC15 JUMP JUMPDEST PUSH1 0x80 DUP4 ADD MLOAD PUSH1 0x1 PUSH1 0x1 PUSH1 0x40 SHL SUB DUP2 GT PUSH3 0xBD2 JUMPI DUP5 PUSH3 0xCF SWAP2 DUP6 ADD PUSH3 0xC15 JUMP JUMPDEST PUSH1 0xA0 DUP5 ADD MLOAD PUSH1 0x1 PUSH1 0x1 PUSH1 0x40 SHL SUB DUP2 GT PUSH3 0xBD2 JUMPI DUP6 PUSH3 0xF1 SWAP2 DUP7 ADD PUSH3 0xC15 JUMP JUMPDEST PUSH1 0xC0 DUP6 ADD MLOAD SWAP1 SWAP2 SWAP1 PUSH1 0x1 PUSH1 0x1 PUSH1 0x40 SHL SUB DUP2 GT PUSH3 0xBD2 JUMPI DUP7 PUSH3 0x116 SWAP2 DUP8 ADD PUSH3 0xC15 JUMP JUMPDEST PUSH1 0xE0 DUP7 ADD MLOAD SWAP1 SWAP4 SWAP1 PUSH1 0x1 PUSH1 0x1 PUSH1 0x40 SHL SUB DUP2 GT PUSH3 0xBD2 JUMPI DUP8 PUSH3 0x13B SWAP2 DUP9 ADD PUSH3 0xC15 JUMP JUMPDEST PUSH2 0x100 DUP8 ADD MLOAD SWAP1 SWAP6 SWAP1 PUSH1 0x1 PUSH1 0x1 PUSH1 0x40 SHL SUB DUP2 GT PUSH3 0xBD2 JUMPI DUP9 PUSH3 0x161 SWAP2 DUP10 ADD PUSH3 0xC15 JUMP JUMPDEST PUSH2 0x120 DUP9 ADD MLOAD SWAP1 SWAP8 SWAP1 PUSH1 0x1 PUSH1 0x1 PUSH1 0x40 SHL SUB DUP2 GT PUSH3 0xBD2 JUMPI DUP10 PUSH3 0x187 SWAP2 DUP4 ADD PUSH3 0xC15 JUMP JUMPDEST PUSH2 0x140 DUP3 ADD MLOAD SWAP1 SWAP10 SWAP1 PUSH1 0x1 PUSH1 0x1 PUSH1 0x40 SHL SUB DUP2 GT PUSH3 0xBD2 JUMPI PUSH3 0x1AB SWAP3 ADD PUSH3 0xC15 JUMP JUMPDEST PUSH1 0x1 PUSH1 0x1 PUSH1 0xFF SHL SUB PUSH1 0x3 SSTORE PUSH1 0x32 PUSH1 0x5 SSTORE PUSH1 0xC8 PUSH1 0x6 DUP2 SWAP1 SSTORE PUSH1 0x7 SSTORE PUSH1 0x10 DUP1 SLOAD PUSH1 0x1 PUSH1 0x1 PUSH1 0xA0 SHL SUB NOT AND SWAP1 SWAP11 OR SWAP1 SWAP10 SSTORE DUP10 MLOAD PUSH3 0x1E6 SWAP1 PUSH3 0xC79 JUMP JUMPDEST DUP1 MLOAD SWAP1 PUSH1 0x1 PUSH1 0x1 PUSH1 0x40 SHL SUB DUP3 GT PUSH3 0x890 JUMPI PUSH9 0x10000000000000000 DUP3 GT PUSH3 0x890 JUMPI PUSH1 0x0 SLOAD DUP3 PUSH1 0x0 SSTORE DUP1 DUP4 LT PUSH3 0xB9B JUMPI JUMPDEST POP PUSH1 0x20 ADD PUSH1 0x0 DUP1 MSTORE PUSH1 0x20 PUSH1 0x0 KECCAK256 PUSH1 0x0 JUMPDEST DUP4 DUP2 LT PUSH3 0xB86 JUMPI POP POP POP POP PUSH3 0x241 DUP2 MLOAD PUSH3 0xC79 JUMP JUMPDEST DUP1 MLOAD SWAP1 PUSH1 0x1 PUSH1 0x1 PUSH1 0x40 SHL SUB DUP3 GT PUSH3 0x890 JUMPI PUSH9 0x10000000000000000 DUP3 GT PUSH3 0x890 JUMPI PUSH1 0x1 SLOAD DUP3 PUSH1 0x1 SSTORE DUP1 DUP4 LT PUSH3 0xB4D JUMPI JUMPDEST POP PUSH1 0x20 ADD PUSH1 0x1 PUSH1 0x0 MSTORE PUSH1 0x20 PUSH1 0x0 KECCAK256 PUSH1 0x0 JUMPDEST DUP4 DUP2 LT PUSH3 0xB38 JUMPI POP POP POP POP PUSH3 0x29D DUP11 MLOAD PUSH3 0xC79 JUMP JUMPDEST DUP1 MLOAD SWAP1 PUSH1 0x1 PUSH1 0x1 PUSH1 0x40 SHL SUB DUP3 GT PUSH3 0x890 JUMPI PUSH9 0x10000000000000000 DUP3 GT PUSH3 0x890 JUMPI PUSH1 0x2 SLOAD DUP3 PUSH1 0x2 SSTORE DUP1 DUP4 LT PUSH3 0xAFF JUMPI JUMPDEST POP PUSH1 0x20 ADD PUSH1 0x2 PUSH1 0x0 MSTORE PUSH1 0x20 PUSH1 0x0 KECCAK256 PUSH1 0x0 JUMPDEST DUP4 DUP2 LT PUSH3 0xAEA JUMPI POP POP POP POP PUSH3 0x2F9 DUP3 MLOAD PUSH3 0xC79 JUMP JUMPDEST DUP1 MLOAD SWAP1 PUSH1 0x1 PUSH1 0x1 PUSH1 0x40 SHL SUB DUP3 GT PUSH3 0x890 JUMPI PUSH9 0x10000000000000000 DUP3 GT PUSH3 0x890 JUMPI PUSH1 0x8 SLOAD DUP3 PUSH1 0x8 SSTORE DUP1 DUP4 LT PUSH3 0xAB1 JUMPI JUMPDEST POP PUSH1 0x20 ADD PUSH1 0x8 PUSH1 0x0 MSTORE PUSH1 0x20 PUSH1 0x0 KECCAK256 PUSH1 0x0 JUMPDEST DUP4 DUP2 LT PUSH3 0xA9C JUMPI POP POP POP POP PUSH3 0x355 DUP4 MLOAD PUSH3 0xC79 JUMP JUMPDEST DUP1 MLOAD SWAP1 PUSH1 0x1 PUSH1 0x1 PUSH1 0x40 SHL SUB DUP3 GT PUSH3 0x890 JUMPI PUSH9 0x10000000000000000 DUP3 GT PUSH3 0x890 JUMPI PUSH1 0x9 SLOAD DUP3 PUSH1 0x9 SSTORE DUP1 DUP4 LT PUSH3 0xA63 JUMPI JUMPDEST POP PUSH1 0x20 ADD PUSH1 0x9 PUSH1 0x0 MSTORE PUSH1 0x20 PUSH1 0x0 KECCAK256 PUSH1 0x0 JUMPDEST DUP4 DUP2 LT PUSH3 0xA4E JUMPI POP POP POP POP PUSH3 0x3B1 DUP5 MLOAD PUSH3 0xC79 JUMP JUMPDEST DUP1 MLOAD SWAP1 PUSH1 0x1 PUSH1 0x1 PUSH1 0x40 SHL SUB DUP3 GT PUSH3 0x890 JUMPI PUSH9 0x10000000000000000 DUP3 GT PUSH3 0x890 JUMPI PUSH1 0xA SLOAD DUP3 PUSH1 0xA SSTORE DUP1 DUP4 LT PUSH3 0xA15 JUMPI JUMPDEST POP PUSH1 0x20 ADD PUSH1 0xA PUSH1 0x0 MSTORE PUSH1 0x20 PUSH1 0x0 KECCAK256 PUSH1 0x0 JUMPDEST DUP4 DUP2 LT PUSH3 0xA00 JUMPI POP POP POP POP PUSH3 0x40D DUP6 MLOAD PUSH3 0xC79 JUMP JUMPDEST DUP1 MLOAD SWAP1 PUSH1 0x1 PUSH1 0x1 PUSH1 0x40 SHL SUB DUP3 GT PUSH3 0x890 JUMPI PUSH9 0x10000000000000000 DUP3 GT PUSH3 0x890 JUMPI PUSH1 0xB SLOAD DUP3 PUSH1 0xB SSTORE DUP1 DUP4 LT PUSH3 0x9B6 JUMPI JUMPDEST POP PUSH1 0x20 ADD PUSH1 0xB PUSH1 0x0 MSTORE PUSH1 0x20 PUSH1 0x0 KECCAK256 PUSH1 0x0 JUMPDEST DUP4 DUP2 LT PUSH3 0x9A1 JUMPI POP POP POP POP PUSH3 0x469 DUP7 MLOAD PUSH3 0xC79 JUMP JUMPDEST DUP1 MLOAD SWAP1 PUSH1 0x1 PUSH1 0x1 PUSH1 0x40 SHL SUB DUP3 GT PUSH3 0x890 JUMPI PUSH9 0x10000000000000000 DUP3 GT PUSH3 0x890 JUMPI PUSH1 0xC SLOAD DUP3 PUSH1 0xC SSTORE DUP1 DUP4 LT PUSH3 0x957 JUMPI JUMPDEST POP PUSH1 0x20 ADD PUSH1 0xC PUSH1 0x0 MSTORE PUSH1 0x20 PUSH1 0x0 KECCAK256 PUSH1 0x0 JUMPDEST DUP4 DUP2 LT PUSH3 0x942 JUMPI POP POP POP POP PUSH3 0x4C5 DUP8 MLOAD PUSH3 0xC79 JUMP JUMPDEST DUP1 MLOAD SWAP1 PUSH1 0x1 PUSH1 0x1 PUSH1 0x40 SHL SUB DUP3 GT PUSH3 0x890 JUMPI PUSH9 0x10000000000000000 DUP3 GT PUSH3 0x890 JUMPI PUSH1 0xD SLOAD DUP3 PUSH1 0xD SSTORE DUP1 DUP4 LT PUSH3 0x909 JUMPI JUMPDEST POP PUSH1 0x20 ADD PUSH1 0xD PUSH1 0x0 MSTORE PUSH1 0x20 PUSH1 0x0 KECCAK256 PUSH1 0x0 JUMPDEST DUP4 DUP2 LT PUSH3 0x8F4 JUMPI POP POP POP POP PUSH3 0x521 DUP9 MLOAD PUSH3 0xC79 JUMP JUMPDEST DUP1 MLOAD SWAP1 PUSH1 0x1 PUSH1 0x1 PUSH1 0x40 SHL SUB DUP3 GT PUSH3 0x890 JUMPI PUSH9 0x10000000000000000 DUP3 GT PUSH3 0x890 JUMPI PUSH1 0xE SLOAD DUP3 PUSH1 0xE SSTORE DUP1 DUP4 LT PUSH3 0x8BB JUMPI JUMPDEST POP PUSH1 0x20 ADD PUSH1 0xE PUSH1 0x0 MSTORE PUSH1 0x20 PUSH1 0x0 KECCAK256 PUSH1 0x0 JUMPDEST DUP4 DUP2 LT PUSH3 0x8A6 JUMPI POP POP POP POP PUSH3 0x57D DUP10 MLOAD PUSH3 0xC79 JUMP JUMPDEST DUP1 MLOAD SWAP1 PUSH1 0x1 PUSH1 0x1 PUSH1 0x40 SHL SUB DUP3 GT PUSH3 0x890 JUMPI PUSH9 0x10000000000000000 DUP3 GT PUSH3 0x890 JUMPI PUSH1 0xF SLOAD DUP3 PUSH1 0xF SSTORE DUP1 DUP4 LT PUSH3 0x846 JUMPI JUMPDEST POP PUSH1 0x20 ADD PUSH1 0xF PUSH1 0x0 MSTORE PUSH1 0x20 PUSH1 0x0 KECCAK256 PUSH1 0x0 JUMPDEST DUP4 DUP2 LT PUSH3 0x831 JUMPI POP POP POP POP PUSH1 0x0 JUMPDEST DUP11 MLOAD DUP2 LT ISZERO PUSH3 0x821 JUMPI PUSH3 0x5E6 DUP2 DUP13 PUSH3 0xCA6 JUMP JUMPDEST MLOAD PUSH1 0x0 SLOAD DUP3 LT ISZERO PUSH3 0x80B JUMPI PUSH1 0x0 DUP1 MSTORE PUSH1 0x0 DUP1 MLOAD PUSH1 0x20 PUSH3 0x2AD3 DUP4 CODECOPY DUP2 MLOAD SWAP2 MSTORE DUP3 ADD SSTORE PUSH3 0x615 DUP2 DUP13 PUSH3 0xCA6 JUMP JUMPDEST MLOAD PUSH1 0x2 SLOAD DUP3 LT ISZERO PUSH3 0x80B JUMPI PUSH1 0x2 PUSH1 0x0 MSTORE PUSH1 0x0 DUP1 MLOAD PUSH1 0x20 PUSH3 0x2A73 DUP4 CODECOPY DUP2 MLOAD SWAP2 MSTORE DUP3 ADD SSTORE PUSH3 0x645 DUP2 DUP4 PUSH3 0xCA6 JUMP JUMPDEST MLOAD PUSH1 0x1 SLOAD DUP3 LT ISZERO PUSH3 0x80B JUMPI PUSH1 0x1 PUSH1 0x0 MSTORE PUSH1 0x0 DUP1 MLOAD PUSH1 0x20 PUSH3 0x2B53 DUP4 CODECOPY DUP2 MLOAD SWAP2 MSTORE DUP3 ADD SSTORE PUSH3 0x675 DUP2 DUP5 PUSH3 0xCA6 JUMP JUMPDEST MLOAD PUSH1 0x8 SLOAD DUP3 LT ISZERO PUSH3 0x80B JUMPI PUSH1 0x8 PUSH1 0x0 MSTORE PUSH1 0x0 DUP1 MLOAD PUSH1 0x20 PUSH3 0x2B13 DUP4 CODECOPY DUP2 MLOAD SWAP2 MSTORE DUP3 ADD SSTORE PUSH3 0x6A5 DUP2 DUP6 PUSH3 0xCA6 JUMP JUMPDEST MLOAD PUSH1 0x9 SLOAD DUP3 LT ISZERO PUSH3 0x80B JUMPI PUSH1 0x9 PUSH1 0x0 MSTORE PUSH1 0x0 DUP1 MLOAD PUSH1 0x20 PUSH3 0x2B33 DUP4 CODECOPY DUP2 MLOAD SWAP2 MSTORE DUP3 ADD SSTORE PUSH3 0x6D5 DUP2 DUP7 PUSH3 0xCA6 JUMP JUMPDEST MLOAD PUSH1 0xA SLOAD DUP3 LT ISZERO PUSH3 0x80B JUMPI PUSH1 0xA PUSH1 0x0 MSTORE PUSH1 0x0 DUP1 MLOAD PUSH1 0x20 PUSH3 0x2AB3 DUP4 CODECOPY DUP2 MLOAD SWAP2 MSTORE DUP3 ADD SSTORE PUSH3 0x705 DUP2 DUP8 PUSH3 0xCA6 JUMP JUMPDEST MLOAD PUSH1 0xB SLOAD DUP3 LT ISZERO PUSH3 0x80B JUMPI PUSH1 0xB PUSH1 0x0 MSTORE PUSH32 0x175B7A638427703F0DBE7BB9BBF987A2551717B34E79F33B5B1008D1FA01DB9 DUP3 ADD SSTORE PUSH3 0x746 DUP2 DUP9 PUSH3 0xCA6 JUMP JUMPDEST MLOAD PUSH1 0xC SLOAD DUP3 LT ISZERO PUSH3 0x80B JUMPI PUSH1 0xC PUSH1 0x0 MSTORE PUSH32 0xDF6966C971051C3D54EC59162606531493A51404A002842F56009D7E5CF4A8C7 DUP3 ADD SSTORE PUSH3 0x787 DUP2 DUP10 PUSH3 0xCA6 JUMP JUMPDEST MLOAD PUSH1 0xD SLOAD DUP3 LT ISZERO PUSH3 0x80B JUMPI PUSH1 0xD PUSH1 0x0 MSTORE PUSH1 0x0 DUP1 MLOAD PUSH1 0x20 PUSH3 0x2AF3 DUP4 CODECOPY DUP2 MLOAD SWAP2 MSTORE DUP3 ADD SSTORE PUSH3 0x7B7 DUP2 DUP11 PUSH3 0xCA6 JUMP JUMPDEST MLOAD PUSH1 0xE SLOAD DUP3 LT ISZERO PUSH3 0x80B JUMPI PUSH1 0xE PUSH1 0x0 MSTORE PUSH1 0x0 DUP1 MLOAD PUSH1 0x20 PUSH3 0x2A93 DUP4 CODECOPY DUP2 MLOAD SWAP2 MSTORE DUP3 ADD SSTORE PUSH3 0x7E7 DUP2 DUP12 PUSH3 0xCA6 JUMP JUMPDEST MLOAD SWAP1 PUSH1 0xF SLOAD DUP2 LT ISZERO PUSH3 0x80B JUMPI PUSH1 0x1 SWAP2 PUSH1 0xF PUSH1 0x0 MSTORE DUP2 PUSH1 0x20 PUSH1 0x0 KECCAK256 ADD SSTORE ADD PUSH3 0x5D0 JUMP JUMPDEST PUSH4 0x4E487B71 PUSH1 0xE0 SHL PUSH1 0x0 MSTORE PUSH1 0x32 PUSH1 0x4 MSTORE PUSH1 0x24 PUSH1 0x0 REVERT JUMPDEST PUSH1 0x40 MLOAD PUSH2 0x1DB7 SWAP1 DUP2 PUSH3 0xCBC DUP3 CODECOPY RETURN JUMPDEST PUSH1 0x1 SWAP1 PUSH1 0x20 DUP5 MLOAD SWAP5 ADD SWAP4 DUP2 DUP5 ADD SSTORE ADD PUSH3 0x5C1 JUMP JUMPDEST PUSH1 0xF PUSH1 0x0 MSTORE PUSH32 0x8D1108E10BCB7C27DDDFC02ED9D693A074039D026CF4EA4240B40F7D581AC802 SWAP1 DUP4 DUP3 ADD JUMPDEST DUP2 DUP4 ADD DUP2 LT PUSH3 0x883 JUMPI POP POP PUSH3 0x5B0 JUMP JUMPDEST PUSH1 0x0 DUP2 SSTORE PUSH1 0x1 ADD PUSH3 0x871 JUMP JUMPDEST PUSH4 0x4E487B71 PUSH1 0xE0 SHL PUSH1 0x0 MSTORE PUSH1 0x41 PUSH1 0x4 MSTORE PUSH1 0x24 PUSH1 0x0 REVERT JUMPDEST PUSH1 0x1 SWAP1 PUSH1 0x20 DUP5 MLOAD SWAP5 ADD SWAP4 DUP2 DUP5 ADD SSTORE ADD PUSH3 0x565 JUMP JUMPDEST PUSH1 0xE PUSH1 0x0 MSTORE PUSH1 0x0 DUP1 MLOAD PUSH1 0x20 PUSH3 0x2A93 DUP4 CODECOPY DUP2 MLOAD SWAP2 MSTORE SWAP1 DUP4 DUP3 ADD JUMPDEST DUP2 DUP4 ADD DUP2 LT PUSH3 0x8E7 JUMPI POP POP PUSH3 0x554 JUMP JUMPDEST PUSH1 0x0 DUP2 SSTORE PUSH1 0x1 ADD PUSH3 0x8D5 JUMP JUMPDEST PUSH1 0x1 SWAP1 PUSH1 0x20 DUP5 MLOAD SWAP5 ADD SWAP4 DUP2 DUP5 ADD SSTORE ADD PUSH3 0x509 JUMP JUMPDEST PUSH1 0xD PUSH1 0x0 MSTORE PUSH1 0x0 DUP1 MLOAD PUSH1 0x20 PUSH3 0x2AF3 DUP4 CODECOPY DUP2 MLOAD SWAP2 MSTORE SWAP1 DUP4 DUP3 ADD JUMPDEST DUP2 DUP4 ADD DUP2 LT PUSH3 0x935 JUMPI POP POP PUSH3 0x4F8 JUMP JUMPDEST PUSH1 0x0 DUP2 SSTORE PUSH1 0x1 ADD PUSH3 0x923 JUMP JUMPDEST PUSH1 0x1 SWAP1 PUSH1 0x20 DUP5 MLOAD SWAP5 ADD SWAP4 DUP2 DUP5 ADD SSTORE ADD PUSH3 0x4AD JUMP JUMPDEST PUSH1 0xC PUSH1 0x0 MSTORE PUSH32 0xDF6966C971051C3D54EC59162606531493A51404A002842F56009D7E5CF4A8C7 SWAP1 DUP4 DUP3 ADD JUMPDEST DUP2 DUP4 ADD DUP2 LT PUSH3 0x994 JUMPI POP POP PUSH3 0x49C JUMP JUMPDEST PUSH1 0x0 DUP2 SSTORE PUSH1 0x1 ADD PUSH3 0x982 JUMP JUMPDEST PUSH1 0x1 SWAP1 PUSH1 0x20 DUP5 MLOAD SWAP5 ADD SWAP4 DUP2 DUP5 ADD SSTORE ADD PUSH3 0x451 JUMP JUMPDEST PUSH1 0xB PUSH1 0x0 MSTORE PUSH32 0x175B7A638427703F0DBE7BB9BBF987A2551717B34E79F33B5B1008D1FA01DB9 SWAP1 DUP4 DUP3 ADD JUMPDEST DUP2 DUP4 ADD DUP2 LT PUSH3 0x9F3 JUMPI POP POP PUSH3 0x440 JUMP JUMPDEST PUSH1 0x0 DUP2 SSTORE PUSH1 0x1 ADD PUSH3 0x9E1 JUMP JUMPDEST PUSH1 0x1 SWAP1 PUSH1 0x20 DUP5 MLOAD SWAP5 ADD SWAP4 DUP2 DUP5 ADD SSTORE ADD PUSH3 0x3F5 JUMP JUMPDEST PUSH1 0xA PUSH1 0x0 MSTORE PUSH1 0x0 DUP1 MLOAD PUSH1 0x20 PUSH3 0x2AB3 DUP4 CODECOPY DUP2 MLOAD SWAP2 MSTORE SWAP1 DUP4 DUP3 ADD JUMPDEST DUP2 DUP4 ADD DUP2 LT PUSH3 0xA41 JUMPI POP POP PUSH3 0x3E4 JUMP JUMPDEST PUSH1 0x0 DUP2 SSTORE PUSH1 0x1 ADD PUSH3 0xA2F JUMP JUMPDEST PUSH1 0x1 SWAP1 PUSH1 0x20 DUP5 MLOAD SWAP5 ADD SWAP4 DUP2 DUP5 ADD SSTORE ADD PUSH3 0x399 JUMP JUMPDEST PUSH1 0x9 PUSH1 0x0 MSTORE PUSH1 0x0 DUP1 MLOAD PUSH1 0x20 PUSH3 0x2B33 DUP4 CODECOPY DUP2 MLOAD SWAP2 MSTORE SWAP1 DUP4 DUP3 ADD JUMPDEST DUP2 DUP4 ADD DUP2 LT PUSH3 0xA8F JUMPI POP POP PUSH3 0x388 JUMP JUMPDEST PUSH1 0x0 DUP2 SSTORE PUSH1 0x1 ADD PUSH3 0xA7D JUMP JUMPDEST PUSH1 0x1 SWAP1 PUSH1 0x20 DUP5 MLOAD SWAP5 ADD SWAP4 DUP2 DUP5 ADD SSTORE ADD PUSH3 0x33D JUMP JUMPDEST PUSH1 0x8 PUSH1 0x0 MSTORE PUSH1 0x0 DUP1 MLOAD PUSH1 0x20 PUSH3 0x2B13 DUP4 CODECOPY DUP2 MLOAD SWAP2 MSTORE SWAP1 DUP4 DUP3 ADD JUMPDEST DUP2 DUP4 ADD DUP2 LT PUSH3 0xADD JUMPI POP POP PUSH3 0x32C JUMP JUMPDEST PUSH1 0x0 DUP2 SSTORE PUSH1 0x1 ADD PUSH3 0xACB JUMP JUMPDEST PUSH1 0x1 SWAP1 PUSH1 0x20 DUP5 MLOAD SWAP5 ADD SWAP4 DUP2 DUP5 ADD SSTORE ADD PUSH3 0x2E1 JUMP JUMPDEST PUSH1 0x2 PUSH1 0x0 MSTORE PUSH1 0x0 DUP1 MLOAD PUSH1 0x20 PUSH3 0x2A73 DUP4 CODECOPY DUP2 MLOAD SWAP2 MSTORE SWAP1 DUP4 DUP3 ADD JUMPDEST DUP2 DUP4 ADD DUP2 LT PUSH3 0xB2B JUMPI POP POP PUSH3 0x2D0 JUMP JUMPDEST PUSH1 0x0 DUP2 SSTORE PUSH1 0x1 ADD PUSH3 0xB19 JUMP JUMPDEST PUSH1 0x1 SWAP1 PUSH1 0x20 DUP5 MLOAD SWAP5 ADD SWAP4 DUP2 DUP5 ADD SSTORE ADD PUSH3 0x285 JUMP JUMPDEST PUSH1 0x1 PUSH1 0x0 MSTORE PUSH1 0x0 DUP1 MLOAD PUSH1 0x20 PUSH3 0x2B53 DUP4 CODECOPY DUP2 MLOAD SWAP2 MSTORE SWAP1 DUP4 DUP3 ADD JUMPDEST DUP2 DUP4 ADD DUP2 LT PUSH3 0xB79 JUMPI POP POP PUSH3 0x274 JUMP JUMPDEST PUSH1 0x0 DUP2 SSTORE PUSH1 0x1 ADD PUSH3 0xB67 JUMP JUMPDEST PUSH1 0x1 SWAP1 PUSH1 0x20 DUP5 MLOAD SWAP5 ADD SWAP4 DUP2 DUP5 ADD SSTORE ADD PUSH3 0x229 JUMP JUMPDEST PUSH1 0x0 DUP1 MSTORE PUSH1 0x0 DUP1 MLOAD PUSH1 0x20 PUSH3 0x2AD3 DUP4 CODECOPY DUP2 MLOAD SWAP2 MSTORE SWAP1 DUP2 ADD SWAP1 DUP4 ADD JUMPDEST DUP2 DUP2 LT PUSH3 0xBC5 JUMPI POP PUSH3 0x219 JUMP JUMPDEST PUSH1 0x0 DUP2 SSTORE PUSH1 0x1 ADD PUSH3 0xBB6 JUMP JUMPDEST PUSH1 0x0 DUP1 REVERT JUMPDEST PUSH1 0x40 MLOAD SWAP2 SWAP1 PUSH1 0x1F ADD PUSH1 0x1F NOT AND DUP3 ADD PUSH1 0x1 PUSH1 0x1 PUSH1 0x40 SHL SUB DUP2 GT DUP4 DUP3 LT OR PUSH3 0x890 JUMPI PUSH1 0x40 MSTORE JUMP JUMPDEST PUSH1 0x1 PUSH1 0x1 PUSH1 0x40 SHL SUB DUP2 GT PUSH3 0x890 JUMPI PUSH1 0x5 SHL PUSH1 0x20 ADD SWAP1 JUMP JUMPDEST SWAP1 DUP1 PUSH1 0x1F DUP4 ADD SLT ISZERO PUSH3 0xBD2 JUMPI DUP2 MLOAD SWAP1 PUSH1 0x20 SWAP2 PUSH3 0xC3D PUSH3 0xC37 DUP3 PUSH3 0xBFD JUMP JUMPDEST PUSH3 0xBD7 JUMP JUMPDEST SWAP4 PUSH1 0x20 DUP1 DUP7 DUP5 DUP2 MSTORE ADD SWAP3 PUSH1 0x5 SHL DUP3 ADD ADD SWAP3 DUP4 GT PUSH3 0xBD2 JUMPI PUSH1 0x20 ADD SWAP1 JUMPDEST DUP3 DUP3 LT PUSH3 0xC69 JUMPI POP POP POP POP SWAP1 JUMP JUMPDEST DUP2 MLOAD DUP2 MSTORE SWAP1 DUP4 ADD SWAP1 DUP4 ADD PUSH3 0xC5A JUMP JUMPDEST SWAP1 PUSH3 0xC89 PUSH3 0xC37 DUP4 PUSH3 0xBFD JUMP JUMPDEST DUP3 DUP2 MSTORE DUP1 SWAP3 PUSH3 0xC9C PUSH1 0x1F NOT SWAP2 PUSH3 0xBFD JUMP JUMPDEST ADD SWAP1 PUSH1 0x20 CALLDATASIZE SWAP2 ADD CALLDATACOPY JUMP JUMPDEST DUP1 MLOAD DUP3 LT ISZERO PUSH3 0x80B JUMPI PUSH1 0x20 SWAP2 PUSH1 0x5 SHL ADD ADD SWAP1 JUMP INVALID PUSH1 0x80 PUSH1 0x40 DUP2 DUP2 MSTORE PUSH1 0x4 DUP1 CALLDATASIZE LT ISZERO PUSH2 0x15 JUMPI PUSH1 0x0 DUP1 REVERT JUMPDEST PUSH1 0x0 SWAP3 DUP4 CALLDATALOAD PUSH1 0xE0 SHR SWAP1 DUP2 PUSH4 0x3BC4A86 EQ PUSH2 0x1099 JUMPI POP DUP1 PUSH4 0x4D01942 EQ PUSH2 0x106F JUMPI DUP1 PUSH4 0x16B51928 EQ PUSH2 0x1045 JUMPI DUP1 PUSH4 0x205C9CC7 EQ PUSH2 0x1026 JUMPI DUP1 PUSH4 0x300AEE14 EQ PUSH2 0x100B JUMPI DUP1 PUSH4 0x364132D9 EQ PUSH2 0xFF5 JUMPI DUP1 PUSH4 0x375A105E EQ PUSH2 0xFCB JUMPI DUP1 PUSH4 0x4485BB55 EQ PUSH2 0xF51 JUMPI DUP1 PUSH4 0x48E257CB EQ PUSH2 0xF32 JUMPI DUP1 PUSH4 0x4D985AE4 EQ PUSH2 0xF13 JUMPI DUP1 PUSH4 0x4EB274FF EQ PUSH2 0xEE9 JUMPI DUP1 PUSH4 0x5F57697C EQ PUSH2 0xECA JUMPI DUP1 PUSH4 0x6F240774 EQ PUSH2 0xEA0 JUMPI DUP1 PUSH4 0x7398AB18 EQ PUSH2 0xE27 JUMPI DUP1 PUSH4 0x78B6D7D4 EQ PUSH2 0xDFD JUMPI DUP1 PUSH4 0x85C96E66 EQ PUSH2 0xDDF JUMPI DUP1 PUSH4 0x90CCFA0F EQ PUSH2 0xDB6 JUMPI DUP1 PUSH4 0x957B4056 EQ PUSH2 0xD8C JUMPI DUP1 PUSH4 0x96D14DA6 EQ PUSH2 0xD62 JUMPI DUP1 PUSH4 0x973B9CC1 EQ PUSH2 0x9C2 JUMPI DUP1 PUSH4 0x983BEDDA EQ PUSH2 0x947 JUMPI DUP1 PUSH4 0x9B14D83B EQ PUSH2 0x8CC JUMPI DUP1 PUSH4 0xA86853D5 EQ PUSH2 0x8A2 JUMPI DUP1 PUSH4 0xAB1BBECA EQ PUSH2 0x878 JUMPI DUP1 PUSH4 0xB27966E6 EQ PUSH2 0x7FD JUMPI DUP1 PUSH4 0xB6CE6709 EQ PUSH2 0x7AD JUMPI DUP1 PUSH4 0xC40000D4 EQ PUSH2 0x720 JUMPI DUP1 PUSH4 0xD0C6C7AF EQ PUSH2 0x703 JUMPI DUP1 PUSH4 0xE329143F EQ PUSH2 0x6B3 JUMPI DUP1 PUSH4 0xE7D46385 EQ PUSH2 0x67D JUMPI DUP1 PUSH4 0xF6451C0A EQ PUSH2 0x239 JUMPI DUP1 PUSH4 0xF7A95A9E EQ PUSH2 0x210 JUMPI DUP1 PUSH4 0xFB722277 EQ PUSH2 0x1D7 JUMPI PUSH4 0xFF9C446F EQ PUSH2 0x199 JUMPI PUSH1 0x0 DUP1 REVERT JUMPDEST CALLVALUE PUSH2 0x1D3 JUMPI PUSH1 0x20 CALLDATASIZE PUSH1 0x3 NOT ADD SLT PUSH2 0x1D3 JUMPI CALLDATALOAD SWAP2 PUSH1 0x11 SLOAD DUP4 LT ISZERO PUSH2 0x1D0 JUMPI POP PUSH2 0x1C2 PUSH1 0x20 SWAP3 PUSH2 0x12FC JUMP JUMPDEST SWAP2 SWAP1 SLOAD SWAP1 MLOAD SWAP2 PUSH1 0x3 SHL SHR DUP2 MSTORE RETURN JUMPDEST DUP1 REVERT JUMPDEST DUP3 DUP1 REVERT JUMPDEST POP POP CALLVALUE PUSH2 0x20C JUMPI DUP2 PUSH1 0x3 NOT CALLDATASIZE ADD SLT PUSH2 0x20C JUMPI PUSH2 0x208 SWAP1 PUSH2 0x1F5 PUSH2 0x1B0E JUMP JUMPDEST SWAP1 MLOAD SWAP2 DUP3 SWAP2 PUSH1 0x20 DUP4 MSTORE PUSH1 0x20 DUP4 ADD SWAP1 PUSH2 0x1408 JUMP JUMPDEST SUB SWAP1 RETURN JUMPDEST POP DUP1 REVERT JUMPDEST POP CALLVALUE PUSH2 0x1D3 JUMPI PUSH1 0x20 CALLDATASIZE PUSH1 0x3 NOT ADD SLT PUSH2 0x1D3 JUMPI CALLDATALOAD SWAP2 DUP1 SLOAD DUP4 LT ISZERO PUSH2 0x1D0 JUMPI POP PUSH2 0x1C2 PUSH1 0x20 SWAP3 PUSH2 0x11E8 JUMP JUMPDEST POP CALLVALUE PUSH2 0x1D3 JUMPI DUP3 PUSH1 0x3 NOT CALLDATASIZE ADD SLT PUSH2 0x1D3 JUMPI PUSH1 0x10 SLOAD DUP3 MLOAD PUSH4 0x2989B4B PUSH1 0xE6 SHL DUP2 MSTORE SWAP3 SWAP1 PUSH1 0x20 SWAP1 DUP6 SWAP1 PUSH1 0x1 PUSH1 0x1 PUSH1 0xA0 SHL SUB AND DUP3 DUP7 DUP7 DUP2 DUP5 GAS STATICCALL DUP1 ISZERO PUSH2 0x673 JUMPI DUP6 SWAP7 DUP4 SWAP7 SWAP6 SWAP7 SWAP2 PUSH2 0x642 JUMPI JUMPDEST POP DUP4 DUP6 SLOAD DUP3 GT PUSH2 0x610 JUMPI JUMPDEST POP POP DUP5 MLOAD PUSH4 0xB6042CF9 PUSH1 0xE0 SHL DUP2 MSTORE SWAP6 DUP7 SWAP2 DUP3 SWAP1 GAS STATICCALL SWAP4 DUP5 ISZERO PUSH2 0x606 JUMPI DUP6 SWAP5 PUSH2 0x5E2 JUMPI JUMPDEST POP DUP4 MLOAD DUP6 SLOAD SUB PUSH2 0x5AD JUMPI DUP5 JUMPDEST DUP6 SLOAD DUP2 LT ISZERO PUSH2 0x5A9 JUMPI PUSH2 0x2CE DUP2 PUSH2 0x11E8 JUMP JUMPDEST SWAP1 SLOAD DUP6 MLOAD TIMESTAMP DUP6 DUP3 ADD SWAP1 DUP2 MSTORE PUSH1 0x20 DUP2 ADD DUP6 SWAP1 MSTORE PUSH1 0x3 SWAP4 DUP5 SHL SWAP3 SWAP1 SWAP3 SHR PUSH1 0x40 DUP4 ADD MSTORE DUP1 PUSH1 0x60 DUP4 ADD SUB SWAP1 PUSH2 0x307 PUSH1 0x1F NOT SWAP3 DUP4 DUP2 ADD DUP4 MSTORE DUP3 PUSH2 0x1333 JUMP JUMPDEST PUSH1 0x64 SWAP3 DUP4 SWAP2 MLOAD SWAP1 KECCAK256 MOD SWAP1 PUSH1 0x1 SWAP2 DUP3 DUP7 ADD DUP1 DUP8 GT PUSH2 0x596 JUMPI DUP5 PUSH1 0x65 SWAP2 DUP12 PUSH2 0x364 DUP12 PUSH2 0x358 PUSH2 0x333 DUP14 PUSH2 0x11B1 JUMP JUMPDEST SWAP1 SLOAD SWAP1 DUP14 SHL SHR SWAP4 MLOAD SWAP4 DUP5 SWAP3 DUP4 ADD SWAP6 TIMESTAMP DUP8 SWAP2 PUSH1 0x60 SWAP4 SWAP2 DUP4 MSTORE PUSH1 0x20 DUP4 ADD MSTORE PUSH1 0x40 DUP3 ADD MSTORE ADD SWAP1 JUMP JUMPDEST SUB DUP8 DUP2 ADD DUP4 MSTORE DUP3 PUSH2 0x1333 JUMP JUMPDEST MLOAD SWAP1 KECCAK256 MOD SWAP3 PUSH2 0x372 DUP9 PUSH2 0x11B1 JUMP JUMPDEST SWAP1 SLOAD SWAP1 DUP9 SHL SHR SWAP1 PUSH2 0x3AB DUP13 MLOAD SWAP2 DUP3 PUSH2 0x39F DUP14 DUP3 ADD SWAP6 DUP14 TIMESTAMP DUP9 SWAP2 PUSH1 0x60 SWAP4 SWAP2 DUP4 MSTORE PUSH1 0x20 DUP4 ADD MSTORE PUSH1 0x40 DUP3 ADD MSTORE ADD SWAP1 JUMP JUMPDEST SUB SWAP1 DUP2 ADD DUP4 MSTORE DUP3 PUSH2 0x1333 JUMP JUMPDEST MLOAD SWAP1 KECCAK256 MOD SWAP3 PUSH1 0x31 NOT DUP5 ADD SWAP4 DUP5 SGT AND PUSH2 0x581 JUMPI SWAP2 PUSH2 0x466 PUSH2 0x46B SWAP3 DUP6 PUSH2 0x456 DUP9 PUSH2 0x451 DUP16 DUP5 SWAP10 DUP4 SWAP12 PUSH2 0x456 PUSH1 0x1 SWAP16 SWAP15 SWAP4 DUP16 PUSH2 0x448 DUP2 PUSH2 0x430 PUSH2 0x41A DUP3 PUSH2 0x414 PUSH2 0x45D SWAP12 PUSH2 0x3F9 PUSH2 0x451 SWAP9 PUSH2 0x12A0 JUMP JUMPDEST SWAP1 SLOAD SWAP1 DUP3 SHL SHR SWAP1 PUSH2 0x409 DUP5 PUSH2 0x11E8 JUMP JUMPDEST SWAP1 SLOAD SWAP2 SHL SHR SWAP1 PUSH2 0x168B JUMP JUMPDEST SWAP7 PUSH2 0x154E JUMP JUMPDEST MLOAD PUSH2 0x424 DUP4 PUSH2 0x11E8 JUMP JUMPDEST SWAP1 SLOAD SWAP1 DUP14 SHL SHR SWAP1 PUSH2 0x168B JUMP JUMPDEST SWAP10 PUSH2 0x43D PUSH1 0x5 SLOAD SWAP3 PUSH2 0x11B1 JUMP JUMPDEST SWAP1 SLOAD SWAP2 SHL SHR SWAP1 PUSH2 0x1657 JUMP JUMPDEST SWAP5 PUSH1 0x6 SLOAD PUSH2 0x1657 JUMP JUMPDEST PUSH2 0x1657 JUMP JUMPDEST SDIV SWAP1 PUSH2 0x16B1 JUMP JUMPDEST SWAP5 PUSH1 0x7 SLOAD PUSH2 0x1657 JUMP JUMPDEST PUSH2 0x16B1 JUMP JUMPDEST SDIV PUSH2 0x48F PUSH2 0x478 DUP5 PUSH2 0x11B1 JUMP JUMPDEST DUP2 SWAP4 SWAP2 SLOAD SWAP1 PUSH1 0x3 SHL SWAP2 DUP3 SHL SWAP2 PUSH1 0x0 NOT SWAP1 SHL NOT AND OR SWAP1 JUMP JUMPDEST SWAP1 SSTORE PUSH2 0x4B8 PUSH2 0x49D DUP4 PUSH2 0x11E8 JUMP JUMPDEST SWAP1 SLOAD SWAP1 DUP4 SHL SHR PUSH2 0x4AC DUP5 PUSH2 0x11B1 JUMP JUMPDEST SWAP1 SLOAD SWAP1 DUP5 SHL SHR SWAP1 PUSH2 0x16B1 JUMP JUMPDEST PUSH2 0x4C4 PUSH2 0x478 DUP5 PUSH2 0x11E8 JUMP JUMPDEST SWAP1 SSTORE PUSH2 0x4F5 PUSH2 0x4D2 DUP4 PUSH2 0x12A0 JUMP JUMPDEST SWAP1 SLOAD SWAP1 DUP4 SHL SHR PUSH2 0x4EF PUSH2 0x4E4 DUP6 PUSH2 0x1143 JUMP JUMPDEST SWAP1 SLOAD SWAP1 DUP6 SHL SHR PUSH2 0x15FF JUMP JUMPDEST SWAP1 PUSH2 0x168B JUMP JUMPDEST PUSH2 0x524 PUSH2 0x501 DUP5 PUSH2 0x12A0 JUMP JUMPDEST SWAP1 SLOAD SWAP1 DUP5 SHL SHR PUSH2 0x51E PUSH2 0x513 DUP7 PUSH2 0x1232 JUMP JUMPDEST SWAP1 SLOAD SWAP1 DUP7 SHL SHR PUSH2 0x15FF JUMP JUMPDEST SWAP1 PUSH2 0x16B1 JUMP JUMPDEST SWAP2 DUP2 DUP4 SWAP3 PUSH2 0x531 DUP7 PUSH2 0x11E8 JUMP JUMPDEST SWAP1 SLOAD SWAP1 DUP5 SHL SHR SLT PUSH2 0x56D JUMPI JUMPDEST POP PUSH2 0x547 DUP5 PUSH2 0x11E8 JUMP JUMPDEST SWAP1 SLOAD SWAP2 SHL SHR SGT PUSH2 0x559 JUMPI JUMPDEST POP ADD PUSH2 0x2BC JUMP JUMPDEST PUSH2 0x565 PUSH2 0x478 DUP4 PUSH2 0x11E8 JUMP JUMPDEST SWAP1 SSTORE CODESIZE PUSH2 0x552 JUMP JUMPDEST PUSH2 0x579 PUSH2 0x478 DUP7 PUSH2 0x11E8 JUMP JUMPDEST SWAP1 SSTORE CODESIZE PUSH2 0x53D JUMP JUMPDEST PUSH1 0x11 DUP9 PUSH4 0x4E487B71 PUSH1 0xE0 SHL PUSH1 0x0 MSTORE MSTORE PUSH1 0x24 PUSH1 0x0 REVERT JUMPDEST PUSH4 0x4E487B71 PUSH1 0xE0 SHL DUP13 MSTORE PUSH1 0x11 DUP10 MSTORE PUSH1 0x24 DUP13 REVERT JUMPDEST DUP6 DUP1 RETURN JUMPDEST PUSH1 0x64 SWAP3 MLOAD SWAP2 PUSH3 0x461BCD PUSH1 0xE5 SHL DUP4 MSTORE DUP3 ADD MSTORE PUSH1 0x12 PUSH1 0x24 DUP3 ADD MSTORE PUSH18 0x44696D656E7369756E6920696E6567616C65 PUSH1 0x70 SHL PUSH1 0x44 DUP3 ADD MSTORE REVERT JUMPDEST PUSH2 0x5FF SWAP2 SWAP5 POP RETURNDATASIZE DUP1 DUP8 DUP4 RETURNDATACOPY PUSH2 0x5F7 DUP2 DUP4 PUSH2 0x1333 JUMP JUMPDEST DUP2 ADD SWAP1 PUSH2 0x1562 JUMP JUMPDEST SWAP3 CODESIZE PUSH2 0x2B0 JUMP JUMPDEST DUP4 MLOAD RETURNDATASIZE DUP8 DUP3 RETURNDATACOPY RETURNDATASIZE SWAP1 REVERT JUMPDEST DUP2 PUSH32 0xC06999D659D5132DD93A1915097DA1A6A24201916389E38DA2404E4BCA5E59BE SWAP3 DUP8 SSTORE DUP8 MLOAD SWAP1 DUP2 MSTORE LOG1 CODESIZE DUP4 PUSH2 0x28D JUMP JUMPDEST DUP1 SWAP6 POP DUP5 DUP1 SWAP3 POP RETURNDATASIZE DUP4 GT PUSH2 0x66C JUMPI JUMPDEST PUSH2 0x65B DUP2 DUP4 PUSH2 0x1333 JUMP JUMPDEST DUP2 ADD SUB SLT PUSH2 0x20C JUMPI DUP6 SWAP4 MLOAD CODESIZE PUSH2 0x282 JUMP JUMPDEST POP RETURNDATASIZE PUSH2 0x651 JUMP JUMPDEST DUP5 MLOAD RETURNDATASIZE DUP5 DUP3 RETURNDATACOPY RETURNDATASIZE SWAP1 REVERT JUMPDEST POP POP CALLVALUE PUSH2 0x20C JUMPI DUP2 PUSH1 0x3 NOT CALLDATASIZE ADD SLT PUSH2 0x20C JUMPI DUP1 MLOAD PUSH2 0x208 SWAP2 PUSH2 0x6A9 DUP3 PUSH2 0x6A2 DUP2 PUSH2 0x1478 JUMP JUMPDEST SUB DUP4 PUSH2 0x1333 JUMP JUMPDEST MLOAD SWAP2 DUP3 SWAP2 DUP3 PUSH2 0x143C JUMP JUMPDEST POP CALLVALUE PUSH2 0x1D3 JUMPI PUSH1 0x20 CALLDATASIZE PUSH1 0x3 NOT ADD SLT PUSH2 0x1D3 JUMPI CALLDATALOAD PUSH1 0xD SLOAD DUP2 LT ISZERO PUSH2 0x1D3 JUMPI PUSH1 0x20 SWAP3 POP PUSH1 0xD PUSH1 0x0 MSTORE PUSH32 0xD7B6990105719101DABEB77144F2A3385C8033ACD3AF97E9423A695E81AD1EB5 ADD SLOAD SWAP1 MLOAD SWAP1 DUP2 MSTORE RETURN JUMPDEST POP CALLVALUE PUSH2 0x1D3 JUMPI DUP3 PUSH1 0x3 NOT CALLDATASIZE ADD SLT PUSH2 0x1D3 JUMPI PUSH1 0x20 SWAP3 POP SLOAD SWAP1 MLOAD SWAP1 DUP2 MSTORE RETURN JUMPDEST DUP3 DUP5 CALLVALUE PUSH2 0x1D0 JUMPI DUP1 PUSH1 0x3 NOT CALLDATASIZE ADD SLT PUSH2 0x1D0 JUMPI POP DUP1 MLOAD PUSH1 0x9 DUP1 SLOAD DUP1 DUP4 MSTORE PUSH1 0x0 SWAP2 DUP3 MSTORE PUSH1 0x20 DUP1 DUP5 ADD SWAP5 SWAP3 PUSH32 0x6E1540171B6C0C960B71A7020D9F60077F6AF931A8BBF590DA0223DACF75C7AF SWAP3 SWAP2 JUMPDEST DUP3 DUP3 LT PUSH2 0x796 JUMPI PUSH2 0x208 DUP7 DUP7 PUSH2 0x784 DUP3 DUP12 SUB DUP4 PUSH2 0x1333 JUMP JUMPDEST MLOAD SWAP2 DUP3 SWAP2 PUSH1 0x20 DUP4 MSTORE PUSH1 0x20 DUP4 ADD SWAP1 PUSH2 0x1408 JUMP JUMPDEST DUP4 SLOAD DUP8 MSTORE SWAP6 DUP7 ADD SWAP6 PUSH1 0x1 SWAP4 DUP5 ADD SWAP4 SWAP1 SWAP2 ADD SWAP1 PUSH2 0x76C JUMP JUMPDEST POP CALLVALUE PUSH2 0x1D3 JUMPI PUSH1 0x20 CALLDATASIZE PUSH1 0x3 NOT ADD SLT PUSH2 0x1D3 JUMPI CALLDATALOAD PUSH1 0xB SLOAD DUP2 LT ISZERO PUSH2 0x1D3 JUMPI PUSH1 0x20 SWAP3 POP PUSH1 0xB PUSH1 0x0 MSTORE PUSH32 0x175B7A638427703F0DBE7BB9BBF987A2551717B34E79F33B5B1008D1FA01DB9 ADD SLOAD SWAP1 MLOAD SWAP1 DUP2 MSTORE RETURN JUMPDEST DUP3 DUP5 CALLVALUE PUSH2 0x1D0 JUMPI DUP1 PUSH1 0x3 NOT CALLDATASIZE ADD SLT PUSH2 0x1D0 JUMPI POP DUP1 MLOAD PUSH1 0xE DUP1 SLOAD DUP1 DUP4 MSTORE PUSH1 0x0 SWAP2 DUP3 MSTORE PUSH1 0x20 DUP1 DUP5 ADD SWAP5 SWAP3 PUSH32 0xBB7B4A454DC3493923482F07822329ED19E8244EFF582CC204F8554C3620C3FD SWAP3 SWAP2 JUMPDEST DUP3 DUP3 LT PUSH2 0x861 JUMPI PUSH2 0x208 DUP7 DUP7 PUSH2 0x784 DUP3 DUP12 SUB DUP4 PUSH2 0x1333 JUMP JUMPDEST DUP4 SLOAD DUP8 MSTORE SWAP6 DUP7 ADD SWAP6 PUSH1 0x1 SWAP4 DUP5 ADD SWAP4 SWAP1 SWAP2 ADD SWAP1 PUSH2 0x849 JUMP JUMPDEST POP CALLVALUE PUSH2 0x1D3 JUMPI PUSH1 0x20 CALLDATASIZE PUSH1 0x3 NOT ADD SLT PUSH2 0x1D3 JUMPI CALLDATALOAD SWAP2 PUSH1 0x9 SLOAD DUP4 LT ISZERO PUSH2 0x1D0 JUMPI POP PUSH2 0x1C2 PUSH1 0x20 SWAP3 PUSH2 0x12C5 JUMP JUMPDEST POP CALLVALUE PUSH2 0x1D3 JUMPI PUSH1 0x20 CALLDATASIZE PUSH1 0x3 NOT ADD SLT PUSH2 0x1D3 JUMPI CALLDATALOAD SWAP2 PUSH1 0x2 SLOAD DUP4 LT ISZERO PUSH2 0x1D0 JUMPI POP PUSH2 0x1C2 PUSH1 0x20 SWAP3 PUSH2 0x12A0 JUMP JUMPDEST DUP3 DUP5 CALLVALUE PUSH2 0x1D0 JUMPI DUP1 PUSH1 0x3 NOT CALLDATASIZE ADD SLT PUSH2 0x1D0 JUMPI POP DUP1 MLOAD PUSH1 0x8 DUP1 SLOAD DUP1 DUP4 MSTORE PUSH1 0x0 SWAP2 DUP3 MSTORE PUSH1 0x20 DUP1 DUP5 ADD SWAP5 SWAP3 PUSH32 0xF3F7A9FE364FAAB93B216DA50A3214154F22A0A2B415B23A84C8169E8B636EE3 SWAP3 SWAP2 JUMPDEST DUP3 DUP3 LT PUSH2 0x930 JUMPI PUSH2 0x208 DUP7 DUP7 PUSH2 0x6A9 DUP3 DUP12 SUB DUP4 PUSH2 0x1333 JUMP JUMPDEST DUP4 SLOAD DUP8 MSTORE SWAP6 DUP7 ADD SWAP6 PUSH1 0x1 SWAP4 DUP5 ADD SWAP4 SWAP1 SWAP2 ADD SWAP1 PUSH2 0x918 JUMP JUMPDEST DUP3 DUP5 CALLVALUE PUSH2 0x1D0 JUMPI DUP1 PUSH1 0x3 NOT CALLDATASIZE ADD SLT PUSH2 0x1D0 JUMPI POP DUP1 MLOAD PUSH1 0xF DUP1 SLOAD DUP1 DUP4 MSTORE PUSH1 0x0 SWAP2 DUP3 MSTORE PUSH1 0x20 DUP1 DUP5 ADD SWAP5 SWAP3 PUSH32 0x8D1108E10BCB7C27DDDFC02ED9D693A074039D026CF4EA4240B40F7D581AC802 SWAP3 SWAP2 JUMPDEST DUP3 DUP3 LT PUSH2 0x9AB JUMPI PUSH2 0x208 DUP7 DUP7 PUSH2 0x784 DUP3 DUP12 SUB DUP4 PUSH2 0x1333 JUMP JUMPDEST DUP4 SLOAD DUP8 MSTORE SWAP6 DUP7 ADD SWAP6 PUSH1 0x1 SWAP4 DUP5 ADD SWAP4 SWAP1 SWAP2 ADD SWAP1 PUSH2 0x993 JUMP JUMPDEST POP SWAP1 CALLVALUE PUSH2 0x1D3 JUMPI PUSH1 0x3 NOT SWAP2 DUP4 DUP4 CALLDATASIZE ADD SLT PUSH2 0xAB5 JUMPI PUSH2 0x9F4 DUP3 MLOAD PUSH2 0x9EF DUP2 PUSH2 0x9E8 DUP2 PUSH2 0x14C3 JUMP JUMPDEST SUB DUP3 PUSH2 0x1333 JUMP JUMPDEST PUSH2 0x1B7C JUMP JUMPDEST PUSH1 0x3 DUP1 SLOAD DUP3 SLT PUSH2 0xB01 JUMPI JUMPDEST SWAP1 DUP6 SWAP2 PUSH1 0xE SLOAD PUSH2 0xA0E DUP2 PUSH2 0x151C JUMP JUMPDEST SWAP2 DUP5 JUMPDEST DUP3 DUP2 LT PUSH2 0xAB9 JUMPI POP POP PUSH1 0x10 SLOAD PUSH1 0x1 PUSH1 0x1 PUSH1 0xA0 SHL SUB AND SWAP2 SWAP1 POP DUP2 EXTCODESIZE ISZERO PUSH2 0xAB5 JUMPI DUP4 PUSH2 0xA6E SWAP8 DUP8 MLOAD SWAP9 DUP10 SWAP6 DUP7 SWAP5 DUP6 SWAP4 PUSH4 0x2FC0395F PUSH1 0xE0 SHL DUP6 MSTORE PUSH1 0x60 DUP12 DUP7 ADD MSTORE PUSH2 0xA5A PUSH1 0x64 DUP7 ADD PUSH2 0x14C3 JUMP JUMPDEST SWAP3 PUSH1 0x24 DUP7 ADD MSTORE DUP5 DUP4 SUB ADD PUSH1 0x44 DUP6 ADD MSTORE PUSH2 0x1408 JUMP JUMPDEST SUB SWAP3 GAS CALL DUP1 ISZERO PUSH2 0xAAB JUMPI PUSH2 0xA80 JUMPI DUP4 DUP1 RETURN JUMPDEST PUSH8 0xFFFFFFFFFFFFFFFF DUP4 GT PUSH2 0xA98 JUMPI POP MSTORE CODESIZE DUP1 DUP1 DUP4 DUP1 RETURN JUMPDEST PUSH4 0x4E487B71 PUSH1 0xE0 SHL DUP5 MSTORE PUSH1 0x41 SWAP1 MSTORE PUSH1 0x24 DUP4 REVERT JUMPDEST DUP3 MLOAD RETURNDATASIZE DUP7 DUP3 RETURNDATACOPY RETURNDATASIZE SWAP1 REVERT JUMPDEST DUP4 DUP1 REVERT JUMPDEST PUSH1 0x1 SWAP2 SWAP3 SWAP4 SWAP5 SWAP6 POP PUSH2 0xAE8 PUSH2 0xACD DUP3 PUSH2 0x1232 JUMP JUMPDEST SWAP1 SLOAD SWAP1 DUP6 SHL SHR PUSH2 0xADC DUP4 PUSH2 0x1143 JUMP JUMPDEST SWAP1 SLOAD SWAP1 DUP7 SHL SHR SWAP1 PUSH2 0x16A4 JUMP JUMPDEST DUP3 SHR PUSH2 0xAF4 DUP3 DUP8 PUSH2 0x154E JUMP JUMPDEST MSTORE ADD SWAP1 DUP9 SWAP5 SWAP4 SWAP3 SWAP2 PUSH2 0xA11 JUMP JUMPDEST SWAP2 SWAP5 SWAP3 SWAP1 SWAP4 DUP5 DUP4 SSTORE DUP4 SLOAD SWAP3 PUSH8 0xFFFFFFFFFFFFFFFF DUP5 GT PUSH2 0xD4F JUMPI PUSH9 0x10000000000000000 SWAP4 DUP5 DUP2 GT PUSH2 0xD3C JUMPI PUSH1 0x2 SLOAD DUP2 PUSH1 0x2 SSTORE DUP1 DUP3 LT PUSH2 0xD0E JUMPI JUMPDEST POP PUSH32 0x290DECD9548B62A8D60345A988386FC84BA6BC95484008F6362F93160EF3E563 PUSH1 0x2 DUP8 MSTORE DUP1 SLOAD SWAP1 DUP8 SWAP2 JUMPDEST DUP4 DUP4 LT PUSH2 0xCEA JUMPI POP POP POP POP PUSH1 0x11 SWAP2 PUSH1 0x11 SLOAD DUP7 PUSH1 0x11 SSTORE DUP1 PUSH2 0xCA8 JUMPI JUMPDEST POP PUSH1 0x12 SWAP4 PUSH1 0x12 SLOAD DUP8 PUSH1 0x12 SSTORE DUP1 PUSH2 0xC66 JUMPI JUMPDEST POP DUP7 JUMPDEST PUSH1 0xA SLOAD DUP2 LT ISZERO PUSH2 0xC2C JUMPI PUSH2 0xBAA DUP2 PUSH2 0x1269 JUMP JUMPDEST SWAP1 SLOAD DUP7 SLOAD SWAP2 DUP7 SHL SHR DUP9 DUP3 LT ISZERO PUSH2 0xC19 JUMPI PUSH2 0xBCD PUSH2 0x478 PUSH1 0x1 SWAP4 DUP5 DUP2 ADD DUP11 SSTORE PUSH2 0x12FC JUMP JUMPDEST SWAP1 SSTORE PUSH2 0xBD8 DUP3 PUSH2 0x117A JUMP JUMPDEST SWAP1 SLOAD DUP9 SLOAD SWAP2 DUP8 SHL SHR SWAP2 DUP10 DUP3 LT ISZERO PUSH2 0xC06 JUMPI PUSH2 0x478 DUP3 PUSH2 0xBFE SWAP3 PUSH1 0x1 SWAP7 SWAP6 SWAP5 ADD DUP12 SSTORE PUSH2 0x10BF JUMP JUMPDEST SWAP1 SSTORE ADD PUSH2 0xB97 JUMP JUMPDEST PUSH4 0x4E487B71 PUSH1 0xE0 SHL DUP12 MSTORE PUSH1 0x41 DUP14 MSTORE PUSH1 0x24 DUP12 REVERT JUMPDEST PUSH4 0x4E487B71 PUSH1 0xE0 SHL DUP11 MSTORE PUSH1 0x41 DUP13 MSTORE PUSH1 0x24 DUP11 REVERT JUMPDEST POP SWAP6 SWAP8 SWAP5 POP SWAP6 SWAP3 POP SWAP1 POP DUP4 MLOAD DUP3 DUP2 MSTORE PUSH32 0x409D103F7876158F293A85EE39F235CE0C309AB1ACA81024A51DFB4B471E556E PUSH1 0x20 ADDRESS SWAP3 LOG2 PUSH2 0x9FF JUMP JUMPDEST PUSH1 0x12 DUP9 MSTORE PUSH32 0xBB8A6A4669BA250D26CD7A459ECA9D215F8307E33AEBE50379BC5A3617EC3444 SWAP1 DUP2 ADD SWAP1 JUMPDEST DUP2 DUP2 LT PUSH2 0xC9D JUMPI POP PUSH2 0xB94 JUMP JUMPDEST DUP9 DUP2 SSTORE PUSH1 0x1 ADD PUSH2 0xC90 JUMP JUMPDEST PUSH1 0x11 DUP8 MSTORE PUSH32 0x31ECC21A745E3968A04E9570E4425BC18FA8019C68028196B546D1669C200C68 SWAP1 DUP2 ADD SWAP1 JUMPDEST DUP2 DUP2 LT PUSH2 0xCDF JUMPI POP PUSH2 0xB83 JUMP JUMPDEST DUP8 DUP2 SSTORE PUSH1 0x1 ADD PUSH2 0xCD2 JUMP JUMPDEST PUSH1 0x1 DUP1 SWAP2 SWAP3 ADD SWAP3 DUP4 SLOAD SWAP3 DUP2 PUSH1 0x0 DUP1 MLOAD PUSH1 0x20 PUSH2 0x1D62 DUP4 CODECOPY DUP2 MLOAD SWAP2 MSTORE ADD SSTORE ADD SWAP2 SWAP1 PUSH2 0xB68 JUMP JUMPDEST DUP2 PUSH1 0x0 DUP1 MLOAD PUSH1 0x20 PUSH2 0x1D62 DUP4 CODECOPY DUP2 MLOAD SWAP2 MSTORE SWAP2 DUP3 ADD SWAP2 ADD JUMPDEST DUP2 DUP2 LT PUSH2 0xD31 JUMPI POP PUSH2 0xB3C JUMP JUMPDEST DUP8 DUP2 SSTORE PUSH1 0x1 ADD PUSH2 0xD24 JUMP JUMPDEST PUSH4 0x4E487B71 PUSH1 0xE0 SHL DUP7 MSTORE PUSH1 0x41 DUP9 MSTORE PUSH1 0x24 DUP7 REVERT JUMPDEST PUSH4 0x4E487B71 PUSH1 0xE0 SHL DUP6 MSTORE PUSH1 0x41 DUP8 MSTORE PUSH1 0x24 DUP6 REVERT JUMPDEST POP CALLVALUE PUSH2 0x1D3 JUMPI PUSH1 0x20 CALLDATASIZE PUSH1 0x3 NOT ADD SLT PUSH2 0x1D3 JUMPI CALLDATALOAD SWAP2 PUSH1 0xA SLOAD DUP4 LT ISZERO PUSH2 0x1D0 JUMPI POP PUSH2 0x1C2 PUSH1 0x20 SWAP3 PUSH2 0x1269 JUMP JUMPDEST POP SWAP2 CALLVALUE PUSH2 0x1D0 JUMPI DUP2 PUSH1 0x3 NOT CALLDATASIZE ADD SLT PUSH2 0x1D0 JUMPI POP PUSH2 0xDAF PUSH1 0x20 SWAP3 PUSH1 0x24 CALLDATALOAD SWAP1 CALLDATALOAD PUSH2 0x1CFD JUMP JUMPDEST SWAP1 MLOAD SWAP1 DUP2 MSTORE RETURN JUMPDEST POP POP CALLVALUE PUSH2 0x20C JUMPI DUP2 PUSH1 0x3 NOT CALLDATASIZE ADD SLT PUSH2 0x20C JUMPI PUSH1 0x10 SLOAD SWAP1 MLOAD PUSH1 0x1 PUSH1 0x1 PUSH1 0xA0 SHL SUB SWAP1 SWAP2 AND DUP2 MSTORE PUSH1 0x20 SWAP1 RETURN JUMPDEST POP POP CALLVALUE PUSH2 0x20C JUMPI DUP2 PUSH1 0x3 NOT CALLDATASIZE ADD SLT PUSH2 0x20C JUMPI PUSH2 0x208 SWAP1 PUSH2 0x1F5 PUSH2 0x1A9E JUMP JUMPDEST POP CALLVALUE PUSH2 0x1D3 JUMPI PUSH1 0x20 CALLDATASIZE PUSH1 0x3 NOT ADD SLT PUSH2 0x1D3 JUMPI CALLDATALOAD SWAP2 PUSH1 0xE SLOAD DUP4 LT ISZERO PUSH2 0x1D0 JUMPI POP PUSH2 0x1C2 PUSH1 0x20 SWAP3 PUSH2 0x1232 JUMP JUMPDEST DUP3 DUP5 CALLVALUE PUSH2 0x1D0 JUMPI DUP1 PUSH1 0x3 NOT CALLDATASIZE ADD SLT PUSH2 0x1D0 JUMPI DUP1 SLOAD PUSH2 0xE44 DUP2 PUSH2 0x136B JUMP JUMPDEST SWAP2 PUSH2 0xE51 DUP5 MLOAD SWAP4 DUP5 PUSH2 0x1333 JUMP JUMPDEST DUP2 DUP4 MSTORE PUSH1 0x1F NOT PUSH2 0xE60 DUP4 PUSH2 0x136B JUMP JUMPDEST ADD CALLDATASIZE PUSH1 0x20 DUP6 ADD CALLDATACOPY JUMPDEST DUP2 DUP2 LT PUSH2 0xE7C JUMPI DUP4 MLOAD DUP1 PUSH2 0x208 DUP6 DUP3 PUSH2 0x143C JUMP JUMPDEST DUP1 PUSH2 0xE88 PUSH1 0x1 SWAP3 PUSH2 0x11E8 JUMP JUMPDEST SWAP1 SLOAD SWAP1 PUSH1 0x3 SHL SHR PUSH2 0xE99 DUP3 DUP7 PUSH2 0x154E JUMP JUMPDEST MSTORE ADD PUSH2 0xE68 JUMP JUMPDEST POP CALLVALUE PUSH2 0x1D3 JUMPI PUSH1 0x20 CALLDATASIZE PUSH1 0x3 NOT ADD SLT PUSH2 0x1D3 JUMPI CALLDATALOAD SWAP2 PUSH1 0x1 SLOAD DUP4 LT ISZERO PUSH2 0x1D0 JUMPI POP PUSH2 0x1C2 PUSH1 0x20 SWAP3 PUSH2 0x11B1 JUMP JUMPDEST POP POP CALLVALUE PUSH2 0x20C JUMPI DUP2 PUSH1 0x3 NOT CALLDATASIZE ADD SLT PUSH2 0x20C JUMPI PUSH1 0x20 SWAP1 PUSH1 0x6 SLOAD SWAP1 MLOAD SWAP1 DUP2 MSTORE RETURN JUMPDEST POP CALLVALUE PUSH2 0x1D3 JUMPI PUSH1 0x20 CALLDATASIZE PUSH1 0x3 NOT ADD SLT PUSH2 0x1D3 JUMPI CALLDATALOAD SWAP2 PUSH1 0xC SLOAD DUP4 LT ISZERO PUSH2 0x1D0 JUMPI POP PUSH2 0x1C2 PUSH1 0x20 SWAP3 PUSH2 0x117A JUMP JUMPDEST POP POP CALLVALUE PUSH2 0x20C JUMPI DUP2 PUSH1 0x3 NOT CALLDATASIZE ADD SLT PUSH2 0x20C JUMPI PUSH1 0x20 SWAP1 PUSH1 0x3 SLOAD SWAP1 MLOAD SWAP1 DUP2 MSTORE RETURN JUMPDEST POP POP CALLVALUE PUSH2 0x20C JUMPI DUP2 PUSH1 0x3 NOT CALLDATASIZE ADD SLT PUSH2 0x20C JUMPI PUSH1 0x20 SWAP1 PUSH1 0x7 SLOAD SWAP1 MLOAD SWAP1 DUP2 MSTORE RETURN JUMPDEST DUP3 DUP5 CALLVALUE PUSH2 0x1D0 JUMPI DUP1 PUSH1 0x3 NOT CALLDATASIZE ADD SLT PUSH2 0x1D0 JUMPI DUP2 MLOAD SWAP2 DUP3 SWAP2 PUSH1 0xB SLOAD DUP1 DUP6 MSTORE PUSH1 0x20 DUP1 SWAP6 ADD SWAP5 PUSH1 0xB DUP4 MSTORE PUSH32 0x175B7A638427703F0DBE7BB9BBF987A2551717B34E79F33B5B1008D1FA01DB9 SWAP3 SWAP1 JUMPDEST DUP3 DUP3 LT PUSH2 0xFB4 JUMPI PUSH2 0x208 DUP7 DUP7 PUSH2 0x784 DUP3 DUP12 SUB DUP4 PUSH2 0x1333 JUMP JUMPDEST DUP4 SLOAD DUP8 MSTORE SWAP6 DUP7 ADD SWAP6 PUSH1 0x1 SWAP4 DUP5 ADD SWAP4 SWAP1 SWAP2 ADD SWAP1 PUSH2 0xF9C JUMP JUMPDEST POP CALLVALUE PUSH2 0x1D3 JUMPI PUSH1 0x20 CALLDATASIZE PUSH1 0x3 NOT ADD SLT PUSH2 0x1D3 JUMPI CALLDATALOAD SWAP2 PUSH1 0xF SLOAD DUP4 LT ISZERO PUSH2 0x1D0 JUMPI POP PUSH2 0x1C2 PUSH1 0x20 SWAP3 PUSH2 0x1143 JUMP JUMPDEST POP POP CALLVALUE PUSH2 0x20C JUMPI PUSH1 0x20 SWAP1 PUSH2 0xDAF PUSH2 0x9EF CALLDATASIZE PUSH2 0x1383 JUMP JUMPDEST POP POP CALLVALUE PUSH2 0x20C JUMPI PUSH1 0x20 SWAP1 PUSH2 0xDAF PUSH2 0x1021 CALLDATASIZE PUSH2 0x1383 JUMP JUMPDEST PUSH2 0x16CD JUMP JUMPDEST POP POP CALLVALUE PUSH2 0x20C JUMPI DUP2 PUSH1 0x3 NOT CALLDATASIZE ADD SLT PUSH2 0x20C JUMPI PUSH1 0x20 SWAP1 PUSH1 0x5 SLOAD SWAP1 MLOAD SWAP1 DUP2 MSTORE RETURN JUMPDEST POP CALLVALUE PUSH2 0x1D3 JUMPI PUSH1 0x20 CALLDATASIZE PUSH1 0x3 NOT ADD SLT PUSH2 0x1D3 JUMPI CALLDATALOAD SWAP2 PUSH1 0x8 SLOAD DUP4 LT ISZERO PUSH2 0x1D0 JUMPI POP PUSH2 0x1C2 PUSH1 0x20 SWAP3 PUSH2 0x110C JUMP JUMPDEST POP CALLVALUE PUSH2 0x1D3 JUMPI PUSH1 0x20 CALLDATASIZE PUSH1 0x3 NOT ADD SLT PUSH2 0x1D3 JUMPI CALLDATALOAD SWAP2 PUSH1 0x12 SLOAD DUP4 LT ISZERO PUSH2 0x1D0 JUMPI POP PUSH2 0x1C2 PUSH1 0x20 SWAP3 PUSH2 0x10BF JUMP JUMPDEST DUP4 DUP6 CALLVALUE PUSH2 0x1D0 JUMPI DUP1 PUSH1 0x3 NOT CALLDATASIZE ADD SLT PUSH2 0x1D0 JUMPI POP PUSH2 0xDAF DUP3 PUSH2 0x1021 DUP2 PUSH2 0x9E8 PUSH1 0x20 SWAP7 PUSH2 0x1478 JUMP JUMPDEST PUSH1 0x12 SLOAD DUP2 LT ISZERO PUSH2 0x10F6 JUMPI PUSH1 0x12 PUSH1 0x0 MSTORE PUSH32 0xBB8A6A4669BA250D26CD7A459ECA9D215F8307E33AEBE50379BC5A3617EC3444 ADD SWAP1 PUSH1 0x0 SWAP1 JUMP JUMPDEST PUSH4 0x4E487B71 PUSH1 0xE0 SHL PUSH1 0x0 MSTORE PUSH1 0x32 PUSH1 0x4 MSTORE PUSH1 0x24 PUSH1 0x0 REVERT JUMPDEST PUSH1 0x8 SLOAD DUP2 LT ISZERO PUSH2 0x10F6 JUMPI PUSH1 0x8 PUSH1 0x0 MSTORE PUSH32 0xF3F7A9FE364FAAB93B216DA50A3214154F22A0A2B415B23A84C8169E8B636EE3 ADD SWAP1 PUSH1 0x0 SWAP1 JUMP JUMPDEST PUSH1 0xF SLOAD DUP2 LT ISZERO PUSH2 0x10F6 JUMPI PUSH1 0xF PUSH1 0x0 MSTORE PUSH32 0x8D1108E10BCB7C27DDDFC02ED9D693A074039D026CF4EA4240B40F7D581AC802 ADD SWAP1 PUSH1 0x0 SWAP1 JUMP JUMPDEST PUSH1 0xC SLOAD DUP2 LT ISZERO PUSH2 0x10F6 JUMPI PUSH1 0xC PUSH1 0x0 MSTORE PUSH32 0xDF6966C971051C3D54EC59162606531493A51404A002842F56009D7E5CF4A8C7 ADD SWAP1 PUSH1 0x0 SWAP1 JUMP JUMPDEST PUSH1 0x1 SLOAD DUP2 LT ISZERO PUSH2 0x10F6 JUMPI PUSH1 0x1 PUSH1 0x0 MSTORE PUSH32 0xB10E2D527612073B26EECDFD717E6A320CF44B4AFAC2B0732D9FCBE2B7FA0CF6 ADD SWAP1 PUSH1 0x0 SWAP1 JUMP JUMPDEST SWAP1 PUSH1 0x0 SWAP2 DUP3 SLOAD DUP2 LT ISZERO PUSH2 0x121E JUMPI DUP3 DUP1 MSTORE PUSH32 0x290DECD9548B62A8D60345A988386FC84BA6BC95484008F6362F93160EF3E563 ADD SWAP2 SWAP1 JUMP JUMPDEST PUSH4 0x4E487B71 PUSH1 0xE0 SHL DUP4 MSTORE PUSH1 0x32 PUSH1 0x4 MSTORE PUSH1 0x24 DUP4 REVERT JUMPDEST PUSH1 0xE SLOAD DUP2 LT ISZERO PUSH2 0x10F6 JUMPI PUSH1 0xE PUSH1 0x0 MSTORE PUSH32 0xBB7B4A454DC3493923482F07822329ED19E8244EFF582CC204F8554C3620C3FD ADD SWAP1 PUSH1 0x0 SWAP1 JUMP JUMPDEST PUSH1 0xA SLOAD DUP2 LT ISZERO PUSH2 0x10F6 JUMPI PUSH1 0xA PUSH1 0x0 MSTORE PUSH32 0xC65A7BB8D6351C1CF70C95A316CC6A92839C986682D98BC35F958F4883F9D2A8 ADD SWAP1 PUSH1 0x0 SWAP1 JUMP JUMPDEST PUSH1 0x2 SLOAD DUP2 LT ISZERO PUSH2 0x10F6 JUMPI PUSH1 0x2 PUSH1 0x0 MSTORE PUSH1 0x0 DUP1 MLOAD PUSH1 0x20 PUSH2 0x1D62 DUP4 CODECOPY DUP2 MLOAD SWAP2 MSTORE ADD SWAP1 PUSH1 0x0 SWAP1 JUMP JUMPDEST PUSH1 0x9 SLOAD DUP2 LT ISZERO PUSH2 0x10F6 JUMPI PUSH1 0x9 PUSH1 0x0 MSTORE PUSH32 0x6E1540171B6C0C960B71A7020D9F60077F6AF931A8BBF590DA0223DACF75C7AF ADD SWAP1 PUSH1 0x0 SWAP1 JUMP JUMPDEST PUSH1 0x11 SLOAD DUP2 LT ISZERO PUSH2 0x10F6 JUMPI PUSH1 0x11 PUSH1 0x0 MSTORE PUSH32 0x31ECC21A745E3968A04E9570E4425BC18FA8019C68028196B546D1669C200C68 ADD SWAP1 PUSH1 0x0 SWAP1 JUMP JUMPDEST SWAP1 PUSH1 0x1F DUP1 NOT SWAP2 ADD AND DUP2 ADD SWAP1 DUP2 LT PUSH8 0xFFFFFFFFFFFFFFFF DUP3 GT OR PUSH2 0x1355 JUMPI PUSH1 0x40 MSTORE JUMP JUMPDEST PUSH4 0x4E487B71 PUSH1 0xE0 SHL PUSH1 0x0 MSTORE PUSH1 0x41 PUSH1 0x4 MSTORE PUSH1 0x24 PUSH1 0x0 REVERT JUMPDEST PUSH8 0xFFFFFFFFFFFFFFFF DUP2 GT PUSH2 0x1355 JUMPI PUSH1 0x5 SHL PUSH1 0x20 ADD SWAP1 JUMP JUMPDEST PUSH1 0x20 DUP1 PUSH1 0x3 NOT DUP4 ADD SLT PUSH2 0x1403 JUMPI PUSH1 0x4 CALLDATALOAD SWAP2 PUSH8 0xFFFFFFFFFFFFFFFF DUP4 GT PUSH2 0x1403 JUMPI DUP1 PUSH1 0x23 DUP5 ADD SLT ISZERO PUSH2 0x1403 JUMPI DUP3 PUSH1 0x4 ADD CALLDATALOAD PUSH2 0x13BC DUP2 PUSH2 0x136B JUMP JUMPDEST SWAP4 PUSH2 0x13CA PUSH1 0x40 MLOAD SWAP6 DUP7 PUSH2 0x1333 JUMP JUMPDEST DUP2 DUP6 MSTORE PUSH1 0x24 PUSH1 0x20 DUP7 ADD SWAP3 PUSH1 0x5 SHL DUP3 ADD ADD SWAP3 DUP4 GT PUSH2 0x1403 JUMPI PUSH1 0x24 ADD SWAP1 JUMPDEST DUP3 DUP3 LT PUSH2 0x13F4 JUMPI POP POP POP POP SWAP1 JUMP JUMPDEST DUP2 CALLDATALOAD DUP2 MSTORE SWAP1 DUP4 ADD SWAP1 DUP4 ADD PUSH2 0x13E6 JUMP JUMPDEST PUSH1 0x0 DUP1 REVERT JUMPDEST SWAP1 DUP2 MLOAD DUP1 DUP3 MSTORE PUSH1 0x20 DUP1 DUP1 SWAP4 ADD SWAP4 ADD SWAP2 PUSH1 0x0 JUMPDEST DUP3 DUP2 LT PUSH2 0x1428 JUMPI POP POP POP POP SWAP1 JUMP JUMPDEST DUP4 MLOAD DUP6 MSTORE SWAP4 DUP2 ADD SWAP4 SWAP3 DUP2 ADD SWAP3 PUSH1 0x1 ADD PUSH2 0x141A JUMP JUMPDEST PUSH1 0x20 SWAP1 PUSH1 0x20 PUSH1 0x40 DUP2 DUP4 ADD SWAP3 DUP3 DUP2 MSTORE DUP6 MLOAD DUP1 SWAP5 MSTORE ADD SWAP4 ADD SWAP2 PUSH1 0x0 JUMPDEST DUP3 DUP2 LT PUSH2 0x1464 JUMPI POP POP POP POP SWAP1 JUMP JUMPDEST DUP4 MLOAD DUP6 MSTORE SWAP4 DUP2 ADD SWAP4 SWAP3 DUP2 ADD SWAP3 PUSH1 0x1 ADD PUSH2 0x1456 JUMP JUMPDEST PUSH1 0x2 SLOAD SWAP1 DUP2 DUP2 MSTORE PUSH1 0x20 DUP1 SWAP2 ADD SWAP2 PUSH1 0x2 PUSH1 0x0 MSTORE PUSH1 0x0 DUP1 MLOAD PUSH1 0x20 PUSH2 0x1D62 DUP4 CODECOPY DUP2 MLOAD SWAP2 MSTORE SWAP2 PUSH1 0x0 SWAP1 JUMPDEST DUP3 DUP3 LT PUSH2 0x14AC JUMPI POP POP POP POP SWAP1 JUMP JUMPDEST DUP4 SLOAD DUP6 MSTORE SWAP4 DUP5 ADD SWAP4 PUSH1 0x1 SWAP4 DUP5 ADD SWAP4 SWAP1 SWAP2 ADD SWAP1 PUSH2 0x149E JUMP JUMPDEST PUSH1 0x0 DUP1 SLOAD DUP1 DUP4 MSTORE DUP2 DUP1 MSTORE PUSH1 0x20 SWAP3 DUP4 ADD SWAP3 PUSH32 0x290DECD9548B62A8D60345A988386FC84BA6BC95484008F6362F93160EF3E563 SWAP3 SWAP1 JUMPDEST DUP3 DUP3 LT PUSH2 0x1505 JUMPI POP POP POP POP SWAP1 JUMP JUMPDEST DUP4 SLOAD DUP6 MSTORE SWAP4 DUP5 ADD SWAP4 PUSH1 0x1 SWAP4 DUP5 ADD SWAP4 SWAP1 SWAP2 ADD SWAP1 PUSH2 0x14F7 JUMP JUMPDEST SWAP1 PUSH2 0x1526 DUP3 PUSH2 0x136B JUMP JUMPDEST PUSH2 0x1533 PUSH1 0x40 MLOAD SWAP2 DUP3 PUSH2 0x1333 JUMP JUMPDEST DUP3 DUP2 MSTORE DUP1 SWAP3 PUSH2 0x1544 PUSH1 0x1F NOT SWAP2 PUSH2 0x136B JUMP JUMPDEST ADD SWAP1 PUSH1 0x20 CALLDATASIZE SWAP2 ADD CALLDATACOPY JUMP JUMPDEST DUP1 MLOAD DUP3 LT ISZERO PUSH2 0x10F6 JUMPI PUSH1 0x20 SWAP2 PUSH1 0x5 SHL ADD ADD SWAP1 JUMP JUMPDEST PUSH1 0x20 SWAP1 DUP2 DUP2 DUP5 SUB SLT PUSH2 0x1403 JUMPI DUP1 MLOAD SWAP1 PUSH8 0xFFFFFFFFFFFFFFFF DUP3 GT PUSH2 0x1403 JUMPI ADD SWAP2 DUP1 PUSH1 0x1F DUP5 ADD SLT ISZERO PUSH2 0x1403 JUMPI DUP3 MLOAD PUSH2 0x1598 DUP2 PUSH2 0x136B JUMP JUMPDEST SWAP4 PUSH2 0x15A6 PUSH1 0x40 MLOAD SWAP6 DUP7 PUSH2 0x1333 JUMP JUMPDEST DUP2 DUP6 MSTORE DUP4 DUP1 DUP7 ADD SWAP3 PUSH1 0x5 SHL DUP3 ADD ADD SWAP3 DUP4 GT PUSH2 0x1403 JUMPI DUP4 ADD SWAP1 JUMPDEST DUP3 DUP3 LT PUSH2 0x15CD JUMPI POP POP POP POP SWAP1 JUMP JUMPDEST DUP2 MLOAD DUP2 MSTORE SWAP1 DUP4 ADD SWAP1 DUP4 ADD PUSH2 0x15BF JUMP JUMPDEST SWAP2 SWAP1 DUP3 SUB SWAP2 DUP3 GT PUSH2 0x15E9 JUMPI JUMP JUMPDEST PUSH4 0x4E487B71 PUSH1 0xE0 SHL PUSH1 0x0 MSTORE PUSH1 0x11 PUSH1 0x4 MSTORE PUSH1 0x24 PUSH1 0x0 REVERT JUMPDEST SWAP1 DUP2 PUSH1 0x1 SHL SWAP2 DUP1 DUP4 SDIV PUSH1 0x2 EQ SWAP1 ISZERO OR ISZERO PUSH2 0x15E9 JUMPI JUMP JUMPDEST SWAP1 PUSH1 0x5 DUP3 MUL SWAP2 DUP1 DUP4 SDIV PUSH1 0x5 EQ SWAP1 ISZERO OR ISZERO PUSH2 0x15E9 JUMPI JUMP JUMPDEST SWAP1 PUSH1 0x3 DUP3 MUL SWAP2 DUP1 DUP4 SDIV PUSH1 0x3 EQ SWAP1 ISZERO OR ISZERO PUSH2 0x15E9 JUMPI JUMP JUMPDEST SWAP1 DUP2 PUSH1 0x2 SHL SWAP2 DUP1 DUP4 SDIV PUSH1 0x4 EQ SWAP1 ISZERO OR ISZERO PUSH2 0x15E9 JUMPI JUMP JUMPDEST DUP2 DUP2 MUL SWAP3 SWAP2 PUSH1 0x0 DUP3 SLT PUSH1 0x1 PUSH1 0xFF SHL DUP3 EQ AND PUSH2 0x15E9 JUMPI DUP2 DUP5 SDIV EQ SWAP1 ISZERO OR ISZERO PUSH2 0x15E9 JUMPI JUMP JUMPDEST PUSH1 0x1 PUSH1 0xFF SHL DUP2 EQ PUSH2 0x15E9 JUMPI PUSH1 0x0 SUB SWAP1 JUMP JUMPDEST DUP2 DUP2 SUB SWAP3 SWAP2 PUSH1 0x0 SGT DUP1 ISZERO DUP3 DUP6 SGT AND SWAP2 DUP5 SLT AND OR PUSH2 0x15E9 JUMPI JUMP JUMPDEST SWAP2 SWAP1 DUP3 ADD DUP1 SWAP3 GT PUSH2 0x15E9 JUMPI JUMP JUMPDEST SWAP2 SWAP1 SWAP2 PUSH1 0x0 DUP4 DUP3 ADD SWAP4 DUP5 SLT SWAP2 SLT SWAP1 DUP1 ISZERO DUP3 AND SWAP2 ISZERO AND OR PUSH2 0x15E9 JUMPI JUMP JUMPDEST PUSH1 0x0 SWAP1 DUP1 MLOAD PUSH1 0x11 SLOAD SWAP1 PUSH2 0x16DF DUP3 PUSH2 0x151C JUMP JUMPDEST SWAP2 DUP5 JUMPDEST DUP2 DUP2 LT PUSH2 0x1A7A JUMPI POP POP PUSH1 0x12 SLOAD SWAP2 PUSH2 0x16F8 DUP4 PUSH2 0x151C JUMP JUMPDEST SWAP3 DUP6 JUMPDEST DUP2 DUP2 LT PUSH2 0x1A56 JUMPI POP POP PUSH1 0x10 SLOAD PUSH1 0x40 MLOAD PUSH4 0xB6042CF9 PUSH1 0xE0 SHL DUP2 MSTORE SWAP2 SWAP1 DUP7 SWAP1 DUP4 SWAP1 PUSH1 0x4 SWAP1 DUP3 SWAP1 PUSH1 0x1 PUSH1 0x1 PUSH1 0xA0 SHL SUB AND GAS STATICCALL SWAP2 DUP3 ISZERO PUSH2 0x1A4B JUMPI DUP7 SWAP3 PUSH2 0x1A2F JUMPI JUMPDEST POP SWAP4 SWAP3 SWAP2 SWAP1 DUP6 SWAP5 JUMPDEST DUP3 DUP7 LT PUSH2 0x1750 JUMPI POP POP POP POP POP POP SWAP1 JUMP JUMPDEST SWAP1 SWAP2 SWAP3 SWAP4 SWAP5 SWAP6 PUSH2 0x1895 PUSH1 0x1 SWAP2 PUSH2 0x51E PUSH2 0x1769 DUP11 DUP11 PUSH2 0x154E JUMP JUMPDEST MLOAD DUP1 DUP12 PUSH1 0x0 DUP1 DUP4 SLT ISZERO PUSH2 0x1962 JUMPI POP PUSH2 0x1787 PUSH2 0x179B SWAP3 PUSH2 0x178C SWAP3 PUSH2 0x1CFD JUMP JUMPDEST PUSH2 0x167A JUMP JUMPDEST PUSH2 0x1795 DUP4 PUSH2 0x167A JUMP JUMPDEST SWAP1 PUSH2 0x1657 JUMP JUMPDEST SWAP1 JUMPDEST PUSH2 0x187C DUP13 PUSH2 0x51E PUSH2 0x1876 PUSH2 0x17B0 DUP4 PUSH2 0x12C5 JUMP JUMPDEST SWAP1 SLOAD PUSH1 0x3 SWAP5 SWAP2 PUSH1 0x0 SWAP2 SWAP1 DUP7 SHL SHR DUP8 SGT ISZERO PUSH2 0x1955 JUMPI POP PUSH2 0x51E PUSH2 0x1870 PUSH2 0x17E3 PUSH2 0x17D7 DUP5 PUSH2 0x12C5 JUMP JUMPDEST SWAP1 SLOAD SWAP1 DUP9 SHL SHR DUP10 PUSH2 0x168B JUMP JUMPDEST SWAP6 JUMPDEST PUSH2 0x184D PUSH2 0x17F1 DUP6 PUSH2 0x12A0 JUMP JUMPDEST SWAP1 SLOAD SWAP1 DUP4 SHL SHR PUSH2 0x1828 PUSH2 0x1821 PUSH2 0x1806 DUP9 PUSH2 0x1232 JUMP JUMPDEST SWAP1 SLOAD SWAP1 DUP7 SHL SHR PUSH2 0x1815 DUP10 PUSH2 0x1143 JUMP JUMPDEST SWAP1 SLOAD SWAP1 DUP8 SHL SHR SWAP1 PUSH2 0x16A4 JUMP JUMPDEST SWAP2 DUP13 PUSH2 0x168B JUMP JUMPDEST PUSH1 0x0 DUP2 SLT PUSH2 0x1946 JUMPI SWAP1 JUMPDEST PUSH1 0x0 SWAP2 DUP2 DUP2 SGT ISZERO PUSH2 0x193E JUMPI PUSH2 0x1847 SWAP3 POP PUSH2 0x168B JUMP JUMPDEST SWAP5 PUSH2 0x12FC JUMP JUMPDEST SWAP1 SLOAD SWAP2 SHL SHR DUP9 PUSH1 0x0 SWAP2 DUP2 DUP2 SGT PUSH1 0x0 EQ PUSH2 0x1936 JUMPI PUSH2 0x186A SWAP3 POP PUSH2 0x168B JUMP JUMPDEST SWAP6 PUSH2 0x1615 JUMP JUMPDEST SWAP2 PUSH2 0x162B JUMP JUMPDEST SWAP2 PUSH2 0x15FF JUMP JUMPDEST PUSH1 0x0 SWAP2 DUP14 DUP12 DUP12 MLOAD EQ PUSH2 0x18A1 JUMPI JUMPDEST POP POP PUSH2 0x466 SWAP2 SWAP3 PUSH2 0x16B1 JUMP JUMPDEST SWAP7 ADD SWAP5 SWAP4 SWAP3 SWAP2 SWAP1 PUSH2 0x1740 JUMP JUMPDEST PUSH2 0x18AE PUSH2 0x18B6 SWAP2 DUP13 PUSH2 0x154E JUMP JUMPDEST MLOAD DUP1 SWAP3 PUSH2 0x168B JUMP JUMPDEST SWAP1 DUP4 DUP3 SLT PUSH2 0x1927 JUMPI DUP2 SWAP1 JUMPDEST DUP1 ISZERO PUSH2 0x191F JUMPI PUSH1 0xA SWAP1 SDIV SWAP2 JUMPDEST DUP3 DUP3 SGT PUSH2 0x18DD JUMPI JUMPDEST POP POP DUP14 PUSH2 0x1889 JUMP JUMPDEST PUSH2 0x466 SWAP5 SLT ISZERO PUSH2 0x1904 JUMPI PUSH2 0x18F9 SWAP2 PUSH2 0x18F4 SWAP2 PUSH2 0x168B JUMP JUMPDEST PUSH2 0x1641 JUMP JUMPDEST SWAP3 JUMPDEST SWAP3 SWAP2 CODESIZE DUP1 PUSH2 0x18D5 JUMP JUMPDEST PUSH2 0x1914 PUSH2 0x1919 SWAP3 PUSH2 0x1787 SWAP3 PUSH2 0x168B JUMP JUMPDEST PUSH2 0x15FF JUMP JUMPDEST SWAP3 PUSH2 0x18FB JUMP JUMPDEST POP DUP4 SWAP2 PUSH2 0x18CD JUMP JUMPDEST PUSH2 0x1930 DUP3 PUSH2 0x167A JUMP JUMPDEST SWAP1 PUSH2 0x18C1 JUMP JUMPDEST POP POP SWAP6 PUSH2 0x1615 JUMP JUMPDEST POP POP SWAP5 PUSH2 0x12FC JUMP JUMPDEST PUSH2 0x194F SWAP1 PUSH2 0x167A JUMP JUMPDEST SWAP1 PUSH2 0x1832 JUMP JUMPDEST PUSH2 0x1870 PUSH2 0x51E SWAP2 SWAP6 PUSH2 0x17E5 JUMP JUMPDEST SWAP1 PUSH2 0x19DB SWAP3 DUP5 PUSH2 0x1972 DUP4 DUP13 PUSH2 0x154E JUMP JUMPDEST MLOAD LT PUSH2 0x1A09 JUMPI PUSH2 0x198F PUSH2 0x1996 SWAP2 PUSH2 0x1989 DUP5 DUP14 PUSH2 0x154E JUMP JUMPDEST MLOAD PUSH2 0x15DC JUMP JUMPDEST SWAP2 DUP11 PUSH2 0x154E JUMP JUMPDEST MSTORE DUP13 DUP2 JUMPDEST DUP13 DUP2 PUSH2 0x19A6 DUP5 DUP4 PUSH2 0x154E JUMP JUMPDEST MLOAD LT PUSH2 0x19E1 JUMPI PUSH2 0x19C4 SWAP2 PUSH2 0x1989 DUP5 PUSH2 0x19BD SWAP4 PUSH2 0x154E JUMP JUMPDEST SWAP2 DUP14 PUSH2 0x154E JUMP JUMPDEST MSTORE JUMPDEST PUSH2 0x19CF DUP14 PUSH2 0x110C JUMP JUMPDEST SWAP1 SLOAD SWAP1 PUSH1 0x3 SHL SHR PUSH2 0x1657 JUMP JUMPDEST SWAP1 PUSH2 0x179D JUMP JUMPDEST PUSH2 0x1A03 SWAP2 PUSH2 0x19F5 DUP5 PUSH2 0x19FC SWAP4 SWAP7 SWAP6 SWAP7 PUSH2 0x154E JUMP JUMPDEST MLOAD SWAP1 PUSH2 0x15DC JUMP JUMPDEST SWAP3 DUP14 PUSH2 0x154E JUMP JUMPDEST MSTORE PUSH2 0x19C6 JUMP JUMPDEST POP PUSH2 0x1A1E PUSH2 0x1A17 DUP3 DUP12 PUSH2 0x154E JUMP JUMPDEST MLOAD DUP6 PUSH2 0x15DC JUMP JUMPDEST DUP3 PUSH2 0x1A29 DUP4 DUP13 PUSH2 0x154E JUMP JUMPDEST MSTORE PUSH2 0x199A JUMP JUMPDEST PUSH2 0x1A44 SWAP2 SWAP3 POP RETURNDATASIZE DUP1 DUP9 DUP4 RETURNDATACOPY PUSH2 0x5F7 DUP2 DUP4 PUSH2 0x1333 JUMP JUMPDEST SWAP1 CODESIZE PUSH2 0x1738 JUMP JUMPDEST PUSH1 0x40 MLOAD RETURNDATASIZE DUP9 DUP3 RETURNDATACOPY RETURNDATASIZE SWAP1 REVERT JUMPDEST DUP1 PUSH2 0x1A62 PUSH1 0x1 SWAP3 PUSH2 0x10BF JUMP JUMPDEST SWAP1 SLOAD SWAP1 PUSH1 0x3 SHL SHR PUSH2 0x1A73 DUP3 DUP9 PUSH2 0x154E JUMP JUMPDEST MSTORE ADD PUSH2 0x16FB JUMP JUMPDEST DUP1 PUSH2 0x1A86 PUSH1 0x1 SWAP3 PUSH2 0x12FC JUMP JUMPDEST SWAP1 SLOAD SWAP1 PUSH1 0x3 SHL SHR PUSH2 0x1A97 DUP3 DUP8 PUSH2 0x154E JUMP JUMPDEST MSTORE ADD PUSH2 0x16E2 JUMP JUMPDEST PUSH1 0x40 MLOAD SWAP1 PUSH1 0xC SLOAD DUP1 DUP4 MSTORE DUP3 PUSH1 0x20 SWAP2 PUSH1 0x20 DUP3 ADD SWAP1 PUSH1 0xC PUSH1 0x0 MSTORE PUSH32 0xDF6966C971051C3D54EC59162606531493A51404A002842F56009D7E5CF4A8C7 SWAP4 PUSH1 0x0 SWAP1 JUMPDEST DUP3 DUP3 LT PUSH2 0x1AF4 JUMPI POP POP POP PUSH2 0x1AF2 SWAP3 POP SUB DUP4 PUSH2 0x1333 JUMP JUMPDEST JUMP JUMPDEST DUP6 SLOAD DUP5 MSTORE PUSH1 0x1 SWAP6 DUP7 ADD SWAP6 DUP9 SWAP6 POP SWAP4 DUP2 ADD SWAP4 SWAP1 SWAP2 ADD SWAP1 PUSH2 0x1ADC JUMP JUMPDEST PUSH1 0x40 MLOAD SWAP1 PUSH1 0xA SLOAD DUP1 DUP4 MSTORE DUP3 PUSH1 0x20 SWAP2 PUSH1 0x20 DUP3 ADD SWAP1 PUSH1 0xA PUSH1 0x0 MSTORE PUSH32 0xC65A7BB8D6351C1CF70C95A316CC6A92839C986682D98BC35F958F4883F9D2A8 SWAP4 PUSH1 0x0 SWAP1 JUMPDEST DUP3 DUP3 LT PUSH2 0x1B62 JUMPI POP POP POP PUSH2 0x1AF2 SWAP3 POP SUB DUP4 PUSH2 0x1333 JUMP JUMPDEST DUP6 SLOAD DUP5 MSTORE PUSH1 0x1 SWAP6 DUP7 ADD SWAP6 DUP9 SWAP6 POP SWAP4 DUP2 ADD SWAP4 SWAP1 SWAP2 ADD SWAP1 PUSH2 0x1B4C JUMP JUMPDEST PUSH1 0x0 SWAP1 DUP1 MLOAD PUSH2 0x1B89 PUSH2 0x1B0E JUMP JUMPDEST SWAP1 PUSH1 0x4 PUSH2 0x1B94 PUSH2 0x1A9E JUMP JUMPDEST PUSH1 0x10 SLOAD PUSH1 0x40 MLOAD PUSH4 0xB6042CF9 PUSH1 0xE0 SHL DUP2 MSTORE SWAP2 SWAP5 SWAP2 SWAP3 DUP8 SWAP2 DUP5 SWAP2 SWAP1 DUP3 SWAP1 PUSH1 0x1 PUSH1 0x1 PUSH1 0xA0 SHL SUB AND GAS STATICCALL SWAP2 DUP3 ISZERO PUSH2 0x1A4B JUMPI DUP7 SWAP3 PUSH2 0x1CE1 JUMPI JUMPDEST POP SWAP4 SWAP3 SWAP2 SWAP1 DUP6 SWAP5 JUMPDEST DUP3 DUP7 LT PUSH2 0x1BE0 JUMPI POP POP POP POP POP POP SWAP1 JUMP JUMPDEST SWAP1 SWAP2 SWAP3 SWAP4 SWAP5 SWAP6 PUSH2 0x1C9B PUSH1 0x1 SWAP2 PUSH2 0x51E PUSH2 0x1BF9 DUP11 DUP11 PUSH2 0x154E JUMP JUMPDEST MLOAD DUP1 DUP12 PUSH1 0x0 DUP1 DUP4 SLT ISZERO PUSH2 0x1CCB JUMPI POP PUSH2 0x1787 PUSH2 0x1C17 SWAP3 PUSH2 0x178C SWAP3 PUSH2 0x1CFD JUMP JUMPDEST SWAP1 JUMPDEST PUSH2 0x187C DUP13 PUSH2 0x51E PUSH2 0x1876 PUSH2 0x1C2C DUP4 PUSH2 0x12C5 JUMP JUMPDEST SWAP1 SLOAD PUSH1 0x3 SWAP5 SWAP2 PUSH1 0x0 SWAP2 SWAP1 DUP7 SHL SHR DUP8 SGT ISZERO PUSH2 0x1CBE JUMPI POP PUSH2 0x51E PUSH2 0x1870 PUSH2 0x1C53 PUSH2 0x17D7 DUP5 PUSH2 0x12C5 JUMP JUMPDEST SWAP6 JUMPDEST PUSH2 0x184D PUSH2 0x1C61 DUP6 PUSH2 0x12A0 JUMP JUMPDEST SWAP1 SLOAD SWAP1 DUP4 SHL SHR PUSH2 0x1C76 PUSH2 0x1821 PUSH2 0x1806 DUP9 PUSH2 0x1232 JUMP JUMPDEST PUSH1 0x0 DUP2 SLT PUSH2 0x1CAF JUMPI SWAP1 JUMPDEST PUSH1 0x0 SWAP2 DUP2 DUP2 SGT ISZERO PUSH2 0x1CA7 JUMPI PUSH2 0x1C95 SWAP3 POP PUSH2 0x168B JUMP JUMPDEST SWAP5 PUSH2 0x1269 JUMP JUMPDEST SWAP7 ADD SWAP5 SWAP4 SWAP3 SWAP2 SWAP1 PUSH2 0x1BD0 JUMP JUMPDEST POP POP SWAP5 PUSH2 0x1269 JUMP JUMPDEST PUSH2 0x1CB8 SWAP1 PUSH2 0x167A JUMP JUMPDEST SWAP1 PUSH2 0x1C80 JUMP JUMPDEST PUSH2 0x1870 PUSH2 0x51E SWAP2 SWAP6 PUSH2 0x1C55 JUMP JUMPDEST SWAP1 PUSH2 0x1CDB SWAP3 DUP5 PUSH2 0x1972 DUP4 DUP13 PUSH2 0x154E JUMP JUMPDEST SWAP1 PUSH2 0x1C19 JUMP JUMPDEST PUSH2 0x1CF6 SWAP2 SWAP3 POP RETURNDATASIZE DUP1 DUP9 DUP4 RETURNDATACOPY PUSH2 0x5F7 DUP2 DUP4 PUSH2 0x1333 JUMP JUMPDEST SWAP1 CODESIZE PUSH2 0x1BC8 JUMP JUMPDEST PUSH2 0x1D06 SWAP1 PUSH2 0x110C JUMP JUMPDEST SWAP1 SLOAD SWAP1 PUSH1 0x3 SHL SHR SWAP1 PUSH1 0x0 DUP2 SLT PUSH1 0x0 EQ PUSH2 0x1D5D JUMPI PUSH2 0x1D22 SWAP1 PUSH2 0x167A JUMP JUMPDEST PUSH1 0x1 SHR PUSH1 0x14 ADD DUP1 PUSH1 0x14 GT PUSH2 0x15E9 JUMPI PUSH1 0x28 DUP2 GT PUSH2 0x1D55 JUMPI JUMPDEST PUSH1 0x64 SUB SWAP1 PUSH1 0x64 DUP3 GT PUSH2 0x15E9 JUMPI PUSH1 0x64 SWAP2 PUSH2 0x1D51 SWAP2 PUSH2 0x1657 JUMP JUMPDEST SDIV SWAP1 JUMP JUMPDEST POP PUSH1 0x28 PUSH2 0x1D39 JUMP JUMPDEST POP SWAP1 JUMP INVALID BLOCKHASH JUMPI DUP8 STATICCALL SLT 0xA8 0x23 0xE0 CALLCODE 0xB7 PUSH4 0x1CC41B3B 0xA8 DUP3 DUP12 CALLER 0x21 0xCA DUP2 GT GT STATICCALL PUSH22 0xCD3AA3BB5ACEA26469706673582212202D7C9B11021F ADD EXTCODEHASH 0xE6 PUSH13 0x47ED215B73D8987724C3816019 0xE8 0xAD SWAP9 DUP16 SLT DUP1 PUSH23 0x2B7764736F6C63430008170033405787FA12A823E0F2B7 PUSH4 0x1CC41B3B 0xA8 DUP3 DUP12 CALLER 0x21 0xCA DUP2 GT GT STATICCALL PUSH22 0xCD3AA3BB5ACEBB7B4A454DC3493923482F07822329ED NOT 0xE8 0x24 0x4E SELFDESTRUCT PC 0x2C 0xC2 DIV 0xF8 SSTORE 0x4C CALLDATASIZE KECCAK256 0xC3 REVERT 0xC6 GAS PUSH28 0xB8D6351C1CF70C95A316CC6A92839C986682D98BC35F958F4883F9D2 0xA8 0x29 0xD 0xEC 0xD9 SLOAD DUP12 PUSH3 0xA8D603 GASLIMIT 0xA9 DUP9 CODESIZE PUSH16 0xC84BA6BC95484008F6362F93160EF3E5 PUSH4 0xD7B69901 SDIV PUSH18 0x9101DABEB77144F2A3385C8033ACD3AF97E9 TIMESTAMP GASPRICE PUSH10 0x5E81AD1EB5F3F7A9FE36 0x4F 0xAA 0xB9 EXTCODESIZE 0x21 PUSH14 0xA50A3214154F22A0A2B415B23A84 0xC8 AND SWAP15 DUP12 PUSH4 0x6EE36E15 BLOCKHASH OR SHL PUSH13 0xC960B71A7020D9F60077F6AF9 BALANCE 0xA8 0xBB CREATE2 SWAP1 0xDA MUL 0x23 0xDA 0xCF PUSH22 0xC7AFB10E2D527612073B26EECDFD717E6A320CF44B4A STATICCALL 0xC2 0xB0 PUSH20 0x2D9FCBE2B7FA0CF6000000000000000000000000 "},"methodIdentifiers":{"batteryCapacity(uint256)":"b6ce6709","batteryCharge(uint256)":"4eb274ff","c1()":"5f57697c","c2()":"48e257cb","capacity(uint256)":"ab1bbeca","flexibilityAbove(uint256)":"78b6d7d4","flexibilityBelow(uint256)":"375a105e","flexibleLoad(uint256)":"e329143f","frozenBatteryCharge(uint256)":"04d01942","frozenRenewableGeneration(uint256)":"ff9c446f","getBatteryCapacity()":"4485bb55","getBatteryCharge()":"85c96e66","getCapacity()":"c40000d4","getEffectiveTariff(uint256,int256)":"957b4056","getFlexibilityAbove()":"b27966e6","getFlexibilityBelow()":"983bedda","getFrozenCost()":"03bc4a86","getPersonalBestPosition()":"e7d46385","getPosition()":"7398ab18","getRenewableGeneration()":"fb722277","getTariff()":"9b14d83b","globalContract()":"90ccfa0f","lastKnownGlobalTimestamp()":"d0c6c7af","objectiveFunction(int256[])":"364132d9","objectiveFunctionFrozen(int256[])":"300aee14","personalBestPosition(uint256)":"a86853d5","personalBestScore()":"4d985ae4","position(uint256)":"f7a95a9e","renewableGeneration(uint256)":"96d14da6","tariff(uint256)":"16b51928","updateBestPositions()":"973b9cc1","updateVelocityAndPosition()":"f6451c0a","velocity(uint256)":"6f240774","w()":"205c9cc7"}}}}}