{"contracts/Node.sol":{"Node":{"abi":[{"inputs":[{"internalType":"address","name":"globalContractAddress","type":"address"},{"internalType":"int256[]","name":"initialPosition","type":"int256[]"},{"internalType":"int256[]","name":"initialVelocity","type":"int256[]"},{"internalType":"int256[]","name":"initialTariff","type":"int256[]"},{"internalType":"uint256[]","name":"initialCapacity","type":"uint256[]"},{"internalType":"uint256[]","name":"initialRenewableGeneration","type":"uint256[]"},{"internalType":"uint256[]","name":"initialBatteryCapacity","type":"uint256[]"},{"internalType":"uint256[]","name":"initialBatteryCharge","type":"uint256[]"},{"internalType":"uint256[]","name":"initialFlexibleLoad","type":"uint256[]"},{"internalType":"uint256[]","name":"_flexibilityAbove","type":"uint256[]"},{"internalType":"uint256[]","name":"_flexibilityBelow","type":"uint256[]"}],"stateMutability":"nonpayable","type":"constructor"},{"anonymous":false,"inputs":[{"indexed":true,"internalType":"address","name":"node","type":"address"},{"indexed":false,"internalType":"int256","name":"newScore","type":"int256"}],"name":"BestPositionUpdated","type":"event"},{"anonymous":false,"inputs":[{"indexed":false,"internalType":"uint256","name":"timestamp","type":"uint256"}],"name":"NewPlanReceived","type":"event"},{"inputs":[{"internalType":"uint256","name":"","type":"uint256"}],"name":"batteryCapacity","outputs":[{"internalType":"uint256","name":"","type":"uint256"}],"stateMutability":"view","type":"function"},{"inputs":[{"internalType":"uint256","name":"","type":"uint256"}],"name":"batteryCharge","outputs":[{"internalType":"uint256","name":"","type":"uint256"}],"stateMutability":"view","type":"function"},{"inputs":[],"name":"c1","outputs":[{"internalType":"int256","name":"","type":"int256"}],"stateMutability":"view","type":"function"},{"inputs":[],"name":"c2","outputs":[{"internalType":"int256","name":"","type":"int256"}],"stateMutability":"view","type":"function"},{"inputs":[{"internalType":"uint256","name":"","type":"uint256"}],"name":"capacity","outputs":[{"internalType":"uint256","name":"","type":"uint256"}],"stateMutability":"view","type":"function"},{"inputs":[{"internalType":"uint256","name":"","type":"uint256"}],"name":"flexibilityAbove","outputs":[{"internalType":"uint256","name":"","type":"uint256"}],"stateMutability":"view","type":"function"},{"inputs":[{"internalType":"uint256","name":"","type":"uint256"}],"name":"flexibilityBelow","outputs":[{"internalType":"uint256","name":"","type":"uint256"}],"stateMutability":"view","type":"function"},{"inputs":[{"internalType":"uint256","name":"","type":"uint256"}],"name":"flexibleLoad","outputs":[{"internalType":"uint256","name":"","type":"uint256"}],"stateMutability":"view","type":"function"},{"inputs":[{"internalType":"uint256","name":"hour","type":"uint256"},{"internalType":"int256","name":"consumption","type":"int256"}],"name":"getEffectiveTariff","outputs":[{"internalType":"int256","name":"","type":"int256"}],"stateMutability":"view","type":"function"},{"inputs":[],"name":"getPosition","outputs":[{"internalType":"int256[]","name":"","type":"int256[]"}],"stateMutability":"view","type":"function"},{"inputs":[],"name":"globalContract","outputs":[{"internalType":"contract GlobalContractInterface","name":"","type":"address"}],"stateMutability":"view","type":"function"},{"inputs":[],"name":"lastKnownGlobalTimestamp","outputs":[{"internalType":"uint256","name":"","type":"uint256"}],"stateMutability":"view","type":"function"},{"inputs":[{"internalType":"int256[]","name":"pos","type":"int256[]"}],"name":"objectiveFunction","outputs":[{"internalType":"int256","name":"","type":"int256"}],"stateMutability":"view","type":"function"},{"inputs":[{"internalType":"uint256","name":"","type":"uint256"}],"name":"personalBestPosition","outputs":[{"internalType":"int256","name":"","type":"int256"}],"stateMutability":"view","type":"function"},{"inputs":[],"name":"personalBestScore","outputs":[{"internalType":"int256","name":"","type":"int256"}],"stateMutability":"view","type":"function"},{"inputs":[{"internalType":"uint256","name":"","type":"uint256"}],"name":"position","outputs":[{"internalType":"int256","name":"","type":"int256"}],"stateMutability":"view","type":"function"},{"inputs":[{"internalType":"uint256","name":"","type":"uint256"}],"name":"renewableGeneration","outputs":[{"internalType":"uint256","name":"","type":"uint256"}],"stateMutability":"view","type":"function"},{"inputs":[{"internalType":"uint256","name":"","type":"uint256"}],"name":"tariff","outputs":[{"internalType":"int256","name":"","type":"int256"}],"stateMutability":"view","type":"function"},{"inputs":[],"name":"updateBestPositions","outputs":[],"stateMutability":"nonpayable","type":"function"},{"inputs":[],"name":"updateVelocityAndPosition","outputs":[],"stateMutability":"nonpayable","type":"function"},{"inputs":[{"internalType":"uint256","name":"","type":"uint256"}],"name":"velocity","outputs":[{"internalType":"int256","name":"","type":"int256"}],"stateMutability":"view","type":"function"},{"inputs":[],"name":"w","outputs":[{"internalType":"int256","name":"","type":"int256"}],"stateMutability":"view","type":"function"}],"evm":{"bytecode":{"linkReferences":{},"object":"608060405234620009765762001c78803803806200001d816200097b565b928339810161016082820312620009765781516001600160a01b0381169290839003620009765760208101516001600160401b03811162000976578262000066918301620009a1565b60408201516001600160401b03811162000976578362000088918401620009a1565b60608301516001600160401b038111620009765784620000aa918501620009a1565b60808401516001600160401b038111620009765785620000cc918601620009a1565b60a08501516001600160401b038111620009765786620000ee918701620009a1565b60c08601519092906001600160401b03811162000976578762000113918801620009a1565b60e08701519094906001600160401b03811162000976578862000138918901620009a1565b6101008801519096906001600160401b0381116200097657896200015e918a01620009a1565b6101208901519098906001600160401b03811162000976578a62000184918301620009a1565b610140820151909a906001600160401b0381116200097657620001a89201620009a1565b6001600160ff1b03600355603260055560c86006819055600755601080546001600160a01b031916909b17909a558051916001600160401b038311620005b357680100000000000000008311620005b357600054836000558084106200092e575b5060208201928360008052602060002060005b838110620009195750508251929150506001600160401b038211620005b357680100000000000000008211620005b35760015482600155808310620008cf575b506020016001600052602060002060005b838110620008ba5750509151929150506001600160401b038211620005b357680100000000000000008211620005b3576002548260025580831062000870575b506002600052602060002060005b8381106200085b5750508251929150506001600160401b038211620005b357680100000000000000008211620005b3576008548260085580831062000812575b506020016008600052602060002060005b838110620007fd5750508251929150506001600160401b038211620005b357680100000000000000008211620005b35760095482600955808310620007b4575b506020016009600052602060002060005b8381106200079f5750508251929150506001600160401b038211620005b357680100000000000000008211620005b357600a5482600a5580831062000756575b50602001600a600052602060002060005b838110620007415750508251929150506001600160401b038211620005b357680100000000000000008211620005b357600b5482600b55808310620006f8575b50602001600b600052602060002060005b838110620006e35750508251929150506001600160401b038211620005b357680100000000000000008211620005b357600c5482600c558083106200069a575b50602001600c600052602060002060005b838110620006855750508251929150506001600160401b038211620005b357680100000000000000008211620005b357600d5482600d558083106200063c575b50602001600d600052602060002060005b838110620006275784518690866001600160401b038211620005b357680100000000000000008211620005b357600e5482600e55808310620005de575b50602001600e600052602060002060005b838110620005c9578451856001600160401b038211620005b357680100000000000000008211620005b357600f5482600f558083106200056a575b5060200190600f60005260206000209160005b828110620005555760405161126d908162000a0b8239f35b6001906020835193019281860155016200053d565b600f6000527f8d1108e10bcb7c27dddfc02ed9d693a074039d026cf4ea4240b40f7d581ac8029081019083015b818110620005a657506200052a565b6000815560010162000597565b634e487b7160e01b600052604160045260246000fd5b600190602084519401938184015501620004ef565b600e6000527fbb7b4a454dc3493923482f07822329ed19e8244eff582cc204f8554c3620c3fd9081019083015b8181106200061a5750620004de565b600081556001016200060b565b600190602084519401938184015501620004a1565b600d6000527fd7b6990105719101dabeb77144f2a3385c8033acd3af97e9423a695e81ad1eb59081019083015b81811062000678575062000490565b6000815560010162000669565b60019060208451940193818401550162000450565b600c6000527fdf6966c971051c3d54ec59162606531493a51404a002842f56009d7e5cf4a8c79081019083015b818110620006d657506200043f565b60008155600101620006c7565b600190602084519401938184015501620003ff565b600b6000527f0175b7a638427703f0dbe7bb9bbf987a2551717b34e79f33b5b1008d1fa01db99081019083015b818110620007345750620003ee565b6000815560010162000725565b600190602084519401938184015501620003ae565b600a6000527fc65a7bb8d6351c1cf70c95a316cc6a92839c986682d98bc35f958f4883f9d2a89081019083015b8181106200079257506200039d565b6000815560010162000783565b6001906020845194019381840155016200035d565b60096000527f6e1540171b6c0c960b71a7020d9f60077f6af931a8bbf590da0223dacf75c7af9081019083015b818110620007f057506200034c565b60008155600101620007e1565b6001906020845194019381840155016200030c565b60086000527ff3f7a9fe364faab93b216da50a3214154f22a0a2b415b23a84c8169e8b636ee39081019083015b8181106200084e5750620002fb565b600081556001016200083f565b600190602084519401938184015501620002bb565b60026000527f405787fa12a823e0f2b7631cc41b3ba8828b3321ca811111fa75cd3aa3bb5ace908382015b8183018110620008ad575050620002ad565b600081556001016200089b565b6001906020845194019381840155016200026d565b60016000527fb10e2d527612073b26eecdfd717e6a320cf44b4afac2b0732d9fcbe2b7fa0cf6908382015b81830181106200090c5750506200025c565b60008155600101620008fa565b6001906020845194019381840155016200021c565b600080527f290decd9548b62a8d60345a988386fc84ba6bc95484008f6362f93160ef3e5639081019084015b81811062000969575062000209565b600081556001016200095a565b600080fd5b6040519190601f01601f191682016001600160401b03811183821017620005b357604052565b81601f8201121562000976578051916020916001600160401b038411620005b3578360051b908380620009d68185016200097b565b80978152019282010192831162000976578301905b828210620009fa575050505090565b81518152908301908301620009eb56fe6040608081526004908136101561001557600080fd5b600091823560e01c806316b5192814610ce3578063205c9cc714610cc4578063364132d914610c38578063375a105e14610c0e57806348e257cb14610bef5780634d985ae414610bd05780634eb274ff14610b835780635f57697c14610b645780636f24077414610b3a5780637398ab1814610ad957806378b6d7d414610aaf57806390ccfa0f14610a86578063957b405614610a5c57806396d14da614610a0f578063973b9cc11461074e578063a86853d514610724578063ab1bbeca146106d4578063b6ce670914610684578063d0c6c7af14610667578063e329143f14610617578063f6451c0a146101505763f7a95a9e1461011357600080fd5b3461014c57602036600319011261014c5735918054831015610149575061013b602092610e32565b91905490519160031b1c8152f35b80fd5b8280fd5b5091903461061357816003193601126106135760105481516302989b4b60e61b815260209390916001600160a01b031684838781845afa8015610609579082918793906105d5575b8394508683945482116105a3575b50508451631e385f6960e01b815293849182905afa9182156105975781926104fd575b5081518154036104c557805b81548110156104c1576101e781610e32565b905485514288820190815260208101859052600393841b9290921c604083015280606083010390610220601f1992838101835282610e7c565b6064928391519020066001918286018087116104ae57896102ba6102c68d95948860659561027a6102868d8f61025590610d8d565b9054911b1c88519283918d830195428791606093918352602083015260408201520190565b03858101835282610e7c565b51902006966102948c610d8d565b9054908c1b1c94519384918201958d428891606093918352602083015260408201520190565b03908101835282610e7c565b5190200792603119840193841316610499576103ad926103858593846103758961037061037c8f98839c60019f9e8f9b6103706103678e61038a9f610339816103336103759861031861034f95610dfb565b905490821b1c9061032884610e32565b9054911b1c90610f69565b96610ecc565b5161034383610e32565b9054908d1b1c90610f69565b9961035c60055492610d8d565b9054911b1c90610f19565b94600654610f19565b610f19565b0590610f3c565b94600754610f19565b610f3c565b0561039484610d8d565b90919082549060031b91821b91600019901b1916179055565b6103e06103d76103bc84610e32565b905490841b1c6103cb85610d8d565b905490851b1c90610f3c565b61039484610e32565b61040f6103ec83610dfb565b905490831b1c6104096103fe85610d56565b905490851b1c610f03565b90610f69565b61043e61041b84610dfb565b905490841b1c61043861042d86610dc4565b905490861b1c610f03565b90610f3c565b9181839261044b86610e32565b905490841b1c12610486575b5061046184610e32565b9054911b1c13610473575b50016101d5565b6104809061039483610e32565b3861046c565b6104939061039486610e32565b38610457565b60118b634e487b7160e01b6000525260246000fd5b634e487b7160e01b885260118c52602488fd5b5080f35b825162461bcd60e51b8152808601859052601260248201527144696d656e7369756e6920696e6567616c6560701b6044820152606490fd5b9091503d8083833e61050f8183610e7c565b810190848183031261014c5780519067ffffffffffffffff821161059357019080601f8301121561014c57815161054581610eb4565b9261055286519485610e7c565b818452868085019260051b82010192831161058f5786809101915b83831061057f575050505090386101c9565b825181529181019187910161056d565b8480fd5b8380fd5b508251903d90823e3d90fd5b817fc06999d659d5132dd93a1915097da1a6a24201916389e38da2404e4bca5e59be9287558751908152a138866101a6565b509150918481813d8311610602575b6105ee8183610e7c565b8101031261014c5751859283929091610198565b503d6105e4565b84513d84823e3d90fd5b5080fd5b503461014c57602036600319011261014c5735600d5481101561014c5760209250600d6000527fd7b6990105719101dabeb77144f2a3385c8033acd3af97e9423a695e81ad1eb501549051908152f35b503461014c578260031936011261014c5760209250549051908152f35b503461014c57602036600319011261014c5735600b5481101561014c5760209250600b6000527f0175b7a638427703f0dbe7bb9bbf987a2551717b34e79f33b5b1008d1fa01db901549051908152f35b503461014c57602036600319011261014c573560095481101561014c576020925060096000527f6e1540171b6c0c960b71a7020d9f60077f6af931a8bbf590da0223dacf75c7af01549051908152f35b503461014c57602036600319011261014c573591600254831015610149575061013b602092610dfb565b50903461014c5760031991838336011261059357610780825161077b816107748161117a565b0382610e7c565b610f82565b60039060035481126108eb575b600e549061079a82610eb4565b926107a786519485610e7c565b8284526107b383610eb4565b926020916020860194601f1901368637895b82811061089a5750506010546001600160a01b0316949050843b156108965796929088949260208851998a96632fc0395f60e01b885260608a89015261080d6064890161117a565b9360248901528784030160448801525191828152019291865b82811061087c57505050508383809203925af1801561087257610847578380f35b67ffffffffffffffff831161085f5750523880808380f35b634e487b7160e01b845260419052602483fd5b82513d86823e3d90fd5b835185528b97508a96509381019392810192600101610826565b8880fd5b6108a381610dc4565b905490831b1c6108b282610d56565b905490841b1c81018091116108d85790600191821c6108d1828a610ecc565b52016107c5565b634e487b7160e01b8c526011895260248cfd5b80600355855467ffffffffffffffff81116109fc576801000000000000000081116109fc57600254816002558082106109bc575b507f290decd9548b62a8d60345a988386fc84ba6bc95484008f6362f93160ef3e5636002885280549088915b838310610986575050505083518181527f409d103f7876158f293a85ee39f235ce0c309ab1aca81024a51dfb4b471e556e60203092a261078d565b60018091920192835492817f405787fa12a823e0f2b7631cc41b3ba8828b3321ca811111fa75cd3aa3bb5ace015501919061094b565b817f405787fa12a823e0f2b7631cc41b3ba8828b3321ca811111fa75cd3aa3bb5ace91820191015b8181106109f1575061091f565b8881556001016109e4565b634e487b7160e01b875260418452602487fd5b503461014c57602036600319011261014c5735600a5481101561014c57600a602093527fc65a7bb8d6351c1cf70c95a316cc6a92839c986682d98bc35f958f4883f9d2a801549051908152f35b50913461014957816003193601126101495750610a7f60209260243590356111d3565b9051908152f35b50503461061357816003193601126106135760105490516001600160a01b039091168152602090f35b503461014c57602036600319011261014c573591600e54831015610149575061013b602092610dc4565b5050346106135781600319360112610613578051610afa816107748161117a565b815192839260208080860192818752855180945286019401925b828110610b2357505050500390f35b835185528695509381019392810192600101610b14565b503461014c57602036600319011261014c573591600154831015610149575061013b602092610d8d565b5050346106135781600319360112610613576020906006549051908152f35b503461014c57602036600319011261014c5735600c5481101561014c57600c602093527fdf6966c971051c3d54ec59162606531493a51404a002842f56009d7e5cf4a8c701549051908152f35b5050346106135781600319360112610613576020906003549051908152f35b5050346106135781600319360112610613576020906007549051908152f35b503461014c57602036600319011261014c573591600f54831015610149575061013b602092610d56565b5091346101495760209060206003193601126101495783359367ffffffffffffffff8511610613573660238601121561061357840135610c7781610eb4565b94610c8485519687610e7c565b8186526024602087019260051b820101923684116101495750602401905b828210610cb557602085610a7f88610f82565b81358152908301908301610ca2565b5050346106135781600319360112610613576020906005549051908152f35b503461014c57602036600319011261014c573591600854831015610149575061013b6020925b600854811015610d405760086000527ff3f7a9fe364faab93b216da50a3214154f22a0a2b415b23a84c8169e8b636ee30190600090565b634e487b7160e01b600052603260045260246000fd5b600f54811015610d4057600f6000527f8d1108e10bcb7c27dddfc02ed9d693a074039d026cf4ea4240b40f7d581ac8020190600090565b600154811015610d405760016000527fb10e2d527612073b26eecdfd717e6a320cf44b4afac2b0732d9fcbe2b7fa0cf60190600090565b600e54811015610d4057600e6000527fbb7b4a454dc3493923482f07822329ed19e8244eff582cc204f8554c3620c3fd0190600090565b600254811015610d405760026000527f405787fa12a823e0f2b7631cc41b3ba8828b3321ca811111fa75cd3aa3bb5ace0190600090565b906000918254811015610e68578280527f290decd9548b62a8d60345a988386fc84ba6bc95484008f6362f93160ef3e563019190565b634e487b7160e01b83526032600452602483fd5b90601f8019910116810190811067ffffffffffffffff821117610e9e57604052565b634e487b7160e01b600052604160045260246000fd5b67ffffffffffffffff8111610e9e5760051b60200190565b8051821015610d405760209160051b010190565b91908203918211610eed57565b634e487b7160e01b600052601160045260246000fd5b908160011b9180830560021490151715610eed57565b818102929160008212600160ff1b821416610eed578184051490151715610eed57565b91909160008382019384129112908015821691151617610eed57565b600160ff1b8114610eed5760000390565b81810392916000138015828513169184121617610eed57565b600090805160405180600a54808252602080920190600a87527fc65a7bb8d6351c1cf70c95a316cc6a92839c986682d98bc35f958f4883f9d2a890875b8181106111665750505082610fd5910383610e7c565b60405180916020600c54928381520191600c88527fdf6966c971051c3d54ec59162606531493a51404a002842f56009d7e5cf4a8c79188905b82821061114f575050505081611025910382610e7c565b84935b83851061103757505050505090565b90919293946001906110498784610ecc565b51906000821215611080576104098261106e611068611074958c6111d3565b91610f58565b90610f19565b955b0193929190611028565b6110fe9180806110908b8a610ecc565b511061112e57506110ab906110a58a89610ecc565b51610ee0565b6110b58988610ecc565b5260005b806110c48a88610ecc565b5110611104576110d8906110a58a88610ecc565b6110e28987610ecc565b5261043860005b6110f28a610d09565b90549060031b1c610f19565b95611076565b61111c610438916111158b89610ecc565b5190610ee0565b60006111288b89610ecc565b526110e9565b61113d91506111158a89610ecc565b60006111498a89610ecc565b526110b9565b83548552938401936001938401939091019061100e565b825484529284019260019283019201610fbf565b600080548083528180526020928301927f290decd9548b62a8d60345a988386fc84ba6bc95484008f6362f93160ef3e56392905b8282106111bc575050505090565b8354855293840193600193840193909101906111ae565b6111dc90610d09565b90549060031b1c9060008112600014611233576111f890610f58565b60011c60140180601411610eed576028811161122b575b6064039060648211610eed5760649161122791610f19565b0590565b50602861120f565b509056fea26469706673582212209525154424598dc46693d69221d41f0e81a519e270239b3c4f1e9d3d680667d964736f6c63430008170033","opcodes":"PUSH1 0x80 PUSH1 0x40 MSTORE CALLVALUE PUSH3 0x976 JUMPI PUSH3 0x1C78 DUP1 CODESIZE SUB DUP1 PUSH3 0x1D DUP2 PUSH3 0x97B JUMP JUMPDEST SWAP3 DUP4 CODECOPY DUP2 ADD PUSH2 0x160 DUP3 DUP3 SUB SLT PUSH3 0x976 JUMPI DUP2 MLOAD PUSH1 0x1 PUSH1 0x1 PUSH1 0xA0 SHL SUB DUP2 AND SWAP3 SWAP1 DUP4 SWAP1 SUB PUSH3 0x976 JUMPI PUSH1 0x20 DUP2 ADD MLOAD PUSH1 0x1 PUSH1 0x1 PUSH1 0x40 SHL SUB DUP2 GT PUSH3 0x976 JUMPI DUP3 PUSH3 0x66 SWAP2 DUP4 ADD PUSH3 0x9A1 JUMP JUMPDEST PUSH1 0x40 DUP3 ADD MLOAD PUSH1 0x1 PUSH1 0x1 PUSH1 0x40 SHL SUB DUP2 GT PUSH3 0x976 JUMPI DUP4 PUSH3 0x88 SWAP2 DUP5 ADD PUSH3 0x9A1 JUMP JUMPDEST PUSH1 0x60 DUP4 ADD MLOAD PUSH1 0x1 PUSH1 0x1 PUSH1 0x40 SHL SUB DUP2 GT PUSH3 0x976 JUMPI DUP5 PUSH3 0xAA SWAP2 DUP6 ADD PUSH3 0x9A1 JUMP JUMPDEST PUSH1 0x80 DUP5 ADD MLOAD PUSH1 0x1 PUSH1 0x1 PUSH1 0x40 SHL SUB DUP2 GT PUSH3 0x976 JUMPI DUP6 PUSH3 0xCC SWAP2 DUP7 ADD PUSH3 0x9A1 JUMP JUMPDEST PUSH1 0xA0 DUP6 ADD MLOAD PUSH1 0x1 PUSH1 0x1 PUSH1 0x40 SHL SUB DUP2 GT PUSH3 0x976 JUMPI DUP7 PUSH3 0xEE SWAP2 DUP8 ADD PUSH3 0x9A1 JUMP JUMPDEST PUSH1 0xC0 DUP7 ADD MLOAD SWAP1 SWAP3 SWAP1 PUSH1 0x1 PUSH1 0x1 PUSH1 0x40 SHL SUB DUP2 GT PUSH3 0x976 JUMPI DUP8 PUSH3 0x113 SWAP2 DUP9 ADD PUSH3 0x9A1 JUMP JUMPDEST PUSH1 0xE0 DUP8 ADD MLOAD SWAP1 SWAP5 SWAP1 PUSH1 0x1 PUSH1 0x1 PUSH1 0x40 SHL SUB DUP2 GT PUSH3 0x976 JUMPI DUP9 PUSH3 0x138 SWAP2 DUP10 ADD PUSH3 0x9A1 JUMP JUMPDEST PUSH2 0x100 DUP9 ADD MLOAD SWAP1 SWAP7 SWAP1 PUSH1 0x1 PUSH1 0x1 PUSH1 0x40 SHL SUB DUP2 GT PUSH3 0x976 JUMPI DUP10 PUSH3 0x15E SWAP2 DUP11 ADD PUSH3 0x9A1 JUMP JUMPDEST PUSH2 0x120 DUP10 ADD MLOAD SWAP1 SWAP9 SWAP1 PUSH1 0x1 PUSH1 0x1 PUSH1 0x40 SHL SUB DUP2 GT PUSH3 0x976 JUMPI DUP11 PUSH3 0x184 SWAP2 DUP4 ADD PUSH3 0x9A1 JUMP JUMPDEST PUSH2 0x140 DUP3 ADD MLOAD SWAP1 SWAP11 SWAP1 PUSH1 0x1 PUSH1 0x1 PUSH1 0x40 SHL SUB DUP2 GT PUSH3 0x976 JUMPI PUSH3 0x1A8 SWAP3 ADD PUSH3 0x9A1 JUMP JUMPDEST PUSH1 0x1 PUSH1 0x1 PUSH1 0xFF SHL SUB PUSH1 0x3 SSTORE PUSH1 0x32 PUSH1 0x5 SSTORE PUSH1 0xC8 PUSH1 0x6 DUP2 SWAP1 SSTORE PUSH1 0x7 SSTORE PUSH1 0x10 DUP1 SLOAD PUSH1 0x1 PUSH1 0x1 PUSH1 0xA0 SHL SUB NOT AND SWAP1 SWAP12 OR SWAP1 SWAP11 SSTORE DUP1 MLOAD SWAP2 PUSH1 0x1 PUSH1 0x1 PUSH1 0x40 SHL SUB DUP4 GT PUSH3 0x5B3 JUMPI PUSH9 0x10000000000000000 DUP4 GT PUSH3 0x5B3 JUMPI PUSH1 0x0 SLOAD DUP4 PUSH1 0x0 SSTORE DUP1 DUP5 LT PUSH3 0x92E JUMPI JUMPDEST POP PUSH1 0x20 DUP3 ADD SWAP3 DUP4 PUSH1 0x0 DUP1 MSTORE PUSH1 0x20 PUSH1 0x0 KECCAK256 PUSH1 0x0 JUMPDEST DUP4 DUP2 LT PUSH3 0x919 JUMPI POP POP DUP3 MLOAD SWAP3 SWAP2 POP POP PUSH1 0x1 PUSH1 0x1 PUSH1 0x40 SHL SUB DUP3 GT PUSH3 0x5B3 JUMPI PUSH9 0x10000000000000000 DUP3 GT PUSH3 0x5B3 JUMPI PUSH1 0x1 SLOAD DUP3 PUSH1 0x1 SSTORE DUP1 DUP4 LT PUSH3 0x8CF JUMPI JUMPDEST POP PUSH1 0x20 ADD PUSH1 0x1 PUSH1 0x0 MSTORE PUSH1 0x20 PUSH1 0x0 KECCAK256 PUSH1 0x0 JUMPDEST DUP4 DUP2 LT PUSH3 0x8BA JUMPI POP POP SWAP2 MLOAD SWAP3 SWAP2 POP POP PUSH1 0x1 PUSH1 0x1 PUSH1 0x40 SHL SUB DUP3 GT PUSH3 0x5B3 JUMPI PUSH9 0x10000000000000000 DUP3 GT PUSH3 0x5B3 JUMPI PUSH1 0x2 SLOAD DUP3 PUSH1 0x2 SSTORE DUP1 DUP4 LT PUSH3 0x870 JUMPI JUMPDEST POP PUSH1 0x2 PUSH1 0x0 MSTORE PUSH1 0x20 PUSH1 0x0 KECCAK256 PUSH1 0x0 JUMPDEST DUP4 DUP2 LT PUSH3 0x85B JUMPI POP POP DUP3 MLOAD SWAP3 SWAP2 POP POP PUSH1 0x1 PUSH1 0x1 PUSH1 0x40 SHL SUB DUP3 GT PUSH3 0x5B3 JUMPI PUSH9 0x10000000000000000 DUP3 GT PUSH3 0x5B3 JUMPI PUSH1 0x8 SLOAD DUP3 PUSH1 0x8 SSTORE DUP1 DUP4 LT PUSH3 0x812 JUMPI JUMPDEST POP PUSH1 0x20 ADD PUSH1 0x8 PUSH1 0x0 MSTORE PUSH1 0x20 PUSH1 0x0 KECCAK256 PUSH1 0x0 JUMPDEST DUP4 DUP2 LT PUSH3 0x7FD JUMPI POP POP DUP3 MLOAD SWAP3 SWAP2 POP POP PUSH1 0x1 PUSH1 0x1 PUSH1 0x40 SHL SUB DUP3 GT PUSH3 0x5B3 JUMPI PUSH9 0x10000000000000000 DUP3 GT PUSH3 0x5B3 JUMPI PUSH1 0x9 SLOAD DUP3 PUSH1 0x9 SSTORE DUP1 DUP4 LT PUSH3 0x7B4 JUMPI JUMPDEST POP PUSH1 0x20 ADD PUSH1 0x9 PUSH1 0x0 MSTORE PUSH1 0x20 PUSH1 0x0 KECCAK256 PUSH1 0x0 JUMPDEST DUP4 DUP2 LT PUSH3 0x79F JUMPI POP POP DUP3 MLOAD SWAP3 SWAP2 POP POP PUSH1 0x1 PUSH1 0x1 PUSH1 0x40 SHL SUB DUP3 GT PUSH3 0x5B3 JUMPI PUSH9 0x10000000000000000 DUP3 GT PUSH3 0x5B3 JUMPI PUSH1 0xA SLOAD DUP3 PUSH1 0xA SSTORE DUP1 DUP4 LT PUSH3 0x756 JUMPI JUMPDEST POP PUSH1 0x20 ADD PUSH1 0xA PUSH1 0x0 MSTORE PUSH1 0x20 PUSH1 0x0 KECCAK256 PUSH1 0x0 JUMPDEST DUP4 DUP2 LT PUSH3 0x741 JUMPI POP POP DUP3 MLOAD SWAP3 SWAP2 POP POP PUSH1 0x1 PUSH1 0x1 PUSH1 0x40 SHL SUB DUP3 GT PUSH3 0x5B3 JUMPI PUSH9 0x10000000000000000 DUP3 GT PUSH3 0x5B3 JUMPI PUSH1 0xB SLOAD DUP3 PUSH1 0xB SSTORE DUP1 DUP4 LT PUSH3 0x6F8 JUMPI JUMPDEST POP PUSH1 0x20 ADD PUSH1 0xB PUSH1 0x0 MSTORE PUSH1 0x20 PUSH1 0x0 KECCAK256 PUSH1 0x0 JUMPDEST DUP4 DUP2 LT PUSH3 0x6E3 JUMPI POP POP DUP3 MLOAD SWAP3 SWAP2 POP POP PUSH1 0x1 PUSH1 0x1 PUSH1 0x40 SHL SUB DUP3 GT PUSH3 0x5B3 JUMPI PUSH9 0x10000000000000000 DUP3 GT PUSH3 0x5B3 JUMPI PUSH1 0xC SLOAD DUP3 PUSH1 0xC SSTORE DUP1 DUP4 LT PUSH3 0x69A JUMPI JUMPDEST POP PUSH1 0x20 ADD PUSH1 0xC PUSH1 0x0 MSTORE PUSH1 0x20 PUSH1 0x0 KECCAK256 PUSH1 0x0 JUMPDEST DUP4 DUP2 LT PUSH3 0x685 JUMPI POP POP DUP3 MLOAD SWAP3 SWAP2 POP POP PUSH1 0x1 PUSH1 0x1 PUSH1 0x40 SHL SUB DUP3 GT PUSH3 0x5B3 JUMPI PUSH9 0x10000000000000000 DUP3 GT PUSH3 0x5B3 JUMPI PUSH1 0xD SLOAD DUP3 PUSH1 0xD SSTORE DUP1 DUP4 LT PUSH3 0x63C JUMPI JUMPDEST POP PUSH1 0x20 ADD PUSH1 0xD PUSH1 0x0 MSTORE PUSH1 0x20 PUSH1 0x0 KECCAK256 PUSH1 0x0 JUMPDEST DUP4 DUP2 LT PUSH3 0x627 JUMPI DUP5 MLOAD DUP7 SWAP1 DUP7 PUSH1 0x1 PUSH1 0x1 PUSH1 0x40 SHL SUB DUP3 GT PUSH3 0x5B3 JUMPI PUSH9 0x10000000000000000 DUP3 GT PUSH3 0x5B3 JUMPI PUSH1 0xE SLOAD DUP3 PUSH1 0xE SSTORE DUP1 DUP4 LT PUSH3 0x5DE JUMPI JUMPDEST POP PUSH1 0x20 ADD PUSH1 0xE PUSH1 0x0 MSTORE PUSH1 0x20 PUSH1 0x0 KECCAK256 PUSH1 0x0 JUMPDEST DUP4 DUP2 LT PUSH3 0x5C9 JUMPI DUP5 MLOAD DUP6 PUSH1 0x1 PUSH1 0x1 PUSH1 0x40 SHL SUB DUP3 GT PUSH3 0x5B3 JUMPI PUSH9 0x10000000000000000 DUP3 GT PUSH3 0x5B3 JUMPI PUSH1 0xF SLOAD DUP3 PUSH1 0xF SSTORE DUP1 DUP4 LT PUSH3 0x56A JUMPI JUMPDEST POP PUSH1 0x20 ADD SWAP1 PUSH1 0xF PUSH1 0x0 MSTORE PUSH1 0x20 PUSH1 0x0 KECCAK256 SWAP2 PUSH1 0x0 JUMPDEST DUP3 DUP2 LT PUSH3 0x555 JUMPI PUSH1 0x40 MLOAD PUSH2 0x126D SWAP1 DUP2 PUSH3 0xA0B DUP3 CODECOPY RETURN JUMPDEST PUSH1 0x1 SWAP1 PUSH1 0x20 DUP4 MLOAD SWAP4 ADD SWAP3 DUP2 DUP7 ADD SSTORE ADD PUSH3 0x53D JUMP JUMPDEST PUSH1 0xF PUSH1 0x0 MSTORE PUSH32 0x8D1108E10BCB7C27DDDFC02ED9D693A074039D026CF4EA4240B40F7D581AC802 SWAP1 DUP2 ADD SWAP1 DUP4 ADD JUMPDEST DUP2 DUP2 LT PUSH3 0x5A6 JUMPI POP PUSH3 0x52A JUMP JUMPDEST PUSH1 0x0 DUP2 SSTORE PUSH1 0x1 ADD PUSH3 0x597 JUMP JUMPDEST PUSH4 0x4E487B71 PUSH1 0xE0 SHL PUSH1 0x0 MSTORE PUSH1 0x41 PUSH1 0x4 MSTORE PUSH1 0x24 PUSH1 0x0 REVERT JUMPDEST PUSH1 0x1 SWAP1 PUSH1 0x20 DUP5 MLOAD SWAP5 ADD SWAP4 DUP2 DUP5 ADD SSTORE ADD PUSH3 0x4EF JUMP JUMPDEST PUSH1 0xE PUSH1 0x0 MSTORE PUSH32 0xBB7B4A454DC3493923482F07822329ED19E8244EFF582CC204F8554C3620C3FD SWAP1 DUP2 ADD SWAP1 DUP4 ADD JUMPDEST DUP2 DUP2 LT PUSH3 0x61A JUMPI POP PUSH3 0x4DE JUMP JUMPDEST PUSH1 0x0 DUP2 SSTORE PUSH1 0x1 ADD PUSH3 0x60B JUMP JUMPDEST PUSH1 0x1 SWAP1 PUSH1 0x20 DUP5 MLOAD SWAP5 ADD SWAP4 DUP2 DUP5 ADD SSTORE ADD PUSH3 0x4A1 JUMP JUMPDEST PUSH1 0xD PUSH1 0x0 MSTORE PUSH32 0xD7B6990105719101DABEB77144F2A3385C8033ACD3AF97E9423A695E81AD1EB5 SWAP1 DUP2 ADD SWAP1 DUP4 ADD JUMPDEST DUP2 DUP2 LT PUSH3 0x678 JUMPI POP PUSH3 0x490 JUMP JUMPDEST PUSH1 0x0 DUP2 SSTORE PUSH1 0x1 ADD PUSH3 0x669 JUMP JUMPDEST PUSH1 0x1 SWAP1 PUSH1 0x20 DUP5 MLOAD SWAP5 ADD SWAP4 DUP2 DUP5 ADD SSTORE ADD PUSH3 0x450 JUMP JUMPDEST PUSH1 0xC PUSH1 0x0 MSTORE PUSH32 0xDF6966C971051C3D54EC59162606531493A51404A002842F56009D7E5CF4A8C7 SWAP1 DUP2 ADD SWAP1 DUP4 ADD JUMPDEST DUP2 DUP2 LT PUSH3 0x6D6 JUMPI POP PUSH3 0x43F JUMP JUMPDEST PUSH1 0x0 DUP2 SSTORE PUSH1 0x1 ADD PUSH3 0x6C7 JUMP JUMPDEST PUSH1 0x1 SWAP1 PUSH1 0x20 DUP5 MLOAD SWAP5 ADD SWAP4 DUP2 DUP5 ADD SSTORE ADD PUSH3 0x3FF JUMP JUMPDEST PUSH1 0xB PUSH1 0x0 MSTORE PUSH32 0x175B7A638427703F0DBE7BB9BBF987A2551717B34E79F33B5B1008D1FA01DB9 SWAP1 DUP2 ADD SWAP1 DUP4 ADD JUMPDEST DUP2 DUP2 LT PUSH3 0x734 JUMPI POP PUSH3 0x3EE JUMP JUMPDEST PUSH1 0x0 DUP2 SSTORE PUSH1 0x1 ADD PUSH3 0x725 JUMP JUMPDEST PUSH1 0x1 SWAP1 PUSH1 0x20 DUP5 MLOAD SWAP5 ADD SWAP4 DUP2 DUP5 ADD SSTORE ADD PUSH3 0x3AE JUMP JUMPDEST PUSH1 0xA PUSH1 0x0 MSTORE PUSH32 0xC65A7BB8D6351C1CF70C95A316CC6A92839C986682D98BC35F958F4883F9D2A8 SWAP1 DUP2 ADD SWAP1 DUP4 ADD JUMPDEST DUP2 DUP2 LT PUSH3 0x792 JUMPI POP PUSH3 0x39D JUMP JUMPDEST PUSH1 0x0 DUP2 SSTORE PUSH1 0x1 ADD PUSH3 0x783 JUMP JUMPDEST PUSH1 0x1 SWAP1 PUSH1 0x20 DUP5 MLOAD SWAP5 ADD SWAP4 DUP2 DUP5 ADD SSTORE ADD PUSH3 0x35D JUMP JUMPDEST PUSH1 0x9 PUSH1 0x0 MSTORE PUSH32 0x6E1540171B6C0C960B71A7020D9F60077F6AF931A8BBF590DA0223DACF75C7AF SWAP1 DUP2 ADD SWAP1 DUP4 ADD JUMPDEST DUP2 DUP2 LT PUSH3 0x7F0 JUMPI POP PUSH3 0x34C JUMP JUMPDEST PUSH1 0x0 DUP2 SSTORE PUSH1 0x1 ADD PUSH3 0x7E1 JUMP JUMPDEST PUSH1 0x1 SWAP1 PUSH1 0x20 DUP5 MLOAD SWAP5 ADD SWAP4 DUP2 DUP5 ADD SSTORE ADD PUSH3 0x30C JUMP JUMPDEST PUSH1 0x8 PUSH1 0x0 MSTORE PUSH32 0xF3F7A9FE364FAAB93B216DA50A3214154F22A0A2B415B23A84C8169E8B636EE3 SWAP1 DUP2 ADD SWAP1 DUP4 ADD JUMPDEST DUP2 DUP2 LT PUSH3 0x84E JUMPI POP PUSH3 0x2FB JUMP JUMPDEST PUSH1 0x0 DUP2 SSTORE PUSH1 0x1 ADD PUSH3 0x83F JUMP JUMPDEST PUSH1 0x1 SWAP1 PUSH1 0x20 DUP5 MLOAD SWAP5 ADD SWAP4 DUP2 DUP5 ADD SSTORE ADD PUSH3 0x2BB JUMP JUMPDEST PUSH1 0x2 PUSH1 0x0 MSTORE PUSH32 0x405787FA12A823E0F2B7631CC41B3BA8828B3321CA811111FA75CD3AA3BB5ACE SWAP1 DUP4 DUP3 ADD JUMPDEST DUP2 DUP4 ADD DUP2 LT PUSH3 0x8AD JUMPI POP POP PUSH3 0x2AD JUMP JUMPDEST PUSH1 0x0 DUP2 SSTORE PUSH1 0x1 ADD PUSH3 0x89B JUMP JUMPDEST PUSH1 0x1 SWAP1 PUSH1 0x20 DUP5 MLOAD SWAP5 ADD SWAP4 DUP2 DUP5 ADD SSTORE ADD PUSH3 0x26D JUMP JUMPDEST PUSH1 0x1 PUSH1 0x0 MSTORE PUSH32 0xB10E2D527612073B26EECDFD717E6A320CF44B4AFAC2B0732D9FCBE2B7FA0CF6 SWAP1 DUP4 DUP3 ADD JUMPDEST DUP2 DUP4 ADD DUP2 LT PUSH3 0x90C JUMPI POP POP PUSH3 0x25C JUMP JUMPDEST PUSH1 0x0 DUP2 SSTORE PUSH1 0x1 ADD PUSH3 0x8FA JUMP JUMPDEST PUSH1 0x1 SWAP1 PUSH1 0x20 DUP5 MLOAD SWAP5 ADD SWAP4 DUP2 DUP5 ADD SSTORE ADD PUSH3 0x21C JUMP JUMPDEST PUSH1 0x0 DUP1 MSTORE PUSH32 0x290DECD9548B62A8D60345A988386FC84BA6BC95484008F6362F93160EF3E563 SWAP1 DUP2 ADD SWAP1 DUP5 ADD JUMPDEST DUP2 DUP2 LT PUSH3 0x969 JUMPI POP PUSH3 0x209 JUMP JUMPDEST PUSH1 0x0 DUP2 SSTORE PUSH1 0x1 ADD PUSH3 0x95A JUMP JUMPDEST PUSH1 0x0 DUP1 REVERT JUMPDEST PUSH1 0x40 MLOAD SWAP2 SWAP1 PUSH1 0x1F ADD PUSH1 0x1F NOT AND DUP3 ADD PUSH1 0x1 PUSH1 0x1 PUSH1 0x40 SHL SUB DUP2 GT DUP4 DUP3 LT OR PUSH3 0x5B3 JUMPI PUSH1 0x40 MSTORE JUMP JUMPDEST DUP2 PUSH1 0x1F DUP3 ADD SLT ISZERO PUSH3 0x976 JUMPI DUP1 MLOAD SWAP2 PUSH1 0x20 SWAP2 PUSH1 0x1 PUSH1 0x1 PUSH1 0x40 SHL SUB DUP5 GT PUSH3 0x5B3 JUMPI DUP4 PUSH1 0x5 SHL SWAP1 DUP4 DUP1 PUSH3 0x9D6 DUP2 DUP6 ADD PUSH3 0x97B JUMP JUMPDEST DUP1 SWAP8 DUP2 MSTORE ADD SWAP3 DUP3 ADD ADD SWAP3 DUP4 GT PUSH3 0x976 JUMPI DUP4 ADD SWAP1 JUMPDEST DUP3 DUP3 LT PUSH3 0x9FA JUMPI POP POP POP POP SWAP1 JUMP JUMPDEST DUP2 MLOAD DUP2 MSTORE SWAP1 DUP4 ADD SWAP1 DUP4 ADD PUSH3 0x9EB JUMP INVALID PUSH1 0x40 PUSH1 0x80 DUP2 MSTORE PUSH1 0x4 SWAP1 DUP2 CALLDATASIZE LT ISZERO PUSH2 0x15 JUMPI PUSH1 0x0 DUP1 REVERT JUMPDEST PUSH1 0x0 SWAP2 DUP3 CALLDATALOAD PUSH1 0xE0 SHR DUP1 PUSH4 0x16B51928 EQ PUSH2 0xCE3 JUMPI DUP1 PUSH4 0x205C9CC7 EQ PUSH2 0xCC4 JUMPI DUP1 PUSH4 0x364132D9 EQ PUSH2 0xC38 JUMPI DUP1 PUSH4 0x375A105E EQ PUSH2 0xC0E JUMPI DUP1 PUSH4 0x48E257CB EQ PUSH2 0xBEF JUMPI DUP1 PUSH4 0x4D985AE4 EQ PUSH2 0xBD0 JUMPI DUP1 PUSH4 0x4EB274FF EQ PUSH2 0xB83 JUMPI DUP1 PUSH4 0x5F57697C EQ PUSH2 0xB64 JUMPI DUP1 PUSH4 0x6F240774 EQ PUSH2 0xB3A JUMPI DUP1 PUSH4 0x7398AB18 EQ PUSH2 0xAD9 JUMPI DUP1 PUSH4 0x78B6D7D4 EQ PUSH2 0xAAF JUMPI DUP1 PUSH4 0x90CCFA0F EQ PUSH2 0xA86 JUMPI DUP1 PUSH4 0x957B4056 EQ PUSH2 0xA5C JUMPI DUP1 PUSH4 0x96D14DA6 EQ PUSH2 0xA0F JUMPI DUP1 PUSH4 0x973B9CC1 EQ PUSH2 0x74E JUMPI DUP1 PUSH4 0xA86853D5 EQ PUSH2 0x724 JUMPI DUP1 PUSH4 0xAB1BBECA EQ PUSH2 0x6D4 JUMPI DUP1 PUSH4 0xB6CE6709 EQ PUSH2 0x684 JUMPI DUP1 PUSH4 0xD0C6C7AF EQ PUSH2 0x667 JUMPI DUP1 PUSH4 0xE329143F EQ PUSH2 0x617 JUMPI DUP1 PUSH4 0xF6451C0A EQ PUSH2 0x150 JUMPI PUSH4 0xF7A95A9E EQ PUSH2 0x113 JUMPI PUSH1 0x0 DUP1 REVERT JUMPDEST CALLVALUE PUSH2 0x14C JUMPI PUSH1 0x20 CALLDATASIZE PUSH1 0x3 NOT ADD SLT PUSH2 0x14C JUMPI CALLDATALOAD SWAP2 DUP1 SLOAD DUP4 LT ISZERO PUSH2 0x149 JUMPI POP PUSH2 0x13B PUSH1 0x20 SWAP3 PUSH2 0xE32 JUMP JUMPDEST SWAP2 SWAP1 SLOAD SWAP1 MLOAD SWAP2 PUSH1 0x3 SHL SHR DUP2 MSTORE RETURN JUMPDEST DUP1 REVERT JUMPDEST DUP3 DUP1 REVERT JUMPDEST POP SWAP2 SWAP1 CALLVALUE PUSH2 0x613 JUMPI DUP2 PUSH1 0x3 NOT CALLDATASIZE ADD SLT PUSH2 0x613 JUMPI PUSH1 0x10 SLOAD DUP2 MLOAD PUSH4 0x2989B4B PUSH1 0xE6 SHL DUP2 MSTORE PUSH1 0x20 SWAP4 SWAP1 SWAP2 PUSH1 0x1 PUSH1 0x1 PUSH1 0xA0 SHL SUB AND DUP5 DUP4 DUP8 DUP2 DUP5 GAS STATICCALL DUP1 ISZERO PUSH2 0x609 JUMPI SWAP1 DUP3 SWAP2 DUP8 SWAP4 SWAP1 PUSH2 0x5D5 JUMPI JUMPDEST DUP4 SWAP5 POP DUP7 DUP4 SWAP5 SLOAD DUP3 GT PUSH2 0x5A3 JUMPI JUMPDEST POP POP DUP5 MLOAD PUSH4 0x1E385F69 PUSH1 0xE0 SHL DUP2 MSTORE SWAP4 DUP5 SWAP2 DUP3 SWAP1 GAS STATICCALL SWAP2 DUP3 ISZERO PUSH2 0x597 JUMPI DUP2 SWAP3 PUSH2 0x4FD JUMPI JUMPDEST POP DUP2 MLOAD DUP2 SLOAD SUB PUSH2 0x4C5 JUMPI DUP1 JUMPDEST DUP2 SLOAD DUP2 LT ISZERO PUSH2 0x4C1 JUMPI PUSH2 0x1E7 DUP2 PUSH2 0xE32 JUMP JUMPDEST SWAP1 SLOAD DUP6 MLOAD TIMESTAMP DUP9 DUP3 ADD SWAP1 DUP2 MSTORE PUSH1 0x20 DUP2 ADD DUP6 SWAP1 MSTORE PUSH1 0x3 SWAP4 DUP5 SHL SWAP3 SWAP1 SWAP3 SHR PUSH1 0x40 DUP4 ADD MSTORE DUP1 PUSH1 0x60 DUP4 ADD SUB SWAP1 PUSH2 0x220 PUSH1 0x1F NOT SWAP3 DUP4 DUP2 ADD DUP4 MSTORE DUP3 PUSH2 0xE7C JUMP JUMPDEST PUSH1 0x64 SWAP3 DUP4 SWAP2 MLOAD SWAP1 KECCAK256 MOD PUSH1 0x1 SWAP2 DUP3 DUP7 ADD DUP1 DUP8 GT PUSH2 0x4AE JUMPI DUP10 PUSH2 0x2BA PUSH2 0x2C6 DUP14 SWAP6 SWAP5 DUP9 PUSH1 0x65 SWAP6 PUSH2 0x27A PUSH2 0x286 DUP14 DUP16 PUSH2 0x255 SWAP1 PUSH2 0xD8D JUMP JUMPDEST SWAP1 SLOAD SWAP2 SHL SHR DUP9 MLOAD SWAP3 DUP4 SWAP2 DUP14 DUP4 ADD SWAP6 TIMESTAMP DUP8 SWAP2 PUSH1 0x60 SWAP4 SWAP2 DUP4 MSTORE PUSH1 0x20 DUP4 ADD MSTORE PUSH1 0x40 DUP3 ADD MSTORE ADD SWAP1 JUMP JUMPDEST SUB DUP6 DUP2 ADD DUP4 MSTORE DUP3 PUSH2 0xE7C JUMP JUMPDEST MLOAD SWAP1 KECCAK256 MOD SWAP7 PUSH2 0x294 DUP13 PUSH2 0xD8D JUMP JUMPDEST SWAP1 SLOAD SWAP1 DUP13 SHL SHR SWAP5 MLOAD SWAP4 DUP5 SWAP2 DUP3 ADD SWAP6 DUP14 TIMESTAMP DUP9 SWAP2 PUSH1 0x60 SWAP4 SWAP2 DUP4 MSTORE PUSH1 0x20 DUP4 ADD MSTORE PUSH1 0x40 DUP3 ADD MSTORE ADD SWAP1 JUMP JUMPDEST SUB SWAP1 DUP2 ADD DUP4 MSTORE DUP3 PUSH2 0xE7C JUMP JUMPDEST MLOAD SWAP1 KECCAK256 SMOD SWAP3 PUSH1 0x31 NOT DUP5 ADD SWAP4 DUP5 SGT AND PUSH2 0x499 JUMPI PUSH2 0x3AD SWAP3 PUSH2 0x385 DUP6 SWAP4 DUP5 PUSH2 0x375 DUP10 PUSH2 0x370 PUSH2 0x37C DUP16 SWAP9 DUP4 SWAP13 PUSH1 0x1 SWAP16 SWAP15 DUP16 SWAP12 PUSH2 0x370 PUSH2 0x367 DUP15 PUSH2 0x38A SWAP16 PUSH2 0x339 DUP2 PUSH2 0x333 PUSH2 0x375 SWAP9 PUSH2 0x318 PUSH2 0x34F SWAP6 PUSH2 0xDFB JUMP JUMPDEST SWAP1 SLOAD SWAP1 DUP3 SHL SHR SWAP1 PUSH2 0x328 DUP5 PUSH2 0xE32 JUMP JUMPDEST SWAP1 SLOAD SWAP2 SHL SHR SWAP1 PUSH2 0xF69 JUMP JUMPDEST SWAP7 PUSH2 0xECC JUMP JUMPDEST MLOAD PUSH2 0x343 DUP4 PUSH2 0xE32 JUMP JUMPDEST SWAP1 SLOAD SWAP1 DUP14 SHL SHR SWAP1 PUSH2 0xF69 JUMP JUMPDEST SWAP10 PUSH2 0x35C PUSH1 0x5 SLOAD SWAP3 PUSH2 0xD8D JUMP JUMPDEST SWAP1 SLOAD SWAP2 SHL SHR SWAP1 PUSH2 0xF19 JUMP JUMPDEST SWAP5 PUSH1 0x6 SLOAD PUSH2 0xF19 JUMP JUMPDEST PUSH2 0xF19 JUMP JUMPDEST SDIV SWAP1 PUSH2 0xF3C JUMP JUMPDEST SWAP5 PUSH1 0x7 SLOAD PUSH2 0xF19 JUMP JUMPDEST PUSH2 0xF3C JUMP JUMPDEST SDIV PUSH2 0x394 DUP5 PUSH2 0xD8D JUMP JUMPDEST SWAP1 SWAP2 SWAP1 DUP3 SLOAD SWAP1 PUSH1 0x3 SHL SWAP2 DUP3 SHL SWAP2 PUSH1 0x0 NOT SWAP1 SHL NOT AND OR SWAP1 SSTORE JUMP JUMPDEST PUSH2 0x3E0 PUSH2 0x3D7 PUSH2 0x3BC DUP5 PUSH2 0xE32 JUMP JUMPDEST SWAP1 SLOAD SWAP1 DUP5 SHL SHR PUSH2 0x3CB DUP6 PUSH2 0xD8D JUMP JUMPDEST SWAP1 SLOAD SWAP1 DUP6 SHL SHR SWAP1 PUSH2 0xF3C JUMP JUMPDEST PUSH2 0x394 DUP5 PUSH2 0xE32 JUMP JUMPDEST PUSH2 0x40F PUSH2 0x3EC DUP4 PUSH2 0xDFB JUMP JUMPDEST SWAP1 SLOAD SWAP1 DUP4 SHL SHR PUSH2 0x409 PUSH2 0x3FE DUP6 PUSH2 0xD56 JUMP JUMPDEST SWAP1 SLOAD SWAP1 DUP6 SHL SHR PUSH2 0xF03 JUMP JUMPDEST SWAP1 PUSH2 0xF69 JUMP JUMPDEST PUSH2 0x43E PUSH2 0x41B DUP5 PUSH2 0xDFB JUMP JUMPDEST SWAP1 SLOAD SWAP1 DUP5 SHL SHR PUSH2 0x438 PUSH2 0x42D DUP7 PUSH2 0xDC4 JUMP JUMPDEST SWAP1 SLOAD SWAP1 DUP7 SHL SHR PUSH2 0xF03 JUMP JUMPDEST SWAP1 PUSH2 0xF3C JUMP JUMPDEST SWAP2 DUP2 DUP4 SWAP3 PUSH2 0x44B DUP7 PUSH2 0xE32 JUMP JUMPDEST SWAP1 SLOAD SWAP1 DUP5 SHL SHR SLT PUSH2 0x486 JUMPI JUMPDEST POP PUSH2 0x461 DUP5 PUSH2 0xE32 JUMP JUMPDEST SWAP1 SLOAD SWAP2 SHL SHR SGT PUSH2 0x473 JUMPI JUMPDEST POP ADD PUSH2 0x1D5 JUMP JUMPDEST PUSH2 0x480 SWAP1 PUSH2 0x394 DUP4 PUSH2 0xE32 JUMP JUMPDEST CODESIZE PUSH2 0x46C JUMP JUMPDEST PUSH2 0x493 SWAP1 PUSH2 0x394 DUP7 PUSH2 0xE32 JUMP JUMPDEST CODESIZE PUSH2 0x457 JUMP JUMPDEST PUSH1 0x11 DUP12 PUSH4 0x4E487B71 PUSH1 0xE0 SHL PUSH1 0x0 MSTORE MSTORE PUSH1 0x24 PUSH1 0x0 REVERT JUMPDEST PUSH4 0x4E487B71 PUSH1 0xE0 SHL DUP9 MSTORE PUSH1 0x11 DUP13 MSTORE PUSH1 0x24 DUP9 REVERT JUMPDEST POP DUP1 RETURN JUMPDEST DUP3 MLOAD PUSH3 0x461BCD PUSH1 0xE5 SHL DUP2 MSTORE DUP1 DUP7 ADD DUP6 SWAP1 MSTORE PUSH1 0x12 PUSH1 0x24 DUP3 ADD MSTORE PUSH18 0x44696D656E7369756E6920696E6567616C65 PUSH1 0x70 SHL PUSH1 0x44 DUP3 ADD MSTORE PUSH1 0x64 SWAP1 REVERT JUMPDEST SWAP1 SWAP2 POP RETURNDATASIZE DUP1 DUP4 DUP4 RETURNDATACOPY PUSH2 0x50F DUP2 DUP4 PUSH2 0xE7C JUMP JUMPDEST DUP2 ADD SWAP1 DUP5 DUP2 DUP4 SUB SLT PUSH2 0x14C JUMPI DUP1 MLOAD SWAP1 PUSH8 0xFFFFFFFFFFFFFFFF DUP3 GT PUSH2 0x593 JUMPI ADD SWAP1 DUP1 PUSH1 0x1F DUP4 ADD SLT ISZERO PUSH2 0x14C JUMPI DUP2 MLOAD PUSH2 0x545 DUP2 PUSH2 0xEB4 JUMP JUMPDEST SWAP3 PUSH2 0x552 DUP7 MLOAD SWAP5 DUP6 PUSH2 0xE7C JUMP JUMPDEST DUP2 DUP5 MSTORE DUP7 DUP1 DUP6 ADD SWAP3 PUSH1 0x5 SHL DUP3 ADD ADD SWAP3 DUP4 GT PUSH2 0x58F JUMPI DUP7 DUP1 SWAP2 ADD SWAP2 JUMPDEST DUP4 DUP4 LT PUSH2 0x57F JUMPI POP POP POP POP SWAP1 CODESIZE PUSH2 0x1C9 JUMP JUMPDEST DUP3 MLOAD DUP2 MSTORE SWAP2 DUP2 ADD SWAP2 DUP8 SWAP2 ADD PUSH2 0x56D JUMP JUMPDEST DUP5 DUP1 REVERT JUMPDEST DUP4 DUP1 REVERT JUMPDEST POP DUP3 MLOAD SWAP1 RETURNDATASIZE SWAP1 DUP3 RETURNDATACOPY RETURNDATASIZE SWAP1 REVERT JUMPDEST DUP2 PUSH32 0xC06999D659D5132DD93A1915097DA1A6A24201916389E38DA2404E4BCA5E59BE SWAP3 DUP8 SSTORE DUP8 MLOAD SWAP1 DUP2 MSTORE LOG1 CODESIZE DUP7 PUSH2 0x1A6 JUMP JUMPDEST POP SWAP2 POP SWAP2 DUP5 DUP2 DUP2 RETURNDATASIZE DUP4 GT PUSH2 0x602 JUMPI JUMPDEST PUSH2 0x5EE DUP2 DUP4 PUSH2 0xE7C JUMP JUMPDEST DUP2 ADD SUB SLT PUSH2 0x14C JUMPI MLOAD DUP6 SWAP3 DUP4 SWAP3 SWAP1 SWAP2 PUSH2 0x198 JUMP JUMPDEST POP RETURNDATASIZE PUSH2 0x5E4 JUMP JUMPDEST DUP5 MLOAD RETURNDATASIZE DUP5 DUP3 RETURNDATACOPY RETURNDATASIZE SWAP1 REVERT JUMPDEST POP DUP1 REVERT JUMPDEST POP CALLVALUE PUSH2 0x14C JUMPI PUSH1 0x20 CALLDATASIZE PUSH1 0x3 NOT ADD SLT PUSH2 0x14C JUMPI CALLDATALOAD PUSH1 0xD SLOAD DUP2 LT ISZERO PUSH2 0x14C JUMPI PUSH1 0x20 SWAP3 POP PUSH1 0xD PUSH1 0x0 MSTORE PUSH32 0xD7B6990105719101DABEB77144F2A3385C8033ACD3AF97E9423A695E81AD1EB5 ADD SLOAD SWAP1 MLOAD SWAP1 DUP2 MSTORE RETURN JUMPDEST POP CALLVALUE PUSH2 0x14C JUMPI DUP3 PUSH1 0x3 NOT CALLDATASIZE ADD SLT PUSH2 0x14C JUMPI PUSH1 0x20 SWAP3 POP SLOAD SWAP1 MLOAD SWAP1 DUP2 MSTORE RETURN JUMPDEST POP CALLVALUE PUSH2 0x14C JUMPI PUSH1 0x20 CALLDATASIZE PUSH1 0x3 NOT ADD SLT PUSH2 0x14C JUMPI CALLDATALOAD PUSH1 0xB SLOAD DUP2 LT ISZERO PUSH2 0x14C JUMPI PUSH1 0x20 SWAP3 POP PUSH1 0xB PUSH1 0x0 MSTORE PUSH32 0x175B7A638427703F0DBE7BB9BBF987A2551717B34E79F33B5B1008D1FA01DB9 ADD SLOAD SWAP1 MLOAD SWAP1 DUP2 MSTORE RETURN JUMPDEST POP CALLVALUE PUSH2 0x14C JUMPI PUSH1 0x20 CALLDATASIZE PUSH1 0x3 NOT ADD SLT PUSH2 0x14C JUMPI CALLDATALOAD PUSH1 0x9 SLOAD DUP2 LT ISZERO PUSH2 0x14C JUMPI PUSH1 0x20 SWAP3 POP PUSH1 0x9 PUSH1 0x0 MSTORE PUSH32 0x6E1540171B6C0C960B71A7020D9F60077F6AF931A8BBF590DA0223DACF75C7AF ADD SLOAD SWAP1 MLOAD SWAP1 DUP2 MSTORE RETURN JUMPDEST POP CALLVALUE PUSH2 0x14C JUMPI PUSH1 0x20 CALLDATASIZE PUSH1 0x3 NOT ADD SLT PUSH2 0x14C JUMPI CALLDATALOAD SWAP2 PUSH1 0x2 SLOAD DUP4 LT ISZERO PUSH2 0x149 JUMPI POP PUSH2 0x13B PUSH1 0x20 SWAP3 PUSH2 0xDFB JUMP JUMPDEST POP SWAP1 CALLVALUE PUSH2 0x14C JUMPI PUSH1 0x3 NOT SWAP2 DUP4 DUP4 CALLDATASIZE ADD SLT PUSH2 0x593 JUMPI PUSH2 0x780 DUP3 MLOAD PUSH2 0x77B DUP2 PUSH2 0x774 DUP2 PUSH2 0x117A JUMP JUMPDEST SUB DUP3 PUSH2 0xE7C JUMP JUMPDEST PUSH2 0xF82 JUMP JUMPDEST PUSH1 0x3 SWAP1 PUSH1 0x3 SLOAD DUP2 SLT PUSH2 0x8EB JUMPI JUMPDEST PUSH1 0xE SLOAD SWAP1 PUSH2 0x79A DUP3 PUSH2 0xEB4 JUMP JUMPDEST SWAP3 PUSH2 0x7A7 DUP7 MLOAD SWAP5 DUP6 PUSH2 0xE7C JUMP JUMPDEST DUP3 DUP5 MSTORE PUSH2 0x7B3 DUP4 PUSH2 0xEB4 JUMP JUMPDEST SWAP3 PUSH1 0x20 SWAP2 PUSH1 0x20 DUP7 ADD SWAP5 PUSH1 0x1F NOT ADD CALLDATASIZE DUP7 CALLDATACOPY DUP10 JUMPDEST DUP3 DUP2 LT PUSH2 0x89A JUMPI POP POP PUSH1 0x10 SLOAD PUSH1 0x1 PUSH1 0x1 PUSH1 0xA0 SHL SUB AND SWAP5 SWAP1 POP DUP5 EXTCODESIZE ISZERO PUSH2 0x896 JUMPI SWAP7 SWAP3 SWAP1 DUP9 SWAP5 SWAP3 PUSH1 0x20 DUP9 MLOAD SWAP10 DUP11 SWAP7 PUSH4 0x2FC0395F PUSH1 0xE0 SHL DUP9 MSTORE PUSH1 0x60 DUP11 DUP10 ADD MSTORE PUSH2 0x80D PUSH1 0x64 DUP10 ADD PUSH2 0x117A JUMP JUMPDEST SWAP4 PUSH1 0x24 DUP10 ADD MSTORE DUP8 DUP5 SUB ADD PUSH1 0x44 DUP9 ADD MSTORE MLOAD SWAP2 DUP3 DUP2 MSTORE ADD SWAP3 SWAP2 DUP7 JUMPDEST DUP3 DUP2 LT PUSH2 0x87C JUMPI POP POP POP POP DUP4 DUP4 DUP1 SWAP3 SUB SWAP3 GAS CALL DUP1 ISZERO PUSH2 0x872 JUMPI PUSH2 0x847 JUMPI DUP4 DUP1 RETURN JUMPDEST PUSH8 0xFFFFFFFFFFFFFFFF DUP4 GT PUSH2 0x85F JUMPI POP MSTORE CODESIZE DUP1 DUP1 DUP4 DUP1 RETURN JUMPDEST PUSH4 0x4E487B71 PUSH1 0xE0 SHL DUP5 MSTORE PUSH1 0x41 SWAP1 MSTORE PUSH1 0x24 DUP4 REVERT JUMPDEST DUP3 MLOAD RETURNDATASIZE DUP7 DUP3 RETURNDATACOPY RETURNDATASIZE SWAP1 REVERT JUMPDEST DUP4 MLOAD DUP6 MSTORE DUP12 SWAP8 POP DUP11 SWAP7 POP SWAP4 DUP2 ADD SWAP4 SWAP3 DUP2 ADD SWAP3 PUSH1 0x1 ADD PUSH2 0x826 JUMP JUMPDEST DUP9 DUP1 REVERT JUMPDEST PUSH2 0x8A3 DUP2 PUSH2 0xDC4 JUMP JUMPDEST SWAP1 SLOAD SWAP1 DUP4 SHL SHR PUSH2 0x8B2 DUP3 PUSH2 0xD56 JUMP JUMPDEST SWAP1 SLOAD SWAP1 DUP5 SHL SHR DUP2 ADD DUP1 SWAP2 GT PUSH2 0x8D8 JUMPI SWAP1 PUSH1 0x1 SWAP2 DUP3 SHR PUSH2 0x8D1 DUP3 DUP11 PUSH2 0xECC JUMP JUMPDEST MSTORE ADD PUSH2 0x7C5 JUMP JUMPDEST PUSH4 0x4E487B71 PUSH1 0xE0 SHL DUP13 MSTORE PUSH1 0x11 DUP10 MSTORE PUSH1 0x24 DUP13 REVERT JUMPDEST DUP1 PUSH1 0x3 SSTORE DUP6 SLOAD PUSH8 0xFFFFFFFFFFFFFFFF DUP2 GT PUSH2 0x9FC JUMPI PUSH9 0x10000000000000000 DUP2 GT PUSH2 0x9FC JUMPI PUSH1 0x2 SLOAD DUP2 PUSH1 0x2 SSTORE DUP1 DUP3 LT PUSH2 0x9BC JUMPI JUMPDEST POP PUSH32 0x290DECD9548B62A8D60345A988386FC84BA6BC95484008F6362F93160EF3E563 PUSH1 0x2 DUP9 MSTORE DUP1 SLOAD SWAP1 DUP9 SWAP2 JUMPDEST DUP4 DUP4 LT PUSH2 0x986 JUMPI POP POP POP POP DUP4 MLOAD DUP2 DUP2 MSTORE PUSH32 0x409D103F7876158F293A85EE39F235CE0C309AB1ACA81024A51DFB4B471E556E PUSH1 0x20 ADDRESS SWAP3 LOG2 PUSH2 0x78D JUMP JUMPDEST PUSH1 0x1 DUP1 SWAP2 SWAP3 ADD SWAP3 DUP4 SLOAD SWAP3 DUP2 PUSH32 0x405787FA12A823E0F2B7631CC41B3BA8828B3321CA811111FA75CD3AA3BB5ACE ADD SSTORE ADD SWAP2 SWAP1 PUSH2 0x94B JUMP JUMPDEST DUP2 PUSH32 0x405787FA12A823E0F2B7631CC41B3BA8828B3321CA811111FA75CD3AA3BB5ACE SWAP2 DUP3 ADD SWAP2 ADD JUMPDEST DUP2 DUP2 LT PUSH2 0x9F1 JUMPI POP PUSH2 0x91F JUMP JUMPDEST DUP9 DUP2 SSTORE PUSH1 0x1 ADD PUSH2 0x9E4 JUMP JUMPDEST PUSH4 0x4E487B71 PUSH1 0xE0 SHL DUP8 MSTORE PUSH1 0x41 DUP5 MSTORE PUSH1 0x24 DUP8 REVERT JUMPDEST POP CALLVALUE PUSH2 0x14C JUMPI PUSH1 0x20 CALLDATASIZE PUSH1 0x3 NOT ADD SLT PUSH2 0x14C JUMPI CALLDATALOAD PUSH1 0xA SLOAD DUP2 LT ISZERO PUSH2 0x14C JUMPI PUSH1 0xA PUSH1 0x20 SWAP4 MSTORE PUSH32 0xC65A7BB8D6351C1CF70C95A316CC6A92839C986682D98BC35F958F4883F9D2A8 ADD SLOAD SWAP1 MLOAD SWAP1 DUP2 MSTORE RETURN JUMPDEST POP SWAP2 CALLVALUE PUSH2 0x149 JUMPI DUP2 PUSH1 0x3 NOT CALLDATASIZE ADD SLT PUSH2 0x149 JUMPI POP PUSH2 0xA7F PUSH1 0x20 SWAP3 PUSH1 0x24 CALLDATALOAD SWAP1 CALLDATALOAD PUSH2 0x11D3 JUMP JUMPDEST SWAP1 MLOAD SWAP1 DUP2 MSTORE RETURN JUMPDEST POP POP CALLVALUE PUSH2 0x613 JUMPI DUP2 PUSH1 0x3 NOT CALLDATASIZE ADD SLT PUSH2 0x613 JUMPI PUSH1 0x10 SLOAD SWAP1 MLOAD PUSH1 0x1 PUSH1 0x1 PUSH1 0xA0 SHL SUB SWAP1 SWAP2 AND DUP2 MSTORE PUSH1 0x20 SWAP1 RETURN JUMPDEST POP CALLVALUE PUSH2 0x14C JUMPI PUSH1 0x20 CALLDATASIZE PUSH1 0x3 NOT ADD SLT PUSH2 0x14C JUMPI CALLDATALOAD SWAP2 PUSH1 0xE SLOAD DUP4 LT ISZERO PUSH2 0x149 JUMPI POP PUSH2 0x13B PUSH1 0x20 SWAP3 PUSH2 0xDC4 JUMP JUMPDEST POP POP CALLVALUE PUSH2 0x613 JUMPI DUP2 PUSH1 0x3 NOT CALLDATASIZE ADD SLT PUSH2 0x613 JUMPI DUP1 MLOAD PUSH2 0xAFA DUP2 PUSH2 0x774 DUP2 PUSH2 0x117A JUMP JUMPDEST DUP2 MLOAD SWAP3 DUP4 SWAP3 PUSH1 0x20 DUP1 DUP1 DUP7 ADD SWAP3 DUP2 DUP8 MSTORE DUP6 MLOAD DUP1 SWAP5 MSTORE DUP7 ADD SWAP5 ADD SWAP3 JUMPDEST DUP3 DUP2 LT PUSH2 0xB23 JUMPI POP POP POP POP SUB SWAP1 RETURN JUMPDEST DUP4 MLOAD DUP6 MSTORE DUP7 SWAP6 POP SWAP4 DUP2 ADD SWAP4 SWAP3 DUP2 ADD SWAP3 PUSH1 0x1 ADD PUSH2 0xB14 JUMP JUMPDEST POP CALLVALUE PUSH2 0x14C JUMPI PUSH1 0x20 CALLDATASIZE PUSH1 0x3 NOT ADD SLT PUSH2 0x14C JUMPI CALLDATALOAD SWAP2 PUSH1 0x1 SLOAD DUP4 LT ISZERO PUSH2 0x149 JUMPI POP PUSH2 0x13B PUSH1 0x20 SWAP3 PUSH2 0xD8D JUMP JUMPDEST POP POP CALLVALUE PUSH2 0x613 JUMPI DUP2 PUSH1 0x3 NOT CALLDATASIZE ADD SLT PUSH2 0x613 JUMPI PUSH1 0x20 SWAP1 PUSH1 0x6 SLOAD SWAP1 MLOAD SWAP1 DUP2 MSTORE RETURN JUMPDEST POP CALLVALUE PUSH2 0x14C JUMPI PUSH1 0x20 CALLDATASIZE PUSH1 0x3 NOT ADD SLT PUSH2 0x14C JUMPI CALLDATALOAD PUSH1 0xC SLOAD DUP2 LT ISZERO PUSH2 0x14C JUMPI PUSH1 0xC PUSH1 0x20 SWAP4 MSTORE PUSH32 0xDF6966C971051C3D54EC59162606531493A51404A002842F56009D7E5CF4A8C7 ADD SLOAD SWAP1 MLOAD SWAP1 DUP2 MSTORE RETURN JUMPDEST POP POP CALLVALUE PUSH2 0x613 JUMPI DUP2 PUSH1 0x3 NOT CALLDATASIZE ADD SLT PUSH2 0x613 JUMPI PUSH1 0x20 SWAP1 PUSH1 0x3 SLOAD SWAP1 MLOAD SWAP1 DUP2 MSTORE RETURN JUMPDEST POP POP CALLVALUE PUSH2 0x613 JUMPI DUP2 PUSH1 0x3 NOT CALLDATASIZE ADD SLT PUSH2 0x613 JUMPI PUSH1 0x20 SWAP1 PUSH1 0x7 SLOAD SWAP1 MLOAD SWAP1 DUP2 MSTORE RETURN JUMPDEST POP CALLVALUE PUSH2 0x14C JUMPI PUSH1 0x20 CALLDATASIZE PUSH1 0x3 NOT ADD SLT PUSH2 0x14C JUMPI CALLDATALOAD SWAP2 PUSH1 0xF SLOAD DUP4 LT ISZERO PUSH2 0x149 JUMPI POP PUSH2 0x13B PUSH1 0x20 SWAP3 PUSH2 0xD56 JUMP JUMPDEST POP SWAP2 CALLVALUE PUSH2 0x149 JUMPI PUSH1 0x20 SWAP1 PUSH1 0x20 PUSH1 0x3 NOT CALLDATASIZE ADD SLT PUSH2 0x149 JUMPI DUP4 CALLDATALOAD SWAP4 PUSH8 0xFFFFFFFFFFFFFFFF DUP6 GT PUSH2 0x613 JUMPI CALLDATASIZE PUSH1 0x23 DUP7 ADD SLT ISZERO PUSH2 0x613 JUMPI DUP5 ADD CALLDATALOAD PUSH2 0xC77 DUP2 PUSH2 0xEB4 JUMP JUMPDEST SWAP5 PUSH2 0xC84 DUP6 MLOAD SWAP7 DUP8 PUSH2 0xE7C JUMP JUMPDEST DUP2 DUP7 MSTORE PUSH1 0x24 PUSH1 0x20 DUP8 ADD SWAP3 PUSH1 0x5 SHL DUP3 ADD ADD SWAP3 CALLDATASIZE DUP5 GT PUSH2 0x149 JUMPI POP PUSH1 0x24 ADD SWAP1 JUMPDEST DUP3 DUP3 LT PUSH2 0xCB5 JUMPI PUSH1 0x20 DUP6 PUSH2 0xA7F DUP9 PUSH2 0xF82 JUMP JUMPDEST DUP2 CALLDATALOAD DUP2 MSTORE SWAP1 DUP4 ADD SWAP1 DUP4 ADD PUSH2 0xCA2 JUMP JUMPDEST POP POP CALLVALUE PUSH2 0x613 JUMPI DUP2 PUSH1 0x3 NOT CALLDATASIZE ADD SLT PUSH2 0x613 JUMPI PUSH1 0x20 SWAP1 PUSH1 0x5 SLOAD SWAP1 MLOAD SWAP1 DUP2 MSTORE RETURN JUMPDEST POP CALLVALUE PUSH2 0x14C JUMPI PUSH1 0x20 CALLDATASIZE PUSH1 0x3 NOT ADD SLT PUSH2 0x14C JUMPI CALLDATALOAD SWAP2 PUSH1 0x8 SLOAD DUP4 LT ISZERO PUSH2 0x149 JUMPI POP PUSH2 0x13B PUSH1 0x20 SWAP3 JUMPDEST PUSH1 0x8 SLOAD DUP2 LT ISZERO PUSH2 0xD40 JUMPI PUSH1 0x8 PUSH1 0x0 MSTORE PUSH32 0xF3F7A9FE364FAAB93B216DA50A3214154F22A0A2B415B23A84C8169E8B636EE3 ADD SWAP1 PUSH1 0x0 SWAP1 JUMP JUMPDEST PUSH4 0x4E487B71 PUSH1 0xE0 SHL PUSH1 0x0 MSTORE PUSH1 0x32 PUSH1 0x4 MSTORE PUSH1 0x24 PUSH1 0x0 REVERT JUMPDEST PUSH1 0xF SLOAD DUP2 LT ISZERO PUSH2 0xD40 JUMPI PUSH1 0xF PUSH1 0x0 MSTORE PUSH32 0x8D1108E10BCB7C27DDDFC02ED9D693A074039D026CF4EA4240B40F7D581AC802 ADD SWAP1 PUSH1 0x0 SWAP1 JUMP JUMPDEST PUSH1 0x1 SLOAD DUP2 LT ISZERO PUSH2 0xD40 JUMPI PUSH1 0x1 PUSH1 0x0 MSTORE PUSH32 0xB10E2D527612073B26EECDFD717E6A320CF44B4AFAC2B0732D9FCBE2B7FA0CF6 ADD SWAP1 PUSH1 0x0 SWAP1 JUMP JUMPDEST PUSH1 0xE SLOAD DUP2 LT ISZERO PUSH2 0xD40 JUMPI PUSH1 0xE PUSH1 0x0 MSTORE PUSH32 0xBB7B4A454DC3493923482F07822329ED19E8244EFF582CC204F8554C3620C3FD ADD SWAP1 PUSH1 0x0 SWAP1 JUMP JUMPDEST PUSH1 0x2 SLOAD DUP2 LT ISZERO PUSH2 0xD40 JUMPI PUSH1 0x2 PUSH1 0x0 MSTORE PUSH32 0x405787FA12A823E0F2B7631CC41B3BA8828B3321CA811111FA75CD3AA3BB5ACE ADD SWAP1 PUSH1 0x0 SWAP1 JUMP JUMPDEST SWAP1 PUSH1 0x0 SWAP2 DUP3 SLOAD DUP2 LT ISZERO PUSH2 0xE68 JUMPI DUP3 DUP1 MSTORE PUSH32 0x290DECD9548B62A8D60345A988386FC84BA6BC95484008F6362F93160EF3E563 ADD SWAP2 SWAP1 JUMP JUMPDEST PUSH4 0x4E487B71 PUSH1 0xE0 SHL DUP4 MSTORE PUSH1 0x32 PUSH1 0x4 MSTORE PUSH1 0x24 DUP4 REVERT JUMPDEST SWAP1 PUSH1 0x1F DUP1 NOT SWAP2 ADD AND DUP2 ADD SWAP1 DUP2 LT PUSH8 0xFFFFFFFFFFFFFFFF DUP3 GT OR PUSH2 0xE9E JUMPI PUSH1 0x40 MSTORE JUMP JUMPDEST PUSH4 0x4E487B71 PUSH1 0xE0 SHL PUSH1 0x0 MSTORE PUSH1 0x41 PUSH1 0x4 MSTORE PUSH1 0x24 PUSH1 0x0 REVERT JUMPDEST PUSH8 0xFFFFFFFFFFFFFFFF DUP2 GT PUSH2 0xE9E JUMPI PUSH1 0x5 SHL PUSH1 0x20 ADD SWAP1 JUMP JUMPDEST DUP1 MLOAD DUP3 LT ISZERO PUSH2 0xD40 JUMPI PUSH1 0x20 SWAP2 PUSH1 0x5 SHL ADD ADD SWAP1 JUMP JUMPDEST SWAP2 SWAP1 DUP3 SUB SWAP2 DUP3 GT PUSH2 0xEED JUMPI JUMP JUMPDEST PUSH4 0x4E487B71 PUSH1 0xE0 SHL PUSH1 0x0 MSTORE PUSH1 0x11 PUSH1 0x4 MSTORE PUSH1 0x24 PUSH1 0x0 REVERT JUMPDEST SWAP1 DUP2 PUSH1 0x1 SHL SWAP2 DUP1 DUP4 SDIV PUSH1 0x2 EQ SWAP1 ISZERO OR ISZERO PUSH2 0xEED JUMPI JUMP JUMPDEST DUP2 DUP2 MUL SWAP3 SWAP2 PUSH1 0x0 DUP3 SLT PUSH1 0x1 PUSH1 0xFF SHL DUP3 EQ AND PUSH2 0xEED JUMPI DUP2 DUP5 SDIV EQ SWAP1 ISZERO OR ISZERO PUSH2 0xEED JUMPI JUMP JUMPDEST SWAP2 SWAP1 SWAP2 PUSH1 0x0 DUP4 DUP3 ADD SWAP4 DUP5 SLT SWAP2 SLT SWAP1 DUP1 ISZERO DUP3 AND SWAP2 ISZERO AND OR PUSH2 0xEED JUMPI JUMP JUMPDEST PUSH1 0x1 PUSH1 0xFF SHL DUP2 EQ PUSH2 0xEED JUMPI PUSH1 0x0 SUB SWAP1 JUMP JUMPDEST DUP2 DUP2 SUB SWAP3 SWAP2 PUSH1 0x0 SGT DUP1 ISZERO DUP3 DUP6 SGT AND SWAP2 DUP5 SLT AND OR PUSH2 0xEED JUMPI JUMP JUMPDEST PUSH1 0x0 SWAP1 DUP1 MLOAD PUSH1 0x40 MLOAD DUP1 PUSH1 0xA SLOAD DUP1 DUP3 MSTORE PUSH1 0x20 DUP1 SWAP3 ADD SWAP1 PUSH1 0xA DUP8 MSTORE PUSH32 0xC65A7BB8D6351C1CF70C95A316CC6A92839C986682D98BC35F958F4883F9D2A8 SWAP1 DUP8 JUMPDEST DUP2 DUP2 LT PUSH2 0x1166 JUMPI POP POP POP DUP3 PUSH2 0xFD5 SWAP2 SUB DUP4 PUSH2 0xE7C JUMP JUMPDEST PUSH1 0x40 MLOAD DUP1 SWAP2 PUSH1 0x20 PUSH1 0xC SLOAD SWAP3 DUP4 DUP2 MSTORE ADD SWAP2 PUSH1 0xC DUP9 MSTORE PUSH32 0xDF6966C971051C3D54EC59162606531493A51404A002842F56009D7E5CF4A8C7 SWAP2 DUP9 SWAP1 JUMPDEST DUP3 DUP3 LT PUSH2 0x114F JUMPI POP POP POP POP DUP2 PUSH2 0x1025 SWAP2 SUB DUP3 PUSH2 0xE7C JUMP JUMPDEST DUP5 SWAP4 JUMPDEST DUP4 DUP6 LT PUSH2 0x1037 JUMPI POP POP POP POP POP SWAP1 JUMP JUMPDEST SWAP1 SWAP2 SWAP3 SWAP4 SWAP5 PUSH1 0x1 SWAP1 PUSH2 0x1049 DUP8 DUP5 PUSH2 0xECC JUMP JUMPDEST MLOAD SWAP1 PUSH1 0x0 DUP3 SLT ISZERO PUSH2 0x1080 JUMPI PUSH2 0x409 DUP3 PUSH2 0x106E PUSH2 0x1068 PUSH2 0x1074 SWAP6 DUP13 PUSH2 0x11D3 JUMP JUMPDEST SWAP2 PUSH2 0xF58 JUMP JUMPDEST SWAP1 PUSH2 0xF19 JUMP JUMPDEST SWAP6 JUMPDEST ADD SWAP4 SWAP3 SWAP2 SWAP1 PUSH2 0x1028 JUMP JUMPDEST PUSH2 0x10FE SWAP2 DUP1 DUP1 PUSH2 0x1090 DUP12 DUP11 PUSH2 0xECC JUMP JUMPDEST MLOAD LT PUSH2 0x112E JUMPI POP PUSH2 0x10AB SWAP1 PUSH2 0x10A5 DUP11 DUP10 PUSH2 0xECC JUMP JUMPDEST MLOAD PUSH2 0xEE0 JUMP JUMPDEST PUSH2 0x10B5 DUP10 DUP9 PUSH2 0xECC JUMP JUMPDEST MSTORE PUSH1 0x0 JUMPDEST DUP1 PUSH2 0x10C4 DUP11 DUP9 PUSH2 0xECC JUMP JUMPDEST MLOAD LT PUSH2 0x1104 JUMPI PUSH2 0x10D8 SWAP1 PUSH2 0x10A5 DUP11 DUP9 PUSH2 0xECC JUMP JUMPDEST PUSH2 0x10E2 DUP10 DUP8 PUSH2 0xECC JUMP JUMPDEST MSTORE PUSH2 0x438 PUSH1 0x0 JUMPDEST PUSH2 0x10F2 DUP11 PUSH2 0xD09 JUMP JUMPDEST SWAP1 SLOAD SWAP1 PUSH1 0x3 SHL SHR PUSH2 0xF19 JUMP JUMPDEST SWAP6 PUSH2 0x1076 JUMP JUMPDEST PUSH2 0x111C PUSH2 0x438 SWAP2 PUSH2 0x1115 DUP12 DUP10 PUSH2 0xECC JUMP JUMPDEST MLOAD SWAP1 PUSH2 0xEE0 JUMP JUMPDEST PUSH1 0x0 PUSH2 0x1128 DUP12 DUP10 PUSH2 0xECC JUMP JUMPDEST MSTORE PUSH2 0x10E9 JUMP JUMPDEST PUSH2 0x113D SWAP2 POP PUSH2 0x1115 DUP11 DUP10 PUSH2 0xECC JUMP JUMPDEST PUSH1 0x0 PUSH2 0x1149 DUP11 DUP10 PUSH2 0xECC JUMP JUMPDEST MSTORE PUSH2 0x10B9 JUMP JUMPDEST DUP4 SLOAD DUP6 MSTORE SWAP4 DUP5 ADD SWAP4 PUSH1 0x1 SWAP4 DUP5 ADD SWAP4 SWAP1 SWAP2 ADD SWAP1 PUSH2 0x100E JUMP JUMPDEST DUP3 SLOAD DUP5 MSTORE SWAP3 DUP5 ADD SWAP3 PUSH1 0x1 SWAP3 DUP4 ADD SWAP3 ADD PUSH2 0xFBF JUMP JUMPDEST PUSH1 0x0 DUP1 SLOAD DUP1 DUP4 MSTORE DUP2 DUP1 MSTORE PUSH1 0x20 SWAP3 DUP4 ADD SWAP3 PUSH32 0x290DECD9548B62A8D60345A988386FC84BA6BC95484008F6362F93160EF3E563 SWAP3 SWAP1 JUMPDEST DUP3 DUP3 LT PUSH2 0x11BC JUMPI POP POP POP POP SWAP1 JUMP JUMPDEST DUP4 SLOAD DUP6 MSTORE SWAP4 DUP5 ADD SWAP4 PUSH1 0x1 SWAP4 DUP5 ADD SWAP4 SWAP1 SWAP2 ADD SWAP1 PUSH2 0x11AE JUMP JUMPDEST PUSH2 0x11DC SWAP1 PUSH2 0xD09 JUMP JUMPDEST SWAP1 SLOAD SWAP1 PUSH1 0x3 SHL SHR SWAP1 PUSH1 0x0 DUP2 SLT PUSH1 0x0 EQ PUSH2 0x1233 JUMPI PUSH2 0x11F8 SWAP1 PUSH2 0xF58 JUMP JUMPDEST PUSH1 0x1 SHR PUSH1 0x14 ADD DUP1 PUSH1 0x14 GT PUSH2 0xEED JUMPI PUSH1 0x28 DUP2 GT PUSH2 0x122B JUMPI JUMPDEST PUSH1 0x64 SUB SWAP1 PUSH1 0x64 DUP3 GT PUSH2 0xEED JUMPI PUSH1 0x64 SWAP2 PUSH2 0x1227 SWAP2 PUSH2 0xF19 JUMP JUMPDEST SDIV SWAP1 JUMP JUMPDEST POP PUSH1 0x28 PUSH2 0x120F JUMP JUMPDEST POP SWAP1 JUMP INVALID LOG2 PUSH5 0x6970667358 0x22 SLT KECCAK256 SWAP6 0x25 ISZERO PREVRANDAO 0x24 MSIZE DUP14 0xC4 PUSH7 0x93D69221D41F0E DUP2 0xA5 NOT 0xE2 PUSH17 0x239B3C4F1E9D3D680667D964736F6C6343 STOP ADDMOD OR STOP CALLER "},"methodIdentifiers":{"batteryCapacity(uint256)":"b6ce6709","batteryCharge(uint256)":"4eb274ff","c1()":"5f57697c","c2()":"48e257cb","capacity(uint256)":"ab1bbeca","flexibilityAbove(uint256)":"78b6d7d4","flexibilityBelow(uint256)":"375a105e","flexibleLoad(uint256)":"e329143f","getEffectiveTariff(uint256,int256)":"957b4056","getPosition()":"7398ab18","globalContract()":"90ccfa0f","lastKnownGlobalTimestamp()":"d0c6c7af","objectiveFunction(int256[])":"364132d9","personalBestPosition(uint256)":"a86853d5","personalBestScore()":"4d985ae4","position(uint256)":"f7a95a9e","renewableGeneration(uint256)":"96d14da6","tariff(uint256)":"16b51928","updateBestPositions()":"973b9cc1","updateVelocityAndPosition()":"f6451c0a","velocity(uint256)":"6f240774","w()":"205c9cc7"}}}}}