{"contracts/Node.sol":{"Node":{"abi":[{"inputs":[{"internalType":"address","name":"globalContractAddress","type":"address"},{"internalType":"int256[]","name":"initialPosition","type":"int256[]"},{"internalType":"int256[]","name":"initialVelocity","type":"int256[]"},{"internalType":"int256[]","name":"initialTariff","type":"int256[]"},{"internalType":"uint256[]","name":"initialCapacity","type":"uint256[]"},{"internalType":"uint256[]","name":"initialRenewableGeneration","type":"uint256[]"},{"internalType":"uint256[]","name":"initialBatteryCapacity","type":"uint256[]"},{"internalType":"uint256[]","name":"initialBatteryCharge","type":"uint256[]"},{"internalType":"uint256[]","name":"initialFlexibleLoad","type":"uint256[]"},{"internalType":"uint256[]","name":"_flexibilityAbove","type":"uint256[]"},{"internalType":"uint256[]","name":"_flexibilityBelow","type":"uint256[]"}],"stateMutability":"nonpayable","type":"constructor"},{"anonymous":false,"inputs":[{"indexed":true,"internalType":"address","name":"node","type":"address"},{"indexed":false,"internalType":"int256","name":"newScore","type":"int256"}],"name":"BestPositionUpdated","type":"event"},{"anonymous":false,"inputs":[{"indexed":false,"internalType":"uint256","name":"timestamp","type":"uint256"}],"name":"NewPlanReceived","type":"event"},{"inputs":[],"name":"applyFinalPlan","outputs":[],"stateMutability":"nonpayable","type":"function"},{"inputs":[{"internalType":"uint256","name":"","type":"uint256"}],"name":"batteryCapacity","outputs":[{"internalType":"uint256","name":"","type":"uint256"}],"stateMutability":"view","type":"function"},{"inputs":[{"internalType":"uint256","name":"","type":"uint256"}],"name":"batteryCharge","outputs":[{"internalType":"uint256","name":"","type":"uint256"}],"stateMutability":"view","type":"function"},{"inputs":[],"name":"c1","outputs":[{"internalType":"int256","name":"","type":"int256"}],"stateMutability":"view","type":"function"},{"inputs":[],"name":"c2","outputs":[{"internalType":"int256","name":"","type":"int256"}],"stateMutability":"view","type":"function"},{"inputs":[{"internalType":"uint256","name":"","type":"uint256"}],"name":"capacity","outputs":[{"internalType":"uint256","name":"","type":"uint256"}],"stateMutability":"view","type":"function"},{"inputs":[{"internalType":"uint256","name":"","type":"uint256"}],"name":"flexibilityAbove","outputs":[{"internalType":"uint256","name":"","type":"uint256"}],"stateMutability":"view","type":"function"},{"inputs":[{"internalType":"uint256","name":"","type":"uint256"}],"name":"flexibilityBelow","outputs":[{"internalType":"uint256","name":"","type":"uint256"}],"stateMutability":"view","type":"function"},{"inputs":[{"internalType":"uint256","name":"","type":"uint256"}],"name":"flexibleLoad","outputs":[{"internalType":"uint256","name":"","type":"uint256"}],"stateMutability":"view","type":"function"},{"inputs":[{"internalType":"uint256","name":"","type":"uint256"}],"name":"frozenBatteryCharge","outputs":[{"internalType":"uint256","name":"","type":"uint256"}],"stateMutability":"view","type":"function"},{"inputs":[{"internalType":"uint256","name":"","type":"uint256"}],"name":"frozenRenewableGeneration","outputs":[{"internalType":"uint256","name":"","type":"uint256"}],"stateMutability":"view","type":"function"},{"inputs":[{"internalType":"uint256","name":"hour","type":"uint256"},{"internalType":"int256","name":"consumption","type":"int256"}],"name":"getEffectiveTariff","outputs":[{"internalType":"int256","name":"","type":"int256"}],"stateMutability":"view","type":"function"},{"inputs":[],"name":"getFrozenCost","outputs":[{"internalType":"int256","name":"","type":"int256"}],"stateMutability":"view","type":"function"},{"inputs":[],"name":"getPersonalBestPosition","outputs":[{"internalType":"int256[]","name":"","type":"int256[]"}],"stateMutability":"view","type":"function"},{"inputs":[],"name":"getPosition","outputs":[{"internalType":"int256[]","name":"","type":"int256[]"}],"stateMutability":"view","type":"function"},{"inputs":[],"name":"globalContract","outputs":[{"internalType":"contract GlobalContractInterface","name":"","type":"address"}],"stateMutability":"view","type":"function"},{"inputs":[],"name":"lastKnownGlobalTimestamp","outputs":[{"internalType":"uint256","name":"","type":"uint256"}],"stateMutability":"view","type":"function"},{"inputs":[{"internalType":"int256[]","name":"pos","type":"int256[]"}],"name":"objectiveFunction","outputs":[{"internalType":"int256","name":"","type":"int256"}],"stateMutability":"view","type":"function"},{"inputs":[{"internalType":"int256[]","name":"pos","type":"int256[]"}],"name":"objectiveFunctionFrozen","outputs":[{"internalType":"int256","name":"","type":"int256"}],"stateMutability":"view","type":"function"},{"inputs":[{"internalType":"uint256","name":"","type":"uint256"}],"name":"personalBestPosition","outputs":[{"internalType":"int256","name":"","type":"int256"}],"stateMutability":"view","type":"function"},{"inputs":[],"name":"personalBestScore","outputs":[{"internalType":"int256","name":"","type":"int256"}],"stateMutability":"view","type":"function"},{"inputs":[{"internalType":"uint256","name":"","type":"uint256"}],"name":"position","outputs":[{"internalType":"int256","name":"","type":"int256"}],"stateMutability":"view","type":"function"},{"inputs":[{"internalType":"uint256","name":"","type":"uint256"}],"name":"renewableGeneration","outputs":[{"internalType":"uint256","name":"","type":"uint256"}],"stateMutability":"view","type":"function"},{"inputs":[{"internalType":"uint256","name":"","type":"uint256"}],"name":"tariff","outputs":[{"internalType":"int256","name":"","type":"int256"}],"stateMutability":"view","type":"function"},{"inputs":[],"name":"updateBestPositions","outputs":[],"stateMutability":"nonpayable","type":"function"},{"inputs":[],"name":"updateVelocityAndPosition","outputs":[],"stateMutability":"nonpayable","type":"function"},{"inputs":[{"internalType":"uint256","name":"","type":"uint256"}],"name":"velocity","outputs":[{"internalType":"int256","name":"","type":"int256"}],"stateMutability":"view","type":"function"},{"inputs":[],"name":"w","outputs":[{"internalType":"int256","name":"","type":"int256"}],"stateMutability":"view","type":"function"}],"evm":{"bytecode":{"linkReferences":{},"object":"60806040523462000bd257620029c7803803806200001d8162000bd7565b92833981016101608282031262000bd25781516001600160a01b038116919082900362000bd25760208301516001600160401b03811162000bd257816200006691850162000c15565b60408401519093906001600160401b03811162000bd257826200008b91830162000c15565b60608201516001600160401b03811162000bd25783620000ad91840162000c15565b60808301516001600160401b03811162000bd25784620000cf91850162000c15565b60a08401516001600160401b03811162000bd25785620000f191860162000c15565b60c08501519091906001600160401b03811162000bd257866200011691870162000c15565b60e08601519093906001600160401b03811162000bd257876200013b91880162000c15565b6101008701519095906001600160401b03811162000bd257886200016191890162000c15565b6101208801519097906001600160401b03811162000bd257896200018791830162000c15565b6101408201519099906001600160401b03811162000bd257620001ab920162000c15565b6001600160ff1b03600355603260055560c86006819055600755601080546001600160a01b031916909a179099558951620001e69062000c79565b8051906001600160401b038211620008905768010000000000000000821162000890576000548260005580831062000b9b575b5060200160008052602060002060005b83811062000b86575050505062000241815162000c79565b8051906001600160401b038211620008905768010000000000000000821162000890576001548260015580831062000b4d575b506020016001600052602060002060005b83811062000b3857505050506200029d8a5162000c79565b8051906001600160401b038211620008905768010000000000000000821162000890576002548260025580831062000aff575b506020016002600052602060002060005b83811062000aea5750505050620002f9825162000c79565b8051906001600160401b038211620008905768010000000000000000821162000890576008548260085580831062000ab1575b506020016008600052602060002060005b83811062000a9c575050505062000355835162000c79565b8051906001600160401b038211620008905768010000000000000000821162000890576009548260095580831062000a63575b506020016009600052602060002060005b83811062000a4e5750505050620003b1845162000c79565b8051906001600160401b03821162000890576801000000000000000082116200089057600a5482600a5580831062000a15575b50602001600a600052602060002060005b83811062000a0057505050506200040d855162000c79565b8051906001600160401b03821162000890576801000000000000000082116200089057600b5482600b55808310620009b6575b50602001600b600052602060002060005b838110620009a1575050505062000469865162000c79565b8051906001600160401b03821162000890576801000000000000000082116200089057600c5482600c5580831062000957575b50602001600c600052602060002060005b838110620009425750505050620004c5875162000c79565b8051906001600160401b03821162000890576801000000000000000082116200089057600d5482600d5580831062000909575b50602001600d600052602060002060005b838110620008f4575050505062000521885162000c79565b8051906001600160401b03821162000890576801000000000000000082116200089057600e5482600e55808310620008bb575b50602001600e600052602060002060005b838110620008a657505050506200057d895162000c79565b8051906001600160401b03821162000890576801000000000000000082116200089057600f5482600f5580831062000846575b50602001600f600052602060002060005b83811062000831575050505060005b8a518110156200082157620005e6818c62000ca6565b516000548210156200080b57600080526000805160206200292783398151915282015562000615818c62000ca6565b516002548210156200080b576002600052600080516020620028c783398151915282015562000645818362000ca6565b516001548210156200080b576001600052600080516020620029a783398151915282015562000675818462000ca6565b516008548210156200080b57600860005260008051602062002967833981519152820155620006a5818562000ca6565b516009548210156200080b57600960005260008051602062002987833981519152820155620006d5818662000ca6565b51600a548210156200080b57600a6000526000805160206200290783398151915282015562000705818762000ca6565b51600b548210156200080b57600b6000527f0175b7a638427703f0dbe7bb9bbf987a2551717b34e79f33b5b1008d1fa01db982015562000746818862000ca6565b51600c548210156200080b57600c6000527fdf6966c971051c3d54ec59162606531493a51404a002842f56009d7e5cf4a8c782015562000787818962000ca6565b51600d548210156200080b57600d60005260008051602062002947833981519152820155620007b7818a62000ca6565b51600e548210156200080b57600e600052600080516020620028e7833981519152820155620007e7818b62000ca6565b5190600f548110156200080b57600191600f600052816020600020015501620005d0565b634e487b7160e01b600052603260045260246000fd5b604051611c0b908162000cbc8239f35b600190602084519401938184015501620005c1565b600f6000527f8d1108e10bcb7c27dddfc02ed9d693a074039d026cf4ea4240b40f7d581ac802908382015b818301811062000883575050620005b0565b6000815560010162000871565b634e487b7160e01b600052604160045260246000fd5b60019060208451940193818401550162000565565b600e600052600080516020620028e7833981519152908382015b8183018110620008e757505062000554565b60008155600101620008d5565b60019060208451940193818401550162000509565b600d60005260008051602062002947833981519152908382015b818301811062000935575050620004f8565b6000815560010162000923565b600190602084519401938184015501620004ad565b600c6000527fdf6966c971051c3d54ec59162606531493a51404a002842f56009d7e5cf4a8c7908382015b8183018110620009945750506200049c565b6000815560010162000982565b60019060208451940193818401550162000451565b600b6000527f0175b7a638427703f0dbe7bb9bbf987a2551717b34e79f33b5b1008d1fa01db9908382015b8183018110620009f357505062000440565b60008155600101620009e1565b600190602084519401938184015501620003f5565b600a60005260008051602062002907833981519152908382015b818301811062000a41575050620003e4565b6000815560010162000a2f565b60019060208451940193818401550162000399565b600960005260008051602062002987833981519152908382015b818301811062000a8f57505062000388565b6000815560010162000a7d565b6001906020845194019381840155016200033d565b600860005260008051602062002967833981519152908382015b818301811062000add5750506200032c565b6000815560010162000acb565b600190602084519401938184015501620002e1565b6002600052600080516020620028c7833981519152908382015b818301811062000b2b575050620002d0565b6000815560010162000b19565b60019060208451940193818401550162000285565b6001600052600080516020620029a7833981519152908382015b818301811062000b7957505062000274565b6000815560010162000b67565b60019060208451940193818401550162000229565b60008052600080516020620029278339815191529081019083015b81811062000bc5575062000219565b6000815560010162000bb6565b600080fd5b6040519190601f01601f191682016001600160401b038111838210176200089057604052565b6001600160401b038111620008905760051b60200190565b9080601f8301121562000bd25781519060209162000c3d62000c378262000bfd565b62000bd7565b9360208086848152019260051b82010192831162000bd257602001905b82821062000c69575050505090565b8151815290830190830162000c5a565b9062000c8962000c378362000bfd565b828152809262000c9c601f199162000bfd565b0190602036910137565b80518210156200080b5760209160051b01019056fe6080604081815260048036101561001557600080fd5b600092833560e01c90816303bc4a8614610dcb5750806304d0194214610da157806316b5192814610d77578063205c9cc714610d58578063300aee1414610d3d578063364132d914610d27578063375a105e14610cfd57806348e257cb14610cde5780634d985ae414610cbf5780634eb274ff14610c955780635f57697c14610c765780636f24077414610c4c5780637398ab1814610bd357806378b6d7d414610ba957806390ccfa0f14610b80578063957b405614610b5657806396d14da614610b2c578063973b9cc114610765578063a86853d51461073b578063ab1bbeca14610711578063b0d547ff146106fd578063b6ce6709146106ad578063d0c6c7af14610690578063e329143f14610640578063e7d4638514610606578063f6451c0a146101be578063f7a95a9e146101955763ff9c446f1461015757600080fd5b3461019157602036600319011261019157359160115483101561018e575061018060209261102e565b91905490519160031b1c8152f35b80fd5b8280fd5b5034610191576020366003190112610191573591805483101561018e5750610180602092610f1a565b503461019157826003193601126101915760105482516302989b4b60e61b8152929060209085906001600160a01b031682868681845afa80156105fc57859683969596916105c7575b508385548211610595575b5050845163b6042cf960e01b815295869182905afa93841561058b578594610567575b50835185540361053257845b855481101561052e5761025381610f1a565b905485514285820190815260208101859052600393841b9290921c60408301528060608301039061028c601f1992838101835282611065565b6064928391519020069060019182860180871161051b57846065918b6102e98b6102dd6102b88d610ee3565b9054908d1b1c9351938492830195428791606093918352602083015260408201520190565b03878101835282611065565b51902006926102f788610ee3565b905490881b1c906103308c5191826103248d8201958d428891606093918352602083015260408201520190565b03908101835282611065565b519020069260311984019384131661050657916103eb6103f092856103db886103d68f8499839b6103db60019f9e938f6103cd816103b561039f826103996103e29b61037e6103d698610fd2565b905490821b1c9061038e84610f1a565b9054911b1c90611389565b9661124c565b516103a983610f1a565b9054908d1b1c90611389565b996103c260055492610ee3565b9054911b1c90611355565b94600654611355565b611355565b05906113af565b94600754611355565b6113af565b056104146103fd84610ee3565b819391549060031b91821b91600019901b19161790565b905561043d61042283610f1a565b905490831b1c61043184610ee3565b905490841b1c906113af565b6104496103fd84610f1a565b905561047a61045783610fd2565b905490831b1c61047461046985610e75565b905490851b1c6112fd565b90611389565b6104a961048684610fd2565b905490841b1c6104a361049886610f64565b905490861b1c6112fd565b906113af565b918183926104b686610f1a565b905490841b1c126104f2575b506104cc84610f1a565b9054911b1c136104de575b5001610241565b6104ea6103fd83610f1a565b9055386104d7565b6104fe6103fd86610f1a565b9055386104c2565b601188634e487b7160e01b6000525260246000fd5b634e487b7160e01b8c526011895260248cfd5b8580f35b606492519162461bcd60e51b8352820152601260248201527144696d656e7369756e6920696e6567616c6560701b6044820152fd5b6105849194503d8087833e61057c8183611065565b810190611260565b9238610235565b83513d87823e3d90fd5b817fc06999d659d5132dd93a1915097da1a6a24201916389e38da2404e4bca5e59be9287558751908152a13883610212565b809550848092503d83116105f5575b6105e08183611065565b810103126105f15785935138610207565b5080fd5b503d6105d6565b84513d84823e3d90fd5b5050346105f157816003193601126105f157805161063c916106328261062b81611176565b0383611065565b519182918261113a565b0390f35b50346101915760203660031901126101915735600d548110156101915760209250600d6000527fd7b6990105719101dabeb77144f2a3385c8033acd3af97e9423a695e81ad1eb501549051908152f35b503461019157826003193601126101915760209250549051908152f35b50346101915760203660031901126101915735600b548110156101915760209250600b6000527f0175b7a638427703f0dbe7bb9bbf987a2551717b34e79f33b5b1008d1fa01db901549051908152f35b833461018e578060031936011261018e5780f35b503461019157602036600319011261019157359160095483101561018e5750610180602092610ff7565b503461019157602036600319011261019157359160025483101561018e5750610180602092610fd2565b50903461019157600319918383360112610b285761079782516107928161078b816111c1565b0382611065565b61179c565b6003805482126108c7575b600e546107ae8161121a565b91875b82811061088a5750506010546001600160a01b0316929050823b15610886578451632fc0395f60e01b81526060858201529587938793909290916107f7606486016111c1565b9160248601528482030160448501528151808252602080809301930191865b82811061086c57505050508383809203925af1801561086257610837578380f35b67ffffffffffffffff831161084f5750523880808380f35b634e487b7160e01b845260419052602483fd5b82513d86823e3d90fd5b835185528b97508a96509381019392810192600101610816565b8680fd5b806108b4610899600193610f64565b905490851b1c6108a883610e75565b905490861b1c906113a2565b821c6108c0828761124c565b52016107b1565b919492909384835583549267ffffffffffffffff8411610b15576801000000000000000093848111610b025760025481600255808210610ad4575b507f290decd9548b62a8d60345a988386fc84ba6bc95484008f6362f93160ef3e5636002875280549087915b838310610ab057505050506011916011548660115580610a6e575b506012936012548760125580610a2c575b50865b600a548110156109f25761097081610f9b565b9054865491861b1c888210156109df576109936103fd6001938481018a5561102e565b905561099e82610eac565b9054885491871b1c91898210156109cc576103fd826109c4926001969594018b55610df1565b90550161095d565b634e487b7160e01b8b5260418d5260248bfd5b634e487b7160e01b8a5260418c5260248afd5b5095979450959250905083518281527f409d103f7876158f293a85ee39f235ce0c309ab1aca81024a51dfb4b471e556e60203092a26107a2565b601288527fbb8a6a4669ba250d26cd7a459eca9d215f8307e33aebe50379bc5a3617ec3444908101905b818110610a63575061095a565b888155600101610a56565b601187527f31ecc21a745e3968a04e9570e4425bc18fa8019c68028196b546d1669c200c68908101905b818110610aa55750610949565b878155600101610a98565b6001809192019283549281600080516020611bb6833981519152015501919061092e565b81600080516020611bb683398151915291820191015b818110610af75750610902565b878155600101610aea565b634e487b7160e01b865260418852602486fd5b634e487b7160e01b855260418752602485fd5b8380fd5b5034610191576020366003190112610191573591600a5483101561018e5750610180602092610f9b565b50913461018e578160031936011261018e5750610b796020926024359035611b51565b9051908152f35b5050346105f157816003193601126105f15760105490516001600160a01b039091168152602090f35b5034610191576020366003190112610191573591600e5483101561018e5750610180602092610f64565b82843461018e578060031936011261018e578054610bf08161109d565b91610bfd84519384611065565b818352601f19610c0c8361109d565b013660208501375b818110610c285783518061063c858261113a565b80610c34600192610f1a565b90549060031b1c610c45828661124c565b5201610c14565b503461019157602036600319011261019157359160015483101561018e5750610180602092610ee3565b5050346105f157816003193601126105f1576020906006549051908152f35b5034610191576020366003190112610191573591600c5483101561018e5750610180602092610eac565b5050346105f157816003193601126105f1576020906003549051908152f35b5050346105f157816003193601126105f1576020906007549051908152f35b5034610191576020366003190112610191573591600f5483101561018e5750610180602092610e75565b5050346105f157602090610b79610792366110b5565b5050346105f157602090610b79610d53366110b5565b6113cb565b5050346105f157816003193601126105f1576020906005549051908152f35b503461019157602036600319011261019157359160085483101561018e5750610180602092610e3e565b503461019157602036600319011261019157359160125483101561018e5750610180602092610df1565b83853461018e578060031936011261018e5750610b7982610d538161078b602096611176565b601254811015610e285760126000527fbb8a6a4669ba250d26cd7a459eca9d215f8307e33aebe50379bc5a3617ec34440190600090565b634e487b7160e01b600052603260045260246000fd5b600854811015610e285760086000527ff3f7a9fe364faab93b216da50a3214154f22a0a2b415b23a84c8169e8b636ee30190600090565b600f54811015610e2857600f6000527f8d1108e10bcb7c27dddfc02ed9d693a074039d026cf4ea4240b40f7d581ac8020190600090565b600c54811015610e2857600c6000527fdf6966c971051c3d54ec59162606531493a51404a002842f56009d7e5cf4a8c70190600090565b600154811015610e285760016000527fb10e2d527612073b26eecdfd717e6a320cf44b4afac2b0732d9fcbe2b7fa0cf60190600090565b906000918254811015610f50578280527f290decd9548b62a8d60345a988386fc84ba6bc95484008f6362f93160ef3e563019190565b634e487b7160e01b83526032600452602483fd5b600e54811015610e2857600e6000527fbb7b4a454dc3493923482f07822329ed19e8244eff582cc204f8554c3620c3fd0190600090565b600a54811015610e2857600a6000527fc65a7bb8d6351c1cf70c95a316cc6a92839c986682d98bc35f958f4883f9d2a80190600090565b600254811015610e28576002600052600080516020611bb68339815191520190600090565b600954811015610e285760096000527f6e1540171b6c0c960b71a7020d9f60077f6af931a8bbf590da0223dacf75c7af0190600090565b601154811015610e285760116000527f31ecc21a745e3968a04e9570e4425bc18fa8019c68028196b546d1669c200c680190600090565b90601f8019910116810190811067ffffffffffffffff82111761108757604052565b634e487b7160e01b600052604160045260246000fd5b67ffffffffffffffff81116110875760051b60200190565b602080600319830112611135576004359167ffffffffffffffff831161113557806023840112156111355782600401356110ee8161109d565b936110fc6040519586611065565b8185526024602086019260051b82010192831161113557602401905b828210611126575050505090565b81358152908301908301611118565b600080fd5b602090602060408183019282815285518094520193019160005b828110611162575050505090565b835185529381019392810192600101611154565b600254908181526020809101916002600052600080516020611bb6833981519152916000905b8282106111aa575050505090565b83548552938401936001938401939091019061119c565b600080548083528180526020928301927f290decd9548b62a8d60345a988386fc84ba6bc95484008f6362f93160ef3e56392905b828210611203575050505090565b8354855293840193600193840193909101906111f5565b906112248261109d565b6112316040519182611065565b8281528092611242601f199161109d565b0190602036910137565b8051821015610e285760209160051b010190565b60209081818403126111355780519067ffffffffffffffff821161113557019180601f840112156111355782516112968161109d565b936112a46040519586611065565b818552838086019260051b820101928311611135578301905b8282106112cb575050505090565b815181529083019083016112bd565b919082039182116112e757565b634e487b7160e01b600052601160045260246000fd5b908160011b91808305600214901517156112e757565b906005820291808305600514901517156112e757565b906003820291808305600314901517156112e757565b908160021b91808305600414901517156112e757565b818102929160008212600160ff1b8214166112e75781840514901517156112e757565b600160ff1b81146112e75760000390565b818103929160001380158285131691841216176112e757565b919082018092116112e757565b919091600083820193841291129080158216911516176112e757565b6000908051601154906113dd8261121a565b91845b818110611778575050601254916113f68361121a565b92855b81811061175457505060105460405163b6042cf960e01b815291908690839060049082906001600160a01b03165afa91821561174957869261172d575b509392919085945b82861061144e5750505050505090565b9091929394956115936001916104a36114678a8a61124c565b51808b60008083121561166057506114856114999261148a92611b51565b611378565b61149383611378565b90611355565b905b61157a8c6104a36115746114ae83610ff7565b90546003949160009190861b1c87131561165357506104a361156e6114e16114d584610ff7565b905490881b1c89611389565b955b61154b6114ef85610fd2565b905490831b1c61152661151f61150488610f64565b905490861b1c61151389610e75565b905490871b1c906113a2565b918c611389565b6000811261164457905b6000918181131561163c576115459250611389565b9461102e565b9054911b1c88600091818113600014611634576115689250611389565b95611313565b91611329565b916112fd565b6000918d8b8b511461159f575b50506103eb91926113af565b9601949392919061143e565b6115ac6115b4918c61124c565b518092611389565b908382126116255781905b801561161d57600a9005915b8282136115db575b50508d611587565b6103eb941215611602576115f7916115f291611389565b61133f565b925b929138806115d3565b6116126116179261148592611389565b6112fd565b926115f9565b5083916115cb565b61162e82611378565b906115bf565b505095611313565b50509461102e565b61164d90611378565b90611530565b61156e6104a391956114e3565b906116d99284611670838c61124c565b51106117075761168d61169491611687848d61124c565b516112da565b918a61124c565b528c815b8c816116a4848361124c565b51106116df576116c291611687846116bb9361124c565b918d61124c565b525b6116cd8d610e3e565b90549060031b1c611355565b9061149b565b611701916116f3846116fa9396959661124c565b51906112da565b928d61124c565b526116c4565b5061171c611715828b61124c565b51856112da565b82611727838c61124c565b52611698565b6117429192503d8088833e61057c8183611065565b9038611436565b6040513d88823e3d90fd5b80611760600192610df1565b90549060031b1c611771828861124c565b52016113f9565b8061178460019261102e565b90549060031b1c611795828761124c565b52016113e0565b60009080516040519081600a8054808552602080950190600a88527fc65a7bb8d6351c1cf70c95a316cc6a92839c986682d98bc35f958f4883f9d2a890885b87828210611b3d5750505050826117f3910383611065565b604051918280956020600c54958681520194600c8a527fdf6966c971051c3d54ec59162606531493a51404a002842f56009d7e5cf4a8c7918a905b828210611b235750505050611847906004940386611065565b60105460405163b6042cf960e01b815293889185919082906001600160a01b03165afa928315611b18578793611afc575b50949392919086955b838710611892575050505050505090565b9091929394959661199c6001916104a36118ac8b8b61124c565b518b600080831215611a5057506118d26118c96114858484611b51565b61149384611378565b915b6119846118e083610ff7565b905460039160009190831b1c841315611a4357506104a361157461191261190687610ff7565b905490851b1c86611389565b925b6104a361156e61192389610fd2565b905490841b1c61195a6119536119388c610f64565b905490871b1c6119478d610e75565b905490881b1c906113a2565b918a611389565b60008112611a3457905b60009181811315611a2c576119799250611389565b925b61154b8a610f9b565b906000928c8c51146119a95750506103eb91926113af565b9701959493929190611881565b6115ac6119b6918d61124c565b90838212611a1c578a82915b8015611a135705915b8282136119db575b50508e611587565b6103eb9412156119fd576119f2916115f291611389565b925b929138806119d3565b611612611a0d9261148592611389565b926119f4565b505083916119cb565b8a611a2683611378565b916119c2565b50509261197b565b611a3d90611378565b90611964565b6115746104a39192611914565b611ab8908384611a60858c61124c565b5110611adc57611a7490611687858c61124c565b611a7e848b61124c565b52805b8d8483611a8e828461124c565b5110611abe57611aa782939461168783611aad9561124c565b9261124c565b525b6116cd83610e3e565b916118d4565b611ad082946116f383611ad69561124c565b9361124c565b52611aaf565b50611aea611715848b61124c565b9080611af6858c61124c565b52611a81565b611b119193503d8089833e61057c8183611065565b9138611878565b6040513d89823e3d90fd5b83548852968701968994506001938401939091019061182e565b8354855290930192600192830192016117db565b611b5a90610e3e565b90549060031b1c9060008112600014611bb157611b7690611378565b60011c601401806014116112e75760288111611ba9575b60640390606482116112e757606491611ba591611355565b0590565b506028611b8d565b509056fe405787fa12a823e0f2b7631cc41b3ba8828b3321ca811111fa75cd3aa3bb5acea2646970667358221220455fa26505fa71e13c2a011e7f4167ded60c3bcbb18cda269e8664fa897927a164736f6c63430008170033405787fa12a823e0f2b7631cc41b3ba8828b3321ca811111fa75cd3aa3bb5acebb7b4a454dc3493923482f07822329ed19e8244eff582cc204f8554c3620c3fdc65a7bb8d6351c1cf70c95a316cc6a92839c986682d98bc35f958f4883f9d2a8290decd9548b62a8d60345a988386fc84ba6bc95484008f6362f93160ef3e563d7b6990105719101dabeb77144f2a3385c8033acd3af97e9423a695e81ad1eb5f3f7a9fe364faab93b216da50a3214154f22a0a2b415b23a84c8169e8b636ee36e1540171b6c0c960b71a7020d9f60077f6af931a8bbf590da0223dacf75c7afb10e2d527612073b26eecdfd717e6a320cf44b4afac2b0732d9fcbe2b7fa0cf6","opcodes":"PUSH1 0x80 PUSH1 0x40 MSTORE CALLVALUE PUSH3 0xBD2 JUMPI PUSH3 0x29C7 DUP1 CODESIZE SUB DUP1 PUSH3 0x1D DUP2 PUSH3 0xBD7 JUMP JUMPDEST SWAP3 DUP4 CODECOPY DUP2 ADD PUSH2 0x160 DUP3 DUP3 SUB SLT PUSH3 0xBD2 JUMPI DUP2 MLOAD PUSH1 0x1 PUSH1 0x1 PUSH1 0xA0 SHL SUB DUP2 AND SWAP2 SWAP1 DUP3 SWAP1 SUB PUSH3 0xBD2 JUMPI PUSH1 0x20 DUP4 ADD MLOAD PUSH1 0x1 PUSH1 0x1 PUSH1 0x40 SHL SUB DUP2 GT PUSH3 0xBD2 JUMPI DUP2 PUSH3 0x66 SWAP2 DUP6 ADD PUSH3 0xC15 JUMP JUMPDEST PUSH1 0x40 DUP5 ADD MLOAD SWAP1 SWAP4 SWAP1 PUSH1 0x1 PUSH1 0x1 PUSH1 0x40 SHL SUB DUP2 GT PUSH3 0xBD2 JUMPI DUP3 PUSH3 0x8B SWAP2 DUP4 ADD PUSH3 0xC15 JUMP JUMPDEST PUSH1 0x60 DUP3 ADD MLOAD PUSH1 0x1 PUSH1 0x1 PUSH1 0x40 SHL SUB DUP2 GT PUSH3 0xBD2 JUMPI DUP4 PUSH3 0xAD SWAP2 DUP5 ADD PUSH3 0xC15 JUMP JUMPDEST PUSH1 0x80 DUP4 ADD MLOAD PUSH1 0x1 PUSH1 0x1 PUSH1 0x40 SHL SUB DUP2 GT PUSH3 0xBD2 JUMPI DUP5 PUSH3 0xCF SWAP2 DUP6 ADD PUSH3 0xC15 JUMP JUMPDEST PUSH1 0xA0 DUP5 ADD MLOAD PUSH1 0x1 PUSH1 0x1 PUSH1 0x40 SHL SUB DUP2 GT PUSH3 0xBD2 JUMPI DUP6 PUSH3 0xF1 SWAP2 DUP7 ADD PUSH3 0xC15 JUMP JUMPDEST PUSH1 0xC0 DUP6 ADD MLOAD SWAP1 SWAP2 SWAP1 PUSH1 0x1 PUSH1 0x1 PUSH1 0x40 SHL SUB DUP2 GT PUSH3 0xBD2 JUMPI DUP7 PUSH3 0x116 SWAP2 DUP8 ADD PUSH3 0xC15 JUMP JUMPDEST PUSH1 0xE0 DUP7 ADD MLOAD SWAP1 SWAP4 SWAP1 PUSH1 0x1 PUSH1 0x1 PUSH1 0x40 SHL SUB DUP2 GT PUSH3 0xBD2 JUMPI DUP8 PUSH3 0x13B SWAP2 DUP9 ADD PUSH3 0xC15 JUMP JUMPDEST PUSH2 0x100 DUP8 ADD MLOAD SWAP1 SWAP6 SWAP1 PUSH1 0x1 PUSH1 0x1 PUSH1 0x40 SHL SUB DUP2 GT PUSH3 0xBD2 JUMPI DUP9 PUSH3 0x161 SWAP2 DUP10 ADD PUSH3 0xC15 JUMP JUMPDEST PUSH2 0x120 DUP9 ADD MLOAD SWAP1 SWAP8 SWAP1 PUSH1 0x1 PUSH1 0x1 PUSH1 0x40 SHL SUB DUP2 GT PUSH3 0xBD2 JUMPI DUP10 PUSH3 0x187 SWAP2 DUP4 ADD PUSH3 0xC15 JUMP JUMPDEST PUSH2 0x140 DUP3 ADD MLOAD SWAP1 SWAP10 SWAP1 PUSH1 0x1 PUSH1 0x1 PUSH1 0x40 SHL SUB DUP2 GT PUSH3 0xBD2 JUMPI PUSH3 0x1AB SWAP3 ADD PUSH3 0xC15 JUMP JUMPDEST PUSH1 0x1 PUSH1 0x1 PUSH1 0xFF SHL SUB PUSH1 0x3 SSTORE PUSH1 0x32 PUSH1 0x5 SSTORE PUSH1 0xC8 PUSH1 0x6 DUP2 SWAP1 SSTORE PUSH1 0x7 SSTORE PUSH1 0x10 DUP1 SLOAD PUSH1 0x1 PUSH1 0x1 PUSH1 0xA0 SHL SUB NOT AND SWAP1 SWAP11 OR SWAP1 SWAP10 SSTORE DUP10 MLOAD PUSH3 0x1E6 SWAP1 PUSH3 0xC79 JUMP JUMPDEST DUP1 MLOAD SWAP1 PUSH1 0x1 PUSH1 0x1 PUSH1 0x40 SHL SUB DUP3 GT PUSH3 0x890 JUMPI PUSH9 0x10000000000000000 DUP3 GT PUSH3 0x890 JUMPI PUSH1 0x0 SLOAD DUP3 PUSH1 0x0 SSTORE DUP1 DUP4 LT PUSH3 0xB9B JUMPI JUMPDEST POP PUSH1 0x20 ADD PUSH1 0x0 DUP1 MSTORE PUSH1 0x20 PUSH1 0x0 KECCAK256 PUSH1 0x0 JUMPDEST DUP4 DUP2 LT PUSH3 0xB86 JUMPI POP POP POP POP PUSH3 0x241 DUP2 MLOAD PUSH3 0xC79 JUMP JUMPDEST DUP1 MLOAD SWAP1 PUSH1 0x1 PUSH1 0x1 PUSH1 0x40 SHL SUB DUP3 GT PUSH3 0x890 JUMPI PUSH9 0x10000000000000000 DUP3 GT PUSH3 0x890 JUMPI PUSH1 0x1 SLOAD DUP3 PUSH1 0x1 SSTORE DUP1 DUP4 LT PUSH3 0xB4D JUMPI JUMPDEST POP PUSH1 0x20 ADD PUSH1 0x1 PUSH1 0x0 MSTORE PUSH1 0x20 PUSH1 0x0 KECCAK256 PUSH1 0x0 JUMPDEST DUP4 DUP2 LT PUSH3 0xB38 JUMPI POP POP POP POP PUSH3 0x29D DUP11 MLOAD PUSH3 0xC79 JUMP JUMPDEST DUP1 MLOAD SWAP1 PUSH1 0x1 PUSH1 0x1 PUSH1 0x40 SHL SUB DUP3 GT PUSH3 0x890 JUMPI PUSH9 0x10000000000000000 DUP3 GT PUSH3 0x890 JUMPI PUSH1 0x2 SLOAD DUP3 PUSH1 0x2 SSTORE DUP1 DUP4 LT PUSH3 0xAFF JUMPI JUMPDEST POP PUSH1 0x20 ADD PUSH1 0x2 PUSH1 0x0 MSTORE PUSH1 0x20 PUSH1 0x0 KECCAK256 PUSH1 0x0 JUMPDEST DUP4 DUP2 LT PUSH3 0xAEA JUMPI POP POP POP POP PUSH3 0x2F9 DUP3 MLOAD PUSH3 0xC79 JUMP JUMPDEST DUP1 MLOAD SWAP1 PUSH1 0x1 PUSH1 0x1 PUSH1 0x40 SHL SUB DUP3 GT PUSH3 0x890 JUMPI PUSH9 0x10000000000000000 DUP3 GT PUSH3 0x890 JUMPI PUSH1 0x8 SLOAD DUP3 PUSH1 0x8 SSTORE DUP1 DUP4 LT PUSH3 0xAB1 JUMPI JUMPDEST POP PUSH1 0x20 ADD PUSH1 0x8 PUSH1 0x0 MSTORE PUSH1 0x20 PUSH1 0x0 KECCAK256 PUSH1 0x0 JUMPDEST DUP4 DUP2 LT PUSH3 0xA9C JUMPI POP POP POP POP PUSH3 0x355 DUP4 MLOAD PUSH3 0xC79 JUMP JUMPDEST DUP1 MLOAD SWAP1 PUSH1 0x1 PUSH1 0x1 PUSH1 0x40 SHL SUB DUP3 GT PUSH3 0x890 JUMPI PUSH9 0x10000000000000000 DUP3 GT PUSH3 0x890 JUMPI PUSH1 0x9 SLOAD DUP3 PUSH1 0x9 SSTORE DUP1 DUP4 LT PUSH3 0xA63 JUMPI JUMPDEST POP PUSH1 0x20 ADD PUSH1 0x9 PUSH1 0x0 MSTORE PUSH1 0x20 PUSH1 0x0 KECCAK256 PUSH1 0x0 JUMPDEST DUP4 DUP2 LT PUSH3 0xA4E JUMPI POP POP POP POP PUSH3 0x3B1 DUP5 MLOAD PUSH3 0xC79 JUMP JUMPDEST DUP1 MLOAD SWAP1 PUSH1 0x1 PUSH1 0x1 PUSH1 0x40 SHL SUB DUP3 GT PUSH3 0x890 JUMPI PUSH9 0x10000000000000000 DUP3 GT PUSH3 0x890 JUMPI PUSH1 0xA SLOAD DUP3 PUSH1 0xA SSTORE DUP1 DUP4 LT PUSH3 0xA15 JUMPI JUMPDEST POP PUSH1 0x20 ADD PUSH1 0xA PUSH1 0x0 MSTORE PUSH1 0x20 PUSH1 0x0 KECCAK256 PUSH1 0x0 JUMPDEST DUP4 DUP2 LT PUSH3 0xA00 JUMPI POP POP POP POP PUSH3 0x40D DUP6 MLOAD PUSH3 0xC79 JUMP JUMPDEST DUP1 MLOAD SWAP1 PUSH1 0x1 PUSH1 0x1 PUSH1 0x40 SHL SUB DUP3 GT PUSH3 0x890 JUMPI PUSH9 0x10000000000000000 DUP3 GT PUSH3 0x890 JUMPI PUSH1 0xB SLOAD DUP3 PUSH1 0xB SSTORE DUP1 DUP4 LT PUSH3 0x9B6 JUMPI JUMPDEST POP PUSH1 0x20 ADD PUSH1 0xB PUSH1 0x0 MSTORE PUSH1 0x20 PUSH1 0x0 KECCAK256 PUSH1 0x0 JUMPDEST DUP4 DUP2 LT PUSH3 0x9A1 JUMPI POP POP POP POP PUSH3 0x469 DUP7 MLOAD PUSH3 0xC79 JUMP JUMPDEST DUP1 MLOAD SWAP1 PUSH1 0x1 PUSH1 0x1 PUSH1 0x40 SHL SUB DUP3 GT PUSH3 0x890 JUMPI PUSH9 0x10000000000000000 DUP3 GT PUSH3 0x890 JUMPI PUSH1 0xC SLOAD DUP3 PUSH1 0xC SSTORE DUP1 DUP4 LT PUSH3 0x957 JUMPI JUMPDEST POP PUSH1 0x20 ADD PUSH1 0xC PUSH1 0x0 MSTORE PUSH1 0x20 PUSH1 0x0 KECCAK256 PUSH1 0x0 JUMPDEST DUP4 DUP2 LT PUSH3 0x942 JUMPI POP POP POP POP PUSH3 0x4C5 DUP8 MLOAD PUSH3 0xC79 JUMP JUMPDEST DUP1 MLOAD SWAP1 PUSH1 0x1 PUSH1 0x1 PUSH1 0x40 SHL SUB DUP3 GT PUSH3 0x890 JUMPI PUSH9 0x10000000000000000 DUP3 GT PUSH3 0x890 JUMPI PUSH1 0xD SLOAD DUP3 PUSH1 0xD SSTORE DUP1 DUP4 LT PUSH3 0x909 JUMPI JUMPDEST POP PUSH1 0x20 ADD PUSH1 0xD PUSH1 0x0 MSTORE PUSH1 0x20 PUSH1 0x0 KECCAK256 PUSH1 0x0 JUMPDEST DUP4 DUP2 LT PUSH3 0x8F4 JUMPI POP POP POP POP PUSH3 0x521 DUP9 MLOAD PUSH3 0xC79 JUMP JUMPDEST DUP1 MLOAD SWAP1 PUSH1 0x1 PUSH1 0x1 PUSH1 0x40 SHL SUB DUP3 GT PUSH3 0x890 JUMPI PUSH9 0x10000000000000000 DUP3 GT PUSH3 0x890 JUMPI PUSH1 0xE SLOAD DUP3 PUSH1 0xE SSTORE DUP1 DUP4 LT PUSH3 0x8BB JUMPI JUMPDEST POP PUSH1 0x20 ADD PUSH1 0xE PUSH1 0x0 MSTORE PUSH1 0x20 PUSH1 0x0 KECCAK256 PUSH1 0x0 JUMPDEST DUP4 DUP2 LT PUSH3 0x8A6 JUMPI POP POP POP POP PUSH3 0x57D DUP10 MLOAD PUSH3 0xC79 JUMP JUMPDEST DUP1 MLOAD SWAP1 PUSH1 0x1 PUSH1 0x1 PUSH1 0x40 SHL SUB DUP3 GT PUSH3 0x890 JUMPI PUSH9 0x10000000000000000 DUP3 GT PUSH3 0x890 JUMPI PUSH1 0xF SLOAD DUP3 PUSH1 0xF SSTORE DUP1 DUP4 LT PUSH3 0x846 JUMPI JUMPDEST POP PUSH1 0x20 ADD PUSH1 0xF PUSH1 0x0 MSTORE PUSH1 0x20 PUSH1 0x0 KECCAK256 PUSH1 0x0 JUMPDEST DUP4 DUP2 LT PUSH3 0x831 JUMPI POP POP POP POP PUSH1 0x0 JUMPDEST DUP11 MLOAD DUP2 LT ISZERO PUSH3 0x821 JUMPI PUSH3 0x5E6 DUP2 DUP13 PUSH3 0xCA6 JUMP JUMPDEST MLOAD PUSH1 0x0 SLOAD DUP3 LT ISZERO PUSH3 0x80B JUMPI PUSH1 0x0 DUP1 MSTORE PUSH1 0x0 DUP1 MLOAD PUSH1 0x20 PUSH3 0x2927 DUP4 CODECOPY DUP2 MLOAD SWAP2 MSTORE DUP3 ADD SSTORE PUSH3 0x615 DUP2 DUP13 PUSH3 0xCA6 JUMP JUMPDEST MLOAD PUSH1 0x2 SLOAD DUP3 LT ISZERO PUSH3 0x80B JUMPI PUSH1 0x2 PUSH1 0x0 MSTORE PUSH1 0x0 DUP1 MLOAD PUSH1 0x20 PUSH3 0x28C7 DUP4 CODECOPY DUP2 MLOAD SWAP2 MSTORE DUP3 ADD SSTORE PUSH3 0x645 DUP2 DUP4 PUSH3 0xCA6 JUMP JUMPDEST MLOAD PUSH1 0x1 SLOAD DUP3 LT ISZERO PUSH3 0x80B JUMPI PUSH1 0x1 PUSH1 0x0 MSTORE PUSH1 0x0 DUP1 MLOAD PUSH1 0x20 PUSH3 0x29A7 DUP4 CODECOPY DUP2 MLOAD SWAP2 MSTORE DUP3 ADD SSTORE PUSH3 0x675 DUP2 DUP5 PUSH3 0xCA6 JUMP JUMPDEST MLOAD PUSH1 0x8 SLOAD DUP3 LT ISZERO PUSH3 0x80B JUMPI PUSH1 0x8 PUSH1 0x0 MSTORE PUSH1 0x0 DUP1 MLOAD PUSH1 0x20 PUSH3 0x2967 DUP4 CODECOPY DUP2 MLOAD SWAP2 MSTORE DUP3 ADD SSTORE PUSH3 0x6A5 DUP2 DUP6 PUSH3 0xCA6 JUMP JUMPDEST MLOAD PUSH1 0x9 SLOAD DUP3 LT ISZERO PUSH3 0x80B JUMPI PUSH1 0x9 PUSH1 0x0 MSTORE PUSH1 0x0 DUP1 MLOAD PUSH1 0x20 PUSH3 0x2987 DUP4 CODECOPY DUP2 MLOAD SWAP2 MSTORE DUP3 ADD SSTORE PUSH3 0x6D5 DUP2 DUP7 PUSH3 0xCA6 JUMP JUMPDEST MLOAD PUSH1 0xA SLOAD DUP3 LT ISZERO PUSH3 0x80B JUMPI PUSH1 0xA PUSH1 0x0 MSTORE PUSH1 0x0 DUP1 MLOAD PUSH1 0x20 PUSH3 0x2907 DUP4 CODECOPY DUP2 MLOAD SWAP2 MSTORE DUP3 ADD SSTORE PUSH3 0x705 DUP2 DUP8 PUSH3 0xCA6 JUMP JUMPDEST MLOAD PUSH1 0xB SLOAD DUP3 LT ISZERO PUSH3 0x80B JUMPI PUSH1 0xB PUSH1 0x0 MSTORE PUSH32 0x175B7A638427703F0DBE7BB9BBF987A2551717B34E79F33B5B1008D1FA01DB9 DUP3 ADD SSTORE PUSH3 0x746 DUP2 DUP9 PUSH3 0xCA6 JUMP JUMPDEST MLOAD PUSH1 0xC SLOAD DUP3 LT ISZERO PUSH3 0x80B JUMPI PUSH1 0xC PUSH1 0x0 MSTORE PUSH32 0xDF6966C971051C3D54EC59162606531493A51404A002842F56009D7E5CF4A8C7 DUP3 ADD SSTORE PUSH3 0x787 DUP2 DUP10 PUSH3 0xCA6 JUMP JUMPDEST MLOAD PUSH1 0xD SLOAD DUP3 LT ISZERO PUSH3 0x80B JUMPI PUSH1 0xD PUSH1 0x0 MSTORE PUSH1 0x0 DUP1 MLOAD PUSH1 0x20 PUSH3 0x2947 DUP4 CODECOPY DUP2 MLOAD SWAP2 MSTORE DUP3 ADD SSTORE PUSH3 0x7B7 DUP2 DUP11 PUSH3 0xCA6 JUMP JUMPDEST MLOAD PUSH1 0xE SLOAD DUP3 LT ISZERO PUSH3 0x80B JUMPI PUSH1 0xE PUSH1 0x0 MSTORE PUSH1 0x0 DUP1 MLOAD PUSH1 0x20 PUSH3 0x28E7 DUP4 CODECOPY DUP2 MLOAD SWAP2 MSTORE DUP3 ADD SSTORE PUSH3 0x7E7 DUP2 DUP12 PUSH3 0xCA6 JUMP JUMPDEST MLOAD SWAP1 PUSH1 0xF SLOAD DUP2 LT ISZERO PUSH3 0x80B JUMPI PUSH1 0x1 SWAP2 PUSH1 0xF PUSH1 0x0 MSTORE DUP2 PUSH1 0x20 PUSH1 0x0 KECCAK256 ADD SSTORE ADD PUSH3 0x5D0 JUMP JUMPDEST PUSH4 0x4E487B71 PUSH1 0xE0 SHL PUSH1 0x0 MSTORE PUSH1 0x32 PUSH1 0x4 MSTORE PUSH1 0x24 PUSH1 0x0 REVERT JUMPDEST PUSH1 0x40 MLOAD PUSH2 0x1C0B SWAP1 DUP2 PUSH3 0xCBC DUP3 CODECOPY RETURN JUMPDEST PUSH1 0x1 SWAP1 PUSH1 0x20 DUP5 MLOAD SWAP5 ADD SWAP4 DUP2 DUP5 ADD SSTORE ADD PUSH3 0x5C1 JUMP JUMPDEST PUSH1 0xF PUSH1 0x0 MSTORE PUSH32 0x8D1108E10BCB7C27DDDFC02ED9D693A074039D026CF4EA4240B40F7D581AC802 SWAP1 DUP4 DUP3 ADD JUMPDEST DUP2 DUP4 ADD DUP2 LT PUSH3 0x883 JUMPI POP POP PUSH3 0x5B0 JUMP JUMPDEST PUSH1 0x0 DUP2 SSTORE PUSH1 0x1 ADD PUSH3 0x871 JUMP JUMPDEST PUSH4 0x4E487B71 PUSH1 0xE0 SHL PUSH1 0x0 MSTORE PUSH1 0x41 PUSH1 0x4 MSTORE PUSH1 0x24 PUSH1 0x0 REVERT JUMPDEST PUSH1 0x1 SWAP1 PUSH1 0x20 DUP5 MLOAD SWAP5 ADD SWAP4 DUP2 DUP5 ADD SSTORE ADD PUSH3 0x565 JUMP JUMPDEST PUSH1 0xE PUSH1 0x0 MSTORE PUSH1 0x0 DUP1 MLOAD PUSH1 0x20 PUSH3 0x28E7 DUP4 CODECOPY DUP2 MLOAD SWAP2 MSTORE SWAP1 DUP4 DUP3 ADD JUMPDEST DUP2 DUP4 ADD DUP2 LT PUSH3 0x8E7 JUMPI POP POP PUSH3 0x554 JUMP JUMPDEST PUSH1 0x0 DUP2 SSTORE PUSH1 0x1 ADD PUSH3 0x8D5 JUMP JUMPDEST PUSH1 0x1 SWAP1 PUSH1 0x20 DUP5 MLOAD SWAP5 ADD SWAP4 DUP2 DUP5 ADD SSTORE ADD PUSH3 0x509 JUMP JUMPDEST PUSH1 0xD PUSH1 0x0 MSTORE PUSH1 0x0 DUP1 MLOAD PUSH1 0x20 PUSH3 0x2947 DUP4 CODECOPY DUP2 MLOAD SWAP2 MSTORE SWAP1 DUP4 DUP3 ADD JUMPDEST DUP2 DUP4 ADD DUP2 LT PUSH3 0x935 JUMPI POP POP PUSH3 0x4F8 JUMP JUMPDEST PUSH1 0x0 DUP2 SSTORE PUSH1 0x1 ADD PUSH3 0x923 JUMP JUMPDEST PUSH1 0x1 SWAP1 PUSH1 0x20 DUP5 MLOAD SWAP5 ADD SWAP4 DUP2 DUP5 ADD SSTORE ADD PUSH3 0x4AD JUMP JUMPDEST PUSH1 0xC PUSH1 0x0 MSTORE PUSH32 0xDF6966C971051C3D54EC59162606531493A51404A002842F56009D7E5CF4A8C7 SWAP1 DUP4 DUP3 ADD JUMPDEST DUP2 DUP4 ADD DUP2 LT PUSH3 0x994 JUMPI POP POP PUSH3 0x49C JUMP JUMPDEST PUSH1 0x0 DUP2 SSTORE PUSH1 0x1 ADD PUSH3 0x982 JUMP JUMPDEST PUSH1 0x1 SWAP1 PUSH1 0x20 DUP5 MLOAD SWAP5 ADD SWAP4 DUP2 DUP5 ADD SSTORE ADD PUSH3 0x451 JUMP JUMPDEST PUSH1 0xB PUSH1 0x0 MSTORE PUSH32 0x175B7A638427703F0DBE7BB9BBF987A2551717B34E79F33B5B1008D1FA01DB9 SWAP1 DUP4 DUP3 ADD JUMPDEST DUP2 DUP4 ADD DUP2 LT PUSH3 0x9F3 JUMPI POP POP PUSH3 0x440 JUMP JUMPDEST PUSH1 0x0 DUP2 SSTORE PUSH1 0x1 ADD PUSH3 0x9E1 JUMP JUMPDEST PUSH1 0x1 SWAP1 PUSH1 0x20 DUP5 MLOAD SWAP5 ADD SWAP4 DUP2 DUP5 ADD SSTORE ADD PUSH3 0x3F5 JUMP JUMPDEST PUSH1 0xA PUSH1 0x0 MSTORE PUSH1 0x0 DUP1 MLOAD PUSH1 0x20 PUSH3 0x2907 DUP4 CODECOPY DUP2 MLOAD SWAP2 MSTORE SWAP1 DUP4 DUP3 ADD JUMPDEST DUP2 DUP4 ADD DUP2 LT PUSH3 0xA41 JUMPI POP POP PUSH3 0x3E4 JUMP JUMPDEST PUSH1 0x0 DUP2 SSTORE PUSH1 0x1 ADD PUSH3 0xA2F JUMP JUMPDEST PUSH1 0x1 SWAP1 PUSH1 0x20 DUP5 MLOAD SWAP5 ADD SWAP4 DUP2 DUP5 ADD SSTORE ADD PUSH3 0x399 JUMP JUMPDEST PUSH1 0x9 PUSH1 0x0 MSTORE PUSH1 0x0 DUP1 MLOAD PUSH1 0x20 PUSH3 0x2987 DUP4 CODECOPY DUP2 MLOAD SWAP2 MSTORE SWAP1 DUP4 DUP3 ADD JUMPDEST DUP2 DUP4 ADD DUP2 LT PUSH3 0xA8F JUMPI POP POP PUSH3 0x388 JUMP JUMPDEST PUSH1 0x0 DUP2 SSTORE PUSH1 0x1 ADD PUSH3 0xA7D JUMP JUMPDEST PUSH1 0x1 SWAP1 PUSH1 0x20 DUP5 MLOAD SWAP5 ADD SWAP4 DUP2 DUP5 ADD SSTORE ADD PUSH3 0x33D JUMP JUMPDEST PUSH1 0x8 PUSH1 0x0 MSTORE PUSH1 0x0 DUP1 MLOAD PUSH1 0x20 PUSH3 0x2967 DUP4 CODECOPY DUP2 MLOAD SWAP2 MSTORE SWAP1 DUP4 DUP3 ADD JUMPDEST DUP2 DUP4 ADD DUP2 LT PUSH3 0xADD JUMPI POP POP PUSH3 0x32C JUMP JUMPDEST PUSH1 0x0 DUP2 SSTORE PUSH1 0x1 ADD PUSH3 0xACB JUMP JUMPDEST PUSH1 0x1 SWAP1 PUSH1 0x20 DUP5 MLOAD SWAP5 ADD SWAP4 DUP2 DUP5 ADD SSTORE ADD PUSH3 0x2E1 JUMP JUMPDEST PUSH1 0x2 PUSH1 0x0 MSTORE PUSH1 0x0 DUP1 MLOAD PUSH1 0x20 PUSH3 0x28C7 DUP4 CODECOPY DUP2 MLOAD SWAP2 MSTORE SWAP1 DUP4 DUP3 ADD JUMPDEST DUP2 DUP4 ADD DUP2 LT PUSH3 0xB2B JUMPI POP POP PUSH3 0x2D0 JUMP JUMPDEST PUSH1 0x0 DUP2 SSTORE PUSH1 0x1 ADD PUSH3 0xB19 JUMP JUMPDEST PUSH1 0x1 SWAP1 PUSH1 0x20 DUP5 MLOAD SWAP5 ADD SWAP4 DUP2 DUP5 ADD SSTORE ADD PUSH3 0x285 JUMP JUMPDEST PUSH1 0x1 PUSH1 0x0 MSTORE PUSH1 0x0 DUP1 MLOAD PUSH1 0x20 PUSH3 0x29A7 DUP4 CODECOPY DUP2 MLOAD SWAP2 MSTORE SWAP1 DUP4 DUP3 ADD JUMPDEST DUP2 DUP4 ADD DUP2 LT PUSH3 0xB79 JUMPI POP POP PUSH3 0x274 JUMP JUMPDEST PUSH1 0x0 DUP2 SSTORE PUSH1 0x1 ADD PUSH3 0xB67 JUMP JUMPDEST PUSH1 0x1 SWAP1 PUSH1 0x20 DUP5 MLOAD SWAP5 ADD SWAP4 DUP2 DUP5 ADD SSTORE ADD PUSH3 0x229 JUMP JUMPDEST PUSH1 0x0 DUP1 MSTORE PUSH1 0x0 DUP1 MLOAD PUSH1 0x20 PUSH3 0x2927 DUP4 CODECOPY DUP2 MLOAD SWAP2 MSTORE SWAP1 DUP2 ADD SWAP1 DUP4 ADD JUMPDEST DUP2 DUP2 LT PUSH3 0xBC5 JUMPI POP PUSH3 0x219 JUMP JUMPDEST PUSH1 0x0 DUP2 SSTORE PUSH1 0x1 ADD PUSH3 0xBB6 JUMP JUMPDEST PUSH1 0x0 DUP1 REVERT JUMPDEST PUSH1 0x40 MLOAD SWAP2 SWAP1 PUSH1 0x1F ADD PUSH1 0x1F NOT AND DUP3 ADD PUSH1 0x1 PUSH1 0x1 PUSH1 0x40 SHL SUB DUP2 GT DUP4 DUP3 LT OR PUSH3 0x890 JUMPI PUSH1 0x40 MSTORE JUMP JUMPDEST PUSH1 0x1 PUSH1 0x1 PUSH1 0x40 SHL SUB DUP2 GT PUSH3 0x890 JUMPI PUSH1 0x5 SHL PUSH1 0x20 ADD SWAP1 JUMP JUMPDEST SWAP1 DUP1 PUSH1 0x1F DUP4 ADD SLT ISZERO PUSH3 0xBD2 JUMPI DUP2 MLOAD SWAP1 PUSH1 0x20 SWAP2 PUSH3 0xC3D PUSH3 0xC37 DUP3 PUSH3 0xBFD JUMP JUMPDEST PUSH3 0xBD7 JUMP JUMPDEST SWAP4 PUSH1 0x20 DUP1 DUP7 DUP5 DUP2 MSTORE ADD SWAP3 PUSH1 0x5 SHL DUP3 ADD ADD SWAP3 DUP4 GT PUSH3 0xBD2 JUMPI PUSH1 0x20 ADD SWAP1 JUMPDEST DUP3 DUP3 LT PUSH3 0xC69 JUMPI POP POP POP POP SWAP1 JUMP JUMPDEST DUP2 MLOAD DUP2 MSTORE SWAP1 DUP4 ADD SWAP1 DUP4 ADD PUSH3 0xC5A JUMP JUMPDEST SWAP1 PUSH3 0xC89 PUSH3 0xC37 DUP4 PUSH3 0xBFD JUMP JUMPDEST DUP3 DUP2 MSTORE DUP1 SWAP3 PUSH3 0xC9C PUSH1 0x1F NOT SWAP2 PUSH3 0xBFD JUMP JUMPDEST ADD SWAP1 PUSH1 0x20 CALLDATASIZE SWAP2 ADD CALLDATACOPY JUMP JUMPDEST DUP1 MLOAD DUP3 LT ISZERO PUSH3 0x80B JUMPI PUSH1 0x20 SWAP2 PUSH1 0x5 SHL ADD ADD SWAP1 JUMP INVALID PUSH1 0x80 PUSH1 0x40 DUP2 DUP2 MSTORE PUSH1 0x4 DUP1 CALLDATASIZE LT ISZERO PUSH2 0x15 JUMPI PUSH1 0x0 DUP1 REVERT JUMPDEST PUSH1 0x0 SWAP3 DUP4 CALLDATALOAD PUSH1 0xE0 SHR SWAP1 DUP2 PUSH4 0x3BC4A86 EQ PUSH2 0xDCB JUMPI POP DUP1 PUSH4 0x4D01942 EQ PUSH2 0xDA1 JUMPI DUP1 PUSH4 0x16B51928 EQ PUSH2 0xD77 JUMPI DUP1 PUSH4 0x205C9CC7 EQ PUSH2 0xD58 JUMPI DUP1 PUSH4 0x300AEE14 EQ PUSH2 0xD3D JUMPI DUP1 PUSH4 0x364132D9 EQ PUSH2 0xD27 JUMPI DUP1 PUSH4 0x375A105E EQ PUSH2 0xCFD JUMPI DUP1 PUSH4 0x48E257CB EQ PUSH2 0xCDE JUMPI DUP1 PUSH4 0x4D985AE4 EQ PUSH2 0xCBF JUMPI DUP1 PUSH4 0x4EB274FF EQ PUSH2 0xC95 JUMPI DUP1 PUSH4 0x5F57697C EQ PUSH2 0xC76 JUMPI DUP1 PUSH4 0x6F240774 EQ PUSH2 0xC4C JUMPI DUP1 PUSH4 0x7398AB18 EQ PUSH2 0xBD3 JUMPI DUP1 PUSH4 0x78B6D7D4 EQ PUSH2 0xBA9 JUMPI DUP1 PUSH4 0x90CCFA0F EQ PUSH2 0xB80 JUMPI DUP1 PUSH4 0x957B4056 EQ PUSH2 0xB56 JUMPI DUP1 PUSH4 0x96D14DA6 EQ PUSH2 0xB2C JUMPI DUP1 PUSH4 0x973B9CC1 EQ PUSH2 0x765 JUMPI DUP1 PUSH4 0xA86853D5 EQ PUSH2 0x73B JUMPI DUP1 PUSH4 0xAB1BBECA EQ PUSH2 0x711 JUMPI DUP1 PUSH4 0xB0D547FF EQ PUSH2 0x6FD JUMPI DUP1 PUSH4 0xB6CE6709 EQ PUSH2 0x6AD JUMPI DUP1 PUSH4 0xD0C6C7AF EQ PUSH2 0x690 JUMPI DUP1 PUSH4 0xE329143F EQ PUSH2 0x640 JUMPI DUP1 PUSH4 0xE7D46385 EQ PUSH2 0x606 JUMPI DUP1 PUSH4 0xF6451C0A EQ PUSH2 0x1BE JUMPI DUP1 PUSH4 0xF7A95A9E EQ PUSH2 0x195 JUMPI PUSH4 0xFF9C446F EQ PUSH2 0x157 JUMPI PUSH1 0x0 DUP1 REVERT JUMPDEST CALLVALUE PUSH2 0x191 JUMPI PUSH1 0x20 CALLDATASIZE PUSH1 0x3 NOT ADD SLT PUSH2 0x191 JUMPI CALLDATALOAD SWAP2 PUSH1 0x11 SLOAD DUP4 LT ISZERO PUSH2 0x18E JUMPI POP PUSH2 0x180 PUSH1 0x20 SWAP3 PUSH2 0x102E JUMP JUMPDEST SWAP2 SWAP1 SLOAD SWAP1 MLOAD SWAP2 PUSH1 0x3 SHL SHR DUP2 MSTORE RETURN JUMPDEST DUP1 REVERT JUMPDEST DUP3 DUP1 REVERT JUMPDEST POP CALLVALUE PUSH2 0x191 JUMPI PUSH1 0x20 CALLDATASIZE PUSH1 0x3 NOT ADD SLT PUSH2 0x191 JUMPI CALLDATALOAD SWAP2 DUP1 SLOAD DUP4 LT ISZERO PUSH2 0x18E JUMPI POP PUSH2 0x180 PUSH1 0x20 SWAP3 PUSH2 0xF1A JUMP JUMPDEST POP CALLVALUE PUSH2 0x191 JUMPI DUP3 PUSH1 0x3 NOT CALLDATASIZE ADD SLT PUSH2 0x191 JUMPI PUSH1 0x10 SLOAD DUP3 MLOAD PUSH4 0x2989B4B PUSH1 0xE6 SHL DUP2 MSTORE SWAP3 SWAP1 PUSH1 0x20 SWAP1 DUP6 SWAP1 PUSH1 0x1 PUSH1 0x1 PUSH1 0xA0 SHL SUB AND DUP3 DUP7 DUP7 DUP2 DUP5 GAS STATICCALL DUP1 ISZERO PUSH2 0x5FC JUMPI DUP6 SWAP7 DUP4 SWAP7 SWAP6 SWAP7 SWAP2 PUSH2 0x5C7 JUMPI JUMPDEST POP DUP4 DUP6 SLOAD DUP3 GT PUSH2 0x595 JUMPI JUMPDEST POP POP DUP5 MLOAD PUSH4 0xB6042CF9 PUSH1 0xE0 SHL DUP2 MSTORE SWAP6 DUP7 SWAP2 DUP3 SWAP1 GAS STATICCALL SWAP4 DUP5 ISZERO PUSH2 0x58B JUMPI DUP6 SWAP5 PUSH2 0x567 JUMPI JUMPDEST POP DUP4 MLOAD DUP6 SLOAD SUB PUSH2 0x532 JUMPI DUP5 JUMPDEST DUP6 SLOAD DUP2 LT ISZERO PUSH2 0x52E JUMPI PUSH2 0x253 DUP2 PUSH2 0xF1A JUMP JUMPDEST SWAP1 SLOAD DUP6 MLOAD TIMESTAMP DUP6 DUP3 ADD SWAP1 DUP2 MSTORE PUSH1 0x20 DUP2 ADD DUP6 SWAP1 MSTORE PUSH1 0x3 SWAP4 DUP5 SHL SWAP3 SWAP1 SWAP3 SHR PUSH1 0x40 DUP4 ADD MSTORE DUP1 PUSH1 0x60 DUP4 ADD SUB SWAP1 PUSH2 0x28C PUSH1 0x1F NOT SWAP3 DUP4 DUP2 ADD DUP4 MSTORE DUP3 PUSH2 0x1065 JUMP JUMPDEST PUSH1 0x64 SWAP3 DUP4 SWAP2 MLOAD SWAP1 KECCAK256 MOD SWAP1 PUSH1 0x1 SWAP2 DUP3 DUP7 ADD DUP1 DUP8 GT PUSH2 0x51B JUMPI DUP5 PUSH1 0x65 SWAP2 DUP12 PUSH2 0x2E9 DUP12 PUSH2 0x2DD PUSH2 0x2B8 DUP14 PUSH2 0xEE3 JUMP JUMPDEST SWAP1 SLOAD SWAP1 DUP14 SHL SHR SWAP4 MLOAD SWAP4 DUP5 SWAP3 DUP4 ADD SWAP6 TIMESTAMP DUP8 SWAP2 PUSH1 0x60 SWAP4 SWAP2 DUP4 MSTORE PUSH1 0x20 DUP4 ADD MSTORE PUSH1 0x40 DUP3 ADD MSTORE ADD SWAP1 JUMP JUMPDEST SUB DUP8 DUP2 ADD DUP4 MSTORE DUP3 PUSH2 0x1065 JUMP JUMPDEST MLOAD SWAP1 KECCAK256 MOD SWAP3 PUSH2 0x2F7 DUP9 PUSH2 0xEE3 JUMP JUMPDEST SWAP1 SLOAD SWAP1 DUP9 SHL SHR SWAP1 PUSH2 0x330 DUP13 MLOAD SWAP2 DUP3 PUSH2 0x324 DUP14 DUP3 ADD SWAP6 DUP14 TIMESTAMP DUP9 SWAP2 PUSH1 0x60 SWAP4 SWAP2 DUP4 MSTORE PUSH1 0x20 DUP4 ADD MSTORE PUSH1 0x40 DUP3 ADD MSTORE ADD SWAP1 JUMP JUMPDEST SUB SWAP1 DUP2 ADD DUP4 MSTORE DUP3 PUSH2 0x1065 JUMP JUMPDEST MLOAD SWAP1 KECCAK256 MOD SWAP3 PUSH1 0x31 NOT DUP5 ADD SWAP4 DUP5 SGT AND PUSH2 0x506 JUMPI SWAP2 PUSH2 0x3EB PUSH2 0x3F0 SWAP3 DUP6 PUSH2 0x3DB DUP9 PUSH2 0x3D6 DUP16 DUP5 SWAP10 DUP4 SWAP12 PUSH2 0x3DB PUSH1 0x1 SWAP16 SWAP15 SWAP4 DUP16 PUSH2 0x3CD DUP2 PUSH2 0x3B5 PUSH2 0x39F DUP3 PUSH2 0x399 PUSH2 0x3E2 SWAP12 PUSH2 0x37E PUSH2 0x3D6 SWAP9 PUSH2 0xFD2 JUMP JUMPDEST SWAP1 SLOAD SWAP1 DUP3 SHL SHR SWAP1 PUSH2 0x38E DUP5 PUSH2 0xF1A JUMP JUMPDEST SWAP1 SLOAD SWAP2 SHL SHR SWAP1 PUSH2 0x1389 JUMP JUMPDEST SWAP7 PUSH2 0x124C JUMP JUMPDEST MLOAD PUSH2 0x3A9 DUP4 PUSH2 0xF1A JUMP JUMPDEST SWAP1 SLOAD SWAP1 DUP14 SHL SHR SWAP1 PUSH2 0x1389 JUMP JUMPDEST SWAP10 PUSH2 0x3C2 PUSH1 0x5 SLOAD SWAP3 PUSH2 0xEE3 JUMP JUMPDEST SWAP1 SLOAD SWAP2 SHL SHR SWAP1 PUSH2 0x1355 JUMP JUMPDEST SWAP5 PUSH1 0x6 SLOAD PUSH2 0x1355 JUMP JUMPDEST PUSH2 0x1355 JUMP JUMPDEST SDIV SWAP1 PUSH2 0x13AF JUMP JUMPDEST SWAP5 PUSH1 0x7 SLOAD PUSH2 0x1355 JUMP JUMPDEST PUSH2 0x13AF JUMP JUMPDEST SDIV PUSH2 0x414 PUSH2 0x3FD DUP5 PUSH2 0xEE3 JUMP JUMPDEST DUP2 SWAP4 SWAP2 SLOAD SWAP1 PUSH1 0x3 SHL SWAP2 DUP3 SHL SWAP2 PUSH1 0x0 NOT SWAP1 SHL NOT AND OR SWAP1 JUMP JUMPDEST SWAP1 SSTORE PUSH2 0x43D PUSH2 0x422 DUP4 PUSH2 0xF1A JUMP JUMPDEST SWAP1 SLOAD SWAP1 DUP4 SHL SHR PUSH2 0x431 DUP5 PUSH2 0xEE3 JUMP JUMPDEST SWAP1 SLOAD SWAP1 DUP5 SHL SHR SWAP1 PUSH2 0x13AF JUMP JUMPDEST PUSH2 0x449 PUSH2 0x3FD DUP5 PUSH2 0xF1A JUMP JUMPDEST SWAP1 SSTORE PUSH2 0x47A PUSH2 0x457 DUP4 PUSH2 0xFD2 JUMP JUMPDEST SWAP1 SLOAD SWAP1 DUP4 SHL SHR PUSH2 0x474 PUSH2 0x469 DUP6 PUSH2 0xE75 JUMP JUMPDEST SWAP1 SLOAD SWAP1 DUP6 SHL SHR PUSH2 0x12FD JUMP JUMPDEST SWAP1 PUSH2 0x1389 JUMP JUMPDEST PUSH2 0x4A9 PUSH2 0x486 DUP5 PUSH2 0xFD2 JUMP JUMPDEST SWAP1 SLOAD SWAP1 DUP5 SHL SHR PUSH2 0x4A3 PUSH2 0x498 DUP7 PUSH2 0xF64 JUMP JUMPDEST SWAP1 SLOAD SWAP1 DUP7 SHL SHR PUSH2 0x12FD JUMP JUMPDEST SWAP1 PUSH2 0x13AF JUMP JUMPDEST SWAP2 DUP2 DUP4 SWAP3 PUSH2 0x4B6 DUP7 PUSH2 0xF1A JUMP JUMPDEST SWAP1 SLOAD SWAP1 DUP5 SHL SHR SLT PUSH2 0x4F2 JUMPI JUMPDEST POP PUSH2 0x4CC DUP5 PUSH2 0xF1A JUMP JUMPDEST SWAP1 SLOAD SWAP2 SHL SHR SGT PUSH2 0x4DE JUMPI JUMPDEST POP ADD PUSH2 0x241 JUMP JUMPDEST PUSH2 0x4EA PUSH2 0x3FD DUP4 PUSH2 0xF1A JUMP JUMPDEST SWAP1 SSTORE CODESIZE PUSH2 0x4D7 JUMP JUMPDEST PUSH2 0x4FE PUSH2 0x3FD DUP7 PUSH2 0xF1A JUMP JUMPDEST SWAP1 SSTORE CODESIZE PUSH2 0x4C2 JUMP JUMPDEST PUSH1 0x11 DUP9 PUSH4 0x4E487B71 PUSH1 0xE0 SHL PUSH1 0x0 MSTORE MSTORE PUSH1 0x24 PUSH1 0x0 REVERT JUMPDEST PUSH4 0x4E487B71 PUSH1 0xE0 SHL DUP13 MSTORE PUSH1 0x11 DUP10 MSTORE PUSH1 0x24 DUP13 REVERT JUMPDEST DUP6 DUP1 RETURN JUMPDEST PUSH1 0x64 SWAP3 MLOAD SWAP2 PUSH3 0x461BCD PUSH1 0xE5 SHL DUP4 MSTORE DUP3 ADD MSTORE PUSH1 0x12 PUSH1 0x24 DUP3 ADD MSTORE PUSH18 0x44696D656E7369756E6920696E6567616C65 PUSH1 0x70 SHL PUSH1 0x44 DUP3 ADD MSTORE REVERT JUMPDEST PUSH2 0x584 SWAP2 SWAP5 POP RETURNDATASIZE DUP1 DUP8 DUP4 RETURNDATACOPY PUSH2 0x57C DUP2 DUP4 PUSH2 0x1065 JUMP JUMPDEST DUP2 ADD SWAP1 PUSH2 0x1260 JUMP JUMPDEST SWAP3 CODESIZE PUSH2 0x235 JUMP JUMPDEST DUP4 MLOAD RETURNDATASIZE DUP8 DUP3 RETURNDATACOPY RETURNDATASIZE SWAP1 REVERT JUMPDEST DUP2 PUSH32 0xC06999D659D5132DD93A1915097DA1A6A24201916389E38DA2404E4BCA5E59BE SWAP3 DUP8 SSTORE DUP8 MLOAD SWAP1 DUP2 MSTORE LOG1 CODESIZE DUP4 PUSH2 0x212 JUMP JUMPDEST DUP1 SWAP6 POP DUP5 DUP1 SWAP3 POP RETURNDATASIZE DUP4 GT PUSH2 0x5F5 JUMPI JUMPDEST PUSH2 0x5E0 DUP2 DUP4 PUSH2 0x1065 JUMP JUMPDEST DUP2 ADD SUB SLT PUSH2 0x5F1 JUMPI DUP6 SWAP4 MLOAD CODESIZE PUSH2 0x207 JUMP JUMPDEST POP DUP1 REVERT JUMPDEST POP RETURNDATASIZE PUSH2 0x5D6 JUMP JUMPDEST DUP5 MLOAD RETURNDATASIZE DUP5 DUP3 RETURNDATACOPY RETURNDATASIZE SWAP1 REVERT JUMPDEST POP POP CALLVALUE PUSH2 0x5F1 JUMPI DUP2 PUSH1 0x3 NOT CALLDATASIZE ADD SLT PUSH2 0x5F1 JUMPI DUP1 MLOAD PUSH2 0x63C SWAP2 PUSH2 0x632 DUP3 PUSH2 0x62B DUP2 PUSH2 0x1176 JUMP JUMPDEST SUB DUP4 PUSH2 0x1065 JUMP JUMPDEST MLOAD SWAP2 DUP3 SWAP2 DUP3 PUSH2 0x113A JUMP JUMPDEST SUB SWAP1 RETURN JUMPDEST POP CALLVALUE PUSH2 0x191 JUMPI PUSH1 0x20 CALLDATASIZE PUSH1 0x3 NOT ADD SLT PUSH2 0x191 JUMPI CALLDATALOAD PUSH1 0xD SLOAD DUP2 LT ISZERO PUSH2 0x191 JUMPI PUSH1 0x20 SWAP3 POP PUSH1 0xD PUSH1 0x0 MSTORE PUSH32 0xD7B6990105719101DABEB77144F2A3385C8033ACD3AF97E9423A695E81AD1EB5 ADD SLOAD SWAP1 MLOAD SWAP1 DUP2 MSTORE RETURN JUMPDEST POP CALLVALUE PUSH2 0x191 JUMPI DUP3 PUSH1 0x3 NOT CALLDATASIZE ADD SLT PUSH2 0x191 JUMPI PUSH1 0x20 SWAP3 POP SLOAD SWAP1 MLOAD SWAP1 DUP2 MSTORE RETURN JUMPDEST POP CALLVALUE PUSH2 0x191 JUMPI PUSH1 0x20 CALLDATASIZE PUSH1 0x3 NOT ADD SLT PUSH2 0x191 JUMPI CALLDATALOAD PUSH1 0xB SLOAD DUP2 LT ISZERO PUSH2 0x191 JUMPI PUSH1 0x20 SWAP3 POP PUSH1 0xB PUSH1 0x0 MSTORE PUSH32 0x175B7A638427703F0DBE7BB9BBF987A2551717B34E79F33B5B1008D1FA01DB9 ADD SLOAD SWAP1 MLOAD SWAP1 DUP2 MSTORE RETURN JUMPDEST DUP4 CALLVALUE PUSH2 0x18E JUMPI DUP1 PUSH1 0x3 NOT CALLDATASIZE ADD SLT PUSH2 0x18E JUMPI DUP1 RETURN JUMPDEST POP CALLVALUE PUSH2 0x191 JUMPI PUSH1 0x20 CALLDATASIZE PUSH1 0x3 NOT ADD SLT PUSH2 0x191 JUMPI CALLDATALOAD SWAP2 PUSH1 0x9 SLOAD DUP4 LT ISZERO PUSH2 0x18E JUMPI POP PUSH2 0x180 PUSH1 0x20 SWAP3 PUSH2 0xFF7 JUMP JUMPDEST POP CALLVALUE PUSH2 0x191 JUMPI PUSH1 0x20 CALLDATASIZE PUSH1 0x3 NOT ADD SLT PUSH2 0x191 JUMPI CALLDATALOAD SWAP2 PUSH1 0x2 SLOAD DUP4 LT ISZERO PUSH2 0x18E JUMPI POP PUSH2 0x180 PUSH1 0x20 SWAP3 PUSH2 0xFD2 JUMP JUMPDEST POP SWAP1 CALLVALUE PUSH2 0x191 JUMPI PUSH1 0x3 NOT SWAP2 DUP4 DUP4 CALLDATASIZE ADD SLT PUSH2 0xB28 JUMPI PUSH2 0x797 DUP3 MLOAD PUSH2 0x792 DUP2 PUSH2 0x78B DUP2 PUSH2 0x11C1 JUMP JUMPDEST SUB DUP3 PUSH2 0x1065 JUMP JUMPDEST PUSH2 0x179C JUMP JUMPDEST PUSH1 0x3 DUP1 SLOAD DUP3 SLT PUSH2 0x8C7 JUMPI JUMPDEST PUSH1 0xE SLOAD PUSH2 0x7AE DUP2 PUSH2 0x121A JUMP JUMPDEST SWAP2 DUP8 JUMPDEST DUP3 DUP2 LT PUSH2 0x88A JUMPI POP POP PUSH1 0x10 SLOAD PUSH1 0x1 PUSH1 0x1 PUSH1 0xA0 SHL SUB AND SWAP3 SWAP1 POP DUP3 EXTCODESIZE ISZERO PUSH2 0x886 JUMPI DUP5 MLOAD PUSH4 0x2FC0395F PUSH1 0xE0 SHL DUP2 MSTORE PUSH1 0x60 DUP6 DUP3 ADD MSTORE SWAP6 DUP8 SWAP4 DUP8 SWAP4 SWAP1 SWAP3 SWAP1 SWAP2 PUSH2 0x7F7 PUSH1 0x64 DUP7 ADD PUSH2 0x11C1 JUMP JUMPDEST SWAP2 PUSH1 0x24 DUP7 ADD MSTORE DUP5 DUP3 SUB ADD PUSH1 0x44 DUP6 ADD MSTORE DUP2 MLOAD DUP1 DUP3 MSTORE PUSH1 0x20 DUP1 DUP1 SWAP4 ADD SWAP4 ADD SWAP2 DUP7 JUMPDEST DUP3 DUP2 LT PUSH2 0x86C JUMPI POP POP POP POP DUP4 DUP4 DUP1 SWAP3 SUB SWAP3 GAS CALL DUP1 ISZERO PUSH2 0x862 JUMPI PUSH2 0x837 JUMPI DUP4 DUP1 RETURN JUMPDEST PUSH8 0xFFFFFFFFFFFFFFFF DUP4 GT PUSH2 0x84F JUMPI POP MSTORE CODESIZE DUP1 DUP1 DUP4 DUP1 RETURN JUMPDEST PUSH4 0x4E487B71 PUSH1 0xE0 SHL DUP5 MSTORE PUSH1 0x41 SWAP1 MSTORE PUSH1 0x24 DUP4 REVERT JUMPDEST DUP3 MLOAD RETURNDATASIZE DUP7 DUP3 RETURNDATACOPY RETURNDATASIZE SWAP1 REVERT JUMPDEST DUP4 MLOAD DUP6 MSTORE DUP12 SWAP8 POP DUP11 SWAP7 POP SWAP4 DUP2 ADD SWAP4 SWAP3 DUP2 ADD SWAP3 PUSH1 0x1 ADD PUSH2 0x816 JUMP JUMPDEST DUP7 DUP1 REVERT JUMPDEST DUP1 PUSH2 0x8B4 PUSH2 0x899 PUSH1 0x1 SWAP4 PUSH2 0xF64 JUMP JUMPDEST SWAP1 SLOAD SWAP1 DUP6 SHL SHR PUSH2 0x8A8 DUP4 PUSH2 0xE75 JUMP JUMPDEST SWAP1 SLOAD SWAP1 DUP7 SHL SHR SWAP1 PUSH2 0x13A2 JUMP JUMPDEST DUP3 SHR PUSH2 0x8C0 DUP3 DUP8 PUSH2 0x124C JUMP JUMPDEST MSTORE ADD PUSH2 0x7B1 JUMP JUMPDEST SWAP2 SWAP5 SWAP3 SWAP1 SWAP4 DUP5 DUP4 SSTORE DUP4 SLOAD SWAP3 PUSH8 0xFFFFFFFFFFFFFFFF DUP5 GT PUSH2 0xB15 JUMPI PUSH9 0x10000000000000000 SWAP4 DUP5 DUP2 GT PUSH2 0xB02 JUMPI PUSH1 0x2 SLOAD DUP2 PUSH1 0x2 SSTORE DUP1 DUP3 LT PUSH2 0xAD4 JUMPI JUMPDEST POP PUSH32 0x290DECD9548B62A8D60345A988386FC84BA6BC95484008F6362F93160EF3E563 PUSH1 0x2 DUP8 MSTORE DUP1 SLOAD SWAP1 DUP8 SWAP2 JUMPDEST DUP4 DUP4 LT PUSH2 0xAB0 JUMPI POP POP POP POP PUSH1 0x11 SWAP2 PUSH1 0x11 SLOAD DUP7 PUSH1 0x11 SSTORE DUP1 PUSH2 0xA6E JUMPI JUMPDEST POP PUSH1 0x12 SWAP4 PUSH1 0x12 SLOAD DUP8 PUSH1 0x12 SSTORE DUP1 PUSH2 0xA2C JUMPI JUMPDEST POP DUP7 JUMPDEST PUSH1 0xA SLOAD DUP2 LT ISZERO PUSH2 0x9F2 JUMPI PUSH2 0x970 DUP2 PUSH2 0xF9B JUMP JUMPDEST SWAP1 SLOAD DUP7 SLOAD SWAP2 DUP7 SHL SHR DUP9 DUP3 LT ISZERO PUSH2 0x9DF JUMPI PUSH2 0x993 PUSH2 0x3FD PUSH1 0x1 SWAP4 DUP5 DUP2 ADD DUP11 SSTORE PUSH2 0x102E JUMP JUMPDEST SWAP1 SSTORE PUSH2 0x99E DUP3 PUSH2 0xEAC JUMP JUMPDEST SWAP1 SLOAD DUP9 SLOAD SWAP2 DUP8 SHL SHR SWAP2 DUP10 DUP3 LT ISZERO PUSH2 0x9CC JUMPI PUSH2 0x3FD DUP3 PUSH2 0x9C4 SWAP3 PUSH1 0x1 SWAP7 SWAP6 SWAP5 ADD DUP12 SSTORE PUSH2 0xDF1 JUMP JUMPDEST SWAP1 SSTORE ADD PUSH2 0x95D JUMP JUMPDEST PUSH4 0x4E487B71 PUSH1 0xE0 SHL DUP12 MSTORE PUSH1 0x41 DUP14 MSTORE PUSH1 0x24 DUP12 REVERT JUMPDEST PUSH4 0x4E487B71 PUSH1 0xE0 SHL DUP11 MSTORE PUSH1 0x41 DUP13 MSTORE PUSH1 0x24 DUP11 REVERT JUMPDEST POP SWAP6 SWAP8 SWAP5 POP SWAP6 SWAP3 POP SWAP1 POP DUP4 MLOAD DUP3 DUP2 MSTORE PUSH32 0x409D103F7876158F293A85EE39F235CE0C309AB1ACA81024A51DFB4B471E556E PUSH1 0x20 ADDRESS SWAP3 LOG2 PUSH2 0x7A2 JUMP JUMPDEST PUSH1 0x12 DUP9 MSTORE PUSH32 0xBB8A6A4669BA250D26CD7A459ECA9D215F8307E33AEBE50379BC5A3617EC3444 SWAP1 DUP2 ADD SWAP1 JUMPDEST DUP2 DUP2 LT PUSH2 0xA63 JUMPI POP PUSH2 0x95A JUMP JUMPDEST DUP9 DUP2 SSTORE PUSH1 0x1 ADD PUSH2 0xA56 JUMP JUMPDEST PUSH1 0x11 DUP8 MSTORE PUSH32 0x31ECC21A745E3968A04E9570E4425BC18FA8019C68028196B546D1669C200C68 SWAP1 DUP2 ADD SWAP1 JUMPDEST DUP2 DUP2 LT PUSH2 0xAA5 JUMPI POP PUSH2 0x949 JUMP JUMPDEST DUP8 DUP2 SSTORE PUSH1 0x1 ADD PUSH2 0xA98 JUMP JUMPDEST PUSH1 0x1 DUP1 SWAP2 SWAP3 ADD SWAP3 DUP4 SLOAD SWAP3 DUP2 PUSH1 0x0 DUP1 MLOAD PUSH1 0x20 PUSH2 0x1BB6 DUP4 CODECOPY DUP2 MLOAD SWAP2 MSTORE ADD SSTORE ADD SWAP2 SWAP1 PUSH2 0x92E JUMP JUMPDEST DUP2 PUSH1 0x0 DUP1 MLOAD PUSH1 0x20 PUSH2 0x1BB6 DUP4 CODECOPY DUP2 MLOAD SWAP2 MSTORE SWAP2 DUP3 ADD SWAP2 ADD JUMPDEST DUP2 DUP2 LT PUSH2 0xAF7 JUMPI POP PUSH2 0x902 JUMP JUMPDEST DUP8 DUP2 SSTORE PUSH1 0x1 ADD PUSH2 0xAEA JUMP JUMPDEST PUSH4 0x4E487B71 PUSH1 0xE0 SHL DUP7 MSTORE PUSH1 0x41 DUP9 MSTORE PUSH1 0x24 DUP7 REVERT JUMPDEST PUSH4 0x4E487B71 PUSH1 0xE0 SHL DUP6 MSTORE PUSH1 0x41 DUP8 MSTORE PUSH1 0x24 DUP6 REVERT JUMPDEST DUP4 DUP1 REVERT JUMPDEST POP CALLVALUE PUSH2 0x191 JUMPI PUSH1 0x20 CALLDATASIZE PUSH1 0x3 NOT ADD SLT PUSH2 0x191 JUMPI CALLDATALOAD SWAP2 PUSH1 0xA SLOAD DUP4 LT ISZERO PUSH2 0x18E JUMPI POP PUSH2 0x180 PUSH1 0x20 SWAP3 PUSH2 0xF9B JUMP JUMPDEST POP SWAP2 CALLVALUE PUSH2 0x18E JUMPI DUP2 PUSH1 0x3 NOT CALLDATASIZE ADD SLT PUSH2 0x18E JUMPI POP PUSH2 0xB79 PUSH1 0x20 SWAP3 PUSH1 0x24 CALLDATALOAD SWAP1 CALLDATALOAD PUSH2 0x1B51 JUMP JUMPDEST SWAP1 MLOAD SWAP1 DUP2 MSTORE RETURN JUMPDEST POP POP CALLVALUE PUSH2 0x5F1 JUMPI DUP2 PUSH1 0x3 NOT CALLDATASIZE ADD SLT PUSH2 0x5F1 JUMPI PUSH1 0x10 SLOAD SWAP1 MLOAD PUSH1 0x1 PUSH1 0x1 PUSH1 0xA0 SHL SUB SWAP1 SWAP2 AND DUP2 MSTORE PUSH1 0x20 SWAP1 RETURN JUMPDEST POP CALLVALUE PUSH2 0x191 JUMPI PUSH1 0x20 CALLDATASIZE PUSH1 0x3 NOT ADD SLT PUSH2 0x191 JUMPI CALLDATALOAD SWAP2 PUSH1 0xE SLOAD DUP4 LT ISZERO PUSH2 0x18E JUMPI POP PUSH2 0x180 PUSH1 0x20 SWAP3 PUSH2 0xF64 JUMP JUMPDEST DUP3 DUP5 CALLVALUE PUSH2 0x18E JUMPI DUP1 PUSH1 0x3 NOT CALLDATASIZE ADD SLT PUSH2 0x18E JUMPI DUP1 SLOAD PUSH2 0xBF0 DUP2 PUSH2 0x109D JUMP JUMPDEST SWAP2 PUSH2 0xBFD DUP5 MLOAD SWAP4 DUP5 PUSH2 0x1065 JUMP JUMPDEST DUP2 DUP4 MSTORE PUSH1 0x1F NOT PUSH2 0xC0C DUP4 PUSH2 0x109D JUMP JUMPDEST ADD CALLDATASIZE PUSH1 0x20 DUP6 ADD CALLDATACOPY JUMPDEST DUP2 DUP2 LT PUSH2 0xC28 JUMPI DUP4 MLOAD DUP1 PUSH2 0x63C DUP6 DUP3 PUSH2 0x113A JUMP JUMPDEST DUP1 PUSH2 0xC34 PUSH1 0x1 SWAP3 PUSH2 0xF1A JUMP JUMPDEST SWAP1 SLOAD SWAP1 PUSH1 0x3 SHL SHR PUSH2 0xC45 DUP3 DUP7 PUSH2 0x124C JUMP JUMPDEST MSTORE ADD PUSH2 0xC14 JUMP JUMPDEST POP CALLVALUE PUSH2 0x191 JUMPI PUSH1 0x20 CALLDATASIZE PUSH1 0x3 NOT ADD SLT PUSH2 0x191 JUMPI CALLDATALOAD SWAP2 PUSH1 0x1 SLOAD DUP4 LT ISZERO PUSH2 0x18E JUMPI POP PUSH2 0x180 PUSH1 0x20 SWAP3 PUSH2 0xEE3 JUMP JUMPDEST POP POP CALLVALUE PUSH2 0x5F1 JUMPI DUP2 PUSH1 0x3 NOT CALLDATASIZE ADD SLT PUSH2 0x5F1 JUMPI PUSH1 0x20 SWAP1 PUSH1 0x6 SLOAD SWAP1 MLOAD SWAP1 DUP2 MSTORE RETURN JUMPDEST POP CALLVALUE PUSH2 0x191 JUMPI PUSH1 0x20 CALLDATASIZE PUSH1 0x3 NOT ADD SLT PUSH2 0x191 JUMPI CALLDATALOAD SWAP2 PUSH1 0xC SLOAD DUP4 LT ISZERO PUSH2 0x18E JUMPI POP PUSH2 0x180 PUSH1 0x20 SWAP3 PUSH2 0xEAC JUMP JUMPDEST POP POP CALLVALUE PUSH2 0x5F1 JUMPI DUP2 PUSH1 0x3 NOT CALLDATASIZE ADD SLT PUSH2 0x5F1 JUMPI PUSH1 0x20 SWAP1 PUSH1 0x3 SLOAD SWAP1 MLOAD SWAP1 DUP2 MSTORE RETURN JUMPDEST POP POP CALLVALUE PUSH2 0x5F1 JUMPI DUP2 PUSH1 0x3 NOT CALLDATASIZE ADD SLT PUSH2 0x5F1 JUMPI PUSH1 0x20 SWAP1 PUSH1 0x7 SLOAD SWAP1 MLOAD SWAP1 DUP2 MSTORE RETURN JUMPDEST POP CALLVALUE PUSH2 0x191 JUMPI PUSH1 0x20 CALLDATASIZE PUSH1 0x3 NOT ADD SLT PUSH2 0x191 JUMPI CALLDATALOAD SWAP2 PUSH1 0xF SLOAD DUP4 LT ISZERO PUSH2 0x18E JUMPI POP PUSH2 0x180 PUSH1 0x20 SWAP3 PUSH2 0xE75 JUMP JUMPDEST POP POP CALLVALUE PUSH2 0x5F1 JUMPI PUSH1 0x20 SWAP1 PUSH2 0xB79 PUSH2 0x792 CALLDATASIZE PUSH2 0x10B5 JUMP JUMPDEST POP POP CALLVALUE PUSH2 0x5F1 JUMPI PUSH1 0x20 SWAP1 PUSH2 0xB79 PUSH2 0xD53 CALLDATASIZE PUSH2 0x10B5 JUMP JUMPDEST PUSH2 0x13CB JUMP JUMPDEST POP POP CALLVALUE PUSH2 0x5F1 JUMPI DUP2 PUSH1 0x3 NOT CALLDATASIZE ADD SLT PUSH2 0x5F1 JUMPI PUSH1 0x20 SWAP1 PUSH1 0x5 SLOAD SWAP1 MLOAD SWAP1 DUP2 MSTORE RETURN JUMPDEST POP CALLVALUE PUSH2 0x191 JUMPI PUSH1 0x20 CALLDATASIZE PUSH1 0x3 NOT ADD SLT PUSH2 0x191 JUMPI CALLDATALOAD SWAP2 PUSH1 0x8 SLOAD DUP4 LT ISZERO PUSH2 0x18E JUMPI POP PUSH2 0x180 PUSH1 0x20 SWAP3 PUSH2 0xE3E JUMP JUMPDEST POP CALLVALUE PUSH2 0x191 JUMPI PUSH1 0x20 CALLDATASIZE PUSH1 0x3 NOT ADD SLT PUSH2 0x191 JUMPI CALLDATALOAD SWAP2 PUSH1 0x12 SLOAD DUP4 LT ISZERO PUSH2 0x18E JUMPI POP PUSH2 0x180 PUSH1 0x20 SWAP3 PUSH2 0xDF1 JUMP JUMPDEST DUP4 DUP6 CALLVALUE PUSH2 0x18E JUMPI DUP1 PUSH1 0x3 NOT CALLDATASIZE ADD SLT PUSH2 0x18E JUMPI POP PUSH2 0xB79 DUP3 PUSH2 0xD53 DUP2 PUSH2 0x78B PUSH1 0x20 SWAP7 PUSH2 0x1176 JUMP JUMPDEST PUSH1 0x12 SLOAD DUP2 LT ISZERO PUSH2 0xE28 JUMPI PUSH1 0x12 PUSH1 0x0 MSTORE PUSH32 0xBB8A6A4669BA250D26CD7A459ECA9D215F8307E33AEBE50379BC5A3617EC3444 ADD SWAP1 PUSH1 0x0 SWAP1 JUMP JUMPDEST PUSH4 0x4E487B71 PUSH1 0xE0 SHL PUSH1 0x0 MSTORE PUSH1 0x32 PUSH1 0x4 MSTORE PUSH1 0x24 PUSH1 0x0 REVERT JUMPDEST PUSH1 0x8 SLOAD DUP2 LT ISZERO PUSH2 0xE28 JUMPI PUSH1 0x8 PUSH1 0x0 MSTORE PUSH32 0xF3F7A9FE364FAAB93B216DA50A3214154F22A0A2B415B23A84C8169E8B636EE3 ADD SWAP1 PUSH1 0x0 SWAP1 JUMP JUMPDEST PUSH1 0xF SLOAD DUP2 LT ISZERO PUSH2 0xE28 JUMPI PUSH1 0xF PUSH1 0x0 MSTORE PUSH32 0x8D1108E10BCB7C27DDDFC02ED9D693A074039D026CF4EA4240B40F7D581AC802 ADD SWAP1 PUSH1 0x0 SWAP1 JUMP JUMPDEST PUSH1 0xC SLOAD DUP2 LT ISZERO PUSH2 0xE28 JUMPI PUSH1 0xC PUSH1 0x0 MSTORE PUSH32 0xDF6966C971051C3D54EC59162606531493A51404A002842F56009D7E5CF4A8C7 ADD SWAP1 PUSH1 0x0 SWAP1 JUMP JUMPDEST PUSH1 0x1 SLOAD DUP2 LT ISZERO PUSH2 0xE28 JUMPI PUSH1 0x1 PUSH1 0x0 MSTORE PUSH32 0xB10E2D527612073B26EECDFD717E6A320CF44B4AFAC2B0732D9FCBE2B7FA0CF6 ADD SWAP1 PUSH1 0x0 SWAP1 JUMP JUMPDEST SWAP1 PUSH1 0x0 SWAP2 DUP3 SLOAD DUP2 LT ISZERO PUSH2 0xF50 JUMPI DUP3 DUP1 MSTORE PUSH32 0x290DECD9548B62A8D60345A988386FC84BA6BC95484008F6362F93160EF3E563 ADD SWAP2 SWAP1 JUMP JUMPDEST PUSH4 0x4E487B71 PUSH1 0xE0 SHL DUP4 MSTORE PUSH1 0x32 PUSH1 0x4 MSTORE PUSH1 0x24 DUP4 REVERT JUMPDEST PUSH1 0xE SLOAD DUP2 LT ISZERO PUSH2 0xE28 JUMPI PUSH1 0xE PUSH1 0x0 MSTORE PUSH32 0xBB7B4A454DC3493923482F07822329ED19E8244EFF582CC204F8554C3620C3FD ADD SWAP1 PUSH1 0x0 SWAP1 JUMP JUMPDEST PUSH1 0xA SLOAD DUP2 LT ISZERO PUSH2 0xE28 JUMPI PUSH1 0xA PUSH1 0x0 MSTORE PUSH32 0xC65A7BB8D6351C1CF70C95A316CC6A92839C986682D98BC35F958F4883F9D2A8 ADD SWAP1 PUSH1 0x0 SWAP1 JUMP JUMPDEST PUSH1 0x2 SLOAD DUP2 LT ISZERO PUSH2 0xE28 JUMPI PUSH1 0x2 PUSH1 0x0 MSTORE PUSH1 0x0 DUP1 MLOAD PUSH1 0x20 PUSH2 0x1BB6 DUP4 CODECOPY DUP2 MLOAD SWAP2 MSTORE ADD SWAP1 PUSH1 0x0 SWAP1 JUMP JUMPDEST PUSH1 0x9 SLOAD DUP2 LT ISZERO PUSH2 0xE28 JUMPI PUSH1 0x9 PUSH1 0x0 MSTORE PUSH32 0x6E1540171B6C0C960B71A7020D9F60077F6AF931A8BBF590DA0223DACF75C7AF ADD SWAP1 PUSH1 0x0 SWAP1 JUMP JUMPDEST PUSH1 0x11 SLOAD DUP2 LT ISZERO PUSH2 0xE28 JUMPI PUSH1 0x11 PUSH1 0x0 MSTORE PUSH32 0x31ECC21A745E3968A04E9570E4425BC18FA8019C68028196B546D1669C200C68 ADD SWAP1 PUSH1 0x0 SWAP1 JUMP JUMPDEST SWAP1 PUSH1 0x1F DUP1 NOT SWAP2 ADD AND DUP2 ADD SWAP1 DUP2 LT PUSH8 0xFFFFFFFFFFFFFFFF DUP3 GT OR PUSH2 0x1087 JUMPI PUSH1 0x40 MSTORE JUMP JUMPDEST PUSH4 0x4E487B71 PUSH1 0xE0 SHL PUSH1 0x0 MSTORE PUSH1 0x41 PUSH1 0x4 MSTORE PUSH1 0x24 PUSH1 0x0 REVERT JUMPDEST PUSH8 0xFFFFFFFFFFFFFFFF DUP2 GT PUSH2 0x1087 JUMPI PUSH1 0x5 SHL PUSH1 0x20 ADD SWAP1 JUMP JUMPDEST PUSH1 0x20 DUP1 PUSH1 0x3 NOT DUP4 ADD SLT PUSH2 0x1135 JUMPI PUSH1 0x4 CALLDATALOAD SWAP2 PUSH8 0xFFFFFFFFFFFFFFFF DUP4 GT PUSH2 0x1135 JUMPI DUP1 PUSH1 0x23 DUP5 ADD SLT ISZERO PUSH2 0x1135 JUMPI DUP3 PUSH1 0x4 ADD CALLDATALOAD PUSH2 0x10EE DUP2 PUSH2 0x109D JUMP JUMPDEST SWAP4 PUSH2 0x10FC PUSH1 0x40 MLOAD SWAP6 DUP7 PUSH2 0x1065 JUMP JUMPDEST DUP2 DUP6 MSTORE PUSH1 0x24 PUSH1 0x20 DUP7 ADD SWAP3 PUSH1 0x5 SHL DUP3 ADD ADD SWAP3 DUP4 GT PUSH2 0x1135 JUMPI PUSH1 0x24 ADD SWAP1 JUMPDEST DUP3 DUP3 LT PUSH2 0x1126 JUMPI POP POP POP POP SWAP1 JUMP JUMPDEST DUP2 CALLDATALOAD DUP2 MSTORE SWAP1 DUP4 ADD SWAP1 DUP4 ADD PUSH2 0x1118 JUMP JUMPDEST PUSH1 0x0 DUP1 REVERT JUMPDEST PUSH1 0x20 SWAP1 PUSH1 0x20 PUSH1 0x40 DUP2 DUP4 ADD SWAP3 DUP3 DUP2 MSTORE DUP6 MLOAD DUP1 SWAP5 MSTORE ADD SWAP4 ADD SWAP2 PUSH1 0x0 JUMPDEST DUP3 DUP2 LT PUSH2 0x1162 JUMPI POP POP POP POP SWAP1 JUMP JUMPDEST DUP4 MLOAD DUP6 MSTORE SWAP4 DUP2 ADD SWAP4 SWAP3 DUP2 ADD SWAP3 PUSH1 0x1 ADD PUSH2 0x1154 JUMP JUMPDEST PUSH1 0x2 SLOAD SWAP1 DUP2 DUP2 MSTORE PUSH1 0x20 DUP1 SWAP2 ADD SWAP2 PUSH1 0x2 PUSH1 0x0 MSTORE PUSH1 0x0 DUP1 MLOAD PUSH1 0x20 PUSH2 0x1BB6 DUP4 CODECOPY DUP2 MLOAD SWAP2 MSTORE SWAP2 PUSH1 0x0 SWAP1 JUMPDEST DUP3 DUP3 LT PUSH2 0x11AA JUMPI POP POP POP POP SWAP1 JUMP JUMPDEST DUP4 SLOAD DUP6 MSTORE SWAP4 DUP5 ADD SWAP4 PUSH1 0x1 SWAP4 DUP5 ADD SWAP4 SWAP1 SWAP2 ADD SWAP1 PUSH2 0x119C JUMP JUMPDEST PUSH1 0x0 DUP1 SLOAD DUP1 DUP4 MSTORE DUP2 DUP1 MSTORE PUSH1 0x20 SWAP3 DUP4 ADD SWAP3 PUSH32 0x290DECD9548B62A8D60345A988386FC84BA6BC95484008F6362F93160EF3E563 SWAP3 SWAP1 JUMPDEST DUP3 DUP3 LT PUSH2 0x1203 JUMPI POP POP POP POP SWAP1 JUMP JUMPDEST DUP4 SLOAD DUP6 MSTORE SWAP4 DUP5 ADD SWAP4 PUSH1 0x1 SWAP4 DUP5 ADD SWAP4 SWAP1 SWAP2 ADD SWAP1 PUSH2 0x11F5 JUMP JUMPDEST SWAP1 PUSH2 0x1224 DUP3 PUSH2 0x109D JUMP JUMPDEST PUSH2 0x1231 PUSH1 0x40 MLOAD SWAP2 DUP3 PUSH2 0x1065 JUMP JUMPDEST DUP3 DUP2 MSTORE DUP1 SWAP3 PUSH2 0x1242 PUSH1 0x1F NOT SWAP2 PUSH2 0x109D JUMP JUMPDEST ADD SWAP1 PUSH1 0x20 CALLDATASIZE SWAP2 ADD CALLDATACOPY JUMP JUMPDEST DUP1 MLOAD DUP3 LT ISZERO PUSH2 0xE28 JUMPI PUSH1 0x20 SWAP2 PUSH1 0x5 SHL ADD ADD SWAP1 JUMP JUMPDEST PUSH1 0x20 SWAP1 DUP2 DUP2 DUP5 SUB SLT PUSH2 0x1135 JUMPI DUP1 MLOAD SWAP1 PUSH8 0xFFFFFFFFFFFFFFFF DUP3 GT PUSH2 0x1135 JUMPI ADD SWAP2 DUP1 PUSH1 0x1F DUP5 ADD SLT ISZERO PUSH2 0x1135 JUMPI DUP3 MLOAD PUSH2 0x1296 DUP2 PUSH2 0x109D JUMP JUMPDEST SWAP4 PUSH2 0x12A4 PUSH1 0x40 MLOAD SWAP6 DUP7 PUSH2 0x1065 JUMP JUMPDEST DUP2 DUP6 MSTORE DUP4 DUP1 DUP7 ADD SWAP3 PUSH1 0x5 SHL DUP3 ADD ADD SWAP3 DUP4 GT PUSH2 0x1135 JUMPI DUP4 ADD SWAP1 JUMPDEST DUP3 DUP3 LT PUSH2 0x12CB JUMPI POP POP POP POP SWAP1 JUMP JUMPDEST DUP2 MLOAD DUP2 MSTORE SWAP1 DUP4 ADD SWAP1 DUP4 ADD PUSH2 0x12BD JUMP JUMPDEST SWAP2 SWAP1 DUP3 SUB SWAP2 DUP3 GT PUSH2 0x12E7 JUMPI JUMP JUMPDEST PUSH4 0x4E487B71 PUSH1 0xE0 SHL PUSH1 0x0 MSTORE PUSH1 0x11 PUSH1 0x4 MSTORE PUSH1 0x24 PUSH1 0x0 REVERT JUMPDEST SWAP1 DUP2 PUSH1 0x1 SHL SWAP2 DUP1 DUP4 SDIV PUSH1 0x2 EQ SWAP1 ISZERO OR ISZERO PUSH2 0x12E7 JUMPI JUMP JUMPDEST SWAP1 PUSH1 0x5 DUP3 MUL SWAP2 DUP1 DUP4 SDIV PUSH1 0x5 EQ SWAP1 ISZERO OR ISZERO PUSH2 0x12E7 JUMPI JUMP JUMPDEST SWAP1 PUSH1 0x3 DUP3 MUL SWAP2 DUP1 DUP4 SDIV PUSH1 0x3 EQ SWAP1 ISZERO OR ISZERO PUSH2 0x12E7 JUMPI JUMP JUMPDEST SWAP1 DUP2 PUSH1 0x2 SHL SWAP2 DUP1 DUP4 SDIV PUSH1 0x4 EQ SWAP1 ISZERO OR ISZERO PUSH2 0x12E7 JUMPI JUMP JUMPDEST DUP2 DUP2 MUL SWAP3 SWAP2 PUSH1 0x0 DUP3 SLT PUSH1 0x1 PUSH1 0xFF SHL DUP3 EQ AND PUSH2 0x12E7 JUMPI DUP2 DUP5 SDIV EQ SWAP1 ISZERO OR ISZERO PUSH2 0x12E7 JUMPI JUMP JUMPDEST PUSH1 0x1 PUSH1 0xFF SHL DUP2 EQ PUSH2 0x12E7 JUMPI PUSH1 0x0 SUB SWAP1 JUMP JUMPDEST DUP2 DUP2 SUB SWAP3 SWAP2 PUSH1 0x0 SGT DUP1 ISZERO DUP3 DUP6 SGT AND SWAP2 DUP5 SLT AND OR PUSH2 0x12E7 JUMPI JUMP JUMPDEST SWAP2 SWAP1 DUP3 ADD DUP1 SWAP3 GT PUSH2 0x12E7 JUMPI JUMP JUMPDEST SWAP2 SWAP1 SWAP2 PUSH1 0x0 DUP4 DUP3 ADD SWAP4 DUP5 SLT SWAP2 SLT SWAP1 DUP1 ISZERO DUP3 AND SWAP2 ISZERO AND OR PUSH2 0x12E7 JUMPI JUMP JUMPDEST PUSH1 0x0 SWAP1 DUP1 MLOAD PUSH1 0x11 SLOAD SWAP1 PUSH2 0x13DD DUP3 PUSH2 0x121A JUMP JUMPDEST SWAP2 DUP5 JUMPDEST DUP2 DUP2 LT PUSH2 0x1778 JUMPI POP POP PUSH1 0x12 SLOAD SWAP2 PUSH2 0x13F6 DUP4 PUSH2 0x121A JUMP JUMPDEST SWAP3 DUP6 JUMPDEST DUP2 DUP2 LT PUSH2 0x1754 JUMPI POP POP PUSH1 0x10 SLOAD PUSH1 0x40 MLOAD PUSH4 0xB6042CF9 PUSH1 0xE0 SHL DUP2 MSTORE SWAP2 SWAP1 DUP7 SWAP1 DUP4 SWAP1 PUSH1 0x4 SWAP1 DUP3 SWAP1 PUSH1 0x1 PUSH1 0x1 PUSH1 0xA0 SHL SUB AND GAS STATICCALL SWAP2 DUP3 ISZERO PUSH2 0x1749 JUMPI DUP7 SWAP3 PUSH2 0x172D JUMPI JUMPDEST POP SWAP4 SWAP3 SWAP2 SWAP1 DUP6 SWAP5 JUMPDEST DUP3 DUP7 LT PUSH2 0x144E JUMPI POP POP POP POP POP POP SWAP1 JUMP JUMPDEST SWAP1 SWAP2 SWAP3 SWAP4 SWAP5 SWAP6 PUSH2 0x1593 PUSH1 0x1 SWAP2 PUSH2 0x4A3 PUSH2 0x1467 DUP11 DUP11 PUSH2 0x124C JUMP JUMPDEST MLOAD DUP1 DUP12 PUSH1 0x0 DUP1 DUP4 SLT ISZERO PUSH2 0x1660 JUMPI POP PUSH2 0x1485 PUSH2 0x1499 SWAP3 PUSH2 0x148A SWAP3 PUSH2 0x1B51 JUMP JUMPDEST PUSH2 0x1378 JUMP JUMPDEST PUSH2 0x1493 DUP4 PUSH2 0x1378 JUMP JUMPDEST SWAP1 PUSH2 0x1355 JUMP JUMPDEST SWAP1 JUMPDEST PUSH2 0x157A DUP13 PUSH2 0x4A3 PUSH2 0x1574 PUSH2 0x14AE DUP4 PUSH2 0xFF7 JUMP JUMPDEST SWAP1 SLOAD PUSH1 0x3 SWAP5 SWAP2 PUSH1 0x0 SWAP2 SWAP1 DUP7 SHL SHR DUP8 SGT ISZERO PUSH2 0x1653 JUMPI POP PUSH2 0x4A3 PUSH2 0x156E PUSH2 0x14E1 PUSH2 0x14D5 DUP5 PUSH2 0xFF7 JUMP JUMPDEST SWAP1 SLOAD SWAP1 DUP9 SHL SHR DUP10 PUSH2 0x1389 JUMP JUMPDEST SWAP6 JUMPDEST PUSH2 0x154B PUSH2 0x14EF DUP6 PUSH2 0xFD2 JUMP JUMPDEST SWAP1 SLOAD SWAP1 DUP4 SHL SHR PUSH2 0x1526 PUSH2 0x151F PUSH2 0x1504 DUP9 PUSH2 0xF64 JUMP JUMPDEST SWAP1 SLOAD SWAP1 DUP7 SHL SHR PUSH2 0x1513 DUP10 PUSH2 0xE75 JUMP JUMPDEST SWAP1 SLOAD SWAP1 DUP8 SHL SHR SWAP1 PUSH2 0x13A2 JUMP JUMPDEST SWAP2 DUP13 PUSH2 0x1389 JUMP JUMPDEST PUSH1 0x0 DUP2 SLT PUSH2 0x1644 JUMPI SWAP1 JUMPDEST PUSH1 0x0 SWAP2 DUP2 DUP2 SGT ISZERO PUSH2 0x163C JUMPI PUSH2 0x1545 SWAP3 POP PUSH2 0x1389 JUMP JUMPDEST SWAP5 PUSH2 0x102E JUMP JUMPDEST SWAP1 SLOAD SWAP2 SHL SHR DUP9 PUSH1 0x0 SWAP2 DUP2 DUP2 SGT PUSH1 0x0 EQ PUSH2 0x1634 JUMPI PUSH2 0x1568 SWAP3 POP PUSH2 0x1389 JUMP JUMPDEST SWAP6 PUSH2 0x1313 JUMP JUMPDEST SWAP2 PUSH2 0x1329 JUMP JUMPDEST SWAP2 PUSH2 0x12FD JUMP JUMPDEST PUSH1 0x0 SWAP2 DUP14 DUP12 DUP12 MLOAD EQ PUSH2 0x159F JUMPI JUMPDEST POP POP PUSH2 0x3EB SWAP2 SWAP3 PUSH2 0x13AF JUMP JUMPDEST SWAP7 ADD SWAP5 SWAP4 SWAP3 SWAP2 SWAP1 PUSH2 0x143E JUMP JUMPDEST PUSH2 0x15AC PUSH2 0x15B4 SWAP2 DUP13 PUSH2 0x124C JUMP JUMPDEST MLOAD DUP1 SWAP3 PUSH2 0x1389 JUMP JUMPDEST SWAP1 DUP4 DUP3 SLT PUSH2 0x1625 JUMPI DUP2 SWAP1 JUMPDEST DUP1 ISZERO PUSH2 0x161D JUMPI PUSH1 0xA SWAP1 SDIV SWAP2 JUMPDEST DUP3 DUP3 SGT PUSH2 0x15DB JUMPI JUMPDEST POP POP DUP14 PUSH2 0x1587 JUMP JUMPDEST PUSH2 0x3EB SWAP5 SLT ISZERO PUSH2 0x1602 JUMPI PUSH2 0x15F7 SWAP2 PUSH2 0x15F2 SWAP2 PUSH2 0x1389 JUMP JUMPDEST PUSH2 0x133F JUMP JUMPDEST SWAP3 JUMPDEST SWAP3 SWAP2 CODESIZE DUP1 PUSH2 0x15D3 JUMP JUMPDEST PUSH2 0x1612 PUSH2 0x1617 SWAP3 PUSH2 0x1485 SWAP3 PUSH2 0x1389 JUMP JUMPDEST PUSH2 0x12FD JUMP JUMPDEST SWAP3 PUSH2 0x15F9 JUMP JUMPDEST POP DUP4 SWAP2 PUSH2 0x15CB JUMP JUMPDEST PUSH2 0x162E DUP3 PUSH2 0x1378 JUMP JUMPDEST SWAP1 PUSH2 0x15BF JUMP JUMPDEST POP POP SWAP6 PUSH2 0x1313 JUMP JUMPDEST POP POP SWAP5 PUSH2 0x102E JUMP JUMPDEST PUSH2 0x164D SWAP1 PUSH2 0x1378 JUMP JUMPDEST SWAP1 PUSH2 0x1530 JUMP JUMPDEST PUSH2 0x156E PUSH2 0x4A3 SWAP2 SWAP6 PUSH2 0x14E3 JUMP JUMPDEST SWAP1 PUSH2 0x16D9 SWAP3 DUP5 PUSH2 0x1670 DUP4 DUP13 PUSH2 0x124C JUMP JUMPDEST MLOAD LT PUSH2 0x1707 JUMPI PUSH2 0x168D PUSH2 0x1694 SWAP2 PUSH2 0x1687 DUP5 DUP14 PUSH2 0x124C JUMP JUMPDEST MLOAD PUSH2 0x12DA JUMP JUMPDEST SWAP2 DUP11 PUSH2 0x124C JUMP JUMPDEST MSTORE DUP13 DUP2 JUMPDEST DUP13 DUP2 PUSH2 0x16A4 DUP5 DUP4 PUSH2 0x124C JUMP JUMPDEST MLOAD LT PUSH2 0x16DF JUMPI PUSH2 0x16C2 SWAP2 PUSH2 0x1687 DUP5 PUSH2 0x16BB SWAP4 PUSH2 0x124C JUMP JUMPDEST SWAP2 DUP14 PUSH2 0x124C JUMP JUMPDEST MSTORE JUMPDEST PUSH2 0x16CD DUP14 PUSH2 0xE3E JUMP JUMPDEST SWAP1 SLOAD SWAP1 PUSH1 0x3 SHL SHR PUSH2 0x1355 JUMP JUMPDEST SWAP1 PUSH2 0x149B JUMP JUMPDEST PUSH2 0x1701 SWAP2 PUSH2 0x16F3 DUP5 PUSH2 0x16FA SWAP4 SWAP7 SWAP6 SWAP7 PUSH2 0x124C JUMP JUMPDEST MLOAD SWAP1 PUSH2 0x12DA JUMP JUMPDEST SWAP3 DUP14 PUSH2 0x124C JUMP JUMPDEST MSTORE PUSH2 0x16C4 JUMP JUMPDEST POP PUSH2 0x171C PUSH2 0x1715 DUP3 DUP12 PUSH2 0x124C JUMP JUMPDEST MLOAD DUP6 PUSH2 0x12DA JUMP JUMPDEST DUP3 PUSH2 0x1727 DUP4 DUP13 PUSH2 0x124C JUMP JUMPDEST MSTORE PUSH2 0x1698 JUMP JUMPDEST PUSH2 0x1742 SWAP2 SWAP3 POP RETURNDATASIZE DUP1 DUP9 DUP4 RETURNDATACOPY PUSH2 0x57C DUP2 DUP4 PUSH2 0x1065 JUMP JUMPDEST SWAP1 CODESIZE PUSH2 0x1436 JUMP JUMPDEST PUSH1 0x40 MLOAD RETURNDATASIZE DUP9 DUP3 RETURNDATACOPY RETURNDATASIZE SWAP1 REVERT JUMPDEST DUP1 PUSH2 0x1760 PUSH1 0x1 SWAP3 PUSH2 0xDF1 JUMP JUMPDEST SWAP1 SLOAD SWAP1 PUSH1 0x3 SHL SHR PUSH2 0x1771 DUP3 DUP9 PUSH2 0x124C JUMP JUMPDEST MSTORE ADD PUSH2 0x13F9 JUMP JUMPDEST DUP1 PUSH2 0x1784 PUSH1 0x1 SWAP3 PUSH2 0x102E JUMP JUMPDEST SWAP1 SLOAD SWAP1 PUSH1 0x3 SHL SHR PUSH2 0x1795 DUP3 DUP8 PUSH2 0x124C JUMP JUMPDEST MSTORE ADD PUSH2 0x13E0 JUMP JUMPDEST PUSH1 0x0 SWAP1 DUP1 MLOAD PUSH1 0x40 MLOAD SWAP1 DUP2 PUSH1 0xA DUP1 SLOAD DUP1 DUP6 MSTORE PUSH1 0x20 DUP1 SWAP6 ADD SWAP1 PUSH1 0xA DUP9 MSTORE PUSH32 0xC65A7BB8D6351C1CF70C95A316CC6A92839C986682D98BC35F958F4883F9D2A8 SWAP1 DUP9 JUMPDEST DUP8 DUP3 DUP3 LT PUSH2 0x1B3D JUMPI POP POP POP POP DUP3 PUSH2 0x17F3 SWAP2 SUB DUP4 PUSH2 0x1065 JUMP JUMPDEST PUSH1 0x40 MLOAD SWAP2 DUP3 DUP1 SWAP6 PUSH1 0x20 PUSH1 0xC SLOAD SWAP6 DUP7 DUP2 MSTORE ADD SWAP5 PUSH1 0xC DUP11 MSTORE PUSH32 0xDF6966C971051C3D54EC59162606531493A51404A002842F56009D7E5CF4A8C7 SWAP2 DUP11 SWAP1 JUMPDEST DUP3 DUP3 LT PUSH2 0x1B23 JUMPI POP POP POP POP PUSH2 0x1847 SWAP1 PUSH1 0x4 SWAP5 SUB DUP7 PUSH2 0x1065 JUMP JUMPDEST PUSH1 0x10 SLOAD PUSH1 0x40 MLOAD PUSH4 0xB6042CF9 PUSH1 0xE0 SHL DUP2 MSTORE SWAP4 DUP9 SWAP2 DUP6 SWAP2 SWAP1 DUP3 SWAP1 PUSH1 0x1 PUSH1 0x1 PUSH1 0xA0 SHL SUB AND GAS STATICCALL SWAP3 DUP4 ISZERO PUSH2 0x1B18 JUMPI DUP8 SWAP4 PUSH2 0x1AFC JUMPI JUMPDEST POP SWAP5 SWAP4 SWAP3 SWAP2 SWAP1 DUP7 SWAP6 JUMPDEST DUP4 DUP8 LT PUSH2 0x1892 JUMPI POP POP POP POP POP POP POP SWAP1 JUMP JUMPDEST SWAP1 SWAP2 SWAP3 SWAP4 SWAP5 SWAP6 SWAP7 PUSH2 0x199C PUSH1 0x1 SWAP2 PUSH2 0x4A3 PUSH2 0x18AC DUP12 DUP12 PUSH2 0x124C JUMP JUMPDEST MLOAD DUP12 PUSH1 0x0 DUP1 DUP4 SLT ISZERO PUSH2 0x1A50 JUMPI POP PUSH2 0x18D2 PUSH2 0x18C9 PUSH2 0x1485 DUP5 DUP5 PUSH2 0x1B51 JUMP JUMPDEST PUSH2 0x1493 DUP5 PUSH2 0x1378 JUMP JUMPDEST SWAP2 JUMPDEST PUSH2 0x1984 PUSH2 0x18E0 DUP4 PUSH2 0xFF7 JUMP JUMPDEST SWAP1 SLOAD PUSH1 0x3 SWAP2 PUSH1 0x0 SWAP2 SWAP1 DUP4 SHL SHR DUP5 SGT ISZERO PUSH2 0x1A43 JUMPI POP PUSH2 0x4A3 PUSH2 0x1574 PUSH2 0x1912 PUSH2 0x1906 DUP8 PUSH2 0xFF7 JUMP JUMPDEST SWAP1 SLOAD SWAP1 DUP6 SHL SHR DUP7 PUSH2 0x1389 JUMP JUMPDEST SWAP3 JUMPDEST PUSH2 0x4A3 PUSH2 0x156E PUSH2 0x1923 DUP10 PUSH2 0xFD2 JUMP JUMPDEST SWAP1 SLOAD SWAP1 DUP5 SHL SHR PUSH2 0x195A PUSH2 0x1953 PUSH2 0x1938 DUP13 PUSH2 0xF64 JUMP JUMPDEST SWAP1 SLOAD SWAP1 DUP8 SHL SHR PUSH2 0x1947 DUP14 PUSH2 0xE75 JUMP JUMPDEST SWAP1 SLOAD SWAP1 DUP9 SHL SHR SWAP1 PUSH2 0x13A2 JUMP JUMPDEST SWAP2 DUP11 PUSH2 0x1389 JUMP JUMPDEST PUSH1 0x0 DUP2 SLT PUSH2 0x1A34 JUMPI SWAP1 JUMPDEST PUSH1 0x0 SWAP2 DUP2 DUP2 SGT ISZERO PUSH2 0x1A2C JUMPI PUSH2 0x1979 SWAP3 POP PUSH2 0x1389 JUMP JUMPDEST SWAP3 JUMPDEST PUSH2 0x154B DUP11 PUSH2 0xF9B JUMP JUMPDEST SWAP1 PUSH1 0x0 SWAP3 DUP13 DUP13 MLOAD EQ PUSH2 0x19A9 JUMPI POP POP PUSH2 0x3EB SWAP2 SWAP3 PUSH2 0x13AF JUMP JUMPDEST SWAP8 ADD SWAP6 SWAP5 SWAP4 SWAP3 SWAP2 SWAP1 PUSH2 0x1881 JUMP JUMPDEST PUSH2 0x15AC PUSH2 0x19B6 SWAP2 DUP14 PUSH2 0x124C JUMP JUMPDEST SWAP1 DUP4 DUP3 SLT PUSH2 0x1A1C JUMPI DUP11 DUP3 SWAP2 JUMPDEST DUP1 ISZERO PUSH2 0x1A13 JUMPI SDIV SWAP2 JUMPDEST DUP3 DUP3 SGT PUSH2 0x19DB JUMPI JUMPDEST POP POP DUP15 PUSH2 0x1587 JUMP JUMPDEST PUSH2 0x3EB SWAP5 SLT ISZERO PUSH2 0x19FD JUMPI PUSH2 0x19F2 SWAP2 PUSH2 0x15F2 SWAP2 PUSH2 0x1389 JUMP JUMPDEST SWAP3 JUMPDEST SWAP3 SWAP2 CODESIZE DUP1 PUSH2 0x19D3 JUMP JUMPDEST PUSH2 0x1612 PUSH2 0x1A0D SWAP3 PUSH2 0x1485 SWAP3 PUSH2 0x1389 JUMP JUMPDEST SWAP3 PUSH2 0x19F4 JUMP JUMPDEST POP POP DUP4 SWAP2 PUSH2 0x19CB JUMP JUMPDEST DUP11 PUSH2 0x1A26 DUP4 PUSH2 0x1378 JUMP JUMPDEST SWAP2 PUSH2 0x19C2 JUMP JUMPDEST POP POP SWAP3 PUSH2 0x197B JUMP JUMPDEST PUSH2 0x1A3D SWAP1 PUSH2 0x1378 JUMP JUMPDEST SWAP1 PUSH2 0x1964 JUMP JUMPDEST PUSH2 0x1574 PUSH2 0x4A3 SWAP2 SWAP3 PUSH2 0x1914 JUMP JUMPDEST PUSH2 0x1AB8 SWAP1 DUP4 DUP5 PUSH2 0x1A60 DUP6 DUP13 PUSH2 0x124C JUMP JUMPDEST MLOAD LT PUSH2 0x1ADC JUMPI PUSH2 0x1A74 SWAP1 PUSH2 0x1687 DUP6 DUP13 PUSH2 0x124C JUMP JUMPDEST PUSH2 0x1A7E DUP5 DUP12 PUSH2 0x124C JUMP JUMPDEST MSTORE DUP1 JUMPDEST DUP14 DUP5 DUP4 PUSH2 0x1A8E DUP3 DUP5 PUSH2 0x124C JUMP JUMPDEST MLOAD LT PUSH2 0x1ABE JUMPI PUSH2 0x1AA7 DUP3 SWAP4 SWAP5 PUSH2 0x1687 DUP4 PUSH2 0x1AAD SWAP6 PUSH2 0x124C JUMP JUMPDEST SWAP3 PUSH2 0x124C JUMP JUMPDEST MSTORE JUMPDEST PUSH2 0x16CD DUP4 PUSH2 0xE3E JUMP JUMPDEST SWAP2 PUSH2 0x18D4 JUMP JUMPDEST PUSH2 0x1AD0 DUP3 SWAP5 PUSH2 0x16F3 DUP4 PUSH2 0x1AD6 SWAP6 PUSH2 0x124C JUMP JUMPDEST SWAP4 PUSH2 0x124C JUMP JUMPDEST MSTORE PUSH2 0x1AAF JUMP JUMPDEST POP PUSH2 0x1AEA PUSH2 0x1715 DUP5 DUP12 PUSH2 0x124C JUMP JUMPDEST SWAP1 DUP1 PUSH2 0x1AF6 DUP6 DUP13 PUSH2 0x124C JUMP JUMPDEST MSTORE PUSH2 0x1A81 JUMP JUMPDEST PUSH2 0x1B11 SWAP2 SWAP4 POP RETURNDATASIZE DUP1 DUP10 DUP4 RETURNDATACOPY PUSH2 0x57C DUP2 DUP4 PUSH2 0x1065 JUMP JUMPDEST SWAP2 CODESIZE PUSH2 0x1878 JUMP JUMPDEST PUSH1 0x40 MLOAD RETURNDATASIZE DUP10 DUP3 RETURNDATACOPY RETURNDATASIZE SWAP1 REVERT JUMPDEST DUP4 SLOAD DUP9 MSTORE SWAP7 DUP8 ADD SWAP7 DUP10 SWAP5 POP PUSH1 0x1 SWAP4 DUP5 ADD SWAP4 SWAP1 SWAP2 ADD SWAP1 PUSH2 0x182E JUMP JUMPDEST DUP4 SLOAD DUP6 MSTORE SWAP1 SWAP4 ADD SWAP3 PUSH1 0x1 SWAP3 DUP4 ADD SWAP3 ADD PUSH2 0x17DB JUMP JUMPDEST PUSH2 0x1B5A SWAP1 PUSH2 0xE3E JUMP JUMPDEST SWAP1 SLOAD SWAP1 PUSH1 0x3 SHL SHR SWAP1 PUSH1 0x0 DUP2 SLT PUSH1 0x0 EQ PUSH2 0x1BB1 JUMPI PUSH2 0x1B76 SWAP1 PUSH2 0x1378 JUMP JUMPDEST PUSH1 0x1 SHR PUSH1 0x14 ADD DUP1 PUSH1 0x14 GT PUSH2 0x12E7 JUMPI PUSH1 0x28 DUP2 GT PUSH2 0x1BA9 JUMPI JUMPDEST PUSH1 0x64 SUB SWAP1 PUSH1 0x64 DUP3 GT PUSH2 0x12E7 JUMPI PUSH1 0x64 SWAP2 PUSH2 0x1BA5 SWAP2 PUSH2 0x1355 JUMP JUMPDEST SDIV SWAP1 JUMP JUMPDEST POP PUSH1 0x28 PUSH2 0x1B8D JUMP JUMPDEST POP SWAP1 JUMP INVALID BLOCKHASH JUMPI DUP8 STATICCALL SLT 0xA8 0x23 0xE0 CALLCODE 0xB7 PUSH4 0x1CC41B3B 0xA8 DUP3 DUP12 CALLER 0x21 0xCA DUP2 GT GT STATICCALL PUSH22 0xCD3AA3BB5ACEA2646970667358221220455FA26505FA PUSH18 0xE13C2A011E7F4167DED60C3BCBB18CDA269E DUP7 PUSH5 0xFA897927A1 PUSH5 0x736F6C6343 STOP ADDMOD OR STOP CALLER BLOCKHASH JUMPI DUP8 STATICCALL SLT 0xA8 0x23 0xE0 CALLCODE 0xB7 PUSH4 0x1CC41B3B 0xA8 DUP3 DUP12 CALLER 0x21 0xCA DUP2 GT GT STATICCALL PUSH22 0xCD3AA3BB5ACEBB7B4A454DC3493923482F07822329ED NOT 0xE8 0x24 0x4E SELFDESTRUCT PC 0x2C 0xC2 DIV 0xF8 SSTORE 0x4C CALLDATASIZE KECCAK256 0xC3 REVERT 0xC6 GAS PUSH28 0xB8D6351C1CF70C95A316CC6A92839C986682D98BC35F958F4883F9D2 0xA8 0x29 0xD 0xEC 0xD9 SLOAD DUP12 PUSH3 0xA8D603 GASLIMIT 0xA9 DUP9 CODESIZE PUSH16 0xC84BA6BC95484008F6362F93160EF3E5 PUSH4 0xD7B69901 SDIV PUSH18 0x9101DABEB77144F2A3385C8033ACD3AF97E9 TIMESTAMP GASPRICE PUSH10 0x5E81AD1EB5F3F7A9FE36 0x4F 0xAA 0xB9 EXTCODESIZE 0x21 PUSH14 0xA50A3214154F22A0A2B415B23A84 0xC8 AND SWAP15 DUP12 PUSH4 0x6EE36E15 BLOCKHASH OR SHL PUSH13 0xC960B71A7020D9F60077F6AF9 BALANCE 0xA8 0xBB CREATE2 SWAP1 0xDA MUL 0x23 0xDA 0xCF PUSH22 0xC7AFB10E2D527612073B26EECDFD717E6A320CF44B4A STATICCALL 0xC2 0xB0 PUSH20 0x2D9FCBE2B7FA0CF6000000000000000000000000 "},"methodIdentifiers":{"applyFinalPlan()":"b0d547ff","batteryCapacity(uint256)":"b6ce6709","batteryCharge(uint256)":"4eb274ff","c1()":"5f57697c","c2()":"48e257cb","capacity(uint256)":"ab1bbeca","flexibilityAbove(uint256)":"78b6d7d4","flexibilityBelow(uint256)":"375a105e","flexibleLoad(uint256)":"e329143f","frozenBatteryCharge(uint256)":"04d01942","frozenRenewableGeneration(uint256)":"ff9c446f","getEffectiveTariff(uint256,int256)":"957b4056","getFrozenCost()":"03bc4a86","getPersonalBestPosition()":"e7d46385","getPosition()":"7398ab18","globalContract()":"90ccfa0f","lastKnownGlobalTimestamp()":"d0c6c7af","objectiveFunction(int256[])":"364132d9","objectiveFunctionFrozen(int256[])":"300aee14","personalBestPosition(uint256)":"a86853d5","personalBestScore()":"4d985ae4","position(uint256)":"f7a95a9e","renewableGeneration(uint256)":"96d14da6","tariff(uint256)":"16b51928","updateBestPositions()":"973b9cc1","updateVelocityAndPosition()":"f6451c0a","velocity(uint256)":"6f240774","w()":"205c9cc7"}}}}}