{
  "_format": "hh-sol-artifact-1",
  "contractName": "TestContract",
  "sourceName": "contracts/TestContract.sol",
  "abi": [
    {
      "inputs": [
        {
          "internalType": "uint256",
          "name": "_number",
          "type": "uint256"
        }
      ],
      "stateMutability": "nonpayable",
      "type": "constructor"
    },
    {
      "inputs": [],
      "name": "getNumber",
      "outputs": [
        {
          "internalType": "uint256",
          "name": "",
          "type": "uint256"
        }
      ],
      "stateMutability": "view",
      "type": "function"
    },
    {
      "inputs": [
        {
          "internalType": "uint256",
          "name": "_number",
          "type": "uint256"
        }
      ],
      "name": "setNumber",
      "outputs": [
        {
          "internalType": "uint256",
          "name": "",
          "type": "uint256"
        }
      ],
      "stateMutability": "nonpayable",
      "type": "function"
    }
  ],
  "bytecode": "0x60803461005157601f61017b38819003918201601f19168301916001600160401b0383118484101761005657808492602094604052833981010312610051575160005560405161010e908161006d8239f35b600080fd5b634e487b7160e01b600052604160045260246000fdfe60806040526004361015601157600080fd5b6000803560e01c80633fb5c1cb14604d5763f2c9ecd814603057600080fd5b34604a5780600319360112604a5760209054604051908152f35b80fd5b5034604a576020366003190112604a57600435906001821660a5578160011b91808304600214901517156091576085602092825460b6565b81555b54604051908152f35b634e487b7160e01b81526011600452602490fd5b60b0602092825460b6565b81556088565b9190820180921160c257565b634e487b7160e01b600052601160045260246000fdfea2646970667358221220b8c8db59c0eb1a7a0c8ff50f0af88035da535ab731ab7e2ff70c6b8195ae2b2d64736f6c63430008170033",
  "linkReferences": {},
  "deployedLinkReferences": {}
}