{
  "_format": "hh-sol-artifact-1",
  "contractName": "DateTime",
  "sourceName": "contracts/DateTime.sol",
  "abi": [
    {
      "inputs": [
        {
          "internalType": "uint256",
          "name": "timestamp",
          "type": "uint256"
        }
      ],
      "name": "getDay",
      "outputs": [
        {
          "internalType": "uint8",
          "name": "",
          "type": "uint8"
        }
      ],
      "stateMutability": "pure",
      "type": "function"
    },
    {
      "inputs": [
        {
          "internalType": "uint8",
          "name": "month",
          "type": "uint8"
        },
        {
          "internalType": "uint16",
          "name": "year",
          "type": "uint16"
        }
      ],
      "name": "getDaysInMonth",
      "outputs": [
        {
          "internalType": "uint8",
          "name": "",
          "type": "uint8"
        }
      ],
      "stateMutability": "pure",
      "type": "function"
    },
    {
      "inputs": [
        {
          "internalType": "uint256",
          "name": "timestamp",
          "type": "uint256"
        }
      ],
      "name": "getHour",
      "outputs": [
        {
          "internalType": "uint8",
          "name": "",
          "type": "uint8"
        }
      ],
      "stateMutability": "pure",
      "type": "function"
    },
    {
      "inputs": [
        {
          "internalType": "uint256",
          "name": "timestamp",
          "type": "uint256"
        }
      ],
      "name": "getMinute",
      "outputs": [
        {
          "internalType": "uint8",
          "name": "",
          "type": "uint8"
        }
      ],
      "stateMutability": "pure",
      "type": "function"
    },
    {
      "inputs": [
        {
          "internalType": "uint256",
          "name": "timestamp",
          "type": "uint256"
        }
      ],
      "name": "getMonth",
      "outputs": [
        {
          "internalType": "uint8",
          "name": "",
          "type": "uint8"
        }
      ],
      "stateMutability": "pure",
      "type": "function"
    },
    {
      "inputs": [
        {
          "internalType": "uint256",
          "name": "timestamp",
          "type": "uint256"
        }
      ],
      "name": "getSecond",
      "outputs": [
        {
          "internalType": "uint8",
          "name": "",
          "type": "uint8"
        }
      ],
      "stateMutability": "pure",
      "type": "function"
    },
    {
      "inputs": [
        {
          "internalType": "uint256",
          "name": "timestamp",
          "type": "uint256"
        }
      ],
      "name": "getWeekday",
      "outputs": [
        {
          "internalType": "uint8",
          "name": "",
          "type": "uint8"
        }
      ],
      "stateMutability": "pure",
      "type": "function"
    },
    {
      "inputs": [
        {
          "internalType": "uint256",
          "name": "timestamp",
          "type": "uint256"
        }
      ],
      "name": "getYear",
      "outputs": [
        {
          "internalType": "uint16",
          "name": "",
          "type": "uint16"
        }
      ],
      "stateMutability": "pure",
      "type": "function"
    },
    {
      "inputs": [
        {
          "internalType": "uint16",
          "name": "year",
          "type": "uint16"
        }
      ],
      "name": "isLeapYear",
      "outputs": [
        {
          "internalType": "bool",
          "name": "",
          "type": "bool"
        }
      ],
      "stateMutability": "pure",
      "type": "function"
    },
    {
      "inputs": [
        {
          "internalType": "uint256",
          "name": "year",
          "type": "uint256"
        }
      ],
      "name": "leapYearsBefore",
      "outputs": [
        {
          "internalType": "uint256",
          "name": "",
          "type": "uint256"
        }
      ],
      "stateMutability": "pure",
      "type": "function"
    },
    {
      "inputs": [
        {
          "internalType": "uint256",
          "name": "timestamp",
          "type": "uint256"
        }
      ],
      "name": "parseTimestamp",
      "outputs": [
        {
          "components": [
            {
              "internalType": "uint16",
              "name": "year",
              "type": "uint16"
            },
            {
              "internalType": "uint8",
              "name": "month",
              "type": "uint8"
            },
            {
              "internalType": "uint8",
              "name": "day",
              "type": "uint8"
            },
            {
              "internalType": "uint8",
              "name": "hour",
              "type": "uint8"
            },
            {
              "internalType": "uint8",
              "name": "minute",
              "type": "uint8"
            },
            {
              "internalType": "uint8",
              "name": "second",
              "type": "uint8"
            },
            {
              "internalType": "uint8",
              "name": "weekday",
              "type": "uint8"
            }
          ],
          "internalType": "struct DateTime._DateTime",
          "name": "dt",
          "type": "tuple"
        }
      ],
      "stateMutability": "pure",
      "type": "function"
    }
  ],
  "bytecode": "0x6080806040523461001a576107f79081610020823930815050f35b600080fdfe60806040908082526004908136101561001757600080fd5b600090813560e01c9081633e239e1a1461026c575080634ac1ad781461024e57806365c728401461022f5780638aa001fc1461021157806392d66313146101f2578063a324ad24146101c9578063a6f0e57714610198578063b199993714610175578063b238ad0e14610132578063f97d0591146100c05763fa93f8831461009e57600080fd5b60203660031901126100bd575060ff603c806020945193350406168152f35b80fd5b50829060203660031901126100bd57506100dc60e09235610568565b9060c081519261ffff815116845260208101519260ff8094166020860152838183015116908501528260608201511660608501528260808201511660808501528260a08201511660a085015201511660c0820152f35b50919081600319360112610171573560ff81168103610171576024359261ffff841684036100bd575061016960209360ff9261047f565b915191168152f35b8280fd5b50829060203660031901126100bd575061019160209235610451565b9051908152f35b509190602036600319011261017157359161ffff831683036100bd57506101c0602092610418565b90519015158152f35b50829060203660031901126100bd575060ff60206101e8819435610568565b0151169051908152f35b50829060203660031901126100bd575061ffff61016960209335610313565b5060203660031901126100bd575060ff603c60209351923506168152f35b50829060203660031901126100bd575060ff816101e860209435610568565b50829060203660031901126100bd575060ff610169602093356102b2565b91905060203660031901126100bd575060ff6018603c8060209535040406168152f35b9190820180921161029c57565b634e487b7160e01b600052601160045260246000fd5b6201518090046004810180911161029c57600760ff91061690565b6101dc1981019190821161029c57565b9190820391821161029c57565b61ffff9081166107b119019190821161029c57565b61ffff908116600019019190821161029c57565b6000906301e133806107b281830481018091116104045761ffff8091169361034261033d86610451565b6102cd565b6301e285009281840293840482036103f0579061036891610362886102ea565b166102dd565b808402938404036103dc5750906103819193929361028f565b82811161038e5750905090565b61039f61039a836102ff565b610418565b156103c3576301e284ff19810190811161029c576103bd90916102ff565b90610381565b6301e1337f19810190811161029c576103bd90916102ff565b634e487b7160e01b81526011600452602490fd5b634e487b7160e01b83526011600452602483fd5b634e487b7160e01b84526011600452602484fd5b6003811661044b5761ffff8091168160648206166104445761019090061661043f57600190565b600090565b5050600190565b50600090565b600019810190811161029c5780610190610474606461047c94048360021c6102dd565b91049061028f565b90565b60ff1660018114801561054d575b8015610543575b8015610539575b801561052f575b8015610525575b801561051b575b156104bc575050601f90565b60048114908115610510575b8115610505575b81156104fa575b50156104e25750601e90565b6104eb90610418565b156104f557601d90565b601c90565b600b915014386104d6565b6009811491506104cf565b6006811491506104c8565b50600c81146104b0565b50600a81146104a9565b50600881146104a2565b506007811461049b565b5060058114610494565b506003811461048d565b60ff1660ff811461029c5760010190565b6040519060e0820182811067ffffffffffffffff8211176107ab5760405260008083526020830192818452604081018281526060820193838552608083019684885260a084019185835260c0850190868252859361ffff9a6105d961033d8d6105d086610313565b16808b52610451565b6301e28500908082029182048103610797576105fc908e610362818d51166102ea565b906301e13380918083029283040361079757906106189161028f565b9960019a5b60ff90818d1691600c8311610782578f8e61063b918e51169061047f565b169162015180928084029384040361076e5786610658838561028f565b1161067757506106719161066b9161028f565b9b610557565b9a61061d565b91509b508c91939597999c9d929496989a9d525b60019a5b6106a68d60ff91829186838751169151169061047f565b16908d1690811161074f5762015180908282018083116107395789106106f9575081018091116106e5576106dd6106a6919c610557565b9b905061068f565b634e487b7160e01b8e52601160045260248efd5b9350505050610734979b50603c9294969a5060ff988994969a50525b81860490836018848404061690520616905283603c83061690526102b2565b169052565b5050634e487b7160e01b8f52601160045260248ffd5b50505050610734969a50603c919395995060ff97508792949850610715565b634e487b7160e01b8d52601160045260248dfd5b509b5050919395979a9b90929496989b61068b565b634e487b7160e01b8b52601160045260248bfd5b634e487b7160e01b600052604160045260246000fdfea264697066735822122063f8c02201cd42861cfebeb82d16f32d19b99ce6a7c865ee06c734901a2a230c64736f6c63430008170033",
  "linkReferences": {},
  "deployedLinkReferences": {}
}