{
  "_format": "hh-sol-artifact-1",
  "contractName": "GlobalContract",
  "sourceName": "contracts/GlobalContract.sol",
  "abi": [
    {
      "anonymous": false,
      "inputs": [
        {
          "indexed": false,
          "internalType": "int256[]",
          "name": "newPlan",
          "type": "int256[]"
        },
        {
          "indexed": false,
          "internalType": "uint256",
          "name": "timestamp",
          "type": "uint256"
        }
      ],
      "name": "GlobalPlanComputed",
      "type": "event"
    },
    {
      "anonymous": false,
      "inputs": [
        {
          "indexed": true,
          "internalType": "address",
          "name": "node",
          "type": "address"
        },
        {
          "indexed": false,
          "internalType": "int256",
          "name": "bestScore",
          "type": "int256"
        }
      ],
      "name": "NodeResultUpdated",
      "type": "event"
    },
    {
      "inputs": [],
      "name": "computeGlobalOptimalPlan",
      "outputs": [],
      "stateMutability": "nonpayable",
      "type": "function"
    },
    {
      "inputs": [
        {
          "internalType": "address",
          "name": "_node",
          "type": "address"
        }
      ],
      "name": "getBestPosition",
      "outputs": [
        {
          "internalType": "int256[]",
          "name": "",
          "type": "int256[]"
        }
      ],
      "stateMutability": "view",
      "type": "function"
    },
    {
      "inputs": [],
      "name": "getGlobalOptimalPlanArray",
      "outputs": [
        {
          "internalType": "int256[]",
          "name": "",
          "type": "int256[]"
        }
      ],
      "stateMutability": "view",
      "type": "function"
    },
    {
      "inputs": [
        {
          "internalType": "uint256",
          "name": "hour",
          "type": "uint256"
        }
      ],
      "name": "getGlobalOptimalPlanHour",
      "outputs": [
        {
          "internalType": "int256",
          "name": "",
          "type": "int256"
        }
      ],
      "stateMutability": "view",
      "type": "function"
    },
    {
      "inputs": [],
      "name": "getLastUpdatedTimestamp",
      "outputs": [
        {
          "internalType": "uint256",
          "name": "",
          "type": "uint256"
        }
      ],
      "stateMutability": "view",
      "type": "function"
    },
    {
      "inputs": [
        {
          "internalType": "uint256",
          "name": "",
          "type": "uint256"
        }
      ],
      "name": "globalOptimalPlan",
      "outputs": [
        {
          "internalType": "int256",
          "name": "",
          "type": "int256"
        }
      ],
      "stateMutability": "view",
      "type": "function"
    },
    {
      "inputs": [],
      "name": "lastUpdatedTimestamp",
      "outputs": [
        {
          "internalType": "uint256",
          "name": "",
          "type": "uint256"
        }
      ],
      "stateMutability": "view",
      "type": "function"
    },
    {
      "inputs": [
        {
          "internalType": "uint256",
          "name": "",
          "type": "uint256"
        }
      ],
      "name": "nodeAddresses",
      "outputs": [
        {
          "internalType": "address",
          "name": "",
          "type": "address"
        }
      ],
      "stateMutability": "view",
      "type": "function"
    },
    {
      "inputs": [
        {
          "internalType": "address",
          "name": "",
          "type": "address"
        }
      ],
      "name": "nodeResults",
      "outputs": [
        {
          "internalType": "int256",
          "name": "bestScore",
          "type": "int256"
        },
        {
          "internalType": "bool",
          "name": "exists",
          "type": "bool"
        }
      ],
      "stateMutability": "view",
      "type": "function"
    },
    {
      "inputs": [],
      "name": "numHours",
      "outputs": [
        {
          "internalType": "uint256",
          "name": "",
          "type": "uint256"
        }
      ],
      "stateMutability": "view",
      "type": "function"
    },
    {
      "inputs": [
        {
          "internalType": "int256[]",
          "name": "newPosition",
          "type": "int256[]"
        },
        {
          "internalType": "int256",
          "name": "newScore",
          "type": "int256"
        }
      ],
      "name": "updateNodeResult",
      "outputs": [],
      "stateMutability": "nonpayable",
      "type": "function"
    }
  ],
  "bytecode": "0x6080806040523461001657610a86908161001c8239f35b600080fdfe6040608081526004908136101561001557600080fd5b600091823560e01c80631e385f691461089f5780637207c556146108555780637f042dc01461082e57806394f6cd8d1461080f578063a626d2c0146107f2578063af602b4314610767578063c4d7709014610724578063ed3bf9c4146103e8578063efa624bc14610137578063efe5c98d146100ba5763fbaf894c1461009a57600080fd5b346100b657826003193601126100b65760209250549051908152f35b8280fd5b50829034610133576020366003190112610133578035906003548210156100f05760208480858581526002845220549051908152f35b606490602085519162461bcd60e51b8352820152601960248201527f4f726120696e20616661726120696e74657276616c756c7569000000000000006044820152fd5b5080fd5b5090346100b657806003193601126100b65781359067ffffffffffffffff928383116103e457366023840112156103e45782810135908482116103e057602480808601958460051b0101953687116103dc57813596338952602096898852868a2060ff6002820154161560001461038a575086519160608301838110858211176103785788526101c6876109f3565b916101d3895193846109bb565b878352898084015b838310610368575050505081528681019088825286810191600193848452338c528b8a52888c2092518051918211610356578a906102198386610a0b565b01838d528c868c8220915b848110610344575050505050906002915184820155019051151560ff80198354169116179055805490600160401b8210156103325781810190556102679061096e565b81546001600160a01b0360039290921b91821b19163390911b1790555b600354806102c0575050506003557f1e61759c28c006b2edeffc298e59ea00a93888cddb41dc60e8236de97f039b3c91905b519283523392a280f35b909192036102f2575050907f1e61759c28c006b2edeffc298e59ea00a93888cddb41dc60e8236de97f039b3c916102b6565b606493601c9293519362461bcd60e51b85528401528201527f44696d656e7369756e65206e65636f72657370756e7a61746f617265000000006044820152fd5b634e487b7160e01b8952604184528289fd5b8d845194019381840155018790610224565b634e487b7160e01b8d5260418852868dfd5b82358152918101918b91016101db565b634e487b7160e01b8c5260418752858cfd5b915091506001918860018301805482126103a9575b5050505050610284565b556103b48683610a0b565b90895286892090895b8681106103cb57899061039f565b8135838201559088019083016103bd565b8780fd5b8580fd5b8480fd5b5091903461013357816003193601126101335760018054156106e85760038054156106ac5783825b610542575b5050504283558181518094631e385f6960e01b825281305afa90811561053757829161047e575b90816104727f94e1547304e6d63037244c908da52f757ad8e339edce5f9e09985dd78fb8f539935192828493845283019061093a565b4260208301520390a180f35b90503d8083853e61048f81856109bb565b830160209384818303126105335780519067ffffffffffffffff82116103e457019080601f830112156105335781516104c7816109f3565b926104d4855194856109bb565b818452868085019260051b8201019283116103e0578601905b828210610524575050507f94e1547304e6d63037244c908da52f757ad8e339edce5f9e09985dd78fb8f5399293509083925061043c565b815181529086019086016104ed565b8380fd5b51913d9150823e3d90fd5b81548110156106a757848590868554905b8181106105d8575050811585816105bd57506105aa57600160ff1b81146000198314166105975791849392918492828952600260205205868820555b019091610410565b634e487b7160e01b875260118852602487fd5b634e487b7160e01b875260128852602487fd5b9493915050839150808752600260205260058688205561058f565b95866105ec829b95979394969a999861096e565b90546001600160a01b0391851b1c81168a5260208a8152898b206002015490919060ff16610627575b50500198959697939190949298610553565b9091979692506106368861096e565b905490851b1c16895288815287892080548b10156106945789528820890154818101918913801591831291821691151617610681579360001981146106815789809101953880610615565b634e487b7160e01b885260118452602488fd5b634e487b7160e01b8a526032865260248afd5b610415565b825162461bcd60e51b815260208187015260166024820152751b9d5b521bdd5c9cc81b9d48195cdd19481cd95d185d60521b6044820152606490fd5b815162461bcd60e51b81526020818601526016602482015275139a58da5d5b881b9bd9081a5b9c9959da5cdd1c985d60521b6044820152606490fd5b50346100b65760203660031901126100b6573591600154831015610764575061074e60209261096e565b905491519160018060a01b039160031b1c168152f35b80fd5b5090346100b6576020918260031936011261053357356001600160a01b03811690819003610533578352828252808320815190819485928583549182815201928252858220915b868282106107db5785906107d7886107c8848903856109bb565b5192828493845283019061093a565b0390f35b8354855288955090930192600192830192016107ae565b50346100b657826003193601126100b65760209250549051908152f35b5050346101335781600319360112610133576020906003549051908152f35b50346100b65760203660031901126100b65760209282913581526002845220549051908152f35b50346100b65760203660031901126100b657356001600160a01b038116908190036100b6579181928152806020522060ff6002600183015492015416825191825215156020820152f35b509190346101335781600319360112610133576003546108be816109f3565b926108cb835194856109bb565b8184526108d7826109f3565b602090601f19013686830137815b838110610901578451602080825281906107d79082018961093a565b8083526002825284832054865182101561092757600582901b87018301526001016108e5565b634e487b7160e01b845260328852602484fd5b90815180825260208080930193019160005b82811061095a575050505090565b83518552938101939281019260010161094c565b6001548110156109a55760016000527fb10e2d527612073b26eecdfd717e6a320cf44b4afac2b0732d9fcbe2b7fa0cf60190600090565b634e487b7160e01b600052603260045260246000fd5b90601f8019910116810190811067ffffffffffffffff8211176109dd57604052565b634e487b7160e01b600052604160045260246000fd5b67ffffffffffffffff81116109dd5760051b60200190565b600160401b82116109dd57805491808255828110610a2857505050565b600091600052602060002092830192015b828110610a4557505050565b818155600101610a3956fea26469706673582212202ddc76ae68021026b3966aa2ba1e62c0c442ae983345646082191372d8a1d14364736f6c63430008170033",
  "linkReferences": {},
  "deployedLinkReferences": {}
}