{
  "_format": "hh-sol-artifact-1",
  "contractName": "GlobalContract",
  "sourceName": "contracts/GlobalContract.sol",
  "abi": [
    {
      "anonymous": false,
      "inputs": [
        {
          "indexed": false,
          "internalType": "int256[]",
          "name": "newPlan",
          "type": "int256[]"
        },
        {
          "indexed": false,
          "internalType": "uint256",
          "name": "timestamp",
          "type": "uint256"
        }
      ],
      "name": "GlobalPlanComputed",
      "type": "event"
    },
    {
      "anonymous": false,
      "inputs": [
        {
          "indexed": true,
          "internalType": "address",
          "name": "node",
          "type": "address"
        },
        {
          "indexed": false,
          "internalType": "uint256",
          "name": "bestScore",
          "type": "uint256"
        }
      ],
      "name": "NodeResultUpdated",
      "type": "event"
    },
    {
      "inputs": [],
      "name": "computeGlobalOptimalPlan",
      "outputs": [],
      "stateMutability": "nonpayable",
      "type": "function"
    },
    {
      "inputs": [
        {
          "internalType": "address",
          "name": "_node",
          "type": "address"
        }
      ],
      "name": "getBestPosition",
      "outputs": [
        {
          "internalType": "int256[]",
          "name": "",
          "type": "int256[]"
        }
      ],
      "stateMutability": "view",
      "type": "function"
    },
    {
      "inputs": [],
      "name": "getGlobalOptimalPlanArray",
      "outputs": [
        {
          "internalType": "int256[]",
          "name": "",
          "type": "int256[]"
        }
      ],
      "stateMutability": "view",
      "type": "function"
    },
    {
      "inputs": [
        {
          "internalType": "uint256",
          "name": "hour",
          "type": "uint256"
        }
      ],
      "name": "getGlobalOptimalPlanHour",
      "outputs": [
        {
          "internalType": "int256",
          "name": "",
          "type": "int256"
        }
      ],
      "stateMutability": "view",
      "type": "function"
    },
    {
      "inputs": [],
      "name": "getLastUpdatedTimestamp",
      "outputs": [
        {
          "internalType": "uint256",
          "name": "",
          "type": "uint256"
        }
      ],
      "stateMutability": "view",
      "type": "function"
    },
    {
      "inputs": [
        {
          "internalType": "uint256",
          "name": "",
          "type": "uint256"
        }
      ],
      "name": "globalOptimalPlan",
      "outputs": [
        {
          "internalType": "int256",
          "name": "",
          "type": "int256"
        }
      ],
      "stateMutability": "view",
      "type": "function"
    },
    {
      "inputs": [],
      "name": "lastUpdatedTimestamp",
      "outputs": [
        {
          "internalType": "uint256",
          "name": "",
          "type": "uint256"
        }
      ],
      "stateMutability": "view",
      "type": "function"
    },
    {
      "inputs": [
        {
          "internalType": "uint256",
          "name": "",
          "type": "uint256"
        }
      ],
      "name": "nodeAddresses",
      "outputs": [
        {
          "internalType": "address",
          "name": "",
          "type": "address"
        }
      ],
      "stateMutability": "view",
      "type": "function"
    },
    {
      "inputs": [
        {
          "internalType": "address",
          "name": "",
          "type": "address"
        }
      ],
      "name": "nodeResults",
      "outputs": [
        {
          "internalType": "uint256",
          "name": "bestScore",
          "type": "uint256"
        },
        {
          "internalType": "bool",
          "name": "exists",
          "type": "bool"
        }
      ],
      "stateMutability": "view",
      "type": "function"
    },
    {
      "inputs": [],
      "name": "numHours",
      "outputs": [
        {
          "internalType": "uint256",
          "name": "",
          "type": "uint256"
        }
      ],
      "stateMutability": "view",
      "type": "function"
    },
    {
      "inputs": [
        {
          "internalType": "int256[]",
          "name": "newPosition",
          "type": "int256[]"
        },
        {
          "internalType": "uint256",
          "name": "newScore",
          "type": "uint256"
        }
      ],
      "name": "updateNodeResult",
      "outputs": [],
      "stateMutability": "nonpayable",
      "type": "function"
    }
  ],
  "bytecode": "0x6080806040523461001657610a86908161001c8239f35b600080fdfe6040608081526004908136101561001557600080fd5b600091823560e01c80631e385f691461089f5780632b64b979146105f65780637207c556146105ac5780637f042dc01461058557806394f6cd8d14610566578063a626d2c014610549578063af602b43146104be578063c4d770901461047b578063ed3bf9c414610137578063efe5c98d146100ba5763fbaf894c1461009a57600080fd5b346100b657826003193601126100b65760209250549051908152f35b8280fd5b50829034610133576020366003190112610133578035906003548210156100f05760208480858581526002845220549051908152f35b606490602085519162461bcd60e51b8352820152601960248201527f4f726120696e20616661726120696e74657276616c756c7569000000000000006044820152fd5b5080fd5b50919034610133578160031936011261013357600180541561043f5760038054156104035783825b610299575b5050504283558181518094631e385f6960e01b825281305afa90811561028e5782916101cd575b90816101c17f94e1547304e6d63037244c908da52f757ad8e339edce5f9e09985dd78fb8f539935192828493845283019061093a565b4260208301520390a180f35b90503d8083853e6101de81856109bb565b830160209384818303126102865780519067ffffffffffffffff821161028a57019080601f83011215610286578151610216816109f3565b92610223855194856109bb565b818452868085019260051b820101928311610282578601905b828210610273575050507f94e1547304e6d63037244c908da52f757ad8e339edce5f9e09985dd78fb8f5399293509083925061018b565b8151815290860190860161023c565b8580fd5b8380fd5b8480fd5b51913d9150823e3d90fd5b81548110156103fe57848590868554905b81811061032f57505081158581610314575061030157600160ff1b81146000198314166102ee5791849392918492828952600260205205868820555b01909161015f565b634e487b7160e01b875260118852602487fd5b634e487b7160e01b875260128852602487fd5b949391505083915080875260026020526005868820556102e6565b9586610343829b95979394969a999861096e565b90546001600160a01b0391851b1c81168a5260208a8152898b206002015490919060ff1661037e575b505001989596979391909492986102aa565b90919796925061038d8861096e565b905490851b1c16895288815287892080548b10156103eb57895288208901548181019189138015918312918216911516176103d8579360001981146103d8578980910195388061036c565b634e487b7160e01b885260118452602488fd5b634e487b7160e01b8a526032865260248afd5b610164565b825162461bcd60e51b815260208187015260166024820152751b9d5b521bdd5c9cc81b9d48195cdd19481cd95d185d60521b6044820152606490fd5b815162461bcd60e51b81526020818601526016602482015275139a58da5d5b881b9bd9081a5b9c9959da5cdd1c985d60521b6044820152606490fd5b50346100b65760203660031901126100b65735916001548310156104bb57506104a560209261096e565b905491519160018060a01b039160031b1c168152f35b80fd5b5090346100b6576020918260031936011261028657356001600160a01b03811690819003610286578352828252808320815190819485928583549182815201928252858220915b8682821061053257859061052e8861051f848903856109bb565b5192828493845283019061093a565b0390f35b835485528895509093019260019283019201610505565b50346100b657826003193601126100b65760209250549051908152f35b5050346101335781600319360112610133576020906003549051908152f35b50346100b65760203660031901126100b65760209282913581526002845220549051908152f35b50346100b65760203660031901126100b657356001600160a01b038116908190036100b6579181928152806020522060ff6002600183015492015416825191825215156020820152f35b5090346100b657806003193601126100b65781359067ffffffffffffffff9283831161028a573660238401121561028a57828101359084821161028257602480808601958460051b01019536871161089b57813596338952602096898852868a2060ff6002820154161560001461084957508651916060830183811085821117610837578852610685876109f3565b91610692895193846109bb565b878352898084015b838310610827575050505081528681019088825286810191600193848452338c528b8a52888c2092518051918211610815578a906106d88386610a0b565b01838d528c868c8220915b848110610803575050505050906002915184820155019051151560ff80198354169116179055805490600160401b8210156107f15781810190556107269061096e565b81546001600160a01b0360039290921b91821b19163390911b1790555b6003548061077f575050506003557fe913a794559ec9b2c2b517b38acf41f0387457e9577ff6072c60a4149aeb197791905b519283523392a280f35b909192036107b1575050907fe913a794559ec9b2c2b517b38acf41f0387457e9577ff6072c60a4149aeb197791610775565b606493601c9293519362461bcd60e51b85528401528201527f44696d656e7369756e65206e65636f72657370756e7a61746f617265000000006044820152fd5b634e487b7160e01b8952604184528289fd5b8d8451940193818401550187906106e3565b634e487b7160e01b8d5260418852868dfd5b82358152918101918b910161069a565b634e487b7160e01b8c5260418752858cfd5b91509150600191886001830180548210610868575b5050505050610743565b556108738683610a0b565b90895286892090895b86811061088a57899061085e565b81358382015590880190830161087c565b8780fd5b509190346101335781600319360112610133576003546108be816109f3565b926108cb835194856109bb565b8184526108d7826109f3565b602090601f19013686830137815b8381106109015784516020808252819061052e9082018961093a565b8083526002825284832054865182101561092757600582901b87018301526001016108e5565b634e487b7160e01b845260328852602484fd5b90815180825260208080930193019160005b82811061095a575050505090565b83518552938101939281019260010161094c565b6001548110156109a55760016000527fb10e2d527612073b26eecdfd717e6a320cf44b4afac2b0732d9fcbe2b7fa0cf60190600090565b634e487b7160e01b600052603260045260246000fd5b90601f8019910116810190811067ffffffffffffffff8211176109dd57604052565b634e487b7160e01b600052604160045260246000fd5b67ffffffffffffffff81116109dd5760051b60200190565b600160401b82116109dd57805491808255828110610a2857505050565b600091600052602060002092830192015b828110610a4557505050565b818155600101610a3956fea2646970667358221220da873b478dcd46044bfe7c27a583be97598b40eba5e24e6642a27b2e4af3f2fe64736f6c63430008170033",
  "linkReferences": {},
  "deployedLinkReferences": {}
}