{
  "_format": "hh-sol-artifact-1",
  "contractName": "GlobalContract",
  "sourceName": "contracts/GlobalContract.sol",
  "abi": [
    {
      "inputs": [],
      "stateMutability": "nonpayable",
      "type": "constructor"
    },
    {
      "inputs": [],
      "name": "getGlobalBestPosition",
      "outputs": [
        {
          "internalType": "uint256[]",
          "name": "",
          "type": "uint256[]"
        }
      ],
      "stateMutability": "view",
      "type": "function"
    },
    {
      "inputs": [
        {
          "internalType": "uint256",
          "name": "",
          "type": "uint256"
        }
      ],
      "name": "globalBestPosition",
      "outputs": [
        {
          "internalType": "uint256",
          "name": "",
          "type": "uint256"
        }
      ],
      "stateMutability": "view",
      "type": "function"
    },
    {
      "inputs": [],
      "name": "globalBestScore",
      "outputs": [
        {
          "internalType": "uint256",
          "name": "",
          "type": "uint256"
        }
      ],
      "stateMutability": "view",
      "type": "function"
    },
    {
      "inputs": [
        {
          "internalType": "uint256[]",
          "name": "newPosition",
          "type": "uint256[]"
        },
        {
          "internalType": "uint256",
          "name": "newScore",
          "type": "uint256"
        }
      ],
      "name": "updateGlobalBestPosition",
      "outputs": [],
      "stateMutability": "nonpayable",
      "type": "function"
    }
  ],
  "bytecode": "0x6080346100c657600019600190815590606081016001600160401b038111828210176100b057604052600a8152602060146020830152601e60408301526000908154926003936003845580600310610087575b509180805260208120905b848110610073576040516102c690816100cc8239f35b835160ff168282015592820192850161005d565b8380528560036020862092830192015b8281106100a5575050610052565b858155018690610097565b634e487b7160e01b600052604160045260246000fd5b600080fdfe608060408181526004918236101561001657600080fd5b600092833560e01c9182632ba8f1b3146101a8575081637fe1e8331461016e578163a5cdc59b14610072575063cb79ff551461005157600080fd5b3461006e578160031936011261006e576020906001549051908152f35b5080fd5b9190503461016a5736600319011261006e5767ffffffffffffffff813581811161016657366023820112156101665780830135918211610166573660248360051b83010111610166576024359260019360015481106100cf578580f35b60015568010000000000000000831161015357508354828555808310610123575b50602401835b82811061010257808580f35b839060208335930192816000805160206102718339815191520155016100f6565b838360008051602061027183398151915292830192015b8281106101485750506100f0565b86815501849061013a565b634e487b7160e01b855260419052602484fd5b8380fd5b8280fd5b90503461016a57602036600319011261016a5735825481101561016a57826020935260008051602061027183398151915201549051908152f35b8490843461016a578260031936011261016a57825492838352602091828401809583805260008051602061027183398151915290845b8682821061025c5750505050849003601f01601f191684019567ffffffffffffffff871185881017610249575085815282865292518583018190528594938501939290915b82811061023257505050500390f35b835185528695509381019392810192600101610223565b634e487b7160e01b835260419052602482fd5b8354855290930192600192830192016101de56fe290decd9548b62a8d60345a988386fc84ba6bc95484008f6362f93160ef3e563a2646970667358221220a1ebe724ce9c35d501c3ba5a0626e8dc77cce5883e283895bdee8c53a1002de464736f6c63430008170033",
  "linkReferences": {},
  "deployedLinkReferences": {}
}