{
  "_format": "hh-sol-artifact-1",
  "contractName": "GlobalContract",
  "sourceName": "contracts/GlobalContract.sol",
  "abi": [
    {
      "anonymous": false,
      "inputs": [
        {
          "indexed": false,
          "internalType": "int256[]",
          "name": "newPlan",
          "type": "int256[]"
        },
        {
          "indexed": false,
          "internalType": "uint256",
          "name": "timestamp",
          "type": "uint256"
        }
      ],
      "name": "GlobalPlanComputed",
      "type": "event"
    },
    {
      "anonymous": false,
      "inputs": [
        {
          "indexed": true,
          "internalType": "address",
          "name": "node",
          "type": "address"
        },
        {
          "indexed": false,
          "internalType": "int256",
          "name": "bestScore",
          "type": "int256"
        }
      ],
      "name": "NodeResultUpdated",
      "type": "event"
    },
    {
      "inputs": [],
      "name": "computeGlobalOptimalPlan",
      "outputs": [],
      "stateMutability": "nonpayable",
      "type": "function"
    },
    {
      "inputs": [
        {
          "internalType": "address",
          "name": "_node",
          "type": "address"
        }
      ],
      "name": "getBestPosition",
      "outputs": [
        {
          "internalType": "int256[]",
          "name": "",
          "type": "int256[]"
        }
      ],
      "stateMutability": "view",
      "type": "function"
    },
    {
      "inputs": [],
      "name": "getGlobalOptimalPlanArray",
      "outputs": [
        {
          "internalType": "int256[]",
          "name": "",
          "type": "int256[]"
        }
      ],
      "stateMutability": "view",
      "type": "function"
    },
    {
      "inputs": [
        {
          "internalType": "uint256",
          "name": "hour",
          "type": "uint256"
        }
      ],
      "name": "getGlobalOptimalPlanHour",
      "outputs": [
        {
          "internalType": "int256",
          "name": "",
          "type": "int256"
        }
      ],
      "stateMutability": "view",
      "type": "function"
    },
    {
      "inputs": [],
      "name": "getLastUpdatedTimestamp",
      "outputs": [
        {
          "internalType": "uint256",
          "name": "",
          "type": "uint256"
        }
      ],
      "stateMutability": "view",
      "type": "function"
    },
    {
      "inputs": [
        {
          "internalType": "uint256",
          "name": "",
          "type": "uint256"
        }
      ],
      "name": "globalOptimalPlan",
      "outputs": [
        {
          "internalType": "int256",
          "name": "",
          "type": "int256"
        }
      ],
      "stateMutability": "view",
      "type": "function"
    },
    {
      "inputs": [],
      "name": "lastUpdatedTimestamp",
      "outputs": [
        {
          "internalType": "uint256",
          "name": "",
          "type": "uint256"
        }
      ],
      "stateMutability": "view",
      "type": "function"
    },
    {
      "inputs": [
        {
          "internalType": "uint256",
          "name": "",
          "type": "uint256"
        }
      ],
      "name": "nodeAddresses",
      "outputs": [
        {
          "internalType": "address",
          "name": "",
          "type": "address"
        }
      ],
      "stateMutability": "view",
      "type": "function"
    },
    {
      "inputs": [
        {
          "internalType": "address",
          "name": "",
          "type": "address"
        }
      ],
      "name": "nodeResults",
      "outputs": [
        {
          "internalType": "int256",
          "name": "bestScore",
          "type": "int256"
        },
        {
          "internalType": "bool",
          "name": "exists",
          "type": "bool"
        }
      ],
      "stateMutability": "view",
      "type": "function"
    },
    {
      "inputs": [],
      "name": "numHours",
      "outputs": [
        {
          "internalType": "uint256",
          "name": "",
          "type": "uint256"
        }
      ],
      "stateMutability": "view",
      "type": "function"
    },
    {
      "inputs": [
        {
          "internalType": "int256[]",
          "name": "newPosition",
          "type": "int256[]"
        },
        {
          "internalType": "int256",
          "name": "newScore",
          "type": "int256"
        },
        {
          "internalType": "uint256[]",
          "name": "newFlexibilityWeight",
          "type": "uint256[]"
        }
      ],
      "name": "updateNodeResult",
      "outputs": [],
      "stateMutability": "nonpayable",
      "type": "function"
    }
  ],
  "bytecode": "0x6080806040523461001657610c4d908161001c8239f35b600080fdfe6040608081526004908136101561001557600080fd5b600091823560e01c80631e385f6914610a185780632fc0395f146106655780637207c5561461061b5780637f042dc0146105f457806394f6cd8d146105d5578063a626d2c0146105b8578063af602b431461052d578063c4d77090146104ea578063ed3bf9c414610137578063efe5c98d146100ba5763fbaf894c1461009a57600080fd5b346100b657826003193601126100b65760209250549051908152f35b8280fd5b50829034610133576020366003190112610133578035906003548210156100f05760208480858581526002845220549051908152f35b606490602085519162461bcd60e51b8352820152601960248201527f4f726120696e20616661726120696e74657276616c756c7569000000000000006044820152fd5b5080fd5b5091903461013357816003193601126101335760018054156104ae5760038054156104725783825b610299575b5050504283558181518094631e385f6960e01b825281305afa90811561028e5782916101cd575b90816101c17f94e1547304e6d63037244c908da52f757ad8e339edce5f9e09985dd78fb8f5399351928284938452830190610ab3565b4260208301520390a180f35b90503d8083853e6101de8185610b82565b830160209384818303126102865780519067ffffffffffffffff821161028a57019080601f8301121561028657815161021681610bba565b9261022385519485610b82565b818452868085019260051b820101928311610282578601905b828210610273575050507f94e1547304e6d63037244c908da52f757ad8e339edce5f9e09985dd78fb8f5399293509083925061018b565b8151815290860190860161023c565b8580fd5b8380fd5b8480fd5b51913d9150823e3d90fd5b815481101561046d57848590868554905b81811061032f57505081158581610314575061030157600160ff1b81146000198314166102ee5791849392918492828952600260205205868820555b01909161015f565b634e487b7160e01b875260118852602487fd5b634e487b7160e01b875260128852602487fd5b949391505083915080875260026020526005868820556102e6565b9586610343829b95979394969a9998610b1d565b90546001600160a01b0391851b1c81168a5260208a8152898b208501548b919060ff1661037e575b50505001989596979391909492986102aa565b90918399945061038f819994610b1d565b905490871b1c1682528181526103aa8c60028c852001610b6a565b905490861b1c976103ba8a610b1d565b905490871b1c168252526103d08a898b20610b6a565b905490841b1c86810291908a8812600160ff1b82141661045a57878305148715171561044757898282019283129112908015821691151617610434579481018091116104215789909538898161036b565b634e487b7160e01b885260118452602488fd5b634e487b7160e01b895260118552602489fd5b634e487b7160e01b8a526011865260248afd5b634e487b7160e01b8b526011875260248bfd5b610164565b825162461bcd60e51b815260208187015260166024820152751b9d5b521bdd5c9cc81b9d48195cdd19481cd95d185d60521b6044820152606490fd5b815162461bcd60e51b81526020818601526016602482015275139a58da5d5b881b9bd9081a5b9c9959da5cdd1c985d60521b6044820152606490fd5b50346100b65760203660031901126100b657359160015483101561052a5750610514602092610b1d565b905491519160018060a01b039160031b1c168152f35b80fd5b5090346100b6576020918260031936011261028657356001600160a01b03811690819003610286578352828252808320815190819485928583549182815201928252858220915b868282106105a157859061059d8861058e84890385610b82565b51928284938452830190610ab3565b0390f35b835485528895509093019260019283019201610574565b50346100b657826003193601126100b65760209250549051908152f35b5050346101335781600319360112610133576020906003549051908152f35b50346100b65760203660031901126100b65760209282913581526002845220549051908152f35b50346100b65760203660031901126100b657356001600160a01b038116908190036100b6579181928152806020522060ff6003600183015492015416825191825215156020820152f35b5090346100b65760603660031901126100b65767ffffffffffffffff90823582811161028a576106989036908501610ae7565b90936024803595604435868111610a14576106b69036908501610ae7565b9091338a526020978a8952878b2060ff60038201541615600014610964575087519160808301838110838211176109065789526106f288610bba565b906106ff8a519283610b82565b8882528a82018960051b820191368311610960578c90915b83831061095057505050508252888201938a855261073484610bba565b936107418a519586610b82565b8085528a85019060051b82019136831161094c578b90915b83831061093c57505050508782019283526060820192600194858552338d528c8b52898d20935180519084821161092a578e888e8093610799868b610bd2565b019288835280832092905b8582106109185750505050505051858401556002830190518051928311610906578a906107d18484610bd2565b01908c52898c20858d5b8481106108f45750505050506003019051151560ff80198354169116179055805490600160401b8210156108e257818101905561081790610b1d565b81546001600160a01b0360039290921b91821b19163390911b1790555b60035480610870575050506003557f1e61759c28c006b2edeffc298e59ea00a93888cddb41dc60e8236de97f039b3c91905b519283523392a280f35b909192036108a2575050907f1e61759c28c006b2edeffc298e59ea00a93888cddb41dc60e8236de97f039b3c91610866565b606493601c9293519362461bcd60e51b85528401528201527f44696d656e7369756e65206e65636f72657370756e7a61746f617265000000006044820152fd5b634e487b7160e01b8952604184528289fd5b8c8451940193818401550186906107db565b634e487b7160e01b8d5260418852868dfd5b8451940193818401550189908f6107a4565b634e487b7160e01b8f5260418a52888ffd5b82358152918101918c9101610759565b8d80fd5b82358152918101918d9101610717565b8e80fd5b60019491928b6001830180548212610984575b5050505050505050610834565b55838911610906576109968983610bd2565b908c52898c2090858d5b8a8110610a025750505050338b528a89526002888c20019183116109f0576109c88383610bd2565b908a52878a208a5b8381106109df57808b81610977565b8235828201559189019184016109d0565b634e487b7160e01b8b5260418652848bfd5b8c8335930192818501550186906109a0565b8880fd5b50919034610133578160031936011261013357600354610a3781610bba565b92610a4483519485610b82565b818452610a5082610bba565b602090601f19013686830137815b838110610a7a5784516020808252819061059d90820189610ab3565b80835260028252848320548651821015610aa057600582901b8701830152600101610a5e565b634e487b7160e01b845260328852602484fd5b90815180825260208080930193019160005b828110610ad3575050505090565b835185529381019392810192600101610ac5565b9181601f84011215610b185782359167ffffffffffffffff8311610b18576020808501948460051b010111610b1857565b600080fd5b600154811015610b545760016000527fb10e2d527612073b26eecdfd717e6a320cf44b4afac2b0732d9fcbe2b7fa0cf60190600090565b634e487b7160e01b600052603260045260246000fd5b8054821015610b545760005260206000200190600090565b90601f8019910116810190811067ffffffffffffffff821117610ba457604052565b634e487b7160e01b600052604160045260246000fd5b67ffffffffffffffff8111610ba45760051b60200190565b600160401b8211610ba457805491808255828110610bef57505050565b600091600052602060002092830192015b828110610c0c57505050565b818155600101610c0056fea2646970667358221220a78f41710efd94806fd70324318f325e6f6b072250945601810980733de2882a64736f6c63430008170033",
  "linkReferences": {},
  "deployedLinkReferences": {}
}