{
  "_format": "hh-sol-artifact-1",
  "contractName": "GlobalContract",
  "sourceName": "contracts/GlobalContract.sol",
  "abi": [
    {
      "anonymous": false,
      "inputs": [
        {
          "indexed": true,
          "internalType": "address",
          "name": "trigger",
          "type": "address"
        },
        {
          "indexed": false,
          "internalType": "int256[]",
          "name": "newPlan",
          "type": "int256[]"
        },
        {
          "indexed": false,
          "internalType": "uint256",
          "name": "timestamp",
          "type": "uint256"
        }
      ],
      "name": "GlobalPlanComputed",
      "type": "event"
    },
    {
      "anonymous": false,
      "inputs": [
        {
          "indexed": true,
          "internalType": "address",
          "name": "node",
          "type": "address"
        },
        {
          "indexed": false,
          "internalType": "int256",
          "name": "bestScore",
          "type": "int256"
        }
      ],
      "name": "NodeResultUpdated",
      "type": "event"
    },
    {
      "inputs": [],
      "name": "bestGlobalCost",
      "outputs": [
        {
          "internalType": "int256",
          "name": "",
          "type": "int256"
        }
      ],
      "stateMutability": "view",
      "type": "function"
    },
    {
      "inputs": [
        {
          "internalType": "uint256",
          "name": "",
          "type": "uint256"
        }
      ],
      "name": "bestGlobalPlan",
      "outputs": [
        {
          "internalType": "int256",
          "name": "",
          "type": "int256"
        }
      ],
      "stateMutability": "view",
      "type": "function"
    },
    {
      "inputs": [],
      "name": "computeGlobalOptimalPlan",
      "outputs": [],
      "stateMutability": "nonpayable",
      "type": "function"
    },
    {
      "inputs": [],
      "name": "finalizePlan",
      "outputs": [],
      "stateMutability": "nonpayable",
      "type": "function"
    },
    {
      "inputs": [],
      "name": "finalized",
      "outputs": [
        {
          "internalType": "bool",
          "name": "",
          "type": "bool"
        }
      ],
      "stateMutability": "view",
      "type": "function"
    },
    {
      "inputs": [],
      "name": "frozenGlobalCost",
      "outputs": [
        {
          "internalType": "int256",
          "name": "",
          "type": "int256"
        }
      ],
      "stateMutability": "view",
      "type": "function"
    },
    {
      "inputs": [],
      "name": "getBestGlobalPlan",
      "outputs": [
        {
          "internalType": "int256[]",
          "name": "",
          "type": "int256[]"
        }
      ],
      "stateMutability": "view",
      "type": "function"
    },
    {
      "inputs": [
        {
          "internalType": "address",
          "name": "_node",
          "type": "address"
        }
      ],
      "name": "getBestPosition",
      "outputs": [
        {
          "internalType": "int256[]",
          "name": "",
          "type": "int256[]"
        }
      ],
      "stateMutability": "view",
      "type": "function"
    },
    {
      "inputs": [],
      "name": "getGlobalOptimalPlanArray",
      "outputs": [
        {
          "internalType": "int256[]",
          "name": "",
          "type": "int256[]"
        }
      ],
      "stateMutability": "view",
      "type": "function"
    },
    {
      "inputs": [
        {
          "internalType": "uint256",
          "name": "hour",
          "type": "uint256"
        }
      ],
      "name": "getGlobalOptimalPlanHour",
      "outputs": [
        {
          "internalType": "int256",
          "name": "",
          "type": "int256"
        }
      ],
      "stateMutability": "view",
      "type": "function"
    },
    {
      "inputs": [],
      "name": "getLastUpdatedTimestamp",
      "outputs": [
        {
          "internalType": "uint256",
          "name": "",
          "type": "uint256"
        }
      ],
      "stateMutability": "view",
      "type": "function"
    },
    {
      "inputs": [],
      "name": "getNodeAddresses",
      "outputs": [
        {
          "internalType": "address[]",
          "name": "",
          "type": "address[]"
        }
      ],
      "stateMutability": "view",
      "type": "function"
    },
    {
      "inputs": [
        {
          "internalType": "uint256",
          "name": "",
          "type": "uint256"
        }
      ],
      "name": "globalOptimalPlan",
      "outputs": [
        {
          "internalType": "int256",
          "name": "",
          "type": "int256"
        }
      ],
      "stateMutability": "view",
      "type": "function"
    },
    {
      "inputs": [],
      "name": "lastUpdatedTimestamp",
      "outputs": [
        {
          "internalType": "uint256",
          "name": "",
          "type": "uint256"
        }
      ],
      "stateMutability": "view",
      "type": "function"
    },
    {
      "inputs": [
        {
          "internalType": "uint256",
          "name": "",
          "type": "uint256"
        }
      ],
      "name": "nodeAddresses",
      "outputs": [
        {
          "internalType": "address",
          "name": "",
          "type": "address"
        }
      ],
      "stateMutability": "view",
      "type": "function"
    },
    {
      "inputs": [
        {
          "internalType": "address",
          "name": "",
          "type": "address"
        }
      ],
      "name": "nodeResults",
      "outputs": [
        {
          "internalType": "int256",
          "name": "bestScore",
          "type": "int256"
        },
        {
          "internalType": "bool",
          "name": "exists",
          "type": "bool"
        }
      ],
      "stateMutability": "view",
      "type": "function"
    },
    {
      "inputs": [],
      "name": "numHours",
      "outputs": [
        {
          "internalType": "uint256",
          "name": "",
          "type": "uint256"
        }
      ],
      "stateMutability": "view",
      "type": "function"
    },
    {
      "inputs": [
        {
          "internalType": "int256[]",
          "name": "newPosition",
          "type": "int256[]"
        },
        {
          "internalType": "int256",
          "name": "newScore",
          "type": "int256"
        },
        {
          "internalType": "uint256[]",
          "name": "newFlexibilityWeight",
          "type": "uint256[]"
        }
      ],
      "name": "updateNodeResult",
      "outputs": [],
      "stateMutability": "nonpayable",
      "type": "function"
    }
  ],
  "bytecode": "0x6080806040523461002b576001600160ff1b036004556008805460ff1916905561107c90816100318239f35b600080fdfe608060408181526004918236101561001657600080fd5b600092833560e01c9182630bfa7ec914610e1d575081630c27abc814610de4578163160b0cad14610dc65781631e385f6914610d4e5781632e94982414610c935781632fc0395f146108df5781637207c556146108945781637f042dc01461086c57816394f6cd8d1461084d578163a00239d614610827578163a626d2c014610808578163af602b431461077c578163b3f05b9714610758578163b6042cf9146106da578163c4d7709014610692578163ed3bf9c414610185578163efe5c98d1461010c575063fbaf894c146100eb57600080fd5b346101085781600319360112610108576020906007549051908152f35b5080fd5b83915034610108576020366003190112610108578035906003548210156101425760208480858581526002845220549051908152f35b606490602085519162461bcd60e51b8352820152601960248201527f4f726120696e20616661726120696e74657276616c756c7569000000000000006044820152fd5b8383346101085781600319360112610108576001908154156106575760039081541561061c5783835b610465575b50426007558051631e385f6960e01b81529484868281305afa95861561045b5785966103bd575b506101ed82519683885283880190610ec3565b7ff4e36818b74fbce4c838f2f1bf0bd911f73e9aebb1c54789dd9ea8446a1e426260209742898201528033930390a28485858054915b82811061035a575050506005549081158015610350575b610242578680f35b825583548082036102a4575b50505083948394935b610263575b8086958680f35b825484101561029f57848481958852600283528388205461028382610e39565b8192915490881b91821b91600019901b19161790550193610257565b61025c565b6102ad90610f7d565b9081519267ffffffffffffffff841161033d57600160401b841161033d57509087918360055580841061030a575b500160058652855b8281101561024e5781516000805160206110278339815191528201559087019085016102e3565b868460008051602061102783398151915292830192015b82811061032f5750506102db565b8981558a9450889101610321565b634e487b7160e01b885260419052602487fd5b508254811261023a565b61036381610e74565b90546001600160a01b0391891b1c81168a52898b52868a2088015460ff1661038f575b50018690610223565b93819461039e6103b693610e74565b9054908a1b1c168a52898b5282878b20015490610ff4565b928a610386565b9095503d8086833e6103cf8183610f2d565b81019060209081818403126104535780519067ffffffffffffffff821161045757019180601f8401121561045357825161040881610f65565b9361041586519586610f2d565b818552838086019260051b82010192831161044f578301905b828210610440575050505094866101da565b8151815290830190830161042e565b8880fd5b8680fd5b8780fd5b82513d87823e3d90fd5b825481101561061757848590868654905b8181106104f8575050811586816104de57506104cb57600160ff1b81146000198314166104b857918592918392828952600260205205848820555b01906101ae565b634e487b7160e01b875260118852602487fd5b634e487b7160e01b875260128852602487fd5b9391505082915080875260026020526005848820556104b1565b968761050c829b9597989394969a99610e74565b90546001600160a01b0391851b1c81168a5260208a8152898b208501548b919060ff16610547575b5050500198969793919095949298610476565b909183999450610558819994610e74565b905490871b1c1682528181526105738c60028c852001610eab565b905490861b1c976105838a610e74565b905490871b1c168252526105998a898b20610eab565b905490841b1c86810291908a8812600160ff1b8214166106045787830514871517156105f157906105c991610ff4565b9481018091116105de578990958b8981610534565b634e487b7160e01b885260118452602488fd5b634e487b7160e01b8a526011865260248afd5b634e487b7160e01b8b526011875260248bfd5b6101b3565b5162461bcd60e51b815260208186015260166024820152751b9d5b521bdd5c9cc81b9d48195cdd19481cd95d185d60521b6044820152606490fd5b5162461bcd60e51b81526020818501526016602482015275139a58da5d5b881b9bd9081a5b9c9959da5cdd1c985d60521b6044820152606490fd5b9050346106d65760203660031901126106d65735916001548310156106d357506106bd602092610e74565b905491519160018060a01b039160031b1c168152f35b80fd5b8280fd5b8284346106d357806003193601126106d35781519182916005548085526020809501946005835260008051602061102783398151915292905b8282106107415761073d868661072b828b0383610f2d565b51918291602083526020830190610ec3565b0390f35b835487529586019560019384019390910190610713565b50503461010857816003193601126101085760209060ff6008541690519015158152f35b919050346106d6576020918260031936011261080457356001600160a01b03811690819003610804578352828252808320815190819485928583549182815201928252858220915b868282106107ed57859061073d886107de84890385610f2d565b51928284938452830190610ec3565b8354855288955090930192600192830192016107c4565b8380fd5b5050346101085781600319360112610108576020906007549051908152f35b839034610108578160031936011261010857600160ff1960085416176008555460065580f35b5050346101085781600319360112610108576020906003549051908152f35b9050346106d65760203660031901126106d65760209282913581526002845220549051908152f35b9050346106d65760203660031901126106d657356001600160a01b038116908190036106d6579181928152806020522060ff6003600183015492015416825191825215156020820152f35b919050346106d65760603660031901126106d65767ffffffffffffffff908235828111610c8f576109139036908501610ef7565b9093602480359560443586811161044f576109319036908501610ef7565b9091338a526020978a8952878b2060ff60038201541615600014610bdf57508751916080830183811083821117610b8157895261096d88610f65565b9061097a8a519283610f2d565b8882528a82018960051b820191368311610bdb578c90915b838310610bcb57505050508252888201938a85526109af84610f65565b936109bc8a519586610f2d565b8085528a85019060051b820191368311610bc7578b90915b838310610bb757505050508782019283526060820192600194858552338d528c8b52898d209351805190848211610ba5578e888e8093610a14868b610faf565b019288835280832092905b858210610b935750505050505051858401556002830190518051928311610b81578a90610a4c8484610faf565b01908c52898c20858d5b848110610b6f5750505050506003019051151560ff80198354169116179055805490600160401b821015610b5d578181019055610a9290610e74565b81546001600160a01b0360039290921b91821b19163390911b1790555b60035480610aeb575050506003557f1e61759c28c006b2edeffc298e59ea00a93888cddb41dc60e8236de97f039b3c91905b519283523392a280f35b90919203610b1d575050907f1e61759c28c006b2edeffc298e59ea00a93888cddb41dc60e8236de97f039b3c91610ae1565b606493601c9293519362461bcd60e51b85528401528201527f44696d656e7369756e65206e65636f72657370756e7a61746f617265000000006044820152fd5b634e487b7160e01b8952604184528289fd5b8c845194019381840155018690610a56565b634e487b7160e01b8d5260418852868dfd5b8451940193818401550189908f610a1f565b634e487b7160e01b8f5260418a52888ffd5b82358152918101918c91016109d4565b8d80fd5b82358152918101918d9101610992565b8e80fd5b60019491928b6001830180548212610bff575b5050505050505050610aaf565b55838911610b8157610c118983610faf565b908c52898c2090858d5b8a8110610c7d5750505050338b528a89526002888c2001918311610c6b57610c438383610faf565b908a52878a208a5b838110610c5a57808b81610bf2565b823582820155918901918401610c4b565b634e487b7160e01b8b5260418652848bfd5b8c833593019281850155018690610c1b565b8480fd5b50503461010857816003193601126101085780516001805480835281855260208084019592939186907fb10e2d527612073b26eecdfd717e6a320cf44b4afac2b0732d9fcbe2b7fa0cf690855b818110610d325750505082610cf6910383610f2d565b8451948186019282875251809352850195925b828110610d165785870386f35b83516001600160a01b0316875295810195928101928401610d09565b82546001600160a01b0316845292840192918701918701610ce0565b838334610108578160031936011261010857600354610d6c81610f7d565b92805b828110610d8b5783516020808252819061073d90820188610ec3565b80825260206002815284832054908651831015610db357600583901b87010152600101610d6f565b634e487b7160e01b845260328852602484fd5b9050346106d657826003193601126106d65760209250549051908152f35b9050346106d65760203660031901126106d65735916005548310156106d35750610e0f602092610e39565b91905490519160031b1c8152f35b8490346101085781600319360112610108576020906006548152f35b600554811015610e5e5760056000526000805160206110278339815191520190600090565b634e487b7160e01b600052603260045260246000fd5b600154811015610e5e5760016000527fb10e2d527612073b26eecdfd717e6a320cf44b4afac2b0732d9fcbe2b7fa0cf60190600090565b8054821015610e5e5760005260206000200190600090565b90815180825260208080930193019160005b828110610ee3575050505090565b835185529381019392810192600101610ed5565b9181601f84011215610f285782359167ffffffffffffffff8311610f28576020808501948460051b010111610f2857565b600080fd5b90601f8019910116810190811067ffffffffffffffff821117610f4f57604052565b634e487b7160e01b600052604160045260246000fd5b67ffffffffffffffff8111610f4f5760051b60200190565b90610f8782610f65565b610f946040519182610f2d565b8281528092610fa5601f1991610f65565b0190602036910137565b600160401b8211610f4f57805491808255828110610fcc57505050565b600091600052602060002092830192015b828110610fe957505050565b818155600101610fdd565b9190916000838201938412911290801582169115161761101057565b634e487b7160e01b600052601160045260246000fdfe036b6384b5eca791c62761152d0c79bb0604c104a5fb6f4eb0703f3154bb3db0a2646970667358221220bea5e1295faa3ebfa8a986284d6d96e981414acd35addd3813d7f2f5c69090b964736f6c63430008170033",
  "linkReferences": {},
  "deployedLinkReferences": {}
}