{
  "_format": "hh-sol-artifact-1",
  "contractName": "GlobalContract",
  "sourceName": "contracts/GlobalContract.sol",
  "abi": [
    {
      "anonymous": false,
      "inputs": [
        {
          "indexed": true,
          "internalType": "address",
          "name": "trigger",
          "type": "address"
        },
        {
          "indexed": false,
          "internalType": "int256[]",
          "name": "newPlan",
          "type": "int256[]"
        },
        {
          "indexed": false,
          "internalType": "uint256",
          "name": "timestamp",
          "type": "uint256"
        }
      ],
      "name": "GlobalPlanComputed",
      "type": "event"
    },
    {
      "anonymous": false,
      "inputs": [
        {
          "indexed": true,
          "internalType": "address",
          "name": "node",
          "type": "address"
        },
        {
          "indexed": false,
          "internalType": "int256",
          "name": "bestScore",
          "type": "int256"
        }
      ],
      "name": "NodeResultUpdated",
      "type": "event"
    },
    {
      "inputs": [],
      "name": "bestGlobalCost",
      "outputs": [
        {
          "internalType": "int256",
          "name": "",
          "type": "int256"
        }
      ],
      "stateMutability": "view",
      "type": "function"
    },
    {
      "inputs": [
        {
          "internalType": "uint256",
          "name": "",
          "type": "uint256"
        }
      ],
      "name": "bestGlobalPlan",
      "outputs": [
        {
          "internalType": "int256",
          "name": "",
          "type": "int256"
        }
      ],
      "stateMutability": "view",
      "type": "function"
    },
    {
      "inputs": [],
      "name": "computeGlobalOptimalPlan",
      "outputs": [],
      "stateMutability": "nonpayable",
      "type": "function"
    },
    {
      "inputs": [],
      "name": "finalizePlan",
      "outputs": [],
      "stateMutability": "nonpayable",
      "type": "function"
    },
    {
      "inputs": [],
      "name": "finalized",
      "outputs": [
        {
          "internalType": "bool",
          "name": "",
          "type": "bool"
        }
      ],
      "stateMutability": "view",
      "type": "function"
    },
    {
      "inputs": [],
      "name": "frozenGlobalCost",
      "outputs": [
        {
          "internalType": "int256",
          "name": "",
          "type": "int256"
        }
      ],
      "stateMutability": "view",
      "type": "function"
    },
    {
      "inputs": [],
      "name": "getBestGlobalPlan",
      "outputs": [
        {
          "internalType": "int256[]",
          "name": "",
          "type": "int256[]"
        }
      ],
      "stateMutability": "view",
      "type": "function"
    },
    {
      "inputs": [
        {
          "internalType": "address",
          "name": "_node",
          "type": "address"
        }
      ],
      "name": "getBestPosition",
      "outputs": [
        {
          "internalType": "int256[]",
          "name": "",
          "type": "int256[]"
        }
      ],
      "stateMutability": "view",
      "type": "function"
    },
    {
      "inputs": [],
      "name": "getGlobalOptimalPlanArray",
      "outputs": [
        {
          "internalType": "int256[]",
          "name": "",
          "type": "int256[]"
        }
      ],
      "stateMutability": "view",
      "type": "function"
    },
    {
      "inputs": [
        {
          "internalType": "uint256",
          "name": "hour",
          "type": "uint256"
        }
      ],
      "name": "getGlobalOptimalPlanHour",
      "outputs": [
        {
          "internalType": "int256",
          "name": "",
          "type": "int256"
        }
      ],
      "stateMutability": "view",
      "type": "function"
    },
    {
      "inputs": [],
      "name": "getLastUpdatedTimestamp",
      "outputs": [
        {
          "internalType": "uint256",
          "name": "",
          "type": "uint256"
        }
      ],
      "stateMutability": "view",
      "type": "function"
    },
    {
      "inputs": [
        {
          "internalType": "uint256",
          "name": "",
          "type": "uint256"
        }
      ],
      "name": "globalOptimalPlan",
      "outputs": [
        {
          "internalType": "int256",
          "name": "",
          "type": "int256"
        }
      ],
      "stateMutability": "view",
      "type": "function"
    },
    {
      "inputs": [],
      "name": "lastUpdatedTimestamp",
      "outputs": [
        {
          "internalType": "uint256",
          "name": "",
          "type": "uint256"
        }
      ],
      "stateMutability": "view",
      "type": "function"
    },
    {
      "inputs": [
        {
          "internalType": "uint256",
          "name": "",
          "type": "uint256"
        }
      ],
      "name": "nodeAddresses",
      "outputs": [
        {
          "internalType": "address",
          "name": "",
          "type": "address"
        }
      ],
      "stateMutability": "view",
      "type": "function"
    },
    {
      "inputs": [
        {
          "internalType": "address",
          "name": "",
          "type": "address"
        }
      ],
      "name": "nodeResults",
      "outputs": [
        {
          "internalType": "int256",
          "name": "bestScore",
          "type": "int256"
        },
        {
          "internalType": "bool",
          "name": "exists",
          "type": "bool"
        }
      ],
      "stateMutability": "view",
      "type": "function"
    },
    {
      "inputs": [],
      "name": "numHours",
      "outputs": [
        {
          "internalType": "uint256",
          "name": "",
          "type": "uint256"
        }
      ],
      "stateMutability": "view",
      "type": "function"
    },
    {
      "inputs": [
        {
          "internalType": "int256[]",
          "name": "newPosition",
          "type": "int256[]"
        },
        {
          "internalType": "int256",
          "name": "newScore",
          "type": "int256"
        },
        {
          "internalType": "uint256[]",
          "name": "newFlexibilityWeight",
          "type": "uint256[]"
        }
      ],
      "name": "updateNodeResult",
      "outputs": [],
      "stateMutability": "nonpayable",
      "type": "function"
    }
  ],
  "bytecode": "0x6080806040523461002b576001600160ff1b036004556008805460ff19169055610fb690816100318239f35b600080fdfe608060408181526004918236101561001657600080fd5b600092833560e01c9182630bfa7ec914610d57575081630c27abc814610d1e578163160b0cad14610d005781631e385f6914610c885781632fc0395f146108d45781637207c556146108895781637f042dc01461086157816394f6cd8d14610842578163a00239d61461081c578163a626d2c0146107fd578163af602b4314610771578163b3f05b971461074d578163b6042cf9146106cf578163c4d7709014610687578163ed3bf9c41461017a578163efe5c98d14610101575063fbaf894c146100e057600080fd5b346100fd57816003193601126100fd576020906007549051908152f35b5080fd5b839150346100fd5760203660031901126100fd578035906003548210156101375760208480858581526002845220549051908152f35b606490602085519162461bcd60e51b8352820152601960248201527f4f726120696e20616661726120696e74657276616c756c7569000000000000006044820152fd5b8383346100fd57816003193601126100fd5760019081541561064c576003908154156106115783835b61045a575b50426007558051631e385f6960e01b81529484868281305afa9586156104505785966103b2575b506101e282519683885283880190610dfd565b7ff4e36818b74fbce4c838f2f1bf0bd911f73e9aebb1c54789dd9ea8446a1e426260209742898201528033930390a28485858054915b82811061034f575050506005549081158015610345575b610237578680f35b82558354808203610299575b50505083948394935b610258575b8086958680f35b825484101561029457848481958852600283528388205461027882610d73565b8192915490881b91821b91600019901b1916179055019361024c565b610251565b6102a290610eb7565b9081519267ffffffffffffffff841161033257600160401b84116103325750908791836005558084106102ff575b500160058652855b82811015610243578151600080516020610f618339815191528201559087019085016102d8565b8684600080516020610f6183398151915292830192015b8281106103245750506102d0565b8981558a9450889101610316565b634e487b7160e01b885260419052602487fd5b508254811261022f565b61035881610dae565b90546001600160a01b0391891b1c81168a52898b52868a2088015460ff16610384575b50018690610218565b9381946103936103ab93610dae565b9054908a1b1c168a52898b5282878b20015490610f2e565b928a61037b565b9095503d8086833e6103c48183610e67565b81019060209081818403126104485780519067ffffffffffffffff821161044c57019180601f840112156104485782516103fd81610e9f565b9361040a86519586610e67565b818552838086019260051b820101928311610444578301905b828210610435575050505094866101cf565b81518152908301908301610423565b8880fd5b8680fd5b8780fd5b82513d87823e3d90fd5b825481101561060c57848590868654905b8181106104ed575050811586816104d357506104c057600160ff1b81146000198314166104ad57918592918392828952600260205205848820555b01906101a3565b634e487b7160e01b875260118852602487fd5b634e487b7160e01b875260128852602487fd5b9391505082915080875260026020526005848820556104a6565b9687610501829b9597989394969a99610dae565b90546001600160a01b0391851b1c81168a5260208a8152898b208501548b919060ff1661053c575b505050019896979391909594929861046b565b90918399945061054d819994610dae565b905490871b1c1682528181526105688c60028c852001610de5565b905490861b1c976105788a610dae565b905490871b1c1682525261058e8a898b20610de5565b905490841b1c86810291908a8812600160ff1b8214166105f95787830514871517156105e657906105be91610f2e565b9481018091116105d3578990958b8981610529565b634e487b7160e01b885260118452602488fd5b634e487b7160e01b8a526011865260248afd5b634e487b7160e01b8b526011875260248bfd5b6101a8565b5162461bcd60e51b815260208186015260166024820152751b9d5b521bdd5c9cc81b9d48195cdd19481cd95d185d60521b6044820152606490fd5b5162461bcd60e51b81526020818501526016602482015275139a58da5d5b881b9bd9081a5b9c9959da5cdd1c985d60521b6044820152606490fd5b9050346106cb5760203660031901126106cb5735916001548310156106c857506106b2602092610dae565b905491519160018060a01b039160031b1c168152f35b80fd5b8280fd5b8284346106c857806003193601126106c857815191829160055480855260208095019460058352600080516020610f6183398151915292905b828210610736576107328686610720828b0383610e67565b51918291602083526020830190610dfd565b0390f35b835487529586019560019384019390910190610708565b5050346100fd57816003193601126100fd5760209060ff6008541690519015158152f35b919050346106cb57602091826003193601126107f957356001600160a01b038116908190036107f9578352828252808320815190819485928583549182815201928252858220915b868282106107e2578590610732886107d384890385610e67565b51928284938452830190610dfd565b8354855288955090930192600192830192016107b9565b8380fd5b5050346100fd57816003193601126100fd576020906007549051908152f35b8390346100fd57816003193601126100fd57600160ff1960085416176008555460065580f35b5050346100fd57816003193601126100fd576020906003549051908152f35b9050346106cb5760203660031901126106cb5760209282913581526002845220549051908152f35b9050346106cb5760203660031901126106cb57356001600160a01b038116908190036106cb579181928152806020522060ff6003600183015492015416825191825215156020820152f35b919050346106cb5760603660031901126106cb5767ffffffffffffffff908235828111610c84576109089036908501610e31565b90936024803595604435868111610444576109269036908501610e31565b9091338a526020978a8952878b2060ff60038201541615600014610bd457508751916080830183811083821117610b7657895261096288610e9f565b9061096f8a519283610e67565b8882528a82018960051b820191368311610bd0578c90915b838310610bc057505050508252888201938a85526109a484610e9f565b936109b18a519586610e67565b8085528a85019060051b820191368311610bbc578b90915b838310610bac57505050508782019283526060820192600194858552338d528c8b52898d209351805190848211610b9a578e888e8093610a09868b610ee9565b019288835280832092905b858210610b885750505050505051858401556002830190518051928311610b76578a90610a418484610ee9565b01908c52898c20858d5b848110610b645750505050506003019051151560ff80198354169116179055805490600160401b821015610b52578181019055610a8790610dae565b81546001600160a01b0360039290921b91821b19163390911b1790555b60035480610ae0575050506003557f1e61759c28c006b2edeffc298e59ea00a93888cddb41dc60e8236de97f039b3c91905b519283523392a280f35b90919203610b12575050907f1e61759c28c006b2edeffc298e59ea00a93888cddb41dc60e8236de97f039b3c91610ad6565b606493601c9293519362461bcd60e51b85528401528201527f44696d656e7369756e65206e65636f72657370756e7a61746f617265000000006044820152fd5b634e487b7160e01b8952604184528289fd5b8c845194019381840155018690610a4b565b634e487b7160e01b8d5260418852868dfd5b8451940193818401550189908f610a14565b634e487b7160e01b8f5260418a52888ffd5b82358152918101918c91016109c9565b8d80fd5b82358152918101918d9101610987565b8e80fd5b60019491928b6001830180548212610bf4575b5050505050505050610aa4565b55838911610b7657610c068983610ee9565b908c52898c2090858d5b8a8110610c725750505050338b528a89526002888c2001918311610c6057610c388383610ee9565b908a52878a208a5b838110610c4f57808b81610be7565b823582820155918901918401610c40565b634e487b7160e01b8b5260418652848bfd5b8c833593019281850155018690610c10565b8480fd5b8383346100fd57816003193601126100fd57600354610ca681610eb7565b92805b828110610cc55783516020808252819061073290820188610dfd565b80825260206002815284832054908651831015610ced57600583901b87010152600101610ca9565b634e487b7160e01b845260328852602484fd5b9050346106cb57826003193601126106cb5760209250549051908152f35b9050346106cb5760203660031901126106cb5735916005548310156106c85750610d49602092610d73565b91905490519160031b1c8152f35b8490346100fd57816003193601126100fd576020906006548152f35b600554811015610d98576005600052600080516020610f618339815191520190600090565b634e487b7160e01b600052603260045260246000fd5b600154811015610d985760016000527fb10e2d527612073b26eecdfd717e6a320cf44b4afac2b0732d9fcbe2b7fa0cf60190600090565b8054821015610d985760005260206000200190600090565b90815180825260208080930193019160005b828110610e1d575050505090565b835185529381019392810192600101610e0f565b9181601f84011215610e625782359167ffffffffffffffff8311610e62576020808501948460051b010111610e6257565b600080fd5b90601f8019910116810190811067ffffffffffffffff821117610e8957604052565b634e487b7160e01b600052604160045260246000fd5b67ffffffffffffffff8111610e895760051b60200190565b90610ec182610e9f565b610ece6040519182610e67565b8281528092610edf601f1991610e9f565b0190602036910137565b600160401b8211610e8957805491808255828110610f0657505050565b600091600052602060002092830192015b828110610f2357505050565b818155600101610f17565b91909160008382019384129112908015821691151617610f4a57565b634e487b7160e01b600052601160045260246000fdfe036b6384b5eca791c62761152d0c79bb0604c104a5fb6f4eb0703f3154bb3db0a264697066735822122034803ea72e7ef737a87fefc4b9303c5af1a9ceba9143c857a02c714b6cb8fbdf64736f6c63430008170033",
  "linkReferences": {},
  "deployedLinkReferences": {}
}