{
  "_format": "hh-sol-artifact-1",
  "contractName": "GlobalContract",
  "sourceName": "contracts/GlobalContract.sol",
  "abi": [
    {
      "anonymous": false,
      "inputs": [
        {
          "indexed": false,
          "internalType": "int256[]",
          "name": "newPlan",
          "type": "int256[]"
        },
        {
          "indexed": false,
          "internalType": "uint256",
          "name": "timestamp",
          "type": "uint256"
        }
      ],
      "name": "GlobalPlanComputed",
      "type": "event"
    },
    {
      "anonymous": false,
      "inputs": [
        {
          "indexed": true,
          "internalType": "address",
          "name": "node",
          "type": "address"
        },
        {
          "indexed": false,
          "internalType": "int256",
          "name": "bestScore",
          "type": "int256"
        }
      ],
      "name": "NodeResultUpdated",
      "type": "event"
    },
    {
      "inputs": [],
      "name": "bestGlobalCost",
      "outputs": [
        {
          "internalType": "int256",
          "name": "",
          "type": "int256"
        }
      ],
      "stateMutability": "view",
      "type": "function"
    },
    {
      "inputs": [
        {
          "internalType": "uint256",
          "name": "",
          "type": "uint256"
        }
      ],
      "name": "bestGlobalPlan",
      "outputs": [
        {
          "internalType": "int256",
          "name": "",
          "type": "int256"
        }
      ],
      "stateMutability": "view",
      "type": "function"
    },
    {
      "inputs": [],
      "name": "computeGlobalOptimalPlan",
      "outputs": [],
      "stateMutability": "nonpayable",
      "type": "function"
    },
    {
      "inputs": [],
      "name": "finalizePlan",
      "outputs": [],
      "stateMutability": "nonpayable",
      "type": "function"
    },
    {
      "inputs": [],
      "name": "finalized",
      "outputs": [
        {
          "internalType": "bool",
          "name": "",
          "type": "bool"
        }
      ],
      "stateMutability": "view",
      "type": "function"
    },
    {
      "inputs": [],
      "name": "frozenGlobalCost",
      "outputs": [
        {
          "internalType": "int256",
          "name": "",
          "type": "int256"
        }
      ],
      "stateMutability": "view",
      "type": "function"
    },
    {
      "inputs": [],
      "name": "getBestGlobalPlan",
      "outputs": [
        {
          "internalType": "int256[]",
          "name": "",
          "type": "int256[]"
        }
      ],
      "stateMutability": "view",
      "type": "function"
    },
    {
      "inputs": [
        {
          "internalType": "address",
          "name": "_node",
          "type": "address"
        }
      ],
      "name": "getBestPosition",
      "outputs": [
        {
          "internalType": "int256[]",
          "name": "",
          "type": "int256[]"
        }
      ],
      "stateMutability": "view",
      "type": "function"
    },
    {
      "inputs": [],
      "name": "getGlobalOptimalPlanArray",
      "outputs": [
        {
          "internalType": "int256[]",
          "name": "",
          "type": "int256[]"
        }
      ],
      "stateMutability": "view",
      "type": "function"
    },
    {
      "inputs": [
        {
          "internalType": "uint256",
          "name": "hour",
          "type": "uint256"
        }
      ],
      "name": "getGlobalOptimalPlanHour",
      "outputs": [
        {
          "internalType": "int256",
          "name": "",
          "type": "int256"
        }
      ],
      "stateMutability": "view",
      "type": "function"
    },
    {
      "inputs": [],
      "name": "getLastUpdatedTimestamp",
      "outputs": [
        {
          "internalType": "uint256",
          "name": "",
          "type": "uint256"
        }
      ],
      "stateMutability": "view",
      "type": "function"
    },
    {
      "inputs": [
        {
          "internalType": "uint256",
          "name": "",
          "type": "uint256"
        }
      ],
      "name": "globalOptimalPlan",
      "outputs": [
        {
          "internalType": "int256",
          "name": "",
          "type": "int256"
        }
      ],
      "stateMutability": "view",
      "type": "function"
    },
    {
      "inputs": [],
      "name": "lastUpdatedTimestamp",
      "outputs": [
        {
          "internalType": "uint256",
          "name": "",
          "type": "uint256"
        }
      ],
      "stateMutability": "view",
      "type": "function"
    },
    {
      "inputs": [
        {
          "internalType": "uint256",
          "name": "",
          "type": "uint256"
        }
      ],
      "name": "nodeAddresses",
      "outputs": [
        {
          "internalType": "address",
          "name": "",
          "type": "address"
        }
      ],
      "stateMutability": "view",
      "type": "function"
    },
    {
      "inputs": [
        {
          "internalType": "address",
          "name": "",
          "type": "address"
        }
      ],
      "name": "nodeResults",
      "outputs": [
        {
          "internalType": "int256",
          "name": "bestScore",
          "type": "int256"
        },
        {
          "internalType": "bool",
          "name": "exists",
          "type": "bool"
        }
      ],
      "stateMutability": "view",
      "type": "function"
    },
    {
      "inputs": [],
      "name": "numHours",
      "outputs": [
        {
          "internalType": "uint256",
          "name": "",
          "type": "uint256"
        }
      ],
      "stateMutability": "view",
      "type": "function"
    },
    {
      "inputs": [
        {
          "internalType": "int256[]",
          "name": "newPosition",
          "type": "int256[]"
        },
        {
          "internalType": "int256",
          "name": "newScore",
          "type": "int256"
        },
        {
          "internalType": "uint256[]",
          "name": "newFlexibilityWeight",
          "type": "uint256[]"
        }
      ],
      "name": "updateNodeResult",
      "outputs": [],
      "stateMutability": "nonpayable",
      "type": "function"
    }
  ],
  "bytecode": "0x6080806040523461002b576001600160ff1b036004556008805460ff19169055610fb590816100318239f35b600080fdfe608060408181526004918236101561001657600080fd5b600092833560e01c9182630bfa7ec914610d56575081630c27abc814610d1d578163160b0cad14610cff5781631e385f6914610c875781632fc0395f146108d35781637207c556146108885781637f042dc01461086057816394f6cd8d14610841578163a00239d61461081b578163a626d2c0146107fc578163af602b4314610770578163b3f05b971461074c578163b6042cf9146106ce578163c4d7709014610686578163ed3bf9c41461017a578163efe5c98d14610101575063fbaf894c146100e057600080fd5b346100fd57816003193601126100fd576020906007549051908152f35b5080fd5b839150346100fd5760203660031901126100fd578035906003548210156101375760208480858581526002845220549051908152f35b606490602085519162461bcd60e51b8352820152601960248201527f4f726120696e20616661726120696e74657276616c756c7569000000000000006044820152fd5b8383346100fd57816003193601126100fd5760019081541561064b576003908154156106105783835b610459575b50426007558051631e385f6960e01b81529484868281305afa95861561044f5785966103b1575b507f94e1547304e6d63037244c908da52f757ad8e339edce5f9e09985dd78fb8f53961020383519784895284890190610dfc565b9680602098428a8301520390a18485858054915b82811061034e575050506005549081158015610344575b610236578680f35b82558354808203610298575b50505083948394935b610257575b8086958680f35b825484101561029357848481958852600283528388205461027782610d72565b8192915490881b91821b91600019901b1916179055019361024b565b610250565b6102a190610eb6565b9081519267ffffffffffffffff841161033157600160401b84116103315750908791836005558084106102fe575b500160058652855b82811015610242578151600080516020610f608339815191528201559087019085016102d7565b8684600080516020610f6083398151915292830192015b8281106103235750506102cf565b8981558a9450889101610315565b634e487b7160e01b885260419052602487fd5b508254811261022e565b61035781610dad565b90546001600160a01b0391891b1c81168a52898b52868a2088015460ff16610383575b50018690610217565b9381946103926103aa93610dad565b9054908a1b1c168a52898b5282878b20015490610f2d565b928a61037a565b9095503d8086833e6103c38183610e66565b81019060209081818403126104475780519067ffffffffffffffff821161044b57019180601f840112156104475782516103fc81610e9e565b9361040986519586610e66565b818552838086019260051b820101928311610443578301905b828210610434575050505094866101cf565b81518152908301908301610422565b8880fd5b8680fd5b8780fd5b82513d87823e3d90fd5b825481101561060b57848590868654905b8181106104ec575050811586816104d257506104bf57600160ff1b81146000198314166104ac57918592918392828952600260205205848820555b01906101a3565b634e487b7160e01b875260118852602487fd5b634e487b7160e01b875260128852602487fd5b9391505082915080875260026020526005848820556104a5565b9687610500829b9597989394969a99610dad565b90546001600160a01b0391851b1c81168a5260208a8152898b208501548b919060ff1661053b575b505050019896979391909594929861046a565b90918399945061054c819994610dad565b905490871b1c1682528181526105678c60028c852001610de4565b905490861b1c976105778a610dad565b905490871b1c1682525261058d8a898b20610de4565b905490841b1c86810291908a8812600160ff1b8214166105f85787830514871517156105e557906105bd91610f2d565b9481018091116105d2578990958b8981610528565b634e487b7160e01b885260118452602488fd5b634e487b7160e01b8a526011865260248afd5b634e487b7160e01b8b526011875260248bfd5b6101a8565b5162461bcd60e51b815260208186015260166024820152751b9d5b521bdd5c9cc81b9d48195cdd19481cd95d185d60521b6044820152606490fd5b5162461bcd60e51b81526020818501526016602482015275139a58da5d5b881b9bd9081a5b9c9959da5cdd1c985d60521b6044820152606490fd5b9050346106ca5760203660031901126106ca5735916001548310156106c757506106b1602092610dad565b905491519160018060a01b039160031b1c168152f35b80fd5b8280fd5b8284346106c757806003193601126106c757815191829160055480855260208095019460058352600080516020610f6083398151915292905b82821061073557610731868661071f828b0383610e66565b51918291602083526020830190610dfc565b0390f35b835487529586019560019384019390910190610707565b5050346100fd57816003193601126100fd5760209060ff6008541690519015158152f35b919050346106ca57602091826003193601126107f857356001600160a01b038116908190036107f8578352828252808320815190819485928583549182815201928252858220915b868282106107e1578590610731886107d284890385610e66565b51928284938452830190610dfc565b8354855288955090930192600192830192016107b8565b8380fd5b5050346100fd57816003193601126100fd576020906007549051908152f35b8390346100fd57816003193601126100fd57600160ff1960085416176008555460065580f35b5050346100fd57816003193601126100fd576020906003549051908152f35b9050346106ca5760203660031901126106ca5760209282913581526002845220549051908152f35b9050346106ca5760203660031901126106ca57356001600160a01b038116908190036106ca579181928152806020522060ff6003600183015492015416825191825215156020820152f35b919050346106ca5760603660031901126106ca5767ffffffffffffffff908235828111610c83576109079036908501610e30565b90936024803595604435868111610443576109259036908501610e30565b9091338a526020978a8952878b2060ff60038201541615600014610bd357508751916080830183811083821117610b7557895261096188610e9e565b9061096e8a519283610e66565b8882528a82018960051b820191368311610bcf578c90915b838310610bbf57505050508252888201938a85526109a384610e9e565b936109b08a519586610e66565b8085528a85019060051b820191368311610bbb578b90915b838310610bab57505050508782019283526060820192600194858552338d528c8b52898d209351805190848211610b99578e888e8093610a08868b610ee8565b019288835280832092905b858210610b875750505050505051858401556002830190518051928311610b75578a90610a408484610ee8565b01908c52898c20858d5b848110610b635750505050506003019051151560ff80198354169116179055805490600160401b821015610b51578181019055610a8690610dad565b81546001600160a01b0360039290921b91821b19163390911b1790555b60035480610adf575050506003557f1e61759c28c006b2edeffc298e59ea00a93888cddb41dc60e8236de97f039b3c91905b519283523392a280f35b90919203610b11575050907f1e61759c28c006b2edeffc298e59ea00a93888cddb41dc60e8236de97f039b3c91610ad5565b606493601c9293519362461bcd60e51b85528401528201527f44696d656e7369756e65206e65636f72657370756e7a61746f617265000000006044820152fd5b634e487b7160e01b8952604184528289fd5b8c845194019381840155018690610a4a565b634e487b7160e01b8d5260418852868dfd5b8451940193818401550189908f610a13565b634e487b7160e01b8f5260418a52888ffd5b82358152918101918c91016109c8565b8d80fd5b82358152918101918d9101610986565b8e80fd5b60019491928b6001830180548212610bf3575b5050505050505050610aa3565b55838911610b7557610c058983610ee8565b908c52898c2090858d5b8a8110610c715750505050338b528a89526002888c2001918311610c5f57610c378383610ee8565b908a52878a208a5b838110610c4e57808b81610be6565b823582820155918901918401610c3f565b634e487b7160e01b8b5260418652848bfd5b8c833593019281850155018690610c0f565b8480fd5b8383346100fd57816003193601126100fd57600354610ca581610eb6565b92805b828110610cc45783516020808252819061073190820188610dfc565b80825260206002815284832054908651831015610cec57600583901b87010152600101610ca8565b634e487b7160e01b845260328852602484fd5b9050346106ca57826003193601126106ca5760209250549051908152f35b9050346106ca5760203660031901126106ca5735916005548310156106c75750610d48602092610d72565b91905490519160031b1c8152f35b8490346100fd57816003193601126100fd576020906006548152f35b600554811015610d97576005600052600080516020610f608339815191520190600090565b634e487b7160e01b600052603260045260246000fd5b600154811015610d975760016000527fb10e2d527612073b26eecdfd717e6a320cf44b4afac2b0732d9fcbe2b7fa0cf60190600090565b8054821015610d975760005260206000200190600090565b90815180825260208080930193019160005b828110610e1c575050505090565b835185529381019392810192600101610e0e565b9181601f84011215610e615782359167ffffffffffffffff8311610e61576020808501948460051b010111610e6157565b600080fd5b90601f8019910116810190811067ffffffffffffffff821117610e8857604052565b634e487b7160e01b600052604160045260246000fd5b67ffffffffffffffff8111610e885760051b60200190565b90610ec082610e9e565b610ecd6040519182610e66565b8281528092610ede601f1991610e9e565b0190602036910137565b600160401b8211610e8857805491808255828110610f0557505050565b600091600052602060002092830192015b828110610f2257505050565b818155600101610f16565b91909160008382019384129112908015821691151617610f4957565b634e487b7160e01b600052601160045260246000fdfe036b6384b5eca791c62761152d0c79bb0604c104a5fb6f4eb0703f3154bb3db0a2646970667358221220401d28159403cf541157e6aec22f6b61ddb63c3dbb98cf0b1776b08cd4bf7d4e64736f6c63430008170033",
  "linkReferences": {},
  "deployedLinkReferences": {}
}